{
	"data": {
		"bytecode": {
			"linkReferences": {},
			"object": "60e03461012c57611bf380380390601f19601f83011683019183831067ffffffffffffffff8411176101315780849260809460405283398101031261012c578051600160a060020a0391828216820361012c576020810151604082015191848316830361012c576060015192848416840361012c5760005460405195339082167f8be0079c531659141344cd1fd0a4f28419497f9722a3daafe3b4186f6b6457e0600080a3600160a860020a0319163360a060020a60ff021916176000556001805560c05260025560805260a052611a9290816101618239608051818181610f7401528181611125015281816111f40152611256015260a0518181816102c0015281816109b401526112d5015260c051818181610215015281816110a6015281816111b601526113670152f35b600080fd5b7f4e487b7100000000000000000000000000000000000000000000000000000000600052604160045260246000fdfe6080604052600436101561001257600080fd5b60007c01000000000000000000000000000000000000000000000000000000008135048063480a6fdc14610f985780634aa4a4fc14610f545780635c975abb14610f1b578063715018a614610eb4578063720a7dee14610d38578063745284ce146106b85780637a5de53d146105fb5780637aed7746146102e457806389a30271146102a05780638da5cb5b1461027a57806396bcdf841461025c578063a1ecf9d914610239578063c31c9c07146101f5578063f2fde38b146101185763f8b2cb4f146100de57600080fd5b34610115576020366003190112610115576040602091600160a060020a03610104611638565b168152600383522054604051908152f35b80fd5b503461011557602036600319011261011557610132611638565b61013a61175a565b600160a060020a038091169081156101885760005482600160a060020a0319821617600055167f8be0079c531659141344cd1fd0a4f28419497f9722a3daafe3b4186f6b6457e0600080a380f35b608460405160e560020a62461bcd02815260206004820152602660248201527f4f776e61626c653a206e6577206f776e657220697320746865207a65726f206160448201527f64647265737300000000000000000000000000000000000000000000000000006064820152fd5b50346101155780600319360112610115576020604051600160a060020a037f0000000000000000000000000000000000000000000000000000000000000000168152f35b50346101155760203660031901126101155761025361175a565b60043560025580f35b50346101155780600319360112610115576020600254604051908152f35b5034610115578060031936011261011557600160a060020a036020915416604051908152f35b50346101155780600319360112610115576020604051600160a060020a037f0000000000000000000000000000000000000000000000000000000000000000168152f35b50346101155760403660031901126101155767ffffffffffffffff906004358281116105f757610318903690600401611713565b9161032161164e565b906040518451906020938487019261033a818486611664565b8201600481528286600160a060020a039485930301902054166105b15716908185526005845261036d6040862054611992565b610544579061038b846103aa93604051809381928b51928391611664565b8101600481520301902081600160a060020a03198254161790556119d0565b50600654916801000000000000000083101561052d57600192838101806006558110156105145760066000527ff652222313e28459528d920b65115c16c04f3efc82aaedc97be59f3f377c0d3f019285519283116104fd5761040c8454611992565b601f81116104b8575b5081601f8411600114610453575050839482939492610448575b5050816002029160080260020a60001904191617905580f35b01519050388061042f565b909291601f198316968587528287209287905b8982106104a15750508360029596979810610486575b5050500201905580f35b01516008601f841602840a600019041916905538808061047c565b808785968294968601518155019501930190610466565b8486528286208380601f8701048201928187106104f3575b601f0104019082905b8281106104e7575050610415565b600081550182906104d9565b91925082916104d0565b60248560e060020a634e487b710281526041600452fd5b60e060020a634e487b7102600052603260045260246000fd5b60248460e060020a634e487b710281526041600452fd5b6084846040519060e560020a62461bcd0282526004820152602360248201527f43686172697479206164647265737320616c726561647920726567697374657260448201527f65642e00000000000000000000000000000000000000000000000000000000006064820152fd5b6064856040519060e560020a62461bcd02825280600483015260248201527f43686172697479206e616d6520616c726561647920726567697374657265642e6044820152fd5b5080fd5b503461011557806003193601126101155760405180916007549081835260208093018092600783527fa66cc928b5edb82af9bd49922954155ab7b0942694bea4ce44661d9a8736c68890835b8181106106a4575050508461065d9103856116bd565b60405193838594850191818652518092526040850193925b82811061068457505050500390f35b8351600160a060020a031685528695509381019392810192600101610675565b825484529286019260019283019201610647565b5034610115576060366003190112610115576106d2611638565b9060243567ffffffffffffffff808211610d085736602383011215610d0857816004013591610700836116df565b9261070e60405194856116bd565b80845260246020808601920283010190368211610d045760248301905b828210610d0c5750505050604435908111610d085736602382011215610d085780600401359061075a826116df565b9161076860405193846116bd565b80835260246020808501920283010191368311610d0457602401905b828210610cf4575050506107966118c6565b6107a5600260015414156117b5565b6002600155600160a060020a03841633148015610ce1575b15610c9a578151815103610c2d578290835b83519260ff8216938410156108905761080e610808610801600160a060020a03936107fa8888611959565b51906118b9565b9587611959565b5161196c565b5416156108235761081e90611948565b6107cf565b608460405160e560020a62461bcd02815260206004820152602560248201527f417474656d707420746f20646f6e61746520746f20756e6b6e6f776e2063686160448201527f726974792e0000000000000000000000000000000000000000000000000000006064820152fd5b8490878785600160a060020a0383168252600360205260408220548411610bc0578190815b865160ff84161015610b55576108ce60ff841683611959565b51600160a060020a038616855260036020526108ee876040872054611893565b906108fc60ff861685611959565b518815610b3e5788900491828102928184041490151715610b275790610921916118b9565b90875180600019810111610b27576000190160ff851614610b00575b6109a7602083600160a060020a0361095b61080860ff8a168e611959565b541660405193849283927fa9059cbb0000000000000000000000000000000000000000000000000000000084526004840160209093929193600160a060020a0360408201951681520152565b038189600160a060020a037f0000000000000000000000000000000000000000000000000000000000000000165af1908115610af5578691610ac6575b5015610a7f57610a7991610a739189610a34600160a060020a03610a1d610808610a1160ff8c1686611959565b519460ff8c1690611959565b541691602060405192828480945193849201611664565b81010390206040518481527fb0657052acbf78260696b569dbe3a1f1f39287b5a3c378f5bca0c20fbf062dec6020600160a060020a038d1692a46118b9565b92611948565b916108b5565b606460405160e560020a62461bcd02815260206004820152602060248201527f55534443207472616e7366657220746f2063686172697479206661696c65642e6044820152fd5b610ae8915060203d602011610aee575b610ae081836116bd565b810190611930565b896109e4565b503d610ad6565b6040513d88823e3d90fd5b9050600160a060020a03851684526003602052610b21816040862054611893565b9061093d565b60248660e060020a634e487b710281526011600452fd5b60248760e060020a634e487b710281526012600452fd5b8390600160a060020a03861682526003602052604082205403610b79576001805580f35b606460405160e560020a62461bcd02815260206004820152601c60248201527f4d7573742066696e616c697a6520656e746972652062616c616e6365000000006044820152fd5b608460405160e560020a62461bcd02815260206004820152602260248201527f546f74616c2066696e616c697a6174696f6e20616d6f756e7420746f6f20686960448201527f67680000000000000000000000000000000000000000000000000000000000006064820152fd5b608460405160e560020a62461bcd02815260206004820152603160248201527f43686172697469657320616e6420616d6f756e747320617272617973206f662060448201527f646966666572656e74206c656e6774682e0000000000000000000000000000006064820152fd5b606460405160e560020a62461bcd02815260206004820152601d60248201527f556e617574686f72697a6174696f6e2066696e616c697a6174696f6e2e0000006044820152fd5b50600160a060020a0383541633146107bd565b8135815260209182019101610784565b8580fd5b8280fd5b8135858111610d3457602091610d29839260243691890101611713565b81520191019061072b565b8780fd5b5034610115578060031936011261011557600654610d55816116df565b90610d6360405192836116bd565b80825260068352602092838301917ff652222313e28459528d920b65115c16c04f3efc82aaedc97be59f3f377c0d3f9082845b828210610e115750505050604051928484019085855251809152604084019460408183028601019392955b828710610dce5785850386f35b90919293828080600193603f198a82030186528851610df881518092818552858086019101611664565b601f801991011601019601920196019592919092610dc1565b60409796949751878992865492610e2784611992565b808252600194808616908115610e995750600114610e61575b50610e4f8160019603826116bd565b81520194019101909296939596610d96565b888d52838d2095508c905b808210610e825750810183019450610e4f610e40565b8654838301860152958501958c9490910190610e6c565b60ff1916858401525015158302810183019450610e4f610e40565b5034610115578060031936011261011557610ecd61175a565b6000805473ffffffffffffffffffffffffffffffffffffffff1981168255600160a060020a03167f8be0079c531659141344cd1fd0a4f28419497f9722a3daafe3b4186f6b6457e08280a380f35b503461011557806003193601126101155760ff740100000000000000000000000000000000000000006020925404166040519015158152f35b50346101155780600319360112610115576020604051600160a060020a037f0000000000000000000000000000000000000000000000000000000000000000168152f35b50346101155761010036600319011261011557610fb3611638565b610fbb61164e565b60a4359062ffffff8083168093036116345760c435928184168403610d0457610fe26118c6565b610ff1600260015414156117b5565b600260015560405160208101907f23b872dd00000000000000000000000000000000000000000000000000000000825233602482015230604482015260443560648201526064815260a0810181811067ffffffffffffffff82111761161d5760405251879182919082875af1611065611863565b816115ee575b50156115a7576040517f095ea7b30000000000000000000000000000000000000000000000000000000060208201908152600160a060020a037f00000000000000000000000000000000000000000000000000000000000000001660248301526044803581840152825287918291906110e56064826116bd565b519082875af16110f3611863565b81611578575b5015611531576002546040519161110f83611687565b600160a060020a0385168352600160a060020a037f00000000000000000000000000000000000000000000000000000000000000001660208401526040830152306060830152606435608083015260a082015260843560c08201528560e08201526111a4604051917fdb3e21980000000000000000000000000000000000000000000000000000000083526004830190611803565b6020816101048189600160a060020a037f0000000000000000000000000000000000000000000000000000000000000000165af1908115610af55786916114ff575b50600254600160a060020a037f0000000000000000000000000000000000000000000000000000000000000000163b156114fb57604051907f2e1a7d4d0000000000000000000000000000000000000000000000000000000082526004820152868160248183600160a060020a037f0000000000000000000000000000000000000000000000000000000000000000165af180156114f0576114bd575b5085808080600254600160a060020a038a165af161129f611863565b5015611450576112b190604435611893565b90604051936112bf85611687565b600160a060020a0384168552600160a060020a037f0000000000000000000000000000000000000000000000000000000000000000166020860152166040840152306060840152606435608084015260a083015260e43560c08301528360e0830152611355604051927f414bf3890000000000000000000000000000000000000000000000000000000084526004840190611803565b6020826101048187600160a060020a037f0000000000000000000000000000000000000000000000000000000000000000165af1918215611445578492611405575b50600160a060020a03809181851686526003602052604086206113bb8582546118b9565b90556002549360405194604435865260208601526040850152169216907f0860654ad3d0539dbac86150676768b53a47900bb45c5eb8d8d000ffbc4f67e660603392a46001805580f35b9091506020813d60201161143d575b81611421602093836116bd565b81010312611438575190600160a060020a03611397565b600080fd5b3d9150611414565b6040513d86823e3d90fd5b608460405160e560020a62461bcd02815260206004820152602760248201527f4661696c656420746f2073656e642067617320746f20657068656d6572616c2060448201527f77616c6c65742e000000000000000000000000000000000000000000000000006064820152fd5b67ffffffffffffffff81979297116114d9576040529438611283565b60248260e060020a634e487b710281526041600452fd5b6040513d89823e3d90fd5b8680fd5b90506020813d602011611529575b8161151a602093836116bd565b81010312610d045751386111e6565b3d915061150d565b606460405160e560020a62461bcd02815260206004820152600260248201527f53410000000000000000000000000000000000000000000000000000000000006044820152fd5b805180159250821561158d575b5050386110f9565b6115a09250602080918301019101611930565b3880611585565b606460405160e560020a62461bcd02815260206004820152600360248201527f53544600000000000000000000000000000000000000000000000000000000006044820152fd5b8051801592508215611603575b50503861106b565b6116169250602080918301019101611930565b38806115fb565b60248960e060020a634e487b710281526041600452fd5b8480fd5b60043590600160a060020a038216820361143857565b60243590600160a060020a038216820361143857565b60005b8381106116775750506000910152565b8181015183820152602001611667565b610100810190811067ffffffffffffffff8211176116a457604052565b60e060020a634e487b7102600052604160045260246000fd5b90601f8019910116810190811067ffffffffffffffff8211176116a457604052565b67ffffffffffffffff81116116a45760208091020190565b67ffffffffffffffff81116116a457601f01601f191660200190565b81601f820112156114385780359061172a826116f7565b9261173860405194856116bd565b8284526020838301011161143857816000926020809301838601378301015290565b600160a060020a0360005416330361176e57565b606460405160e560020a62461bcd02815260206004820152602060248201527f4f776e61626c653a2063616c6c6572206973206e6f7420746865206f776e65726044820152fd5b156117bc57565b606460405160e560020a62461bcd02815260206004820152601f60248201527f5265656e7472616e637947756172643a207265656e7472616e742063616c6c006044820152fd5b60e09081600160a060020a039182815116855282602082015116602086015262ffffff60408201511660408601528260608201511660608601526080810151608086015260a081015160a086015260c081015160c0860152015116910152565b3d1561188e573d90611874826116f7565b9161188260405193846116bd565b82523d6000602084013e565b606090565b919082039182116118a057565b60e060020a634e487b7102600052601160045260246000fd5b919082018092116118a057565b60ff7401000000000000000000000000000000000000000060005404166118e957565b606460405160e560020a62461bcd02815260206004820152601060248201527f5061757361626c653a20706175736564000000000000000000000000000000006044820152fd5b90816020910312611438575180151581036114385790565b60ff1660ff81146118a05760010190565b8051821015610514576020809202010190565b6020611985918160405193828580945193849201611664565b8101600481520301902090565b90600160028304921680156119c6575b60208310146119ad57565b60e060020a634e487b7102600052602260045260246000fd5b91607f16916119a2565b600081815260086020526040812054611a5757600754680100000000000000008110156114d9576001810180600755811015611a405790826040927fa66cc928b5edb82af9bd49922954155ab7b0942694bea4ce44661d9a8736c688015560075492815260086020522055600190565b60248260e060020a634e487b710281526032600452fd5b90509056fea2646970667358221220d1485bedb4376f813026f1be026d99d2e544fdafaa6b0d1dfa21216cbcf32a8d64736f6c63430008110033",
			"opcodes": "PUSH1 0xE0 CALLVALUE PUSH2 0x12C JUMPI PUSH2 0x1BF3 DUP1 CODESIZE SUB SWAP1 PUSH1 0x1F NOT PUSH1 0x1F DUP4 ADD AND DUP4 ADD SWAP2 DUP4 DUP4 LT PUSH8 0xFFFFFFFFFFFFFFFF DUP5 GT OR PUSH2 0x131 JUMPI DUP1 DUP5 SWAP3 PUSH1 0x80 SWAP5 PUSH1 0x40 MSTORE DUP4 CODECOPY DUP2 ADD SUB SLT PUSH2 0x12C JUMPI DUP1 MLOAD PUSH1 0x1 PUSH1 0xA0 PUSH1 0x2 EXP SUB SWAP2 DUP3 DUP3 AND DUP3 SUB PUSH2 0x12C JUMPI PUSH1 0x20 DUP2 ADD MLOAD PUSH1 0x40 DUP3 ADD MLOAD SWAP2 DUP5 DUP4 AND DUP4 SUB PUSH2 0x12C JUMPI PUSH1 0x60 ADD MLOAD SWAP3 DUP5 DUP5 AND DUP5 SUB PUSH2 0x12C JUMPI PUSH1 0x0 SLOAD PUSH1 0x40 MLOAD SWAP6 CALLER SWAP1 DUP3 AND PUSH32 0x8BE0079C531659141344CD1FD0A4F28419497F9722A3DAAFE3B4186F6B6457E0 PUSH1 0x0 DUP1 LOG3 PUSH1 0x1 PUSH1 0xA8 PUSH1 0x2 EXP SUB NOT AND CALLER PUSH1 0xA0 PUSH1 0x2 EXP PUSH1 0xFF MUL NOT AND OR PUSH1 0x0 SSTORE PUSH1 0x1 DUP1 SSTORE PUSH1 0xC0 MSTORE PUSH1 0x2 SSTORE PUSH1 0x80 MSTORE PUSH1 0xA0 MSTORE PUSH2 0x1A92 SWAP1 DUP2 PUSH2 0x161 DUP3 CODECOPY PUSH1 0x80 MLOAD DUP2 DUP2 DUP2 PUSH2 0xF74 ADD MSTORE DUP2 DUP2 PUSH2 0x1125 ADD MSTORE DUP2 DUP2 PUSH2 0x11F4 ADD MSTORE PUSH2 0x1256 ADD MSTORE PUSH1 0xA0 MLOAD DUP2 DUP2 DUP2 PUSH2 0x2C0 ADD MSTORE DUP2 DUP2 PUSH2 0x9B4 ADD MSTORE PUSH2 0x12D5 ADD MSTORE PUSH1 0xC0 MLOAD DUP2 DUP2 DUP2 PUSH2 0x215 ADD MSTORE DUP2 DUP2 PUSH2 0x10A6 ADD MSTORE DUP2 DUP2 PUSH2 0x11B6 ADD MSTORE PUSH2 0x1367 ADD MSTORE RETURN JUMPDEST PUSH1 0x0 DUP1 REVERT JUMPDEST PUSH32 0x4E487B7100000000000000000000000000000000000000000000000000000000 PUSH1 0x0 MSTORE PUSH1 0x41 PUSH1 0x4 MSTORE PUSH1 0x24 PUSH1 0x0 REVERT INVALID PUSH1 0x80 PUSH1 0x40 MSTORE PUSH1 0x4 CALLDATASIZE LT ISZERO PUSH2 0x12 JUMPI PUSH1 0x0 DUP1 REVERT JUMPDEST PUSH1 0x0 PUSH29 0x100000000000000000000000000000000000000000000000000000000 DUP2 CALLDATALOAD DIV DUP1 PUSH4 0x480A6FDC EQ PUSH2 0xF98 JUMPI DUP1 PUSH4 0x4AA4A4FC EQ PUSH2 0xF54 JUMPI DUP1 PUSH4 0x5C975ABB EQ PUSH2 0xF1B JUMPI DUP1 PUSH4 0x715018A6 EQ PUSH2 0xEB4 JUMPI DUP1 PUSH4 0x720A7DEE EQ PUSH2 0xD38 JUMPI DUP1 PUSH4 0x745284CE EQ PUSH2 0x6B8 JUMPI DUP1 PUSH4 0x7A5DE53D EQ PUSH2 0x5FB JUMPI DUP1 PUSH4 0x7AED7746 EQ PUSH2 0x2E4 JUMPI DUP1 PUSH4 0x89A30271 EQ PUSH2 0x2A0 JUMPI DUP1 PUSH4 0x8DA5CB5B EQ PUSH2 0x27A JUMPI DUP1 PUSH4 0x96BCDF84 EQ PUSH2 0x25C JUMPI DUP1 PUSH4 0xA1ECF9D9 EQ PUSH2 0x239 JUMPI DUP1 PUSH4 0xC31C9C07 EQ PUSH2 0x1F5 JUMPI DUP1 PUSH4 0xF2FDE38B EQ PUSH2 0x118 JUMPI PUSH4 0xF8B2CB4F EQ PUSH2 0xDE JUMPI PUSH1 0x0 DUP1 REVERT JUMPDEST CALLVALUE PUSH2 0x115 JUMPI PUSH1 0x20 CALLDATASIZE PUSH1 0x3 NOT ADD SLT PUSH2 0x115 JUMPI PUSH1 0x40 PUSH1 0x20 SWAP2 PUSH1 0x1 PUSH1 0xA0 PUSH1 0x2 EXP SUB PUSH2 0x104 PUSH2 0x1638 JUMP JUMPDEST AND DUP2 MSTORE PUSH1 0x3 DUP4 MSTORE KECCAK256 SLOAD PUSH1 0x40 MLOAD SWAP1 DUP2 MSTORE RETURN JUMPDEST DUP1 REVERT JUMPDEST POP CALLVALUE PUSH2 0x115 JUMPI PUSH1 0x20 CALLDATASIZE PUSH1 0x3 NOT ADD SLT PUSH2 0x115 JUMPI PUSH2 0x132 PUSH2 0x1638 JUMP JUMPDEST PUSH2 0x13A PUSH2 0x175A JUMP JUMPDEST PUSH1 0x1 PUSH1 0xA0 PUSH1 0x2 EXP SUB DUP1 SWAP2 AND SWAP1 DUP2 ISZERO PUSH2 0x188 JUMPI PUSH1 0x0 SLOAD DUP3 PUSH1 0x1 PUSH1 0xA0 PUSH1 0x2 EXP SUB NOT DUP3 AND OR PUSH1 0x0 SSTORE AND PUSH32 0x8BE0079C531659141344CD1FD0A4F28419497F9722A3DAAFE3B4186F6B6457E0 PUSH1 0x0 DUP1 LOG3 DUP1 RETURN JUMPDEST PUSH1 0x84 PUSH1 0x40 MLOAD PUSH1 0xE5 PUSH1 0x2 EXP PUSH3 0x461BCD MUL DUP2 MSTORE PUSH1 0x20 PUSH1 0x4 DUP3 ADD MSTORE PUSH1 0x26 PUSH1 0x24 DUP3 ADD MSTORE PUSH32 0x4F776E61626C653A206E6577206F776E657220697320746865207A65726F2061 PUSH1 0x44 DUP3 ADD MSTORE PUSH32 0x6464726573730000000000000000000000000000000000000000000000000000 PUSH1 0x64 DUP3 ADD MSTORE REVERT JUMPDEST POP CALLVALUE PUSH2 0x115 JUMPI DUP1 PUSH1 0x3 NOT CALLDATASIZE ADD SLT PUSH2 0x115 JUMPI PUSH1 0x20 PUSH1 0x40 MLOAD PUSH1 0x1 PUSH1 0xA0 PUSH1 0x2 EXP SUB PUSH32 0x0 AND DUP2 MSTORE RETURN JUMPDEST POP CALLVALUE PUSH2 0x115 JUMPI PUSH1 0x20 CALLDATASIZE PUSH1 0x3 NOT ADD SLT PUSH2 0x115 JUMPI PUSH2 0x253 PUSH2 0x175A JUMP JUMPDEST PUSH1 0x4 CALLDATALOAD PUSH1 0x2 SSTORE DUP1 RETURN JUMPDEST POP CALLVALUE PUSH2 0x115 JUMPI DUP1 PUSH1 0x3 NOT CALLDATASIZE ADD SLT PUSH2 0x115 JUMPI PUSH1 0x20 PUSH1 0x2 SLOAD PUSH1 0x40 MLOAD SWAP1 DUP2 MSTORE RETURN JUMPDEST POP CALLVALUE PUSH2 0x115 JUMPI DUP1 PUSH1 0x3 NOT CALLDATASIZE ADD SLT PUSH2 0x115 JUMPI PUSH1 0x1 PUSH1 0xA0 PUSH1 0x2 EXP SUB PUSH1 0x20 SWAP2 SLOAD AND PUSH1 0x40 MLOAD SWAP1 DUP2 MSTORE RETURN JUMPDEST POP CALLVALUE PUSH2 0x115 JUMPI DUP1 PUSH1 0x3 NOT CALLDATASIZE ADD SLT PUSH2 0x115 JUMPI PUSH1 0x20 PUSH1 0x40 MLOAD PUSH1 0x1 PUSH1 0xA0 PUSH1 0x2 EXP SUB PUSH32 0x0 AND DUP2 MSTORE RETURN JUMPDEST POP CALLVALUE PUSH2 0x115 JUMPI PUSH1 0x40 CALLDATASIZE PUSH1 0x3 NOT ADD SLT PUSH2 0x115 JUMPI PUSH8 0xFFFFFFFFFFFFFFFF SWAP1 PUSH1 0x4 CALLDATALOAD DUP3 DUP2 GT PUSH2 0x5F7 JUMPI PUSH2 0x318 SWAP1 CALLDATASIZE SWAP1 PUSH1 0x4 ADD PUSH2 0x1713 JUMP JUMPDEST SWAP2 PUSH2 0x321 PUSH2 0x164E JUMP JUMPDEST SWAP1 PUSH1 0x40 MLOAD DUP5 MLOAD SWAP1 PUSH1 0x20 SWAP4 DUP5 DUP8 ADD SWAP3 PUSH2 0x33A DUP2 DUP5 DUP7 PUSH2 0x1664 JUMP JUMPDEST DUP3 ADD PUSH1 0x4 DUP2 MSTORE DUP3 DUP7 PUSH1 0x1 PUSH1 0xA0 PUSH1 0x2 EXP SUB SWAP5 DUP6 SWAP4 SUB ADD SWAP1 KECCAK256 SLOAD AND PUSH2 0x5B1 JUMPI AND SWAP1 DUP2 DUP6 MSTORE PUSH1 0x5 DUP5 MSTORE PUSH2 0x36D PUSH1 0x40 DUP7 KECCAK256 SLOAD PUSH2 0x1992 JUMP JUMPDEST PUSH2 0x544 JUMPI SWAP1 PUSH2 0x38B DUP5 PUSH2 0x3AA SWAP4 PUSH1 0x40 MLOAD DUP1 SWAP4 DUP2 SWAP3 DUP12 MLOAD SWAP3 DUP4 SWAP2 PUSH2 0x1664 JUMP JUMPDEST DUP2 ADD PUSH1 0x4 DUP2 MSTORE SUB ADD SWAP1 KECCAK256 DUP2 PUSH1 0x1 PUSH1 0xA0 PUSH1 0x2 EXP SUB NOT DUP3 SLOAD AND OR SWAP1 SSTORE PUSH2 0x19D0 JUMP JUMPDEST POP PUSH1 0x6 SLOAD SWAP2 PUSH9 0x10000000000000000 DUP4 LT ISZERO PUSH2 0x52D JUMPI PUSH1 0x1 SWAP3 DUP4 DUP2 ADD DUP1 PUSH1 0x6 SSTORE DUP2 LT ISZERO PUSH2 0x514 JUMPI PUSH1 0x6 PUSH1 0x0 MSTORE PUSH32 0xF652222313E28459528D920B65115C16C04F3EFC82AAEDC97BE59F3F377C0D3F ADD SWAP3 DUP6 MLOAD SWAP3 DUP4 GT PUSH2 0x4FD JUMPI PUSH2 0x40C DUP5 SLOAD PUSH2 0x1992 JUMP JUMPDEST PUSH1 0x1F DUP2 GT PUSH2 0x4B8 JUMPI JUMPDEST POP DUP2 PUSH1 0x1F DUP5 GT PUSH1 0x1 EQ PUSH2 0x453 JUMPI POP POP DUP4 SWAP5 DUP3 SWAP4 SWAP5 SWAP3 PUSH2 0x448 JUMPI JUMPDEST POP POP DUP2 PUSH1 0x2 MUL SWAP2 PUSH1 0x8 MUL PUSH1 0x2 EXP PUSH1 0x0 NOT DIV NOT AND OR SWAP1 SSTORE DUP1 RETURN JUMPDEST ADD MLOAD SWAP1 POP CODESIZE DUP1 PUSH2 0x42F JUMP JUMPDEST SWAP1 SWAP3 SWAP2 PUSH1 0x1F NOT DUP4 AND SWAP7 DUP6 DUP8 MSTORE DUP3 DUP8 KECCAK256 SWAP3 DUP8 SWAP1 JUMPDEST DUP10 DUP3 LT PUSH2 0x4A1 JUMPI POP POP DUP4 PUSH1 0x2 SWAP6 SWAP7 SWAP8 SWAP9 LT PUSH2 0x486 JUMPI JUMPDEST POP POP POP MUL ADD SWAP1 SSTORE DUP1 RETURN JUMPDEST ADD MLOAD PUSH1 0x8 PUSH1 0x1F DUP5 AND MUL DUP5 EXP PUSH1 0x0 NOT DIV NOT AND SWAP1 SSTORE CODESIZE DUP1 DUP1 PUSH2 0x47C JUMP JUMPDEST DUP1 DUP8 DUP6 SWAP7 DUP3 SWAP5 SWAP7 DUP7 ADD MLOAD DUP2 SSTORE ADD SWAP6 ADD SWAP4 ADD SWAP1 PUSH2 0x466 JUMP JUMPDEST DUP5 DUP7 MSTORE DUP3 DUP7 KECCAK256 DUP4 DUP1 PUSH1 0x1F DUP8 ADD DIV DUP3 ADD SWAP3 DUP2 DUP8 LT PUSH2 0x4F3 JUMPI JUMPDEST PUSH1 0x1F ADD DIV ADD SWAP1 DUP3 SWAP1 JUMPDEST DUP3 DUP2 LT PUSH2 0x4E7 JUMPI POP POP PUSH2 0x415 JUMP JUMPDEST PUSH1 0x0 DUP2 SSTORE ADD DUP3 SWAP1 PUSH2 0x4D9 JUMP JUMPDEST SWAP2 SWAP3 POP DUP3 SWAP2 PUSH2 0x4D0 JUMP JUMPDEST PUSH1 0x24 DUP6 PUSH1 0xE0 PUSH1 0x2 EXP PUSH4 0x4E487B71 MUL DUP2 MSTORE PUSH1 0x41 PUSH1 0x4 MSTORE REVERT JUMPDEST PUSH1 0xE0 PUSH1 0x2 EXP PUSH4 0x4E487B71 MUL PUSH1 0x0 MSTORE PUSH1 0x32 PUSH1 0x4 MSTORE PUSH1 0x24 PUSH1 0x0 REVERT JUMPDEST PUSH1 0x24 DUP5 PUSH1 0xE0 PUSH1 0x2 EXP PUSH4 0x4E487B71 MUL DUP2 MSTORE PUSH1 0x41 PUSH1 0x4 MSTORE REVERT JUMPDEST PUSH1 0x84 DUP5 PUSH1 0x40 MLOAD SWAP1 PUSH1 0xE5 PUSH1 0x2 EXP PUSH3 0x461BCD MUL DUP3 MSTORE PUSH1 0x4 DUP3 ADD MSTORE PUSH1 0x23 PUSH1 0x24 DUP3 ADD MSTORE PUSH32 0x43686172697479206164647265737320616C7265616479207265676973746572 PUSH1 0x44 DUP3 ADD MSTORE PUSH32 0x65642E0000000000000000000000000000000000000000000000000000000000 PUSH1 0x64 DUP3 ADD MSTORE REVERT JUMPDEST PUSH1 0x64 DUP6 PUSH1 0x40 MLOAD SWAP1 PUSH1 0xE5 PUSH1 0x2 EXP PUSH3 0x461BCD MUL DUP3 MSTORE DUP1 PUSH1 0x4 DUP4 ADD MSTORE PUSH1 0x24 DUP3 ADD MSTORE PUSH32 0x43686172697479206E616D6520616C726561647920726567697374657265642E PUSH1 0x44 DUP3 ADD MSTORE REVERT JUMPDEST POP DUP1 REVERT JUMPDEST POP CALLVALUE PUSH2 0x115 JUMPI DUP1 PUSH1 0x3 NOT CALLDATASIZE ADD SLT PUSH2 0x115 JUMPI PUSH1 0x40 MLOAD DUP1 SWAP2 PUSH1 0x7 SLOAD SWAP1 DUP2 DUP4 MSTORE PUSH1 0x20 DUP1 SWAP4 ADD DUP1 SWAP3 PUSH1 0x7 DUP4 MSTORE PUSH32 0xA66CC928B5EDB82AF9BD49922954155AB7B0942694BEA4CE44661D9A8736C688 SWAP1 DUP4 JUMPDEST DUP2 DUP2 LT PUSH2 0x6A4 JUMPI POP POP POP DUP5 PUSH2 0x65D SWAP2 SUB DUP6 PUSH2 0x16BD JUMP JUMPDEST PUSH1 0x40 MLOAD SWAP4 DUP4 DUP6 SWAP5 DUP6 ADD SWAP2 DUP2 DUP7 MSTORE MLOAD DUP1 SWAP3 MSTORE PUSH1 0x40 DUP6 ADD SWAP4 SWAP3 JUMPDEST DUP3 DUP2 LT PUSH2 0x684 JUMPI POP POP POP POP SUB SWAP1 RETURN JUMPDEST DUP4 MLOAD PUSH1 0x1 PUSH1 0xA0 PUSH1 0x2 EXP SUB AND DUP6 MSTORE DUP7 SWAP6 POP SWAP4 DUP2 ADD SWAP4 SWAP3 DUP2 ADD SWAP3 PUSH1 0x1 ADD PUSH2 0x675 JUMP JUMPDEST DUP3 SLOAD DUP5 MSTORE SWAP3 DUP7 ADD SWAP3 PUSH1 0x1 SWAP3 DUP4 ADD SWAP3 ADD PUSH2 0x647 JUMP JUMPDEST POP CALLVALUE PUSH2 0x115 JUMPI PUSH1 0x60 CALLDATASIZE PUSH1 0x3 NOT ADD SLT PUSH2 0x115 JUMPI PUSH2 0x6D2 PUSH2 0x1638 JUMP JUMPDEST SWAP1 PUSH1 0x24 CALLDATALOAD PUSH8 0xFFFFFFFFFFFFFFFF DUP1 DUP3 GT PUSH2 0xD08 JUMPI CALLDATASIZE PUSH1 0x23 DUP4 ADD SLT ISZERO PUSH2 0xD08 JUMPI DUP2 PUSH1 0x4 ADD CALLDATALOAD SWAP2 PUSH2 0x700 DUP4 PUSH2 0x16DF JUMP JUMPDEST SWAP3 PUSH2 0x70E PUSH1 0x40 MLOAD SWAP5 DUP6 PUSH2 0x16BD JUMP JUMPDEST DUP1 DUP5 MSTORE PUSH1 0x24 PUSH1 0x20 DUP1 DUP7 ADD SWAP3 MUL DUP4 ADD ADD SWAP1 CALLDATASIZE DUP3 GT PUSH2 0xD04 JUMPI PUSH1 0x24 DUP4 ADD SWAP1 JUMPDEST DUP3 DUP3 LT PUSH2 0xD0C JUMPI POP POP POP POP PUSH1 0x44 CALLDATALOAD SWAP1 DUP2 GT PUSH2 0xD08 JUMPI CALLDATASIZE PUSH1 0x23 DUP3 ADD SLT ISZERO PUSH2 0xD08 JUMPI DUP1 PUSH1 0x4 ADD CALLDATALOAD SWAP1 PUSH2 0x75A DUP3 PUSH2 0x16DF JUMP JUMPDEST SWAP2 PUSH2 0x768 PUSH1 0x40 MLOAD SWAP4 DUP5 PUSH2 0x16BD JUMP JUMPDEST DUP1 DUP4 MSTORE PUSH1 0x24 PUSH1 0x20 DUP1 DUP6 ADD SWAP3 MUL DUP4 ADD ADD SWAP2 CALLDATASIZE DUP4 GT PUSH2 0xD04 JUMPI PUSH1 0x24 ADD SWAP1 JUMPDEST DUP3 DUP3 LT PUSH2 0xCF4 JUMPI POP POP POP PUSH2 0x796 PUSH2 0x18C6 JUMP JUMPDEST PUSH2 0x7A5 PUSH1 0x2 PUSH1 0x1 SLOAD EQ ISZERO PUSH2 0x17B5 JUMP JUMPDEST PUSH1 0x2 PUSH1 0x1 SSTORE PUSH1 0x1 PUSH1 0xA0 PUSH1 0x2 EXP SUB DUP5 AND CALLER EQ DUP1 ISZERO PUSH2 0xCE1 JUMPI JUMPDEST ISZERO PUSH2 0xC9A JUMPI DUP2 MLOAD DUP2 MLOAD SUB PUSH2 0xC2D JUMPI DUP3 SWAP1 DUP4 JUMPDEST DUP4 MLOAD SWAP3 PUSH1 0xFF DUP3 AND SWAP4 DUP5 LT ISZERO PUSH2 0x890 JUMPI PUSH2 0x80E PUSH2 0x808 PUSH2 0x801 PUSH1 0x1 PUSH1 0xA0 PUSH1 0x2 EXP SUB SWAP4 PUSH2 0x7FA DUP9 DUP9 PUSH2 0x1959 JUMP JUMPDEST MLOAD SWAP1 PUSH2 0x18B9 JUMP JUMPDEST SWAP6 DUP8 PUSH2 0x1959 JUMP JUMPDEST MLOAD PUSH2 0x196C JUMP JUMPDEST SLOAD AND ISZERO PUSH2 0x823 JUMPI PUSH2 0x81E SWAP1 PUSH2 0x1948 JUMP JUMPDEST PUSH2 0x7CF JUMP JUMPDEST PUSH1 0x84 PUSH1 0x40 MLOAD PUSH1 0xE5 PUSH1 0x2 EXP PUSH3 0x461BCD MUL DUP2 MSTORE PUSH1 0x20 PUSH1 0x4 DUP3 ADD MSTORE PUSH1 0x25 PUSH1 0x24 DUP3 ADD MSTORE PUSH32 0x417474656D707420746F20646F6E61746520746F20756E6B6E6F776E20636861 PUSH1 0x44 DUP3 ADD MSTORE PUSH32 0x726974792E000000000000000000000000000000000000000000000000000000 PUSH1 0x64 DUP3 ADD MSTORE REVERT JUMPDEST DUP5 SWAP1 DUP8 DUP8 DUP6 PUSH1 0x1 PUSH1 0xA0 PUSH1 0x2 EXP SUB DUP4 AND DUP3 MSTORE PUSH1 0x3 PUSH1 0x20 MSTORE PUSH1 0x40 DUP3 KECCAK256 SLOAD DUP5 GT PUSH2 0xBC0 JUMPI DUP2 SWAP1 DUP2 JUMPDEST DUP7 MLOAD PUSH1 0xFF DUP5 AND LT ISZERO PUSH2 0xB55 JUMPI PUSH2 0x8CE PUSH1 0xFF DUP5 AND DUP4 PUSH2 0x1959 JUMP JUMPDEST MLOAD PUSH1 0x1 PUSH1 0xA0 PUSH1 0x2 EXP SUB DUP7 AND DUP6 MSTORE PUSH1 0x3 PUSH1 0x20 MSTORE PUSH2 0x8EE DUP8 PUSH1 0x40 DUP8 KECCAK256 SLOAD PUSH2 0x1893 JUMP JUMPDEST SWAP1 PUSH2 0x8FC PUSH1 0xFF DUP7 AND DUP6 PUSH2 0x1959 JUMP JUMPDEST MLOAD DUP9 ISZERO PUSH2 0xB3E JUMPI DUP9 SWAP1 DIV SWAP2 DUP3 DUP2 MUL SWAP3 DUP2 DUP5 DIV EQ SWAP1 ISZERO OR ISZERO PUSH2 0xB27 JUMPI SWAP1 PUSH2 0x921 SWAP2 PUSH2 0x18B9 JUMP JUMPDEST SWAP1 DUP8 MLOAD DUP1 PUSH1 0x0 NOT DUP2 ADD GT PUSH2 0xB27 JUMPI PUSH1 0x0 NOT ADD PUSH1 0xFF DUP6 AND EQ PUSH2 0xB00 JUMPI JUMPDEST PUSH2 0x9A7 PUSH1 0x20 DUP4 PUSH1 0x1 PUSH1 0xA0 PUSH1 0x2 EXP SUB PUSH2 0x95B PUSH2 0x808 PUSH1 0xFF DUP11 AND DUP15 PUSH2 0x1959 JUMP JUMPDEST SLOAD AND PUSH1 0x40 MLOAD SWAP4 DUP5 SWAP3 DUP4 SWAP3 PUSH32 0xA9059CBB00000000000000000000000000000000000000000000000000000000 DUP5 MSTORE PUSH1 0x4 DUP5 ADD PUSH1 0x20 SWAP1 SWAP4 SWAP3 SWAP2 SWAP4 PUSH1 0x1 PUSH1 0xA0 PUSH1 0x2 EXP SUB PUSH1 0x40 DUP3 ADD SWAP6 AND DUP2 MSTORE ADD MSTORE JUMP JUMPDEST SUB DUP2 DUP10 PUSH1 0x1 PUSH1 0xA0 PUSH1 0x2 EXP SUB PUSH32 0x0 AND GAS CALL SWAP1 DUP2 ISZERO PUSH2 0xAF5 JUMPI DUP7 SWAP2 PUSH2 0xAC6 JUMPI JUMPDEST POP ISZERO PUSH2 0xA7F JUMPI PUSH2 0xA79 SWAP2 PUSH2 0xA73 SWAP2 DUP10 PUSH2 0xA34 PUSH1 0x1 PUSH1 0xA0 PUSH1 0x2 EXP SUB PUSH2 0xA1D PUSH2 0x808 PUSH2 0xA11 PUSH1 0xFF DUP13 AND DUP7 PUSH2 0x1959 JUMP JUMPDEST MLOAD SWAP5 PUSH1 0xFF DUP13 AND SWAP1 PUSH2 0x1959 JUMP JUMPDEST SLOAD AND SWAP2 PUSH1 0x20 PUSH1 0x40 MLOAD SWAP3 DUP3 DUP5 DUP1 SWAP5 MLOAD SWAP4 DUP5 SWAP3 ADD PUSH2 0x1664 JUMP JUMPDEST DUP2 ADD SUB SWAP1 KECCAK256 PUSH1 0x40 MLOAD DUP5 DUP2 MSTORE PUSH32 0xB0657052ACBF78260696B569DBE3A1F1F39287B5A3C378F5BCA0C20FBF062DEC PUSH1 0x20 PUSH1 0x1 PUSH1 0xA0 PUSH1 0x2 EXP SUB DUP14 AND SWAP3 LOG4 PUSH2 0x18B9 JUMP JUMPDEST SWAP3 PUSH2 0x1948 JUMP JUMPDEST SWAP2 PUSH2 0x8B5 JUMP JUMPDEST PUSH1 0x64 PUSH1 0x40 MLOAD PUSH1 0xE5 PUSH1 0x2 EXP PUSH3 0x461BCD MUL DUP2 MSTORE PUSH1 0x20 PUSH1 0x4 DUP3 ADD MSTORE PUSH1 0x20 PUSH1 0x24 DUP3 ADD MSTORE PUSH32 0x55534443207472616E7366657220746F2063686172697479206661696C65642E PUSH1 0x44 DUP3 ADD MSTORE REVERT JUMPDEST PUSH2 0xAE8 SWAP2 POP PUSH1 0x20 RETURNDATASIZE PUSH1 0x20 GT PUSH2 0xAEE JUMPI JUMPDEST PUSH2 0xAE0 DUP2 DUP4 PUSH2 0x16BD JUMP JUMPDEST DUP2 ADD SWAP1 PUSH2 0x1930 JUMP JUMPDEST DUP10 PUSH2 0x9E4 JUMP JUMPDEST POP RETURNDATASIZE PUSH2 0xAD6 JUMP JUMPDEST PUSH1 0x40 MLOAD RETURNDATASIZE DUP9 DUP3 RETURNDATACOPY RETURNDATASIZE SWAP1 REVERT JUMPDEST SWAP1 POP PUSH1 0x1 PUSH1 0xA0 PUSH1 0x2 EXP SUB DUP6 AND DUP5 MSTORE PUSH1 0x3 PUSH1 0x20 MSTORE PUSH2 0xB21 DUP2 PUSH1 0x40 DUP7 KECCAK256 SLOAD PUSH2 0x1893 JUMP JUMPDEST SWAP1 PUSH2 0x93D JUMP JUMPDEST PUSH1 0x24 DUP7 PUSH1 0xE0 PUSH1 0x2 EXP PUSH4 0x4E487B71 MUL DUP2 MSTORE PUSH1 0x11 PUSH1 0x4 MSTORE REVERT JUMPDEST PUSH1 0x24 DUP8 PUSH1 0xE0 PUSH1 0x2 EXP PUSH4 0x4E487B71 MUL DUP2 MSTORE PUSH1 0x12 PUSH1 0x4 MSTORE REVERT JUMPDEST DUP4 SWAP1 PUSH1 0x1 PUSH1 0xA0 PUSH1 0x2 EXP SUB DUP7 AND DUP3 MSTORE PUSH1 0x3 PUSH1 0x20 MSTORE PUSH1 0x40 DUP3 KECCAK256 SLOAD SUB PUSH2 0xB79 JUMPI PUSH1 0x1 DUP1 SSTORE DUP1 RETURN JUMPDEST PUSH1 0x64 PUSH1 0x40 MLOAD PUSH1 0xE5 PUSH1 0x2 EXP PUSH3 0x461BCD MUL DUP2 MSTORE PUSH1 0x20 PUSH1 0x4 DUP3 ADD MSTORE PUSH1 0x1C PUSH1 0x24 DUP3 ADD MSTORE PUSH32 0x4D7573742066696E616C697A6520656E746972652062616C616E636500000000 PUSH1 0x44 DUP3 ADD MSTORE REVERT JUMPDEST PUSH1 0x84 PUSH1 0x40 MLOAD PUSH1 0xE5 PUSH1 0x2 EXP PUSH3 0x461BCD MUL DUP2 MSTORE PUSH1 0x20 PUSH1 0x4 DUP3 ADD MSTORE PUSH1 0x22 PUSH1 0x24 DUP3 ADD MSTORE PUSH32 0x546F74616C2066696E616C697A6174696F6E20616D6F756E7420746F6F206869 PUSH1 0x44 DUP3 ADD MSTORE PUSH32 0x6768000000000000000000000000000000000000000000000000000000000000 PUSH1 0x64 DUP3 ADD MSTORE REVERT JUMPDEST PUSH1 0x84 PUSH1 0x40 MLOAD PUSH1 0xE5 PUSH1 0x2 EXP PUSH3 0x461BCD MUL DUP2 MSTORE PUSH1 0x20 PUSH1 0x4 DUP3 ADD MSTORE PUSH1 0x31 PUSH1 0x24 DUP3 ADD MSTORE PUSH32 0x43686172697469657320616E6420616D6F756E747320617272617973206F6620 PUSH1 0x44 DUP3 ADD MSTORE PUSH32 0x646966666572656E74206C656E6774682E000000000000000000000000000000 PUSH1 0x64 DUP3 ADD MSTORE REVERT JUMPDEST PUSH1 0x64 PUSH1 0x40 MLOAD PUSH1 0xE5 PUSH1 0x2 EXP PUSH3 0x461BCD MUL DUP2 MSTORE PUSH1 0x20 PUSH1 0x4 DUP3 ADD MSTORE PUSH1 0x1D PUSH1 0x24 DUP3 ADD MSTORE PUSH32 0x556E617574686F72697A6174696F6E2066696E616C697A6174696F6E2E000000 PUSH1 0x44 DUP3 ADD MSTORE REVERT JUMPDEST POP PUSH1 0x1 PUSH1 0xA0 PUSH1 0x2 EXP SUB DUP4 SLOAD AND CALLER EQ PUSH2 0x7BD JUMP JUMPDEST DUP2 CALLDATALOAD DUP2 MSTORE PUSH1 0x20 SWAP2 DUP3 ADD SWAP2 ADD PUSH2 0x784 JUMP JUMPDEST DUP6 DUP1 REVERT JUMPDEST DUP3 DUP1 REVERT JUMPDEST DUP2 CALLDATALOAD DUP6 DUP2 GT PUSH2 0xD34 JUMPI PUSH1 0x20 SWAP2 PUSH2 0xD29 DUP4 SWAP3 PUSH1 0x24 CALLDATASIZE SWAP2 DUP10 ADD ADD PUSH2 0x1713 JUMP JUMPDEST DUP2 MSTORE ADD SWAP2 ADD SWAP1 PUSH2 0x72B JUMP JUMPDEST DUP8 DUP1 REVERT JUMPDEST POP CALLVALUE PUSH2 0x115 JUMPI DUP1 PUSH1 0x3 NOT CALLDATASIZE ADD SLT PUSH2 0x115 JUMPI PUSH1 0x6 SLOAD PUSH2 0xD55 DUP2 PUSH2 0x16DF JUMP JUMPDEST SWAP1 PUSH2 0xD63 PUSH1 0x40 MLOAD SWAP3 DUP4 PUSH2 0x16BD JUMP JUMPDEST DUP1 DUP3 MSTORE PUSH1 0x6 DUP4 MSTORE PUSH1 0x20 SWAP3 DUP4 DUP4 ADD SWAP2 PUSH32 0xF652222313E28459528D920B65115C16C04F3EFC82AAEDC97BE59F3F377C0D3F SWAP1 DUP3 DUP5 JUMPDEST DUP3 DUP3 LT PUSH2 0xE11 JUMPI POP POP POP POP PUSH1 0x40 MLOAD SWAP3 DUP5 DUP5 ADD SWAP1 DUP6 DUP6 MSTORE MLOAD DUP1 SWAP2 MSTORE PUSH1 0x40 DUP5 ADD SWAP5 PUSH1 0x40 DUP2 DUP4 MUL DUP7 ADD ADD SWAP4 SWAP3 SWAP6 JUMPDEST DUP3 DUP8 LT PUSH2 0xDCE JUMPI DUP6 DUP6 SUB DUP7 RETURN JUMPDEST SWAP1 SWAP2 SWAP3 SWAP4 DUP3 DUP1 DUP1 PUSH1 0x1 SWAP4 PUSH1 0x3F NOT DUP11 DUP3 SUB ADD DUP7 MSTORE DUP9 MLOAD PUSH2 0xDF8 DUP2 MLOAD DUP1 SWAP3 DUP2 DUP6 MSTORE DUP6 DUP1 DUP7 ADD SWAP2 ADD PUSH2 0x1664 JUMP JUMPDEST PUSH1 0x1F DUP1 NOT SWAP2 ADD AND ADD ADD SWAP7 ADD SWAP3 ADD SWAP7 ADD SWAP6 SWAP3 SWAP2 SWAP1 SWAP3 PUSH2 0xDC1 JUMP JUMPDEST PUSH1 0x40 SWAP8 SWAP7 SWAP5 SWAP8 MLOAD DUP8 DUP10 SWAP3 DUP7 SLOAD SWAP3 PUSH2 0xE27 DUP5 PUSH2 0x1992 JUMP JUMPDEST DUP1 DUP3 MSTORE PUSH1 0x1 SWAP5 DUP1 DUP7 AND SWAP1 DUP2 ISZERO PUSH2 0xE99 JUMPI POP PUSH1 0x1 EQ PUSH2 0xE61 JUMPI JUMPDEST POP PUSH2 0xE4F DUP2 PUSH1 0x1 SWAP7 SUB DUP3 PUSH2 0x16BD JUMP JUMPDEST DUP2 MSTORE ADD SWAP5 ADD SWAP2 ADD SWAP1 SWAP3 SWAP7 SWAP4 SWAP6 SWAP7 PUSH2 0xD96 JUMP JUMPDEST DUP9 DUP14 MSTORE DUP4 DUP14 KECCAK256 SWAP6 POP DUP13 SWAP1 JUMPDEST DUP1 DUP3 LT PUSH2 0xE82 JUMPI POP DUP2 ADD DUP4 ADD SWAP5 POP PUSH2 0xE4F PUSH2 0xE40 JUMP JUMPDEST DUP7 SLOAD DUP4 DUP4 ADD DUP7 ADD MSTORE SWAP6 DUP6 ADD SWAP6 DUP13 SWAP5 SWAP1 SWAP2 ADD SWAP1 PUSH2 0xE6C JUMP JUMPDEST PUSH1 0xFF NOT AND DUP6 DUP5 ADD MSTORE POP ISZERO ISZERO DUP4 MUL DUP2 ADD DUP4 ADD SWAP5 POP PUSH2 0xE4F PUSH2 0xE40 JUMP JUMPDEST POP CALLVALUE PUSH2 0x115 JUMPI DUP1 PUSH1 0x3 NOT CALLDATASIZE ADD SLT PUSH2 0x115 JUMPI PUSH2 0xECD PUSH2 0x175A JUMP JUMPDEST PUSH1 0x0 DUP1 SLOAD PUSH20 0xFFFFFFFFFFFFFFFFFFFFFFFFFFFFFFFFFFFFFFFF NOT DUP2 AND DUP3 SSTORE PUSH1 0x1 PUSH1 0xA0 PUSH1 0x2 EXP SUB AND PUSH32 0x8BE0079C531659141344CD1FD0A4F28419497F9722A3DAAFE3B4186F6B6457E0 DUP3 DUP1 LOG3 DUP1 RETURN JUMPDEST POP CALLVALUE PUSH2 0x115 JUMPI DUP1 PUSH1 0x3 NOT CALLDATASIZE ADD SLT PUSH2 0x115 JUMPI PUSH1 0xFF PUSH21 0x10000000000000000000000000000000000000000 PUSH1 0x20 SWAP3 SLOAD DIV AND PUSH1 0x40 MLOAD SWAP1 ISZERO ISZERO DUP2 MSTORE RETURN JUMPDEST POP CALLVALUE PUSH2 0x115 JUMPI DUP1 PUSH1 0x3 NOT CALLDATASIZE ADD SLT PUSH2 0x115 JUMPI PUSH1 0x20 PUSH1 0x40 MLOAD PUSH1 0x1 PUSH1 0xA0 PUSH1 0x2 EXP SUB PUSH32 0x0 AND DUP2 MSTORE RETURN JUMPDEST POP CALLVALUE PUSH2 0x115 JUMPI PUSH2 0x100 CALLDATASIZE PUSH1 0x3 NOT ADD SLT PUSH2 0x115 JUMPI PUSH2 0xFB3 PUSH2 0x1638 JUMP JUMPDEST PUSH2 0xFBB PUSH2 0x164E JUMP JUMPDEST PUSH1 0xA4 CALLDATALOAD SWAP1 PUSH3 0xFFFFFF DUP1 DUP4 AND DUP1 SWAP4 SUB PUSH2 0x1634 JUMPI PUSH1 0xC4 CALLDATALOAD SWAP3 DUP2 DUP5 AND DUP5 SUB PUSH2 0xD04 JUMPI PUSH2 0xFE2 PUSH2 0x18C6 JUMP JUMPDEST PUSH2 0xFF1 PUSH1 0x2 PUSH1 0x1 SLOAD EQ ISZERO PUSH2 0x17B5 JUMP JUMPDEST PUSH1 0x2 PUSH1 0x1 SSTORE PUSH1 0x40 MLOAD PUSH1 0x20 DUP2 ADD SWAP1 PUSH32 0x23B872DD00000000000000000000000000000000000000000000000000000000 DUP3 MSTORE CALLER PUSH1 0x24 DUP3 ADD MSTORE ADDRESS PUSH1 0x44 DUP3 ADD MSTORE PUSH1 0x44 CALLDATALOAD PUSH1 0x64 DUP3 ADD MSTORE PUSH1 0x64 DUP2 MSTORE PUSH1 0xA0 DUP2 ADD DUP2 DUP2 LT PUSH8 0xFFFFFFFFFFFFFFFF DUP3 GT OR PUSH2 0x161D JUMPI PUSH1 0x40 MSTORE MLOAD DUP8 SWAP2 DUP3 SWAP2 SWAP1 DUP3 DUP8 GAS CALL PUSH2 0x1065 PUSH2 0x1863 JUMP JUMPDEST DUP2 PUSH2 0x15EE JUMPI JUMPDEST POP ISZERO PUSH2 0x15A7 JUMPI PUSH1 0x40 MLOAD PUSH32 0x95EA7B300000000000000000000000000000000000000000000000000000000 PUSH1 0x20 DUP3 ADD SWAP1 DUP2 MSTORE PUSH1 0x1 PUSH1 0xA0 PUSH1 0x2 EXP SUB PUSH32 0x0 AND PUSH1 0x24 DUP4 ADD MSTORE PUSH1 0x44 DUP1 CALLDATALOAD DUP2 DUP5 ADD MSTORE DUP3 MSTORE DUP8 SWAP2 DUP3 SWAP2 SWAP1 PUSH2 0x10E5 PUSH1 0x64 DUP3 PUSH2 0x16BD JUMP JUMPDEST MLOAD SWAP1 DUP3 DUP8 GAS CALL PUSH2 0x10F3 PUSH2 0x1863 JUMP JUMPDEST DUP2 PUSH2 0x1578 JUMPI JUMPDEST POP ISZERO PUSH2 0x1531 JUMPI PUSH1 0x2 SLOAD PUSH1 0x40 MLOAD SWAP2 PUSH2 0x110F DUP4 PUSH2 0x1687 JUMP JUMPDEST PUSH1 0x1 PUSH1 0xA0 PUSH1 0x2 EXP SUB DUP6 AND DUP4 MSTORE PUSH1 0x1 PUSH1 0xA0 PUSH1 0x2 EXP SUB PUSH32 0x0 AND PUSH1 0x20 DUP5 ADD MSTORE PUSH1 0x40 DUP4 ADD MSTORE ADDRESS PUSH1 0x60 DUP4 ADD MSTORE PUSH1 0x64 CALLDATALOAD PUSH1 0x80 DUP4 ADD MSTORE PUSH1 0xA0 DUP3 ADD MSTORE PUSH1 0x84 CALLDATALOAD PUSH1 0xC0 DUP3 ADD MSTORE DUP6 PUSH1 0xE0 DUP3 ADD MSTORE PUSH2 0x11A4 PUSH1 0x40 MLOAD SWAP2 PUSH32 0xDB3E219800000000000000000000000000000000000000000000000000000000 DUP4 MSTORE PUSH1 0x4 DUP4 ADD SWAP1 PUSH2 0x1803 JUMP JUMPDEST PUSH1 0x20 DUP2 PUSH2 0x104 DUP2 DUP10 PUSH1 0x1 PUSH1 0xA0 PUSH1 0x2 EXP SUB PUSH32 0x0 AND GAS CALL SWAP1 DUP2 ISZERO PUSH2 0xAF5 JUMPI DUP7 SWAP2 PUSH2 0x14FF JUMPI JUMPDEST POP PUSH1 0x2 SLOAD PUSH1 0x1 PUSH1 0xA0 PUSH1 0x2 EXP SUB PUSH32 0x0 AND EXTCODESIZE ISZERO PUSH2 0x14FB JUMPI PUSH1 0x40 MLOAD SWAP1 PUSH32 0x2E1A7D4D00000000000000000000000000000000000000000000000000000000 DUP3 MSTORE PUSH1 0x4 DUP3 ADD MSTORE DUP7 DUP2 PUSH1 0x24 DUP2 DUP4 PUSH1 0x1 PUSH1 0xA0 PUSH1 0x2 EXP SUB PUSH32 0x0 AND GAS CALL DUP1 ISZERO PUSH2 0x14F0 JUMPI PUSH2 0x14BD JUMPI JUMPDEST POP DUP6 DUP1 DUP1 DUP1 PUSH1 0x2 SLOAD PUSH1 0x1 PUSH1 0xA0 PUSH1 0x2 EXP SUB DUP11 AND GAS CALL PUSH2 0x129F PUSH2 0x1863 JUMP JUMPDEST POP ISZERO PUSH2 0x1450 JUMPI PUSH2 0x12B1 SWAP1 PUSH1 0x44 CALLDATALOAD PUSH2 0x1893 JUMP JUMPDEST SWAP1 PUSH1 0x40 MLOAD SWAP4 PUSH2 0x12BF DUP6 PUSH2 0x1687 JUMP JUMPDEST PUSH1 0x1 PUSH1 0xA0 PUSH1 0x2 EXP SUB DUP5 AND DUP6 MSTORE PUSH1 0x1 PUSH1 0xA0 PUSH1 0x2 EXP SUB PUSH32 0x0 AND PUSH1 0x20 DUP7 ADD MSTORE AND PUSH1 0x40 DUP5 ADD MSTORE ADDRESS PUSH1 0x60 DUP5 ADD MSTORE PUSH1 0x64 CALLDATALOAD PUSH1 0x80 DUP5 ADD MSTORE PUSH1 0xA0 DUP4 ADD MSTORE PUSH1 0xE4 CALLDATALOAD PUSH1 0xC0 DUP4 ADD MSTORE DUP4 PUSH1 0xE0 DUP4 ADD MSTORE PUSH2 0x1355 PUSH1 0x40 MLOAD SWAP3 PUSH32 0x414BF38900000000000000000000000000000000000000000000000000000000 DUP5 MSTORE PUSH1 0x4 DUP5 ADD SWAP1 PUSH2 0x1803 JUMP JUMPDEST PUSH1 0x20 DUP3 PUSH2 0x104 DUP2 DUP8 PUSH1 0x1 PUSH1 0xA0 PUSH1 0x2 EXP SUB PUSH32 0x0 AND GAS CALL SWAP2 DUP3 ISZERO PUSH2 0x1445 JUMPI DUP5 SWAP3 PUSH2 0x1405 JUMPI JUMPDEST POP PUSH1 0x1 PUSH1 0xA0 PUSH1 0x2 EXP SUB DUP1 SWAP2 DUP2 DUP6 AND DUP7 MSTORE PUSH1 0x3 PUSH1 0x20 MSTORE PUSH1 0x40 DUP7 KECCAK256 PUSH2 0x13BB DUP6 DUP3 SLOAD PUSH2 0x18B9 JUMP JUMPDEST SWAP1 SSTORE PUSH1 0x2 SLOAD SWAP4 PUSH1 0x40 MLOAD SWAP5 PUSH1 0x44 CALLDATALOAD DUP7 MSTORE PUSH1 0x20 DUP7 ADD MSTORE PUSH1 0x40 DUP6 ADD MSTORE AND SWAP3 AND SWAP1 PUSH32 0x860654AD3D0539DBAC86150676768B53A47900BB45C5EB8D8D000FFBC4F67E6 PUSH1 0x60 CALLER SWAP3 LOG4 PUSH1 0x1 DUP1 SSTORE DUP1 RETURN JUMPDEST SWAP1 SWAP2 POP PUSH1 0x20 DUP2 RETURNDATASIZE PUSH1 0x20 GT PUSH2 0x143D JUMPI JUMPDEST DUP2 PUSH2 0x1421 PUSH1 0x20 SWAP4 DUP4 PUSH2 0x16BD JUMP JUMPDEST DUP2 ADD SUB SLT PUSH2 0x1438 JUMPI MLOAD SWAP1 PUSH1 0x1 PUSH1 0xA0 PUSH1 0x2 EXP SUB PUSH2 0x1397 JUMP JUMPDEST PUSH1 0x0 DUP1 REVERT JUMPDEST RETURNDATASIZE SWAP2 POP PUSH2 0x1414 JUMP JUMPDEST PUSH1 0x40 MLOAD RETURNDATASIZE DUP7 DUP3 RETURNDATACOPY RETURNDATASIZE SWAP1 REVERT JUMPDEST PUSH1 0x84 PUSH1 0x40 MLOAD PUSH1 0xE5 PUSH1 0x2 EXP PUSH3 0x461BCD MUL DUP2 MSTORE PUSH1 0x20 PUSH1 0x4 DUP3 ADD MSTORE PUSH1 0x27 PUSH1 0x24 DUP3 ADD MSTORE PUSH32 0x4661696C656420746F2073656E642067617320746F20657068656D6572616C20 PUSH1 0x44 DUP3 ADD MSTORE PUSH32 0x77616C6C65742E00000000000000000000000000000000000000000000000000 PUSH1 0x64 DUP3 ADD MSTORE REVERT JUMPDEST PUSH8 0xFFFFFFFFFFFFFFFF DUP2 SWAP8 SWAP3 SWAP8 GT PUSH2 0x14D9 JUMPI PUSH1 0x40 MSTORE SWAP5 CODESIZE PUSH2 0x1283 JUMP JUMPDEST PUSH1 0x24 DUP3 PUSH1 0xE0 PUSH1 0x2 EXP PUSH4 0x4E487B71 MUL DUP2 MSTORE PUSH1 0x41 PUSH1 0x4 MSTORE REVERT JUMPDEST PUSH1 0x40 MLOAD RETURNDATASIZE DUP10 DUP3 RETURNDATACOPY RETURNDATASIZE SWAP1 REVERT JUMPDEST DUP7 DUP1 REVERT JUMPDEST SWAP1 POP PUSH1 0x20 DUP2 RETURNDATASIZE PUSH1 0x20 GT PUSH2 0x1529 JUMPI JUMPDEST DUP2 PUSH2 0x151A PUSH1 0x20 SWAP4 DUP4 PUSH2 0x16BD JUMP JUMPDEST DUP2 ADD SUB SLT PUSH2 0xD04 JUMPI MLOAD CODESIZE PUSH2 0x11E6 JUMP JUMPDEST RETURNDATASIZE SWAP2 POP PUSH2 0x150D JUMP JUMPDEST PUSH1 0x64 PUSH1 0x40 MLOAD PUSH1 0xE5 PUSH1 0x2 EXP PUSH3 0x461BCD MUL DUP2 MSTORE PUSH1 0x20 PUSH1 0x4 DUP3 ADD MSTORE PUSH1 0x2 PUSH1 0x24 DUP3 ADD MSTORE PUSH32 0x5341000000000000000000000000000000000000000000000000000000000000 PUSH1 0x44 DUP3 ADD MSTORE REVERT JUMPDEST DUP1 MLOAD DUP1 ISZERO SWAP3 POP DUP3 ISZERO PUSH2 0x158D JUMPI JUMPDEST POP POP CODESIZE PUSH2 0x10F9 JUMP JUMPDEST PUSH2 0x15A0 SWAP3 POP PUSH1 0x20 DUP1 SWAP2 DUP4 ADD ADD SWAP2 ADD PUSH2 0x1930 JUMP JUMPDEST CODESIZE DUP1 PUSH2 0x1585 JUMP JUMPDEST PUSH1 0x64 PUSH1 0x40 MLOAD PUSH1 0xE5 PUSH1 0x2 EXP PUSH3 0x461BCD MUL DUP2 MSTORE PUSH1 0x20 PUSH1 0x4 DUP3 ADD MSTORE PUSH1 0x3 PUSH1 0x24 DUP3 ADD MSTORE PUSH32 0x5354460000000000000000000000000000000000000000000000000000000000 PUSH1 0x44 DUP3 ADD MSTORE REVERT JUMPDEST DUP1 MLOAD DUP1 ISZERO SWAP3 POP DUP3 ISZERO PUSH2 0x1603 JUMPI JUMPDEST POP POP CODESIZE PUSH2 0x106B JUMP JUMPDEST PUSH2 0x1616 SWAP3 POP PUSH1 0x20 DUP1 SWAP2 DUP4 ADD ADD SWAP2 ADD PUSH2 0x1930 JUMP JUMPDEST CODESIZE DUP1 PUSH2 0x15FB JUMP JUMPDEST PUSH1 0x24 DUP10 PUSH1 0xE0 PUSH1 0x2 EXP PUSH4 0x4E487B71 MUL DUP2 MSTORE PUSH1 0x41 PUSH1 0x4 MSTORE REVERT JUMPDEST DUP5 DUP1 REVERT JUMPDEST PUSH1 0x4 CALLDATALOAD SWAP1 PUSH1 0x1 PUSH1 0xA0 PUSH1 0x2 EXP SUB DUP3 AND DUP3 SUB PUSH2 0x1438 JUMPI JUMP JUMPDEST PUSH1 0x24 CALLDATALOAD SWAP1 PUSH1 0x1 PUSH1 0xA0 PUSH1 0x2 EXP SUB DUP3 AND DUP3 SUB PUSH2 0x1438 JUMPI JUMP JUMPDEST PUSH1 0x0 JUMPDEST DUP4 DUP2 LT PUSH2 0x1677 JUMPI POP POP PUSH1 0x0 SWAP2 ADD MSTORE JUMP JUMPDEST DUP2 DUP2 ADD MLOAD DUP4 DUP3 ADD MSTORE PUSH1 0x20 ADD PUSH2 0x1667 JUMP JUMPDEST PUSH2 0x100 DUP2 ADD SWAP1 DUP2 LT PUSH8 0xFFFFFFFFFFFFFFFF DUP3 GT OR PUSH2 0x16A4 JUMPI PUSH1 0x40 MSTORE JUMP JUMPDEST PUSH1 0xE0 PUSH1 0x2 EXP PUSH4 0x4E487B71 MUL PUSH1 0x0 MSTORE PUSH1 0x41 PUSH1 0x4 MSTORE PUSH1 0x24 PUSH1 0x0 REVERT JUMPDEST SWAP1 PUSH1 0x1F DUP1 NOT SWAP2 ADD AND DUP2 ADD SWAP1 DUP2 LT PUSH8 0xFFFFFFFFFFFFFFFF DUP3 GT OR PUSH2 0x16A4 JUMPI PUSH1 0x40 MSTORE JUMP JUMPDEST PUSH8 0xFFFFFFFFFFFFFFFF DUP2 GT PUSH2 0x16A4 JUMPI PUSH1 0x20 DUP1 SWAP2 MUL ADD SWAP1 JUMP JUMPDEST PUSH8 0xFFFFFFFFFFFFFFFF DUP2 GT PUSH2 0x16A4 JUMPI PUSH1 0x1F ADD PUSH1 0x1F NOT AND PUSH1 0x20 ADD SWAP1 JUMP JUMPDEST DUP2 PUSH1 0x1F DUP3 ADD SLT ISZERO PUSH2 0x1438 JUMPI DUP1 CALLDATALOAD SWAP1 PUSH2 0x172A DUP3 PUSH2 0x16F7 JUMP JUMPDEST SWAP3 PUSH2 0x1738 PUSH1 0x40 MLOAD SWAP5 DUP6 PUSH2 0x16BD JUMP JUMPDEST DUP3 DUP5 MSTORE PUSH1 0x20 DUP4 DUP4 ADD ADD GT PUSH2 0x1438 JUMPI DUP2 PUSH1 0x0 SWAP3 PUSH1 0x20 DUP1 SWAP4 ADD DUP4 DUP7 ADD CALLDATACOPY DUP4 ADD ADD MSTORE SWAP1 JUMP JUMPDEST PUSH1 0x1 PUSH1 0xA0 PUSH1 0x2 EXP SUB PUSH1 0x0 SLOAD AND CALLER SUB PUSH2 0x176E JUMPI JUMP JUMPDEST PUSH1 0x64 PUSH1 0x40 MLOAD PUSH1 0xE5 PUSH1 0x2 EXP PUSH3 0x461BCD MUL DUP2 MSTORE PUSH1 0x20 PUSH1 0x4 DUP3 ADD MSTORE PUSH1 0x20 PUSH1 0x24 DUP3 ADD MSTORE PUSH32 0x4F776E61626C653A2063616C6C6572206973206E6F7420746865206F776E6572 PUSH1 0x44 DUP3 ADD MSTORE REVERT JUMPDEST ISZERO PUSH2 0x17BC JUMPI JUMP JUMPDEST PUSH1 0x64 PUSH1 0x40 MLOAD PUSH1 0xE5 PUSH1 0x2 EXP PUSH3 0x461BCD MUL DUP2 MSTORE PUSH1 0x20 PUSH1 0x4 DUP3 ADD MSTORE PUSH1 0x1F PUSH1 0x24 DUP3 ADD MSTORE PUSH32 0x5265656E7472616E637947756172643A207265656E7472616E742063616C6C00 PUSH1 0x44 DUP3 ADD MSTORE REVERT JUMPDEST PUSH1 0xE0 SWAP1 DUP2 PUSH1 0x1 PUSH1 0xA0 PUSH1 0x2 EXP SUB SWAP2 DUP3 DUP2 MLOAD AND DUP6 MSTORE DUP3 PUSH1 0x20 DUP3 ADD MLOAD AND PUSH1 0x20 DUP7 ADD MSTORE PUSH3 0xFFFFFF PUSH1 0x40 DUP3 ADD MLOAD AND PUSH1 0x40 DUP7 ADD MSTORE DUP3 PUSH1 0x60 DUP3 ADD MLOAD AND PUSH1 0x60 DUP7 ADD MSTORE PUSH1 0x80 DUP2 ADD MLOAD PUSH1 0x80 DUP7 ADD MSTORE PUSH1 0xA0 DUP2 ADD MLOAD PUSH1 0xA0 DUP7 ADD MSTORE PUSH1 0xC0 DUP2 ADD MLOAD PUSH1 0xC0 DUP7 ADD MSTORE ADD MLOAD AND SWAP2 ADD MSTORE JUMP JUMPDEST RETURNDATASIZE ISZERO PUSH2 0x188E JUMPI RETURNDATASIZE SWAP1 PUSH2 0x1874 DUP3 PUSH2 0x16F7 JUMP JUMPDEST SWAP2 PUSH2 0x1882 PUSH1 0x40 MLOAD SWAP4 DUP5 PUSH2 0x16BD JUMP JUMPDEST DUP3 MSTORE RETURNDATASIZE PUSH1 0x0 PUSH1 0x20 DUP5 ADD RETURNDATACOPY JUMP JUMPDEST PUSH1 0x60 SWAP1 JUMP JUMPDEST SWAP2 SWAP1 DUP3 SUB SWAP2 DUP3 GT PUSH2 0x18A0 JUMPI JUMP JUMPDEST PUSH1 0xE0 PUSH1 0x2 EXP PUSH4 0x4E487B71 MUL PUSH1 0x0 MSTORE PUSH1 0x11 PUSH1 0x4 MSTORE PUSH1 0x24 PUSH1 0x0 REVERT JUMPDEST SWAP2 SWAP1 DUP3 ADD DUP1 SWAP3 GT PUSH2 0x18A0 JUMPI JUMP JUMPDEST PUSH1 0xFF PUSH21 0x10000000000000000000000000000000000000000 PUSH1 0x0 SLOAD DIV AND PUSH2 0x18E9 JUMPI JUMP JUMPDEST PUSH1 0x64 PUSH1 0x40 MLOAD PUSH1 0xE5 PUSH1 0x2 EXP PUSH3 0x461BCD MUL DUP2 MSTORE PUSH1 0x20 PUSH1 0x4 DUP3 ADD MSTORE PUSH1 0x10 PUSH1 0x24 DUP3 ADD MSTORE PUSH32 0x5061757361626C653A2070617573656400000000000000000000000000000000 PUSH1 0x44 DUP3 ADD MSTORE REVERT JUMPDEST SWAP1 DUP2 PUSH1 0x20 SWAP2 SUB SLT PUSH2 0x1438 JUMPI MLOAD DUP1 ISZERO ISZERO DUP2 SUB PUSH2 0x1438 JUMPI SWAP1 JUMP JUMPDEST PUSH1 0xFF AND PUSH1 0xFF DUP2 EQ PUSH2 0x18A0 JUMPI PUSH1 0x1 ADD SWAP1 JUMP JUMPDEST DUP1 MLOAD DUP3 LT ISZERO PUSH2 0x514 JUMPI PUSH1 0x20 DUP1 SWAP3 MUL ADD ADD SWAP1 JUMP JUMPDEST PUSH1 0x20 PUSH2 0x1985 SWAP2 DUP2 PUSH1 0x40 MLOAD SWAP4 DUP3 DUP6 DUP1 SWAP5 MLOAD SWAP4 DUP5 SWAP3 ADD PUSH2 0x1664 JUMP JUMPDEST DUP2 ADD PUSH1 0x4 DUP2 MSTORE SUB ADD SWAP1 KECCAK256 SWAP1 JUMP JUMPDEST SWAP1 PUSH1 0x1 PUSH1 0x2 DUP4 DIV SWAP3 AND DUP1 ISZERO PUSH2 0x19C6 JUMPI JUMPDEST PUSH1 0x20 DUP4 LT EQ PUSH2 0x19AD JUMPI JUMP JUMPDEST PUSH1 0xE0 PUSH1 0x2 EXP PUSH4 0x4E487B71 MUL PUSH1 0x0 MSTORE PUSH1 0x22 PUSH1 0x4 MSTORE PUSH1 0x24 PUSH1 0x0 REVERT JUMPDEST SWAP2 PUSH1 0x7F AND SWAP2 PUSH2 0x19A2 JUMP JUMPDEST PUSH1 0x0 DUP2 DUP2 MSTORE PUSH1 0x8 PUSH1 0x20 MSTORE PUSH1 0x40 DUP2 KECCAK256 SLOAD PUSH2 0x1A57 JUMPI PUSH1 0x7 SLOAD PUSH9 0x10000000000000000 DUP2 LT ISZERO PUSH2 0x14D9 JUMPI PUSH1 0x1 DUP2 ADD DUP1 PUSH1 0x7 SSTORE DUP2 LT ISZERO PUSH2 0x1A40 JUMPI SWAP1 DUP3 PUSH1 0x40 SWAP3 PUSH32 0xA66CC928B5EDB82AF9BD49922954155AB7B0942694BEA4CE44661D9A8736C688 ADD SSTORE PUSH1 0x7 SLOAD SWAP3 DUP2 MSTORE PUSH1 0x8 PUSH1 0x20 MSTORE KECCAK256 SSTORE PUSH1 0x1 SWAP1 JUMP JUMPDEST PUSH1 0x24 DUP3 PUSH1 0xE0 PUSH1 0x2 EXP PUSH4 0x4E487B71 MUL DUP2 MSTORE PUSH1 0x32 PUSH1 0x4 MSTORE REVERT JUMPDEST SWAP1 POP SWAP1 JUMP INVALID LOG2 PUSH5 0x6970667358 0x22 SLT KECCAK256 0xD1 BASEFEE JUMPDEST 0xED 0xB4 CALLDATACOPY PUSH16 0x813026F1BE026D99D2E544FDAFAA6B0D SAR STATICCALL 0x21 0x21 PUSH13 0xBCF32A8D64736F6C6343000811 STOP CALLER "
		},
		"gasEstimates": {
			"creation": {
				"codeDepositCost": "1360400",
				"executionCost": "infinite",
				"totalCost": "infinite"
			},
			"external": {
				"USDC()": "infinite",
				"WETH9()": "infinite",
				"deposit(address,address,uint256,uint256,uint256,uint24,uint24,uint256)": "infinite",
				"finalize(address,string[],uint256[])": "infinite",
				"getBalance(address)": "925",
				"getCharityAddresses()": "infinite",
				"getCharityNames()": "infinite",
				"getEphemeralGasAmount()": "577",
				"owner()": "630",
				"paused()": "421",
				"registerCharity(string,address)": "infinite",
				"renounceOwnership()": "22324",
				"setEphemeralGasAmount(uint256)": "20704",
				"swapRouter()": "infinite",
				"transferOwnership(address)": "22777"
			}
		},
		"methodIdentifiers": {
			"USDC()": "89a30271",
			"WETH9()": "4aa4a4fc",
			"deposit(address,address,uint256,uint256,uint256,uint24,uint24,uint256)": "480a6fdc",
			"finalize(address,string[],uint256[])": "745284ce",
			"getBalance(address)": "f8b2cb4f",
			"getCharityAddresses()": "7a5de53d",
			"getCharityNames()": "720a7dee",
			"getEphemeralGasAmount()": "96bcdf84",
			"owner()": "8da5cb5b",
			"paused()": "5c975abb",
			"registerCharity(string,address)": "7aed7746",
			"renounceOwnership()": "715018a6",
			"setEphemeralGasAmount(uint256)": "a1ecf9d9",
			"swapRouter()": "c31c9c07",
			"transferOwnership(address)": "f2fde38b"
		}
	},
	"abi": [
		{
			"inputs": [
				{
					"internalType": "contract ISwapRouter",
					"name": "_swapRouter",
					"type": "address"
				},
				{
					"internalType": "uint256",
					"name": "_ephemeralGasMoneyAmount",
					"type": "uint256"
				},
				{
					"internalType": "contract IWETH",
					"name": "_weth9",
					"type": "address"
				},
				{
					"internalType": "contract IERC20",
					"name": "_usdc",
					"type": "address"
				}
			],
			"stateMutability": "nonpayable",
			"type": "constructor"
		},
		{
			"anonymous": false,
			"inputs": [
				{
					"indexed": true,
					"internalType": "address",
					"name": "donor",
					"type": "address"
				},
				{
					"indexed": true,
					"internalType": "address",
					"name": "ephemeralWallet",
					"type": "address"
				},
				{
					"indexed": true,
					"internalType": "address",
					"name": "tokenIn",
					"type": "address"
				},
				{
					"indexed": false,
					"internalType": "uint256",
					"name": "tokenAmountIn",
					"type": "uint256"
				},
				{
					"indexed": false,
					"internalType": "uint256",
					"name": "gasOut",
					"type": "uint256"
				},
				{
					"indexed": false,
					"internalType": "uint256",
					"name": "usdcOut",
					"type": "uint256"
				}
			],
			"name": "FountainDeposit",
			"type": "event"
		},
		{
			"anonymous": false,
			"inputs": [
				{
					"indexed": true,
					"internalType": "address",
					"name": "donor",
					"type": "address"
				},
				{
					"indexed": true,
					"internalType": "string",
					"name": "charity",
					"type": "string"
				},
				{
					"indexed": true,
					"internalType": "address",
					"name": "charityAddress",
					"type": "address"
				},
				{
					"indexed": false,
					"internalType": "uint256",
					"name": "usdcAmount",
					"type": "uint256"
				}
			],
			"name": "FountainDonation",
			"type": "event"
		},
		{
			"anonymous": false,
			"inputs": [
				{
					"indexed": true,
					"internalType": "address",
					"name": "donor",
					"type": "address"
				},
				{
					"indexed": false,
					"internalType": "uint256",
					"name": "usdcAmount",
					"type": "uint256"
				}
			],
			"name": "FountainFinalization",
			"type": "event"
		},
		{
			"anonymous": false,
			"inputs": [
				{
					"indexed": true,
					"internalType": "address",
					"name": "previousOwner",
					"type": "address"
				},
				{
					"indexed": true,
					"internalType": "address",
					"name": "newOwner",
					"type": "address"
				}
			],
			"name": "OwnershipTransferred",
			"type": "event"
		},
		{
			"anonymous": false,
			"inputs": [
				{
					"indexed": false,
					"internalType": "address",
					"name": "account",
					"type": "address"
				}
			],
			"name": "Paused",
			"type": "event"
		},
		{
			"anonymous": false,
			"inputs": [
				{
					"indexed": false,
					"internalType": "address",
					"name": "account",
					"type": "address"
				}
			],
			"name": "Unpaused",
			"type": "event"
		},
		{
			"inputs": [],
			"name": "USDC",
			"outputs": [
				{
					"internalType": "contract IERC20",
					"name": "",
					"type": "address"
				}
			],
			"stateMutability": "view",
			"type": "function"
		},
		{
			"inputs": [],
			"name": "WETH9",
			"outputs": [
				{
					"internalType": "contract IWETH",
					"name": "",
					"type": "address"
				}
			],
			"stateMutability": "view",
			"type": "function"
		},
		{
			"inputs": [
				{
					"internalType": "address",
					"name": "ephemeralWalletAddress",
					"type": "address"
				},
				{
					"internalType": "address",
					"name": "tokenIn",
					"type": "address"
				},
				{
					"internalType": "uint256",
					"name": "totalAmountIn",
					"type": "uint256"
				},
				{
					"internalType": "uint256",
					"name": "deadline",
					"type": "uint256"
				},
				{
					"internalType": "uint256",
					"name": "ethSwapAmountInMax",
					"type": "uint256"
				},
				{
					"internalType": "uint24",
					"name": "ethSwapPoolFee",
					"type": "uint24"
				},
				{
					"internalType": "uint24",
					"name": "usdcSwapPoolFee",
					"type": "uint24"
				},
				{
					"internalType": "uint256",
					"name": "usdcSwapAmountOutMinimum",
					"type": "uint256"
				}
			],
			"name": "deposit",
			"outputs": [],
			"stateMutability": "nonpayable",
			"type": "function"
		},
		{
			"inputs": [
				{
					"internalType": "address",
					"name": "user",
					"type": "address"
				},
				{
					"internalType": "string[]",
					"name": "charities_",
					"type": "string[]"
				},
				{
					"internalType": "uint256[]",
					"name": "amounts_",
					"type": "uint256[]"
				}
			],
			"name": "finalize",
			"outputs": [],
			"stateMutability": "nonpayable",
			"type": "function"
		},
		{
			"inputs": [
				{
					"internalType": "address",
					"name": "user",
					"type": "address"
				}
			],
			"name": "getBalance",
			"outputs": [
				{
					"internalType": "uint256",
					"name": "userBalance_",
					"type": "uint256"
				}
			],
			"stateMutability": "view",
			"type": "function"
		},
		{
			"inputs": [],
			"name": "getCharityAddresses",
			"outputs": [
				{
					"internalType": "address[]",
					"name": "charityAddresses_",
					"type": "address[]"
				}
			],
			"stateMutability": "view",
			"type": "function"
		},
		{
			"inputs": [],
			"name": "getCharityNames",
			"outputs": [
				{
					"internalType": "string[]",
					"name": "charityNames_",
					"type": "string[]"
				}
			],
			"stateMutability": "view",
			"type": "function"
		},
		{
			"inputs": [],
			"name": "getEphemeralGasAmount",
			"outputs": [
				{
					"internalType": "uint256",
					"name": "ephemeralGasMoneyAmount_",
					"type": "uint256"
				}
			],
			"stateMutability": "view",
			"type": "function"
		},
		{
			"inputs": [],
			"name": "owner",
			"outputs": [
				{
					"internalType": "address",
					"name": "",
					"type": "address"
				}
			],
			"stateMutability": "view",
			"type": "function"
		},
		{
			"inputs": [],
			"name": "paused",
			"outputs": [
				{
					"internalType": "bool",
					"name": "",
					"type": "bool"
				}
			],
			"stateMutability": "view",
			"type": "function"
		},
		{
			"inputs": [
				{
					"internalType": "string",
					"name": "charityName",
					"type": "string"
				},
				{
					"internalType": "address",
					"name": "charityAddress",
					"type": "address"
				}
			],
			"name": "registerCharity",
			"outputs": [],
			"stateMutability": "nonpayable",
			"type": "function"
		},
		{
			"inputs": [],
			"name": "renounceOwnership",
			"outputs": [],
			"stateMutability": "nonpayable",
			"type": "function"
		},
		{
			"inputs": [
				{
					"internalType": "uint256",
					"name": "newEphemeralGasMoneyAmount",
					"type": "uint256"
				}
			],
			"name": "setEphemeralGasAmount",
			"outputs": [],
			"stateMutability": "nonpayable",
			"type": "function"
		},
		{
			"inputs": [],
			"name": "swapRouter",
			"outputs": [
				{
					"internalType": "contract ISwapRouter",
					"name": "",
					"type": "address"
				}
			],
			"stateMutability": "view",
			"type": "function"
		},
		{
			"inputs": [
				{
					"internalType": "address",
					"name": "newOwner",
					"type": "address"
				}
			],
			"name": "transferOwnership",
			"outputs": [],
			"stateMutability": "nonpayable",
			"type": "function"
		}
	]
}