{
	"data": {
		"bytecode": {
			"linkReferences": {},
			"object": "60e060405234156200001057600080fd5b62001e90803803601f19601f82011660e00160e0811067ffffffffffffffff8211171562000067577f4e487b7100000000000000000000000000000000000000000000000000000000600052604160045260246000fd5b604052808260e03960808112156200007e57600080fd5b505060e0516200008e816200017e565b6101005161012051620000a1816200017e565b61014051620000b0816200017e565b620000be818385876200010a565b50505050604051611cf88062000198833960805182818161010b01526112b5015260a0518281816102510152818161146101526116b6015260c0518281816102c2015261128701528082f35b6000805433600160a060020a031982168117835560405191929091600160a060020a038416917f8be0079c531659141344cd1fd0a4f28419497f9722a3daafe3b4186f6b6457e091a3600160a860020a0319163360a060020a60ff021916176000556001805560c05260025560805260a052565b600160a060020a03811681146200019457600080fd5b5056fe6040608081526004361061034a5760007c010000000000000000000000000000000000000000000000000000000081350463480a6fdc81146100c457634aa4a4fc81146100f457635c975abb811461013e5763715018a681146101805763720a7dee81146101a05763745284ce81146101c857637a5de53d81146101ee57637aed77468114610216576389a30271811461023a57638da5cb5b81146102805763c31c9c0781146102ab5763f2fde38b81146102f15763f8b2cb4f811461030c57610347565b34156100ce578182fd5b6100d736610497565b6100e781838587898b8d8f611254565b5050505050505050818351f35b34156100fe578182fd5b6101073661043c565b82517f0000000000000000000000000000000000000000000000000000000000000000600160a060020a03168152602081f35b0381f35b3415610148578182fd5b6101513661043c565b60ff740100000000000000000000000000000000000000008354041683518061013a8383901515815260200190565b341561018a578182fd5b6101933661043c565b61019b61113b565b818351f35b34156101aa578182fd5b6101b33661043c565b6101bb610ac8565b83518061013a838361070f565b34156101d2578182fd5b6101db36610532565b6101e68183856115a9565b505050818351f35b34156101f8578182fd5b6102013661043c565b610209610a60565b83518061013a83836106c2565b3415610220578182fd5b6102293661064c565b6102338183610e0f565b5050818351f35b3415610244578182fd5b61024d3661043c565b82517f0000000000000000000000000000000000000000000000000000000000000000600160a060020a03168152602081f35b341561028a578182fd5b6102933661043c565b81548351600160a060020a0390911680825290602081f35b34156102b5578182fd5b6102be3661043c565b82517f0000000000000000000000000000000000000000000000000000000000000000600160a060020a03168152602081f35b34156102fb578182fd5b61019b61030736610465565b61118a565b3415610316578182fd5b61033d61032236610465565b600160a060020a031660009081526003602052604090205490565b8351818152602081f35b50505b50600080fd5b600435600160a060020a038116811461036857600080fd5b90565b600082601f83011261037c57600080fd5b813561038781610821565b6040516103948282610c89565b82815260208082019250858101818502870182018810156103b457600080fd5b60005b858110156103d3578135855293820193908201906001016103b7565b5091979650505050505050565b600082601f8301126103f157600080fd5b81356103fc81610845565b6040516104098282610c89565b82815285602084870101111561041e57600080fd5b82602086016020830137600092810160200192909252509392505050565b60006003198201121561044e57600080fd5b50565b6000818303121561046157600080fd5b5050565b600060206003198301121561047957600080fd5b600435600160a060020a038116811461049157600080fd5b92915050565b6000808080808080806101006003198a0112156104b357600080fd5b600435600160a060020a0380821682146104cc57600080fd5b9098506024359080821682146104e157600080fd5b50965060443595506064359450608435935060a43562ffffff808216821461050857600080fd5b90935060c43590808216821461051d57600080fd5b508092505060e4359050919395975091939597565b6000808060606003198501121561054857600080fd5b610550610350565b92506024803567ffffffffffffffff8082111561056c57600080fd5b86602383011261057b57600080fd5b816004013561058981610821565b6040516105968282610c89565b82815260208082019250858701818502870188018c10156105b657600080fd5b60005b858110156105f1578135878111156105d057600080fd5b6105de8e8b838c01016103e0565b86525093820193908201906001016105b9565b509198505060443595505050508083111561060b57600080fd5b505061061a858260040161036b565b93959294505050565b60006020828403121561063557600080fd5b8151801515811461064557600080fd5b9392505050565b60008060406003198401121561066157600080fd5b60043567ffffffffffffffff81111561067957600080fd5b61068684826004016103e0565b925050602435600160a060020a03811681146106a157600080fd5b919391925050565b6000602082840312156106bb57600080fd5b5051919050565b6020808252825182820181905260009190848201906040850190845b81811015610703578351600160a060020a0316835292840192918401916001016106de565b50909695505050505050565b600060208083018184528085518083526040860191506040848202870101925083870160005b8281101561077b57878503603f190184528151805180875261075c818989018a8501610bb8565b601f01601f191695909501860194509285019290850190600101610735565b5092979650505050505050565b600061010082019050600160a060020a0380845116835280602085015116602084015262ffffff60408501511660408401528060608501511660608401526080840151608084015260a084015160a084015260c084015160c08401528060e08501511660e08401525092915050565b604051610100810167ffffffffffffffff8111828210171561081b5761081b61194b565b60405290565b600067ffffffffffffffff82111561083b5761083b61194b565b5060209081020190565b600067ffffffffffffffff82111561085f5761085f61194b565b50601f01601f191660200190565b6006546801000000000000000081106108885761088861194b565b600180820160065561089982611c70565b925082156108ba5760e060020a634e487b7102600052600060045260246000fd5b8351925067ffffffffffffffff8311156108d6576108d661194b565b6108ea836108e48354610be8565b83610a11565b602080601f85116001811461092257600086156109075750868301515b866002028760080260020a600019041982161785555061097a565b600084815260208120601f198816915b8281101561094f5789860151825594840194908701908401610932565b508782101561096f57888501516008601f8a160260020a60001904191681555b505084600287020184555b50505050505050565b6000821982111561099657610996611919565b500190565b6000826109bb5760e060020a634e487b7102600052601260045260246000fd5b500490565b60008160001904831182151516156109da576109da611919565b500290565b600060018210156109f2576109f2611919565b506000190190565b600082821015610a0c57610a0c611919565b500390565b601f821115610a5b576000818152602081206020601f86010481016020861015610a385750805b6020601f860104820191505b81811015610a5757828155600101610a44565b5050505b505050565b6040516007805480835260009182526020808401927fa66cc928b5edb82af9bd49922954155ab7b0942694bea4ce44661d9a8736c688905b83811015610ab457815485529382019360019182019101610a98565b50505050610ac482820383610c89565b5090565b6000600654610ad681610821565b60408051610ae48382610c89565b83815260066000908152909450602080860193507ff652222313e28459528d920b65115c16c04f3efc82aaedc97be59f3f377c0d3f825b86811015610bae578451848354610b3181610be8565b80845260018281168015610b4c5760018114610b5f57610b8a565b60ff198416868a01528a86019450610b8a565b878a52888a208a5b84811015610b825781548882018c0152908301908a01610b67565b87018a019550505b50610b9785850386610c89565b938a52505050958301959190910190600101610b1b565b5050505050505090565b60005b83811015610bd3578181015183820152602001610bbb565b83811115610be2576000848401525b50505050565b600281046001821680610bfc57607f821691505b60208210811415610c205760e060020a634e487b7102600052602260045260246000fd5b50919050565b60003d8015610c5b573d610c3981610845565b604051610c468282610c89565b8281528094503d6000602083013e5050505090565b606091505090565b60a0810181811067ffffffffffffffff82111715610c8357610c8361194b565b60405250565b601f8201601f1916810167ffffffffffffffff81118282101715610caf57610caf61194b565b6040525050565b600080828152600860205260408120541560008114610d4157600754680100000000000000008110610cea57610cea61194b565b6001810180600755808210610d0157610d01611932565b507fa66cc928b5edb82af9bd49922954155ab7b0942694bea4ce44661d9a8736c68801849055506007549281526008602052604090209190915550600190565b5092915050565b600160a060020a036000541633811461044e5760405160e560020a62461bcd02815260206004820152602060248201527f4f776e61626c653a2063616c6c6572206973206e6f7420746865206f776e65726044820152606481fd5b60ff74010000000000000000000000000000000000000000600054041615610e0d5760405160e560020a62461bcd02815260206004820152601060248201527f5061757361626c653a20706175736564000000000000000000000000000000006044820152606481fd5b565b600160a060020a0380610e21836118ee565b541615610e705760405160e560020a62461bcd02815260206004820152602060248201527f43686172697479206e616d6520616c726561647920726567697374657265642e6044820152606481fd5b8216600081815260056020526040902054610e8a90610be8565b15610efd5760405160e560020a62461bcd02815260206004820152602360248201527f43686172697479206164647265737320616c726561647920726567697374657260448201527f65642e00000000000000000000000000000000000000000000000000000000006064820152608481fd5b610f2783610f0a846118ee565b600160a060020a038216600160a060020a03198254161781555050565b610f3081610cb6565b50506104618161086d565b6040517f095ea7b30000000000000000000000000000000000000000000000000000000060208201908152600160a060020a0384166024830152604480830186905282526064610f8b8184610c89565b506000808351836000875af1915050610fa2610c26565b818215610fcb578151801580610fc757610fc460208386010160208601610623565b90505b9150505b80610a5757604051925060e560020a62461bcd02835260206004840152600260248401527f53410000000000000000000000000000000000000000000000000000000000006044840152606483fd5b604051602081017f23b872dd000000000000000000000000000000000000000000000000000000008152600160a060020a0380851660248401528086166044840152508560648301526064825261107082610c63565b6000808351836000875af1915050611086610c26565b8182156110af5781518015806110ab576110a860208386010160208601610623565b90505b9150505b8061097a57604051925060e560020a62461bcd02835260206004840152600360248401527f53544600000000000000000000000000000000000000000000000000000000006044840152606483fd5b600060ff821660ff81141561111557611115611919565b60010192915050565b60008151831061113057611130611932565b506020918202010190565b611143610d48565b600054600160a060020a031981166000556000600160a060020a0382167f8be0079c531659141344cd1fd0a4f28419497f9722a3daafe3b4186f6b6457e06000604051a350565b611192610d48565b600160a060020a03808216806112105760405160e560020a62461bcd02815260206004820152602660248201527f4f776e61626c653a206e6577206f776e657220697320746865207a65726f206160448201527f64647265737300000000000000000000000000000000000000000000000000006064820152608481fd5b60005481600160a060020a0319821617600055838382167f8be0079c531659141344cd1fd0a4f28419497f9722a3daafe3b4186f6b6457e06000604051a350505050565b61125c610da3565b600261126c816001541415611c17565b8060015561127c8430338661101a565b600160a060020a03807f0000000000000000000000000000000000000000000000000000000000000000166112b2868287610f3b565b817f00000000000000000000000000000000000000000000000000000000000000001683546112df6107f7565b600160a060020a0388168152600160a060020a038316602082015262ffffff8c166040828101919091523060608301528a60808301528260a08301528b60c0830152600092508260e0830152843b611335578283fd5b80517fdb3e21980000000000000000000000000000000000000000000000000000000081526020818261136b8660048601610788565b0383878a5af192508261138057611380611c64565b8383156113a0576113913d83610c89565b61139d3d8301836106a9565b90505b88549350853b6113ae578485fd5b82517f2e1a7d4d0000000000000000000000000000000000000000000000000000000081526004810185905291508482602481838a5af19550856113f4576113f4611c64565b8515611410576114043d83610c89565b6114103d830183610451565b885495508485868551898c8f165af19550611429610c26565b5061143386611ae4565b61143d818d6109fa565b955050506114496107f7565b600160a060020a038a1681529150600160a060020a037f0000000000000000000000000000000000000000000000000000000000000000871616602083015262ffffff8e16828201523060608301528a60808301528360a08301528e60c08301528260e0830152843b6114ba578283fd5b805195507f414bf389000000000000000000000000000000000000000000000000000000008652602086876114f28560048b01610788565b038886895af194508461150757611507611c64565b82935084156115295761151a3d87610c89565b6115263d8701876106a9565b93505b600160a060020a0388166000908152600360205260409020955061154e848754610983565b909555505092549151868152602081018390526040810184905291928585337f0860654ad3d0539dbac86150676768b53a47900bb45c5eb8d8d000ffbc4f67e6606087a45050505061159f60018055565b5050505050505050565b6115b1610da3565b6115c060026001541415611c17565b6002600155600160a060020a038082163314806115f0576115eb8260005416600160a060020a031690565b331490505b6115f981611bca565b50825161160885518214611b57565b506000805b845160ff8216818110611621575050611685565b61163561162e828a61111e565b5185610983565b935061167361166c61166061165361164d858c61111e565b516118ee565b54600160a060020a031690565b600160a060020a031690565b15156119b1565b505061167e816110fe565b905061160d565b506116b06116a784600160a060020a0316600090815260036020526040902090565b54821115611a71565b600080837f00000000000000000000000000000000000000000000000000000000000000001693505b855160ff82168181106116ed575050611896565b6116f7818a61111e565b5191506117228561171c89600160a060020a0316600090815260036020526040902090565b546109fa565b61174861174261173c88611736868f61111e565b5161099b565b836109c0565b84610983565b92505061175588516109df565b8114156117815761177e8461171c89600160a060020a0316600090815260036020526040902090565b91505b61179161165361164d838b61111e565b863b61179c57600080fd5b6040517fa9059cbb000000000000000000000000000000000000000000000000000000008152600160a060020a03821660048201526024810184905260208160448160008c5af19150816117f2576117f2611c64565b60008215611813576118043d83610c89565b6118103d830183610623565b90505b61181c81611964565b505050611829818961111e565b5161183a61165361164d848c61111e565b9150611845816118cc565b60405184815290915082828a7fb0657052acbf78260696b569dbe3a1f1f39287b5a3c378f5bca0c20fbf062dec602085a45050506118838184610983565b92505061188f816110fe565b90506116d9565b506118c06118b885600160a060020a0316600090815260036020526040902090565b548214611a24565b505050610a5b60018055565b600060405182516118e1818360208701610bb8565b8101819003902092915050565b60006040518251611903818360208701610bb8565b6004908201908152819003602001902092915050565b60e060020a634e487b7102600052601160045260246000fd5b60e060020a634e487b7102600052603260045260246000fd5b60e060020a634e487b7102600052604160045260246000fd5b8061044e5760405160e560020a62461bcd02815260206004820152602060248201527f55534443207472616e7366657220746f2063686172697479206661696c65642e6044820152606481fd5b8061044e5760405160e560020a62461bcd02815260206004820152602560248201527f417474656d707420746f20646f6e61746520746f20756e6b6e6f776e2063686160448201527f726974792e0000000000000000000000000000000000000000000000000000006064820152608481fd5b8061044e5760405160e560020a62461bcd02815260206004820152601c60248201527f4d7573742066696e616c697a6520656e746972652062616c616e6365000000006044820152606481fd5b8061044e5760405160e560020a62461bcd02815260206004820152602260248201527f546f74616c2066696e616c697a6174696f6e20616d6f756e7420746f6f20686960448201527f67680000000000000000000000000000000000000000000000000000000000006064820152608481fd5b8061044e5760405160e560020a62461bcd02815260206004820152602760248201527f4661696c656420746f2073656e642067617320746f20657068656d6572616c2060448201527f77616c6c65742e000000000000000000000000000000000000000000000000006064820152608481fd5b8061044e5760405160e560020a62461bcd02815260206004820152603160248201527f43686172697469657320616e6420616d6f756e747320617272617973206f662060448201527f646966666572656e74206c656e6774682e0000000000000000000000000000006064820152608481fd5b8061044e5760405160e560020a62461bcd02815260206004820152601d60248201527f556e617574686f72697a6174696f6e2066696e616c697a6174696f6e2e0000006044820152606481fd5b8061044e5760405160e560020a62461bcd02815260206004820152601f60248201527f5265656e7472616e637947756172643a207265656e7472616e742063616c6c006044820152606481fd5b6040513d6000823e3d81fd5b6000806006548310611c8457611c84611932565b5050600660009081527ff652222313e28459528d920b65115c16c04f3efc82aaedc97be59f3f377c0d3f9091019156fea36469706673582212206e1dc480d43151b4b9881c1e665716475755cec26dcfb0b33d5f96e0692a09396c6578706572696d656e74616cf564736f6c63430008070041",
			"opcodes": "PUSH1 0xE0 PUSH1 0x40 MSTORE CALLVALUE ISZERO PUSH3 0x10 JUMPI PUSH1 0x0 DUP1 REVERT JUMPDEST PUSH3 0x1E90 DUP1 CODESIZE SUB PUSH1 0x1F NOT PUSH1 0x1F DUP3 ADD AND PUSH1 0xE0 ADD PUSH1 0xE0 DUP2 LT PUSH8 0xFFFFFFFFFFFFFFFF DUP3 GT OR ISZERO PUSH3 0x67 JUMPI PUSH32 0x4E487B7100000000000000000000000000000000000000000000000000000000 PUSH1 0x0 MSTORE PUSH1 0x41 PUSH1 0x4 MSTORE PUSH1 0x24 PUSH1 0x0 REVERT JUMPDEST PUSH1 0x40 MSTORE DUP1 DUP3 PUSH1 0xE0 CODECOPY PUSH1 0x80 DUP2 SLT ISZERO PUSH3 0x7E JUMPI PUSH1 0x0 DUP1 REVERT JUMPDEST POP POP PUSH1 0xE0 MLOAD PUSH3 0x8E DUP2 PUSH3 0x17E JUMP JUMPDEST PUSH2 0x100 MLOAD PUSH2 0x120 MLOAD PUSH3 0xA1 DUP2 PUSH3 0x17E JUMP JUMPDEST PUSH2 0x140 MLOAD PUSH3 0xB0 DUP2 PUSH3 0x17E JUMP JUMPDEST PUSH3 0xBE DUP2 DUP4 DUP6 DUP8 PUSH3 0x10A JUMP JUMPDEST POP POP POP POP PUSH1 0x40 MLOAD PUSH2 0x1CF8 DUP1 PUSH3 0x198 DUP4 CODECOPY PUSH1 0x80 MLOAD DUP3 DUP2 DUP2 PUSH2 0x10B ADD MSTORE PUSH2 0x12B5 ADD MSTORE PUSH1 0xA0 MLOAD DUP3 DUP2 DUP2 PUSH2 0x251 ADD MSTORE DUP2 DUP2 PUSH2 0x1461 ADD MSTORE PUSH2 0x16B6 ADD MSTORE PUSH1 0xC0 MLOAD DUP3 DUP2 DUP2 PUSH2 0x2C2 ADD MSTORE PUSH2 0x1287 ADD MSTORE DUP1 DUP3 RETURN JUMPDEST PUSH1 0x0 DUP1 SLOAD CALLER PUSH1 0x1 PUSH1 0xA0 PUSH1 0x2 EXP SUB NOT DUP3 AND DUP2 OR DUP4 SSTORE PUSH1 0x40 MLOAD SWAP2 SWAP3 SWAP1 SWAP2 PUSH1 0x1 PUSH1 0xA0 PUSH1 0x2 EXP SUB DUP5 AND SWAP2 PUSH32 0x8BE0079C531659141344CD1FD0A4F28419497F9722A3DAAFE3B4186F6B6457E0 SWAP2 LOG3 PUSH1 0x1 PUSH1 0xA8 PUSH1 0x2 EXP SUB NOT AND CALLER PUSH1 0xA0 PUSH1 0x2 EXP PUSH1 0xFF MUL NOT AND OR PUSH1 0x0 SSTORE PUSH1 0x1 DUP1 SSTORE PUSH1 0xC0 MSTORE PUSH1 0x2 SSTORE PUSH1 0x80 MSTORE PUSH1 0xA0 MSTORE JUMP JUMPDEST PUSH1 0x1 PUSH1 0xA0 PUSH1 0x2 EXP SUB DUP2 AND DUP2 EQ PUSH3 0x194 JUMPI PUSH1 0x0 DUP1 REVERT JUMPDEST POP JUMP INVALID PUSH1 0x40 PUSH1 0x80 DUP2 MSTORE PUSH1 0x4 CALLDATASIZE LT PUSH2 0x34A JUMPI PUSH1 0x0 PUSH29 0x100000000000000000000000000000000000000000000000000000000 DUP2 CALLDATALOAD DIV PUSH4 0x480A6FDC DUP2 EQ PUSH2 0xC4 JUMPI PUSH4 0x4AA4A4FC DUP2 EQ PUSH2 0xF4 JUMPI PUSH4 0x5C975ABB DUP2 EQ PUSH2 0x13E JUMPI PUSH4 0x715018A6 DUP2 EQ PUSH2 0x180 JUMPI PUSH4 0x720A7DEE DUP2 EQ PUSH2 0x1A0 JUMPI PUSH4 0x745284CE DUP2 EQ PUSH2 0x1C8 JUMPI PUSH4 0x7A5DE53D DUP2 EQ PUSH2 0x1EE JUMPI PUSH4 0x7AED7746 DUP2 EQ PUSH2 0x216 JUMPI PUSH4 0x89A30271 DUP2 EQ PUSH2 0x23A JUMPI PUSH4 0x8DA5CB5B DUP2 EQ PUSH2 0x280 JUMPI PUSH4 0xC31C9C07 DUP2 EQ PUSH2 0x2AB JUMPI PUSH4 0xF2FDE38B DUP2 EQ PUSH2 0x2F1 JUMPI PUSH4 0xF8B2CB4F DUP2 EQ PUSH2 0x30C JUMPI PUSH2 0x347 JUMP JUMPDEST CALLVALUE ISZERO PUSH2 0xCE JUMPI DUP2 DUP3 REVERT JUMPDEST PUSH2 0xD7 CALLDATASIZE PUSH2 0x497 JUMP JUMPDEST PUSH2 0xE7 DUP2 DUP4 DUP6 DUP8 DUP10 DUP12 DUP14 DUP16 PUSH2 0x1254 JUMP JUMPDEST POP POP POP POP POP POP POP POP DUP2 DUP4 MLOAD RETURN JUMPDEST CALLVALUE ISZERO PUSH2 0xFE JUMPI DUP2 DUP3 REVERT JUMPDEST PUSH2 0x107 CALLDATASIZE PUSH2 0x43C JUMP JUMPDEST DUP3 MLOAD PUSH32 0x0 PUSH1 0x1 PUSH1 0xA0 PUSH1 0x2 EXP SUB AND DUP2 MSTORE PUSH1 0x20 DUP2 RETURN JUMPDEST SUB DUP2 RETURN JUMPDEST CALLVALUE ISZERO PUSH2 0x148 JUMPI DUP2 DUP3 REVERT JUMPDEST PUSH2 0x151 CALLDATASIZE PUSH2 0x43C JUMP JUMPDEST PUSH1 0xFF PUSH21 0x10000000000000000000000000000000000000000 DUP4 SLOAD DIV AND DUP4 MLOAD DUP1 PUSH2 0x13A DUP4 DUP4 SWAP1 ISZERO ISZERO DUP2 MSTORE PUSH1 0x20 ADD SWAP1 JUMP JUMPDEST CALLVALUE ISZERO PUSH2 0x18A JUMPI DUP2 DUP3 REVERT JUMPDEST PUSH2 0x193 CALLDATASIZE PUSH2 0x43C JUMP JUMPDEST PUSH2 0x19B PUSH2 0x113B JUMP JUMPDEST DUP2 DUP4 MLOAD RETURN JUMPDEST CALLVALUE ISZERO PUSH2 0x1AA JUMPI DUP2 DUP3 REVERT JUMPDEST PUSH2 0x1B3 CALLDATASIZE PUSH2 0x43C JUMP JUMPDEST PUSH2 0x1BB PUSH2 0xAC8 JUMP JUMPDEST DUP4 MLOAD DUP1 PUSH2 0x13A DUP4 DUP4 PUSH2 0x70F JUMP JUMPDEST CALLVALUE ISZERO PUSH2 0x1D2 JUMPI DUP2 DUP3 REVERT JUMPDEST PUSH2 0x1DB CALLDATASIZE PUSH2 0x532 JUMP JUMPDEST PUSH2 0x1E6 DUP2 DUP4 DUP6 PUSH2 0x15A9 JUMP JUMPDEST POP POP POP DUP2 DUP4 MLOAD RETURN JUMPDEST CALLVALUE ISZERO PUSH2 0x1F8 JUMPI DUP2 DUP3 REVERT JUMPDEST PUSH2 0x201 CALLDATASIZE PUSH2 0x43C JUMP JUMPDEST PUSH2 0x209 PUSH2 0xA60 JUMP JUMPDEST DUP4 MLOAD DUP1 PUSH2 0x13A DUP4 DUP4 PUSH2 0x6C2 JUMP JUMPDEST CALLVALUE ISZERO PUSH2 0x220 JUMPI DUP2 DUP3 REVERT JUMPDEST PUSH2 0x229 CALLDATASIZE PUSH2 0x64C JUMP JUMPDEST PUSH2 0x233 DUP2 DUP4 PUSH2 0xE0F JUMP JUMPDEST POP POP DUP2 DUP4 MLOAD RETURN JUMPDEST CALLVALUE ISZERO PUSH2 0x244 JUMPI DUP2 DUP3 REVERT JUMPDEST PUSH2 0x24D CALLDATASIZE PUSH2 0x43C JUMP JUMPDEST DUP3 MLOAD PUSH32 0x0 PUSH1 0x1 PUSH1 0xA0 PUSH1 0x2 EXP SUB AND DUP2 MSTORE PUSH1 0x20 DUP2 RETURN JUMPDEST CALLVALUE ISZERO PUSH2 0x28A JUMPI DUP2 DUP3 REVERT JUMPDEST PUSH2 0x293 CALLDATASIZE PUSH2 0x43C JUMP JUMPDEST DUP2 SLOAD DUP4 MLOAD PUSH1 0x1 PUSH1 0xA0 PUSH1 0x2 EXP SUB SWAP1 SWAP2 AND DUP1 DUP3 MSTORE SWAP1 PUSH1 0x20 DUP2 RETURN JUMPDEST CALLVALUE ISZERO PUSH2 0x2B5 JUMPI DUP2 DUP3 REVERT JUMPDEST PUSH2 0x2BE CALLDATASIZE PUSH2 0x43C JUMP JUMPDEST DUP3 MLOAD PUSH32 0x0 PUSH1 0x1 PUSH1 0xA0 PUSH1 0x2 EXP SUB AND DUP2 MSTORE PUSH1 0x20 DUP2 RETURN JUMPDEST CALLVALUE ISZERO PUSH2 0x2FB JUMPI DUP2 DUP3 REVERT JUMPDEST PUSH2 0x19B PUSH2 0x307 CALLDATASIZE PUSH2 0x465 JUMP JUMPDEST PUSH2 0x118A JUMP JUMPDEST CALLVALUE ISZERO PUSH2 0x316 JUMPI DUP2 DUP3 REVERT JUMPDEST PUSH2 0x33D PUSH2 0x322 CALLDATASIZE PUSH2 0x465 JUMP JUMPDEST PUSH1 0x1 PUSH1 0xA0 PUSH1 0x2 EXP SUB AND PUSH1 0x0 SWAP1 DUP2 MSTORE PUSH1 0x3 PUSH1 0x20 MSTORE PUSH1 0x40 SWAP1 KECCAK256 SLOAD SWAP1 JUMP JUMPDEST DUP4 MLOAD DUP2 DUP2 MSTORE PUSH1 0x20 DUP2 RETURN JUMPDEST POP POP JUMPDEST POP PUSH1 0x0 DUP1 REVERT JUMPDEST PUSH1 0x4 CALLDATALOAD PUSH1 0x1 PUSH1 0xA0 PUSH1 0x2 EXP SUB DUP2 AND DUP2 EQ PUSH2 0x368 JUMPI PUSH1 0x0 DUP1 REVERT JUMPDEST SWAP1 JUMP JUMPDEST PUSH1 0x0 DUP3 PUSH1 0x1F DUP4 ADD SLT PUSH2 0x37C JUMPI PUSH1 0x0 DUP1 REVERT JUMPDEST DUP2 CALLDATALOAD PUSH2 0x387 DUP2 PUSH2 0x821 JUMP JUMPDEST PUSH1 0x40 MLOAD PUSH2 0x394 DUP3 DUP3 PUSH2 0xC89 JUMP JUMPDEST DUP3 DUP2 MSTORE PUSH1 0x20 DUP1 DUP3 ADD SWAP3 POP DUP6 DUP2 ADD DUP2 DUP6 MUL DUP8 ADD DUP3 ADD DUP9 LT ISZERO PUSH2 0x3B4 JUMPI PUSH1 0x0 DUP1 REVERT JUMPDEST PUSH1 0x0 JUMPDEST DUP6 DUP2 LT ISZERO PUSH2 0x3D3 JUMPI DUP2 CALLDATALOAD DUP6 MSTORE SWAP4 DUP3 ADD SWAP4 SWAP1 DUP3 ADD SWAP1 PUSH1 0x1 ADD PUSH2 0x3B7 JUMP JUMPDEST POP SWAP2 SWAP8 SWAP7 POP POP POP POP POP POP POP JUMP JUMPDEST PUSH1 0x0 DUP3 PUSH1 0x1F DUP4 ADD SLT PUSH2 0x3F1 JUMPI PUSH1 0x0 DUP1 REVERT JUMPDEST DUP2 CALLDATALOAD PUSH2 0x3FC DUP2 PUSH2 0x845 JUMP JUMPDEST PUSH1 0x40 MLOAD PUSH2 0x409 DUP3 DUP3 PUSH2 0xC89 JUMP JUMPDEST DUP3 DUP2 MSTORE DUP6 PUSH1 0x20 DUP5 DUP8 ADD ADD GT ISZERO PUSH2 0x41E JUMPI PUSH1 0x0 DUP1 REVERT JUMPDEST DUP3 PUSH1 0x20 DUP7 ADD PUSH1 0x20 DUP4 ADD CALLDATACOPY PUSH1 0x0 SWAP3 DUP2 ADD PUSH1 0x20 ADD SWAP3 SWAP1 SWAP3 MSTORE POP SWAP4 SWAP3 POP POP POP JUMP JUMPDEST PUSH1 0x0 PUSH1 0x3 NOT DUP3 ADD SLT ISZERO PUSH2 0x44E JUMPI PUSH1 0x0 DUP1 REVERT JUMPDEST POP JUMP JUMPDEST PUSH1 0x0 DUP2 DUP4 SUB SLT ISZERO PUSH2 0x461 JUMPI PUSH1 0x0 DUP1 REVERT JUMPDEST POP POP JUMP JUMPDEST PUSH1 0x0 PUSH1 0x20 PUSH1 0x3 NOT DUP4 ADD SLT ISZERO PUSH2 0x479 JUMPI PUSH1 0x0 DUP1 REVERT JUMPDEST PUSH1 0x4 CALLDATALOAD PUSH1 0x1 PUSH1 0xA0 PUSH1 0x2 EXP SUB DUP2 AND DUP2 EQ PUSH2 0x491 JUMPI PUSH1 0x0 DUP1 REVERT JUMPDEST SWAP3 SWAP2 POP POP JUMP JUMPDEST PUSH1 0x0 DUP1 DUP1 DUP1 DUP1 DUP1 DUP1 DUP1 PUSH2 0x100 PUSH1 0x3 NOT DUP11 ADD SLT ISZERO PUSH2 0x4B3 JUMPI PUSH1 0x0 DUP1 REVERT JUMPDEST PUSH1 0x4 CALLDATALOAD PUSH1 0x1 PUSH1 0xA0 PUSH1 0x2 EXP SUB DUP1 DUP3 AND DUP3 EQ PUSH2 0x4CC JUMPI PUSH1 0x0 DUP1 REVERT JUMPDEST SWAP1 SWAP9 POP PUSH1 0x24 CALLDATALOAD SWAP1 DUP1 DUP3 AND DUP3 EQ PUSH2 0x4E1 JUMPI PUSH1 0x0 DUP1 REVERT JUMPDEST POP SWAP7 POP PUSH1 0x44 CALLDATALOAD SWAP6 POP PUSH1 0x64 CALLDATALOAD SWAP5 POP PUSH1 0x84 CALLDATALOAD SWAP4 POP PUSH1 0xA4 CALLDATALOAD PUSH3 0xFFFFFF DUP1 DUP3 AND DUP3 EQ PUSH2 0x508 JUMPI PUSH1 0x0 DUP1 REVERT JUMPDEST SWAP1 SWAP4 POP PUSH1 0xC4 CALLDATALOAD SWAP1 DUP1 DUP3 AND DUP3 EQ PUSH2 0x51D JUMPI PUSH1 0x0 DUP1 REVERT JUMPDEST POP DUP1 SWAP3 POP POP PUSH1 0xE4 CALLDATALOAD SWAP1 POP SWAP2 SWAP4 SWAP6 SWAP8 POP SWAP2 SWAP4 SWAP6 SWAP8 JUMP JUMPDEST PUSH1 0x0 DUP1 DUP1 PUSH1 0x60 PUSH1 0x3 NOT DUP6 ADD SLT ISZERO PUSH2 0x548 JUMPI PUSH1 0x0 DUP1 REVERT JUMPDEST PUSH2 0x550 PUSH2 0x350 JUMP JUMPDEST SWAP3 POP PUSH1 0x24 DUP1 CALLDATALOAD PUSH8 0xFFFFFFFFFFFFFFFF DUP1 DUP3 GT ISZERO PUSH2 0x56C JUMPI PUSH1 0x0 DUP1 REVERT JUMPDEST DUP7 PUSH1 0x23 DUP4 ADD SLT PUSH2 0x57B JUMPI PUSH1 0x0 DUP1 REVERT JUMPDEST DUP2 PUSH1 0x4 ADD CALLDATALOAD PUSH2 0x589 DUP2 PUSH2 0x821 JUMP JUMPDEST PUSH1 0x40 MLOAD PUSH2 0x596 DUP3 DUP3 PUSH2 0xC89 JUMP JUMPDEST DUP3 DUP2 MSTORE PUSH1 0x20 DUP1 DUP3 ADD SWAP3 POP DUP6 DUP8 ADD DUP2 DUP6 MUL DUP8 ADD DUP9 ADD DUP13 LT ISZERO PUSH2 0x5B6 JUMPI PUSH1 0x0 DUP1 REVERT JUMPDEST PUSH1 0x0 JUMPDEST DUP6 DUP2 LT ISZERO PUSH2 0x5F1 JUMPI DUP2 CALLDATALOAD DUP8 DUP2 GT ISZERO PUSH2 0x5D0 JUMPI PUSH1 0x0 DUP1 REVERT JUMPDEST PUSH2 0x5DE DUP15 DUP12 DUP4 DUP13 ADD ADD PUSH2 0x3E0 JUMP JUMPDEST DUP7 MSTORE POP SWAP4 DUP3 ADD SWAP4 SWAP1 DUP3 ADD SWAP1 PUSH1 0x1 ADD PUSH2 0x5B9 JUMP JUMPDEST POP SWAP2 SWAP9 POP POP PUSH1 0x44 CALLDATALOAD SWAP6 POP POP POP POP DUP1 DUP4 GT ISZERO PUSH2 0x60B JUMPI PUSH1 0x0 DUP1 REVERT JUMPDEST POP POP PUSH2 0x61A DUP6 DUP3 PUSH1 0x4 ADD PUSH2 0x36B JUMP JUMPDEST SWAP4 SWAP6 SWAP3 SWAP5 POP POP POP JUMP JUMPDEST PUSH1 0x0 PUSH1 0x20 DUP3 DUP5 SUB SLT ISZERO PUSH2 0x635 JUMPI PUSH1 0x0 DUP1 REVERT JUMPDEST DUP2 MLOAD DUP1 ISZERO ISZERO DUP2 EQ PUSH2 0x645 JUMPI PUSH1 0x0 DUP1 REVERT JUMPDEST SWAP4 SWAP3 POP POP POP JUMP JUMPDEST PUSH1 0x0 DUP1 PUSH1 0x40 PUSH1 0x3 NOT DUP5 ADD SLT ISZERO PUSH2 0x661 JUMPI PUSH1 0x0 DUP1 REVERT JUMPDEST PUSH1 0x4 CALLDATALOAD PUSH8 0xFFFFFFFFFFFFFFFF DUP2 GT ISZERO PUSH2 0x679 JUMPI PUSH1 0x0 DUP1 REVERT JUMPDEST PUSH2 0x686 DUP5 DUP3 PUSH1 0x4 ADD PUSH2 0x3E0 JUMP JUMPDEST SWAP3 POP POP PUSH1 0x24 CALLDATALOAD PUSH1 0x1 PUSH1 0xA0 PUSH1 0x2 EXP SUB DUP2 AND DUP2 EQ PUSH2 0x6A1 JUMPI PUSH1 0x0 DUP1 REVERT JUMPDEST SWAP2 SWAP4 SWAP2 SWAP3 POP POP JUMP JUMPDEST PUSH1 0x0 PUSH1 0x20 DUP3 DUP5 SUB SLT ISZERO PUSH2 0x6BB JUMPI PUSH1 0x0 DUP1 REVERT JUMPDEST POP MLOAD SWAP2 SWAP1 POP JUMP JUMPDEST PUSH1 0x20 DUP1 DUP3 MSTORE DUP3 MLOAD DUP3 DUP3 ADD DUP2 SWAP1 MSTORE PUSH1 0x0 SWAP2 SWAP1 DUP5 DUP3 ADD SWAP1 PUSH1 0x40 DUP6 ADD SWAP1 DUP5 JUMPDEST DUP2 DUP2 LT ISZERO PUSH2 0x703 JUMPI DUP4 MLOAD PUSH1 0x1 PUSH1 0xA0 PUSH1 0x2 EXP SUB AND DUP4 MSTORE SWAP3 DUP5 ADD SWAP3 SWAP2 DUP5 ADD SWAP2 PUSH1 0x1 ADD PUSH2 0x6DE JUMP JUMPDEST POP SWAP1 SWAP7 SWAP6 POP POP POP POP POP POP JUMP JUMPDEST PUSH1 0x0 PUSH1 0x20 DUP1 DUP4 ADD DUP2 DUP5 MSTORE DUP1 DUP6 MLOAD DUP1 DUP4 MSTORE PUSH1 0x40 DUP7 ADD SWAP2 POP PUSH1 0x40 DUP5 DUP3 MUL DUP8 ADD ADD SWAP3 POP DUP4 DUP8 ADD PUSH1 0x0 JUMPDEST DUP3 DUP2 LT ISZERO PUSH2 0x77B JUMPI DUP8 DUP6 SUB PUSH1 0x3F NOT ADD DUP5 MSTORE DUP2 MLOAD DUP1 MLOAD DUP1 DUP8 MSTORE PUSH2 0x75C DUP2 DUP10 DUP10 ADD DUP11 DUP6 ADD PUSH2 0xBB8 JUMP JUMPDEST PUSH1 0x1F ADD PUSH1 0x1F NOT AND SWAP6 SWAP1 SWAP6 ADD DUP7 ADD SWAP5 POP SWAP3 DUP6 ADD SWAP3 SWAP1 DUP6 ADD SWAP1 PUSH1 0x1 ADD PUSH2 0x735 JUMP JUMPDEST POP SWAP3 SWAP8 SWAP7 POP POP POP POP POP POP POP JUMP JUMPDEST PUSH1 0x0 PUSH2 0x100 DUP3 ADD SWAP1 POP PUSH1 0x1 PUSH1 0xA0 PUSH1 0x2 EXP SUB DUP1 DUP5 MLOAD AND DUP4 MSTORE DUP1 PUSH1 0x20 DUP6 ADD MLOAD AND PUSH1 0x20 DUP5 ADD MSTORE PUSH3 0xFFFFFF PUSH1 0x40 DUP6 ADD MLOAD AND PUSH1 0x40 DUP5 ADD MSTORE DUP1 PUSH1 0x60 DUP6 ADD MLOAD AND PUSH1 0x60 DUP5 ADD MSTORE PUSH1 0x80 DUP5 ADD MLOAD PUSH1 0x80 DUP5 ADD MSTORE PUSH1 0xA0 DUP5 ADD MLOAD PUSH1 0xA0 DUP5 ADD MSTORE PUSH1 0xC0 DUP5 ADD MLOAD PUSH1 0xC0 DUP5 ADD MSTORE DUP1 PUSH1 0xE0 DUP6 ADD MLOAD AND PUSH1 0xE0 DUP5 ADD MSTORE POP SWAP3 SWAP2 POP POP JUMP JUMPDEST PUSH1 0x40 MLOAD PUSH2 0x100 DUP2 ADD PUSH8 0xFFFFFFFFFFFFFFFF DUP2 GT DUP3 DUP3 LT OR ISZERO PUSH2 0x81B JUMPI PUSH2 0x81B PUSH2 0x194B JUMP JUMPDEST PUSH1 0x40 MSTORE SWAP1 JUMP JUMPDEST PUSH1 0x0 PUSH8 0xFFFFFFFFFFFFFFFF DUP3 GT ISZERO PUSH2 0x83B JUMPI PUSH2 0x83B PUSH2 0x194B JUMP JUMPDEST POP PUSH1 0x20 SWAP1 DUP2 MUL ADD SWAP1 JUMP JUMPDEST PUSH1 0x0 PUSH8 0xFFFFFFFFFFFFFFFF DUP3 GT ISZERO PUSH2 0x85F JUMPI PUSH2 0x85F PUSH2 0x194B JUMP JUMPDEST POP PUSH1 0x1F ADD PUSH1 0x1F NOT AND PUSH1 0x20 ADD SWAP1 JUMP JUMPDEST PUSH1 0x6 SLOAD PUSH9 0x10000000000000000 DUP2 LT PUSH2 0x888 JUMPI PUSH2 0x888 PUSH2 0x194B JUMP JUMPDEST PUSH1 0x1 DUP1 DUP3 ADD PUSH1 0x6 SSTORE PUSH2 0x899 DUP3 PUSH2 0x1C70 JUMP JUMPDEST SWAP3 POP DUP3 ISZERO PUSH2 0x8BA JUMPI PUSH1 0xE0 PUSH1 0x2 EXP PUSH4 0x4E487B71 MUL PUSH1 0x0 MSTORE PUSH1 0x0 PUSH1 0x4 MSTORE PUSH1 0x24 PUSH1 0x0 REVERT JUMPDEST DUP4 MLOAD SWAP3 POP PUSH8 0xFFFFFFFFFFFFFFFF DUP4 GT ISZERO PUSH2 0x8D6 JUMPI PUSH2 0x8D6 PUSH2 0x194B JUMP JUMPDEST PUSH2 0x8EA DUP4 PUSH2 0x8E4 DUP4 SLOAD PUSH2 0xBE8 JUMP JUMPDEST DUP4 PUSH2 0xA11 JUMP JUMPDEST PUSH1 0x20 DUP1 PUSH1 0x1F DUP6 GT PUSH1 0x1 DUP2 EQ PUSH2 0x922 JUMPI PUSH1 0x0 DUP7 ISZERO PUSH2 0x907 JUMPI POP DUP7 DUP4 ADD MLOAD JUMPDEST DUP7 PUSH1 0x2 MUL DUP8 PUSH1 0x8 MUL PUSH1 0x2 EXP PUSH1 0x0 NOT DIV NOT DUP3 AND OR DUP6 SSTORE POP PUSH2 0x97A JUMP JUMPDEST PUSH1 0x0 DUP5 DUP2 MSTORE PUSH1 0x20 DUP2 KECCAK256 PUSH1 0x1F NOT DUP9 AND SWAP2 JUMPDEST DUP3 DUP2 LT ISZERO PUSH2 0x94F JUMPI DUP10 DUP7 ADD MLOAD DUP3 SSTORE SWAP5 DUP5 ADD SWAP5 SWAP1 DUP8 ADD SWAP1 DUP5 ADD PUSH2 0x932 JUMP JUMPDEST POP DUP8 DUP3 LT ISZERO PUSH2 0x96F JUMPI DUP9 DUP6 ADD MLOAD PUSH1 0x8 PUSH1 0x1F DUP11 AND MUL PUSH1 0x2 EXP PUSH1 0x0 NOT DIV NOT AND DUP2 SSTORE JUMPDEST POP POP DUP5 PUSH1 0x2 DUP8 MUL ADD DUP5 SSTORE JUMPDEST POP POP POP POP POP POP POP JUMP JUMPDEST PUSH1 0x0 DUP3 NOT DUP3 GT ISZERO PUSH2 0x996 JUMPI PUSH2 0x996 PUSH2 0x1919 JUMP JUMPDEST POP ADD SWAP1 JUMP JUMPDEST PUSH1 0x0 DUP3 PUSH2 0x9BB JUMPI PUSH1 0xE0 PUSH1 0x2 EXP PUSH4 0x4E487B71 MUL PUSH1 0x0 MSTORE PUSH1 0x12 PUSH1 0x4 MSTORE PUSH1 0x24 PUSH1 0x0 REVERT JUMPDEST POP DIV SWAP1 JUMP JUMPDEST PUSH1 0x0 DUP2 PUSH1 0x0 NOT DIV DUP4 GT DUP3 ISZERO ISZERO AND ISZERO PUSH2 0x9DA JUMPI PUSH2 0x9DA PUSH2 0x1919 JUMP JUMPDEST POP MUL SWAP1 JUMP JUMPDEST PUSH1 0x0 PUSH1 0x1 DUP3 LT ISZERO PUSH2 0x9F2 JUMPI PUSH2 0x9F2 PUSH2 0x1919 JUMP JUMPDEST POP PUSH1 0x0 NOT ADD SWAP1 JUMP JUMPDEST PUSH1 0x0 DUP3 DUP3 LT ISZERO PUSH2 0xA0C JUMPI PUSH2 0xA0C PUSH2 0x1919 JUMP JUMPDEST POP SUB SWAP1 JUMP JUMPDEST PUSH1 0x1F DUP3 GT ISZERO PUSH2 0xA5B JUMPI PUSH1 0x0 DUP2 DUP2 MSTORE PUSH1 0x20 DUP2 KECCAK256 PUSH1 0x20 PUSH1 0x1F DUP7 ADD DIV DUP2 ADD PUSH1 0x20 DUP7 LT ISZERO PUSH2 0xA38 JUMPI POP DUP1 JUMPDEST PUSH1 0x20 PUSH1 0x1F DUP7 ADD DIV DUP3 ADD SWAP2 POP JUMPDEST DUP2 DUP2 LT ISZERO PUSH2 0xA57 JUMPI DUP3 DUP2 SSTORE PUSH1 0x1 ADD PUSH2 0xA44 JUMP JUMPDEST POP POP POP JUMPDEST POP POP POP JUMP JUMPDEST PUSH1 0x40 MLOAD PUSH1 0x7 DUP1 SLOAD DUP1 DUP4 MSTORE PUSH1 0x0 SWAP2 DUP3 MSTORE PUSH1 0x20 DUP1 DUP5 ADD SWAP3 PUSH32 0xA66CC928B5EDB82AF9BD49922954155AB7B0942694BEA4CE44661D9A8736C688 SWAP1 JUMPDEST DUP4 DUP2 LT ISZERO PUSH2 0xAB4 JUMPI DUP2 SLOAD DUP6 MSTORE SWAP4 DUP3 ADD SWAP4 PUSH1 0x1 SWAP2 DUP3 ADD SWAP2 ADD PUSH2 0xA98 JUMP JUMPDEST POP POP POP POP PUSH2 0xAC4 DUP3 DUP3 SUB DUP4 PUSH2 0xC89 JUMP JUMPDEST POP SWAP1 JUMP JUMPDEST PUSH1 0x0 PUSH1 0x6 SLOAD PUSH2 0xAD6 DUP2 PUSH2 0x821 JUMP JUMPDEST PUSH1 0x40 DUP1 MLOAD PUSH2 0xAE4 DUP4 DUP3 PUSH2 0xC89 JUMP JUMPDEST DUP4 DUP2 MSTORE PUSH1 0x6 PUSH1 0x0 SWAP1 DUP2 MSTORE SWAP1 SWAP5 POP PUSH1 0x20 DUP1 DUP7 ADD SWAP4 POP PUSH32 0xF652222313E28459528D920B65115C16C04F3EFC82AAEDC97BE59F3F377C0D3F DUP3 JUMPDEST DUP7 DUP2 LT ISZERO PUSH2 0xBAE JUMPI DUP5 MLOAD DUP5 DUP4 SLOAD PUSH2 0xB31 DUP2 PUSH2 0xBE8 JUMP JUMPDEST DUP1 DUP5 MSTORE PUSH1 0x1 DUP3 DUP2 AND DUP1 ISZERO PUSH2 0xB4C JUMPI PUSH1 0x1 DUP2 EQ PUSH2 0xB5F JUMPI PUSH2 0xB8A JUMP JUMPDEST PUSH1 0xFF NOT DUP5 AND DUP7 DUP11 ADD MSTORE DUP11 DUP7 ADD SWAP5 POP PUSH2 0xB8A JUMP JUMPDEST DUP8 DUP11 MSTORE DUP9 DUP11 KECCAK256 DUP11 JUMPDEST DUP5 DUP2 LT ISZERO PUSH2 0xB82 JUMPI DUP2 SLOAD DUP9 DUP3 ADD DUP13 ADD MSTORE SWAP1 DUP4 ADD SWAP1 DUP11 ADD PUSH2 0xB67 JUMP JUMPDEST DUP8 ADD DUP11 ADD SWAP6 POP POP JUMPDEST POP PUSH2 0xB97 DUP6 DUP6 SUB DUP7 PUSH2 0xC89 JUMP JUMPDEST SWAP4 DUP11 MSTORE POP POP POP SWAP6 DUP4 ADD SWAP6 SWAP2 SWAP1 SWAP2 ADD SWAP1 PUSH1 0x1 ADD PUSH2 0xB1B JUMP JUMPDEST POP POP POP POP POP POP POP SWAP1 JUMP JUMPDEST PUSH1 0x0 JUMPDEST DUP4 DUP2 LT ISZERO PUSH2 0xBD3 JUMPI DUP2 DUP2 ADD MLOAD DUP4 DUP3 ADD MSTORE PUSH1 0x20 ADD PUSH2 0xBBB JUMP JUMPDEST DUP4 DUP2 GT ISZERO PUSH2 0xBE2 JUMPI PUSH1 0x0 DUP5 DUP5 ADD MSTORE JUMPDEST POP POP POP POP JUMP JUMPDEST PUSH1 0x2 DUP2 DIV PUSH1 0x1 DUP3 AND DUP1 PUSH2 0xBFC JUMPI PUSH1 0x7F DUP3 AND SWAP2 POP JUMPDEST PUSH1 0x20 DUP3 LT DUP2 EQ ISZERO PUSH2 0xC20 JUMPI PUSH1 0xE0 PUSH1 0x2 EXP PUSH4 0x4E487B71 MUL PUSH1 0x0 MSTORE PUSH1 0x22 PUSH1 0x4 MSTORE PUSH1 0x24 PUSH1 0x0 REVERT JUMPDEST POP SWAP2 SWAP1 POP JUMP JUMPDEST PUSH1 0x0 RETURNDATASIZE DUP1 ISZERO PUSH2 0xC5B JUMPI RETURNDATASIZE PUSH2 0xC39 DUP2 PUSH2 0x845 JUMP JUMPDEST PUSH1 0x40 MLOAD PUSH2 0xC46 DUP3 DUP3 PUSH2 0xC89 JUMP JUMPDEST DUP3 DUP2 MSTORE DUP1 SWAP5 POP RETURNDATASIZE PUSH1 0x0 PUSH1 0x20 DUP4 ADD RETURNDATACOPY POP POP POP POP SWAP1 JUMP JUMPDEST PUSH1 0x60 SWAP2 POP POP SWAP1 JUMP JUMPDEST PUSH1 0xA0 DUP2 ADD DUP2 DUP2 LT PUSH8 0xFFFFFFFFFFFFFFFF DUP3 GT OR ISZERO PUSH2 0xC83 JUMPI PUSH2 0xC83 PUSH2 0x194B JUMP JUMPDEST PUSH1 0x40 MSTORE POP JUMP JUMPDEST PUSH1 0x1F DUP3 ADD PUSH1 0x1F NOT AND DUP2 ADD PUSH8 0xFFFFFFFFFFFFFFFF DUP2 GT DUP3 DUP3 LT OR ISZERO PUSH2 0xCAF JUMPI PUSH2 0xCAF PUSH2 0x194B JUMP JUMPDEST PUSH1 0x40 MSTORE POP POP JUMP JUMPDEST PUSH1 0x0 DUP1 DUP3 DUP2 MSTORE PUSH1 0x8 PUSH1 0x20 MSTORE PUSH1 0x40 DUP2 KECCAK256 SLOAD ISZERO PUSH1 0x0 DUP2 EQ PUSH2 0xD41 JUMPI PUSH1 0x7 SLOAD PUSH9 0x10000000000000000 DUP2 LT PUSH2 0xCEA JUMPI PUSH2 0xCEA PUSH2 0x194B JUMP JUMPDEST PUSH1 0x1 DUP2 ADD DUP1 PUSH1 0x7 SSTORE DUP1 DUP3 LT PUSH2 0xD01 JUMPI PUSH2 0xD01 PUSH2 0x1932 JUMP JUMPDEST POP PUSH32 0xA66CC928B5EDB82AF9BD49922954155AB7B0942694BEA4CE44661D9A8736C688 ADD DUP5 SWAP1 SSTORE POP PUSH1 0x7 SLOAD SWAP3 DUP2 MSTORE PUSH1 0x8 PUSH1 0x20 MSTORE PUSH1 0x40 SWAP1 KECCAK256 SWAP2 SWAP1 SWAP2 SSTORE POP PUSH1 0x1 SWAP1 JUMP JUMPDEST POP SWAP3 SWAP2 POP POP JUMP JUMPDEST PUSH1 0x1 PUSH1 0xA0 PUSH1 0x2 EXP SUB PUSH1 0x0 SLOAD AND CALLER DUP2 EQ PUSH2 0x44E JUMPI PUSH1 0x40 MLOAD PUSH1 0xE5 PUSH1 0x2 EXP PUSH3 0x461BCD MUL DUP2 MSTORE PUSH1 0x20 PUSH1 0x4 DUP3 ADD MSTORE PUSH1 0x20 PUSH1 0x24 DUP3 ADD MSTORE PUSH32 0x4F776E61626C653A2063616C6C6572206973206E6F7420746865206F776E6572 PUSH1 0x44 DUP3 ADD MSTORE PUSH1 0x64 DUP2 REVERT JUMPDEST PUSH1 0xFF PUSH21 0x10000000000000000000000000000000000000000 PUSH1 0x0 SLOAD DIV AND ISZERO PUSH2 0xE0D JUMPI PUSH1 0x40 MLOAD PUSH1 0xE5 PUSH1 0x2 EXP PUSH3 0x461BCD MUL DUP2 MSTORE PUSH1 0x20 PUSH1 0x4 DUP3 ADD MSTORE PUSH1 0x10 PUSH1 0x24 DUP3 ADD MSTORE PUSH32 0x5061757361626C653A2070617573656400000000000000000000000000000000 PUSH1 0x44 DUP3 ADD MSTORE PUSH1 0x64 DUP2 REVERT JUMPDEST JUMP JUMPDEST PUSH1 0x1 PUSH1 0xA0 PUSH1 0x2 EXP SUB DUP1 PUSH2 0xE21 DUP4 PUSH2 0x18EE JUMP JUMPDEST SLOAD AND ISZERO PUSH2 0xE70 JUMPI PUSH1 0x40 MLOAD PUSH1 0xE5 PUSH1 0x2 EXP PUSH3 0x461BCD MUL DUP2 MSTORE PUSH1 0x20 PUSH1 0x4 DUP3 ADD MSTORE PUSH1 0x20 PUSH1 0x24 DUP3 ADD MSTORE PUSH32 0x43686172697479206E616D6520616C726561647920726567697374657265642E PUSH1 0x44 DUP3 ADD MSTORE PUSH1 0x64 DUP2 REVERT JUMPDEST DUP3 AND PUSH1 0x0 DUP2 DUP2 MSTORE PUSH1 0x5 PUSH1 0x20 MSTORE PUSH1 0x40 SWAP1 KECCAK256 SLOAD PUSH2 0xE8A SWAP1 PUSH2 0xBE8 JUMP JUMPDEST ISZERO PUSH2 0xEFD JUMPI PUSH1 0x40 MLOAD PUSH1 0xE5 PUSH1 0x2 EXP PUSH3 0x461BCD MUL DUP2 MSTORE PUSH1 0x20 PUSH1 0x4 DUP3 ADD MSTORE PUSH1 0x23 PUSH1 0x24 DUP3 ADD MSTORE PUSH32 0x43686172697479206164647265737320616C7265616479207265676973746572 PUSH1 0x44 DUP3 ADD MSTORE PUSH32 0x65642E0000000000000000000000000000000000000000000000000000000000 PUSH1 0x64 DUP3 ADD MSTORE PUSH1 0x84 DUP2 REVERT JUMPDEST PUSH2 0xF27 DUP4 PUSH2 0xF0A DUP5 PUSH2 0x18EE JUMP JUMPDEST PUSH1 0x1 PUSH1 0xA0 PUSH1 0x2 EXP SUB DUP3 AND PUSH1 0x1 PUSH1 0xA0 PUSH1 0x2 EXP SUB NOT DUP3 SLOAD AND OR DUP2 SSTORE POP POP JUMP JUMPDEST PUSH2 0xF30 DUP2 PUSH2 0xCB6 JUMP JUMPDEST POP POP PUSH2 0x461 DUP2 PUSH2 0x86D JUMP JUMPDEST PUSH1 0x40 MLOAD PUSH32 0x95EA7B300000000000000000000000000000000000000000000000000000000 PUSH1 0x20 DUP3 ADD SWAP1 DUP2 MSTORE PUSH1 0x1 PUSH1 0xA0 PUSH1 0x2 EXP SUB DUP5 AND PUSH1 0x24 DUP4 ADD MSTORE PUSH1 0x44 DUP1 DUP4 ADD DUP7 SWAP1 MSTORE DUP3 MSTORE PUSH1 0x64 PUSH2 0xF8B DUP2 DUP5 PUSH2 0xC89 JUMP JUMPDEST POP PUSH1 0x0 DUP1 DUP4 MLOAD DUP4 PUSH1 0x0 DUP8 GAS CALL SWAP2 POP POP PUSH2 0xFA2 PUSH2 0xC26 JUMP JUMPDEST DUP2 DUP3 ISZERO PUSH2 0xFCB JUMPI DUP2 MLOAD DUP1 ISZERO DUP1 PUSH2 0xFC7 JUMPI PUSH2 0xFC4 PUSH1 0x20 DUP4 DUP7 ADD ADD PUSH1 0x20 DUP7 ADD PUSH2 0x623 JUMP JUMPDEST SWAP1 POP JUMPDEST SWAP2 POP POP JUMPDEST DUP1 PUSH2 0xA57 JUMPI PUSH1 0x40 MLOAD SWAP3 POP PUSH1 0xE5 PUSH1 0x2 EXP PUSH3 0x461BCD MUL DUP4 MSTORE PUSH1 0x20 PUSH1 0x4 DUP5 ADD MSTORE PUSH1 0x2 PUSH1 0x24 DUP5 ADD MSTORE PUSH32 0x5341000000000000000000000000000000000000000000000000000000000000 PUSH1 0x44 DUP5 ADD MSTORE PUSH1 0x64 DUP4 REVERT JUMPDEST PUSH1 0x40 MLOAD PUSH1 0x20 DUP2 ADD PUSH32 0x23B872DD00000000000000000000000000000000000000000000000000000000 DUP2 MSTORE PUSH1 0x1 PUSH1 0xA0 PUSH1 0x2 EXP SUB DUP1 DUP6 AND PUSH1 0x24 DUP5 ADD MSTORE DUP1 DUP7 AND PUSH1 0x44 DUP5 ADD MSTORE POP DUP6 PUSH1 0x64 DUP4 ADD MSTORE PUSH1 0x64 DUP3 MSTORE PUSH2 0x1070 DUP3 PUSH2 0xC63 JUMP JUMPDEST PUSH1 0x0 DUP1 DUP4 MLOAD DUP4 PUSH1 0x0 DUP8 GAS CALL SWAP2 POP POP PUSH2 0x1086 PUSH2 0xC26 JUMP JUMPDEST DUP2 DUP3 ISZERO PUSH2 0x10AF JUMPI DUP2 MLOAD DUP1 ISZERO DUP1 PUSH2 0x10AB JUMPI PUSH2 0x10A8 PUSH1 0x20 DUP4 DUP7 ADD ADD PUSH1 0x20 DUP7 ADD PUSH2 0x623 JUMP JUMPDEST SWAP1 POP JUMPDEST SWAP2 POP POP JUMPDEST DUP1 PUSH2 0x97A JUMPI PUSH1 0x40 MLOAD SWAP3 POP PUSH1 0xE5 PUSH1 0x2 EXP PUSH3 0x461BCD MUL DUP4 MSTORE PUSH1 0x20 PUSH1 0x4 DUP5 ADD MSTORE PUSH1 0x3 PUSH1 0x24 DUP5 ADD MSTORE PUSH32 0x5354460000000000000000000000000000000000000000000000000000000000 PUSH1 0x44 DUP5 ADD MSTORE PUSH1 0x64 DUP4 REVERT JUMPDEST PUSH1 0x0 PUSH1 0xFF DUP3 AND PUSH1 0xFF DUP2 EQ ISZERO PUSH2 0x1115 JUMPI PUSH2 0x1115 PUSH2 0x1919 JUMP JUMPDEST PUSH1 0x1 ADD SWAP3 SWAP2 POP POP JUMP JUMPDEST PUSH1 0x0 DUP2 MLOAD DUP4 LT PUSH2 0x1130 JUMPI PUSH2 0x1130 PUSH2 0x1932 JUMP JUMPDEST POP PUSH1 0x20 SWAP2 DUP3 MUL ADD ADD SWAP1 JUMP JUMPDEST PUSH2 0x1143 PUSH2 0xD48 JUMP JUMPDEST PUSH1 0x0 SLOAD PUSH1 0x1 PUSH1 0xA0 PUSH1 0x2 EXP SUB NOT DUP2 AND PUSH1 0x0 SSTORE PUSH1 0x0 PUSH1 0x1 PUSH1 0xA0 PUSH1 0x2 EXP SUB DUP3 AND PUSH32 0x8BE0079C531659141344CD1FD0A4F28419497F9722A3DAAFE3B4186F6B6457E0 PUSH1 0x0 PUSH1 0x40 MLOAD LOG3 POP JUMP JUMPDEST PUSH2 0x1192 PUSH2 0xD48 JUMP JUMPDEST PUSH1 0x1 PUSH1 0xA0 PUSH1 0x2 EXP SUB DUP1 DUP3 AND DUP1 PUSH2 0x1210 JUMPI PUSH1 0x40 MLOAD PUSH1 0xE5 PUSH1 0x2 EXP PUSH3 0x461BCD MUL DUP2 MSTORE PUSH1 0x20 PUSH1 0x4 DUP3 ADD MSTORE PUSH1 0x26 PUSH1 0x24 DUP3 ADD MSTORE PUSH32 0x4F776E61626C653A206E6577206F776E657220697320746865207A65726F2061 PUSH1 0x44 DUP3 ADD MSTORE PUSH32 0x6464726573730000000000000000000000000000000000000000000000000000 PUSH1 0x64 DUP3 ADD MSTORE PUSH1 0x84 DUP2 REVERT JUMPDEST PUSH1 0x0 SLOAD DUP2 PUSH1 0x1 PUSH1 0xA0 PUSH1 0x2 EXP SUB NOT DUP3 AND OR PUSH1 0x0 SSTORE DUP4 DUP4 DUP3 AND PUSH32 0x8BE0079C531659141344CD1FD0A4F28419497F9722A3DAAFE3B4186F6B6457E0 PUSH1 0x0 PUSH1 0x40 MLOAD LOG3 POP POP POP POP JUMP JUMPDEST PUSH2 0x125C PUSH2 0xDA3 JUMP JUMPDEST PUSH1 0x2 PUSH2 0x126C DUP2 PUSH1 0x1 SLOAD EQ ISZERO PUSH2 0x1C17 JUMP JUMPDEST DUP1 PUSH1 0x1 SSTORE PUSH2 0x127C DUP5 ADDRESS CALLER DUP7 PUSH2 0x101A JUMP JUMPDEST PUSH1 0x1 PUSH1 0xA0 PUSH1 0x2 EXP SUB DUP1 PUSH32 0x0 AND PUSH2 0x12B2 DUP7 DUP3 DUP8 PUSH2 0xF3B JUMP JUMPDEST DUP2 PUSH32 0x0 AND DUP4 SLOAD PUSH2 0x12DF PUSH2 0x7F7 JUMP JUMPDEST PUSH1 0x1 PUSH1 0xA0 PUSH1 0x2 EXP SUB DUP9 AND DUP2 MSTORE PUSH1 0x1 PUSH1 0xA0 PUSH1 0x2 EXP SUB DUP4 AND PUSH1 0x20 DUP3 ADD MSTORE PUSH3 0xFFFFFF DUP13 AND PUSH1 0x40 DUP3 DUP2 ADD SWAP2 SWAP1 SWAP2 MSTORE ADDRESS PUSH1 0x60 DUP4 ADD MSTORE DUP11 PUSH1 0x80 DUP4 ADD MSTORE DUP3 PUSH1 0xA0 DUP4 ADD MSTORE DUP12 PUSH1 0xC0 DUP4 ADD MSTORE PUSH1 0x0 SWAP3 POP DUP3 PUSH1 0xE0 DUP4 ADD MSTORE DUP5 EXTCODESIZE PUSH2 0x1335 JUMPI DUP3 DUP4 REVERT JUMPDEST DUP1 MLOAD PUSH32 0xDB3E219800000000000000000000000000000000000000000000000000000000 DUP2 MSTORE PUSH1 0x20 DUP2 DUP3 PUSH2 0x136B DUP7 PUSH1 0x4 DUP7 ADD PUSH2 0x788 JUMP JUMPDEST SUB DUP4 DUP8 DUP11 GAS CALL SWAP3 POP DUP3 PUSH2 0x1380 JUMPI PUSH2 0x1380 PUSH2 0x1C64 JUMP JUMPDEST DUP4 DUP4 ISZERO PUSH2 0x13A0 JUMPI PUSH2 0x1391 RETURNDATASIZE DUP4 PUSH2 0xC89 JUMP JUMPDEST PUSH2 0x139D RETURNDATASIZE DUP4 ADD DUP4 PUSH2 0x6A9 JUMP JUMPDEST SWAP1 POP JUMPDEST DUP9 SLOAD SWAP4 POP DUP6 EXTCODESIZE PUSH2 0x13AE JUMPI DUP5 DUP6 REVERT JUMPDEST DUP3 MLOAD PUSH32 0x2E1A7D4D00000000000000000000000000000000000000000000000000000000 DUP2 MSTORE PUSH1 0x4 DUP2 ADD DUP6 SWAP1 MSTORE SWAP2 POP DUP5 DUP3 PUSH1 0x24 DUP2 DUP4 DUP11 GAS CALL SWAP6 POP DUP6 PUSH2 0x13F4 JUMPI PUSH2 0x13F4 PUSH2 0x1C64 JUMP JUMPDEST DUP6 ISZERO PUSH2 0x1410 JUMPI PUSH2 0x1404 RETURNDATASIZE DUP4 PUSH2 0xC89 JUMP JUMPDEST PUSH2 0x1410 RETURNDATASIZE DUP4 ADD DUP4 PUSH2 0x451 JUMP JUMPDEST DUP9 SLOAD SWAP6 POP DUP5 DUP6 DUP7 DUP6 MLOAD DUP10 DUP13 DUP16 AND GAS CALL SWAP6 POP PUSH2 0x1429 PUSH2 0xC26 JUMP JUMPDEST POP PUSH2 0x1433 DUP7 PUSH2 0x1AE4 JUMP JUMPDEST PUSH2 0x143D DUP2 DUP14 PUSH2 0x9FA JUMP JUMPDEST SWAP6 POP POP POP PUSH2 0x1449 PUSH2 0x7F7 JUMP JUMPDEST PUSH1 0x1 PUSH1 0xA0 PUSH1 0x2 EXP SUB DUP11 AND DUP2 MSTORE SWAP2 POP PUSH1 0x1 PUSH1 0xA0 PUSH1 0x2 EXP SUB PUSH32 0x0 DUP8 AND AND PUSH1 0x20 DUP4 ADD MSTORE PUSH3 0xFFFFFF DUP15 AND DUP3 DUP3 ADD MSTORE ADDRESS PUSH1 0x60 DUP4 ADD MSTORE DUP11 PUSH1 0x80 DUP4 ADD MSTORE DUP4 PUSH1 0xA0 DUP4 ADD MSTORE DUP15 PUSH1 0xC0 DUP4 ADD MSTORE DUP3 PUSH1 0xE0 DUP4 ADD MSTORE DUP5 EXTCODESIZE PUSH2 0x14BA JUMPI DUP3 DUP4 REVERT JUMPDEST DUP1 MLOAD SWAP6 POP PUSH32 0x414BF38900000000000000000000000000000000000000000000000000000000 DUP7 MSTORE PUSH1 0x20 DUP7 DUP8 PUSH2 0x14F2 DUP6 PUSH1 0x4 DUP12 ADD PUSH2 0x788 JUMP JUMPDEST SUB DUP9 DUP7 DUP10 GAS CALL SWAP5 POP DUP5 PUSH2 0x1507 JUMPI PUSH2 0x1507 PUSH2 0x1C64 JUMP JUMPDEST DUP3 SWAP4 POP DUP5 ISZERO PUSH2 0x1529 JUMPI PUSH2 0x151A RETURNDATASIZE DUP8 PUSH2 0xC89 JUMP JUMPDEST PUSH2 0x1526 RETURNDATASIZE DUP8 ADD DUP8 PUSH2 0x6A9 JUMP JUMPDEST SWAP4 POP JUMPDEST PUSH1 0x1 PUSH1 0xA0 PUSH1 0x2 EXP SUB DUP9 AND PUSH1 0x0 SWAP1 DUP2 MSTORE PUSH1 0x3 PUSH1 0x20 MSTORE PUSH1 0x40 SWAP1 KECCAK256 SWAP6 POP PUSH2 0x154E DUP5 DUP8 SLOAD PUSH2 0x983 JUMP JUMPDEST SWAP1 SWAP6 SSTORE POP POP SWAP3 SLOAD SWAP2 MLOAD DUP7 DUP2 MSTORE PUSH1 0x20 DUP2 ADD DUP4 SWAP1 MSTORE PUSH1 0x40 DUP2 ADD DUP5 SWAP1 MSTORE SWAP2 SWAP3 DUP6 DUP6 CALLER PUSH32 0x860654AD3D0539DBAC86150676768B53A47900BB45C5EB8D8D000FFBC4F67E6 PUSH1 0x60 DUP8 LOG4 POP POP POP POP PUSH2 0x159F PUSH1 0x1 DUP1 SSTORE JUMP JUMPDEST POP POP POP POP POP POP POP POP JUMP JUMPDEST PUSH2 0x15B1 PUSH2 0xDA3 JUMP JUMPDEST PUSH2 0x15C0 PUSH1 0x2 PUSH1 0x1 SLOAD EQ ISZERO PUSH2 0x1C17 JUMP JUMPDEST PUSH1 0x2 PUSH1 0x1 SSTORE PUSH1 0x1 PUSH1 0xA0 PUSH1 0x2 EXP SUB DUP1 DUP3 AND CALLER EQ DUP1 PUSH2 0x15F0 JUMPI PUSH2 0x15EB DUP3 PUSH1 0x0 SLOAD AND PUSH1 0x1 PUSH1 0xA0 PUSH1 0x2 EXP SUB AND SWAP1 JUMP JUMPDEST CALLER EQ SWAP1 POP JUMPDEST PUSH2 0x15F9 DUP2 PUSH2 0x1BCA JUMP JUMPDEST POP DUP3 MLOAD PUSH2 0x1608 DUP6 MLOAD DUP3 EQ PUSH2 0x1B57 JUMP JUMPDEST POP PUSH1 0x0 DUP1 JUMPDEST DUP5 MLOAD PUSH1 0xFF DUP3 AND DUP2 DUP2 LT PUSH2 0x1621 JUMPI POP POP PUSH2 0x1685 JUMP JUMPDEST PUSH2 0x1635 PUSH2 0x162E DUP3 DUP11 PUSH2 0x111E JUMP JUMPDEST MLOAD DUP6 PUSH2 0x983 JUMP JUMPDEST SWAP4 POP PUSH2 0x1673 PUSH2 0x166C PUSH2 0x1660 PUSH2 0x1653 PUSH2 0x164D DUP6 DUP13 PUSH2 0x111E JUMP JUMPDEST MLOAD PUSH2 0x18EE JUMP JUMPDEST SLOAD PUSH1 0x1 PUSH1 0xA0 PUSH1 0x2 EXP SUB AND SWAP1 JUMP JUMPDEST PUSH1 0x1 PUSH1 0xA0 PUSH1 0x2 EXP SUB AND SWAP1 JUMP JUMPDEST ISZERO ISZERO PUSH2 0x19B1 JUMP JUMPDEST POP POP PUSH2 0x167E DUP2 PUSH2 0x10FE JUMP JUMPDEST SWAP1 POP PUSH2 0x160D JUMP JUMPDEST POP PUSH2 0x16B0 PUSH2 0x16A7 DUP5 PUSH1 0x1 PUSH1 0xA0 PUSH1 0x2 EXP SUB AND PUSH1 0x0 SWAP1 DUP2 MSTORE PUSH1 0x3 PUSH1 0x20 MSTORE PUSH1 0x40 SWAP1 KECCAK256 SWAP1 JUMP JUMPDEST SLOAD DUP3 GT ISZERO PUSH2 0x1A71 JUMP JUMPDEST PUSH1 0x0 DUP1 DUP4 PUSH32 0x0 AND SWAP4 POP JUMPDEST DUP6 MLOAD PUSH1 0xFF DUP3 AND DUP2 DUP2 LT PUSH2 0x16ED JUMPI POP POP PUSH2 0x1896 JUMP JUMPDEST PUSH2 0x16F7 DUP2 DUP11 PUSH2 0x111E JUMP JUMPDEST MLOAD SWAP2 POP PUSH2 0x1722 DUP6 PUSH2 0x171C DUP10 PUSH1 0x1 PUSH1 0xA0 PUSH1 0x2 EXP SUB AND PUSH1 0x0 SWAP1 DUP2 MSTORE PUSH1 0x3 PUSH1 0x20 MSTORE PUSH1 0x40 SWAP1 KECCAK256 SWAP1 JUMP JUMPDEST SLOAD PUSH2 0x9FA JUMP JUMPDEST PUSH2 0x1748 PUSH2 0x1742 PUSH2 0x173C DUP9 PUSH2 0x1736 DUP7 DUP16 PUSH2 0x111E JUMP JUMPDEST MLOAD PUSH2 0x99B JUMP JUMPDEST DUP4 PUSH2 0x9C0 JUMP JUMPDEST DUP5 PUSH2 0x983 JUMP JUMPDEST SWAP3 POP POP PUSH2 0x1755 DUP9 MLOAD PUSH2 0x9DF JUMP JUMPDEST DUP2 EQ ISZERO PUSH2 0x1781 JUMPI PUSH2 0x177E DUP5 PUSH2 0x171C DUP10 PUSH1 0x1 PUSH1 0xA0 PUSH1 0x2 EXP SUB AND PUSH1 0x0 SWAP1 DUP2 MSTORE PUSH1 0x3 PUSH1 0x20 MSTORE PUSH1 0x40 SWAP1 KECCAK256 SWAP1 JUMP JUMPDEST SWAP2 POP JUMPDEST PUSH2 0x1791 PUSH2 0x1653 PUSH2 0x164D DUP4 DUP12 PUSH2 0x111E JUMP JUMPDEST DUP7 EXTCODESIZE PUSH2 0x179C JUMPI PUSH1 0x0 DUP1 REVERT JUMPDEST PUSH1 0x40 MLOAD PUSH32 0xA9059CBB00000000000000000000000000000000000000000000000000000000 DUP2 MSTORE PUSH1 0x1 PUSH1 0xA0 PUSH1 0x2 EXP SUB DUP3 AND PUSH1 0x4 DUP3 ADD MSTORE PUSH1 0x24 DUP2 ADD DUP5 SWAP1 MSTORE PUSH1 0x20 DUP2 PUSH1 0x44 DUP2 PUSH1 0x0 DUP13 GAS CALL SWAP2 POP DUP2 PUSH2 0x17F2 JUMPI PUSH2 0x17F2 PUSH2 0x1C64 JUMP JUMPDEST PUSH1 0x0 DUP3 ISZERO PUSH2 0x1813 JUMPI PUSH2 0x1804 RETURNDATASIZE DUP4 PUSH2 0xC89 JUMP JUMPDEST PUSH2 0x1810 RETURNDATASIZE DUP4 ADD DUP4 PUSH2 0x623 JUMP JUMPDEST SWAP1 POP JUMPDEST PUSH2 0x181C DUP2 PUSH2 0x1964 JUMP JUMPDEST POP POP POP PUSH2 0x1829 DUP2 DUP10 PUSH2 0x111E JUMP JUMPDEST MLOAD PUSH2 0x183A PUSH2 0x1653 PUSH2 0x164D DUP5 DUP13 PUSH2 0x111E JUMP JUMPDEST SWAP2 POP PUSH2 0x1845 DUP2 PUSH2 0x18CC JUMP JUMPDEST PUSH1 0x40 MLOAD DUP5 DUP2 MSTORE SWAP1 SWAP2 POP DUP3 DUP3 DUP11 PUSH32 0xB0657052ACBF78260696B569DBE3A1F1F39287B5A3C378F5BCA0C20FBF062DEC PUSH1 0x20 DUP6 LOG4 POP POP POP PUSH2 0x1883 DUP2 DUP5 PUSH2 0x983 JUMP JUMPDEST SWAP3 POP POP PUSH2 0x188F DUP2 PUSH2 0x10FE JUMP JUMPDEST SWAP1 POP PUSH2 0x16D9 JUMP JUMPDEST POP PUSH2 0x18C0 PUSH2 0x18B8 DUP6 PUSH1 0x1 PUSH1 0xA0 PUSH1 0x2 EXP SUB AND PUSH1 0x0 SWAP1 DUP2 MSTORE PUSH1 0x3 PUSH1 0x20 MSTORE PUSH1 0x40 SWAP1 KECCAK256 SWAP1 JUMP JUMPDEST SLOAD DUP3 EQ PUSH2 0x1A24 JUMP JUMPDEST POP POP POP PUSH2 0xA5B PUSH1 0x1 DUP1 SSTORE JUMP JUMPDEST PUSH1 0x0 PUSH1 0x40 MLOAD DUP3 MLOAD PUSH2 0x18E1 DUP2 DUP4 PUSH1 0x20 DUP8 ADD PUSH2 0xBB8 JUMP JUMPDEST DUP2 ADD DUP2 SWAP1 SUB SWAP1 KECCAK256 SWAP3 SWAP2 POP POP JUMP JUMPDEST PUSH1 0x0 PUSH1 0x40 MLOAD DUP3 MLOAD PUSH2 0x1903 DUP2 DUP4 PUSH1 0x20 DUP8 ADD PUSH2 0xBB8 JUMP JUMPDEST PUSH1 0x4 SWAP1 DUP3 ADD SWAP1 DUP2 MSTORE DUP2 SWAP1 SUB PUSH1 0x20 ADD SWAP1 KECCAK256 SWAP3 SWAP2 POP POP JUMP JUMPDEST PUSH1 0xE0 PUSH1 0x2 EXP PUSH4 0x4E487B71 MUL PUSH1 0x0 MSTORE PUSH1 0x11 PUSH1 0x4 MSTORE PUSH1 0x24 PUSH1 0x0 REVERT JUMPDEST PUSH1 0xE0 PUSH1 0x2 EXP PUSH4 0x4E487B71 MUL PUSH1 0x0 MSTORE PUSH1 0x32 PUSH1 0x4 MSTORE PUSH1 0x24 PUSH1 0x0 REVERT JUMPDEST PUSH1 0xE0 PUSH1 0x2 EXP PUSH4 0x4E487B71 MUL PUSH1 0x0 MSTORE PUSH1 0x41 PUSH1 0x4 MSTORE PUSH1 0x24 PUSH1 0x0 REVERT JUMPDEST DUP1 PUSH2 0x44E JUMPI PUSH1 0x40 MLOAD PUSH1 0xE5 PUSH1 0x2 EXP PUSH3 0x461BCD MUL DUP2 MSTORE PUSH1 0x20 PUSH1 0x4 DUP3 ADD MSTORE PUSH1 0x20 PUSH1 0x24 DUP3 ADD MSTORE PUSH32 0x55534443207472616E7366657220746F2063686172697479206661696C65642E PUSH1 0x44 DUP3 ADD MSTORE PUSH1 0x64 DUP2 REVERT JUMPDEST DUP1 PUSH2 0x44E JUMPI PUSH1 0x40 MLOAD PUSH1 0xE5 PUSH1 0x2 EXP PUSH3 0x461BCD MUL DUP2 MSTORE PUSH1 0x20 PUSH1 0x4 DUP3 ADD MSTORE PUSH1 0x25 PUSH1 0x24 DUP3 ADD MSTORE PUSH32 0x417474656D707420746F20646F6E61746520746F20756E6B6E6F776E20636861 PUSH1 0x44 DUP3 ADD MSTORE PUSH32 0x726974792E000000000000000000000000000000000000000000000000000000 PUSH1 0x64 DUP3 ADD MSTORE PUSH1 0x84 DUP2 REVERT JUMPDEST DUP1 PUSH2 0x44E JUMPI PUSH1 0x40 MLOAD PUSH1 0xE5 PUSH1 0x2 EXP PUSH3 0x461BCD MUL DUP2 MSTORE PUSH1 0x20 PUSH1 0x4 DUP3 ADD MSTORE PUSH1 0x1C PUSH1 0x24 DUP3 ADD MSTORE PUSH32 0x4D7573742066696E616C697A6520656E746972652062616C616E636500000000 PUSH1 0x44 DUP3 ADD MSTORE PUSH1 0x64 DUP2 REVERT JUMPDEST DUP1 PUSH2 0x44E JUMPI PUSH1 0x40 MLOAD PUSH1 0xE5 PUSH1 0x2 EXP PUSH3 0x461BCD MUL DUP2 MSTORE PUSH1 0x20 PUSH1 0x4 DUP3 ADD MSTORE PUSH1 0x22 PUSH1 0x24 DUP3 ADD MSTORE PUSH32 0x546F74616C2066696E616C697A6174696F6E20616D6F756E7420746F6F206869 PUSH1 0x44 DUP3 ADD MSTORE PUSH32 0x6768000000000000000000000000000000000000000000000000000000000000 PUSH1 0x64 DUP3 ADD MSTORE PUSH1 0x84 DUP2 REVERT JUMPDEST DUP1 PUSH2 0x44E JUMPI PUSH1 0x40 MLOAD PUSH1 0xE5 PUSH1 0x2 EXP PUSH3 0x461BCD MUL DUP2 MSTORE PUSH1 0x20 PUSH1 0x4 DUP3 ADD MSTORE PUSH1 0x27 PUSH1 0x24 DUP3 ADD MSTORE PUSH32 0x4661696C656420746F2073656E642067617320746F20657068656D6572616C20 PUSH1 0x44 DUP3 ADD MSTORE PUSH32 0x77616C6C65742E00000000000000000000000000000000000000000000000000 PUSH1 0x64 DUP3 ADD MSTORE PUSH1 0x84 DUP2 REVERT JUMPDEST DUP1 PUSH2 0x44E JUMPI PUSH1 0x40 MLOAD PUSH1 0xE5 PUSH1 0x2 EXP PUSH3 0x461BCD MUL DUP2 MSTORE PUSH1 0x20 PUSH1 0x4 DUP3 ADD MSTORE PUSH1 0x31 PUSH1 0x24 DUP3 ADD MSTORE PUSH32 0x43686172697469657320616E6420616D6F756E747320617272617973206F6620 PUSH1 0x44 DUP3 ADD MSTORE PUSH32 0x646966666572656E74206C656E6774682E000000000000000000000000000000 PUSH1 0x64 DUP3 ADD MSTORE PUSH1 0x84 DUP2 REVERT JUMPDEST DUP1 PUSH2 0x44E JUMPI PUSH1 0x40 MLOAD PUSH1 0xE5 PUSH1 0x2 EXP PUSH3 0x461BCD MUL DUP2 MSTORE PUSH1 0x20 PUSH1 0x4 DUP3 ADD MSTORE PUSH1 0x1D PUSH1 0x24 DUP3 ADD MSTORE PUSH32 0x556E617574686F72697A6174696F6E2066696E616C697A6174696F6E2E000000 PUSH1 0x44 DUP3 ADD MSTORE PUSH1 0x64 DUP2 REVERT JUMPDEST DUP1 PUSH2 0x44E JUMPI PUSH1 0x40 MLOAD PUSH1 0xE5 PUSH1 0x2 EXP PUSH3 0x461BCD MUL DUP2 MSTORE PUSH1 0x20 PUSH1 0x4 DUP3 ADD MSTORE PUSH1 0x1F PUSH1 0x24 DUP3 ADD MSTORE PUSH32 0x5265656E7472616E637947756172643A207265656E7472616E742063616C6C00 PUSH1 0x44 DUP3 ADD MSTORE PUSH1 0x64 DUP2 REVERT JUMPDEST PUSH1 0x40 MLOAD RETURNDATASIZE PUSH1 0x0 DUP3 RETURNDATACOPY RETURNDATASIZE DUP2 REVERT JUMPDEST PUSH1 0x0 DUP1 PUSH1 0x6 SLOAD DUP4 LT PUSH2 0x1C84 JUMPI PUSH2 0x1C84 PUSH2 0x1932 JUMP JUMPDEST POP POP PUSH1 0x6 PUSH1 0x0 SWAP1 DUP2 MSTORE PUSH32 0xF652222313E28459528D920B65115C16C04F3EFC82AAEDC97BE59F3F377C0D3F SWAP1 SWAP2 ADD SWAP2 JUMP INVALID LOG3 PUSH5 0x6970667358 0x22 SLT KECCAK256 PUSH15 0x1DC480D43151B4B9881C1E66571647 JUMPI SSTORE 0xCE 0xC2 PUSH14 0xCFB0B33D5F96E0692A09396C6578 PUSH17 0x6572696D656E74616CF564736F6C634300 ADDMOD SMOD STOP COINBASE "
		},
		"gasEstimates": {
			"creation": {
				"codeDepositCost": "1483200",
				"executionCost": "infinite",
				"totalCost": "infinite"
			},
			"external": {
				"USDC()": "infinite",
				"WETH9()": "infinite",
				"deposit(address,address,uint256,uint256,uint256,uint24,uint24,uint256)": "infinite",
				"finalize(address,string[],uint256[])": "infinite",
				"getBalance(address)": "929",
				"getCharityAddresses()": "infinite",
				"getCharityNames()": "infinite",
				"owner()": "676",
				"paused()": "488",
				"registerCharity(string,address)": "infinite",
				"renounceOwnership()": "infinite",
				"swapRouter()": "infinite",
				"transferOwnership(address)": "22803"
			}
		},
		"methodIdentifiers": {
			"USDC()": "89a30271",
			"WETH9()": "4aa4a4fc",
			"deposit(address,address,uint256,uint256,uint256,uint24,uint24,uint256)": "480a6fdc",
			"finalize(address,string[],uint256[])": "745284ce",
			"getBalance(address)": "f8b2cb4f",
			"getCharityAddresses()": "7a5de53d",
			"getCharityNames()": "720a7dee",
			"owner()": "8da5cb5b",
			"paused()": "5c975abb",
			"registerCharity(string,address)": "7aed7746",
			"renounceOwnership()": "715018a6",
			"swapRouter()": "c31c9c07",
			"transferOwnership(address)": "f2fde38b"
		}
	},
	"abi": [
		{
			"inputs": [
				{
					"internalType": "contract ISwapRouter",
					"name": "_swapRouter",
					"type": "address"
				},
				{
					"internalType": "uint256",
					"name": "_ephemeralGasMoneyAmount",
					"type": "uint256"
				},
				{
					"internalType": "contract IWETH",
					"name": "_weth9",
					"type": "address"
				},
				{
					"internalType": "contract IERC20",
					"name": "_usdc",
					"type": "address"
				}
			],
			"stateMutability": "nonpayable",
			"type": "constructor"
		},
		{
			"anonymous": false,
			"inputs": [
				{
					"indexed": true,
					"internalType": "address",
					"name": "donor",
					"type": "address"
				},
				{
					"indexed": true,
					"internalType": "address",
					"name": "ephemeralWallet",
					"type": "address"
				},
				{
					"indexed": true,
					"internalType": "address",
					"name": "tokenIn",
					"type": "address"
				},
				{
					"indexed": false,
					"internalType": "uint256",
					"name": "tokenAmountIn",
					"type": "uint256"
				},
				{
					"indexed": false,
					"internalType": "uint256",
					"name": "gasOut",
					"type": "uint256"
				},
				{
					"indexed": false,
					"internalType": "uint256",
					"name": "usdcOut",
					"type": "uint256"
				}
			],
			"name": "FountainDeposit",
			"type": "event"
		},
		{
			"anonymous": false,
			"inputs": [
				{
					"indexed": true,
					"internalType": "address",
					"name": "donor",
					"type": "address"
				},
				{
					"indexed": true,
					"internalType": "string",
					"name": "charity",
					"type": "string"
				},
				{
					"indexed": true,
					"internalType": "address",
					"name": "charityAddress",
					"type": "address"
				},
				{
					"indexed": false,
					"internalType": "uint256",
					"name": "usdcAmount",
					"type": "uint256"
				}
			],
			"name": "FountainDonation",
			"type": "event"
		},
		{
			"anonymous": false,
			"inputs": [
				{
					"indexed": true,
					"internalType": "address",
					"name": "donor",
					"type": "address"
				},
				{
					"indexed": false,
					"internalType": "uint256",
					"name": "usdcAmount",
					"type": "uint256"
				}
			],
			"name": "FountainFinalization",
			"type": "event"
		},
		{
			"anonymous": false,
			"inputs": [
				{
					"indexed": true,
					"internalType": "address",
					"name": "previousOwner",
					"type": "address"
				},
				{
					"indexed": true,
					"internalType": "address",
					"name": "newOwner",
					"type": "address"
				}
			],
			"name": "OwnershipTransferred",
			"type": "event"
		},
		{
			"anonymous": false,
			"inputs": [
				{
					"indexed": false,
					"internalType": "address",
					"name": "account",
					"type": "address"
				}
			],
			"name": "Paused",
			"type": "event"
		},
		{
			"anonymous": false,
			"inputs": [
				{
					"indexed": false,
					"internalType": "address",
					"name": "account",
					"type": "address"
				}
			],
			"name": "Unpaused",
			"type": "event"
		},
		{
			"inputs": [],
			"name": "USDC",
			"outputs": [
				{
					"internalType": "contract IERC20",
					"name": "",
					"type": "address"
				}
			],
			"stateMutability": "view",
			"type": "function"
		},
		{
			"inputs": [],
			"name": "WETH9",
			"outputs": [
				{
					"internalType": "contract IWETH",
					"name": "",
					"type": "address"
				}
			],
			"stateMutability": "view",
			"type": "function"
		},
		{
			"inputs": [
				{
					"internalType": "address",
					"name": "ephemeralWalletAddress",
					"type": "address"
				},
				{
					"internalType": "address",
					"name": "tokenIn",
					"type": "address"
				},
				{
					"internalType": "uint256",
					"name": "totalAmountIn",
					"type": "uint256"
				},
				{
					"internalType": "uint256",
					"name": "deadline",
					"type": "uint256"
				},
				{
					"internalType": "uint256",
					"name": "ethSwapAmountInMax",
					"type": "uint256"
				},
				{
					"internalType": "uint24",
					"name": "ethSwapPoolFee",
					"type": "uint24"
				},
				{
					"internalType": "uint24",
					"name": "usdcSwapPoolFee",
					"type": "uint24"
				},
				{
					"internalType": "uint256",
					"name": "usdcSwapAmountOutMinimum",
					"type": "uint256"
				}
			],
			"name": "deposit",
			"outputs": [],
			"stateMutability": "nonpayable",
			"type": "function"
		},
		{
			"inputs": [
				{
					"internalType": "address",
					"name": "user",
					"type": "address"
				},
				{
					"internalType": "string[]",
					"name": "charities_",
					"type": "string[]"
				},
				{
					"internalType": "uint256[]",
					"name": "amounts_",
					"type": "uint256[]"
				}
			],
			"name": "finalize",
			"outputs": [],
			"stateMutability": "nonpayable",
			"type": "function"
		},
		{
			"inputs": [
				{
					"internalType": "address",
					"name": "user",
					"type": "address"
				}
			],
			"name": "getBalance",
			"outputs": [
				{
					"internalType": "uint256",
					"name": "userBalance_",
					"type": "uint256"
				}
			],
			"stateMutability": "view",
			"type": "function"
		},
		{
			"inputs": [],
			"name": "getCharityAddresses",
			"outputs": [
				{
					"internalType": "address[]",
					"name": "charityAddresses_",
					"type": "address[]"
				}
			],
			"stateMutability": "view",
			"type": "function"
		},
		{
			"inputs": [],
			"name": "getCharityNames",
			"outputs": [
				{
					"internalType": "string[]",
					"name": "charityNames_",
					"type": "string[]"
				}
			],
			"stateMutability": "view",
			"type": "function"
		},
		{
			"inputs": [],
			"name": "owner",
			"outputs": [
				{
					"internalType": "address",
					"name": "",
					"type": "address"
				}
			],
			"stateMutability": "view",
			"type": "function"
		},
		{
			"inputs": [],
			"name": "paused",
			"outputs": [
				{
					"internalType": "bool",
					"name": "",
					"type": "bool"
				}
			],
			"stateMutability": "view",
			"type": "function"
		},
		{
			"inputs": [
				{
					"internalType": "string",
					"name": "charityName",
					"type": "string"
				},
				{
					"internalType": "address",
					"name": "charityAddress",
					"type": "address"
				}
			],
			"name": "registerCharity",
			"outputs": [],
			"stateMutability": "nonpayable",
			"type": "function"
		},
		{
			"inputs": [],
			"name": "renounceOwnership",
			"outputs": [],
			"stateMutability": "nonpayable",
			"type": "function"
		},
		{
			"inputs": [],
			"name": "swapRouter",
			"outputs": [
				{
					"internalType": "contract ISwapRouter",
					"name": "",
					"type": "address"
				}
			],
			"stateMutability": "view",
			"type": "function"
		},
		{
			"inputs": [
				{
					"internalType": "address",
					"name": "newOwner",
					"type": "address"
				}
			],
			"name": "transferOwnership",
			"outputs": [],
			"stateMutability": "nonpayable",
			"type": "function"
		}
	]
}