{
	"contracts/fountain.sol": {
		"Serenity": {
			"abi": [
				{
					"inputs": [
						{
							"internalType": "contract ISwapRouter",
							"name": "_swapRouter",
							"type": "address"
						},
						{
							"internalType": "uint256",
							"name": "_ephemeralGasMoneyAmount",
							"type": "uint256"
						},
						{
							"internalType": "contract IWETH",
							"name": "_weth9",
							"type": "address"
						},
						{
							"internalType": "contract IERC20",
							"name": "_usdc",
							"type": "address"
						}
					],
					"stateMutability": "nonpayable",
					"type": "constructor"
				},
				{
					"anonymous": false,
					"inputs": [
						{
							"indexed": true,
							"internalType": "address",
							"name": "donor",
							"type": "address"
						},
						{
							"indexed": true,
							"internalType": "address",
							"name": "ephemeralWallet",
							"type": "address"
						},
						{
							"indexed": true,
							"internalType": "address",
							"name": "tokenIn",
							"type": "address"
						},
						{
							"indexed": false,
							"internalType": "uint256",
							"name": "tokenAmountIn",
							"type": "uint256"
						},
						{
							"indexed": false,
							"internalType": "uint256",
							"name": "gasOut",
							"type": "uint256"
						},
						{
							"indexed": false,
							"internalType": "uint256",
							"name": "usdcOut",
							"type": "uint256"
						}
					],
					"name": "FountainDeposit",
					"type": "event"
				},
				{
					"anonymous": false,
					"inputs": [
						{
							"indexed": true,
							"internalType": "address",
							"name": "donor",
							"type": "address"
						},
						{
							"indexed": true,
							"internalType": "string",
							"name": "charity",
							"type": "string"
						},
						{
							"indexed": true,
							"internalType": "address",
							"name": "charityAddress",
							"type": "address"
						},
						{
							"indexed": false,
							"internalType": "uint256",
							"name": "usdcAmount",
							"type": "uint256"
						}
					],
					"name": "FountainDonation",
					"type": "event"
				},
				{
					"anonymous": false,
					"inputs": [
						{
							"indexed": true,
							"internalType": "address",
							"name": "donor",
							"type": "address"
						},
						{
							"indexed": false,
							"internalType": "uint256",
							"name": "usdcAmount",
							"type": "uint256"
						}
					],
					"name": "FountainFinalization",
					"type": "event"
				},
				{
					"anonymous": false,
					"inputs": [
						{
							"indexed": true,
							"internalType": "address",
							"name": "previousOwner",
							"type": "address"
						},
						{
							"indexed": true,
							"internalType": "address",
							"name": "newOwner",
							"type": "address"
						}
					],
					"name": "OwnershipTransferred",
					"type": "event"
				},
				{
					"anonymous": false,
					"inputs": [
						{
							"indexed": false,
							"internalType": "address",
							"name": "account",
							"type": "address"
						}
					],
					"name": "Paused",
					"type": "event"
				},
				{
					"anonymous": false,
					"inputs": [
						{
							"indexed": false,
							"internalType": "address",
							"name": "account",
							"type": "address"
						}
					],
					"name": "Unpaused",
					"type": "event"
				},
				{
					"inputs": [],
					"name": "USDC",
					"outputs": [
						{
							"internalType": "contract IERC20",
							"name": "",
							"type": "address"
						}
					],
					"stateMutability": "view",
					"type": "function"
				},
				{
					"inputs": [],
					"name": "WETH9",
					"outputs": [
						{
							"internalType": "contract IWETH",
							"name": "",
							"type": "address"
						}
					],
					"stateMutability": "view",
					"type": "function"
				},
				{
					"inputs": [
						{
							"internalType": "address",
							"name": "ephemeralWalletAddress",
							"type": "address"
						},
						{
							"internalType": "address",
							"name": "tokenIn",
							"type": "address"
						},
						{
							"internalType": "uint256",
							"name": "totalAmountIn",
							"type": "uint256"
						},
						{
							"internalType": "uint256",
							"name": "deadline",
							"type": "uint256"
						},
						{
							"internalType": "uint256",
							"name": "ethSwapAmountInMax",
							"type": "uint256"
						},
						{
							"internalType": "uint24",
							"name": "ethSwapPoolFee",
							"type": "uint24"
						},
						{
							"internalType": "uint24",
							"name": "usdcSwapPoolFee",
							"type": "uint24"
						},
						{
							"internalType": "uint256",
							"name": "usdcSwapAmountOutMinimum",
							"type": "uint256"
						}
					],
					"name": "deposit",
					"outputs": [],
					"stateMutability": "nonpayable",
					"type": "function"
				},
				{
					"inputs": [
						{
							"internalType": "address",
							"name": "user",
							"type": "address"
						},
						{
							"internalType": "string[]",
							"name": "charities_",
							"type": "string[]"
						},
						{
							"internalType": "uint256[]",
							"name": "amounts_",
							"type": "uint256[]"
						}
					],
					"name": "finalize",
					"outputs": [],
					"stateMutability": "nonpayable",
					"type": "function"
				},
				{
					"inputs": [
						{
							"internalType": "address",
							"name": "user",
							"type": "address"
						}
					],
					"name": "getBalance",
					"outputs": [
						{
							"internalType": "uint256",
							"name": "userBalance_",
							"type": "uint256"
						}
					],
					"stateMutability": "view",
					"type": "function"
				},
				{
					"inputs": [],
					"name": "getCharityNames",
					"outputs": [
						{
							"internalType": "string[]",
							"name": "charityNames_",
							"type": "string[]"
						}
					],
					"stateMutability": "view",
					"type": "function"
				},
				{
					"inputs": [],
					"name": "owner",
					"outputs": [
						{
							"internalType": "address",
							"name": "",
							"type": "address"
						}
					],
					"stateMutability": "view",
					"type": "function"
				},
				{
					"inputs": [],
					"name": "paused",
					"outputs": [
						{
							"internalType": "bool",
							"name": "",
							"type": "bool"
						}
					],
					"stateMutability": "view",
					"type": "function"
				},
				{
					"inputs": [
						{
							"internalType": "string",
							"name": "charityName",
							"type": "string"
						},
						{
							"internalType": "address",
							"name": "charityAddress",
							"type": "address"
						}
					],
					"name": "registerCharity",
					"outputs": [],
					"stateMutability": "nonpayable",
					"type": "function"
				},
				{
					"inputs": [],
					"name": "renounceOwnership",
					"outputs": [],
					"stateMutability": "nonpayable",
					"type": "function"
				},
				{
					"inputs": [],
					"name": "swapRouter",
					"outputs": [
						{
							"internalType": "contract ISwapRouter",
							"name": "",
							"type": "address"
						}
					],
					"stateMutability": "view",
					"type": "function"
				},
				{
					"inputs": [
						{
							"internalType": "address",
							"name": "newOwner",
							"type": "address"
						}
					],
					"name": "transferOwnership",
					"outputs": [],
					"stateMutability": "nonpayable",
					"type": "function"
				}
			],
			"devdoc": {
				"kind": "dev",
				"methods": {
					"owner()": {
						"details": "Returns the address of the current owner."
					},
					"paused()": {
						"details": "Returns true if the contract is paused, and false otherwise."
					},
					"renounceOwnership()": {
						"details": "Leaves the contract without owner. It will not be possible to call `onlyOwner` functions anymore. Can only be called by the current owner. NOTE: Renouncing ownership will leave the contract without an owner, thereby removing any functionality that is only available to the owner."
					},
					"transferOwnership(address)": {
						"details": "Transfers ownership of the contract to a new account (`newOwner`). Can only be called by the current owner."
					}
				},
				"version": 1
			},
			"evm": {
				"assembly": "    /* \"contracts/fountain.sol\":531:8297  contract Serenity is Ownable, Pausable, ReentrancyGuard {... */\n  mstore(0x40, 0xe0)\n  jumpi(tag_1, iszero(callvalue))\n  0x00\n  dup1\n  revert\ntag_1:\n  bytecodeSize\n  dup1\n  codesize\n  sub\n  not(0x1f)\n  0x1f\n  dup3\n  add\n  and\n  0xe0\n  add\n  0xe0\n  dup2\n  lt\n  0xffffffffffffffff\n  dup3\n  gt\n  or\n  iszero\n  tag_2\n  jumpi\n  mstore(0x00, 0x4e487b7100000000000000000000000000000000000000000000000000000000)\n  mstore(0x04, 0x41)\n  revert(0x00, 0x24)\ntag_2:\n  0x40\n  mstore\n  dup1\n  dup3\n  0xe0\n  codecopy\n  0x80\n  dup2\n  slt\n  iszero\n  tag_3\n  jumpi\n  0x00\n  dup1\n  revert\ntag_3:\n  pop\n  pop\n  mload(0xe0)\n  tag_4\n  dup2\n  tag_5\n  jump\t// in\ntag_4:\n  mload(0x0100)\n  mload(0x0120)\n  tag_6\n  dup2\n  tag_5\n  jump\t// in\ntag_6:\n  mload(0x0140)\n  tag_7\n  dup2\n  tag_5\n  jump\t// in\ntag_7:\n  tag_8\n  dup2\n  dup4\n  dup6\n  dup8\n  tag_9\n  jump\t// in\ntag_8:\n  pop\n  pop\n  pop\n  pop\n  mload(0x40)\n  dataSize(sub_0)\n  dup1\n  dataOffset(sub_0)\n  dup4\n  codecopy\n  mload(0x80)\n  dup3\n  assignImmutable(\"0x34098433846a9bd0a86140a033abb24fa6dec3400ab42534fa886dfeed6a6087\")\n  mload(0xa0)\n  dup3\n  assignImmutable(\"0x3e53e6caa3d9267e13a0317305a21727fdeb46c2d5adc9160409eaa6e5fb3b60\")\n  mload(0xc0)\n  dup3\n  assignImmutable(\"0xa89dab98646eeeb3665d545d51c6146ef2fb7643427936d0df6806075707fbb6\")\n  dup1\n  dup3\n  return\n    /* \"contracts/fountain.sol\":1977:2223  constructor(ISwapRouter _swapRouter, uint256 _ephemeralGasMoneyAmount, IWETH _weth9, IERC20 _usdc) {... */\ntag_9:\n    /* \"@openzeppelin/contracts/access/Ownable.sol\":2525:2531  _owner */\n  0x00\n    /* \"contracts/fountain.sol\":531:8297  contract Serenity is Ownable, Pausable, ReentrancyGuard {... */\n  dup1\n  sload\n    /* \"@openzeppelin/contracts/utils/Context.sol\":719:729  msg.sender */\n  caller\n  not(sub(exp(0x02, 0xa0), 0x01))\n    /* \"contracts/fountain.sol\":531:8297  contract Serenity is Ownable, Pausable, ReentrancyGuard {... */\n  dup3\n  and\n  dup2\n  or\n  dup4\n  sstore\n  mload(0x40)\n  swap2\n  swap3\n    /* \"@openzeppelin/contracts/utils/Context.sol\":719:729  msg.sender */\n  swap1\n  swap2\n  sub(exp(0x02, 0xa0), 0x01)\n    /* \"contracts/fountain.sol\":531:8297  contract Serenity is Ownable, Pausable, ReentrancyGuard {... */\n  dup5\n  and\n  swap2\n    /* \"@openzeppelin/contracts/access/Ownable.sol\":2573:2613  OwnershipTransferred(oldOwner, newOwner) */\n  0x8be0079c531659141344cd1fd0a4f28419497f9722a3daafe3b4186f6b6457e0\n  swap2\n  log3\n  not(sub(exp(0x02, 0xa8), 0x01))\n    /* \"contracts/fountain.sol\":531:8297  contract Serenity is Ownable, Pausable, ReentrancyGuard {... */\n  and\n    /* \"@openzeppelin/contracts/utils/Context.sol\":719:729  msg.sender */\n  caller\n  not(mul(0xff, exp(0x02, 0xa0)))\n    /* \"contracts/fountain.sol\":531:8297  contract Serenity is Ownable, Pausable, ReentrancyGuard {... */\n  and\n  or\n    /* \"@openzeppelin/contracts/access/Ownable.sol\":2525:2531  _owner */\n  0x00\n    /* \"contracts/fountain.sol\":531:8297  contract Serenity is Ownable, Pausable, ReentrancyGuard {... */\n  sstore\n  0x01\n  dup1\n  sstore\n    /* \"contracts/fountain.sol\":2086:2110  swapRouter = _swapRouter */\n  0xc0\n  mstore\n    /* \"contracts/fountain.sol\":531:8297  contract Serenity is Ownable, Pausable, ReentrancyGuard {... */\n  0x02\n  sstore\n    /* \"contracts/fountain.sol\":2180:2194  WETH9 = _weth9 */\n  0x80\n  mstore\n    /* \"contracts/fountain.sol\":531:8297  contract Serenity is Ownable, Pausable, ReentrancyGuard {... */\n  0xa0\n    /* \"contracts/fountain.sol\":2204:2216  USDC = _usdc */\n  mstore\n    /* \"contracts/fountain.sol\":1977:2223  constructor(ISwapRouter _swapRouter, uint256 _ephemeralGasMoneyAmount, IWETH _weth9, IERC20 _usdc) {... */\n  jump\t// out\n    /* \"contracts/fountain.sol\":531:8297  contract Serenity is Ownable, Pausable, ReentrancyGuard {... */\ntag_5:\n  sub(exp(0x02, 0xa0), 0x01)\n  dup2\n  and\n  dup2\n  eq\n  tag_13\n  jumpi\n  0x00\n  dup1\n  revert\ntag_13:\n  pop\n  jump\t// out\nstop\n\nsub_0: assembly {\n        /* \"contracts/fountain.sol\":531:8297  contract Serenity is Ownable, Pausable, ReentrancyGuard {... */\n      0x40\n      0x80\n      dup2\n      mstore\n      jumpi(tag_1, lt(calldatasize, 0x04))\n      0x00\n      0x0100000000000000000000000000000000000000000000000000000000\n      dup2\n      calldataload\n      div\n      0x480a6fdc\n      dup2\n      eq\n      tag_3\n      jumpi\n      0x4aa4a4fc\n      dup2\n      eq\n      tag_4\n      jumpi\n      0x5c975abb\n      dup2\n      eq\n      tag_5\n      jumpi\n      0x715018a6\n      dup2\n      eq\n      tag_6\n      jumpi\n      0x720a7dee\n      dup2\n      eq\n      tag_7\n      jumpi\n      0x745284ce\n      dup2\n      eq\n      tag_8\n      jumpi\n      0x7aed7746\n      dup2\n      eq\n      tag_9\n      jumpi\n      0x89a30271\n      dup2\n      eq\n      tag_10\n      jumpi\n      0x8da5cb5b\n      dup2\n      eq\n      tag_11\n      jumpi\n      0xc31c9c07\n      dup2\n      eq\n      tag_12\n      jumpi\n      0xf2fde38b\n      dup2\n      eq\n      tag_13\n      jumpi\n      0xf8b2cb4f\n      dup2\n      eq\n      tag_14\n      jumpi\n      jump(tag_2)\n    tag_3:\n      jumpi(tag_15, iszero(callvalue))\n      dup2\n      dup3\n      revert\n    tag_15:\n      tag_16\n      calldatasize\n      tag_17\n      jump\t// in\n    tag_16:\n        /* \"contracts/fountain.sol\":2229:5540  function deposit(... */\n      tag_18\n      dup2\n      dup4\n      dup6\n      dup8\n      dup10\n      dup12\n      dup14\n      dup16\n      tag_19\n      jump\t// in\n    tag_18:\n      pop\n      pop\n      pop\n      pop\n      pop\n      pop\n      pop\n      pop\n        /* \"contracts/fountain.sol\":531:8297  contract Serenity is Ownable, Pausable, ReentrancyGuard {... */\n      dup2\n      dup4\n      mload\n      return\n    tag_4:\n      jumpi(tag_20, iszero(callvalue))\n      dup2\n      dup3\n      revert\n    tag_20:\n      tag_21\n      calldatasize\n      tag_22\n      jump\t// in\n    tag_21:\n      dup3\n      mload\n        /* \"contracts/fountain.sol\":768:796  IWETH public immutable WETH9 */\n      immutable(\"0x34098433846a9bd0a86140a033abb24fa6dec3400ab42534fa886dfeed6a6087\")\n      sub(exp(0x02, 0xa0), 0x01)\n        /* \"contracts/fountain.sol\":531:8297  contract Serenity is Ownable, Pausable, ReentrancyGuard {... */\n      and\n      dup2\n      mstore\n      0x20\n      dup2\n      return\n    tag_23:\n      sub\n      dup2\n      return\n    tag_5:\n      jumpi(tag_25, iszero(callvalue))\n      dup2\n      dup3\n      revert\n    tag_25:\n      tag_26\n      calldatasize\n      tag_22\n      jump\t// in\n    tag_26:\n      0xff\n      0x010000000000000000000000000000000000000000\n      dup4\n      sload\n      div\n      and\n      dup4\n      mload\n      dup1\n      tag_23\n      dup4\n      dup4\n      swap1\n      iszero\n      iszero\n      dup2\n      mstore\n      0x20\n      add\n      swap1\n      jump\n    tag_6:\n      jumpi(tag_29, iszero(callvalue))\n      dup2\n      dup3\n      revert\n    tag_29:\n      tag_30\n      calldatasize\n      tag_22\n      jump\t// in\n    tag_30:\n        /* \"@openzeppelin/contracts/access/Ownable.sol\":1831:1932  function renounceOwnership() public virtual onlyOwner {... */\n      tag_31\n      tag_32\n      jump\t// in\n    tag_31:\n        /* \"contracts/fountain.sol\":531:8297  contract Serenity is Ownable, Pausable, ReentrancyGuard {... */\n      dup2\n      dup4\n      mload\n      return\n    tag_7:\n      jumpi(tag_33, iszero(callvalue))\n      dup2\n      dup3\n      revert\n    tag_33:\n      tag_34\n      calldatasize\n      tag_22\n      jump\t// in\n    tag_34:\n        /* \"@openzeppelin/contracts/security/ReentrancyGuard.sol\":1701:1702  1 */\n      tag_35\n      tag_36\n      jump\t// in\n    tag_35:\n        /* \"contracts/fountain.sol\":531:8297  contract Serenity is Ownable, Pausable, ReentrancyGuard {... */\n      dup4\n      mload\n      dup1\n      tag_23\n      dup4\n      dup4\n      tag_38\n      jump\t// in\n    tag_8:\n      jumpi(tag_39, iszero(callvalue))\n      dup2\n      dup3\n      revert\n    tag_39:\n      tag_40\n      calldatasize\n      tag_41\n      jump\t// in\n    tag_40:\n        /* \"contracts/fountain.sol\":5752:7651  function finalize(... */\n      tag_42\n      dup2\n      dup4\n      dup6\n      tag_43\n      jump\t// in\n    tag_42:\n      pop\n      pop\n      pop\n        /* \"contracts/fountain.sol\":531:8297  contract Serenity is Ownable, Pausable, ReentrancyGuard {... */\n      dup2\n      dup4\n      mload\n      return\n    tag_9:\n      jumpi(tag_44, iszero(callvalue))\n      dup2\n      dup3\n      revert\n    tag_44:\n      tag_45\n      calldatasize\n      tag_46\n      jump\t// in\n    tag_45:\n      tag_47\n      dup2\n      dup4\n      tag_48\n      jump\t// in\n    tag_47:\n      pop\n      pop\n      dup2\n      dup4\n      mload\n      return\n    tag_10:\n      jumpi(tag_49, iszero(callvalue))\n      dup2\n      dup3\n      revert\n    tag_49:\n      tag_50\n      calldatasize\n      tag_22\n      jump\t// in\n    tag_50:\n      dup3\n      mload\n        /* \"contracts/fountain.sol\":923:951  IERC20 public immutable USDC */\n      immutable(\"0x3e53e6caa3d9267e13a0317305a21727fdeb46c2d5adc9160409eaa6e5fb3b60\")\n      sub(exp(0x02, 0xa0), 0x01)\n        /* \"contracts/fountain.sol\":531:8297  contract Serenity is Ownable, Pausable, ReentrancyGuard {... */\n      and\n      dup2\n      mstore\n      0x20\n      dup2\n      return\n    tag_11:\n      jumpi(tag_52, iszero(callvalue))\n      dup2\n      dup3\n      revert\n    tag_52:\n      tag_53\n      calldatasize\n      tag_22\n      jump\t// in\n    tag_53:\n      dup2\n      sload\n      dup4\n      mload\n      sub(exp(0x02, 0xa0), 0x01)\n      swap1\n      swap2\n      and\n      dup1\n      dup3\n      mstore\n      swap1\n      0x20\n      dup2\n      return\n    tag_12:\n      jumpi(tag_55, iszero(callvalue))\n      dup2\n      dup3\n      revert\n    tag_55:\n      tag_56\n      calldatasize\n      tag_22\n      jump\t// in\n    tag_56:\n      dup3\n      mload\n        /* \"contracts/fountain.sol\":1148:1187  ISwapRouter public immutable swapRouter */\n      immutable(\"0xa89dab98646eeeb3665d545d51c6146ef2fb7643427936d0df6806075707fbb6\")\n      sub(exp(0x02, 0xa0), 0x01)\n        /* \"contracts/fountain.sol\":531:8297  contract Serenity is Ownable, Pausable, ReentrancyGuard {... */\n      and\n      dup2\n      mstore\n      0x20\n      dup2\n      return\n    tag_13:\n      jumpi(tag_58, iszero(callvalue))\n      dup2\n      dup3\n      revert\n    tag_58:\n        /* \"@openzeppelin/contracts/access/Ownable.sol\":2081:2279  function transferOwnership(address newOwner) public virtual onlyOwner {... */\n      tag_31\n        /* \"contracts/fountain.sol\":531:8297  contract Serenity is Ownable, Pausable, ReentrancyGuard {... */\n      tag_60\n      calldatasize\n      tag_61\n      jump\t// in\n    tag_60:\n        /* \"@openzeppelin/contracts/access/Ownable.sol\":2081:2279  function transferOwnership(address newOwner) public virtual onlyOwner {... */\n      tag_62\n      jump\t// in\n        /* \"contracts/fountain.sol\":531:8297  contract Serenity is Ownable, Pausable, ReentrancyGuard {... */\n    tag_14:\n      jumpi(tag_63, iszero(callvalue))\n      dup2\n      dup3\n      revert\n    tag_63:\n      tag_64\n      tag_65\n      calldatasize\n      tag_61\n      jump\t// in\n    tag_65:\n      sub(exp(0x02, 0xa0), 0x01)\n      and\n      0x00\n      swap1\n      dup2\n      mstore\n        /* \"contracts/fountain.sol\":8274:8282  balances */\n      0x03\n        /* \"contracts/fountain.sol\":531:8297  contract Serenity is Ownable, Pausable, ReentrancyGuard {... */\n      0x20\n      mstore\n      0x40\n      swap1\n      keccak256\n      sload\n      swap1\n        /* \"contracts/fountain.sol\":8172:8295  function getBalance(address user) public view returns (uint256 userBalance_) {... */\n      jump\n        /* \"contracts/fountain.sol\":531:8297  contract Serenity is Ownable, Pausable, ReentrancyGuard {... */\n    tag_64:\n      dup4\n      mload\n      dup2\n      dup2\n      mstore\n      0x20\n      dup2\n      return\n    tag_2:\n      pop\n      pop\n    tag_1:\n      pop\n      0x00\n      dup1\n      revert\n    tag_70:\n      calldataload(0x04)\n      sub(exp(0x02, 0xa0), 0x01)\n      dup2\n      and\n      dup2\n      eq\n      tag_72\n      jumpi\n      0x00\n      dup1\n      revert\n    tag_72:\n      swap1\n      jump\t// out\n    tag_73:\n      0x00\n      dup3\n      0x1f\n      dup4\n      add\n      slt\n      tag_75\n      jumpi\n      0x00\n      dup1\n      revert\n    tag_75:\n      dup2\n      calldataload\n      tag_76\n      dup2\n      tag_77\n      jump\t// in\n    tag_76:\n      mload(0x40)\n      tag_78\n      dup3\n      dup3\n      tag_79\n      jump\t// in\n    tag_78:\n      dup3\n      dup2\n      mstore\n      0x20\n      dup1\n      dup3\n      add\n      swap3\n      pop\n      dup6\n      dup2\n      add\n      dup2\n      dup6\n      mul\n      dup8\n      add\n      dup3\n      add\n      dup9\n      lt\n      iszero\n      tag_80\n      jumpi\n      0x00\n      dup1\n      revert\n    tag_80:\n      0x00\n    tag_81:\n      dup6\n      dup2\n      lt\n      iszero\n      tag_83\n      jumpi\n      dup2\n      calldataload\n      dup6\n      mstore\n      swap4\n      dup3\n      add\n      swap4\n      swap1\n      dup3\n      add\n      swap1\n      0x01\n      add\n      jump(tag_81)\n    tag_83:\n      pop\n      swap2\n      swap8\n      swap7\n      pop\n      pop\n      pop\n      pop\n      pop\n      pop\n      pop\n      jump\t// out\n    tag_84:\n      0x00\n      dup3\n      0x1f\n      dup4\n      add\n      slt\n      tag_86\n      jumpi\n      0x00\n      dup1\n      revert\n    tag_86:\n      dup2\n      calldataload\n      tag_87\n      dup2\n      tag_88\n      jump\t// in\n    tag_87:\n      mload(0x40)\n      tag_89\n      dup3\n      dup3\n      tag_79\n      jump\t// in\n    tag_89:\n      dup3\n      dup2\n      mstore\n      dup6\n      0x20\n      dup5\n      dup8\n      add\n      add\n      gt\n      iszero\n      tag_90\n      jumpi\n      0x00\n      dup1\n      revert\n    tag_90:\n        /* \"@openzeppelin/contracts/security/ReentrancyGuard.sol\":1701:1702  1 */\n      dup3\n        /* \"contracts/fountain.sol\":531:8297  contract Serenity is Ownable, Pausable, ReentrancyGuard {... */\n      0x20\n      dup7\n      add\n      0x20\n      dup4\n      add\n        /* \"@openzeppelin/contracts/security/ReentrancyGuard.sol\":1701:1702  1 */\n      calldatacopy\n      0x00\n      swap3\n      dup2\n      add\n        /* \"contracts/fountain.sol\":531:8297  contract Serenity is Ownable, Pausable, ReentrancyGuard {... */\n      0x20\n        /* \"@openzeppelin/contracts/security/ReentrancyGuard.sol\":1701:1702  1 */\n      add\n      swap3\n      swap1\n      swap3\n      mstore\n      pop\n        /* \"contracts/fountain.sol\":531:8297  contract Serenity is Ownable, Pausable, ReentrancyGuard {... */\n      swap4\n      swap3\n      pop\n      pop\n      pop\n      jump\t// out\n    tag_22:\n      0x00\n      not(0x03)\n      dup3\n      add\n      slt\n      iszero\n      tag_92\n      jumpi\n      0x00\n      dup1\n      revert\n    tag_92:\n      pop\n      jump\t// out\n    tag_93:\n      0x00\n      dup2\n      dup4\n      sub\n      slt\n      iszero\n      tag_95\n      jumpi\n      0x00\n      dup1\n      revert\n    tag_95:\n      pop\n      pop\n      jump\t// out\n    tag_61:\n      0x00\n      0x20\n      not(0x03)\n      dup4\n      add\n      slt\n      iszero\n      tag_97\n      jumpi\n      0x00\n      dup1\n      revert\n    tag_97:\n      calldataload(0x04)\n      sub(exp(0x02, 0xa0), 0x01)\n      dup2\n      and\n      dup2\n      eq\n      tag_98\n      jumpi\n      0x00\n      dup1\n      revert\n    tag_98:\n      swap3\n      swap2\n      pop\n      pop\n      jump\t// out\n    tag_17:\n      0x00\n      dup1\n      dup1\n      dup1\n      dup1\n      dup1\n      dup1\n      dup1\n      0x0100\n      not(0x03)\n      dup11\n      add\n      slt\n      iszero\n      tag_100\n      jumpi\n      0x00\n      dup1\n      revert\n    tag_100:\n      calldataload(0x04)\n      sub(exp(0x02, 0xa0), 0x01)\n      dup1\n      dup3\n      and\n      dup3\n      eq\n      tag_101\n      jumpi\n      0x00\n      dup1\n      revert\n    tag_101:\n      swap1\n      swap9\n      pop\n      calldataload(0x24)\n      swap1\n      dup1\n      dup3\n      and\n      dup3\n      eq\n      tag_102\n      jumpi\n      0x00\n      dup1\n      revert\n    tag_102:\n      pop\n      swap7\n      pop\n      calldataload(0x44)\n      swap6\n      pop\n      calldataload(0x64)\n      swap5\n      pop\n      calldataload(0x84)\n      swap4\n      pop\n      calldataload(0xa4)\n      0xffffff\n      dup1\n      dup3\n      and\n      dup3\n      eq\n      tag_103\n      jumpi\n      0x00\n      dup1\n      revert\n    tag_103:\n      swap1\n      swap4\n      pop\n      calldataload(0xc4)\n      swap1\n      dup1\n      dup3\n      and\n      dup3\n      eq\n      tag_104\n      jumpi\n      0x00\n      dup1\n      revert\n    tag_104:\n      pop\n      dup1\n      swap3\n      pop\n      pop\n      calldataload(0xe4)\n      swap1\n      pop\n      swap2\n      swap4\n      swap6\n      swap8\n      pop\n      swap2\n      swap4\n      swap6\n      swap8\n      jump\t// out\n    tag_41:\n      0x00\n      dup1\n      dup1\n      0x60\n      not(0x03)\n      dup6\n      add\n      slt\n      iszero\n      tag_106\n      jumpi\n      0x00\n      dup1\n      revert\n    tag_106:\n      tag_107\n      tag_70\n      jump\t// in\n    tag_107:\n      swap3\n      pop\n      0x24\n      dup1\n      calldataload\n      0xffffffffffffffff\n      dup1\n      dup3\n      gt\n      iszero\n      tag_108\n      jumpi\n      0x00\n      dup1\n      revert\n    tag_108:\n      dup7\n      0x23\n      dup4\n      add\n      slt\n      tag_109\n      jumpi\n      0x00\n      dup1\n      revert\n    tag_109:\n      dup2\n      0x04\n      add\n      calldataload\n      tag_110\n      dup2\n      tag_77\n      jump\t// in\n    tag_110:\n      mload(0x40)\n      tag_111\n      dup3\n      dup3\n      tag_79\n      jump\t// in\n    tag_111:\n      dup3\n      dup2\n      mstore\n      0x20\n      dup1\n      dup3\n      add\n      swap3\n      pop\n      dup6\n      dup8\n      add\n      dup2\n      dup6\n      mul\n      dup8\n      add\n      dup9\n      add\n      dup13\n      lt\n      iszero\n      tag_112\n      jumpi\n      0x00\n      dup1\n      revert\n    tag_112:\n      0x00\n    tag_113:\n      dup6\n      dup2\n      lt\n      iszero\n      tag_115\n      jumpi\n      dup2\n      calldataload\n      dup8\n      dup2\n      gt\n      iszero\n      tag_116\n      jumpi\n      0x00\n      dup1\n      revert\n    tag_116:\n      tag_117\n      dup15\n      dup12\n      dup4\n      dup13\n      add\n      add\n      tag_84\n      jump\t// in\n    tag_117:\n      dup7\n      mstore\n      pop\n      swap4\n      dup3\n      add\n      swap4\n      swap1\n      dup3\n      add\n      swap1\n      0x01\n      add\n      jump(tag_113)\n    tag_115:\n      pop\n      swap2\n      swap9\n      pop\n      pop\n      calldataload(0x44)\n      swap6\n      pop\n      pop\n      pop\n      pop\n      dup1\n      dup4\n      gt\n      iszero\n      tag_118\n      jumpi\n      0x00\n      dup1\n      revert\n    tag_118:\n      pop\n      pop\n      tag_119\n      dup6\n      dup3\n      0x04\n      add\n      tag_73\n      jump\t// in\n    tag_119:\n      swap4\n      swap6\n      swap3\n      swap5\n      pop\n      pop\n      pop\n      jump\t// out\n    tag_120:\n      0x00\n      0x20\n      dup3\n      dup5\n      sub\n      slt\n      iszero\n      tag_122\n      jumpi\n      0x00\n      dup1\n      revert\n    tag_122:\n      dup2\n      mload\n      dup1\n      iszero\n      iszero\n      dup2\n      eq\n      tag_123\n      jumpi\n      0x00\n      dup1\n      revert\n    tag_123:\n      swap4\n      swap3\n      pop\n      pop\n      pop\n      jump\t// out\n    tag_46:\n      0x00\n      dup1\n      0x40\n      not(0x03)\n      dup5\n      add\n      slt\n      iszero\n      tag_125\n      jumpi\n      0x00\n      dup1\n      revert\n    tag_125:\n      calldataload(0x04)\n      0xffffffffffffffff\n      dup2\n      gt\n      iszero\n      tag_126\n      jumpi\n      0x00\n      dup1\n      revert\n    tag_126:\n      tag_127\n      dup5\n      dup3\n      0x04\n      add\n      tag_84\n      jump\t// in\n    tag_127:\n      swap3\n      pop\n      pop\n      calldataload(0x24)\n      sub(exp(0x02, 0xa0), 0x01)\n      dup2\n      and\n      dup2\n      eq\n      tag_128\n      jumpi\n      0x00\n      dup1\n      revert\n    tag_128:\n      swap2\n      swap4\n      swap2\n      swap3\n      pop\n      pop\n      jump\t// out\n    tag_129:\n      0x00\n      0x20\n      dup3\n      dup5\n      sub\n      slt\n      iszero\n      tag_131\n      jumpi\n      0x00\n      dup1\n      revert\n    tag_131:\n      pop\n      mload\n      swap2\n      swap1\n      pop\n      jump\t// out\n    tag_38:\n      0x00\n      0x20\n      dup1\n      dup4\n      add\n      dup2\n      dup5\n      mstore\n      dup1\n      dup6\n      mload\n      dup1\n      dup4\n      mstore\n      0x40\n      dup7\n      add\n      swap2\n      pop\n      0x40\n      dup5\n      dup3\n      mul\n      dup8\n      add\n      add\n      swap3\n      pop\n      dup4\n      dup8\n      add\n      0x00\n    tag_136:\n      dup3\n      dup2\n      lt\n      iszero\n      tag_138\n      jumpi\n      dup8\n      dup6\n      sub\n      not(0x3f)\n      add\n      dup5\n      mstore\n      dup2\n      mload\n      dup1\n      mload\n      dup1\n      dup8\n      mstore\n      tag_139\n      dup2\n      dup10\n      dup10\n      add\n      dup11\n      dup6\n      add\n      tag_140\n      jump\t// in\n    tag_139:\n      0x1f\n      add\n      not(0x1f)\n      and\n      swap6\n      swap1\n      swap6\n      add\n      dup7\n      add\n      swap5\n      pop\n      swap3\n      dup6\n      add\n      swap3\n      swap1\n      dup6\n      add\n      swap1\n      0x01\n      add\n      jump(tag_136)\n    tag_138:\n      pop\n      swap3\n      swap8\n      swap7\n      pop\n      pop\n      pop\n      pop\n      pop\n      pop\n      pop\n      jump\t// out\n    tag_142:\n      0x00\n      0x0100\n      dup3\n      add\n      swap1\n      pop\n      sub(exp(0x02, 0xa0), 0x01)\n      dup1\n      dup5\n      mload\n      and\n      dup4\n      mstore\n      dup1\n      0x20\n      dup6\n      add\n      mload\n      and\n      0x20\n      dup5\n      add\n      mstore\n      0xffffff\n      0x40\n      dup6\n      add\n      mload\n      and\n      0x40\n      dup5\n      add\n      mstore\n      dup1\n      0x60\n      dup6\n      add\n      mload\n      and\n      0x60\n      dup5\n      add\n      mstore\n      0x80\n      dup5\n      add\n      mload\n      0x80\n      dup5\n      add\n      mstore\n      0xa0\n      dup5\n      add\n      mload\n      0xa0\n      dup5\n      add\n      mstore\n      0xc0\n      dup5\n      add\n      mload\n      0xc0\n      dup5\n      add\n      mstore\n      dup1\n      0xe0\n      dup6\n      add\n      mload\n      and\n      0xe0\n      dup5\n      add\n      mstore\n      pop\n      swap3\n      swap2\n      pop\n      pop\n      jump\t// out\n    tag_147:\n      mload(0x40)\n      0x0100\n        /* \"@openzeppelin/contracts/security/ReentrancyGuard.sol\":1701:1702  1 */\n      dup2\n      add\n      0xffffffffffffffff\n      dup2\n      gt\n      dup3\n      dup3\n      lt\n      or\n      iszero\n      tag_150\n      jumpi\n      tag_150\n      tag_151\n      jump\t// in\n    tag_150:\n        /* \"contracts/fountain.sol\":531:8297  contract Serenity is Ownable, Pausable, ReentrancyGuard {... */\n      0x40\n        /* \"@openzeppelin/contracts/security/ReentrancyGuard.sol\":1701:1702  1 */\n      mstore\n        /* \"contracts/fountain.sol\":531:8297  contract Serenity is Ownable, Pausable, ReentrancyGuard {... */\n      swap1\n      jump\t// out\n    tag_77:\n      0x00\n      0xffffffffffffffff\n      dup3\n      gt\n      iszero\n      tag_154\n      jumpi\n      tag_154\n      tag_151\n      jump\t// in\n    tag_154:\n      pop\n      0x20\n      swap1\n      dup2\n      mul\n      add\n      swap1\n      jump\t// out\n    tag_88:\n      0x00\n      0xffffffffffffffff\n      dup3\n      gt\n      iszero\n      tag_157\n      jumpi\n      tag_157\n      tag_151\n      jump\t// in\n    tag_157:\n      pop\n      0x1f\n      add\n      not(0x1f)\n      and\n      0x20\n      add\n      swap1\n      jump\t// out\n    tag_158:\n      0x00\n      dup3\n      not\n      dup3\n      gt\n      iszero\n      tag_161\n      jumpi\n      tag_161\n      tag_162\n      jump\t// in\n    tag_161:\n      pop\n      add\n      swap1\n      jump\t// out\n    tag_163:\n      0x00\n      dup3\n      tag_165\n      jumpi\n      mstore(0x00, mul(0x4e487b71, exp(0x02, 0xe0)))\n      mstore(0x04, 0x12)\n      revert(0x00, 0x24)\n    tag_165:\n      pop\n      div\n      swap1\n      jump\t// out\n    tag_166:\n      0x00\n      dup2\n      not(0x00)\n      div\n      dup4\n      gt\n      dup3\n      iszero\n      iszero\n      and\n      iszero\n      tag_169\n      jumpi\n      tag_169\n      tag_162\n      jump\t// in\n    tag_169:\n      pop\n      mul\n      swap1\n      jump\t// out\n    tag_170:\n      0x00\n        /* \"@openzeppelin/contracts/security/ReentrancyGuard.sol\":2325:2332  _status */\n      0x01\n        /* \"contracts/fountain.sol\":531:8297  contract Serenity is Ownable, Pausable, ReentrancyGuard {... */\n      dup3\n      lt\n      iszero\n      tag_173\n      jumpi\n      tag_173\n      tag_162\n      jump\t// in\n    tag_173:\n      pop\n      not(0x00)\n      add\n      swap1\n      jump\t// out\n    tag_174:\n      0x00\n      dup3\n      dup3\n      lt\n      iszero\n      tag_177\n      jumpi\n      tag_177\n      tag_162\n      jump\t// in\n    tag_177:\n      pop\n      sub\n      swap1\n      jump\t// out\n        /* \"@openzeppelin/contracts/security/ReentrancyGuard.sol\":1701:1702  1 */\n    tag_36:\n      0x00\n        /* \"contracts/fountain.sol\":8145:8157  charityNames */\n      0x06\n        /* \"contracts/fountain.sol\":531:8297  contract Serenity is Ownable, Pausable, ReentrancyGuard {... */\n      sload\n      tag_181\n      dup2\n      tag_77\n      jump\t// in\n    tag_181:\n      0x40\n      dup1\n      mload\n      tag_182\n      dup4\n      dup3\n      tag_79\n      jump\t// in\n    tag_182:\n      dup4\n      dup2\n      mstore\n        /* \"contracts/fountain.sol\":8145:8157  charityNames */\n      0x06\n      0x00\n        /* \"contracts/fountain.sol\":531:8297  contract Serenity is Ownable, Pausable, ReentrancyGuard {... */\n      swap1\n      dup2\n      mstore\n      swap1\n      swap5\n      pop\n        /* \"@openzeppelin/contracts/security/ReentrancyGuard.sol\":1701:1702  1 */\n      0x20\n      dup1\n      dup7\n      add\n      swap4\n      pop\n        /* \"contracts/fountain.sol\":531:8297  contract Serenity is Ownable, Pausable, ReentrancyGuard {... */\n      0xf652222313e28459528d920b65115c16c04f3efc82aaedc97be59f3f377c0d3f\n      dup3\n        /* \"@openzeppelin/contracts/security/ReentrancyGuard.sol\":1701:1702  1 */\n    tag_183:\n      dup7\n      dup2\n      lt\n      iszero\n      tag_185\n      jumpi\n        /* \"contracts/fountain.sol\":531:8297  contract Serenity is Ownable, Pausable, ReentrancyGuard {... */\n      dup5\n      mload\n      dup5\n      dup4\n      sload\n      tag_186\n      dup2\n      tag_187\n      jump\t// in\n    tag_186:\n      dup1\n      dup5\n      mstore\n        /* \"@openzeppelin/contracts/security/ReentrancyGuard.sol\":1701:1702  1 */\n      0x01\n        /* \"contracts/fountain.sol\":531:8297  contract Serenity is Ownable, Pausable, ReentrancyGuard {... */\n      dup3\n      dup2\n      and\n        /* \"@openzeppelin/contracts/security/ReentrancyGuard.sol\":1701:1702  1 */\n      dup1\n      iszero\n      tag_189\n      jumpi\n        /* \"contracts/fountain.sol\":531:8297  contract Serenity is Ownable, Pausable, ReentrancyGuard {... */\n      0x01\n      dup2\n      eq\n      tag_190\n      jumpi\n      jump(tag_188)\n        /* \"@openzeppelin/contracts/security/ReentrancyGuard.sol\":1701:1702  1 */\n    tag_189:\n      not(0xff)\n        /* \"contracts/fountain.sol\":531:8297  contract Serenity is Ownable, Pausable, ReentrancyGuard {... */\n      dup5\n      and\n      dup7\n      dup11\n      add\n      mstore\n      dup11\n      dup7\n      add\n      swap5\n      pop\n        /* \"@openzeppelin/contracts/security/ReentrancyGuard.sol\":1701:1702  1 */\n      jump(tag_188)\n        /* \"contracts/fountain.sol\":531:8297  contract Serenity is Ownable, Pausable, ReentrancyGuard {... */\n    tag_190:\n      dup8\n      dup11\n      mstore\n        /* \"@openzeppelin/contracts/security/ReentrancyGuard.sol\":1701:1702  1 */\n      dup9\n      dup11\n        /* \"contracts/fountain.sol\":531:8297  contract Serenity is Ownable, Pausable, ReentrancyGuard {... */\n      keccak256\n      dup11\n    tag_191:\n      dup5\n      dup2\n      lt\n      iszero\n      tag_193\n      jumpi\n      dup2\n      sload\n      dup9\n      dup3\n      add\n      dup13\n      add\n      mstore\n      swap1\n      dup4\n      add\n      swap1\n      dup11\n      add\n      jump(tag_191)\n    tag_193:\n      dup8\n      add\n      dup11\n      add\n      swap6\n      pop\n      pop\n    tag_188:\n      pop\n        /* \"@openzeppelin/contracts/security/ReentrancyGuard.sol\":1701:1702  1 */\n      tag_194\n      dup6\n        /* \"contracts/fountain.sol\":531:8297  contract Serenity is Ownable, Pausable, ReentrancyGuard {... */\n      dup6\n        /* \"@openzeppelin/contracts/security/ReentrancyGuard.sol\":1701:1702  1 */\n      sub\n      dup7\n      tag_79\n      jump\t// in\n    tag_194:\n      swap4\n      dup11\n      mstore\n      pop\n      pop\n      pop\n      swap6\n      dup4\n      add\n      swap6\n      swap2\n      swap1\n      swap2\n      add\n      swap1\n      0x01\n      add\n      jump(tag_183)\n    tag_185:\n      pop\n      pop\n      pop\n      pop\n      pop\n      pop\n      pop\n      swap1\n      jump\t// out\n    tag_140:\n      0x00\n    tag_196:\n      dup4\n      dup2\n      lt\n      iszero\n      tag_198\n      jumpi\n      dup2\n      dup2\n      add\n      mload\n      dup4\n      dup3\n      add\n      mstore\n      0x20\n      add\n      jump(tag_196)\n    tag_198:\n      dup4\n      dup2\n      gt\n      iszero\n      tag_199\n      jumpi\n      0x00\n      dup5\n      dup5\n      add\n      mstore\n    tag_199:\n      pop\n      pop\n      pop\n      pop\n      jump\t// out\n    tag_187:\n      0x02\n      dup2\n      div\n      0x01\n      dup3\n      and\n      dup1\n      tag_201\n      jumpi\n      0x7f\n      dup3\n      and\n      swap2\n      pop\n    tag_201:\n      0x20\n      dup3\n      lt\n      dup2\n      eq\n      iszero\n      tag_202\n      jumpi\n      mul(0x4e487b71, exp(0x02, 0xe0))\n        /* \"contracts/fountain.sol\":531:8297  contract Serenity is Ownable, Pausable, ReentrancyGuard {... */\n      0x00\n      mstore\n      mstore(0x04, 0x22)\n      revert(0x00, 0x24)\n        /* \"@openzeppelin/contracts/security/ReentrancyGuard.sol\":1701:1702  1 */\n    tag_202:\n      pop\n      swap2\n      swap1\n      pop\n      jump\t// out\n    tag_203:\n      0x00\n      returndatasize\n      dup1\n      iszero\n      tag_206\n      jumpi\n      returndatasize\n        /* \"contracts/fountain.sol\":531:8297  contract Serenity is Ownable, Pausable, ReentrancyGuard {... */\n      tag_207\n      dup2\n      tag_88\n      jump\t// in\n    tag_207:\n      mload(0x40)\n      tag_208\n      dup3\n      dup3\n      tag_79\n      jump\t// in\n    tag_208:\n      dup3\n      dup2\n      mstore\n        /* \"@openzeppelin/contracts/security/ReentrancyGuard.sol\":1701:1702  1 */\n      dup1\n      swap5\n      pop\n      returndatasize\n      0x00\n      0x20\n      dup4\n      add\n      returndatacopy\n      pop\n      pop\n      pop\n      pop\n      swap1\n      jump\t// out\n    tag_206:\n        /* \"contracts/fountain.sol\":531:8297  contract Serenity is Ownable, Pausable, ReentrancyGuard {... */\n      0x60\n        /* \"@openzeppelin/contracts/security/ReentrancyGuard.sol\":1701:1702  1 */\n      swap2\n      pop\n      pop\n      swap1\n      jump\t// out\n    tag_209:\n        /* \"contracts/fountain.sol\":531:8297  contract Serenity is Ownable, Pausable, ReentrancyGuard {... */\n      0xa0\n        /* \"@openzeppelin/contracts/security/ReentrancyGuard.sol\":1701:1702  1 */\n      dup2\n      add\n      dup2\n      dup2\n      lt\n      0xffffffffffffffff\n      dup3\n      gt\n      or\n      iszero\n      tag_212\n      jumpi\n      tag_212\n      tag_151\n      jump\t// in\n    tag_212:\n      0x40\n      mstore\n      pop\n      jump\t// out\n    tag_79:\n        /* \"contracts/fountain.sol\":531:8297  contract Serenity is Ownable, Pausable, ReentrancyGuard {... */\n      0x1f\n      dup3\n      add\n      not(0x1f)\n      and\n        /* \"@openzeppelin/contracts/security/ReentrancyGuard.sol\":1701:1702  1 */\n      dup2\n      add\n      0xffffffffffffffff\n      dup2\n      gt\n      dup3\n      dup3\n      lt\n      or\n      iszero\n      tag_215\n      jumpi\n      tag_215\n      tag_151\n      jump\t// in\n    tag_215:\n      0x40\n      mstore\n      pop\n      pop\n      jump\t// out\n        /* \"@openzeppelin/contracts/utils/structs/EnumerableSet.sol\":2113:2517  function _add(Set storage set, bytes32 value) private returns (bool) {... */\n    tag_216:\n      0x00\n      dup1\n        /* \"contracts/fountain.sol\":531:8297  contract Serenity is Ownable, Pausable, ReentrancyGuard {... */\n      dup3\n      dup2\n      mstore\n        /* \"@openzeppelin/contracts/utils/structs/EnumerableSet.sol\":4250:4262  set._indexes */\n      0x08\n        /* \"contracts/fountain.sol\":531:8297  contract Serenity is Ownable, Pausable, ReentrancyGuard {... */\n      0x20\n      mstore\n      0x40\n      dup2\n      keccak256\n      sload\n        /* \"@openzeppelin/contracts/utils/structs/EnumerableSet.sol\":4250:4274  set._indexes[value] != 0 */\n      iszero\n        /* \"@openzeppelin/contracts/utils/structs/EnumerableSet.sol\":2192:2511  if (!_contains(set, value)) {... */\n      0x00\n        /* \"contracts/fountain.sol\":531:8297  contract Serenity is Ownable, Pausable, ReentrancyGuard {... */\n      dup2\n      eq\n      tag_219\n      jumpi\n        /* \"contracts/fountain.sol\":8001:8017  charityAddresses */\n      0x07\n        /* \"contracts/fountain.sol\":531:8297  contract Serenity is Ownable, Pausable, ReentrancyGuard {... */\n      sload\n      0x010000000000000000\n      dup2\n      lt\n      tag_221\n      jumpi\n      tag_221\n      tag_151\n      jump\t// in\n    tag_221:\n        /* \"@openzeppelin/contracts/utils/structs/EnumerableSet.sol\":4250:4262  set._indexes */\n      0x01\n        /* \"contracts/fountain.sol\":531:8297  contract Serenity is Ownable, Pausable, ReentrancyGuard {... */\n      dup2\n      add\n      dup1\n        /* \"contracts/fountain.sol\":8001:8017  charityAddresses */\n      0x07\n        /* \"contracts/fountain.sol\":531:8297  contract Serenity is Ownable, Pausable, ReentrancyGuard {... */\n      sstore\n      dup1\n      dup3\n      lt\n      tag_223\n      jumpi\n      tag_223\n      tag_224\n      jump\t// in\n    tag_223:\n      pop\n      0xa66cc928b5edb82af9bd49922954155ab7b0942694bea4ce44661d9a8736c688\n      add\n      dup5\n      swap1\n      sstore\n      pop\n        /* \"contracts/fountain.sol\":8001:8017  charityAddresses */\n      0x07\n        /* \"contracts/fountain.sol\":531:8297  contract Serenity is Ownable, Pausable, ReentrancyGuard {... */\n      sload\n      swap3\n      dup2\n      mstore\n        /* \"@openzeppelin/contracts/utils/structs/EnumerableSet.sol\":4250:4262  set._indexes */\n      0x08\n        /* \"contracts/fountain.sol\":531:8297  contract Serenity is Ownable, Pausable, ReentrancyGuard {... */\n      0x20\n      mstore\n      0x40\n      swap1\n      keccak256\n      swap2\n      swap1\n      swap2\n      sstore\n      pop\n        /* \"@openzeppelin/contracts/utils/structs/EnumerableSet.sol\":4250:4262  set._indexes */\n      0x01\n      swap1\n        /* \"@openzeppelin/contracts/utils/structs/EnumerableSet.sol\":2113:2517  function _add(Set storage set, bytes32 value) private returns (bool) {... */\n      jump\t// out\n        /* \"contracts/fountain.sol\":531:8297  contract Serenity is Ownable, Pausable, ReentrancyGuard {... */\n    tag_219:\n      pop\n      swap3\n        /* \"@openzeppelin/contracts/utils/structs/EnumerableSet.sol\":2113:2517  function _add(Set storage set, bytes32 value) private returns (bool) {... */\n      swap2\n      pop\n      pop\n      jump\t// out\n        /* \"@openzeppelin/contracts/access/Ownable.sol\":1359:1489  function _checkOwner() internal view virtual {... */\n    tag_225:\n      sub(exp(0x02, 0xa0), 0x01)\n        /* \"@openzeppelin/contracts/access/Ownable.sol\":1273:1279  _owner */\n      0x00\n        /* \"contracts/fountain.sol\":531:8297  contract Serenity is Ownable, Pausable, ReentrancyGuard {... */\n      sload\n      and\n        /* \"@openzeppelin/contracts/utils/Context.sol\":719:729  msg.sender */\n      caller\n        /* \"contracts/fountain.sol\":531:8297  contract Serenity is Ownable, Pausable, ReentrancyGuard {... */\n      dup2\n        /* \"@openzeppelin/contracts/access/Ownable.sol\":1422:1445  owner() == _msgSender() */\n      eq\n        /* \"contracts/fountain.sol\":531:8297  contract Serenity is Ownable, Pausable, ReentrancyGuard {... */\n      tag_92\n      jumpi\n      mload(0x40)\n      mul(0x461bcd, exp(0x02, 0xe5))\n      dup2\n      mstore\n      0x20\n      0x04\n      dup3\n      add\n      mstore\n      0x20\n      0x24\n      dup3\n      add\n      mstore\n      0x4f776e61626c653a2063616c6c6572206973206e6f7420746865206f776e6572\n      0x44\n      dup3\n      add\n      mstore\n      0x64\n      dup2\n      revert\n        /* \"@openzeppelin/contracts/security/Pausable.sol\":1767:1873  function _requireNotPaused() internal view virtual {... */\n    tag_228:\n        /* \"contracts/fountain.sol\":531:8297  contract Serenity is Ownable, Pausable, ReentrancyGuard {... */\n      0xff\n      0x010000000000000000000000000000000000000000\n        /* \"@openzeppelin/contracts/security/Pausable.sol\":1685:1692  _paused */\n      0x00\n        /* \"contracts/fountain.sol\":531:8297  contract Serenity is Ownable, Pausable, ReentrancyGuard {... */\n      sload\n      div\n      and\n        /* \"@openzeppelin/contracts/security/Pausable.sol\":1836:1845  !paused() */\n      iszero\n        /* \"contracts/fountain.sol\":531:8297  contract Serenity is Ownable, Pausable, ReentrancyGuard {... */\n      tag_230\n      jumpi\n      mload(0x40)\n      mul(0x461bcd, exp(0x02, 0xe5))\n      dup2\n      mstore\n      0x20\n      0x04\n      dup3\n      add\n      mstore\n      0x10\n      0x24\n      dup3\n      add\n      mstore\n      0x5061757361626c653a2070617573656400000000000000000000000000000000\n      0x44\n      dup3\n      add\n      mstore\n      0x64\n      dup2\n      revert\n    tag_230:\n        /* \"@openzeppelin/contracts/security/Pausable.sol\":1767:1873  function _requireNotPaused() internal view virtual {... */\n      jump\t// out\n        /* \"contracts/fountain.sol\":7657:8044  function registerCharity(string memory charityName, address charityAddress) public {... */\n    tag_48:\n      sub(exp(0x02, 0xa0), 0x01)\n        /* \"contracts/fountain.sol\":531:8297  contract Serenity is Ownable, Pausable, ReentrancyGuard {... */\n      dup1\n      tag_233\n        /* \"contracts/fountain.sol\":7758:7780  charities[charityName] */\n      dup4\n        /* \"contracts/fountain.sol\":531:8297  contract Serenity is Ownable, Pausable, ReentrancyGuard {... */\n      tag_234\n      jump\t// in\n    tag_233:\n      sload\n      and\n        /* \"contracts/fountain.sol\":7758:7796  charities[charityName] == address(0x0) */\n      iszero\n        /* \"contracts/fountain.sol\":531:8297  contract Serenity is Ownable, Pausable, ReentrancyGuard {... */\n      tag_235\n      jumpi\n      mload(0x40)\n      mul(0x461bcd, exp(0x02, 0xe5))\n      dup2\n      mstore\n      0x20\n        /* \"contracts/fountain.sol\":7758:7767  charities */\n      0x04\n        /* \"contracts/fountain.sol\":531:8297  contract Serenity is Ownable, Pausable, ReentrancyGuard {... */\n      dup3\n      add\n      mstore\n      0x20\n      0x24\n      dup3\n      add\n      mstore\n      0x43686172697479206e616d6520616c726561647920726567697374657265642e\n      0x44\n      dup3\n      add\n      mstore\n      0x64\n      dup2\n      revert\n    tag_235:\n      dup3\n      and\n      0x00\n      dup2\n      dup2\n      mstore\n        /* \"contracts/fountain.sol\":7857:7873  charitiesReverse */\n      0x05\n        /* \"contracts/fountain.sol\":531:8297  contract Serenity is Ownable, Pausable, ReentrancyGuard {... */\n      0x20\n      mstore\n      0x40\n      swap1\n      keccak256\n      sload\n      tag_236\n      swap1\n      tag_187\n      jump\t// in\n    tag_236:\n        /* \"contracts/fountain.sol\":7851:7902  bytes(charitiesReverse[charityAddress]).length == 0 */\n      iszero\n        /* \"contracts/fountain.sol\":531:8297  contract Serenity is Ownable, Pausable, ReentrancyGuard {... */\n      tag_237\n      jumpi\n      mload(0x40)\n      mul(0x461bcd, exp(0x02, 0xe5))\n      dup2\n      mstore\n      0x20\n      0x04\n      dup3\n      add\n      mstore\n      0x23\n      0x24\n      dup3\n      add\n      mstore\n      0x43686172697479206164647265737320616c7265616479207265676973746572\n      0x44\n      dup3\n      add\n      mstore\n      0x65642e0000000000000000000000000000000000000000000000000000000000\n      0x64\n      dup3\n      add\n      mstore\n      0x84\n      dup2\n      revert\n    tag_237:\n        /* \"contracts/fountain.sol\":7952:7991  charities[charityName] = charityAddress */\n      tag_238\n      dup4\n        /* \"contracts/fountain.sol\":531:8297  contract Serenity is Ownable, Pausable, ReentrancyGuard {... */\n      tag_239\n        /* \"contracts/fountain.sol\":7952:7974  charities[charityName] */\n      dup5\n        /* \"contracts/fountain.sol\":531:8297  contract Serenity is Ownable, Pausable, ReentrancyGuard {... */\n      tag_234\n      jump\t// in\n    tag_239:\n      sub(exp(0x02, 0xa0), 0x01)\n      dup3\n      and\n      not(sub(exp(0x02, 0xa0), 0x01))\n      dup3\n      sload\n      and\n      or\n      dup2\n      sstore\n      pop\n      pop\n      jump\n        /* \"contracts/fountain.sol\":7952:7991  charities[charityName] = charityAddress */\n    tag_238:\n        /* \"@openzeppelin/contracts/utils/structs/EnumerableSet.sol\":8121:8171  _add(set._inner, bytes32(uint256(uint160(value)))) */\n      tag_199\n        /* \"contracts/fountain.sol\":531:8297  contract Serenity is Ownable, Pausable, ReentrancyGuard {... */\n      dup2\n        /* \"@openzeppelin/contracts/utils/structs/EnumerableSet.sol\":8121:8171  _add(set._inner, bytes32(uint256(uint160(value)))) */\n      tag_216\n      jump\t// in\n        /* \"@uniswap/v3-periphery/contracts/libraries/TransferHelper.sol\":1873:2180  function safeApprove(... */\n    tag_242:\n        /* \"contracts/fountain.sol\":531:8297  contract Serenity is Ownable, Pausable, ReentrancyGuard {... */\n      mload(0x40)\n        /* \"@uniswap/v3-periphery/contracts/libraries/TransferHelper.sol\":2055:2078  IERC20.approve.selector */\n      0x095ea7b300000000000000000000000000000000000000000000000000000000\n        /* \"@uniswap/v3-periphery/contracts/libraries/TransferHelper.sol\":2032:2090  abi.encodeWithSelector(IERC20.approve.selector, to, value) */\n      0x20\n      dup3\n      add\n      swap1\n      dup2\n      mstore\n      sub(exp(0x02, 0xa0), 0x01)\n        /* \"contracts/fountain.sol\":531:8297  contract Serenity is Ownable, Pausable, ReentrancyGuard {... */\n      dup5\n      and\n        /* \"@uniswap/v3-periphery/contracts/libraries/TransferHelper.sol\":2032:2090  abi.encodeWithSelector(IERC20.approve.selector, to, value) */\n      0x24\n      dup4\n      add\n        /* \"contracts/fountain.sol\":531:8297  contract Serenity is Ownable, Pausable, ReentrancyGuard {... */\n      mstore\n      0x44\n      dup1\n      dup4\n      add\n      dup7\n      swap1\n      mstore\n        /* \"@uniswap/v3-periphery/contracts/libraries/TransferHelper.sol\":2032:2090  abi.encodeWithSelector(IERC20.approve.selector, to, value) */\n      dup3\n      mstore\n        /* \"contracts/fountain.sol\":531:8297  contract Serenity is Ownable, Pausable, ReentrancyGuard {... */\n      0x64\n        /* \"@uniswap/v3-periphery/contracts/libraries/TransferHelper.sol\":2032:2090  abi.encodeWithSelector(IERC20.approve.selector, to, value) */\n      tag_245\n        /* \"contracts/fountain.sol\":531:8297  contract Serenity is Ownable, Pausable, ReentrancyGuard {... */\n      dup2\n      dup5\n        /* \"@uniswap/v3-periphery/contracts/libraries/TransferHelper.sol\":2032:2090  abi.encodeWithSelector(IERC20.approve.selector, to, value) */\n      tag_79\n      jump\t// in\n    tag_245:\n      pop\n        /* \"@uniswap/v3-periphery/contracts/libraries/TransferHelper.sol\":2021:2091  token.call(abi.encodeWithSelector(IERC20.approve.selector, to, value)) */\n      0x00\n      dup1\n      dup4\n      mload\n      dup4\n      0x00\n      dup8\n      gas\n      call\n      swap2\n      pop\n      pop\n      tag_246\n      tag_203\n      jump\t// in\n    tag_246:\n        /* \"@uniswap/v3-periphery/contracts/libraries/TransferHelper.sol\":2109:2166  success && (data.length == 0 || abi.decode(data, (bool))) */\n      dup2\n      dup3\n      iszero\n      tag_247\n      jumpi\n        /* \"@uniswap/v3-periphery/contracts/libraries/TransferHelper.sol\":2121:2132  data.length */\n      dup2\n        /* \"contracts/fountain.sol\":531:8297  contract Serenity is Ownable, Pausable, ReentrancyGuard {... */\n      mload\n        /* \"@uniswap/v3-periphery/contracts/libraries/TransferHelper.sol\":2121:2137  data.length == 0 */\n      dup1\n      iszero\n        /* \"@uniswap/v3-periphery/contracts/libraries/TransferHelper.sol\":2121:2165  data.length == 0 || abi.decode(data, (bool)) */\n      dup1\n      tag_248\n      jumpi\n        /* \"@uniswap/v3-periphery/contracts/libraries/TransferHelper.sol\":2141:2165  abi.decode(data, (bool)) */\n      tag_249\n        /* \"@uniswap/v3-periphery/contracts/libraries/TransferHelper.sol\":2032:2090  abi.encodeWithSelector(IERC20.approve.selector, to, value) */\n      0x20\n        /* \"@uniswap/v3-periphery/contracts/libraries/TransferHelper.sol\":2141:2165  abi.decode(data, (bool)) */\n      dup4\n      dup7\n      add\n      add\n        /* \"@uniswap/v3-periphery/contracts/libraries/TransferHelper.sol\":2032:2090  abi.encodeWithSelector(IERC20.approve.selector, to, value) */\n      0x20\n        /* \"@uniswap/v3-periphery/contracts/libraries/TransferHelper.sol\":2141:2165  abi.decode(data, (bool)) */\n      dup7\n      add\n      tag_120\n      jump\t// in\n    tag_249:\n        /* \"@uniswap/v3-periphery/contracts/libraries/TransferHelper.sol\":2121:2165  data.length == 0 || abi.decode(data, (bool)) */\n      swap1\n      pop\n    tag_248:\n        /* \"@uniswap/v3-periphery/contracts/libraries/TransferHelper.sol\":2109:2166  success && (data.length == 0 || abi.decode(data, (bool))) */\n      swap2\n      pop\n      pop\n    tag_247:\n        /* \"contracts/fountain.sol\":531:8297  contract Serenity is Ownable, Pausable, ReentrancyGuard {... */\n      dup1\n      tag_250\n      jumpi\n      mload(0x40)\n      swap3\n      pop\n      mul(0x461bcd, exp(0x02, 0xe5))\n      dup4\n      mstore\n        /* \"@uniswap/v3-periphery/contracts/libraries/TransferHelper.sol\":2032:2090  abi.encodeWithSelector(IERC20.approve.selector, to, value) */\n      0x20\n        /* \"contracts/fountain.sol\":531:8297  contract Serenity is Ownable, Pausable, ReentrancyGuard {... */\n      0x04\n      dup5\n      add\n      mstore\n      0x02\n        /* \"@uniswap/v3-periphery/contracts/libraries/TransferHelper.sol\":2032:2090  abi.encodeWithSelector(IERC20.approve.selector, to, value) */\n      0x24\n        /* \"contracts/fountain.sol\":531:8297  contract Serenity is Ownable, Pausable, ReentrancyGuard {... */\n      dup5\n      add\n      mstore\n      0x5341000000000000000000000000000000000000000000000000000000000000\n      0x44\n      dup5\n      add\n      mstore\n      0x64\n      dup4\n      revert\n    tag_250:\n      pop\n      pop\n      pop\n        /* \"@uniswap/v3-periphery/contracts/libraries/TransferHelper.sol\":1873:2180  function safeApprove(... */\n      pop\n      pop\n      pop\n      jump\t// out\n        /* \"@uniswap/v3-periphery/contracts/libraries/TransferHelper.sol\":561:919  function safeTransferFrom(... */\n    tag_251:\n        /* \"contracts/fountain.sol\":531:8297  contract Serenity is Ownable, Pausable, ReentrancyGuard {... */\n      mload(0x40)\n        /* \"@uniswap/v3-periphery/contracts/libraries/TransferHelper.sol\":759:828  abi.encodeWithSelector(IERC20.transferFrom.selector, from, to, value) */\n      0x20\n      dup2\n      add\n        /* \"@uniswap/v3-periphery/contracts/libraries/TransferHelper.sol\":782:810  IERC20.transferFrom.selector */\n      0x23b872dd00000000000000000000000000000000000000000000000000000000\n        /* \"@uniswap/v3-periphery/contracts/libraries/TransferHelper.sol\":759:828  abi.encodeWithSelector(IERC20.transferFrom.selector, from, to, value) */\n      dup2\n      mstore\n      sub(exp(0x02, 0xa0), 0x01)\n        /* \"contracts/fountain.sol\":531:8297  contract Serenity is Ownable, Pausable, ReentrancyGuard {... */\n      dup1\n      dup6\n      and\n        /* \"@uniswap/v3-periphery/contracts/libraries/TransferHelper.sol\":759:828  abi.encodeWithSelector(IERC20.transferFrom.selector, from, to, value) */\n      0x24\n      dup5\n      add\n        /* \"contracts/fountain.sol\":531:8297  contract Serenity is Ownable, Pausable, ReentrancyGuard {... */\n      mstore\n      dup1\n      dup7\n      and\n      0x44\n        /* \"@uniswap/v3-periphery/contracts/libraries/TransferHelper.sol\":759:828  abi.encodeWithSelector(IERC20.transferFrom.selector, from, to, value) */\n      dup5\n        /* \"contracts/fountain.sol\":531:8297  contract Serenity is Ownable, Pausable, ReentrancyGuard {... */\n      add\n      mstore\n      pop\n      dup6\n      0x64\n        /* \"@uniswap/v3-periphery/contracts/libraries/TransferHelper.sol\":759:828  abi.encodeWithSelector(IERC20.transferFrom.selector, from, to, value) */\n      dup4\n        /* \"contracts/fountain.sol\":531:8297  contract Serenity is Ownable, Pausable, ReentrancyGuard {... */\n      add\n      mstore\n      0x64\n        /* \"@uniswap/v3-periphery/contracts/libraries/TransferHelper.sol\":759:828  abi.encodeWithSelector(IERC20.transferFrom.selector, from, to, value) */\n      dup3\n      mstore\n      tag_253\n      dup3\n      tag_209\n      jump\t// in\n    tag_253:\n      0x00\n      dup1\n        /* \"@uniswap/v3-periphery/contracts/libraries/TransferHelper.sol\":748:829  token.call(abi.encodeWithSelector(IERC20.transferFrom.selector, from, to, value)) */\n      dup4\n      mload\n      dup4\n      0x00\n      dup8\n      gas\n      call\n      swap2\n      pop\n      pop\n      tag_254\n      tag_203\n      jump\t// in\n    tag_254:\n        /* \"@uniswap/v3-periphery/contracts/libraries/TransferHelper.sol\":847:904  success && (data.length == 0 || abi.decode(data, (bool))) */\n      dup2\n      dup3\n      iszero\n      tag_255\n      jumpi\n        /* \"@uniswap/v3-periphery/contracts/libraries/TransferHelper.sol\":859:870  data.length */\n      dup2\n        /* \"contracts/fountain.sol\":531:8297  contract Serenity is Ownable, Pausable, ReentrancyGuard {... */\n      mload\n        /* \"@uniswap/v3-periphery/contracts/libraries/TransferHelper.sol\":859:875  data.length == 0 */\n      dup1\n      iszero\n        /* \"@uniswap/v3-periphery/contracts/libraries/TransferHelper.sol\":859:903  data.length == 0 || abi.decode(data, (bool)) */\n      dup1\n      tag_256\n      jumpi\n        /* \"@uniswap/v3-periphery/contracts/libraries/TransferHelper.sol\":879:903  abi.decode(data, (bool)) */\n      tag_257\n        /* \"@uniswap/v3-periphery/contracts/libraries/TransferHelper.sol\":759:828  abi.encodeWithSelector(IERC20.transferFrom.selector, from, to, value) */\n      0x20\n        /* \"@uniswap/v3-periphery/contracts/libraries/TransferHelper.sol\":879:903  abi.decode(data, (bool)) */\n      dup4\n      dup7\n      add\n      add\n        /* \"@uniswap/v3-periphery/contracts/libraries/TransferHelper.sol\":759:828  abi.encodeWithSelector(IERC20.transferFrom.selector, from, to, value) */\n      0x20\n        /* \"@uniswap/v3-periphery/contracts/libraries/TransferHelper.sol\":879:903  abi.decode(data, (bool)) */\n      dup7\n      add\n      tag_120\n      jump\t// in\n    tag_257:\n        /* \"@uniswap/v3-periphery/contracts/libraries/TransferHelper.sol\":859:903  data.length == 0 || abi.decode(data, (bool)) */\n      swap1\n      pop\n    tag_256:\n        /* \"@uniswap/v3-periphery/contracts/libraries/TransferHelper.sol\":847:904  success && (data.length == 0 || abi.decode(data, (bool))) */\n      swap2\n      pop\n      pop\n    tag_255:\n        /* \"contracts/fountain.sol\":531:8297  contract Serenity is Ownable, Pausable, ReentrancyGuard {... */\n      dup1\n      tag_258\n      jumpi\n      mload(0x40)\n      swap3\n      pop\n      mul(0x461bcd, exp(0x02, 0xe5))\n      dup4\n      mstore\n        /* \"@uniswap/v3-periphery/contracts/libraries/TransferHelper.sol\":759:828  abi.encodeWithSelector(IERC20.transferFrom.selector, from, to, value) */\n      0x20\n        /* \"contracts/fountain.sol\":531:8297  contract Serenity is Ownable, Pausable, ReentrancyGuard {... */\n      0x04\n      dup5\n      add\n      mstore\n      0x03\n        /* \"@uniswap/v3-periphery/contracts/libraries/TransferHelper.sol\":759:828  abi.encodeWithSelector(IERC20.transferFrom.selector, from, to, value) */\n      0x24\n        /* \"contracts/fountain.sol\":531:8297  contract Serenity is Ownable, Pausable, ReentrancyGuard {... */\n      dup5\n      add\n      mstore\n      0x5354460000000000000000000000000000000000000000000000000000000000\n      0x44\n      dup5\n      add\n      mstore\n      0x64\n      dup4\n      revert\n    tag_258:\n      pop\n      pop\n      pop\n        /* \"@uniswap/v3-periphery/contracts/libraries/TransferHelper.sol\":561:919  function safeTransferFrom(... */\n      pop\n      pop\n      pop\n      pop\n      jump\t// out\n        /* \"contracts/fountain.sol\":531:8297  contract Serenity is Ownable, Pausable, ReentrancyGuard {... */\n    tag_259:\n      0x00\n      0xff\n      dup3\n      and\n      0xff\n      dup2\n      eq\n      iszero\n      tag_262\n      jumpi\n      tag_262\n      tag_162\n      jump\t// in\n    tag_262:\n      0x01\n      add\n      swap3\n      swap2\n      pop\n      pop\n      jump\t// out\n    tag_265:\n      0x00\n      dup2\n      mload\n      dup4\n      lt\n      tag_268\n      jumpi\n      tag_268\n      tag_224\n      jump\t// in\n    tag_268:\n      pop\n      0x20\n      swap2\n      dup3\n      mul\n      add\n      add\n      swap1\n      jump\t// out\n        /* \"@openzeppelin/contracts/access/Ownable.sol\":1063:1125  modifier onlyOwner() {... */\n    tag_32:\n      tag_270\n      tag_225\n      jump\t// in\n    tag_270:\n        /* \"contracts/fountain.sol\":531:8297  contract Serenity is Ownable, Pausable, ReentrancyGuard {... */\n      sload(0x00)\n      not(sub(exp(0x02, 0xa0), 0x01))\n      dup2\n      and\n      0x00\n      sstore\n      0x00\n      sub(exp(0x02, 0xa0), 0x01)\n      dup3\n      and\n        /* \"@openzeppelin/contracts/access/Ownable.sol\":2573:2613  OwnershipTransferred(oldOwner, newOwner) */\n      0x8be0079c531659141344cd1fd0a4f28419497f9722a3daafe3b4186f6b6457e0\n        /* \"contracts/fountain.sol\":531:8297  contract Serenity is Ownable, Pausable, ReentrancyGuard {... */\n      0x00\n      mload(0x40)\n        /* \"@openzeppelin/contracts/access/Ownable.sol\":2573:2613  OwnershipTransferred(oldOwner, newOwner) */\n      log3\n      pop\n        /* \"@openzeppelin/contracts/access/Ownable.sol\":1063:1125  modifier onlyOwner() {... */\n      jump\t// out\n    tag_62:\n      tag_272\n      tag_225\n      jump\t// in\n    tag_272:\n      sub(exp(0x02, 0xa0), 0x01)\n        /* \"contracts/fountain.sol\":531:8297  contract Serenity is Ownable, Pausable, ReentrancyGuard {... */\n      dup1\n        /* \"@openzeppelin/contracts/access/Ownable.sol\":2169:2191  newOwner != address(0) */\n      dup3\n        /* \"contracts/fountain.sol\":531:8297  contract Serenity is Ownable, Pausable, ReentrancyGuard {... */\n      and\n      dup1\n      tag_273\n      jumpi\n      mload(0x40)\n      mul(0x461bcd, exp(0x02, 0xe5))\n      dup2\n      mstore\n      0x20\n      0x04\n      dup3\n      add\n      mstore\n      0x26\n      0x24\n      dup3\n      add\n      mstore\n      0x4f776e61626c653a206e6577206f776e657220697320746865207a65726f2061\n      0x44\n      dup3\n      add\n      mstore\n      0x6464726573730000000000000000000000000000000000000000000000000000\n      0x64\n      dup3\n      add\n      mstore\n      0x84\n      dup2\n      revert\n    tag_273:\n        /* \"@openzeppelin/contracts/access/Ownable.sol\":2525:2531  _owner */\n      0x00\n        /* \"contracts/fountain.sol\":531:8297  contract Serenity is Ownable, Pausable, ReentrancyGuard {... */\n      sload\n      dup2\n      not(sub(exp(0x02, 0xa0), 0x01))\n      dup3\n      and\n      or\n        /* \"@openzeppelin/contracts/access/Ownable.sol\":2525:2531  _owner */\n      0x00\n        /* \"contracts/fountain.sol\":531:8297  contract Serenity is Ownable, Pausable, ReentrancyGuard {... */\n      sstore\n        /* \"@openzeppelin/contracts/access/Ownable.sol\":2573:2613  OwnershipTransferred(oldOwner, newOwner) */\n      dup4\n        /* \"contracts/fountain.sol\":531:8297  contract Serenity is Ownable, Pausable, ReentrancyGuard {... */\n      dup4\n      dup3\n      and\n        /* \"@openzeppelin/contracts/access/Ownable.sol\":2573:2613  OwnershipTransferred(oldOwner, newOwner) */\n      0x8be0079c531659141344cd1fd0a4f28419497f9722a3daafe3b4186f6b6457e0\n        /* \"@openzeppelin/contracts/access/Ownable.sol\":2525:2531  _owner */\n      0x00\n        /* \"contracts/fountain.sol\":531:8297  contract Serenity is Ownable, Pausable, ReentrancyGuard {... */\n      mload(0x40)\n        /* \"@openzeppelin/contracts/access/Ownable.sol\":2573:2613  OwnershipTransferred(oldOwner, newOwner) */\n      log3\n      pop\n      pop\n      pop\n        /* \"@openzeppelin/contracts/access/Ownable.sol\":1063:1125  modifier onlyOwner() {... */\n      pop\n      jump\t// out\n        /* \"@openzeppelin/contracts/security/Pausable.sol\":1204:1276  modifier whenNotPaused() {... */\n    tag_19:\n      tag_275\n      tag_228\n      jump\t// in\n    tag_275:\n        /* \"@openzeppelin/contracts/security/ReentrancyGuard.sol\":1744:1745  2 */\n      0x02\n        /* \"@openzeppelin/contracts/security/ReentrancyGuard.sol\":2317:2380  require(_status != _ENTERED, \"ReentrancyGuard: reentrant call\") */\n      tag_276\n        /* \"@openzeppelin/contracts/security/ReentrancyGuard.sol\":1744:1745  2 */\n      dup2\n        /* \"@openzeppelin/contracts/security/ReentrancyGuard.sol\":2325:2332  _status */\n      0x01\n        /* \"contracts/fountain.sol\":531:8297  contract Serenity is Ownable, Pausable, ReentrancyGuard {... */\n      sload\n        /* \"@openzeppelin/contracts/security/ReentrancyGuard.sol\":2325:2344  _status != _ENTERED */\n      eq\n      iszero\n        /* \"@openzeppelin/contracts/security/ReentrancyGuard.sol\":2317:2380  require(_status != _ENTERED, \"ReentrancyGuard: reentrant call\") */\n      tag_277\n      jump\t// in\n    tag_276:\n        /* \"@openzeppelin/contracts/security/ReentrancyGuard.sol\":1744:1745  2 */\n      dup1\n        /* \"@openzeppelin/contracts/security/ReentrancyGuard.sol\":2325:2332  _status */\n      0x01\n        /* \"contracts/fountain.sol\":531:8297  contract Serenity is Ownable, Pausable, ReentrancyGuard {... */\n      sstore\n        /* \"contracts/fountain.sol\":2822:2835  totalAmountIn */\n      tag_278\n      dup5\n        /* \"contracts/fountain.sol\":2815:2819  this */\n      address\n        /* \"contracts/fountain.sol\":2795:2805  msg.sender */\n      caller\n        /* \"contracts/fountain.sol\":2822:2835  totalAmountIn */\n      dup7\n      tag_251\n      jump\t// in\n    tag_278:\n      sub(exp(0x02, 0xa0), 0x01)\n        /* \"contracts/fountain.sol\":531:8297  contract Serenity is Ownable, Pausable, ReentrancyGuard {... */\n      dup1\n        /* \"contracts/fountain.sol\":2967:2977  swapRouter */\n      immutable(\"0xa89dab98646eeeb3665d545d51c6146ef2fb7643427936d0df6806075707fbb6\")\n        /* \"contracts/fountain.sol\":531:8297  contract Serenity is Ownable, Pausable, ReentrancyGuard {... */\n      and\n        /* \"contracts/fountain.sol\":2980:2993  totalAmountIn */\n      tag_279\n      dup7\n      dup3\n      dup8\n      tag_242\n      jump\t// in\n    tag_279:\n        /* \"contracts/fountain.sol\":531:8297  contract Serenity is Ownable, Pausable, ReentrancyGuard {... */\n      dup2\n        /* \"contracts/fountain.sol\":3254:3259  WETH9 */\n      immutable(\"0x34098433846a9bd0a86140a033abb24fa6dec3400ab42534fa886dfeed6a6087\")\n        /* \"contracts/fountain.sol\":531:8297  contract Serenity is Ownable, Pausable, ReentrancyGuard {... */\n      and\n        /* \"@openzeppelin/contracts/security/ReentrancyGuard.sol\":1744:1745  2 */\n      dup4\n        /* \"contracts/fountain.sol\":531:8297  contract Serenity is Ownable, Pausable, ReentrancyGuard {... */\n      sload\n      tag_280\n      tag_147\n      jump\t// in\n    tag_280:\n      sub(exp(0x02, 0xa0), 0x01)\n      dup9\n      and\n      dup2\n      mstore\n      sub(exp(0x02, 0xa0), 0x01)\n      dup4\n      and\n        /* \"contracts/fountain.sol\":3148:3782  ISwapRouter.ExactOutputSingleParams({... */\n      0x20\n      dup3\n      add\n        /* \"contracts/fountain.sol\":531:8297  contract Serenity is Ownable, Pausable, ReentrancyGuard {... */\n      mstore\n      0xffffff\n      dup13\n      and\n        /* \"contracts/fountain.sol\":3148:3782  ISwapRouter.ExactOutputSingleParams({... */\n      0x40\n      dup3\n      dup2\n      add\n        /* \"contracts/fountain.sol\":531:8297  contract Serenity is Ownable, Pausable, ReentrancyGuard {... */\n      swap2\n      swap1\n      swap2\n      mstore\n        /* \"contracts/fountain.sol\":2815:2819  this */\n      address\n        /* \"contracts/fountain.sol\":3148:3782  ISwapRouter.ExactOutputSingleParams({... */\n      0x60\n      dup4\n      add\n        /* \"contracts/fountain.sol\":531:8297  contract Serenity is Ownable, Pausable, ReentrancyGuard {... */\n      mstore\n      dup11\n        /* \"contracts/fountain.sol\":3148:3782  ISwapRouter.ExactOutputSingleParams({... */\n      0x80\n      dup4\n      add\n        /* \"contracts/fountain.sol\":531:8297  contract Serenity is Ownable, Pausable, ReentrancyGuard {... */\n      mstore\n      dup3\n        /* \"contracts/fountain.sol\":3148:3782  ISwapRouter.ExactOutputSingleParams({... */\n      0xa0\n      dup4\n      add\n        /* \"contracts/fountain.sol\":531:8297  contract Serenity is Ownable, Pausable, ReentrancyGuard {... */\n      mstore\n      dup12\n        /* \"contracts/fountain.sol\":3148:3782  ISwapRouter.ExactOutputSingleParams({... */\n      0xc0\n      dup4\n      add\n        /* \"contracts/fountain.sol\":531:8297  contract Serenity is Ownable, Pausable, ReentrancyGuard {... */\n      mstore\n      0x00\n      swap3\n      pop\n      dup3\n        /* \"contracts/fountain.sol\":3148:3782  ISwapRouter.ExactOutputSingleParams({... */\n      0xe0\n      dup4\n      add\n        /* \"contracts/fountain.sol\":531:8297  contract Serenity is Ownable, Pausable, ReentrancyGuard {... */\n      mstore\n        /* \"contracts/fountain.sol\":3941:3984  swapRouter.exactOutputSingle(ethSwapParams) */\n      dup5\n      extcodesize\n      tag_287\n      jumpi\n        /* \"contracts/fountain.sol\":531:8297  contract Serenity is Ownable, Pausable, ReentrancyGuard {... */\n      dup3\n      dup4\n      revert\n        /* \"contracts/fountain.sol\":3941:3984  swapRouter.exactOutputSingle(ethSwapParams) */\n    tag_287:\n        /* \"contracts/fountain.sol\":3148:3782  ISwapRouter.ExactOutputSingleParams({... */\n      dup1\n        /* \"contracts/fountain.sol\":531:8297  contract Serenity is Ownable, Pausable, ReentrancyGuard {... */\n      mload\n      0xdb3e219800000000000000000000000000000000000000000000000000000000\n        /* \"contracts/fountain.sol\":3941:3984  swapRouter.exactOutputSingle(ethSwapParams) */\n      dup2\n      mstore\n        /* \"contracts/fountain.sol\":3148:3782  ISwapRouter.ExactOutputSingleParams({... */\n      0x20\n        /* \"contracts/fountain.sol\":3941:3984  swapRouter.exactOutputSingle(ethSwapParams) */\n      dup2\n      dup3\n      tag_288\n      dup7\n      0x04\n      dup7\n      add\n      tag_142\n      jump\t// in\n    tag_288:\n      sub\n      dup4\n        /* \"contracts/fountain.sol\":531:8297  contract Serenity is Ownable, Pausable, ReentrancyGuard {... */\n      dup8\n        /* \"contracts/fountain.sol\":3941:3984  swapRouter.exactOutputSingle(ethSwapParams) */\n      dup11\n      gas\n      call\n      swap3\n      pop\n      dup3\n      tag_290\n      jumpi\n      tag_290\n      tag_291\n      jump\t// in\n    tag_290:\n        /* \"contracts/fountain.sol\":531:8297  contract Serenity is Ownable, Pausable, ReentrancyGuard {... */\n      dup4\n        /* \"contracts/fountain.sol\":3941:3984  swapRouter.exactOutputSingle(ethSwapParams) */\n      dup4\n      iszero\n      tag_292\n      jumpi\n      tag_293\n      returndatasize\n      dup4\n      tag_79\n      jump\t// in\n    tag_293:\n      tag_294\n      returndatasize\n      dup4\n      add\n      dup4\n      tag_129\n      jump\t// in\n    tag_294:\n      swap1\n      pop\n    tag_292:\n        /* \"@openzeppelin/contracts/security/ReentrancyGuard.sol\":1744:1745  2 */\n      dup9\n        /* \"contracts/fountain.sol\":531:8297  contract Serenity is Ownable, Pausable, ReentrancyGuard {... */\n      sload\n      swap4\n      pop\n        /* \"contracts/fountain.sol\":4019:4058  WETH9.withdraw(ephemeralGasMoneyAmount) */\n      dup6\n      extcodesize\n      tag_295\n      jumpi\n        /* \"contracts/fountain.sol\":531:8297  contract Serenity is Ownable, Pausable, ReentrancyGuard {... */\n      dup5\n      dup6\n      revert\n        /* \"contracts/fountain.sol\":4019:4058  WETH9.withdraw(ephemeralGasMoneyAmount) */\n    tag_295:\n        /* \"contracts/fountain.sol\":531:8297  contract Serenity is Ownable, Pausable, ReentrancyGuard {... */\n      dup3\n      mload\n      0x2e1a7d4d00000000000000000000000000000000000000000000000000000000\n        /* \"contracts/fountain.sol\":4019:4058  WETH9.withdraw(ephemeralGasMoneyAmount) */\n      dup2\n      mstore\n        /* \"contracts/fountain.sol\":3941:3984  swapRouter.exactOutputSingle(ethSwapParams) */\n      0x04\n        /* \"contracts/fountain.sol\":4019:4058  WETH9.withdraw(ephemeralGasMoneyAmount) */\n      dup2\n      add\n        /* \"contracts/fountain.sol\":531:8297  contract Serenity is Ownable, Pausable, ReentrancyGuard {... */\n      dup6\n      swap1\n      mstore\n      swap2\n      pop\n      dup5\n      dup3\n      0x24\n      dup2\n      dup4\n        /* \"contracts/fountain.sol\":4019:4058  WETH9.withdraw(ephemeralGasMoneyAmount) */\n      dup11\n      gas\n      call\n      swap6\n      pop\n      dup6\n      tag_298\n      jumpi\n      tag_298\n      tag_291\n      jump\t// in\n    tag_298:\n      dup6\n      iszero\n      tag_301\n      jumpi\n      tag_300\n      returndatasize\n      dup4\n      tag_79\n      jump\t// in\n    tag_300:\n      tag_301\n      returndatasize\n      dup4\n      add\n      dup4\n      tag_93\n      jump\t// in\n    tag_301:\n        /* \"@openzeppelin/contracts/security/ReentrancyGuard.sol\":1744:1745  2 */\n      dup9\n        /* \"contracts/fountain.sol\":531:8297  contract Serenity is Ownable, Pausable, ReentrancyGuard {... */\n      sload\n      swap6\n      pop\n      dup5\n      dup6\n      dup7\n        /* \"contracts/fountain.sol\":3148:3782  ISwapRouter.ExactOutputSingleParams({... */\n      dup6\n        /* \"contracts/fountain.sol\":531:8297  contract Serenity is Ownable, Pausable, ReentrancyGuard {... */\n      mload\n        /* \"contracts/fountain.sol\":4160:4232  payable(ephemeralWalletAddress).call{value: ephemeralGasMoneyAmount}(\"\") */\n      dup10\n        /* \"contracts/fountain.sol\":531:8297  contract Serenity is Ownable, Pausable, ReentrancyGuard {... */\n      dup13\n        /* \"contracts/fountain.sol\":4160:4191  payable(ephemeralWalletAddress) */\n      dup16\n        /* \"contracts/fountain.sol\":531:8297  contract Serenity is Ownable, Pausable, ReentrancyGuard {... */\n      and\n        /* \"contracts/fountain.sol\":4160:4232  payable(ephemeralWalletAddress).call{value: ephemeralGasMoneyAmount}(\"\") */\n      gas\n      call\n      swap6\n      pop\n      tag_302\n      tag_203\n      jump\t// in\n    tag_302:\n      pop\n        /* \"contracts/fountain.sol\":4242:4310  require(ephemeralGasSent, \"Failed to send gas to ephemeral wallet.\") */\n      tag_303\n      dup7\n      tag_304\n      jump\t// in\n    tag_303:\n        /* \"contracts/fountain.sol\":4413:4454  totalAmountIn - tokenAmountSpentOnEthSwap */\n      tag_305\n      dup2\n      dup14\n      tag_174\n      jump\t// in\n    tag_305:\n      swap6\n      pop\n      pop\n      pop\n        /* \"contracts/fountain.sol\":531:8297  contract Serenity is Ownable, Pausable, ReentrancyGuard {... */\n      tag_306\n      tag_147\n      jump\t// in\n    tag_306:\n      sub(exp(0x02, 0xa0), 0x01)\n      dup11\n      and\n      dup2\n      mstore\n        /* \"contracts/fountain.sol\":4601:5235  ISwapRouter.ExactInputSingleParams({... */\n      swap2\n      pop\n      sub(exp(0x02, 0xa0), 0x01)\n        /* \"contracts/fountain.sol\":4706:4710  USDC */\n      immutable(\"0x3e53e6caa3d9267e13a0317305a21727fdeb46c2d5adc9160409eaa6e5fb3b60\")\n        /* \"contracts/fountain.sol\":531:8297  contract Serenity is Ownable, Pausable, ReentrancyGuard {... */\n      dup8\n      and\n      and\n        /* \"contracts/fountain.sol\":3148:3782  ISwapRouter.ExactOutputSingleParams({... */\n      0x20\n        /* \"contracts/fountain.sol\":4601:5235  ISwapRouter.ExactInputSingleParams({... */\n      dup4\n      add\n        /* \"contracts/fountain.sol\":531:8297  contract Serenity is Ownable, Pausable, ReentrancyGuard {... */\n      mstore\n      0xffffff\n      dup15\n      and\n        /* \"contracts/fountain.sol\":4601:5235  ISwapRouter.ExactInputSingleParams({... */\n      dup3\n      dup3\n      add\n        /* \"contracts/fountain.sol\":531:8297  contract Serenity is Ownable, Pausable, ReentrancyGuard {... */\n      mstore\n        /* \"contracts/fountain.sol\":2815:2819  this */\n      address\n        /* \"contracts/fountain.sol\":3148:3782  ISwapRouter.ExactOutputSingleParams({... */\n      0x60\n        /* \"contracts/fountain.sol\":4601:5235  ISwapRouter.ExactInputSingleParams({... */\n      dup4\n      add\n        /* \"contracts/fountain.sol\":531:8297  contract Serenity is Ownable, Pausable, ReentrancyGuard {... */\n      mstore\n      dup11\n        /* \"contracts/fountain.sol\":3148:3782  ISwapRouter.ExactOutputSingleParams({... */\n      0x80\n        /* \"contracts/fountain.sol\":4601:5235  ISwapRouter.ExactInputSingleParams({... */\n      dup4\n      add\n        /* \"contracts/fountain.sol\":531:8297  contract Serenity is Ownable, Pausable, ReentrancyGuard {... */\n      mstore\n      dup4\n        /* \"contracts/fountain.sol\":3148:3782  ISwapRouter.ExactOutputSingleParams({... */\n      0xa0\n        /* \"contracts/fountain.sol\":4601:5235  ISwapRouter.ExactInputSingleParams({... */\n      dup4\n      add\n        /* \"contracts/fountain.sol\":531:8297  contract Serenity is Ownable, Pausable, ReentrancyGuard {... */\n      mstore\n      dup15\n        /* \"contracts/fountain.sol\":3148:3782  ISwapRouter.ExactOutputSingleParams({... */\n      0xc0\n        /* \"contracts/fountain.sol\":4601:5235  ISwapRouter.ExactInputSingleParams({... */\n      dup4\n      add\n        /* \"contracts/fountain.sol\":531:8297  contract Serenity is Ownable, Pausable, ReentrancyGuard {... */\n      mstore\n      dup3\n        /* \"contracts/fountain.sol\":3148:3782  ISwapRouter.ExactOutputSingleParams({... */\n      0xe0\n        /* \"contracts/fountain.sol\":4601:5235  ISwapRouter.ExactInputSingleParams({... */\n      dup4\n      add\n        /* \"contracts/fountain.sol\":531:8297  contract Serenity is Ownable, Pausable, ReentrancyGuard {... */\n      mstore\n        /* \"contracts/fountain.sol\":5298:5333  swapRouter.exactInputSingle(params) */\n      dup5\n      extcodesize\n      tag_311\n      jumpi\n        /* \"contracts/fountain.sol\":531:8297  contract Serenity is Ownable, Pausable, ReentrancyGuard {... */\n      dup3\n      dup4\n      revert\n        /* \"contracts/fountain.sol\":5298:5333  swapRouter.exactInputSingle(params) */\n    tag_311:\n        /* \"contracts/fountain.sol\":3148:3782  ISwapRouter.ExactOutputSingleParams({... */\n      dup1\n        /* \"contracts/fountain.sol\":531:8297  contract Serenity is Ownable, Pausable, ReentrancyGuard {... */\n      mload\n        /* \"contracts/fountain.sol\":5298:5333  swapRouter.exactInputSingle(params) */\n      swap6\n      pop\n        /* \"contracts/fountain.sol\":531:8297  contract Serenity is Ownable, Pausable, ReentrancyGuard {... */\n      0x414bf38900000000000000000000000000000000000000000000000000000000\n        /* \"contracts/fountain.sol\":5298:5333  swapRouter.exactInputSingle(params) */\n      dup7\n      mstore\n        /* \"contracts/fountain.sol\":3148:3782  ISwapRouter.ExactOutputSingleParams({... */\n      0x20\n        /* \"contracts/fountain.sol\":5298:5333  swapRouter.exactInputSingle(params) */\n      dup7\n      dup8\n      tag_312\n      dup6\n        /* \"contracts/fountain.sol\":3941:3984  swapRouter.exactOutputSingle(ethSwapParams) */\n      0x04\n        /* \"contracts/fountain.sol\":5298:5333  swapRouter.exactInputSingle(params) */\n      dup12\n      add\n      tag_142\n      jump\t// in\n    tag_312:\n      sub\n      dup9\n        /* \"contracts/fountain.sol\":531:8297  contract Serenity is Ownable, Pausable, ReentrancyGuard {... */\n      dup7\n        /* \"contracts/fountain.sol\":5298:5333  swapRouter.exactInputSingle(params) */\n      dup10\n      gas\n      call\n      swap5\n      pop\n      dup5\n      tag_314\n      jumpi\n      tag_314\n      tag_291\n      jump\t// in\n    tag_314:\n        /* \"contracts/fountain.sol\":531:8297  contract Serenity is Ownable, Pausable, ReentrancyGuard {... */\n      dup3\n        /* \"contracts/fountain.sol\":5298:5333  swapRouter.exactInputSingle(params) */\n      swap4\n      pop\n      dup5\n      iszero\n      tag_315\n      jumpi\n      tag_316\n      returndatasize\n      dup8\n      tag_79\n      jump\t// in\n    tag_316:\n      tag_317\n      returndatasize\n      dup8\n      add\n      dup8\n      tag_129\n      jump\t// in\n    tag_317:\n      swap4\n      pop\n    tag_315:\n      sub(exp(0x02, 0xa0), 0x01)\n        /* \"contracts/fountain.sol\":531:8297  contract Serenity is Ownable, Pausable, ReentrancyGuard {... */\n      dup9\n      and\n      0x00\n      swap1\n      dup2\n      mstore\n        /* \"contracts/fountain.sol\":5353:5361  balances */\n      0x03\n        /* \"contracts/fountain.sol\":531:8297  contract Serenity is Ownable, Pausable, ReentrancyGuard {... */\n      0x20\n      mstore\n      0x40\n      swap1\n      keccak256\n        /* \"contracts/fountain.sol\":5353:5385  balances[ephemeralWalletAddress] */\n      swap6\n      pop\n        /* \"contracts/fountain.sol\":5353:5398  balances[ephemeralWalletAddress] += amountOut */\n      tag_319\n      dup5\n      dup8\n        /* \"contracts/fountain.sol\":531:8297  contract Serenity is Ownable, Pausable, ReentrancyGuard {... */\n      sload\n        /* \"contracts/fountain.sol\":5353:5398  balances[ephemeralWalletAddress] += amountOut */\n      tag_158\n      jump\t// in\n    tag_319:\n        /* \"contracts/fountain.sol\":531:8297  contract Serenity is Ownable, Pausable, ReentrancyGuard {... */\n      swap1\n      swap6\n      sstore\n      pop\n      pop\n      swap3\n      sload\n      swap2\n      mload\n      dup7\n      dup2\n      mstore\n      0x20\n      dup2\n      add\n      dup4\n      swap1\n      mstore\n      0x40\n      dup2\n      add\n      dup5\n      swap1\n      mstore\n      swap2\n      swap3\n        /* \"contracts/fountain.sol\":5422:5533  FountainDeposit(msg.sender, ephemeralWalletAddress, tokenIn, totalAmountIn, ephemeralGasMoneyAmount, amountOut) */\n      dup6\n      dup6\n        /* \"contracts/fountain.sol\":2795:2805  msg.sender */\n      caller\n        /* \"contracts/fountain.sol\":5422:5533  FountainDeposit(msg.sender, ephemeralWalletAddress, tokenIn, totalAmountIn, ephemeralGasMoneyAmount, amountOut) */\n      0x0860654ad3d0539dbac86150676768b53a47900bb45c5eb8d8d000ffbc4f67e6\n        /* \"contracts/fountain.sol\":531:8297  contract Serenity is Ownable, Pausable, ReentrancyGuard {... */\n      0x60\n      dup8\n        /* \"contracts/fountain.sol\":5422:5533  FountainDeposit(msg.sender, ephemeralWalletAddress, tokenIn, totalAmountIn, ephemeralGasMoneyAmount, amountOut) */\n      log4\n      pop\n      pop\n      pop\n      pop\n        /* \"@openzeppelin/contracts/security/ReentrancyGuard.sol\":2628:2650  _status = _NOT_ENTERED */\n      tag_321\n        /* \"@openzeppelin/contracts/security/ReentrancyGuard.sol\":2325:2332  _status */\n      0x01\n      dup1\n        /* \"contracts/fountain.sol\":531:8297  contract Serenity is Ownable, Pausable, ReentrancyGuard {... */\n      sstore\n      jump\n        /* \"@openzeppelin/contracts/security/ReentrancyGuard.sol\":2628:2650  _status = _NOT_ENTERED */\n    tag_321:\n        /* \"@openzeppelin/contracts/security/Pausable.sol\":1204:1276  modifier whenNotPaused() {... */\n      pop\n      pop\n      pop\n      pop\n      pop\n      pop\n      pop\n      pop\n      jump\t// out\n    tag_43:\n      tag_324\n      tag_228\n      jump\t// in\n    tag_324:\n        /* \"@openzeppelin/contracts/security/ReentrancyGuard.sol\":2317:2380  require(_status != _ENTERED, \"ReentrancyGuard: reentrant call\") */\n      tag_325\n        /* \"@openzeppelin/contracts/security/ReentrancyGuard.sol\":1744:1745  2 */\n      0x02\n        /* \"@openzeppelin/contracts/security/ReentrancyGuard.sol\":2325:2332  _status */\n      0x01\n        /* \"contracts/fountain.sol\":531:8297  contract Serenity is Ownable, Pausable, ReentrancyGuard {... */\n      sload\n        /* \"@openzeppelin/contracts/security/ReentrancyGuard.sol\":2325:2344  _status != _ENTERED */\n      eq\n      iszero\n        /* \"@openzeppelin/contracts/security/ReentrancyGuard.sol\":2317:2380  require(_status != _ENTERED, \"ReentrancyGuard: reentrant call\") */\n      tag_277\n      jump\t// in\n    tag_325:\n        /* \"@openzeppelin/contracts/security/ReentrancyGuard.sol\":1744:1745  2 */\n      0x02\n        /* \"@openzeppelin/contracts/security/ReentrancyGuard.sol\":2325:2332  _status */\n      0x01\n        /* \"contracts/fountain.sol\":531:8297  contract Serenity is Ownable, Pausable, ReentrancyGuard {... */\n      sstore\n      sub(exp(0x02, 0xa0), 0x01)\n      dup1\n        /* \"contracts/fountain.sol\":5927:5945  msg.sender == user */\n      dup3\n        /* \"contracts/fountain.sol\":531:8297  contract Serenity is Ownable, Pausable, ReentrancyGuard {... */\n      and\n        /* \"contracts/fountain.sol\":5927:5937  msg.sender */\n      caller\n        /* \"contracts/fountain.sol\":5927:5945  msg.sender == user */\n      eq\n        /* \"contracts/fountain.sol\":5927:5970  msg.sender == user || msg.sender == owner() */\n      dup1\n      tag_326\n      jumpi\n        /* \"contracts/fountain.sol\":5949:5970  msg.sender == owner() */\n      tag_327\n        /* \"contracts/fountain.sol\":531:8297  contract Serenity is Ownable, Pausable, ReentrancyGuard {... */\n      dup3\n        /* \"@openzeppelin/contracts/access/Ownable.sol\":1273:1279  _owner */\n      0x00\n        /* \"contracts/fountain.sol\":531:8297  contract Serenity is Ownable, Pausable, ReentrancyGuard {... */\n      sload\n      and\n      sub(exp(0x02, 0xa0), 0x01)\n      and\n      swap1\n      jump\n        /* \"contracts/fountain.sol\":5949:5970  msg.sender == owner() */\n    tag_327:\n        /* \"contracts/fountain.sol\":5927:5937  msg.sender */\n      caller\n        /* \"contracts/fountain.sol\":5949:5970  msg.sender == owner() */\n      eq\n        /* \"contracts/fountain.sol\":5927:5970  msg.sender == user || msg.sender == owner() */\n      swap1\n      pop\n    tag_326:\n        /* \"contracts/fountain.sol\":5919:6004  require(msg.sender == user || msg.sender == owner(), \"Unauthorization finalization.\") */\n      tag_328\n      dup2\n      tag_329\n      jump\t// in\n    tag_328:\n      pop\n        /* \"contracts/fountain.sol\":6022:6039  charities_.length */\n      dup3\n        /* \"contracts/fountain.sol\":531:8297  contract Serenity is Ownable, Pausable, ReentrancyGuard {... */\n      mload\n        /* \"contracts/fountain.sol\":6014:6112  require(charities_.length == amounts_.length, \"Charities and amounts arrays of different length.\") */\n      tag_330\n        /* \"contracts/fountain.sol\":6043:6058  amounts_.length */\n      dup6\n        /* \"contracts/fountain.sol\":531:8297  contract Serenity is Ownable, Pausable, ReentrancyGuard {... */\n      mload\n        /* \"contracts/fountain.sol\":6022:6058  charities_.length == amounts_.length */\n      dup3\n      eq\n        /* \"contracts/fountain.sol\":6014:6112  require(charities_.length == amounts_.length, \"Charities and amounts arrays of different length.\") */\n      tag_331\n      jump\t// in\n    tag_330:\n      pop\n      0x00\n      dup1\n        /* \"contracts/fountain.sol\":6164:6373  for (uint8 i = 0; i < charities_.length; i++) {... */\n    tag_332:\n        /* \"contracts/fountain.sol\":6186:6203  charities_.length */\n      dup5\n        /* \"contracts/fountain.sol\":531:8297  contract Serenity is Ownable, Pausable, ReentrancyGuard {... */\n      mload\n      0xff\n        /* \"contracts/fountain.sol\":6182:6203  i < charities_.length */\n      dup3\n        /* \"contracts/fountain.sol\":531:8297  contract Serenity is Ownable, Pausable, ReentrancyGuard {... */\n      and\n        /* \"contracts/fountain.sol\":6182:6203  i < charities_.length */\n      dup2\n      dup2\n      lt\n      tag_335\n      jumpi\n      pop\n      pop\n      jump(tag_334)\n    tag_335:\n        /* \"contracts/fountain.sol\":6224:6258  totalUserAllocation += amounts_[i] */\n      tag_336\n        /* \"contracts/fountain.sol\":6247:6258  amounts_[i] */\n      tag_337\n      dup3\n      dup11\n      tag_265\n      jump\t// in\n    tag_337:\n        /* \"contracts/fountain.sol\":531:8297  contract Serenity is Ownable, Pausable, ReentrancyGuard {... */\n      mload\n        /* \"contracts/fountain.sol\":6224:6258  totalUserAllocation += amounts_[i] */\n      dup6\n      tag_158\n      jump\t// in\n    tag_336:\n      swap4\n      pop\n        /* \"contracts/fountain.sol\":6272:6362  require(charities[charities_[i]] != address(0x0), \"Attempt to donate to unknown charity.\") */\n      tag_338\n        /* \"contracts/fountain.sol\":6280:6320  charities[charities_[i]] != address(0x0) */\n      tag_339\n        /* \"contracts/fountain.sol\":6280:6304  charities[charities_[i]] */\n      tag_340\n        /* \"contracts/fountain.sol\":531:8297  contract Serenity is Ownable, Pausable, ReentrancyGuard {... */\n      tag_341\n        /* \"contracts/fountain.sol\":6290:6303  charities_[i] */\n      tag_342\n      dup6\n      dup13\n      tag_265\n      jump\t// in\n    tag_342:\n      mload\n        /* \"contracts/fountain.sol\":531:8297  contract Serenity is Ownable, Pausable, ReentrancyGuard {... */\n      tag_234\n      jump\t// in\n    tag_341:\n      sload\n      sub(exp(0x02, 0xa0), 0x01)\n      and\n      swap1\n      jump\n        /* \"contracts/fountain.sol\":6280:6304  charities[charities_[i]] */\n    tag_340:\n      sub(exp(0x02, 0xa0), 0x01)\n        /* \"contracts/fountain.sol\":531:8297  contract Serenity is Ownable, Pausable, ReentrancyGuard {... */\n      and\n      swap1\n      jump\n        /* \"contracts/fountain.sol\":6280:6320  charities[charities_[i]] != address(0x0) */\n    tag_339:\n      iszero\n      iszero\n        /* \"contracts/fountain.sol\":6272:6362  require(charities[charities_[i]] != address(0x0), \"Attempt to donate to unknown charity.\") */\n      tag_344\n      jump\t// in\n    tag_338:\n      pop\n      pop\n        /* \"contracts/fountain.sol\":6205:6208  i++ */\n      tag_345\n      dup2\n      tag_259\n      jump\t// in\n    tag_345:\n      swap1\n      pop\n        /* \"contracts/fountain.sol\":6164:6373  for (uint8 i = 0; i < charities_.length; i++) {... */\n      jump(tag_332)\n    tag_334:\n      pop\n        /* \"contracts/fountain.sol\":6383:6467  require(totalUserAllocation <= balances[user], \"Total finalization amount too high\") */\n      tag_346\n        /* \"contracts/fountain.sol\":6414:6428  balances[user] */\n      tag_347\n      dup5\n      sub(exp(0x02, 0xa0), 0x01)\n        /* \"contracts/fountain.sol\":531:8297  contract Serenity is Ownable, Pausable, ReentrancyGuard {... */\n      and\n      0x00\n      swap1\n      dup2\n      mstore\n        /* \"contracts/fountain.sol\":5353:5361  balances */\n      0x03\n        /* \"contracts/fountain.sol\":531:8297  contract Serenity is Ownable, Pausable, ReentrancyGuard {... */\n      0x20\n      mstore\n      0x40\n      swap1\n      keccak256\n      swap1\n      jump\n        /* \"contracts/fountain.sol\":6414:6428  balances[user] */\n    tag_347:\n        /* \"contracts/fountain.sol\":531:8297  contract Serenity is Ownable, Pausable, ReentrancyGuard {... */\n      sload\n        /* \"contracts/fountain.sol\":6391:6428  totalUserAllocation <= balances[user] */\n      dup3\n      gt\n      iszero\n        /* \"contracts/fountain.sol\":6383:6467  require(totalUserAllocation <= balances[user], \"Total finalization amount too high\") */\n      tag_348\n      jump\t// in\n    tag_346:\n      0x00\n      dup1\n        /* \"contracts/fountain.sol\":531:8297  contract Serenity is Ownable, Pausable, ReentrancyGuard {... */\n      dup4\n        /* \"contracts/fountain.sol\":7280:7284  USDC */\n      immutable(\"0x3e53e6caa3d9267e13a0317305a21727fdeb46c2d5adc9160409eaa6e5fb3b60\")\n        /* \"contracts/fountain.sol\":531:8297  contract Serenity is Ownable, Pausable, ReentrancyGuard {... */\n      and\n        /* \"contracts/fountain.sol\":7280:7293  USDC.transfer */\n      swap4\n      pop\n        /* \"contracts/fountain.sol\":6512:7563  for (uint8 i = 0; i < charities_.length; i++) { ... */\n    tag_349:\n        /* \"contracts/fountain.sol\":6534:6551  charities_.length */\n      dup6\n        /* \"contracts/fountain.sol\":531:8297  contract Serenity is Ownable, Pausable, ReentrancyGuard {... */\n      mload\n      0xff\n        /* \"contracts/fountain.sol\":6530:6551  i < charities_.length */\n      dup3\n        /* \"contracts/fountain.sol\":531:8297  contract Serenity is Ownable, Pausable, ReentrancyGuard {... */\n      and\n        /* \"contracts/fountain.sol\":6530:6551  i < charities_.length */\n      dup2\n      dup2\n      lt\n      tag_352\n      jumpi\n      pop\n      pop\n      jump(tag_351)\n    tag_352:\n        /* \"contracts/fountain.sol\":6915:6926  amounts_[i] */\n      tag_353\n      dup2\n      dup11\n      tag_265\n      jump\t// in\n    tag_353:\n        /* \"contracts/fountain.sol\":531:8297  contract Serenity is Ownable, Pausable, ReentrancyGuard {... */\n      mload\n      swap2\n      pop\n        /* \"contracts/fountain.sol\":6930:6966  balances[user] - totalUserAllocation */\n      tag_354\n      dup6\n        /* \"contracts/fountain.sol\":6930:6944  balances[user] */\n      tag_355\n      dup10\n      sub(exp(0x02, 0xa0), 0x01)\n        /* \"contracts/fountain.sol\":531:8297  contract Serenity is Ownable, Pausable, ReentrancyGuard {... */\n      and\n      0x00\n      swap1\n      dup2\n      mstore\n        /* \"contracts/fountain.sol\":5353:5361  balances */\n      0x03\n        /* \"contracts/fountain.sol\":531:8297  contract Serenity is Ownable, Pausable, ReentrancyGuard {... */\n      0x20\n      mstore\n      0x40\n      swap1\n      keccak256\n      swap1\n      jump\n        /* \"contracts/fountain.sol\":6930:6944  balances[user] */\n    tag_355:\n        /* \"contracts/fountain.sol\":531:8297  contract Serenity is Ownable, Pausable, ReentrancyGuard {... */\n      sload\n        /* \"contracts/fountain.sol\":6930:6966  balances[user] - totalUserAllocation */\n      tag_174\n      jump\t// in\n    tag_354:\n        /* \"contracts/fountain.sol\":6915:7005  amounts_[i] + (balances[user] - totalUserAllocation) * (amounts_[i] / totalUserAllocation) */\n      tag_356\n        /* \"contracts/fountain.sol\":6929:7005  (balances[user] - totalUserAllocation) * (amounts_[i] / totalUserAllocation) */\n      tag_357\n        /* \"contracts/fountain.sol\":6971:7004  amounts_[i] / totalUserAllocation */\n      tag_358\n      dup9\n        /* \"contracts/fountain.sol\":6971:6982  amounts_[i] */\n      tag_359\n      dup7\n      dup16\n      tag_265\n      jump\t// in\n    tag_359:\n        /* \"contracts/fountain.sol\":531:8297  contract Serenity is Ownable, Pausable, ReentrancyGuard {... */\n      mload\n        /* \"contracts/fountain.sol\":6971:7004  amounts_[i] / totalUserAllocation */\n      tag_163\n      jump\t// in\n    tag_358:\n        /* \"contracts/fountain.sol\":6929:7005  (balances[user] - totalUserAllocation) * (amounts_[i] / totalUserAllocation) */\n      dup4\n      tag_166\n      jump\t// in\n    tag_357:\n        /* \"contracts/fountain.sol\":6915:7005  amounts_[i] + (balances[user] - totalUserAllocation) * (amounts_[i] / totalUserAllocation) */\n      dup5\n      tag_158\n      jump\t// in\n    tag_356:\n        /* \"contracts/fountain.sol\":6890:7005  uint256 transferAmount = amounts_[i] + (balances[user] - totalUserAllocation) * (amounts_[i] / totalUserAllocation) */\n      swap3\n      pop\n      pop\n        /* \"contracts/fountain.sol\":7129:7150  charities_.length - 1 */\n      tag_360\n        /* \"contracts/fountain.sol\":7129:7146  charities_.length */\n      dup9\n        /* \"contracts/fountain.sol\":531:8297  contract Serenity is Ownable, Pausable, ReentrancyGuard {... */\n      mload\n        /* \"contracts/fountain.sol\":7129:7150  charities_.length - 1 */\n      tag_170\n      jump\t// in\n    tag_360:\n        /* \"contracts/fountain.sol\":7124:7150  i == charities_.length - 1 */\n      dup2\n      eq\n        /* \"contracts/fountain.sol\":7120:7231  if (i == charities_.length - 1) {... */\n      iszero\n      tag_361\n      jumpi\n        /* \"contracts/fountain.sol\":7187:7216  balances[user] - totalDonated */\n      tag_362\n      dup5\n        /* \"contracts/fountain.sol\":7187:7201  balances[user] */\n      tag_355\n      dup10\n      sub(exp(0x02, 0xa0), 0x01)\n        /* \"contracts/fountain.sol\":531:8297  contract Serenity is Ownable, Pausable, ReentrancyGuard {... */\n      and\n      0x00\n      swap1\n      dup2\n      mstore\n        /* \"contracts/fountain.sol\":5353:5361  balances */\n      0x03\n        /* \"contracts/fountain.sol\":531:8297  contract Serenity is Ownable, Pausable, ReentrancyGuard {... */\n      0x20\n      mstore\n      0x40\n      swap1\n      keccak256\n      swap1\n      jump\n        /* \"contracts/fountain.sol\":7187:7216  balances[user] - totalDonated */\n    tag_362:\n        /* \"contracts/fountain.sol\":7170:7216  transferAmount = balances[user] - totalDonated */\n      swap2\n      pop\n        /* \"contracts/fountain.sol\":7120:7231  if (i == charities_.length - 1) {... */\n    tag_361:\n        /* \"contracts/fountain.sol\":7294:7318  charities[charities_[i]] */\n      tag_364\n        /* \"contracts/fountain.sol\":531:8297  contract Serenity is Ownable, Pausable, ReentrancyGuard {... */\n      tag_341\n        /* \"contracts/fountain.sol\":7304:7317  charities_[i] */\n      tag_342\n      dup4\n      dup12\n      tag_265\n      jump\t// in\n        /* \"contracts/fountain.sol\":7294:7318  charities[charities_[i]] */\n    tag_364:\n        /* \"contracts/fountain.sol\":7280:7335  USDC.transfer(charities[charities_[i]], transferAmount) */\n      dup7\n      extcodesize\n      tag_367\n      jumpi\n      0x00\n      dup1\n        /* \"contracts/fountain.sol\":531:8297  contract Serenity is Ownable, Pausable, ReentrancyGuard {... */\n      revert\n        /* \"contracts/fountain.sol\":7280:7335  USDC.transfer(charities[charities_[i]], transferAmount) */\n    tag_367:\n        /* \"contracts/fountain.sol\":531:8297  contract Serenity is Ownable, Pausable, ReentrancyGuard {... */\n      0x40\n      dup1\n      mload\n      0xa9059cbb00000000000000000000000000000000000000000000000000000000\n        /* \"contracts/fountain.sol\":7280:7335  USDC.transfer(charities[charities_[i]], transferAmount) */\n      dup2\n      mstore\n      sub(exp(0x02, 0xa0), 0x01)\n        /* \"contracts/fountain.sol\":531:8297  contract Serenity is Ownable, Pausable, ReentrancyGuard {... */\n      dup4\n      and\n        /* \"contracts/fountain.sol\":6280:6289  charities */\n      0x04\n        /* \"contracts/fountain.sol\":7280:7335  USDC.transfer(charities[charities_[i]], transferAmount) */\n      dup3\n      add\n        /* \"contracts/fountain.sol\":531:8297  contract Serenity is Ownable, Pausable, ReentrancyGuard {... */\n      mstore\n      0x24\n      dup2\n      add\n      dup6\n      swap1\n      mstore\n        /* \"contracts/fountain.sol\":7280:7335  USDC.transfer(charities[charities_[i]], transferAmount) */\n      0x20\n        /* \"contracts/fountain.sol\":531:8297  contract Serenity is Ownable, Pausable, ReentrancyGuard {... */\n      dup2\n      0x44\n      dup2\n      0x00\n        /* \"contracts/fountain.sol\":7280:7335  USDC.transfer(charities[charities_[i]], transferAmount) */\n      dup14\n      gas\n      call\n      swap3\n      pop\n      dup3\n      tag_370\n      jumpi\n      tag_370\n      tag_291\n      jump\t// in\n    tag_370:\n      0x00\n      dup4\n      iszero\n      tag_371\n      jumpi\n      tag_372\n      returndatasize\n      dup4\n      tag_79\n      jump\t// in\n    tag_372:\n      tag_373\n      returndatasize\n      dup4\n      add\n      dup4\n      tag_120\n      jump\t// in\n    tag_373:\n      swap1\n      pop\n    tag_371:\n        /* \"contracts/fountain.sol\":7349:7409  require(transferSuccess, \"USDC transfer to charity failed.\") */\n      tag_374\n      dup2\n      tag_375\n      jump\t// in\n    tag_374:\n      pop\n      pop\n        /* \"contracts/fountain.sol\":7451:7464  charities_[i] */\n      tag_376\n      dup4\n      dup12\n      tag_265\n      jump\t// in\n    tag_376:\n      mload\n      swap2\n      pop\n        /* \"contracts/fountain.sol\":7466:7490  charities[charities_[i]] */\n      tag_377\n        /* \"contracts/fountain.sol\":531:8297  contract Serenity is Ownable, Pausable, ReentrancyGuard {... */\n      tag_341\n        /* \"contracts/fountain.sol\":7476:7489  charities_[i] */\n      tag_342\n      dup6\n      dup14\n      tag_265\n      jump\t// in\n        /* \"contracts/fountain.sol\":7466:7490  charities[charities_[i]] */\n    tag_377:\n      swap3\n      pop\n        /* \"contracts/fountain.sol\":7428:7507  FountainDonation(user, charities_[i], charities[charities_[i]], transferAmount) */\n      tag_380\n      dup3\n      tag_381\n      jump\t// in\n    tag_380:\n        /* \"contracts/fountain.sol\":531:8297  contract Serenity is Ownable, Pausable, ReentrancyGuard {... */\n      swap1\n      mload\n      dup5\n      dup2\n      mstore\n      swap1\n      swap2\n      pop\n        /* \"contracts/fountain.sol\":7428:7507  FountainDonation(user, charities_[i], charities[charities_[i]], transferAmount) */\n      dup3\n        /* \"contracts/fountain.sol\":531:8297  contract Serenity is Ownable, Pausable, ReentrancyGuard {... */\n      dup3\n        /* \"contracts/fountain.sol\":7428:7507  FountainDonation(user, charities_[i], charities[charities_[i]], transferAmount) */\n      dup11\n      0xb0657052acbf78260696b569dbe3a1f1f39287b5a3c378f5bca0c20fbf062dec\n        /* \"contracts/fountain.sol\":531:8297  contract Serenity is Ownable, Pausable, ReentrancyGuard {... */\n      0x20\n      dup6\n        /* \"contracts/fountain.sol\":7428:7507  FountainDonation(user, charities_[i], charities[charities_[i]], transferAmount) */\n      log4\n      pop\n      pop\n      pop\n        /* \"contracts/fountain.sol\":7522:7552  totalDonated += transferAmount */\n      tag_383\n      dup2\n      dup5\n      tag_158\n      jump\t// in\n    tag_383:\n      swap3\n      pop\n      pop\n        /* \"contracts/fountain.sol\":6553:6556  i++ */\n      tag_384\n      dup2\n      tag_259\n      jump\t// in\n    tag_384:\n      swap1\n      pop\n        /* \"contracts/fountain.sol\":6512:7563  for (uint8 i = 0; i < charities_.length; i++) { ... */\n      jump(tag_349)\n    tag_351:\n      pop\n        /* \"contracts/fountain.sol\":7573:7644  require(totalDonated == balances[user], \"Must finalize entire balance\") */\n      tag_385\n        /* \"contracts/fountain.sol\":7597:7611  balances[user] */\n      tag_386\n      dup6\n      sub(exp(0x02, 0xa0), 0x01)\n        /* \"contracts/fountain.sol\":531:8297  contract Serenity is Ownable, Pausable, ReentrancyGuard {... */\n      and\n      0x00\n      swap1\n      dup2\n      mstore\n        /* \"contracts/fountain.sol\":5353:5361  balances */\n      0x03\n        /* \"contracts/fountain.sol\":531:8297  contract Serenity is Ownable, Pausable, ReentrancyGuard {... */\n      0x20\n      mstore\n      0x40\n      swap1\n      keccak256\n      swap1\n      jump\n        /* \"contracts/fountain.sol\":7597:7611  balances[user] */\n    tag_386:\n        /* \"contracts/fountain.sol\":531:8297  contract Serenity is Ownable, Pausable, ReentrancyGuard {... */\n      sload\n        /* \"contracts/fountain.sol\":7581:7611  totalDonated == balances[user] */\n      dup3\n      eq\n        /* \"contracts/fountain.sol\":7573:7644  require(totalDonated == balances[user], \"Must finalize entire balance\") */\n      tag_387\n      jump\t// in\n    tag_385:\n      pop\n      pop\n      pop\n        /* \"@openzeppelin/contracts/security/ReentrancyGuard.sol\":2628:2650  _status = _NOT_ENTERED */\n      tag_388\n        /* \"@openzeppelin/contracts/security/ReentrancyGuard.sol\":2325:2332  _status */\n      0x01\n      dup1\n        /* \"contracts/fountain.sol\":531:8297  contract Serenity is Ownable, Pausable, ReentrancyGuard {... */\n      sstore\n      jump\n        /* \"@openzeppelin/contracts/security/ReentrancyGuard.sol\":2628:2650  _status = _NOT_ENTERED */\n    tag_388:\n        /* \"@openzeppelin/contracts/security/Pausable.sol\":1204:1276  modifier whenNotPaused() {... */\n      pop\n      pop\n      pop\n      jump\t// out\n        /* \"contracts/fountain.sol\":531:8297  contract Serenity is Ownable, Pausable, ReentrancyGuard {... */\n    tag_381:\n      0x00\n      mload(0x40)\n      dup3\n      mload\n      tag_390\n      dup2\n      dup4\n      0x20\n      dup8\n      add\n      tag_140\n      jump\t// in\n    tag_390:\n      dup2\n      add\n      dup2\n      swap1\n      sub\n      swap1\n      keccak256\n      swap3\n      swap2\n      pop\n      pop\n      jump\t// out\n    tag_234:\n      0x00\n      mload(0x40)\n      dup3\n      mload\n      tag_392\n      dup2\n      dup4\n      0x20\n      dup8\n      add\n      tag_140\n      jump\t// in\n    tag_392:\n        /* \"contracts/fountain.sol\":7758:7767  charities */\n      0x04\n        /* \"contracts/fountain.sol\":531:8297  contract Serenity is Ownable, Pausable, ReentrancyGuard {... */\n      swap1\n      dup3\n      add\n      swap1\n      dup2\n      mstore\n      dup2\n      swap1\n      sub\n      0x20\n      add\n      swap1\n      keccak256\n      swap3\n      swap2\n      pop\n      pop\n      jump\t// out\n    tag_162:\n      mstore(0x00, mul(0x4e487b71, exp(0x02, 0xe0)))\n      mstore(0x04, 0x11)\n      revert(0x00, 0x24)\n    tag_224:\n      mstore(0x00, mul(0x4e487b71, exp(0x02, 0xe0)))\n      mstore(0x04, 0x32)\n      revert(0x00, 0x24)\n    tag_151:\n      mstore(0x00, mul(0x4e487b71, exp(0x02, 0xe0)))\n      mstore(0x04, 0x41)\n      revert(0x00, 0x24)\n    tag_375:\n      dup1\n      tag_92\n      jumpi\n      mload(0x40)\n      mul(0x461bcd, exp(0x02, 0xe5))\n      dup2\n      mstore\n      0x20\n      0x04\n      dup3\n      add\n      mstore\n      0x20\n      0x24\n      dup3\n      add\n      mstore\n      0x55534443207472616e7366657220746f2063686172697479206661696c65642e\n      0x44\n      dup3\n      add\n      mstore\n      0x64\n      dup2\n      revert\n    tag_344:\n      dup1\n      tag_92\n      jumpi\n      mload(0x40)\n      mul(0x461bcd, exp(0x02, 0xe5))\n      dup2\n      mstore\n      0x20\n      0x04\n      dup3\n      add\n      mstore\n      0x25\n      0x24\n      dup3\n      add\n      mstore\n      0x417474656d707420746f20646f6e61746520746f20756e6b6e6f776e20636861\n      0x44\n      dup3\n      add\n      mstore\n      0x726974792e000000000000000000000000000000000000000000000000000000\n      0x64\n      dup3\n      add\n      mstore\n      0x84\n      dup2\n      revert\n    tag_387:\n      dup1\n      tag_92\n      jumpi\n      mload(0x40)\n      mul(0x461bcd, exp(0x02, 0xe5))\n      dup2\n      mstore\n      0x20\n      0x04\n      dup3\n      add\n      mstore\n      0x1c\n      0x24\n      dup3\n      add\n      mstore\n      0x4d7573742066696e616c697a6520656e746972652062616c616e636500000000\n      0x44\n      dup3\n      add\n      mstore\n      0x64\n      dup2\n      revert\n    tag_348:\n      dup1\n      tag_92\n      jumpi\n      mload(0x40)\n      mul(0x461bcd, exp(0x02, 0xe5))\n      dup2\n      mstore\n      0x20\n      0x04\n      dup3\n      add\n      mstore\n      0x22\n      0x24\n      dup3\n      add\n      mstore\n      0x546f74616c2066696e616c697a6174696f6e20616d6f756e7420746f6f206869\n      0x44\n      dup3\n      add\n      mstore\n      0x6768000000000000000000000000000000000000000000000000000000000000\n      0x64\n      dup3\n      add\n      mstore\n      0x84\n      dup2\n      revert\n    tag_304:\n      dup1\n      tag_92\n      jumpi\n      mload(0x40)\n      mul(0x461bcd, exp(0x02, 0xe5))\n      dup2\n      mstore\n      0x20\n      0x04\n      dup3\n      add\n      mstore\n      0x27\n      0x24\n      dup3\n      add\n      mstore\n      0x4661696c656420746f2073656e642067617320746f20657068656d6572616c20\n      0x44\n      dup3\n      add\n      mstore\n      0x77616c6c65742e00000000000000000000000000000000000000000000000000\n      0x64\n      dup3\n      add\n      mstore\n      0x84\n      dup2\n      revert\n    tag_331:\n      dup1\n      tag_92\n      jumpi\n      mload(0x40)\n      mul(0x461bcd, exp(0x02, 0xe5))\n      dup2\n      mstore\n      0x20\n      0x04\n      dup3\n      add\n      mstore\n      0x31\n      0x24\n      dup3\n      add\n      mstore\n      0x43686172697469657320616e6420616d6f756e747320617272617973206f6620\n      0x44\n      dup3\n      add\n      mstore\n      0x646966666572656e74206c656e6774682e000000000000000000000000000000\n      0x64\n      dup3\n      add\n      mstore\n      0x84\n      dup2\n      revert\n    tag_329:\n      dup1\n      tag_92\n      jumpi\n      mload(0x40)\n      mul(0x461bcd, exp(0x02, 0xe5))\n      dup2\n      mstore\n      0x20\n      0x04\n      dup3\n      add\n      mstore\n      0x1d\n      0x24\n      dup3\n      add\n      mstore\n      0x556e617574686f72697a6174696f6e2066696e616c697a6174696f6e2e000000\n      0x44\n      dup3\n      add\n      mstore\n      0x64\n      dup2\n      revert\n    tag_277:\n      dup1\n      tag_92\n      jumpi\n      mload(0x40)\n      mul(0x461bcd, exp(0x02, 0xe5))\n      dup2\n      mstore\n      0x20\n      0x04\n      dup3\n      add\n      mstore\n      0x1f\n      0x24\n      dup3\n      add\n      mstore\n      0x5265656e7472616e637947756172643a207265656e7472616e742063616c6c00\n      0x44\n      dup3\n      add\n      mstore\n      0x64\n      dup2\n      revert\n    tag_291:\n      mload(0x40)\n      returndatasize\n      0x00\n      dup3\n      returndatacopy\n      returndatasize\n      dup2\n      revert\n\n    auxdata: 0xa364697066735822122018f3670fc84186c636f1ef88337cbe06f55fd2916cedcbbb5c8e089c91a7198d6c6578706572696d656e74616cf564736f6c63430008070041\n}\n",
				"bytecode": {
					"linkReferences": {},
					"object": "60e060405234156200001057600080fd5b62001c0b803803601f19601f82011660e00160e0811067ffffffffffffffff8211171562000067577f4e487b7100000000000000000000000000000000000000000000000000000000600052604160045260246000fd5b604052808260e03960808112156200007e57600080fd5b505060e0516200008e816200017e565b6101005161012051620000a1816200017e565b61014051620000b0816200017e565b620000be818385876200010a565b50505050604051611a7380620001988339608051828181610100015261106e015260a05182818161021e0152818161121a015261146f015260c05182818161028f015261104001528082f35b6000805433600160a060020a031982168117835560405191929091600160a060020a038416917f8be0079c531659141344cd1fd0a4f28419497f9722a3daafe3b4186f6b6457e091a3600160a860020a0319163360a060020a60ff021916176000556001805560c05260025560805260a052565b600160a060020a03811681146200019457600080fd5b5056fe604060808152600436106103175760007c010000000000000000000000000000000000000000000000000000000081350463480a6fdc81146100b957634aa4a4fc81146100e957635c975abb81146101335763715018a681146101755763720a7dee81146101955763745284ce81146101bd57637aed774681146101e3576389a30271811461020757638da5cb5b811461024d5763c31c9c0781146102785763f2fde38b81146102be5763f8b2cb4f81146102d957610314565b34156100c3578182fd5b6100cc36610464565b6100dc81838587898b8d8f61100d565b5050505050505050818351f35b34156100f3578182fd5b6100fc36610409565b82517f0000000000000000000000000000000000000000000000000000000000000000600160a060020a03168152602081f35b0381f35b341561013d578182fd5b61014636610409565b60ff740100000000000000000000000000000000000000008354041683518061012f8383901515815260200190565b341561017f578182fd5b61018836610409565b610190610ef4565b818351f35b341561019f578182fd5b6101a836610409565b6101b061087b565b83518061012f838361068f565b34156101c7578182fd5b6101d0366104ff565b6101db818385611362565b505050818351f35b34156101ed578182fd5b6101f636610619565b6102008183610bc2565b5050818351f35b3415610211578182fd5b61021a36610409565b82517f0000000000000000000000000000000000000000000000000000000000000000600160a060020a03168152602081f35b3415610257578182fd5b61026036610409565b81548351600160a060020a0390911680825290602081f35b3415610282578182fd5b61028b36610409565b82517f0000000000000000000000000000000000000000000000000000000000000000600160a060020a03168152602081f35b34156102c8578182fd5b6101906102d436610432565b610f43565b34156102e3578182fd5b61030a6102ef36610432565b600160a060020a031660009081526003602052604090205490565b8351818152602081f35b50505b50600080fd5b600435600160a060020a038116811461033557600080fd5b90565b600082601f83011261034957600080fd5b8135610354816107a1565b6040516103618282610a3c565b828152602080820192508581018185028701820188101561038157600080fd5b60005b858110156103a057813585529382019390820190600101610384565b5091979650505050505050565b600082601f8301126103be57600080fd5b81356103c9816107c5565b6040516103d68282610a3c565b8281528560208487010111156103eb57600080fd5b82602086016020830137600092810160200192909252509392505050565b60006003198201121561041b57600080fd5b50565b6000818303121561042e57600080fd5b5050565b600060206003198301121561044657600080fd5b600435600160a060020a038116811461045e57600080fd5b92915050565b6000808080808080806101006003198a01121561048057600080fd5b600435600160a060020a03808216821461049957600080fd5b9098506024359080821682146104ae57600080fd5b50965060443595506064359450608435935060a43562ffffff80821682146104d557600080fd5b90935060c4359080821682146104ea57600080fd5b508092505060e4359050919395975091939597565b6000808060606003198501121561051557600080fd5b61051d61031d565b92506024803567ffffffffffffffff8082111561053957600080fd5b86602383011261054857600080fd5b8160040135610556816107a1565b6040516105638282610a3c565b82815260208082019250858701818502870188018c101561058357600080fd5b60005b858110156105be5781358781111561059d57600080fd5b6105ab8e8b838c01016103ad565b8652509382019390820190600101610586565b50919850506044359550505050808311156105d857600080fd5b50506105e78582600401610338565b93959294505050565b60006020828403121561060257600080fd5b8151801515811461061257600080fd5b9392505050565b60008060406003198401121561062e57600080fd5b60043567ffffffffffffffff81111561064657600080fd5b61065384826004016103ad565b925050602435600160a060020a038116811461066e57600080fd5b919391925050565b60006020828403121561068857600080fd5b5051919050565b600060208083018184528085518083526040860191506040848202870101925083870160005b828110156106fb57878503603f19018452815180518087526106dc818989018a850161096b565b601f01601f1916959095018601945092850192908501906001016106b5565b5092979650505050505050565b600061010082019050600160a060020a0380845116835280602085015116602084015262ffffff60408501511660408401528060608501511660608401526080840151608084015260a084015160a084015260c084015160c08401528060e08501511660e08401525092915050565b604051610100810167ffffffffffffffff8111828210171561079b5761079b61170a565b60405290565b600067ffffffffffffffff8211156107bb576107bb61170a565b5060209081020190565b600067ffffffffffffffff8211156107df576107df61170a565b50601f01601f191660200190565b60008219821115610800576108006116d8565b500190565b6000826108255760e060020a634e487b7102600052601260045260246000fd5b500490565b6000816000190483118215151615610844576108446116d8565b500290565b6000600182101561085c5761085c6116d8565b506000190190565b600082821015610876576108766116d8565b500390565b6000600654610889816107a1565b604080516108978382610a3c565b83815260066000908152909450602080860193507ff652222313e28459528d920b65115c16c04f3efc82aaedc97be59f3f377c0d3f825b868110156109615784518483546108e48161099b565b808452600182811680156108ff57600181146109125761093d565b60ff198416868a01528a8601945061093d565b878a52888a208a5b848110156109355781548882018c0152908301908a0161091a565b87018a019550505b5061094a85850386610a3c565b938a525050509583019591909101906001016108ce565b5050505050505090565b60005b8381101561098657818101518382015260200161096e565b83811115610995576000848401525b50505050565b6002810460018216806109af57607f821691505b602082108114156109d35760e060020a634e487b7102600052602260045260246000fd5b50919050565b60003d8015610a0e573d6109ec816107c5565b6040516109f98282610a3c565b8281528094503d6000602083013e5050505090565b606091505090565b60a0810181811067ffffffffffffffff82111715610a3657610a3661170a565b60405250565b601f8201601f1916810167ffffffffffffffff81118282101715610a6257610a6261170a565b6040525050565b600080828152600860205260408120541560008114610af457600754680100000000000000008110610a9d57610a9d61170a565b6001810180600755808210610ab457610ab46116f1565b507fa66cc928b5edb82af9bd49922954155ab7b0942694bea4ce44661d9a8736c68801849055506007549281526008602052604090209190915550600190565b5092915050565b600160a060020a036000541633811461041b5760405160e560020a62461bcd02815260206004820152602060248201527f4f776e61626c653a2063616c6c6572206973206e6f7420746865206f776e65726044820152606481fd5b60ff74010000000000000000000000000000000000000000600054041615610bc05760405160e560020a62461bcd02815260206004820152601060248201527f5061757361626c653a20706175736564000000000000000000000000000000006044820152606481fd5b565b600160a060020a0380610bd4836116ad565b541615610c235760405160e560020a62461bcd02815260206004820152602060248201527f43686172697479206e616d6520616c726561647920726567697374657265642e6044820152606481fd5b8216600081815260056020526040902054610c3d9061099b565b15610cb05760405160e560020a62461bcd02815260206004820152602360248201527f43686172697479206164647265737320616c726561647920726567697374657260448201527f65642e00000000000000000000000000000000000000000000000000000000006064820152608481fd5b610cda83610cbd846116ad565b600160a060020a038216600160a060020a03198254161781555050565b61099581610a69565b6040517f095ea7b30000000000000000000000000000000000000000000000000000000060208201908152600160a060020a0384166024830152604480830186905282526064610d338184610a3c565b506000808351836000875af1915050610d4a6109d9565b818215610d73578151801580610d6f57610d6c602083860101602086016105f0565b90505b9150505b80610dc257604051925060e560020a62461bcd02835260206004840152600260248401527f53410000000000000000000000000000000000000000000000000000000000006044840152606483fd5b505050505050565b604051602081017f23b872dd000000000000000000000000000000000000000000000000000000008152600160a060020a03808516602484015280861660448401525085606483015260648252610e2082610a16565b6000808351836000875af1915050610e366109d9565b818215610e5f578151801580610e5b57610e58602083860101602086016105f0565b90505b9150505b80610eae57604051925060e560020a62461bcd02835260206004840152600360248401527f53544600000000000000000000000000000000000000000000000000000000006044840152606483fd5b50505050505050565b600060ff821660ff811415610ece57610ece6116d8565b60010192915050565b600081518310610ee957610ee96116f1565b506020918202010190565b610efc610afb565b600054600160a060020a031981166000556000600160a060020a0382167f8be0079c531659141344cd1fd0a4f28419497f9722a3daafe3b4186f6b6457e06000604051a350565b610f4b610afb565b600160a060020a0380821680610fc95760405160e560020a62461bcd02815260206004820152602660248201527f4f776e61626c653a206e6577206f776e657220697320746865207a65726f206160448201527f64647265737300000000000000000000000000000000000000000000000000006064820152608481fd5b60005481600160a060020a0319821617600055838382167f8be0079c531659141344cd1fd0a4f28419497f9722a3daafe3b4186f6b6457e06000604051a350505050565b611015610b56565b60026110258160015414156119d6565b8060015561103584303386610dca565b600160a060020a03807f00000000000000000000000000000000000000000000000000000000000000001661106b868287610ce3565b817f0000000000000000000000000000000000000000000000000000000000000000168354611098610777565b600160a060020a0388168152600160a060020a038316602082015262ffffff8c166040828101919091523060608301528a60808301528260a08301528b60c0830152600092508260e0830152843b6110ee578283fd5b80517fdb3e2198000000000000000000000000000000000000000000000000000000008152602081826111248660048601610708565b0383878a5af192508261113957611139611a23565b8383156111595761114a3d83610a3c565b6111563d830183610676565b90505b88549350853b611167578485fd5b82517f2e1a7d4d0000000000000000000000000000000000000000000000000000000081526004810185905291508482602481838a5af19550856111ad576111ad611a23565b85156111c9576111bd3d83610a3c565b6111c93d83018361041e565b885495508485868551898c8f165af195506111e26109d9565b506111ec866118a3565b6111f6818d610864565b95505050611202610777565b600160a060020a038a1681529150600160a060020a037f0000000000000000000000000000000000000000000000000000000000000000871616602083015262ffffff8e16828201523060608301528a60808301528360a08301528e60c08301528260e0830152843b611273578283fd5b805195507f414bf389000000000000000000000000000000000000000000000000000000008652602086876112ab8560048b01610708565b038886895af19450846112c0576112c0611a23565b82935084156112e2576112d33d87610a3c565b6112df3d870187610676565b93505b600160a060020a038816600090815260036020526040902095506113078487546107ed565b909555505092549151868152602081018390526040810184905291928585337f0860654ad3d0539dbac86150676768b53a47900bb45c5eb8d8d000ffbc4f67e6606087a45050505061135860018055565b5050505050505050565b61136a610b56565b611379600260015414156119d6565b6002600155600160a060020a038082163314806113a9576113a48260005416600160a060020a031690565b331490505b6113b281611989565b5082516113c185518214611916565b506000805b845160ff82168181106113da57505061143e565b6113ee6113e7828a610ed7565b51856107ed565b935061142c61142561141961140c611406858c610ed7565b516116ad565b54600160a060020a031690565b600160a060020a031690565b1515611770565b505061143781610eb7565b90506113c6565b5061146961146084600160a060020a0316600090815260036020526040902090565b54821115611830565b600080837f00000000000000000000000000000000000000000000000000000000000000001693505b855160ff82168181106114a6575050611650565b6114b0818a610ed7565b5191506114db856114d589600160a060020a0316600090815260036020526040902090565b54610864565b6115016114fb6114f5886114ef868f610ed7565b51610805565b8361082a565b846107ed565b92505061150e8851610849565b81141561153a57611537846114d589600160a060020a0316600090815260036020526040902090565b91505b61154a61140c611406838b610ed7565b863b61155557600080fd5b604080517fa9059cbb000000000000000000000000000000000000000000000000000000008152600160a060020a03831660048201526024810185905260208160448160008d5af19250826115ac576115ac611a23565b600083156115cd576115be3d83610a3c565b6115ca3d8301836105f0565b90505b6115d681611723565b50506115e2838b610ed7565b5191506115f561140c611406858d610ed7565b92506116008261168b565b905184815290915082828a7fb0657052acbf78260696b569dbe3a1f1f39287b5a3c378f5bca0c20fbf062dec602085a450505061163d81846107ed565b92505061164981610eb7565b9050611492565b5061167a61167285600160a060020a0316600090815260036020526040902090565b5482146117e3565b50505061168660018055565b505050565b600060405182516116a081836020870161096b565b8101819003902092915050565b600060405182516116c281836020870161096b565b6004908201908152819003602001902092915050565b60e060020a634e487b7102600052601160045260246000fd5b60e060020a634e487b7102600052603260045260246000fd5b60e060020a634e487b7102600052604160045260246000fd5b8061041b5760405160e560020a62461bcd02815260206004820152602060248201527f55534443207472616e7366657220746f2063686172697479206661696c65642e6044820152606481fd5b8061041b5760405160e560020a62461bcd02815260206004820152602560248201527f417474656d707420746f20646f6e61746520746f20756e6b6e6f776e2063686160448201527f726974792e0000000000000000000000000000000000000000000000000000006064820152608481fd5b8061041b5760405160e560020a62461bcd02815260206004820152601c60248201527f4d7573742066696e616c697a6520656e746972652062616c616e6365000000006044820152606481fd5b8061041b5760405160e560020a62461bcd02815260206004820152602260248201527f546f74616c2066696e616c697a6174696f6e20616d6f756e7420746f6f20686960448201527f67680000000000000000000000000000000000000000000000000000000000006064820152608481fd5b8061041b5760405160e560020a62461bcd02815260206004820152602760248201527f4661696c656420746f2073656e642067617320746f20657068656d6572616c2060448201527f77616c6c65742e000000000000000000000000000000000000000000000000006064820152608481fd5b8061041b5760405160e560020a62461bcd02815260206004820152603160248201527f43686172697469657320616e6420616d6f756e747320617272617973206f662060448201527f646966666572656e74206c656e6774682e0000000000000000000000000000006064820152608481fd5b8061041b5760405160e560020a62461bcd02815260206004820152601d60248201527f556e617574686f72697a6174696f6e2066696e616c697a6174696f6e2e0000006044820152606481fd5b8061041b5760405160e560020a62461bcd02815260206004820152601f60248201527f5265656e7472616e637947756172643a207265656e7472616e742063616c6c006044820152606481fd5b6040513d6000823e3d81fdfea364697066735822122018f3670fc84186c636f1ef88337cbe06f55fd2916cedcbbb5c8e089c91a7198d6c6578706572696d656e74616cf564736f6c63430008070041",
					"opcodes": "PUSH1 0xE0 PUSH1 0x40 MSTORE CALLVALUE ISZERO PUSH3 0x10 JUMPI PUSH1 0x0 DUP1 REVERT JUMPDEST PUSH3 0x1C0B DUP1 CODESIZE SUB PUSH1 0x1F NOT PUSH1 0x1F DUP3 ADD AND PUSH1 0xE0 ADD PUSH1 0xE0 DUP2 LT PUSH8 0xFFFFFFFFFFFFFFFF DUP3 GT OR ISZERO PUSH3 0x67 JUMPI PUSH32 0x4E487B7100000000000000000000000000000000000000000000000000000000 PUSH1 0x0 MSTORE PUSH1 0x41 PUSH1 0x4 MSTORE PUSH1 0x24 PUSH1 0x0 REVERT JUMPDEST PUSH1 0x40 MSTORE DUP1 DUP3 PUSH1 0xE0 CODECOPY PUSH1 0x80 DUP2 SLT ISZERO PUSH3 0x7E JUMPI PUSH1 0x0 DUP1 REVERT JUMPDEST POP POP PUSH1 0xE0 MLOAD PUSH3 0x8E DUP2 PUSH3 0x17E JUMP JUMPDEST PUSH2 0x100 MLOAD PUSH2 0x120 MLOAD PUSH3 0xA1 DUP2 PUSH3 0x17E JUMP JUMPDEST PUSH2 0x140 MLOAD PUSH3 0xB0 DUP2 PUSH3 0x17E JUMP JUMPDEST PUSH3 0xBE DUP2 DUP4 DUP6 DUP8 PUSH3 0x10A JUMP JUMPDEST POP POP POP POP PUSH1 0x40 MLOAD PUSH2 0x1A73 DUP1 PUSH3 0x198 DUP4 CODECOPY PUSH1 0x80 MLOAD DUP3 DUP2 DUP2 PUSH2 0x100 ADD MSTORE PUSH2 0x106E ADD MSTORE PUSH1 0xA0 MLOAD DUP3 DUP2 DUP2 PUSH2 0x21E ADD MSTORE DUP2 DUP2 PUSH2 0x121A ADD MSTORE PUSH2 0x146F ADD MSTORE PUSH1 0xC0 MLOAD DUP3 DUP2 DUP2 PUSH2 0x28F ADD MSTORE PUSH2 0x1040 ADD MSTORE DUP1 DUP3 RETURN JUMPDEST PUSH1 0x0 DUP1 SLOAD CALLER PUSH1 0x1 PUSH1 0xA0 PUSH1 0x2 EXP SUB NOT DUP3 AND DUP2 OR DUP4 SSTORE PUSH1 0x40 MLOAD SWAP2 SWAP3 SWAP1 SWAP2 PUSH1 0x1 PUSH1 0xA0 PUSH1 0x2 EXP SUB DUP5 AND SWAP2 PUSH32 0x8BE0079C531659141344CD1FD0A4F28419497F9722A3DAAFE3B4186F6B6457E0 SWAP2 LOG3 PUSH1 0x1 PUSH1 0xA8 PUSH1 0x2 EXP SUB NOT AND CALLER PUSH1 0xA0 PUSH1 0x2 EXP PUSH1 0xFF MUL NOT AND OR PUSH1 0x0 SSTORE PUSH1 0x1 DUP1 SSTORE PUSH1 0xC0 MSTORE PUSH1 0x2 SSTORE PUSH1 0x80 MSTORE PUSH1 0xA0 MSTORE JUMP JUMPDEST PUSH1 0x1 PUSH1 0xA0 PUSH1 0x2 EXP SUB DUP2 AND DUP2 EQ PUSH3 0x194 JUMPI PUSH1 0x0 DUP1 REVERT JUMPDEST POP JUMP INVALID PUSH1 0x40 PUSH1 0x80 DUP2 MSTORE PUSH1 0x4 CALLDATASIZE LT PUSH2 0x317 JUMPI PUSH1 0x0 PUSH29 0x100000000000000000000000000000000000000000000000000000000 DUP2 CALLDATALOAD DIV PUSH4 0x480A6FDC DUP2 EQ PUSH2 0xB9 JUMPI PUSH4 0x4AA4A4FC DUP2 EQ PUSH2 0xE9 JUMPI PUSH4 0x5C975ABB DUP2 EQ PUSH2 0x133 JUMPI PUSH4 0x715018A6 DUP2 EQ PUSH2 0x175 JUMPI PUSH4 0x720A7DEE DUP2 EQ PUSH2 0x195 JUMPI PUSH4 0x745284CE DUP2 EQ PUSH2 0x1BD JUMPI PUSH4 0x7AED7746 DUP2 EQ PUSH2 0x1E3 JUMPI PUSH4 0x89A30271 DUP2 EQ PUSH2 0x207 JUMPI PUSH4 0x8DA5CB5B DUP2 EQ PUSH2 0x24D JUMPI PUSH4 0xC31C9C07 DUP2 EQ PUSH2 0x278 JUMPI PUSH4 0xF2FDE38B DUP2 EQ PUSH2 0x2BE JUMPI PUSH4 0xF8B2CB4F DUP2 EQ PUSH2 0x2D9 JUMPI PUSH2 0x314 JUMP JUMPDEST CALLVALUE ISZERO PUSH2 0xC3 JUMPI DUP2 DUP3 REVERT JUMPDEST PUSH2 0xCC CALLDATASIZE PUSH2 0x464 JUMP JUMPDEST PUSH2 0xDC DUP2 DUP4 DUP6 DUP8 DUP10 DUP12 DUP14 DUP16 PUSH2 0x100D JUMP JUMPDEST POP POP POP POP POP POP POP POP DUP2 DUP4 MLOAD RETURN JUMPDEST CALLVALUE ISZERO PUSH2 0xF3 JUMPI DUP2 DUP3 REVERT JUMPDEST PUSH2 0xFC CALLDATASIZE PUSH2 0x409 JUMP JUMPDEST DUP3 MLOAD PUSH32 0x0 PUSH1 0x1 PUSH1 0xA0 PUSH1 0x2 EXP SUB AND DUP2 MSTORE PUSH1 0x20 DUP2 RETURN JUMPDEST SUB DUP2 RETURN JUMPDEST CALLVALUE ISZERO PUSH2 0x13D JUMPI DUP2 DUP3 REVERT JUMPDEST PUSH2 0x146 CALLDATASIZE PUSH2 0x409 JUMP JUMPDEST PUSH1 0xFF PUSH21 0x10000000000000000000000000000000000000000 DUP4 SLOAD DIV AND DUP4 MLOAD DUP1 PUSH2 0x12F DUP4 DUP4 SWAP1 ISZERO ISZERO DUP2 MSTORE PUSH1 0x20 ADD SWAP1 JUMP JUMPDEST CALLVALUE ISZERO PUSH2 0x17F JUMPI DUP2 DUP3 REVERT JUMPDEST PUSH2 0x188 CALLDATASIZE PUSH2 0x409 JUMP JUMPDEST PUSH2 0x190 PUSH2 0xEF4 JUMP JUMPDEST DUP2 DUP4 MLOAD RETURN JUMPDEST CALLVALUE ISZERO PUSH2 0x19F JUMPI DUP2 DUP3 REVERT JUMPDEST PUSH2 0x1A8 CALLDATASIZE PUSH2 0x409 JUMP JUMPDEST PUSH2 0x1B0 PUSH2 0x87B JUMP JUMPDEST DUP4 MLOAD DUP1 PUSH2 0x12F DUP4 DUP4 PUSH2 0x68F JUMP JUMPDEST CALLVALUE ISZERO PUSH2 0x1C7 JUMPI DUP2 DUP3 REVERT JUMPDEST PUSH2 0x1D0 CALLDATASIZE PUSH2 0x4FF JUMP JUMPDEST PUSH2 0x1DB DUP2 DUP4 DUP6 PUSH2 0x1362 JUMP JUMPDEST POP POP POP DUP2 DUP4 MLOAD RETURN JUMPDEST CALLVALUE ISZERO PUSH2 0x1ED JUMPI DUP2 DUP3 REVERT JUMPDEST PUSH2 0x1F6 CALLDATASIZE PUSH2 0x619 JUMP JUMPDEST PUSH2 0x200 DUP2 DUP4 PUSH2 0xBC2 JUMP JUMPDEST POP POP DUP2 DUP4 MLOAD RETURN JUMPDEST CALLVALUE ISZERO PUSH2 0x211 JUMPI DUP2 DUP3 REVERT JUMPDEST PUSH2 0x21A CALLDATASIZE PUSH2 0x409 JUMP JUMPDEST DUP3 MLOAD PUSH32 0x0 PUSH1 0x1 PUSH1 0xA0 PUSH1 0x2 EXP SUB AND DUP2 MSTORE PUSH1 0x20 DUP2 RETURN JUMPDEST CALLVALUE ISZERO PUSH2 0x257 JUMPI DUP2 DUP3 REVERT JUMPDEST PUSH2 0x260 CALLDATASIZE PUSH2 0x409 JUMP JUMPDEST DUP2 SLOAD DUP4 MLOAD PUSH1 0x1 PUSH1 0xA0 PUSH1 0x2 EXP SUB SWAP1 SWAP2 AND DUP1 DUP3 MSTORE SWAP1 PUSH1 0x20 DUP2 RETURN JUMPDEST CALLVALUE ISZERO PUSH2 0x282 JUMPI DUP2 DUP3 REVERT JUMPDEST PUSH2 0x28B CALLDATASIZE PUSH2 0x409 JUMP JUMPDEST DUP3 MLOAD PUSH32 0x0 PUSH1 0x1 PUSH1 0xA0 PUSH1 0x2 EXP SUB AND DUP2 MSTORE PUSH1 0x20 DUP2 RETURN JUMPDEST CALLVALUE ISZERO PUSH2 0x2C8 JUMPI DUP2 DUP3 REVERT JUMPDEST PUSH2 0x190 PUSH2 0x2D4 CALLDATASIZE PUSH2 0x432 JUMP JUMPDEST PUSH2 0xF43 JUMP JUMPDEST CALLVALUE ISZERO PUSH2 0x2E3 JUMPI DUP2 DUP3 REVERT JUMPDEST PUSH2 0x30A PUSH2 0x2EF CALLDATASIZE PUSH2 0x432 JUMP JUMPDEST PUSH1 0x1 PUSH1 0xA0 PUSH1 0x2 EXP SUB AND PUSH1 0x0 SWAP1 DUP2 MSTORE PUSH1 0x3 PUSH1 0x20 MSTORE PUSH1 0x40 SWAP1 KECCAK256 SLOAD SWAP1 JUMP JUMPDEST DUP4 MLOAD DUP2 DUP2 MSTORE PUSH1 0x20 DUP2 RETURN JUMPDEST POP POP JUMPDEST POP PUSH1 0x0 DUP1 REVERT JUMPDEST PUSH1 0x4 CALLDATALOAD PUSH1 0x1 PUSH1 0xA0 PUSH1 0x2 EXP SUB DUP2 AND DUP2 EQ PUSH2 0x335 JUMPI PUSH1 0x0 DUP1 REVERT JUMPDEST SWAP1 JUMP JUMPDEST PUSH1 0x0 DUP3 PUSH1 0x1F DUP4 ADD SLT PUSH2 0x349 JUMPI PUSH1 0x0 DUP1 REVERT JUMPDEST DUP2 CALLDATALOAD PUSH2 0x354 DUP2 PUSH2 0x7A1 JUMP JUMPDEST PUSH1 0x40 MLOAD PUSH2 0x361 DUP3 DUP3 PUSH2 0xA3C JUMP JUMPDEST DUP3 DUP2 MSTORE PUSH1 0x20 DUP1 DUP3 ADD SWAP3 POP DUP6 DUP2 ADD DUP2 DUP6 MUL DUP8 ADD DUP3 ADD DUP9 LT ISZERO PUSH2 0x381 JUMPI PUSH1 0x0 DUP1 REVERT JUMPDEST PUSH1 0x0 JUMPDEST DUP6 DUP2 LT ISZERO PUSH2 0x3A0 JUMPI DUP2 CALLDATALOAD DUP6 MSTORE SWAP4 DUP3 ADD SWAP4 SWAP1 DUP3 ADD SWAP1 PUSH1 0x1 ADD PUSH2 0x384 JUMP JUMPDEST POP SWAP2 SWAP8 SWAP7 POP POP POP POP POP POP POP JUMP JUMPDEST PUSH1 0x0 DUP3 PUSH1 0x1F DUP4 ADD SLT PUSH2 0x3BE JUMPI PUSH1 0x0 DUP1 REVERT JUMPDEST DUP2 CALLDATALOAD PUSH2 0x3C9 DUP2 PUSH2 0x7C5 JUMP JUMPDEST PUSH1 0x40 MLOAD PUSH2 0x3D6 DUP3 DUP3 PUSH2 0xA3C JUMP JUMPDEST DUP3 DUP2 MSTORE DUP6 PUSH1 0x20 DUP5 DUP8 ADD ADD GT ISZERO PUSH2 0x3EB JUMPI PUSH1 0x0 DUP1 REVERT JUMPDEST DUP3 PUSH1 0x20 DUP7 ADD PUSH1 0x20 DUP4 ADD CALLDATACOPY PUSH1 0x0 SWAP3 DUP2 ADD PUSH1 0x20 ADD SWAP3 SWAP1 SWAP3 MSTORE POP SWAP4 SWAP3 POP POP POP JUMP JUMPDEST PUSH1 0x0 PUSH1 0x3 NOT DUP3 ADD SLT ISZERO PUSH2 0x41B JUMPI PUSH1 0x0 DUP1 REVERT JUMPDEST POP JUMP JUMPDEST PUSH1 0x0 DUP2 DUP4 SUB SLT ISZERO PUSH2 0x42E JUMPI PUSH1 0x0 DUP1 REVERT JUMPDEST POP POP JUMP JUMPDEST PUSH1 0x0 PUSH1 0x20 PUSH1 0x3 NOT DUP4 ADD SLT ISZERO PUSH2 0x446 JUMPI PUSH1 0x0 DUP1 REVERT JUMPDEST PUSH1 0x4 CALLDATALOAD PUSH1 0x1 PUSH1 0xA0 PUSH1 0x2 EXP SUB DUP2 AND DUP2 EQ PUSH2 0x45E JUMPI PUSH1 0x0 DUP1 REVERT JUMPDEST SWAP3 SWAP2 POP POP JUMP JUMPDEST PUSH1 0x0 DUP1 DUP1 DUP1 DUP1 DUP1 DUP1 DUP1 PUSH2 0x100 PUSH1 0x3 NOT DUP11 ADD SLT ISZERO PUSH2 0x480 JUMPI PUSH1 0x0 DUP1 REVERT JUMPDEST PUSH1 0x4 CALLDATALOAD PUSH1 0x1 PUSH1 0xA0 PUSH1 0x2 EXP SUB DUP1 DUP3 AND DUP3 EQ PUSH2 0x499 JUMPI PUSH1 0x0 DUP1 REVERT JUMPDEST SWAP1 SWAP9 POP PUSH1 0x24 CALLDATALOAD SWAP1 DUP1 DUP3 AND DUP3 EQ PUSH2 0x4AE JUMPI PUSH1 0x0 DUP1 REVERT JUMPDEST POP SWAP7 POP PUSH1 0x44 CALLDATALOAD SWAP6 POP PUSH1 0x64 CALLDATALOAD SWAP5 POP PUSH1 0x84 CALLDATALOAD SWAP4 POP PUSH1 0xA4 CALLDATALOAD PUSH3 0xFFFFFF DUP1 DUP3 AND DUP3 EQ PUSH2 0x4D5 JUMPI PUSH1 0x0 DUP1 REVERT JUMPDEST SWAP1 SWAP4 POP PUSH1 0xC4 CALLDATALOAD SWAP1 DUP1 DUP3 AND DUP3 EQ PUSH2 0x4EA JUMPI PUSH1 0x0 DUP1 REVERT JUMPDEST POP DUP1 SWAP3 POP POP PUSH1 0xE4 CALLDATALOAD SWAP1 POP SWAP2 SWAP4 SWAP6 SWAP8 POP SWAP2 SWAP4 SWAP6 SWAP8 JUMP JUMPDEST PUSH1 0x0 DUP1 DUP1 PUSH1 0x60 PUSH1 0x3 NOT DUP6 ADD SLT ISZERO PUSH2 0x515 JUMPI PUSH1 0x0 DUP1 REVERT JUMPDEST PUSH2 0x51D PUSH2 0x31D JUMP JUMPDEST SWAP3 POP PUSH1 0x24 DUP1 CALLDATALOAD PUSH8 0xFFFFFFFFFFFFFFFF DUP1 DUP3 GT ISZERO PUSH2 0x539 JUMPI PUSH1 0x0 DUP1 REVERT JUMPDEST DUP7 PUSH1 0x23 DUP4 ADD SLT PUSH2 0x548 JUMPI PUSH1 0x0 DUP1 REVERT JUMPDEST DUP2 PUSH1 0x4 ADD CALLDATALOAD PUSH2 0x556 DUP2 PUSH2 0x7A1 JUMP JUMPDEST PUSH1 0x40 MLOAD PUSH2 0x563 DUP3 DUP3 PUSH2 0xA3C JUMP JUMPDEST DUP3 DUP2 MSTORE PUSH1 0x20 DUP1 DUP3 ADD SWAP3 POP DUP6 DUP8 ADD DUP2 DUP6 MUL DUP8 ADD DUP9 ADD DUP13 LT ISZERO PUSH2 0x583 JUMPI PUSH1 0x0 DUP1 REVERT JUMPDEST PUSH1 0x0 JUMPDEST DUP6 DUP2 LT ISZERO PUSH2 0x5BE JUMPI DUP2 CALLDATALOAD DUP8 DUP2 GT ISZERO PUSH2 0x59D JUMPI PUSH1 0x0 DUP1 REVERT JUMPDEST PUSH2 0x5AB DUP15 DUP12 DUP4 DUP13 ADD ADD PUSH2 0x3AD JUMP JUMPDEST DUP7 MSTORE POP SWAP4 DUP3 ADD SWAP4 SWAP1 DUP3 ADD SWAP1 PUSH1 0x1 ADD PUSH2 0x586 JUMP JUMPDEST POP SWAP2 SWAP9 POP POP PUSH1 0x44 CALLDATALOAD SWAP6 POP POP POP POP DUP1 DUP4 GT ISZERO PUSH2 0x5D8 JUMPI PUSH1 0x0 DUP1 REVERT JUMPDEST POP POP PUSH2 0x5E7 DUP6 DUP3 PUSH1 0x4 ADD PUSH2 0x338 JUMP JUMPDEST SWAP4 SWAP6 SWAP3 SWAP5 POP POP POP JUMP JUMPDEST PUSH1 0x0 PUSH1 0x20 DUP3 DUP5 SUB SLT ISZERO PUSH2 0x602 JUMPI PUSH1 0x0 DUP1 REVERT JUMPDEST DUP2 MLOAD DUP1 ISZERO ISZERO DUP2 EQ PUSH2 0x612 JUMPI PUSH1 0x0 DUP1 REVERT JUMPDEST SWAP4 SWAP3 POP POP POP JUMP JUMPDEST PUSH1 0x0 DUP1 PUSH1 0x40 PUSH1 0x3 NOT DUP5 ADD SLT ISZERO PUSH2 0x62E JUMPI PUSH1 0x0 DUP1 REVERT JUMPDEST PUSH1 0x4 CALLDATALOAD PUSH8 0xFFFFFFFFFFFFFFFF DUP2 GT ISZERO PUSH2 0x646 JUMPI PUSH1 0x0 DUP1 REVERT JUMPDEST PUSH2 0x653 DUP5 DUP3 PUSH1 0x4 ADD PUSH2 0x3AD JUMP JUMPDEST SWAP3 POP POP PUSH1 0x24 CALLDATALOAD PUSH1 0x1 PUSH1 0xA0 PUSH1 0x2 EXP SUB DUP2 AND DUP2 EQ PUSH2 0x66E JUMPI PUSH1 0x0 DUP1 REVERT JUMPDEST SWAP2 SWAP4 SWAP2 SWAP3 POP POP JUMP JUMPDEST PUSH1 0x0 PUSH1 0x20 DUP3 DUP5 SUB SLT ISZERO PUSH2 0x688 JUMPI PUSH1 0x0 DUP1 REVERT JUMPDEST POP MLOAD SWAP2 SWAP1 POP JUMP JUMPDEST PUSH1 0x0 PUSH1 0x20 DUP1 DUP4 ADD DUP2 DUP5 MSTORE DUP1 DUP6 MLOAD DUP1 DUP4 MSTORE PUSH1 0x40 DUP7 ADD SWAP2 POP PUSH1 0x40 DUP5 DUP3 MUL DUP8 ADD ADD SWAP3 POP DUP4 DUP8 ADD PUSH1 0x0 JUMPDEST DUP3 DUP2 LT ISZERO PUSH2 0x6FB JUMPI DUP8 DUP6 SUB PUSH1 0x3F NOT ADD DUP5 MSTORE DUP2 MLOAD DUP1 MLOAD DUP1 DUP8 MSTORE PUSH2 0x6DC DUP2 DUP10 DUP10 ADD DUP11 DUP6 ADD PUSH2 0x96B JUMP JUMPDEST PUSH1 0x1F ADD PUSH1 0x1F NOT AND SWAP6 SWAP1 SWAP6 ADD DUP7 ADD SWAP5 POP SWAP3 DUP6 ADD SWAP3 SWAP1 DUP6 ADD SWAP1 PUSH1 0x1 ADD PUSH2 0x6B5 JUMP JUMPDEST POP SWAP3 SWAP8 SWAP7 POP POP POP POP POP POP POP JUMP JUMPDEST PUSH1 0x0 PUSH2 0x100 DUP3 ADD SWAP1 POP PUSH1 0x1 PUSH1 0xA0 PUSH1 0x2 EXP SUB DUP1 DUP5 MLOAD AND DUP4 MSTORE DUP1 PUSH1 0x20 DUP6 ADD MLOAD AND PUSH1 0x20 DUP5 ADD MSTORE PUSH3 0xFFFFFF PUSH1 0x40 DUP6 ADD MLOAD AND PUSH1 0x40 DUP5 ADD MSTORE DUP1 PUSH1 0x60 DUP6 ADD MLOAD AND PUSH1 0x60 DUP5 ADD MSTORE PUSH1 0x80 DUP5 ADD MLOAD PUSH1 0x80 DUP5 ADD MSTORE PUSH1 0xA0 DUP5 ADD MLOAD PUSH1 0xA0 DUP5 ADD MSTORE PUSH1 0xC0 DUP5 ADD MLOAD PUSH1 0xC0 DUP5 ADD MSTORE DUP1 PUSH1 0xE0 DUP6 ADD MLOAD AND PUSH1 0xE0 DUP5 ADD MSTORE POP SWAP3 SWAP2 POP POP JUMP JUMPDEST PUSH1 0x40 MLOAD PUSH2 0x100 DUP2 ADD PUSH8 0xFFFFFFFFFFFFFFFF DUP2 GT DUP3 DUP3 LT OR ISZERO PUSH2 0x79B JUMPI PUSH2 0x79B PUSH2 0x170A JUMP JUMPDEST PUSH1 0x40 MSTORE SWAP1 JUMP JUMPDEST PUSH1 0x0 PUSH8 0xFFFFFFFFFFFFFFFF DUP3 GT ISZERO PUSH2 0x7BB JUMPI PUSH2 0x7BB PUSH2 0x170A JUMP JUMPDEST POP PUSH1 0x20 SWAP1 DUP2 MUL ADD SWAP1 JUMP JUMPDEST PUSH1 0x0 PUSH8 0xFFFFFFFFFFFFFFFF DUP3 GT ISZERO PUSH2 0x7DF JUMPI PUSH2 0x7DF PUSH2 0x170A JUMP JUMPDEST POP PUSH1 0x1F ADD PUSH1 0x1F NOT AND PUSH1 0x20 ADD SWAP1 JUMP JUMPDEST PUSH1 0x0 DUP3 NOT DUP3 GT ISZERO PUSH2 0x800 JUMPI PUSH2 0x800 PUSH2 0x16D8 JUMP JUMPDEST POP ADD SWAP1 JUMP JUMPDEST PUSH1 0x0 DUP3 PUSH2 0x825 JUMPI PUSH1 0xE0 PUSH1 0x2 EXP PUSH4 0x4E487B71 MUL PUSH1 0x0 MSTORE PUSH1 0x12 PUSH1 0x4 MSTORE PUSH1 0x24 PUSH1 0x0 REVERT JUMPDEST POP DIV SWAP1 JUMP JUMPDEST PUSH1 0x0 DUP2 PUSH1 0x0 NOT DIV DUP4 GT DUP3 ISZERO ISZERO AND ISZERO PUSH2 0x844 JUMPI PUSH2 0x844 PUSH2 0x16D8 JUMP JUMPDEST POP MUL SWAP1 JUMP JUMPDEST PUSH1 0x0 PUSH1 0x1 DUP3 LT ISZERO PUSH2 0x85C JUMPI PUSH2 0x85C PUSH2 0x16D8 JUMP JUMPDEST POP PUSH1 0x0 NOT ADD SWAP1 JUMP JUMPDEST PUSH1 0x0 DUP3 DUP3 LT ISZERO PUSH2 0x876 JUMPI PUSH2 0x876 PUSH2 0x16D8 JUMP JUMPDEST POP SUB SWAP1 JUMP JUMPDEST PUSH1 0x0 PUSH1 0x6 SLOAD PUSH2 0x889 DUP2 PUSH2 0x7A1 JUMP JUMPDEST PUSH1 0x40 DUP1 MLOAD PUSH2 0x897 DUP4 DUP3 PUSH2 0xA3C JUMP JUMPDEST DUP4 DUP2 MSTORE PUSH1 0x6 PUSH1 0x0 SWAP1 DUP2 MSTORE SWAP1 SWAP5 POP PUSH1 0x20 DUP1 DUP7 ADD SWAP4 POP PUSH32 0xF652222313E28459528D920B65115C16C04F3EFC82AAEDC97BE59F3F377C0D3F DUP3 JUMPDEST DUP7 DUP2 LT ISZERO PUSH2 0x961 JUMPI DUP5 MLOAD DUP5 DUP4 SLOAD PUSH2 0x8E4 DUP2 PUSH2 0x99B JUMP JUMPDEST DUP1 DUP5 MSTORE PUSH1 0x1 DUP3 DUP2 AND DUP1 ISZERO PUSH2 0x8FF JUMPI PUSH1 0x1 DUP2 EQ PUSH2 0x912 JUMPI PUSH2 0x93D JUMP JUMPDEST PUSH1 0xFF NOT DUP5 AND DUP7 DUP11 ADD MSTORE DUP11 DUP7 ADD SWAP5 POP PUSH2 0x93D JUMP JUMPDEST DUP8 DUP11 MSTORE DUP9 DUP11 KECCAK256 DUP11 JUMPDEST DUP5 DUP2 LT ISZERO PUSH2 0x935 JUMPI DUP2 SLOAD DUP9 DUP3 ADD DUP13 ADD MSTORE SWAP1 DUP4 ADD SWAP1 DUP11 ADD PUSH2 0x91A JUMP JUMPDEST DUP8 ADD DUP11 ADD SWAP6 POP POP JUMPDEST POP PUSH2 0x94A DUP6 DUP6 SUB DUP7 PUSH2 0xA3C JUMP JUMPDEST SWAP4 DUP11 MSTORE POP POP POP SWAP6 DUP4 ADD SWAP6 SWAP2 SWAP1 SWAP2 ADD SWAP1 PUSH1 0x1 ADD PUSH2 0x8CE JUMP JUMPDEST POP POP POP POP POP POP POP SWAP1 JUMP JUMPDEST PUSH1 0x0 JUMPDEST DUP4 DUP2 LT ISZERO PUSH2 0x986 JUMPI DUP2 DUP2 ADD MLOAD DUP4 DUP3 ADD MSTORE PUSH1 0x20 ADD PUSH2 0x96E JUMP JUMPDEST DUP4 DUP2 GT ISZERO PUSH2 0x995 JUMPI PUSH1 0x0 DUP5 DUP5 ADD MSTORE JUMPDEST POP POP POP POP JUMP JUMPDEST PUSH1 0x2 DUP2 DIV PUSH1 0x1 DUP3 AND DUP1 PUSH2 0x9AF JUMPI PUSH1 0x7F DUP3 AND SWAP2 POP JUMPDEST PUSH1 0x20 DUP3 LT DUP2 EQ ISZERO PUSH2 0x9D3 JUMPI PUSH1 0xE0 PUSH1 0x2 EXP PUSH4 0x4E487B71 MUL PUSH1 0x0 MSTORE PUSH1 0x22 PUSH1 0x4 MSTORE PUSH1 0x24 PUSH1 0x0 REVERT JUMPDEST POP SWAP2 SWAP1 POP JUMP JUMPDEST PUSH1 0x0 RETURNDATASIZE DUP1 ISZERO PUSH2 0xA0E JUMPI RETURNDATASIZE PUSH2 0x9EC DUP2 PUSH2 0x7C5 JUMP JUMPDEST PUSH1 0x40 MLOAD PUSH2 0x9F9 DUP3 DUP3 PUSH2 0xA3C JUMP JUMPDEST DUP3 DUP2 MSTORE DUP1 SWAP5 POP RETURNDATASIZE PUSH1 0x0 PUSH1 0x20 DUP4 ADD RETURNDATACOPY POP POP POP POP SWAP1 JUMP JUMPDEST PUSH1 0x60 SWAP2 POP POP SWAP1 JUMP JUMPDEST PUSH1 0xA0 DUP2 ADD DUP2 DUP2 LT PUSH8 0xFFFFFFFFFFFFFFFF DUP3 GT OR ISZERO PUSH2 0xA36 JUMPI PUSH2 0xA36 PUSH2 0x170A JUMP JUMPDEST PUSH1 0x40 MSTORE POP JUMP JUMPDEST PUSH1 0x1F DUP3 ADD PUSH1 0x1F NOT AND DUP2 ADD PUSH8 0xFFFFFFFFFFFFFFFF DUP2 GT DUP3 DUP3 LT OR ISZERO PUSH2 0xA62 JUMPI PUSH2 0xA62 PUSH2 0x170A JUMP JUMPDEST PUSH1 0x40 MSTORE POP POP JUMP JUMPDEST PUSH1 0x0 DUP1 DUP3 DUP2 MSTORE PUSH1 0x8 PUSH1 0x20 MSTORE PUSH1 0x40 DUP2 KECCAK256 SLOAD ISZERO PUSH1 0x0 DUP2 EQ PUSH2 0xAF4 JUMPI PUSH1 0x7 SLOAD PUSH9 0x10000000000000000 DUP2 LT PUSH2 0xA9D JUMPI PUSH2 0xA9D PUSH2 0x170A JUMP JUMPDEST PUSH1 0x1 DUP2 ADD DUP1 PUSH1 0x7 SSTORE DUP1 DUP3 LT PUSH2 0xAB4 JUMPI PUSH2 0xAB4 PUSH2 0x16F1 JUMP JUMPDEST POP PUSH32 0xA66CC928B5EDB82AF9BD49922954155AB7B0942694BEA4CE44661D9A8736C688 ADD DUP5 SWAP1 SSTORE POP PUSH1 0x7 SLOAD SWAP3 DUP2 MSTORE PUSH1 0x8 PUSH1 0x20 MSTORE PUSH1 0x40 SWAP1 KECCAK256 SWAP2 SWAP1 SWAP2 SSTORE POP PUSH1 0x1 SWAP1 JUMP JUMPDEST POP SWAP3 SWAP2 POP POP JUMP JUMPDEST PUSH1 0x1 PUSH1 0xA0 PUSH1 0x2 EXP SUB PUSH1 0x0 SLOAD AND CALLER DUP2 EQ PUSH2 0x41B JUMPI PUSH1 0x40 MLOAD PUSH1 0xE5 PUSH1 0x2 EXP PUSH3 0x461BCD MUL DUP2 MSTORE PUSH1 0x20 PUSH1 0x4 DUP3 ADD MSTORE PUSH1 0x20 PUSH1 0x24 DUP3 ADD MSTORE PUSH32 0x4F776E61626C653A2063616C6C6572206973206E6F7420746865206F776E6572 PUSH1 0x44 DUP3 ADD MSTORE PUSH1 0x64 DUP2 REVERT JUMPDEST PUSH1 0xFF PUSH21 0x10000000000000000000000000000000000000000 PUSH1 0x0 SLOAD DIV AND ISZERO PUSH2 0xBC0 JUMPI PUSH1 0x40 MLOAD PUSH1 0xE5 PUSH1 0x2 EXP PUSH3 0x461BCD MUL DUP2 MSTORE PUSH1 0x20 PUSH1 0x4 DUP3 ADD MSTORE PUSH1 0x10 PUSH1 0x24 DUP3 ADD MSTORE PUSH32 0x5061757361626C653A2070617573656400000000000000000000000000000000 PUSH1 0x44 DUP3 ADD MSTORE PUSH1 0x64 DUP2 REVERT JUMPDEST JUMP JUMPDEST PUSH1 0x1 PUSH1 0xA0 PUSH1 0x2 EXP SUB DUP1 PUSH2 0xBD4 DUP4 PUSH2 0x16AD JUMP JUMPDEST SLOAD AND ISZERO PUSH2 0xC23 JUMPI PUSH1 0x40 MLOAD PUSH1 0xE5 PUSH1 0x2 EXP PUSH3 0x461BCD MUL DUP2 MSTORE PUSH1 0x20 PUSH1 0x4 DUP3 ADD MSTORE PUSH1 0x20 PUSH1 0x24 DUP3 ADD MSTORE PUSH32 0x43686172697479206E616D6520616C726561647920726567697374657265642E PUSH1 0x44 DUP3 ADD MSTORE PUSH1 0x64 DUP2 REVERT JUMPDEST DUP3 AND PUSH1 0x0 DUP2 DUP2 MSTORE PUSH1 0x5 PUSH1 0x20 MSTORE PUSH1 0x40 SWAP1 KECCAK256 SLOAD PUSH2 0xC3D SWAP1 PUSH2 0x99B JUMP JUMPDEST ISZERO PUSH2 0xCB0 JUMPI PUSH1 0x40 MLOAD PUSH1 0xE5 PUSH1 0x2 EXP PUSH3 0x461BCD MUL DUP2 MSTORE PUSH1 0x20 PUSH1 0x4 DUP3 ADD MSTORE PUSH1 0x23 PUSH1 0x24 DUP3 ADD MSTORE PUSH32 0x43686172697479206164647265737320616C7265616479207265676973746572 PUSH1 0x44 DUP3 ADD MSTORE PUSH32 0x65642E0000000000000000000000000000000000000000000000000000000000 PUSH1 0x64 DUP3 ADD MSTORE PUSH1 0x84 DUP2 REVERT JUMPDEST PUSH2 0xCDA DUP4 PUSH2 0xCBD DUP5 PUSH2 0x16AD JUMP JUMPDEST PUSH1 0x1 PUSH1 0xA0 PUSH1 0x2 EXP SUB DUP3 AND PUSH1 0x1 PUSH1 0xA0 PUSH1 0x2 EXP SUB NOT DUP3 SLOAD AND OR DUP2 SSTORE POP POP JUMP JUMPDEST PUSH2 0x995 DUP2 PUSH2 0xA69 JUMP JUMPDEST PUSH1 0x40 MLOAD PUSH32 0x95EA7B300000000000000000000000000000000000000000000000000000000 PUSH1 0x20 DUP3 ADD SWAP1 DUP2 MSTORE PUSH1 0x1 PUSH1 0xA0 PUSH1 0x2 EXP SUB DUP5 AND PUSH1 0x24 DUP4 ADD MSTORE PUSH1 0x44 DUP1 DUP4 ADD DUP7 SWAP1 MSTORE DUP3 MSTORE PUSH1 0x64 PUSH2 0xD33 DUP2 DUP5 PUSH2 0xA3C JUMP JUMPDEST POP PUSH1 0x0 DUP1 DUP4 MLOAD DUP4 PUSH1 0x0 DUP8 GAS CALL SWAP2 POP POP PUSH2 0xD4A PUSH2 0x9D9 JUMP JUMPDEST DUP2 DUP3 ISZERO PUSH2 0xD73 JUMPI DUP2 MLOAD DUP1 ISZERO DUP1 PUSH2 0xD6F JUMPI PUSH2 0xD6C PUSH1 0x20 DUP4 DUP7 ADD ADD PUSH1 0x20 DUP7 ADD PUSH2 0x5F0 JUMP JUMPDEST SWAP1 POP JUMPDEST SWAP2 POP POP JUMPDEST DUP1 PUSH2 0xDC2 JUMPI PUSH1 0x40 MLOAD SWAP3 POP PUSH1 0xE5 PUSH1 0x2 EXP PUSH3 0x461BCD MUL DUP4 MSTORE PUSH1 0x20 PUSH1 0x4 DUP5 ADD MSTORE PUSH1 0x2 PUSH1 0x24 DUP5 ADD MSTORE PUSH32 0x5341000000000000000000000000000000000000000000000000000000000000 PUSH1 0x44 DUP5 ADD MSTORE PUSH1 0x64 DUP4 REVERT JUMPDEST POP POP POP POP POP POP JUMP JUMPDEST PUSH1 0x40 MLOAD PUSH1 0x20 DUP2 ADD PUSH32 0x23B872DD00000000000000000000000000000000000000000000000000000000 DUP2 MSTORE PUSH1 0x1 PUSH1 0xA0 PUSH1 0x2 EXP SUB DUP1 DUP6 AND PUSH1 0x24 DUP5 ADD MSTORE DUP1 DUP7 AND PUSH1 0x44 DUP5 ADD MSTORE POP DUP6 PUSH1 0x64 DUP4 ADD MSTORE PUSH1 0x64 DUP3 MSTORE PUSH2 0xE20 DUP3 PUSH2 0xA16 JUMP JUMPDEST PUSH1 0x0 DUP1 DUP4 MLOAD DUP4 PUSH1 0x0 DUP8 GAS CALL SWAP2 POP POP PUSH2 0xE36 PUSH2 0x9D9 JUMP JUMPDEST DUP2 DUP3 ISZERO PUSH2 0xE5F JUMPI DUP2 MLOAD DUP1 ISZERO DUP1 PUSH2 0xE5B JUMPI PUSH2 0xE58 PUSH1 0x20 DUP4 DUP7 ADD ADD PUSH1 0x20 DUP7 ADD PUSH2 0x5F0 JUMP JUMPDEST SWAP1 POP JUMPDEST SWAP2 POP POP JUMPDEST DUP1 PUSH2 0xEAE JUMPI PUSH1 0x40 MLOAD SWAP3 POP PUSH1 0xE5 PUSH1 0x2 EXP PUSH3 0x461BCD MUL DUP4 MSTORE PUSH1 0x20 PUSH1 0x4 DUP5 ADD MSTORE PUSH1 0x3 PUSH1 0x24 DUP5 ADD MSTORE PUSH32 0x5354460000000000000000000000000000000000000000000000000000000000 PUSH1 0x44 DUP5 ADD MSTORE PUSH1 0x64 DUP4 REVERT JUMPDEST POP POP POP POP POP POP POP JUMP JUMPDEST PUSH1 0x0 PUSH1 0xFF DUP3 AND PUSH1 0xFF DUP2 EQ ISZERO PUSH2 0xECE JUMPI PUSH2 0xECE PUSH2 0x16D8 JUMP JUMPDEST PUSH1 0x1 ADD SWAP3 SWAP2 POP POP JUMP JUMPDEST PUSH1 0x0 DUP2 MLOAD DUP4 LT PUSH2 0xEE9 JUMPI PUSH2 0xEE9 PUSH2 0x16F1 JUMP JUMPDEST POP PUSH1 0x20 SWAP2 DUP3 MUL ADD ADD SWAP1 JUMP JUMPDEST PUSH2 0xEFC PUSH2 0xAFB JUMP JUMPDEST PUSH1 0x0 SLOAD PUSH1 0x1 PUSH1 0xA0 PUSH1 0x2 EXP SUB NOT DUP2 AND PUSH1 0x0 SSTORE PUSH1 0x0 PUSH1 0x1 PUSH1 0xA0 PUSH1 0x2 EXP SUB DUP3 AND PUSH32 0x8BE0079C531659141344CD1FD0A4F28419497F9722A3DAAFE3B4186F6B6457E0 PUSH1 0x0 PUSH1 0x40 MLOAD LOG3 POP JUMP JUMPDEST PUSH2 0xF4B PUSH2 0xAFB JUMP JUMPDEST PUSH1 0x1 PUSH1 0xA0 PUSH1 0x2 EXP SUB DUP1 DUP3 AND DUP1 PUSH2 0xFC9 JUMPI PUSH1 0x40 MLOAD PUSH1 0xE5 PUSH1 0x2 EXP PUSH3 0x461BCD MUL DUP2 MSTORE PUSH1 0x20 PUSH1 0x4 DUP3 ADD MSTORE PUSH1 0x26 PUSH1 0x24 DUP3 ADD MSTORE PUSH32 0x4F776E61626C653A206E6577206F776E657220697320746865207A65726F2061 PUSH1 0x44 DUP3 ADD MSTORE PUSH32 0x6464726573730000000000000000000000000000000000000000000000000000 PUSH1 0x64 DUP3 ADD MSTORE PUSH1 0x84 DUP2 REVERT JUMPDEST PUSH1 0x0 SLOAD DUP2 PUSH1 0x1 PUSH1 0xA0 PUSH1 0x2 EXP SUB NOT DUP3 AND OR PUSH1 0x0 SSTORE DUP4 DUP4 DUP3 AND PUSH32 0x8BE0079C531659141344CD1FD0A4F28419497F9722A3DAAFE3B4186F6B6457E0 PUSH1 0x0 PUSH1 0x40 MLOAD LOG3 POP POP POP POP JUMP JUMPDEST PUSH2 0x1015 PUSH2 0xB56 JUMP JUMPDEST PUSH1 0x2 PUSH2 0x1025 DUP2 PUSH1 0x1 SLOAD EQ ISZERO PUSH2 0x19D6 JUMP JUMPDEST DUP1 PUSH1 0x1 SSTORE PUSH2 0x1035 DUP5 ADDRESS CALLER DUP7 PUSH2 0xDCA JUMP JUMPDEST PUSH1 0x1 PUSH1 0xA0 PUSH1 0x2 EXP SUB DUP1 PUSH32 0x0 AND PUSH2 0x106B DUP7 DUP3 DUP8 PUSH2 0xCE3 JUMP JUMPDEST DUP2 PUSH32 0x0 AND DUP4 SLOAD PUSH2 0x1098 PUSH2 0x777 JUMP JUMPDEST PUSH1 0x1 PUSH1 0xA0 PUSH1 0x2 EXP SUB DUP9 AND DUP2 MSTORE PUSH1 0x1 PUSH1 0xA0 PUSH1 0x2 EXP SUB DUP4 AND PUSH1 0x20 DUP3 ADD MSTORE PUSH3 0xFFFFFF DUP13 AND PUSH1 0x40 DUP3 DUP2 ADD SWAP2 SWAP1 SWAP2 MSTORE ADDRESS PUSH1 0x60 DUP4 ADD MSTORE DUP11 PUSH1 0x80 DUP4 ADD MSTORE DUP3 PUSH1 0xA0 DUP4 ADD MSTORE DUP12 PUSH1 0xC0 DUP4 ADD MSTORE PUSH1 0x0 SWAP3 POP DUP3 PUSH1 0xE0 DUP4 ADD MSTORE DUP5 EXTCODESIZE PUSH2 0x10EE JUMPI DUP3 DUP4 REVERT JUMPDEST DUP1 MLOAD PUSH32 0xDB3E219800000000000000000000000000000000000000000000000000000000 DUP2 MSTORE PUSH1 0x20 DUP2 DUP3 PUSH2 0x1124 DUP7 PUSH1 0x4 DUP7 ADD PUSH2 0x708 JUMP JUMPDEST SUB DUP4 DUP8 DUP11 GAS CALL SWAP3 POP DUP3 PUSH2 0x1139 JUMPI PUSH2 0x1139 PUSH2 0x1A23 JUMP JUMPDEST DUP4 DUP4 ISZERO PUSH2 0x1159 JUMPI PUSH2 0x114A RETURNDATASIZE DUP4 PUSH2 0xA3C JUMP JUMPDEST PUSH2 0x1156 RETURNDATASIZE DUP4 ADD DUP4 PUSH2 0x676 JUMP JUMPDEST SWAP1 POP JUMPDEST DUP9 SLOAD SWAP4 POP DUP6 EXTCODESIZE PUSH2 0x1167 JUMPI DUP5 DUP6 REVERT JUMPDEST DUP3 MLOAD PUSH32 0x2E1A7D4D00000000000000000000000000000000000000000000000000000000 DUP2 MSTORE PUSH1 0x4 DUP2 ADD DUP6 SWAP1 MSTORE SWAP2 POP DUP5 DUP3 PUSH1 0x24 DUP2 DUP4 DUP11 GAS CALL SWAP6 POP DUP6 PUSH2 0x11AD JUMPI PUSH2 0x11AD PUSH2 0x1A23 JUMP JUMPDEST DUP6 ISZERO PUSH2 0x11C9 JUMPI PUSH2 0x11BD RETURNDATASIZE DUP4 PUSH2 0xA3C JUMP JUMPDEST PUSH2 0x11C9 RETURNDATASIZE DUP4 ADD DUP4 PUSH2 0x41E JUMP JUMPDEST DUP9 SLOAD SWAP6 POP DUP5 DUP6 DUP7 DUP6 MLOAD DUP10 DUP13 DUP16 AND GAS CALL SWAP6 POP PUSH2 0x11E2 PUSH2 0x9D9 JUMP JUMPDEST POP PUSH2 0x11EC DUP7 PUSH2 0x18A3 JUMP JUMPDEST PUSH2 0x11F6 DUP2 DUP14 PUSH2 0x864 JUMP JUMPDEST SWAP6 POP POP POP PUSH2 0x1202 PUSH2 0x777 JUMP JUMPDEST PUSH1 0x1 PUSH1 0xA0 PUSH1 0x2 EXP SUB DUP11 AND DUP2 MSTORE SWAP2 POP PUSH1 0x1 PUSH1 0xA0 PUSH1 0x2 EXP SUB PUSH32 0x0 DUP8 AND AND PUSH1 0x20 DUP4 ADD MSTORE PUSH3 0xFFFFFF DUP15 AND DUP3 DUP3 ADD MSTORE ADDRESS PUSH1 0x60 DUP4 ADD MSTORE DUP11 PUSH1 0x80 DUP4 ADD MSTORE DUP4 PUSH1 0xA0 DUP4 ADD MSTORE DUP15 PUSH1 0xC0 DUP4 ADD MSTORE DUP3 PUSH1 0xE0 DUP4 ADD MSTORE DUP5 EXTCODESIZE PUSH2 0x1273 JUMPI DUP3 DUP4 REVERT JUMPDEST DUP1 MLOAD SWAP6 POP PUSH32 0x414BF38900000000000000000000000000000000000000000000000000000000 DUP7 MSTORE PUSH1 0x20 DUP7 DUP8 PUSH2 0x12AB DUP6 PUSH1 0x4 DUP12 ADD PUSH2 0x708 JUMP JUMPDEST SUB DUP9 DUP7 DUP10 GAS CALL SWAP5 POP DUP5 PUSH2 0x12C0 JUMPI PUSH2 0x12C0 PUSH2 0x1A23 JUMP JUMPDEST DUP3 SWAP4 POP DUP5 ISZERO PUSH2 0x12E2 JUMPI PUSH2 0x12D3 RETURNDATASIZE DUP8 PUSH2 0xA3C JUMP JUMPDEST PUSH2 0x12DF RETURNDATASIZE DUP8 ADD DUP8 PUSH2 0x676 JUMP JUMPDEST SWAP4 POP JUMPDEST PUSH1 0x1 PUSH1 0xA0 PUSH1 0x2 EXP SUB DUP9 AND PUSH1 0x0 SWAP1 DUP2 MSTORE PUSH1 0x3 PUSH1 0x20 MSTORE PUSH1 0x40 SWAP1 KECCAK256 SWAP6 POP PUSH2 0x1307 DUP5 DUP8 SLOAD PUSH2 0x7ED JUMP JUMPDEST SWAP1 SWAP6 SSTORE POP POP SWAP3 SLOAD SWAP2 MLOAD DUP7 DUP2 MSTORE PUSH1 0x20 DUP2 ADD DUP4 SWAP1 MSTORE PUSH1 0x40 DUP2 ADD DUP5 SWAP1 MSTORE SWAP2 SWAP3 DUP6 DUP6 CALLER PUSH32 0x860654AD3D0539DBAC86150676768B53A47900BB45C5EB8D8D000FFBC4F67E6 PUSH1 0x60 DUP8 LOG4 POP POP POP POP PUSH2 0x1358 PUSH1 0x1 DUP1 SSTORE JUMP JUMPDEST POP POP POP POP POP POP POP POP JUMP JUMPDEST PUSH2 0x136A PUSH2 0xB56 JUMP JUMPDEST PUSH2 0x1379 PUSH1 0x2 PUSH1 0x1 SLOAD EQ ISZERO PUSH2 0x19D6 JUMP JUMPDEST PUSH1 0x2 PUSH1 0x1 SSTORE PUSH1 0x1 PUSH1 0xA0 PUSH1 0x2 EXP SUB DUP1 DUP3 AND CALLER EQ DUP1 PUSH2 0x13A9 JUMPI PUSH2 0x13A4 DUP3 PUSH1 0x0 SLOAD AND PUSH1 0x1 PUSH1 0xA0 PUSH1 0x2 EXP SUB AND SWAP1 JUMP JUMPDEST CALLER EQ SWAP1 POP JUMPDEST PUSH2 0x13B2 DUP2 PUSH2 0x1989 JUMP JUMPDEST POP DUP3 MLOAD PUSH2 0x13C1 DUP6 MLOAD DUP3 EQ PUSH2 0x1916 JUMP JUMPDEST POP PUSH1 0x0 DUP1 JUMPDEST DUP5 MLOAD PUSH1 0xFF DUP3 AND DUP2 DUP2 LT PUSH2 0x13DA JUMPI POP POP PUSH2 0x143E JUMP JUMPDEST PUSH2 0x13EE PUSH2 0x13E7 DUP3 DUP11 PUSH2 0xED7 JUMP JUMPDEST MLOAD DUP6 PUSH2 0x7ED JUMP JUMPDEST SWAP4 POP PUSH2 0x142C PUSH2 0x1425 PUSH2 0x1419 PUSH2 0x140C PUSH2 0x1406 DUP6 DUP13 PUSH2 0xED7 JUMP JUMPDEST MLOAD PUSH2 0x16AD JUMP JUMPDEST SLOAD PUSH1 0x1 PUSH1 0xA0 PUSH1 0x2 EXP SUB AND SWAP1 JUMP JUMPDEST PUSH1 0x1 PUSH1 0xA0 PUSH1 0x2 EXP SUB AND SWAP1 JUMP JUMPDEST ISZERO ISZERO PUSH2 0x1770 JUMP JUMPDEST POP POP PUSH2 0x1437 DUP2 PUSH2 0xEB7 JUMP JUMPDEST SWAP1 POP PUSH2 0x13C6 JUMP JUMPDEST POP PUSH2 0x1469 PUSH2 0x1460 DUP5 PUSH1 0x1 PUSH1 0xA0 PUSH1 0x2 EXP SUB AND PUSH1 0x0 SWAP1 DUP2 MSTORE PUSH1 0x3 PUSH1 0x20 MSTORE PUSH1 0x40 SWAP1 KECCAK256 SWAP1 JUMP JUMPDEST SLOAD DUP3 GT ISZERO PUSH2 0x1830 JUMP JUMPDEST PUSH1 0x0 DUP1 DUP4 PUSH32 0x0 AND SWAP4 POP JUMPDEST DUP6 MLOAD PUSH1 0xFF DUP3 AND DUP2 DUP2 LT PUSH2 0x14A6 JUMPI POP POP PUSH2 0x1650 JUMP JUMPDEST PUSH2 0x14B0 DUP2 DUP11 PUSH2 0xED7 JUMP JUMPDEST MLOAD SWAP2 POP PUSH2 0x14DB DUP6 PUSH2 0x14D5 DUP10 PUSH1 0x1 PUSH1 0xA0 PUSH1 0x2 EXP SUB AND PUSH1 0x0 SWAP1 DUP2 MSTORE PUSH1 0x3 PUSH1 0x20 MSTORE PUSH1 0x40 SWAP1 KECCAK256 SWAP1 JUMP JUMPDEST SLOAD PUSH2 0x864 JUMP JUMPDEST PUSH2 0x1501 PUSH2 0x14FB PUSH2 0x14F5 DUP9 PUSH2 0x14EF DUP7 DUP16 PUSH2 0xED7 JUMP JUMPDEST MLOAD PUSH2 0x805 JUMP JUMPDEST DUP4 PUSH2 0x82A JUMP JUMPDEST DUP5 PUSH2 0x7ED JUMP JUMPDEST SWAP3 POP POP PUSH2 0x150E DUP9 MLOAD PUSH2 0x849 JUMP JUMPDEST DUP2 EQ ISZERO PUSH2 0x153A JUMPI PUSH2 0x1537 DUP5 PUSH2 0x14D5 DUP10 PUSH1 0x1 PUSH1 0xA0 PUSH1 0x2 EXP SUB AND PUSH1 0x0 SWAP1 DUP2 MSTORE PUSH1 0x3 PUSH1 0x20 MSTORE PUSH1 0x40 SWAP1 KECCAK256 SWAP1 JUMP JUMPDEST SWAP2 POP JUMPDEST PUSH2 0x154A PUSH2 0x140C PUSH2 0x1406 DUP4 DUP12 PUSH2 0xED7 JUMP JUMPDEST DUP7 EXTCODESIZE PUSH2 0x1555 JUMPI PUSH1 0x0 DUP1 REVERT JUMPDEST PUSH1 0x40 DUP1 MLOAD PUSH32 0xA9059CBB00000000000000000000000000000000000000000000000000000000 DUP2 MSTORE PUSH1 0x1 PUSH1 0xA0 PUSH1 0x2 EXP SUB DUP4 AND PUSH1 0x4 DUP3 ADD MSTORE PUSH1 0x24 DUP2 ADD DUP6 SWAP1 MSTORE PUSH1 0x20 DUP2 PUSH1 0x44 DUP2 PUSH1 0x0 DUP14 GAS CALL SWAP3 POP DUP3 PUSH2 0x15AC JUMPI PUSH2 0x15AC PUSH2 0x1A23 JUMP JUMPDEST PUSH1 0x0 DUP4 ISZERO PUSH2 0x15CD JUMPI PUSH2 0x15BE RETURNDATASIZE DUP4 PUSH2 0xA3C JUMP JUMPDEST PUSH2 0x15CA RETURNDATASIZE DUP4 ADD DUP4 PUSH2 0x5F0 JUMP JUMPDEST SWAP1 POP JUMPDEST PUSH2 0x15D6 DUP2 PUSH2 0x1723 JUMP JUMPDEST POP POP PUSH2 0x15E2 DUP4 DUP12 PUSH2 0xED7 JUMP JUMPDEST MLOAD SWAP2 POP PUSH2 0x15F5 PUSH2 0x140C PUSH2 0x1406 DUP6 DUP14 PUSH2 0xED7 JUMP JUMPDEST SWAP3 POP PUSH2 0x1600 DUP3 PUSH2 0x168B JUMP JUMPDEST SWAP1 MLOAD DUP5 DUP2 MSTORE SWAP1 SWAP2 POP DUP3 DUP3 DUP11 PUSH32 0xB0657052ACBF78260696B569DBE3A1F1F39287B5A3C378F5BCA0C20FBF062DEC PUSH1 0x20 DUP6 LOG4 POP POP POP PUSH2 0x163D DUP2 DUP5 PUSH2 0x7ED JUMP JUMPDEST SWAP3 POP POP PUSH2 0x1649 DUP2 PUSH2 0xEB7 JUMP JUMPDEST SWAP1 POP PUSH2 0x1492 JUMP JUMPDEST POP PUSH2 0x167A PUSH2 0x1672 DUP6 PUSH1 0x1 PUSH1 0xA0 PUSH1 0x2 EXP SUB AND PUSH1 0x0 SWAP1 DUP2 MSTORE PUSH1 0x3 PUSH1 0x20 MSTORE PUSH1 0x40 SWAP1 KECCAK256 SWAP1 JUMP JUMPDEST SLOAD DUP3 EQ PUSH2 0x17E3 JUMP JUMPDEST POP POP POP PUSH2 0x1686 PUSH1 0x1 DUP1 SSTORE JUMP JUMPDEST POP POP POP JUMP JUMPDEST PUSH1 0x0 PUSH1 0x40 MLOAD DUP3 MLOAD PUSH2 0x16A0 DUP2 DUP4 PUSH1 0x20 DUP8 ADD PUSH2 0x96B JUMP JUMPDEST DUP2 ADD DUP2 SWAP1 SUB SWAP1 KECCAK256 SWAP3 SWAP2 POP POP JUMP JUMPDEST PUSH1 0x0 PUSH1 0x40 MLOAD DUP3 MLOAD PUSH2 0x16C2 DUP2 DUP4 PUSH1 0x20 DUP8 ADD PUSH2 0x96B JUMP JUMPDEST PUSH1 0x4 SWAP1 DUP3 ADD SWAP1 DUP2 MSTORE DUP2 SWAP1 SUB PUSH1 0x20 ADD SWAP1 KECCAK256 SWAP3 SWAP2 POP POP JUMP JUMPDEST PUSH1 0xE0 PUSH1 0x2 EXP PUSH4 0x4E487B71 MUL PUSH1 0x0 MSTORE PUSH1 0x11 PUSH1 0x4 MSTORE PUSH1 0x24 PUSH1 0x0 REVERT JUMPDEST PUSH1 0xE0 PUSH1 0x2 EXP PUSH4 0x4E487B71 MUL PUSH1 0x0 MSTORE PUSH1 0x32 PUSH1 0x4 MSTORE PUSH1 0x24 PUSH1 0x0 REVERT JUMPDEST PUSH1 0xE0 PUSH1 0x2 EXP PUSH4 0x4E487B71 MUL PUSH1 0x0 MSTORE PUSH1 0x41 PUSH1 0x4 MSTORE PUSH1 0x24 PUSH1 0x0 REVERT JUMPDEST DUP1 PUSH2 0x41B JUMPI PUSH1 0x40 MLOAD PUSH1 0xE5 PUSH1 0x2 EXP PUSH3 0x461BCD MUL DUP2 MSTORE PUSH1 0x20 PUSH1 0x4 DUP3 ADD MSTORE PUSH1 0x20 PUSH1 0x24 DUP3 ADD MSTORE PUSH32 0x55534443207472616E7366657220746F2063686172697479206661696C65642E PUSH1 0x44 DUP3 ADD MSTORE PUSH1 0x64 DUP2 REVERT JUMPDEST DUP1 PUSH2 0x41B JUMPI PUSH1 0x40 MLOAD PUSH1 0xE5 PUSH1 0x2 EXP PUSH3 0x461BCD MUL DUP2 MSTORE PUSH1 0x20 PUSH1 0x4 DUP3 ADD MSTORE PUSH1 0x25 PUSH1 0x24 DUP3 ADD MSTORE PUSH32 0x417474656D707420746F20646F6E61746520746F20756E6B6E6F776E20636861 PUSH1 0x44 DUP3 ADD MSTORE PUSH32 0x726974792E000000000000000000000000000000000000000000000000000000 PUSH1 0x64 DUP3 ADD MSTORE PUSH1 0x84 DUP2 REVERT JUMPDEST DUP1 PUSH2 0x41B JUMPI PUSH1 0x40 MLOAD PUSH1 0xE5 PUSH1 0x2 EXP PUSH3 0x461BCD MUL DUP2 MSTORE PUSH1 0x20 PUSH1 0x4 DUP3 ADD MSTORE PUSH1 0x1C PUSH1 0x24 DUP3 ADD MSTORE PUSH32 0x4D7573742066696E616C697A6520656E746972652062616C616E636500000000 PUSH1 0x44 DUP3 ADD MSTORE PUSH1 0x64 DUP2 REVERT JUMPDEST DUP1 PUSH2 0x41B JUMPI PUSH1 0x40 MLOAD PUSH1 0xE5 PUSH1 0x2 EXP PUSH3 0x461BCD MUL DUP2 MSTORE PUSH1 0x20 PUSH1 0x4 DUP3 ADD MSTORE PUSH1 0x22 PUSH1 0x24 DUP3 ADD MSTORE PUSH32 0x546F74616C2066696E616C697A6174696F6E20616D6F756E7420746F6F206869 PUSH1 0x44 DUP3 ADD MSTORE PUSH32 0x6768000000000000000000000000000000000000000000000000000000000000 PUSH1 0x64 DUP3 ADD MSTORE PUSH1 0x84 DUP2 REVERT JUMPDEST DUP1 PUSH2 0x41B JUMPI PUSH1 0x40 MLOAD PUSH1 0xE5 PUSH1 0x2 EXP PUSH3 0x461BCD MUL DUP2 MSTORE PUSH1 0x20 PUSH1 0x4 DUP3 ADD MSTORE PUSH1 0x27 PUSH1 0x24 DUP3 ADD MSTORE PUSH32 0x4661696C656420746F2073656E642067617320746F20657068656D6572616C20 PUSH1 0x44 DUP3 ADD MSTORE PUSH32 0x77616C6C65742E00000000000000000000000000000000000000000000000000 PUSH1 0x64 DUP3 ADD MSTORE PUSH1 0x84 DUP2 REVERT JUMPDEST DUP1 PUSH2 0x41B JUMPI PUSH1 0x40 MLOAD PUSH1 0xE5 PUSH1 0x2 EXP PUSH3 0x461BCD MUL DUP2 MSTORE PUSH1 0x20 PUSH1 0x4 DUP3 ADD MSTORE PUSH1 0x31 PUSH1 0x24 DUP3 ADD MSTORE PUSH32 0x43686172697469657320616E6420616D6F756E747320617272617973206F6620 PUSH1 0x44 DUP3 ADD MSTORE PUSH32 0x646966666572656E74206C656E6774682E000000000000000000000000000000 PUSH1 0x64 DUP3 ADD MSTORE PUSH1 0x84 DUP2 REVERT JUMPDEST DUP1 PUSH2 0x41B JUMPI PUSH1 0x40 MLOAD PUSH1 0xE5 PUSH1 0x2 EXP PUSH3 0x461BCD MUL DUP2 MSTORE PUSH1 0x20 PUSH1 0x4 DUP3 ADD MSTORE PUSH1 0x1D PUSH1 0x24 DUP3 ADD MSTORE PUSH32 0x556E617574686F72697A6174696F6E2066696E616C697A6174696F6E2E000000 PUSH1 0x44 DUP3 ADD MSTORE PUSH1 0x64 DUP2 REVERT JUMPDEST DUP1 PUSH2 0x41B JUMPI PUSH1 0x40 MLOAD PUSH1 0xE5 PUSH1 0x2 EXP PUSH3 0x461BCD MUL DUP2 MSTORE PUSH1 0x20 PUSH1 0x4 DUP3 ADD MSTORE PUSH1 0x1F PUSH1 0x24 DUP3 ADD MSTORE PUSH32 0x5265656E7472616E637947756172643A207265656E7472616E742063616C6C00 PUSH1 0x44 DUP3 ADD MSTORE PUSH1 0x64 DUP2 REVERT JUMPDEST PUSH1 0x40 MLOAD RETURNDATASIZE PUSH1 0x0 DUP3 RETURNDATACOPY RETURNDATASIZE DUP2 REVERT INVALID LOG3 PUSH5 0x6970667358 0x22 SLT KECCAK256 XOR RETURN PUSH8 0xFC84186C636F1EF DUP9 CALLER PUSH29 0xBE06F55FD2916CEDCBBB5C8E089C91A7198D6C6578706572696D656E74 PUSH2 0x6CF5 PUSH5 0x736F6C6343 STOP ADDMOD SMOD STOP COINBASE "
				},
				"gasEstimates": {
					"creation": {
						"codeDepositCost": "1354200",
						"executionCost": "infinite",
						"totalCost": "infinite"
					},
					"external": {
						"USDC()": "infinite",
						"WETH9()": "infinite",
						"deposit(address,address,uint256,uint256,uint256,uint24,uint24,uint256)": "infinite",
						"finalize(address,string[],uint256[])": "infinite",
						"getBalance(address)": "907",
						"getCharityNames()": "infinite",
						"owner()": "654",
						"paused()": "488",
						"registerCharity(string,address)": "infinite",
						"renounceOwnership()": "infinite",
						"swapRouter()": "infinite",
						"transferOwnership(address)": "22781"
					}
				},
				"methodIdentifiers": {
					"USDC()": "89a30271",
					"WETH9()": "4aa4a4fc",
					"deposit(address,address,uint256,uint256,uint256,uint24,uint24,uint256)": "480a6fdc",
					"finalize(address,string[],uint256[])": "745284ce",
					"getBalance(address)": "f8b2cb4f",
					"getCharityNames()": "720a7dee",
					"owner()": "8da5cb5b",
					"paused()": "5c975abb",
					"registerCharity(string,address)": "7aed7746",
					"renounceOwnership()": "715018a6",
					"swapRouter()": "c31c9c07",
					"transferOwnership(address)": "f2fde38b"
				}
			},
			"storageLayout": {
				"storage": [
					{
						"astId": 7,
						"contract": "contracts/fountain.sol:Serenity",
						"label": "_owner",
						"offset": 0,
						"slot": "0",
						"type": "t_address"
					},
					{
						"astId": 130,
						"contract": "contracts/fountain.sol:Serenity",
						"label": "_paused",
						"offset": 20,
						"slot": "0",
						"type": "t_bool"
					},
					{
						"astId": 231,
						"contract": "contracts/fountain.sol:Serenity",
						"label": "_status",
						"offset": 0,
						"slot": "1",
						"type": "t_uint256"
					},
					{
						"astId": 1275,
						"contract": "contracts/fountain.sol:Serenity",
						"label": "ephemeralGasMoneyAmount",
						"offset": 0,
						"slot": "2",
						"type": "t_uint256"
					},
					{
						"astId": 1279,
						"contract": "contracts/fountain.sol:Serenity",
						"label": "balances",
						"offset": 0,
						"slot": "3",
						"type": "t_mapping(t_address,t_uint256)"
					},
					{
						"astId": 1283,
						"contract": "contracts/fountain.sol:Serenity",
						"label": "charities",
						"offset": 0,
						"slot": "4",
						"type": "t_mapping(t_string_memory_ptr,t_address)"
					},
					{
						"astId": 1287,
						"contract": "contracts/fountain.sol:Serenity",
						"label": "charitiesReverse",
						"offset": 0,
						"slot": "5",
						"type": "t_mapping(t_address,t_string_storage)"
					},
					{
						"astId": 1290,
						"contract": "contracts/fountain.sol:Serenity",
						"label": "charityNames",
						"offset": 0,
						"slot": "6",
						"type": "t_array(t_string_storage)dyn_storage"
					},
					{
						"astId": 1293,
						"contract": "contracts/fountain.sol:Serenity",
						"label": "charityAddresses",
						"offset": 0,
						"slot": "7",
						"type": "t_struct(AddressSet)672_storage"
					}
				],
				"types": {
					"t_address": {
						"encoding": "inplace",
						"label": "address",
						"numberOfBytes": "20"
					},
					"t_array(t_bytes32)dyn_storage": {
						"base": "t_bytes32",
						"encoding": "dynamic_array",
						"label": "bytes32[]",
						"numberOfBytes": "32"
					},
					"t_array(t_string_storage)dyn_storage": {
						"base": "t_string_storage",
						"encoding": "dynamic_array",
						"label": "string[]",
						"numberOfBytes": "32"
					},
					"t_bool": {
						"encoding": "inplace",
						"label": "bool",
						"numberOfBytes": "1"
					},
					"t_bytes32": {
						"encoding": "inplace",
						"label": "bytes32",
						"numberOfBytes": "32"
					},
					"t_mapping(t_address,t_string_storage)": {
						"encoding": "mapping",
						"key": "t_address",
						"label": "mapping(address => string)",
						"numberOfBytes": "32",
						"value": "t_string_storage"
					},
					"t_mapping(t_address,t_uint256)": {
						"encoding": "mapping",
						"key": "t_address",
						"label": "mapping(address => uint256)",
						"numberOfBytes": "32",
						"value": "t_uint256"
					},
					"t_mapping(t_bytes32,t_uint256)": {
						"encoding": "mapping",
						"key": "t_bytes32",
						"label": "mapping(bytes32 => uint256)",
						"numberOfBytes": "32",
						"value": "t_uint256"
					},
					"t_mapping(t_string_memory_ptr,t_address)": {
						"encoding": "mapping",
						"key": "t_string_memory_ptr",
						"label": "mapping(string => address)",
						"numberOfBytes": "32",
						"value": "t_address"
					},
					"t_string_memory_ptr": {
						"encoding": "bytes",
						"label": "string",
						"numberOfBytes": "32"
					},
					"t_string_storage": {
						"encoding": "bytes",
						"label": "string",
						"numberOfBytes": "32"
					},
					"t_struct(AddressSet)672_storage": {
						"encoding": "inplace",
						"label": "struct EnumerableSet.AddressSet",
						"members": [
							{
								"astId": 671,
								"contract": "contracts/fountain.sol:Serenity",
								"label": "_inner",
								"offset": 0,
								"slot": "0",
								"type": "t_struct(Set)371_storage"
							}
						],
						"numberOfBytes": "64"
					},
					"t_struct(Set)371_storage": {
						"encoding": "inplace",
						"label": "struct EnumerableSet.Set",
						"members": [
							{
								"astId": 366,
								"contract": "contracts/fountain.sol:Serenity",
								"label": "_values",
								"offset": 0,
								"slot": "0",
								"type": "t_array(t_bytes32)dyn_storage"
							},
							{
								"astId": 370,
								"contract": "contracts/fountain.sol:Serenity",
								"label": "_indexes",
								"offset": 0,
								"slot": "1",
								"type": "t_mapping(t_bytes32,t_uint256)"
							}
						],
						"numberOfBytes": "64"
					},
					"t_uint256": {
						"encoding": "inplace",
						"label": "uint256",
						"numberOfBytes": "32"
					}
				}
			},
			"userdoc": {
				"kind": "user",
				"methods": {},
				"version": 1
			}
		}
	}
}