{
	"contracts/fountain.sol": {
		"Serenity": {
			"abi": [
				{
					"inputs": [
						{
							"internalType": "contract ISwapRouter",
							"name": "_swapRouter",
							"type": "address"
						},
						{
							"internalType": "uint256",
							"name": "_ephemeralGasMoneyAmount",
							"type": "uint256"
						}
					],
					"stateMutability": "nonpayable",
					"type": "constructor"
				},
				{
					"anonymous": false,
					"inputs": [
						{
							"indexed": true,
							"internalType": "address",
							"name": "donor",
							"type": "address"
						},
						{
							"indexed": true,
							"internalType": "address",
							"name": "ephemeralWallet",
							"type": "address"
						},
						{
							"indexed": true,
							"internalType": "address",
							"name": "tokenIn",
							"type": "address"
						},
						{
							"indexed": false,
							"internalType": "uint256",
							"name": "tokenAmountIn",
							"type": "uint256"
						},
						{
							"indexed": false,
							"internalType": "uint256",
							"name": "gasOut",
							"type": "uint256"
						},
						{
							"indexed": false,
							"internalType": "uint256",
							"name": "usdcOut",
							"type": "uint256"
						}
					],
					"name": "FountainDeposit",
					"type": "event"
				},
				{
					"anonymous": false,
					"inputs": [
						{
							"indexed": true,
							"internalType": "address",
							"name": "donor",
							"type": "address"
						},
						{
							"indexed": true,
							"internalType": "string",
							"name": "charity",
							"type": "string"
						},
						{
							"indexed": true,
							"internalType": "address",
							"name": "charityAddress",
							"type": "address"
						},
						{
							"indexed": false,
							"internalType": "uint256",
							"name": "usdcAmount",
							"type": "uint256"
						}
					],
					"name": "FountainDonation",
					"type": "event"
				},
				{
					"anonymous": false,
					"inputs": [
						{
							"indexed": true,
							"internalType": "address",
							"name": "donor",
							"type": "address"
						},
						{
							"indexed": false,
							"internalType": "uint256",
							"name": "usdcAmount",
							"type": "uint256"
						}
					],
					"name": "FountainFinalization",
					"type": "event"
				},
				{
					"anonymous": false,
					"inputs": [
						{
							"indexed": true,
							"internalType": "address",
							"name": "previousOwner",
							"type": "address"
						},
						{
							"indexed": true,
							"internalType": "address",
							"name": "newOwner",
							"type": "address"
						}
					],
					"name": "OwnershipTransferred",
					"type": "event"
				},
				{
					"anonymous": false,
					"inputs": [
						{
							"indexed": false,
							"internalType": "address",
							"name": "account",
							"type": "address"
						}
					],
					"name": "Paused",
					"type": "event"
				},
				{
					"anonymous": false,
					"inputs": [
						{
							"indexed": false,
							"internalType": "address",
							"name": "account",
							"type": "address"
						}
					],
					"name": "Unpaused",
					"type": "event"
				},
				{
					"inputs": [],
					"name": "USDC",
					"outputs": [
						{
							"internalType": "address",
							"name": "",
							"type": "address"
						}
					],
					"stateMutability": "view",
					"type": "function"
				},
				{
					"inputs": [],
					"name": "WETH9",
					"outputs": [
						{
							"internalType": "address",
							"name": "",
							"type": "address"
						}
					],
					"stateMutability": "view",
					"type": "function"
				},
				{
					"inputs": [
						{
							"internalType": "address",
							"name": "ephemeralWalletAddress",
							"type": "address"
						},
						{
							"internalType": "address",
							"name": "tokenIn",
							"type": "address"
						},
						{
							"internalType": "uint256",
							"name": "totalAmountIn",
							"type": "uint256"
						},
						{
							"internalType": "uint256",
							"name": "deadline",
							"type": "uint256"
						},
						{
							"internalType": "uint256",
							"name": "ethSwapAmountInMax",
							"type": "uint256"
						},
						{
							"internalType": "uint24",
							"name": "ethSwapPoolFee",
							"type": "uint24"
						},
						{
							"internalType": "uint24",
							"name": "usdcSwapPoolFee",
							"type": "uint24"
						},
						{
							"internalType": "uint256",
							"name": "usdcSwapAmountOutMinimum",
							"type": "uint256"
						}
					],
					"name": "deposit",
					"outputs": [],
					"stateMutability": "nonpayable",
					"type": "function"
				},
				{
					"inputs": [
						{
							"internalType": "address",
							"name": "user",
							"type": "address"
						},
						{
							"internalType": "string[]",
							"name": "charities_",
							"type": "string[]"
						},
						{
							"internalType": "uint256[]",
							"name": "amounts_",
							"type": "uint256[]"
						}
					],
					"name": "finalize",
					"outputs": [],
					"stateMutability": "nonpayable",
					"type": "function"
				},
				{
					"inputs": [
						{
							"internalType": "address",
							"name": "user",
							"type": "address"
						}
					],
					"name": "getBalance",
					"outputs": [
						{
							"internalType": "uint256",
							"name": "userBalance_",
							"type": "uint256"
						}
					],
					"stateMutability": "view",
					"type": "function"
				},
				{
					"inputs": [],
					"name": "owner",
					"outputs": [
						{
							"internalType": "address",
							"name": "",
							"type": "address"
						}
					],
					"stateMutability": "view",
					"type": "function"
				},
				{
					"inputs": [],
					"name": "paused",
					"outputs": [
						{
							"internalType": "bool",
							"name": "",
							"type": "bool"
						}
					],
					"stateMutability": "view",
					"type": "function"
				},
				{
					"inputs": [],
					"name": "renounceOwnership",
					"outputs": [],
					"stateMutability": "nonpayable",
					"type": "function"
				},
				{
					"inputs": [],
					"name": "swapRouter",
					"outputs": [
						{
							"internalType": "contract ISwapRouter",
							"name": "",
							"type": "address"
						}
					],
					"stateMutability": "view",
					"type": "function"
				},
				{
					"inputs": [
						{
							"internalType": "address",
							"name": "newOwner",
							"type": "address"
						}
					],
					"name": "transferOwnership",
					"outputs": [],
					"stateMutability": "nonpayable",
					"type": "function"
				}
			],
			"devdoc": {
				"kind": "dev",
				"methods": {
					"owner()": {
						"details": "Returns the address of the current owner."
					},
					"paused()": {
						"details": "Returns true if the contract is paused, and false otherwise."
					},
					"renounceOwnership()": {
						"details": "Leaves the contract without owner. It will not be possible to call `onlyOwner` functions anymore. Can only be called by the current owner. NOTE: Renouncing ownership will leave the contract without an owner, thereby removing any functionality that is only available to the owner."
					},
					"transferOwnership(address)": {
						"details": "Transfers ownership of the contract to a new account (`newOwner`). Can only be called by the current owner."
					}
				},
				"version": 1
			},
			"evm": {
				"assembly": "    /* \"contracts/fountain.sol\":531:7213  contract Serenity is Ownable, Pausable, ReentrancyGuard {... */\n  mstore(0x40, 0xa0)\n  jumpi(tag_1, iszero(callvalue))\n  0x00\n  dup1\n  revert\ntag_1:\n  bytecodeSize\n  dup1\n  codesize\n  sub\n  not(0x1f)\n  0x1f\n  dup3\n  add\n  and\n  0xa0\n  add\n  0xa0\n  dup2\n  lt\n  0xffffffffffffffff\n  dup3\n  gt\n  or\n  iszero\n  tag_2\n  jumpi\n  mstore(0x00, 0x4e487b7100000000000000000000000000000000000000000000000000000000)\n  mstore(0x04, 0x41)\n  revert(0x00, 0x24)\ntag_2:\n  0x40\n  mstore\n  dup1\n  dup3\n  0xa0\n  codecopy\n  0x40\n  dup2\n  slt\n  iszero\n  tag_3\n  jumpi\n  0x00\n  dup1\n  revert\ntag_3:\n  pop\n  pop\n  mload(0xa0)\n  sub(exp(0x02, 0xa0), 0x01)\n  dup2\n  and\n  dup2\n  eq\n  tag_4\n  jumpi\n  0x00\n  dup1\n  revert\ntag_4:\n  tag_5\n  mload(0xc0)\n  dup3\n  tag_6\n  jump\t// in\ntag_5:\n  pop\n  mload(0x40)\n  dataSize(sub_0)\n  dup1\n  dataOffset(sub_0)\n  dup4\n  codecopy\n  mload(0x80)\n  dup3\n  assignImmutable(\"0xa89dab98646eeeb3665d545d51c6146ef2fb7643427936d0df6806075707fbb6\")\n  dup1\n  dup3\n  return\n    /* \"contracts/fountain.sol\":1487:1659  constructor(ISwapRouter _swapRouter, uint256 _ephemeralGasMoneyAmount) {... */\ntag_6:\n    /* \"@openzeppelin/contracts/access/Ownable.sol\":2525:2531  _owner */\n  0x00\n    /* \"contracts/fountain.sol\":531:7213  contract Serenity is Ownable, Pausable, ReentrancyGuard {... */\n  dup1\n  sload\n    /* \"@openzeppelin/contracts/utils/Context.sol\":719:729  msg.sender */\n  caller\n  not(sub(exp(0x02, 0xa0), 0x01))\n    /* \"contracts/fountain.sol\":531:7213  contract Serenity is Ownable, Pausable, ReentrancyGuard {... */\n  dup3\n  and\n  dup2\n  or\n  dup4\n  sstore\n  mload(0x40)\n  swap2\n  swap3\n    /* \"@openzeppelin/contracts/utils/Context.sol\":719:729  msg.sender */\n  swap1\n  swap2\n  sub(exp(0x02, 0xa0), 0x01)\n    /* \"contracts/fountain.sol\":531:7213  contract Serenity is Ownable, Pausable, ReentrancyGuard {... */\n  dup5\n  and\n  swap2\n    /* \"@openzeppelin/contracts/access/Ownable.sol\":2573:2613  OwnershipTransferred(oldOwner, newOwner) */\n  0x8be0079c531659141344cd1fd0a4f28419497f9722a3daafe3b4186f6b6457e0\n  swap2\n  log3\n  not(sub(exp(0x02, 0xa8), 0x01))\n    /* \"contracts/fountain.sol\":531:7213  contract Serenity is Ownable, Pausable, ReentrancyGuard {... */\n  and\n    /* \"@openzeppelin/contracts/utils/Context.sol\":719:729  msg.sender */\n  caller\n  not(mul(0xff, exp(0x02, 0xa0)))\n    /* \"contracts/fountain.sol\":531:7213  contract Serenity is Ownable, Pausable, ReentrancyGuard {... */\n  and\n  or\n    /* \"@openzeppelin/contracts/access/Ownable.sol\":2525:2531  _owner */\n  0x00\n    /* \"contracts/fountain.sol\":531:7213  contract Serenity is Ownable, Pausable, ReentrancyGuard {... */\n  sstore\n  0x01\n  dup1\n  sstore\n    /* \"contracts/fountain.sol\":1568:1592  swapRouter = _swapRouter */\n  0x80\n  mstore\n    /* \"contracts/fountain.sol\":531:7213  contract Serenity is Ownable, Pausable, ReentrancyGuard {... */\n  0x02\n  sstore\n    /* \"contracts/fountain.sol\":1487:1659  constructor(ISwapRouter _swapRouter, uint256 _ephemeralGasMoneyAmount) {... */\n  jump\t// out\nstop\n\nsub_0: assembly {\n        /* \"contracts/fountain.sol\":531:7213  contract Serenity is Ownable, Pausable, ReentrancyGuard {... */\n      0x40\n      0x80\n      dup2\n      mstore\n      jumpi(tag_1, lt(calldatasize, 0x04))\n      0x00\n      0x0100000000000000000000000000000000000000000000000000000000\n      dup2\n      calldataload\n      div\n      0x480a6fdc\n      dup2\n      eq\n      tag_3\n      jumpi\n      0x4aa4a4fc\n      dup2\n      eq\n      tag_4\n      jumpi\n      0x5c975abb\n      dup2\n      eq\n      tag_5\n      jumpi\n      0x715018a6\n      dup2\n      eq\n      tag_6\n      jumpi\n      0x745284ce\n      dup2\n      eq\n      tag_7\n      jumpi\n      0x89a30271\n      dup2\n      eq\n      tag_8\n      jumpi\n      0x8da5cb5b\n      dup2\n      eq\n      tag_9\n      jumpi\n      0xc31c9c07\n      dup2\n      eq\n      tag_10\n      jumpi\n      0xf2fde38b\n      dup2\n      eq\n      tag_11\n      jumpi\n      0xf8b2cb4f\n      dup2\n      eq\n      tag_12\n      jumpi\n      jump(tag_2)\n    tag_3:\n      jumpi(tag_13, iszero(callvalue))\n      dup2\n      dup3\n      revert\n    tag_13:\n      tag_14\n      calldatasize\n      tag_15\n      jump\t// in\n    tag_14:\n        /* \"contracts/fountain.sol\":1665:4965  function deposit(... */\n      tag_16\n      dup2\n      dup4\n      dup6\n      dup8\n      dup10\n      dup12\n      dup14\n      dup16\n      tag_17\n      jump\t// in\n    tag_16:\n      pop\n      pop\n      pop\n      pop\n      pop\n      pop\n      pop\n      pop\n        /* \"contracts/fountain.sol\":531:7213  contract Serenity is Ownable, Pausable, ReentrancyGuard {... */\n      dup2\n      dup4\n      mload\n      return\n    tag_4:\n      jumpi(tag_18, iszero(callvalue))\n      dup2\n      dup3\n      revert\n    tag_18:\n      tag_19\n      calldatasize\n      tag_20\n      jump\t// in\n    tag_19:\n      dup3\n      mload\n        /* \"contracts/fountain.sol\":680:722  0xC02aaA39b223FE8D0A0e5C4F27eAD9083C756Cc2 */\n      0xc02aaa39b223fe8d0a0e5c4f27ead9083c756cc2\n        /* \"contracts/fountain.sol\":531:7213  contract Serenity is Ownable, Pausable, ReentrancyGuard {... */\n      dup2\n      mstore\n      0x20\n      dup2\n      return\n    tag_21:\n      sub\n      dup2\n      return\n    tag_5:\n      jumpi(tag_23, iszero(callvalue))\n      dup2\n      dup3\n      revert\n    tag_23:\n      tag_24\n      calldatasize\n      tag_20\n      jump\t// in\n    tag_24:\n      0xff\n      0x010000000000000000000000000000000000000000\n      dup4\n      sload\n      div\n      and\n      dup4\n      mload\n      dup1\n      tag_21\n      dup4\n      dup4\n      swap1\n      iszero\n      iszero\n      dup2\n      mstore\n      0x20\n      add\n      swap1\n      jump\n    tag_6:\n      jumpi(tag_27, iszero(callvalue))\n      dup2\n      dup3\n      revert\n    tag_27:\n      tag_28\n      calldatasize\n      tag_20\n      jump\t// in\n    tag_28:\n        /* \"@openzeppelin/contracts/access/Ownable.sol\":1831:1932  function renounceOwnership() public virtual onlyOwner {... */\n      tag_29\n      tag_30\n      jump\t// in\n    tag_29:\n        /* \"contracts/fountain.sol\":531:7213  contract Serenity is Ownable, Pausable, ReentrancyGuard {... */\n      dup2\n      dup4\n      mload\n      return\n    tag_7:\n      jumpi(tag_31, iszero(callvalue))\n      dup2\n      dup3\n      revert\n    tag_31:\n      tag_32\n      calldatasize\n      tag_33\n      jump\t// in\n    tag_32:\n        /* \"contracts/fountain.sol\":5177:7082  function finalize(... */\n      tag_34\n      dup2\n      dup4\n      dup6\n      tag_35\n      jump\t// in\n    tag_34:\n      pop\n      pop\n      pop\n        /* \"contracts/fountain.sol\":531:7213  contract Serenity is Ownable, Pausable, ReentrancyGuard {... */\n      dup2\n      dup4\n      mload\n      return\n    tag_8:\n      jumpi(tag_36, iszero(callvalue))\n      dup2\n      dup3\n      revert\n    tag_36:\n      tag_37\n      calldatasize\n      tag_20\n      jump\t// in\n    tag_37:\n      dup3\n      mload\n        /* \"contracts/fountain.sol\":759:801  0xA0b86991c6218b36c1d19D4a2e9Eb0cE3606eB48 */\n      0xa0b86991c6218b36c1d19d4a2e9eb0ce3606eb48\n        /* \"contracts/fountain.sol\":531:7213  contract Serenity is Ownable, Pausable, ReentrancyGuard {... */\n      dup2\n      mstore\n      0x20\n      dup2\n      return\n    tag_9:\n      jumpi(tag_40, iszero(callvalue))\n      dup2\n      dup3\n      revert\n    tag_40:\n      tag_41\n      calldatasize\n      tag_20\n      jump\t// in\n    tag_41:\n      dup2\n      sload\n      dup4\n      mload\n      sub(exp(0x02, 0xa0), 0x01)\n      swap1\n      swap2\n      and\n      dup1\n      dup3\n      mstore\n      swap1\n      0x20\n      dup2\n      return\n    tag_10:\n      jumpi(tag_44, iszero(callvalue))\n      dup2\n      dup3\n      revert\n    tag_44:\n      tag_45\n      calldatasize\n      tag_20\n      jump\t// in\n    tag_45:\n      dup3\n      mload\n        /* \"contracts/fountain.sol\":808:847  ISwapRouter public immutable swapRouter */\n      immutable(\"0xa89dab98646eeeb3665d545d51c6146ef2fb7643427936d0df6806075707fbb6\")\n      sub(exp(0x02, 0xa0), 0x01)\n        /* \"contracts/fountain.sol\":531:7213  contract Serenity is Ownable, Pausable, ReentrancyGuard {... */\n      and\n      dup2\n      mstore\n      0x20\n      dup2\n      return\n    tag_11:\n      jumpi(tag_47, iszero(callvalue))\n      dup2\n      dup3\n      revert\n    tag_47:\n        /* \"@openzeppelin/contracts/access/Ownable.sol\":2081:2279  function transferOwnership(address newOwner) public virtual onlyOwner {... */\n      tag_29\n        /* \"contracts/fountain.sol\":531:7213  contract Serenity is Ownable, Pausable, ReentrancyGuard {... */\n      tag_49\n      calldatasize\n      tag_50\n      jump\t// in\n    tag_49:\n        /* \"@openzeppelin/contracts/access/Ownable.sol\":2081:2279  function transferOwnership(address newOwner) public virtual onlyOwner {... */\n      tag_51\n      jump\t// in\n        /* \"contracts/fountain.sol\":531:7213  contract Serenity is Ownable, Pausable, ReentrancyGuard {... */\n    tag_12:\n      jumpi(tag_52, iszero(callvalue))\n      dup2\n      dup3\n      revert\n    tag_52:\n      tag_53\n      tag_54\n      calldatasize\n      tag_50\n      jump\t// in\n    tag_54:\n      sub(exp(0x02, 0xa0), 0x01)\n      and\n      0x00\n      swap1\n      dup2\n      mstore\n        /* \"contracts/fountain.sol\":7190:7198  balances */\n      0x03\n        /* \"contracts/fountain.sol\":531:7213  contract Serenity is Ownable, Pausable, ReentrancyGuard {... */\n      0x20\n      mstore\n      0x40\n      swap1\n      keccak256\n      sload\n      swap1\n        /* \"contracts/fountain.sol\":7088:7211  function getBalance(address user) public view returns (uint256 userBalance_) {... */\n      jump\n        /* \"contracts/fountain.sol\":531:7213  contract Serenity is Ownable, Pausable, ReentrancyGuard {... */\n    tag_53:\n      dup4\n      mload\n      dup2\n      dup2\n      mstore\n      0x20\n      dup2\n      return\n    tag_2:\n      pop\n      pop\n    tag_1:\n      pop\n      0x00\n      dup1\n      revert\n    tag_59:\n      calldataload(0x04)\n      sub(exp(0x02, 0xa0), 0x01)\n      dup2\n      and\n      dup2\n      eq\n      tag_61\n      jumpi\n      0x00\n      dup1\n      revert\n    tag_61:\n      swap1\n      jump\t// out\n    tag_62:\n      0x00\n      dup3\n      0x1f\n      dup4\n      add\n      slt\n      tag_64\n      jumpi\n      0x00\n      dup1\n      revert\n    tag_64:\n      dup2\n      calldataload\n      tag_65\n      dup2\n      tag_66\n      jump\t// in\n    tag_65:\n      mload(0x40)\n      tag_67\n      dup3\n      dup3\n      tag_68\n      jump\t// in\n    tag_67:\n      dup3\n      dup2\n      mstore\n      0x20\n      dup1\n      dup3\n      add\n      swap3\n      pop\n      dup6\n      dup2\n      add\n      dup2\n      dup6\n      mul\n      dup8\n      add\n      dup3\n      add\n      dup9\n      lt\n      iszero\n      tag_69\n      jumpi\n      0x00\n      dup1\n      revert\n    tag_69:\n      0x00\n    tag_70:\n      dup6\n      dup2\n      lt\n      iszero\n      tag_72\n      jumpi\n      dup2\n      calldataload\n      dup6\n      mstore\n      swap4\n      dup3\n      add\n      swap4\n      swap1\n      dup3\n      add\n      swap1\n      0x01\n      add\n      jump(tag_70)\n    tag_72:\n      pop\n      swap2\n      swap8\n      swap7\n      pop\n      pop\n      pop\n      pop\n      pop\n      pop\n      pop\n      jump\t// out\n    tag_20:\n      0x00\n      not(0x03)\n      dup3\n      add\n      slt\n      iszero\n      tag_74\n      jumpi\n      0x00\n      dup1\n      revert\n    tag_74:\n      pop\n      jump\t// out\n    tag_75:\n      0x00\n      dup2\n      dup4\n      sub\n      slt\n      iszero\n      tag_77\n      jumpi\n      0x00\n      dup1\n      revert\n    tag_77:\n      pop\n      pop\n      jump\t// out\n    tag_50:\n      0x00\n      0x20\n      not(0x03)\n      dup4\n      add\n      slt\n      iszero\n      tag_79\n      jumpi\n      0x00\n      dup1\n      revert\n    tag_79:\n      calldataload(0x04)\n      sub(exp(0x02, 0xa0), 0x01)\n      dup2\n      and\n      dup2\n      eq\n      tag_80\n      jumpi\n      0x00\n      dup1\n      revert\n    tag_80:\n      swap3\n      swap2\n      pop\n      pop\n      jump\t// out\n    tag_15:\n      0x00\n      dup1\n      dup1\n      dup1\n      dup1\n      dup1\n      dup1\n      dup1\n      0x0100\n      not(0x03)\n      dup11\n      add\n      slt\n      iszero\n      tag_82\n      jumpi\n      0x00\n      dup1\n      revert\n    tag_82:\n      calldataload(0x04)\n      sub(exp(0x02, 0xa0), 0x01)\n      dup1\n      dup3\n      and\n      dup3\n      eq\n      tag_83\n      jumpi\n      0x00\n      dup1\n      revert\n    tag_83:\n      swap1\n      swap9\n      pop\n      calldataload(0x24)\n      swap1\n      dup1\n      dup3\n      and\n      dup3\n      eq\n      tag_84\n      jumpi\n      0x00\n      dup1\n      revert\n    tag_84:\n      pop\n      swap7\n      pop\n      calldataload(0x44)\n      swap6\n      pop\n      calldataload(0x64)\n      swap5\n      pop\n      calldataload(0x84)\n      swap4\n      pop\n      calldataload(0xa4)\n      0xffffff\n      dup1\n      dup3\n      and\n      dup3\n      eq\n      tag_85\n      jumpi\n      0x00\n      dup1\n      revert\n    tag_85:\n      swap1\n      swap4\n      pop\n      calldataload(0xc4)\n      swap1\n      dup1\n      dup3\n      and\n      dup3\n      eq\n      tag_86\n      jumpi\n      0x00\n      dup1\n      revert\n    tag_86:\n      pop\n      dup1\n      swap3\n      pop\n      pop\n      calldataload(0xe4)\n      swap1\n      pop\n      swap2\n      swap4\n      swap6\n      swap8\n      pop\n      swap2\n      swap4\n      swap6\n      swap8\n      jump\t// out\n    tag_33:\n      0x00\n      dup1\n      dup1\n      0x60\n      not(0x03)\n      dup6\n      add\n      slt\n      iszero\n      tag_88\n      jumpi\n      0x00\n      dup1\n      revert\n    tag_88:\n      tag_89\n      tag_59\n      jump\t// in\n    tag_89:\n      swap3\n      pop\n      calldataload(0x24)\n      0xffffffffffffffff\n      dup1\n      dup3\n      gt\n      iszero\n      tag_90\n      jumpi\n      0x00\n      dup1\n      revert\n    tag_90:\n      dup6\n      0x23\n      dup4\n      add\n      slt\n      tag_91\n      jumpi\n      0x00\n      dup1\n      revert\n    tag_91:\n      dup2\n      0x04\n      add\n      calldataload\n      tag_92\n      dup2\n      tag_66\n      jump\t// in\n    tag_92:\n      mload(0x40)\n      tag_93\n      dup3\n      dup3\n      tag_68\n      jump\t// in\n    tag_93:\n      dup3\n      dup2\n      mstore\n      0x20\n      dup1\n      dup3\n      add\n      swap3\n      pop\n      0x24\n      dup7\n      dup2\n      add\n      swap1\n      dup3\n      dup7\n      mul\n      dup9\n      add\n      add\n      dup12\n      lt\n      iszero\n      tag_94\n      jumpi\n      0x00\n      dup1\n      revert\n    tag_94:\n      0x00\n    tag_95:\n      dup6\n      dup2\n      lt\n      iszero\n      tag_97\n      jumpi\n      dup2\n      calldataload\n      dup8\n      dup2\n      gt\n      iszero\n      tag_98\n      jumpi\n      0x00\n      dup1\n      revert\n    tag_98:\n      dup9\n      add\n      0x43\n      dup2\n      add\n      dup14\n      sgt\n      tag_99\n      jumpi\n      0x00\n      dup1\n      revert\n    tag_99:\n      0x24\n      dup2\n      add\n      calldataload\n      tag_100\n      dup2\n      tag_101\n      jump\t// in\n    tag_100:\n      mload(0x40)\n      tag_102\n      dup3\n      dup3\n      tag_68\n      jump\t// in\n    tag_102:\n      dup3\n      dup2\n      mstore\n      0x44\n      swap2\n      pop\n      dup16\n      dup3\n      dup5\n      dup7\n      add\n      add\n      gt\n      iszero\n      tag_103\n      jumpi\n      0x00\n      dup1\n      revert\n    tag_103:\n        /* \"@openzeppelin/contracts/security/ReentrancyGuard.sol\":1701:1702  1 */\n      dup3\n        /* \"contracts/fountain.sol\":531:7213  contract Serenity is Ownable, Pausable, ReentrancyGuard {... */\n      dup3\n      dup6\n      add\n      dup9\n      dup4\n      add\n        /* \"@openzeppelin/contracts/security/ReentrancyGuard.sol\":1701:1702  1 */\n      calldatacopy\n      0x00\n      swap3\n      dup2\n      add\n      dup8\n      add\n      swap3\n      swap1\n      swap3\n      mstore\n      pop\n        /* \"contracts/fountain.sol\":531:7213  contract Serenity is Ownable, Pausable, ReentrancyGuard {... */\n      dup7\n      mstore\n      pop\n      swap4\n      dup3\n      add\n      swap4\n      swap1\n      dup3\n      add\n      swap1\n      0x01\n      add\n      jump(tag_95)\n    tag_97:\n      pop\n      swap2\n      swap8\n      pop\n      pop\n      calldataload(0x44)\n      swap5\n      pop\n      pop\n      pop\n      pop\n      dup1\n      dup3\n      gt\n      iszero\n      tag_104\n      jumpi\n      0x00\n      dup1\n      revert\n    tag_104:\n      pop\n      tag_105\n      dup6\n      dup3\n      0x04\n      add\n      tag_62\n      jump\t// in\n    tag_105:\n      swap4\n      swap6\n      swap3\n      swap5\n      pop\n      pop\n      pop\n      jump\t// out\n    tag_106:\n      0x00\n      0x20\n      dup3\n      dup5\n      sub\n      slt\n      iszero\n      tag_108\n      jumpi\n      0x00\n      dup1\n      revert\n    tag_108:\n      dup2\n      mload\n      dup1\n      iszero\n      iszero\n      dup2\n      eq\n      tag_109\n      jumpi\n      0x00\n      dup1\n      revert\n    tag_109:\n      swap4\n      swap3\n      pop\n      pop\n      pop\n      jump\t// out\n    tag_110:\n      0x00\n      0x20\n      dup3\n      dup5\n      sub\n      slt\n      iszero\n      tag_112\n      jumpi\n      0x00\n      dup1\n      revert\n    tag_112:\n      pop\n      mload\n      swap2\n      swap1\n      pop\n      jump\t// out\n    tag_113:\n      0x00\n      dup2\n      mload\n        /* \"@openzeppelin/contracts/security/ReentrancyGuard.sol\":1701:1702  1 */\n      0x00\n    tag_115:\n      dup2\n      dup2\n      lt\n      iszero\n      tag_117\n      jumpi\n        /* \"contracts/fountain.sol\":531:7213  contract Serenity is Ownable, Pausable, ReentrancyGuard {... */\n      0x20\n        /* \"@openzeppelin/contracts/security/ReentrancyGuard.sol\":1701:1702  1 */\n      dup2\n      dup6\n      add\n      dup2\n      add\n      mload\n      dup7\n      dup4\n      add\n      mstore\n      add\n      jump(tag_115)\n    tag_117:\n      dup2\n      dup2\n      gt\n      iszero\n      tag_118\n      jumpi\n      0x00\n      dup3\n      dup7\n      add\n      mstore\n    tag_118:\n      pop\n        /* \"contracts/fountain.sol\":531:7213  contract Serenity is Ownable, Pausable, ReentrancyGuard {... */\n      swap3\n      swap1\n      swap3\n      add\n      swap3\n      swap2\n      pop\n      pop\n      jump\t// out\n    tag_125:\n      0x00\n      0x0100\n      dup3\n      add\n      swap1\n      pop\n      sub(exp(0x02, 0xa0), 0x01)\n      dup1\n      dup5\n      mload\n      and\n      dup4\n      mstore\n      dup1\n      0x20\n      dup6\n      add\n      mload\n      and\n      0x20\n      dup5\n      add\n      mstore\n      0xffffff\n      0x40\n      dup6\n      add\n      mload\n      and\n      0x40\n      dup5\n      add\n      mstore\n      dup1\n      0x60\n      dup6\n      add\n      mload\n      and\n      0x60\n      dup5\n      add\n      mstore\n      0x80\n      dup5\n      add\n      mload\n      0x80\n      dup5\n      add\n      mstore\n      0xa0\n      dup5\n      add\n      mload\n      0xa0\n      dup5\n      add\n      mstore\n      0xc0\n      dup5\n      add\n      mload\n      0xc0\n      dup5\n      add\n      mstore\n      dup1\n      0xe0\n      dup6\n      add\n      mload\n      and\n      0xe0\n      dup5\n      add\n      mstore\n      pop\n      swap3\n      swap2\n      pop\n      pop\n      jump\t// out\n    tag_130:\n      mload(0x40)\n      0x0100\n        /* \"@openzeppelin/contracts/security/ReentrancyGuard.sol\":1701:1702  1 */\n      dup2\n      add\n      0xffffffffffffffff\n      dup2\n      gt\n      dup3\n      dup3\n      lt\n      or\n      iszero\n      tag_133\n      jumpi\n      tag_133\n      tag_134\n      jump\t// in\n    tag_133:\n        /* \"contracts/fountain.sol\":531:7213  contract Serenity is Ownable, Pausable, ReentrancyGuard {... */\n      0x40\n        /* \"@openzeppelin/contracts/security/ReentrancyGuard.sol\":1701:1702  1 */\n      mstore\n        /* \"contracts/fountain.sol\":531:7213  contract Serenity is Ownable, Pausable, ReentrancyGuard {... */\n      swap1\n      jump\t// out\n    tag_66:\n      0x00\n      0xffffffffffffffff\n      dup3\n      gt\n      iszero\n      tag_137\n      jumpi\n      tag_137\n      tag_134\n      jump\t// in\n    tag_137:\n      pop\n      0x20\n      swap1\n      dup2\n      mul\n      add\n      swap1\n      jump\t// out\n    tag_101:\n      0x00\n      0xffffffffffffffff\n      dup3\n      gt\n      iszero\n      tag_140\n      jumpi\n      tag_140\n      tag_134\n      jump\t// in\n    tag_140:\n      pop\n      0x1f\n      add\n      not(0x1f)\n      and\n      0x20\n      add\n      swap1\n      jump\t// out\n    tag_141:\n      0x00\n      dup3\n      not\n      dup3\n      gt\n      iszero\n      tag_144\n      jumpi\n      tag_144\n      tag_145\n      jump\t// in\n    tag_144:\n      pop\n      add\n      swap1\n      jump\t// out\n    tag_146:\n      0x00\n      dup3\n      tag_148\n      jumpi\n      mstore(0x00, mul(0x4e487b71, exp(0x02, 0xe0)))\n      mstore(0x04, 0x12)\n      revert(0x00, 0x24)\n    tag_148:\n      pop\n      div\n      swap1\n      jump\t// out\n    tag_149:\n      0x00\n      dup2\n      not(0x00)\n      div\n      dup4\n      gt\n      dup3\n      iszero\n      iszero\n      and\n      iszero\n      tag_152\n      jumpi\n      tag_152\n      tag_145\n      jump\t// in\n    tag_152:\n      pop\n      mul\n      swap1\n      jump\t// out\n    tag_153:\n      0x00\n        /* \"@openzeppelin/contracts/security/ReentrancyGuard.sol\":2325:2332  _status */\n      0x01\n        /* \"contracts/fountain.sol\":531:7213  contract Serenity is Ownable, Pausable, ReentrancyGuard {... */\n      dup3\n      lt\n      iszero\n      tag_156\n      jumpi\n      tag_156\n      tag_145\n      jump\t// in\n    tag_156:\n      pop\n      not(0x00)\n      add\n      swap1\n      jump\t// out\n    tag_157:\n      0x00\n      dup3\n      dup3\n      lt\n      iszero\n      tag_160\n      jumpi\n      tag_160\n      tag_145\n      jump\t// in\n    tag_160:\n      pop\n      sub\n      swap1\n      jump\t// out\n        /* \"@openzeppelin/contracts/security/ReentrancyGuard.sol\":1701:1702  1 */\n    tag_163:\n      0x00\n      returndatasize\n      dup1\n      iszero\n      tag_166\n      jumpi\n      returndatasize\n        /* \"contracts/fountain.sol\":531:7213  contract Serenity is Ownable, Pausable, ReentrancyGuard {... */\n      tag_167\n      dup2\n      tag_101\n      jump\t// in\n    tag_167:\n      mload(0x40)\n      tag_168\n      dup3\n      dup3\n      tag_68\n      jump\t// in\n    tag_168:\n      dup3\n      dup2\n      mstore\n        /* \"@openzeppelin/contracts/security/ReentrancyGuard.sol\":1701:1702  1 */\n      dup1\n      swap5\n      pop\n      returndatasize\n      0x00\n      0x20\n      dup4\n      add\n      returndatacopy\n      pop\n      pop\n      pop\n      pop\n      swap1\n      jump\t// out\n    tag_166:\n        /* \"contracts/fountain.sol\":531:7213  contract Serenity is Ownable, Pausable, ReentrancyGuard {... */\n      0x60\n        /* \"@openzeppelin/contracts/security/ReentrancyGuard.sol\":1701:1702  1 */\n      swap2\n      pop\n      pop\n      swap1\n      jump\t// out\n    tag_169:\n        /* \"contracts/fountain.sol\":531:7213  contract Serenity is Ownable, Pausable, ReentrancyGuard {... */\n      0xa0\n        /* \"@openzeppelin/contracts/security/ReentrancyGuard.sol\":1701:1702  1 */\n      dup2\n      add\n      dup2\n      dup2\n      lt\n      0xffffffffffffffff\n      dup3\n      gt\n      or\n      iszero\n      tag_172\n      jumpi\n      tag_172\n      tag_134\n      jump\t// in\n    tag_172:\n      0x40\n      mstore\n      pop\n      jump\t// out\n    tag_68:\n        /* \"contracts/fountain.sol\":531:7213  contract Serenity is Ownable, Pausable, ReentrancyGuard {... */\n      0x1f\n      dup3\n      add\n      not(0x1f)\n      and\n        /* \"@openzeppelin/contracts/security/ReentrancyGuard.sol\":1701:1702  1 */\n      dup2\n      add\n      0xffffffffffffffff\n      dup2\n      gt\n      dup3\n      dup3\n      lt\n      or\n      iszero\n      tag_175\n      jumpi\n      tag_175\n      tag_134\n      jump\t// in\n    tag_175:\n      0x40\n      mstore\n      pop\n      pop\n      jump\t// out\n        /* \"@openzeppelin/contracts/access/Ownable.sol\":1359:1489  function _checkOwner() internal view virtual {... */\n    tag_176:\n      sub(exp(0x02, 0xa0), 0x01)\n        /* \"@openzeppelin/contracts/access/Ownable.sol\":1273:1279  _owner */\n      0x00\n        /* \"contracts/fountain.sol\":531:7213  contract Serenity is Ownable, Pausable, ReentrancyGuard {... */\n      sload\n      and\n        /* \"@openzeppelin/contracts/utils/Context.sol\":719:729  msg.sender */\n      caller\n        /* \"contracts/fountain.sol\":531:7213  contract Serenity is Ownable, Pausable, ReentrancyGuard {... */\n      dup2\n        /* \"@openzeppelin/contracts/access/Ownable.sol\":1422:1445  owner() == _msgSender() */\n      eq\n        /* \"contracts/fountain.sol\":531:7213  contract Serenity is Ownable, Pausable, ReentrancyGuard {... */\n      tag_74\n      jumpi\n      mload(0x40)\n      mul(0x461bcd, exp(0x02, 0xe5))\n      dup2\n      mstore\n      0x20\n      0x04\n      dup3\n      add\n      mstore\n      0x20\n      0x24\n      dup3\n      add\n      mstore\n      0x4f776e61626c653a2063616c6c6572206973206e6f7420746865206f776e6572\n      0x44\n      dup3\n      add\n      mstore\n      0x64\n      dup2\n      revert\n        /* \"@openzeppelin/contracts/security/Pausable.sol\":1767:1873  function _requireNotPaused() internal view virtual {... */\n    tag_179:\n        /* \"contracts/fountain.sol\":531:7213  contract Serenity is Ownable, Pausable, ReentrancyGuard {... */\n      0xff\n      0x010000000000000000000000000000000000000000\n        /* \"@openzeppelin/contracts/security/Pausable.sol\":1685:1692  _paused */\n      0x00\n        /* \"contracts/fountain.sol\":531:7213  contract Serenity is Ownable, Pausable, ReentrancyGuard {... */\n      sload\n      div\n      and\n        /* \"@openzeppelin/contracts/security/Pausable.sol\":1836:1845  !paused() */\n      iszero\n        /* \"contracts/fountain.sol\":531:7213  contract Serenity is Ownable, Pausable, ReentrancyGuard {... */\n      tag_181\n      jumpi\n      mload(0x40)\n      mul(0x461bcd, exp(0x02, 0xe5))\n      dup2\n      mstore\n      0x20\n      0x04\n      dup3\n      add\n      mstore\n      0x10\n      0x24\n      dup3\n      add\n      mstore\n      0x5061757361626c653a2070617573656400000000000000000000000000000000\n      0x44\n      dup3\n      add\n      mstore\n      0x64\n      dup2\n      revert\n    tag_181:\n        /* \"@openzeppelin/contracts/security/Pausable.sol\":1767:1873  function _requireNotPaused() internal view virtual {... */\n      jump\t// out\n        /* \"@uniswap/v3-periphery/contracts/libraries/TransferHelper.sol\":1873:2180  function safeApprove(... */\n    tag_183:\n        /* \"contracts/fountain.sol\":531:7213  contract Serenity is Ownable, Pausable, ReentrancyGuard {... */\n      mload(0x40)\n        /* \"@uniswap/v3-periphery/contracts/libraries/TransferHelper.sol\":2055:2078  IERC20.approve.selector */\n      0x095ea7b300000000000000000000000000000000000000000000000000000000\n        /* \"@uniswap/v3-periphery/contracts/libraries/TransferHelper.sol\":2032:2090  abi.encodeWithSelector(IERC20.approve.selector, to, value) */\n      0x20\n      dup3\n      add\n      swap1\n      dup2\n      mstore\n      sub(exp(0x02, 0xa0), 0x01)\n        /* \"contracts/fountain.sol\":531:7213  contract Serenity is Ownable, Pausable, ReentrancyGuard {... */\n      dup5\n      and\n        /* \"@uniswap/v3-periphery/contracts/libraries/TransferHelper.sol\":2032:2090  abi.encodeWithSelector(IERC20.approve.selector, to, value) */\n      0x24\n      dup4\n      add\n        /* \"contracts/fountain.sol\":531:7213  contract Serenity is Ownable, Pausable, ReentrancyGuard {... */\n      mstore\n      0x44\n      dup1\n      dup4\n      add\n      dup7\n      swap1\n      mstore\n        /* \"@uniswap/v3-periphery/contracts/libraries/TransferHelper.sol\":2032:2090  abi.encodeWithSelector(IERC20.approve.selector, to, value) */\n      dup3\n      mstore\n        /* \"contracts/fountain.sol\":531:7213  contract Serenity is Ownable, Pausable, ReentrancyGuard {... */\n      0x64\n        /* \"@uniswap/v3-periphery/contracts/libraries/TransferHelper.sol\":2032:2090  abi.encodeWithSelector(IERC20.approve.selector, to, value) */\n      tag_186\n        /* \"contracts/fountain.sol\":531:7213  contract Serenity is Ownable, Pausable, ReentrancyGuard {... */\n      dup2\n      dup5\n        /* \"@uniswap/v3-periphery/contracts/libraries/TransferHelper.sol\":2032:2090  abi.encodeWithSelector(IERC20.approve.selector, to, value) */\n      tag_68\n      jump\t// in\n    tag_186:\n      pop\n        /* \"@uniswap/v3-periphery/contracts/libraries/TransferHelper.sol\":2021:2091  token.call(abi.encodeWithSelector(IERC20.approve.selector, to, value)) */\n      0x00\n      dup1\n      dup4\n      mload\n      dup4\n      0x00\n      dup8\n      gas\n      call\n      swap2\n      pop\n      pop\n      tag_187\n      tag_163\n      jump\t// in\n    tag_187:\n        /* \"@uniswap/v3-periphery/contracts/libraries/TransferHelper.sol\":2109:2166  success && (data.length == 0 || abi.decode(data, (bool))) */\n      dup2\n      dup3\n      iszero\n      tag_188\n      jumpi\n        /* \"@uniswap/v3-periphery/contracts/libraries/TransferHelper.sol\":2121:2132  data.length */\n      dup2\n        /* \"contracts/fountain.sol\":531:7213  contract Serenity is Ownable, Pausable, ReentrancyGuard {... */\n      mload\n        /* \"@uniswap/v3-periphery/contracts/libraries/TransferHelper.sol\":2121:2137  data.length == 0 */\n      dup1\n      iszero\n        /* \"@uniswap/v3-periphery/contracts/libraries/TransferHelper.sol\":2121:2165  data.length == 0 || abi.decode(data, (bool)) */\n      dup1\n      tag_189\n      jumpi\n        /* \"@uniswap/v3-periphery/contracts/libraries/TransferHelper.sol\":2141:2165  abi.decode(data, (bool)) */\n      tag_190\n        /* \"@uniswap/v3-periphery/contracts/libraries/TransferHelper.sol\":2032:2090  abi.encodeWithSelector(IERC20.approve.selector, to, value) */\n      0x20\n        /* \"@uniswap/v3-periphery/contracts/libraries/TransferHelper.sol\":2141:2165  abi.decode(data, (bool)) */\n      dup4\n      dup7\n      add\n      add\n        /* \"@uniswap/v3-periphery/contracts/libraries/TransferHelper.sol\":2032:2090  abi.encodeWithSelector(IERC20.approve.selector, to, value) */\n      0x20\n        /* \"@uniswap/v3-periphery/contracts/libraries/TransferHelper.sol\":2141:2165  abi.decode(data, (bool)) */\n      dup7\n      add\n      tag_106\n      jump\t// in\n    tag_190:\n        /* \"@uniswap/v3-periphery/contracts/libraries/TransferHelper.sol\":2121:2165  data.length == 0 || abi.decode(data, (bool)) */\n      swap1\n      pop\n    tag_189:\n        /* \"@uniswap/v3-periphery/contracts/libraries/TransferHelper.sol\":2109:2166  success && (data.length == 0 || abi.decode(data, (bool))) */\n      swap2\n      pop\n      pop\n    tag_188:\n        /* \"contracts/fountain.sol\":531:7213  contract Serenity is Ownable, Pausable, ReentrancyGuard {... */\n      dup1\n      tag_191\n      jumpi\n      mload(0x40)\n      swap3\n      pop\n      mul(0x461bcd, exp(0x02, 0xe5))\n      dup4\n      mstore\n        /* \"@uniswap/v3-periphery/contracts/libraries/TransferHelper.sol\":2032:2090  abi.encodeWithSelector(IERC20.approve.selector, to, value) */\n      0x20\n        /* \"contracts/fountain.sol\":531:7213  contract Serenity is Ownable, Pausable, ReentrancyGuard {... */\n      0x04\n      dup5\n      add\n      mstore\n      0x02\n        /* \"@uniswap/v3-periphery/contracts/libraries/TransferHelper.sol\":2032:2090  abi.encodeWithSelector(IERC20.approve.selector, to, value) */\n      0x24\n        /* \"contracts/fountain.sol\":531:7213  contract Serenity is Ownable, Pausable, ReentrancyGuard {... */\n      dup5\n      add\n      mstore\n      0x5341000000000000000000000000000000000000000000000000000000000000\n      0x44\n      dup5\n      add\n      mstore\n      0x64\n      dup4\n      revert\n    tag_191:\n      pop\n      pop\n      pop\n        /* \"@uniswap/v3-periphery/contracts/libraries/TransferHelper.sol\":1873:2180  function safeApprove(... */\n      pop\n      pop\n      pop\n      jump\t// out\n        /* \"@uniswap/v3-periphery/contracts/libraries/TransferHelper.sol\":561:919  function safeTransferFrom(... */\n    tag_192:\n        /* \"contracts/fountain.sol\":531:7213  contract Serenity is Ownable, Pausable, ReentrancyGuard {... */\n      mload(0x40)\n        /* \"@uniswap/v3-periphery/contracts/libraries/TransferHelper.sol\":759:828  abi.encodeWithSelector(IERC20.transferFrom.selector, from, to, value) */\n      0x20\n      dup2\n      add\n        /* \"@uniswap/v3-periphery/contracts/libraries/TransferHelper.sol\":782:810  IERC20.transferFrom.selector */\n      0x23b872dd00000000000000000000000000000000000000000000000000000000\n        /* \"@uniswap/v3-periphery/contracts/libraries/TransferHelper.sol\":759:828  abi.encodeWithSelector(IERC20.transferFrom.selector, from, to, value) */\n      dup2\n      mstore\n      sub(exp(0x02, 0xa0), 0x01)\n        /* \"contracts/fountain.sol\":531:7213  contract Serenity is Ownable, Pausable, ReentrancyGuard {... */\n      dup1\n      dup6\n      and\n        /* \"@uniswap/v3-periphery/contracts/libraries/TransferHelper.sol\":759:828  abi.encodeWithSelector(IERC20.transferFrom.selector, from, to, value) */\n      0x24\n      dup5\n      add\n        /* \"contracts/fountain.sol\":531:7213  contract Serenity is Ownable, Pausable, ReentrancyGuard {... */\n      mstore\n      dup1\n      dup7\n      and\n      0x44\n        /* \"@uniswap/v3-periphery/contracts/libraries/TransferHelper.sol\":759:828  abi.encodeWithSelector(IERC20.transferFrom.selector, from, to, value) */\n      dup5\n        /* \"contracts/fountain.sol\":531:7213  contract Serenity is Ownable, Pausable, ReentrancyGuard {... */\n      add\n      mstore\n      pop\n      dup6\n      0x64\n        /* \"@uniswap/v3-periphery/contracts/libraries/TransferHelper.sol\":759:828  abi.encodeWithSelector(IERC20.transferFrom.selector, from, to, value) */\n      dup4\n        /* \"contracts/fountain.sol\":531:7213  contract Serenity is Ownable, Pausable, ReentrancyGuard {... */\n      add\n      mstore\n      0x64\n        /* \"@uniswap/v3-periphery/contracts/libraries/TransferHelper.sol\":759:828  abi.encodeWithSelector(IERC20.transferFrom.selector, from, to, value) */\n      dup3\n      mstore\n      tag_194\n      dup3\n      tag_169\n      jump\t// in\n    tag_194:\n      0x00\n      dup1\n        /* \"@uniswap/v3-periphery/contracts/libraries/TransferHelper.sol\":748:829  token.call(abi.encodeWithSelector(IERC20.transferFrom.selector, from, to, value)) */\n      dup4\n      mload\n      dup4\n      0x00\n      dup8\n      gas\n      call\n      swap2\n      pop\n      pop\n      tag_195\n      tag_163\n      jump\t// in\n    tag_195:\n        /* \"@uniswap/v3-periphery/contracts/libraries/TransferHelper.sol\":847:904  success && (data.length == 0 || abi.decode(data, (bool))) */\n      dup2\n      dup3\n      iszero\n      tag_196\n      jumpi\n        /* \"@uniswap/v3-periphery/contracts/libraries/TransferHelper.sol\":859:870  data.length */\n      dup2\n        /* \"contracts/fountain.sol\":531:7213  contract Serenity is Ownable, Pausable, ReentrancyGuard {... */\n      mload\n        /* \"@uniswap/v3-periphery/contracts/libraries/TransferHelper.sol\":859:875  data.length == 0 */\n      dup1\n      iszero\n        /* \"@uniswap/v3-periphery/contracts/libraries/TransferHelper.sol\":859:903  data.length == 0 || abi.decode(data, (bool)) */\n      dup1\n      tag_197\n      jumpi\n        /* \"@uniswap/v3-periphery/contracts/libraries/TransferHelper.sol\":879:903  abi.decode(data, (bool)) */\n      tag_198\n        /* \"@uniswap/v3-periphery/contracts/libraries/TransferHelper.sol\":759:828  abi.encodeWithSelector(IERC20.transferFrom.selector, from, to, value) */\n      0x20\n        /* \"@uniswap/v3-periphery/contracts/libraries/TransferHelper.sol\":879:903  abi.decode(data, (bool)) */\n      dup4\n      dup7\n      add\n      add\n        /* \"@uniswap/v3-periphery/contracts/libraries/TransferHelper.sol\":759:828  abi.encodeWithSelector(IERC20.transferFrom.selector, from, to, value) */\n      0x20\n        /* \"@uniswap/v3-periphery/contracts/libraries/TransferHelper.sol\":879:903  abi.decode(data, (bool)) */\n      dup7\n      add\n      tag_106\n      jump\t// in\n    tag_198:\n        /* \"@uniswap/v3-periphery/contracts/libraries/TransferHelper.sol\":859:903  data.length == 0 || abi.decode(data, (bool)) */\n      swap1\n      pop\n    tag_197:\n        /* \"@uniswap/v3-periphery/contracts/libraries/TransferHelper.sol\":847:904  success && (data.length == 0 || abi.decode(data, (bool))) */\n      swap2\n      pop\n      pop\n    tag_196:\n        /* \"contracts/fountain.sol\":531:7213  contract Serenity is Ownable, Pausable, ReentrancyGuard {... */\n      dup1\n      tag_199\n      jumpi\n      mload(0x40)\n      swap3\n      pop\n      mul(0x461bcd, exp(0x02, 0xe5))\n      dup4\n      mstore\n        /* \"@uniswap/v3-periphery/contracts/libraries/TransferHelper.sol\":759:828  abi.encodeWithSelector(IERC20.transferFrom.selector, from, to, value) */\n      0x20\n        /* \"contracts/fountain.sol\":531:7213  contract Serenity is Ownable, Pausable, ReentrancyGuard {... */\n      0x04\n      dup5\n      add\n      mstore\n      0x03\n        /* \"@uniswap/v3-periphery/contracts/libraries/TransferHelper.sol\":759:828  abi.encodeWithSelector(IERC20.transferFrom.selector, from, to, value) */\n      0x24\n        /* \"contracts/fountain.sol\":531:7213  contract Serenity is Ownable, Pausable, ReentrancyGuard {... */\n      dup5\n      add\n      mstore\n      0x5354460000000000000000000000000000000000000000000000000000000000\n      0x44\n      dup5\n      add\n      mstore\n      0x64\n      dup4\n      revert\n    tag_199:\n      pop\n      pop\n      pop\n        /* \"@uniswap/v3-periphery/contracts/libraries/TransferHelper.sol\":561:919  function safeTransferFrom(... */\n      pop\n      pop\n      pop\n      pop\n      jump\t// out\n        /* \"contracts/fountain.sol\":531:7213  contract Serenity is Ownable, Pausable, ReentrancyGuard {... */\n    tag_200:\n      0x00\n      0xff\n      dup3\n      and\n      0xff\n      dup2\n      eq\n      iszero\n      tag_203\n      jumpi\n      tag_203\n      tag_145\n      jump\t// in\n    tag_203:\n      0x01\n      add\n      swap3\n      swap2\n      pop\n      pop\n      jump\t// out\n    tag_206:\n      0x00\n      dup2\n      mload\n      dup4\n      lt\n      tag_208\n      jumpi\n      mstore(0x00, mul(0x4e487b71, exp(0x02, 0xe0)))\n      mstore(0x04, 0x32)\n      revert(0x00, 0x24)\n    tag_208:\n      pop\n      0x20\n      swap2\n      dup3\n      mul\n      add\n      add\n      swap1\n      jump\t// out\n        /* \"@openzeppelin/contracts/access/Ownable.sol\":1063:1125  modifier onlyOwner() {... */\n    tag_30:\n      tag_210\n      tag_176\n      jump\t// in\n    tag_210:\n        /* \"contracts/fountain.sol\":531:7213  contract Serenity is Ownable, Pausable, ReentrancyGuard {... */\n      sload(0x00)\n      not(sub(exp(0x02, 0xa0), 0x01))\n      dup2\n      and\n      0x00\n      sstore\n      0x00\n      sub(exp(0x02, 0xa0), 0x01)\n      dup3\n      and\n        /* \"@openzeppelin/contracts/access/Ownable.sol\":2573:2613  OwnershipTransferred(oldOwner, newOwner) */\n      0x8be0079c531659141344cd1fd0a4f28419497f9722a3daafe3b4186f6b6457e0\n        /* \"contracts/fountain.sol\":531:7213  contract Serenity is Ownable, Pausable, ReentrancyGuard {... */\n      0x00\n      mload(0x40)\n        /* \"@openzeppelin/contracts/access/Ownable.sol\":2573:2613  OwnershipTransferred(oldOwner, newOwner) */\n      log3\n      pop\n        /* \"@openzeppelin/contracts/access/Ownable.sol\":1063:1125  modifier onlyOwner() {... */\n      jump\t// out\n    tag_51:\n      tag_212\n      tag_176\n      jump\t// in\n    tag_212:\n      sub(exp(0x02, 0xa0), 0x01)\n        /* \"contracts/fountain.sol\":531:7213  contract Serenity is Ownable, Pausable, ReentrancyGuard {... */\n      dup1\n        /* \"@openzeppelin/contracts/access/Ownable.sol\":2169:2191  newOwner != address(0) */\n      dup3\n        /* \"contracts/fountain.sol\":531:7213  contract Serenity is Ownable, Pausable, ReentrancyGuard {... */\n      and\n      dup1\n      tag_213\n      jumpi\n      mload(0x40)\n      mul(0x461bcd, exp(0x02, 0xe5))\n      dup2\n      mstore\n      0x20\n      0x04\n      dup3\n      add\n      mstore\n      0x26\n      0x24\n      dup3\n      add\n      mstore\n      0x4f776e61626c653a206e6577206f776e657220697320746865207a65726f2061\n      0x44\n      dup3\n      add\n      mstore\n      0x6464726573730000000000000000000000000000000000000000000000000000\n      0x64\n      dup3\n      add\n      mstore\n      0x84\n      dup2\n      revert\n    tag_213:\n        /* \"@openzeppelin/contracts/access/Ownable.sol\":2525:2531  _owner */\n      0x00\n        /* \"contracts/fountain.sol\":531:7213  contract Serenity is Ownable, Pausable, ReentrancyGuard {... */\n      sload\n      dup2\n      not(sub(exp(0x02, 0xa0), 0x01))\n      dup3\n      and\n      or\n        /* \"@openzeppelin/contracts/access/Ownable.sol\":2525:2531  _owner */\n      0x00\n        /* \"contracts/fountain.sol\":531:7213  contract Serenity is Ownable, Pausable, ReentrancyGuard {... */\n      sstore\n        /* \"@openzeppelin/contracts/access/Ownable.sol\":2573:2613  OwnershipTransferred(oldOwner, newOwner) */\n      dup4\n        /* \"contracts/fountain.sol\":531:7213  contract Serenity is Ownable, Pausable, ReentrancyGuard {... */\n      dup4\n      dup3\n      and\n        /* \"@openzeppelin/contracts/access/Ownable.sol\":2573:2613  OwnershipTransferred(oldOwner, newOwner) */\n      0x8be0079c531659141344cd1fd0a4f28419497f9722a3daafe3b4186f6b6457e0\n        /* \"@openzeppelin/contracts/access/Ownable.sol\":2525:2531  _owner */\n      0x00\n        /* \"contracts/fountain.sol\":531:7213  contract Serenity is Ownable, Pausable, ReentrancyGuard {... */\n      mload(0x40)\n        /* \"@openzeppelin/contracts/access/Ownable.sol\":2573:2613  OwnershipTransferred(oldOwner, newOwner) */\n      log3\n      pop\n      pop\n      pop\n        /* \"@openzeppelin/contracts/access/Ownable.sol\":1063:1125  modifier onlyOwner() {... */\n      pop\n      jump\t// out\n        /* \"@openzeppelin/contracts/security/Pausable.sol\":1204:1276  modifier whenNotPaused() {... */\n    tag_17:\n      tag_215\n      tag_179\n      jump\t// in\n    tag_215:\n        /* \"@openzeppelin/contracts/security/ReentrancyGuard.sol\":1744:1745  2 */\n      0x02\n        /* \"@openzeppelin/contracts/security/ReentrancyGuard.sol\":2317:2380  require(_status != _ENTERED, \"ReentrancyGuard: reentrant call\") */\n      tag_216\n        /* \"@openzeppelin/contracts/security/ReentrancyGuard.sol\":1744:1745  2 */\n      dup2\n        /* \"@openzeppelin/contracts/security/ReentrancyGuard.sol\":2325:2332  _status */\n      0x01\n        /* \"contracts/fountain.sol\":531:7213  contract Serenity is Ownable, Pausable, ReentrancyGuard {... */\n      sload\n        /* \"@openzeppelin/contracts/security/ReentrancyGuard.sol\":2325:2344  _status != _ENTERED */\n      eq\n      iszero\n        /* \"@openzeppelin/contracts/security/ReentrancyGuard.sol\":2317:2380  require(_status != _ENTERED, \"ReentrancyGuard: reentrant call\") */\n      tag_217\n      jump\t// in\n    tag_216:\n        /* \"@openzeppelin/contracts/security/ReentrancyGuard.sol\":1744:1745  2 */\n      dup1\n        /* \"@openzeppelin/contracts/security/ReentrancyGuard.sol\":2325:2332  _status */\n      0x01\n        /* \"contracts/fountain.sol\":531:7213  contract Serenity is Ownable, Pausable, ReentrancyGuard {... */\n      sstore\n        /* \"contracts/fountain.sol\":2258:2271  totalAmountIn */\n      tag_218\n      dup5\n        /* \"contracts/fountain.sol\":2251:2255  this */\n      address\n        /* \"contracts/fountain.sol\":2231:2241  msg.sender */\n      caller\n        /* \"contracts/fountain.sol\":2258:2271  totalAmountIn */\n      dup7\n      tag_192\n      jump\t// in\n    tag_218:\n      sub(exp(0x02, 0xa0), 0x01)\n        /* \"contracts/fountain.sol\":531:7213  contract Serenity is Ownable, Pausable, ReentrancyGuard {... */\n      dup1\n        /* \"contracts/fountain.sol\":2403:2413  swapRouter */\n      immutable(\"0xa89dab98646eeeb3665d545d51c6146ef2fb7643427936d0df6806075707fbb6\")\n        /* \"contracts/fountain.sol\":531:7213  contract Serenity is Ownable, Pausable, ReentrancyGuard {... */\n      and\n        /* \"contracts/fountain.sol\":2416:2429  totalAmountIn */\n      tag_219\n      dup7\n      dup3\n      dup8\n      tag_183\n      jump\t// in\n    tag_219:\n        /* \"@openzeppelin/contracts/security/ReentrancyGuard.sol\":1744:1745  2 */\n      dup3\n        /* \"contracts/fountain.sol\":531:7213  contract Serenity is Ownable, Pausable, ReentrancyGuard {... */\n      sload\n      tag_220\n      tag_130\n      jump\t// in\n    tag_220:\n      sub(exp(0x02, 0xa0), 0x01)\n      dup8\n      and\n      dup2\n      mstore\n        /* \"contracts/fountain.sol\":680:722  0xC02aaA39b223FE8D0A0e5C4F27eAD9083C756Cc2 */\n      0xc02aaa39b223fe8d0a0e5c4f27ead9083c756cc2\n        /* \"contracts/fountain.sol\":2584:3209  ISwapRouter.ExactOutputSingleParams({... */\n      0x20\n      dup3\n      add\n        /* \"contracts/fountain.sol\":531:7213  contract Serenity is Ownable, Pausable, ReentrancyGuard {... */\n      mstore\n      0xffffff\n      dup12\n      and\n        /* \"contracts/fountain.sol\":2584:3209  ISwapRouter.ExactOutputSingleParams({... */\n      0x40\n      dup3\n      dup2\n      add\n        /* \"contracts/fountain.sol\":531:7213  contract Serenity is Ownable, Pausable, ReentrancyGuard {... */\n      swap2\n      swap1\n      swap2\n      mstore\n        /* \"contracts/fountain.sol\":2251:2255  this */\n      address\n        /* \"contracts/fountain.sol\":2584:3209  ISwapRouter.ExactOutputSingleParams({... */\n      0x60\n      dup4\n      add\n        /* \"contracts/fountain.sol\":531:7213  contract Serenity is Ownable, Pausable, ReentrancyGuard {... */\n      mstore\n      dup10\n        /* \"contracts/fountain.sol\":2584:3209  ISwapRouter.ExactOutputSingleParams({... */\n      0x80\n      dup4\n      add\n        /* \"contracts/fountain.sol\":531:7213  contract Serenity is Ownable, Pausable, ReentrancyGuard {... */\n      mstore\n      dup3\n        /* \"contracts/fountain.sol\":2584:3209  ISwapRouter.ExactOutputSingleParams({... */\n      0xa0\n      dup4\n      add\n        /* \"contracts/fountain.sol\":531:7213  contract Serenity is Ownable, Pausable, ReentrancyGuard {... */\n      mstore\n      dup11\n        /* \"contracts/fountain.sol\":2584:3209  ISwapRouter.ExactOutputSingleParams({... */\n      0xc0\n      dup4\n      add\n        /* \"contracts/fountain.sol\":531:7213  contract Serenity is Ownable, Pausable, ReentrancyGuard {... */\n      mstore\n      0x00\n      swap3\n      pop\n      dup3\n        /* \"contracts/fountain.sol\":2584:3209  ISwapRouter.ExactOutputSingleParams({... */\n      0xe0\n      dup4\n      add\n        /* \"contracts/fountain.sol\":531:7213  contract Serenity is Ownable, Pausable, ReentrancyGuard {... */\n      mstore\n        /* \"contracts/fountain.sol\":3368:3411  swapRouter.exactOutputSingle(ethSwapParams) */\n      dup4\n      extcodesize\n      tag_228\n      jumpi\n        /* \"contracts/fountain.sol\":531:7213  contract Serenity is Ownable, Pausable, ReentrancyGuard {... */\n      dup3\n      dup4\n      revert\n        /* \"contracts/fountain.sol\":3368:3411  swapRouter.exactOutputSingle(ethSwapParams) */\n    tag_228:\n        /* \"contracts/fountain.sol\":2584:3209  ISwapRouter.ExactOutputSingleParams({... */\n      dup1\n        /* \"contracts/fountain.sol\":531:7213  contract Serenity is Ownable, Pausable, ReentrancyGuard {... */\n      mload\n      0xdb3e219800000000000000000000000000000000000000000000000000000000\n        /* \"contracts/fountain.sol\":3368:3411  swapRouter.exactOutputSingle(ethSwapParams) */\n      dup2\n      mstore\n        /* \"contracts/fountain.sol\":2584:3209  ISwapRouter.ExactOutputSingleParams({... */\n      0x20\n        /* \"contracts/fountain.sol\":3368:3411  swapRouter.exactOutputSingle(ethSwapParams) */\n      dup2\n      dup3\n      tag_229\n      dup7\n      0x04\n      dup7\n      add\n      tag_125\n      jump\t// in\n    tag_229:\n      sub\n      dup4\n        /* \"contracts/fountain.sol\":531:7213  contract Serenity is Ownable, Pausable, ReentrancyGuard {... */\n      dup8\n        /* \"contracts/fountain.sol\":3368:3411  swapRouter.exactOutputSingle(ethSwapParams) */\n      dup10\n      gas\n      call\n      swap3\n      pop\n      dup3\n      tag_231\n      jumpi\n      tag_231\n      tag_232\n      jump\t// in\n    tag_231:\n        /* \"contracts/fountain.sol\":531:7213  contract Serenity is Ownable, Pausable, ReentrancyGuard {... */\n      dup4\n        /* \"contracts/fountain.sol\":3368:3411  swapRouter.exactOutputSingle(ethSwapParams) */\n      dup4\n      iszero\n      tag_233\n      jumpi\n      tag_234\n      returndatasize\n      dup4\n      tag_68\n      jump\t// in\n    tag_234:\n      tag_235\n      returndatasize\n      dup4\n      add\n      dup4\n      tag_110\n      jump\t// in\n    tag_235:\n      swap1\n      pop\n    tag_233:\n        /* \"@openzeppelin/contracts/security/ReentrancyGuard.sol\":1744:1745  2 */\n      dup8\n        /* \"contracts/fountain.sol\":531:7213  contract Serenity is Ownable, Pausable, ReentrancyGuard {... */\n      sload\n      swap4\n      pop\n        /* \"contracts/fountain.sol\":680:722  0xC02aaA39b223FE8D0A0e5C4F27eAD9083C756Cc2 */\n      0xc02aaa39b223fe8d0a0e5c4f27ead9083c756cc2\n      swap2\n      pop\n      dup2\n        /* \"contracts/fountain.sol\":3446:3492  IWETH(WETH9).withdraw(ephemeralGasMoneyAmount) */\n      extcodesize\n      tag_236\n      jumpi\n        /* \"contracts/fountain.sol\":531:7213  contract Serenity is Ownable, Pausable, ReentrancyGuard {... */\n      dup5\n      dup6\n      revert\n        /* \"contracts/fountain.sol\":3446:3492  IWETH(WETH9).withdraw(ephemeralGasMoneyAmount) */\n    tag_236:\n        /* \"contracts/fountain.sol\":531:7213  contract Serenity is Ownable, Pausable, ReentrancyGuard {... */\n      dup3\n      mload\n      0x2e1a7d4d00000000000000000000000000000000000000000000000000000000\n        /* \"contracts/fountain.sol\":3446:3492  IWETH(WETH9).withdraw(ephemeralGasMoneyAmount) */\n      dup2\n      mstore\n        /* \"contracts/fountain.sol\":3368:3411  swapRouter.exactOutputSingle(ethSwapParams) */\n      0x04\n        /* \"contracts/fountain.sol\":3446:3492  IWETH(WETH9).withdraw(ephemeralGasMoneyAmount) */\n      dup2\n      add\n        /* \"contracts/fountain.sol\":531:7213  contract Serenity is Ownable, Pausable, ReentrancyGuard {... */\n      dup6\n      swap1\n      mstore\n      dup6\n      dup2\n      0x24\n      dup2\n      dup4\n        /* \"contracts/fountain.sol\":680:722  0xC02aaA39b223FE8D0A0e5C4F27eAD9083C756Cc2 */\n      dup8\n        /* \"contracts/fountain.sol\":3446:3492  IWETH(WETH9).withdraw(ephemeralGasMoneyAmount) */\n      gas\n      call\n      swap5\n      pop\n      dup5\n      tag_239\n      jumpi\n      tag_239\n      tag_232\n      jump\t// in\n    tag_239:\n      dup5\n      iszero\n      tag_242\n      jumpi\n      tag_241\n      returndatasize\n      dup3\n      tag_68\n      jump\t// in\n    tag_241:\n      tag_242\n      returndatasize\n      dup3\n      add\n      dup3\n      tag_75\n      jump\t// in\n    tag_242:\n      pop\n        /* \"@openzeppelin/contracts/security/ReentrancyGuard.sol\":1744:1745  2 */\n      dup8\n        /* \"contracts/fountain.sol\":531:7213  contract Serenity is Ownable, Pausable, ReentrancyGuard {... */\n      sload\n      swap4\n      pop\n      dup5\n      dup6\n      dup7\n        /* \"contracts/fountain.sol\":2584:3209  ISwapRouter.ExactOutputSingleParams({... */\n      dup6\n        /* \"contracts/fountain.sol\":531:7213  contract Serenity is Ownable, Pausable, ReentrancyGuard {... */\n      mload\n        /* \"contracts/fountain.sol\":3594:3666  payable(ephemeralWalletAddress).call{value: ephemeralGasMoneyAmount}(\"\") */\n      dup8\n        /* \"contracts/fountain.sol\":531:7213  contract Serenity is Ownable, Pausable, ReentrancyGuard {... */\n      dup12\n        /* \"contracts/fountain.sol\":3594:3625  payable(ephemeralWalletAddress) */\n      dup15\n        /* \"contracts/fountain.sol\":531:7213  contract Serenity is Ownable, Pausable, ReentrancyGuard {... */\n      and\n        /* \"contracts/fountain.sol\":3594:3666  payable(ephemeralWalletAddress).call{value: ephemeralGasMoneyAmount}(\"\") */\n      gas\n      call\n      swap7\n      pop\n      tag_243\n      tag_163\n      jump\t// in\n    tag_243:\n      pop\n        /* \"contracts/fountain.sol\":3676:3744  require(ephemeralGasSent, \"Failed to send gas to ephemeral wallet.\") */\n      tag_244\n      dup8\n      tag_245\n      jump\t// in\n    tag_244:\n        /* \"contracts/fountain.sol\":3847:3888  totalAmountIn - tokenAmountSpentOnEthSwap */\n      tag_246\n      dup2\n      dup13\n      tag_157\n      jump\t// in\n    tag_246:\n      swap7\n      pop\n      pop\n      pop\n        /* \"contracts/fountain.sol\":531:7213  contract Serenity is Ownable, Pausable, ReentrancyGuard {... */\n      tag_247\n      tag_130\n      jump\t// in\n    tag_247:\n      sub(exp(0x02, 0xa0), 0x01)\n      dup10\n      and\n      dup2\n      mstore\n        /* \"contracts/fountain.sol\":4035:4660  ISwapRouter.ExactInputSingleParams({... */\n      swap2\n      pop\n        /* \"contracts/fountain.sol\":759:801  0xA0b86991c6218b36c1d19D4a2e9Eb0cE3606eB48 */\n      0xa0b86991c6218b36c1d19d4a2e9eb0ce3606eb48\n        /* \"contracts/fountain.sol\":2584:3209  ISwapRouter.ExactOutputSingleParams({... */\n      0x20\n        /* \"contracts/fountain.sol\":4035:4660  ISwapRouter.ExactInputSingleParams({... */\n      dup4\n      add\n        /* \"contracts/fountain.sol\":531:7213  contract Serenity is Ownable, Pausable, ReentrancyGuard {... */\n      mstore\n      0xffffff\n      dup14\n      and\n        /* \"contracts/fountain.sol\":4035:4660  ISwapRouter.ExactInputSingleParams({... */\n      dup3\n      dup3\n      add\n        /* \"contracts/fountain.sol\":531:7213  contract Serenity is Ownable, Pausable, ReentrancyGuard {... */\n      mstore\n        /* \"contracts/fountain.sol\":2251:2255  this */\n      address\n        /* \"contracts/fountain.sol\":2584:3209  ISwapRouter.ExactOutputSingleParams({... */\n      0x60\n        /* \"contracts/fountain.sol\":4035:4660  ISwapRouter.ExactInputSingleParams({... */\n      dup4\n      add\n        /* \"contracts/fountain.sol\":531:7213  contract Serenity is Ownable, Pausable, ReentrancyGuard {... */\n      mstore\n      dup10\n        /* \"contracts/fountain.sol\":2584:3209  ISwapRouter.ExactOutputSingleParams({... */\n      0x80\n        /* \"contracts/fountain.sol\":4035:4660  ISwapRouter.ExactInputSingleParams({... */\n      dup4\n      add\n        /* \"contracts/fountain.sol\":531:7213  contract Serenity is Ownable, Pausable, ReentrancyGuard {... */\n      mstore\n      dup5\n        /* \"contracts/fountain.sol\":2584:3209  ISwapRouter.ExactOutputSingleParams({... */\n      0xa0\n        /* \"contracts/fountain.sol\":4035:4660  ISwapRouter.ExactInputSingleParams({... */\n      dup4\n      add\n        /* \"contracts/fountain.sol\":531:7213  contract Serenity is Ownable, Pausable, ReentrancyGuard {... */\n      mstore\n      dup14\n        /* \"contracts/fountain.sol\":2584:3209  ISwapRouter.ExactOutputSingleParams({... */\n      0xc0\n        /* \"contracts/fountain.sol\":4035:4660  ISwapRouter.ExactInputSingleParams({... */\n      dup4\n      add\n        /* \"contracts/fountain.sol\":531:7213  contract Serenity is Ownable, Pausable, ReentrancyGuard {... */\n      mstore\n      dup3\n        /* \"contracts/fountain.sol\":2584:3209  ISwapRouter.ExactOutputSingleParams({... */\n      0xe0\n        /* \"contracts/fountain.sol\":4035:4660  ISwapRouter.ExactInputSingleParams({... */\n      dup4\n      add\n        /* \"contracts/fountain.sol\":531:7213  contract Serenity is Ownable, Pausable, ReentrancyGuard {... */\n      mstore\n        /* \"contracts/fountain.sol\":4723:4758  swapRouter.exactInputSingle(params) */\n      dup4\n      extcodesize\n      tag_253\n      jumpi\n        /* \"contracts/fountain.sol\":531:7213  contract Serenity is Ownable, Pausable, ReentrancyGuard {... */\n      dup3\n      dup4\n      revert\n        /* \"contracts/fountain.sol\":4723:4758  swapRouter.exactInputSingle(params) */\n    tag_253:\n        /* \"contracts/fountain.sol\":2584:3209  ISwapRouter.ExactOutputSingleParams({... */\n      dup1\n        /* \"contracts/fountain.sol\":531:7213  contract Serenity is Ownable, Pausable, ReentrancyGuard {... */\n      mload\n        /* \"contracts/fountain.sol\":4723:4758  swapRouter.exactInputSingle(params) */\n      swap5\n      pop\n        /* \"contracts/fountain.sol\":531:7213  contract Serenity is Ownable, Pausable, ReentrancyGuard {... */\n      0x414bf38900000000000000000000000000000000000000000000000000000000\n        /* \"contracts/fountain.sol\":4723:4758  swapRouter.exactInputSingle(params) */\n      dup6\n      mstore\n        /* \"contracts/fountain.sol\":2584:3209  ISwapRouter.ExactOutputSingleParams({... */\n      0x20\n        /* \"contracts/fountain.sol\":4723:4758  swapRouter.exactInputSingle(params) */\n      dup6\n      dup7\n      tag_254\n      dup6\n        /* \"contracts/fountain.sol\":3368:3411  swapRouter.exactOutputSingle(ethSwapParams) */\n      0x04\n        /* \"contracts/fountain.sol\":4723:4758  swapRouter.exactInputSingle(params) */\n      dup11\n      add\n      tag_125\n      jump\t// in\n    tag_254:\n      sub\n      dup8\n        /* \"contracts/fountain.sol\":531:7213  contract Serenity is Ownable, Pausable, ReentrancyGuard {... */\n      dup7\n        /* \"contracts/fountain.sol\":4723:4758  swapRouter.exactInputSingle(params) */\n      dup9\n      gas\n      call\n      swap4\n      pop\n      dup4\n      tag_256\n      jumpi\n      tag_256\n      tag_232\n      jump\t// in\n    tag_256:\n      dup4\n      iszero\n      tag_257\n      jumpi\n      tag_258\n      returndatasize\n      dup7\n      tag_68\n      jump\t// in\n    tag_258:\n      tag_259\n      returndatasize\n      dup7\n      add\n      dup7\n      tag_110\n      jump\t// in\n    tag_259:\n      swap3\n      pop\n    tag_257:\n      sub(exp(0x02, 0xa0), 0x01)\n        /* \"contracts/fountain.sol\":531:7213  contract Serenity is Ownable, Pausable, ReentrancyGuard {... */\n      dup8\n      and\n      0x00\n      swap1\n      dup2\n      mstore\n        /* \"contracts/fountain.sol\":4778:4786  balances */\n      0x03\n        /* \"contracts/fountain.sol\":531:7213  contract Serenity is Ownable, Pausable, ReentrancyGuard {... */\n      0x20\n      mstore\n      0x40\n      swap1\n      keccak256\n        /* \"contracts/fountain.sol\":4778:4810  balances[ephemeralWalletAddress] */\n      swap5\n      pop\n        /* \"contracts/fountain.sol\":4778:4823  balances[ephemeralWalletAddress] += amountOut */\n      tag_261\n      dup4\n      dup7\n        /* \"contracts/fountain.sol\":531:7213  contract Serenity is Ownable, Pausable, ReentrancyGuard {... */\n      sload\n        /* \"contracts/fountain.sol\":4778:4823  balances[ephemeralWalletAddress] += amountOut */\n      tag_141\n      jump\t// in\n    tag_261:\n        /* \"contracts/fountain.sol\":531:7213  contract Serenity is Ownable, Pausable, ReentrancyGuard {... */\n      swap1\n      swap5\n      sstore\n      pop\n      swap3\n      sload\n      swap2\n      mload\n      dup7\n      dup2\n      mstore\n      0x20\n      dup2\n      add\n      dup4\n      swap1\n      mstore\n      0x40\n      dup2\n      add\n      dup5\n      swap1\n      mstore\n      swap2\n      swap3\n        /* \"contracts/fountain.sol\":4847:4958  FountainDeposit(msg.sender, ephemeralWalletAddress, tokenIn, totalAmountIn, ephemeralGasMoneyAmount, amountOut) */\n      dup6\n      dup6\n        /* \"contracts/fountain.sol\":2231:2241  msg.sender */\n      caller\n        /* \"contracts/fountain.sol\":4847:4958  FountainDeposit(msg.sender, ephemeralWalletAddress, tokenIn, totalAmountIn, ephemeralGasMoneyAmount, amountOut) */\n      0x0860654ad3d0539dbac86150676768b53a47900bb45c5eb8d8d000ffbc4f67e6\n        /* \"contracts/fountain.sol\":531:7213  contract Serenity is Ownable, Pausable, ReentrancyGuard {... */\n      0x60\n      dup8\n        /* \"contracts/fountain.sol\":4847:4958  FountainDeposit(msg.sender, ephemeralWalletAddress, tokenIn, totalAmountIn, ephemeralGasMoneyAmount, amountOut) */\n      log4\n      pop\n      pop\n      pop\n      pop\n        /* \"@openzeppelin/contracts/security/ReentrancyGuard.sol\":2628:2650  _status = _NOT_ENTERED */\n      tag_263\n        /* \"@openzeppelin/contracts/security/ReentrancyGuard.sol\":2325:2332  _status */\n      0x01\n      dup1\n        /* \"contracts/fountain.sol\":531:7213  contract Serenity is Ownable, Pausable, ReentrancyGuard {... */\n      sstore\n      jump\n        /* \"@openzeppelin/contracts/security/ReentrancyGuard.sol\":2628:2650  _status = _NOT_ENTERED */\n    tag_263:\n        /* \"@openzeppelin/contracts/security/Pausable.sol\":1204:1276  modifier whenNotPaused() {... */\n      pop\n      pop\n      pop\n      pop\n      pop\n      pop\n      pop\n      pop\n      jump\t// out\n    tag_35:\n      tag_266\n      tag_179\n      jump\t// in\n    tag_266:\n        /* \"@openzeppelin/contracts/security/ReentrancyGuard.sol\":2325:2332  _status */\n      0x01\n        /* \"@openzeppelin/contracts/security/ReentrancyGuard.sol\":2317:2380  require(_status != _ENTERED, \"ReentrancyGuard: reentrant call\") */\n      tag_267\n        /* \"@openzeppelin/contracts/security/ReentrancyGuard.sol\":1744:1745  2 */\n      0x02\n        /* \"@openzeppelin/contracts/security/ReentrancyGuard.sol\":2325:2332  _status */\n      dup3\n        /* \"contracts/fountain.sol\":531:7213  contract Serenity is Ownable, Pausable, ReentrancyGuard {... */\n      sload\n        /* \"@openzeppelin/contracts/security/ReentrancyGuard.sol\":2325:2344  _status != _ENTERED */\n      eq\n      iszero\n        /* \"@openzeppelin/contracts/security/ReentrancyGuard.sol\":2317:2380  require(_status != _ENTERED, \"ReentrancyGuard: reentrant call\") */\n      tag_217\n      jump\t// in\n    tag_267:\n        /* \"@openzeppelin/contracts/security/ReentrancyGuard.sol\":1744:1745  2 */\n      0x02\n        /* \"@openzeppelin/contracts/security/ReentrancyGuard.sol\":2325:2332  _status */\n      dup2\n        /* \"contracts/fountain.sol\":531:7213  contract Serenity is Ownable, Pausable, ReentrancyGuard {... */\n      sstore\n      sub(exp(0x02, 0xa0), 0x01)\n      dup1\n        /* \"contracts/fountain.sol\":5352:5370  msg.sender == user */\n      dup4\n        /* \"contracts/fountain.sol\":531:7213  contract Serenity is Ownable, Pausable, ReentrancyGuard {... */\n      and\n        /* \"contracts/fountain.sol\":5352:5362  msg.sender */\n      caller\n        /* \"contracts/fountain.sol\":5352:5370  msg.sender == user */\n      eq\n        /* \"contracts/fountain.sol\":5352:5395  msg.sender == user || msg.sender == owner() */\n      dup1\n      tag_268\n      jumpi\n        /* \"contracts/fountain.sol\":5374:5395  msg.sender == owner() */\n      tag_269\n        /* \"contracts/fountain.sol\":531:7213  contract Serenity is Ownable, Pausable, ReentrancyGuard {... */\n      dup3\n        /* \"@openzeppelin/contracts/access/Ownable.sol\":1273:1279  _owner */\n      0x00\n        /* \"contracts/fountain.sol\":531:7213  contract Serenity is Ownable, Pausable, ReentrancyGuard {... */\n      sload\n      and\n      sub(exp(0x02, 0xa0), 0x01)\n      and\n      swap1\n      jump\n        /* \"contracts/fountain.sol\":5374:5395  msg.sender == owner() */\n    tag_269:\n        /* \"contracts/fountain.sol\":5352:5362  msg.sender */\n      caller\n        /* \"contracts/fountain.sol\":5374:5395  msg.sender == owner() */\n      eq\n        /* \"contracts/fountain.sol\":5352:5395  msg.sender == user || msg.sender == owner() */\n      swap1\n      pop\n    tag_268:\n        /* \"contracts/fountain.sol\":5344:5429  require(msg.sender == user || msg.sender == owner(), \"Unauthorization finalization.\") */\n      tag_270\n      dup2\n      tag_271\n      jump\t// in\n    tag_270:\n      pop\n      pop\n        /* \"contracts/fountain.sol\":5447:5464  charities_.length */\n      dup3\n        /* \"contracts/fountain.sol\":531:7213  contract Serenity is Ownable, Pausable, ReentrancyGuard {... */\n      mload\n        /* \"contracts/fountain.sol\":5439:5537  require(charities_.length == amounts_.length, \"Charities and amounts arrays of different length.\") */\n      tag_272\n        /* \"contracts/fountain.sol\":5468:5483  amounts_.length */\n      dup6\n        /* \"contracts/fountain.sol\":531:7213  contract Serenity is Ownable, Pausable, ReentrancyGuard {... */\n      mload\n        /* \"contracts/fountain.sol\":5447:5483  charities_.length == amounts_.length */\n      dup3\n      eq\n        /* \"contracts/fountain.sol\":5439:5537  require(charities_.length == amounts_.length, \"Charities and amounts arrays of different length.\") */\n      tag_273\n      jump\t// in\n    tag_272:\n      pop\n      0x00\n      dup1\n        /* \"contracts/fountain.sol\":5589:5798  for (uint8 i = 0; i < charities_.length; i++) {... */\n    tag_274:\n        /* \"@openzeppelin/contracts/security/ReentrancyGuard.sol\":2325:2332  _status */\n      dup3\n        /* \"contracts/fountain.sol\":5589:5798  for (uint8 i = 0; i < charities_.length; i++) {... */\n      iszero\n      tag_276\n      jumpi\n        /* \"contracts/fountain.sol\":5611:5628  charities_.length */\n      dup5\n        /* \"contracts/fountain.sol\":531:7213  contract Serenity is Ownable, Pausable, ReentrancyGuard {... */\n      mload\n      0xff\n        /* \"contracts/fountain.sol\":5607:5628  i < charities_.length */\n      dup3\n        /* \"contracts/fountain.sol\":531:7213  contract Serenity is Ownable, Pausable, ReentrancyGuard {... */\n      and\n        /* \"contracts/fountain.sol\":5607:5628  i < charities_.length */\n      dup2\n      dup2\n      lt\n      tag_277\n      jumpi\n      pop\n      pop\n      jump(tag_276)\n    tag_277:\n        /* \"contracts/fountain.sol\":5649:5683  totalUserAllocation += amounts_[i] */\n      tag_278\n        /* \"contracts/fountain.sol\":5672:5683  amounts_[i] */\n      tag_279\n      dup3\n      dup11\n      tag_206\n      jump\t// in\n    tag_279:\n        /* \"contracts/fountain.sol\":531:7213  contract Serenity is Ownable, Pausable, ReentrancyGuard {... */\n      mload\n        /* \"contracts/fountain.sol\":5649:5683  totalUserAllocation += amounts_[i] */\n      dup6\n      tag_141\n      jump\t// in\n    tag_278:\n      swap4\n      pop\n        /* \"contracts/fountain.sol\":5697:5787  require(charities[charities_[i]] != address(0x0), \"Attempt to donate to unknown charity.\") */\n      tag_280\n        /* \"contracts/fountain.sol\":5705:5745  charities[charities_[i]] != address(0x0) */\n      tag_281\n        /* \"contracts/fountain.sol\":5705:5729  charities[charities_[i]] */\n      tag_282\n        /* \"contracts/fountain.sol\":531:7213  contract Serenity is Ownable, Pausable, ReentrancyGuard {... */\n      tag_283\n        /* \"contracts/fountain.sol\":5715:5728  charities_[i] */\n      tag_284\n      dup6\n      dup13\n      tag_206\n      jump\t// in\n    tag_284:\n      mload\n        /* \"contracts/fountain.sol\":531:7213  contract Serenity is Ownable, Pausable, ReentrancyGuard {... */\n      tag_285\n      jump\t// in\n    tag_283:\n      sload\n      sub(exp(0x02, 0xa0), 0x01)\n      and\n      swap1\n      jump\n        /* \"contracts/fountain.sol\":5705:5729  charities[charities_[i]] */\n    tag_282:\n      sub(exp(0x02, 0xa0), 0x01)\n        /* \"contracts/fountain.sol\":531:7213  contract Serenity is Ownable, Pausable, ReentrancyGuard {... */\n      and\n      swap1\n      jump\n        /* \"contracts/fountain.sol\":5705:5745  charities[charities_[i]] != address(0x0) */\n    tag_281:\n      iszero\n      iszero\n        /* \"contracts/fountain.sol\":5697:5787  require(charities[charities_[i]] != address(0x0), \"Attempt to donate to unknown charity.\") */\n      tag_287\n      jump\t// in\n    tag_280:\n      pop\n      pop\n        /* \"contracts/fountain.sol\":5630:5633  i++ */\n      tag_288\n      dup2\n      tag_200\n      jump\t// in\n    tag_288:\n      swap1\n      pop\n        /* \"contracts/fountain.sol\":5589:5798  for (uint8 i = 0; i < charities_.length; i++) {... */\n      jump(tag_274)\n    tag_276:\n      pop\n        /* \"contracts/fountain.sol\":5808:5892  require(totalUserAllocation <= balances[user], \"Total finalization amount too high\") */\n      tag_289\n        /* \"contracts/fountain.sol\":5839:5853  balances[user] */\n      tag_290\n      dup5\n      sub(exp(0x02, 0xa0), 0x01)\n        /* \"contracts/fountain.sol\":531:7213  contract Serenity is Ownable, Pausable, ReentrancyGuard {... */\n      and\n      0x00\n      swap1\n      dup2\n      mstore\n        /* \"contracts/fountain.sol\":4778:4786  balances */\n      0x03\n        /* \"contracts/fountain.sol\":531:7213  contract Serenity is Ownable, Pausable, ReentrancyGuard {... */\n      0x20\n      mstore\n      0x40\n      swap1\n      keccak256\n      swap1\n      jump\n        /* \"contracts/fountain.sol\":5839:5853  balances[user] */\n    tag_290:\n        /* \"contracts/fountain.sol\":531:7213  contract Serenity is Ownable, Pausable, ReentrancyGuard {... */\n      sload\n        /* \"contracts/fountain.sol\":5816:5853  totalUserAllocation <= balances[user] */\n      dup3\n      gt\n      iszero\n        /* \"contracts/fountain.sol\":5808:5892  require(totalUserAllocation <= balances[user], \"Total finalization amount too high\") */\n      tag_291\n      jump\t// in\n    tag_289:\n      0x00\n      dup1\n        /* \"contracts/fountain.sol\":5937:6996  for (uint8 i = 0; i < charities_.length; i++) { ... */\n    tag_292:\n        /* \"@openzeppelin/contracts/security/ReentrancyGuard.sol\":2325:2332  _status */\n      dup4\n        /* \"contracts/fountain.sol\":5937:6996  for (uint8 i = 0; i < charities_.length; i++) { ... */\n      iszero\n      tag_294\n      jumpi\n        /* \"contracts/fountain.sol\":5959:5976  charities_.length */\n      dup6\n        /* \"contracts/fountain.sol\":531:7213  contract Serenity is Ownable, Pausable, ReentrancyGuard {... */\n      mload\n      0xff\n        /* \"contracts/fountain.sol\":5955:5976  i < charities_.length */\n      dup3\n        /* \"contracts/fountain.sol\":531:7213  contract Serenity is Ownable, Pausable, ReentrancyGuard {... */\n      and\n        /* \"contracts/fountain.sol\":5955:5976  i < charities_.length */\n      dup2\n      dup2\n      lt\n      tag_295\n      jumpi\n      pop\n      pop\n      jump(tag_294)\n    tag_295:\n        /* \"contracts/fountain.sol\":6340:6351  amounts_[i] */\n      tag_296\n      dup2\n      dup11\n      tag_206\n      jump\t// in\n    tag_296:\n        /* \"contracts/fountain.sol\":531:7213  contract Serenity is Ownable, Pausable, ReentrancyGuard {... */\n      mload\n      swap2\n      pop\n        /* \"contracts/fountain.sol\":6355:6391  balances[user] - totalUserAllocation */\n      tag_297\n      dup6\n        /* \"contracts/fountain.sol\":6355:6369  balances[user] */\n      tag_298\n      dup10\n      sub(exp(0x02, 0xa0), 0x01)\n        /* \"contracts/fountain.sol\":531:7213  contract Serenity is Ownable, Pausable, ReentrancyGuard {... */\n      and\n      0x00\n      swap1\n      dup2\n      mstore\n        /* \"contracts/fountain.sol\":4778:4786  balances */\n      0x03\n        /* \"contracts/fountain.sol\":531:7213  contract Serenity is Ownable, Pausable, ReentrancyGuard {... */\n      0x20\n      mstore\n      0x40\n      swap1\n      keccak256\n      swap1\n      jump\n        /* \"contracts/fountain.sol\":6355:6369  balances[user] */\n    tag_298:\n        /* \"contracts/fountain.sol\":531:7213  contract Serenity is Ownable, Pausable, ReentrancyGuard {... */\n      sload\n        /* \"contracts/fountain.sol\":6355:6391  balances[user] - totalUserAllocation */\n      tag_157\n      jump\t// in\n    tag_297:\n        /* \"contracts/fountain.sol\":6340:6430  amounts_[i] + (balances[user] - totalUserAllocation) * (amounts_[i] / totalUserAllocation) */\n      tag_299\n        /* \"contracts/fountain.sol\":6354:6430  (balances[user] - totalUserAllocation) * (amounts_[i] / totalUserAllocation) */\n      tag_300\n        /* \"contracts/fountain.sol\":6396:6429  amounts_[i] / totalUserAllocation */\n      tag_301\n      dup9\n        /* \"contracts/fountain.sol\":6396:6407  amounts_[i] */\n      tag_302\n      dup7\n      dup16\n      tag_206\n      jump\t// in\n    tag_302:\n        /* \"contracts/fountain.sol\":531:7213  contract Serenity is Ownable, Pausable, ReentrancyGuard {... */\n      mload\n        /* \"contracts/fountain.sol\":6396:6429  amounts_[i] / totalUserAllocation */\n      tag_146\n      jump\t// in\n    tag_301:\n        /* \"contracts/fountain.sol\":6354:6430  (balances[user] - totalUserAllocation) * (amounts_[i] / totalUserAllocation) */\n      dup4\n      tag_149\n      jump\t// in\n    tag_300:\n        /* \"contracts/fountain.sol\":6340:6430  amounts_[i] + (balances[user] - totalUserAllocation) * (amounts_[i] / totalUserAllocation) */\n      dup5\n      tag_141\n      jump\t// in\n    tag_299:\n        /* \"contracts/fountain.sol\":6315:6430  uint256 transferAmount = amounts_[i] + (balances[user] - totalUserAllocation) * (amounts_[i] / totalUserAllocation) */\n      swap3\n      pop\n      pop\n        /* \"contracts/fountain.sol\":6554:6575  charities_.length - 1 */\n      tag_303\n        /* \"contracts/fountain.sol\":6554:6571  charities_.length */\n      dup9\n        /* \"contracts/fountain.sol\":531:7213  contract Serenity is Ownable, Pausable, ReentrancyGuard {... */\n      mload\n        /* \"contracts/fountain.sol\":6554:6575  charities_.length - 1 */\n      tag_153\n      jump\t// in\n    tag_303:\n        /* \"contracts/fountain.sol\":6549:6575  i == charities_.length - 1 */\n      dup2\n      eq\n        /* \"contracts/fountain.sol\":6545:6656  if (i == charities_.length - 1) {... */\n      iszero\n      tag_304\n      jumpi\n        /* \"contracts/fountain.sol\":6612:6641  balances[user] - totalDonated */\n      tag_305\n      dup5\n        /* \"contracts/fountain.sol\":6612:6626  balances[user] */\n      tag_298\n      dup10\n      sub(exp(0x02, 0xa0), 0x01)\n        /* \"contracts/fountain.sol\":531:7213  contract Serenity is Ownable, Pausable, ReentrancyGuard {... */\n      and\n      0x00\n      swap1\n      dup2\n      mstore\n        /* \"contracts/fountain.sol\":4778:4786  balances */\n      0x03\n        /* \"contracts/fountain.sol\":531:7213  contract Serenity is Ownable, Pausable, ReentrancyGuard {... */\n      0x20\n      mstore\n      0x40\n      swap1\n      keccak256\n      swap1\n      jump\n        /* \"contracts/fountain.sol\":6612:6641  balances[user] - totalDonated */\n    tag_305:\n        /* \"contracts/fountain.sol\":6595:6641  transferAmount = balances[user] - totalDonated */\n      swap2\n      pop\n        /* \"contracts/fountain.sol\":6545:6656  if (i == charities_.length - 1) {... */\n    tag_304:\n        /* \"contracts/fountain.sol\":6727:6751  charities[charities_[i]] */\n      tag_307\n        /* \"contracts/fountain.sol\":531:7213  contract Serenity is Ownable, Pausable, ReentrancyGuard {... */\n      tag_283\n        /* \"contracts/fountain.sol\":6737:6750  charities_[i] */\n      tag_284\n      dup4\n      dup12\n      tag_206\n      jump\t// in\n        /* \"contracts/fountain.sol\":6727:6751  charities[charities_[i]] */\n    tag_307:\n        /* \"contracts/fountain.sol\":759:801  0xA0b86991c6218b36c1d19D4a2e9Eb0cE3606eB48 */\n      0xa0b86991c6218b36c1d19d4a2e9eb0ce3606eb48\n      dup1\n        /* \"contracts/fountain.sol\":6705:6768  IERC20(USDC).transfer(charities[charities_[i]], transferAmount) */\n      extcodesize\n      tag_310\n      jumpi\n      0x00\n      dup1\n        /* \"contracts/fountain.sol\":531:7213  contract Serenity is Ownable, Pausable, ReentrancyGuard {... */\n      revert\n        /* \"contracts/fountain.sol\":6705:6768  IERC20(USDC).transfer(charities[charities_[i]], transferAmount) */\n    tag_310:\n        /* \"contracts/fountain.sol\":531:7213  contract Serenity is Ownable, Pausable, ReentrancyGuard {... */\n      0x40\n      dup1\n      mload\n      0xa9059cbb00000000000000000000000000000000000000000000000000000000\n        /* \"contracts/fountain.sol\":6705:6768  IERC20(USDC).transfer(charities[charities_[i]], transferAmount) */\n      dup2\n      mstore\n      sub(exp(0x02, 0xa0), 0x01)\n        /* \"contracts/fountain.sol\":531:7213  contract Serenity is Ownable, Pausable, ReentrancyGuard {... */\n      dup5\n      and\n        /* \"contracts/fountain.sol\":5705:5714  charities */\n      0x04\n        /* \"contracts/fountain.sol\":6705:6768  IERC20(USDC).transfer(charities[charities_[i]], transferAmount) */\n      dup3\n      add\n        /* \"contracts/fountain.sol\":531:7213  contract Serenity is Ownable, Pausable, ReentrancyGuard {... */\n      mstore\n      0x24\n      dup2\n      add\n      dup7\n      swap1\n      mstore\n        /* \"contracts/fountain.sol\":6705:6768  IERC20(USDC).transfer(charities[charities_[i]], transferAmount) */\n      0x20\n        /* \"contracts/fountain.sol\":531:7213  contract Serenity is Ownable, Pausable, ReentrancyGuard {... */\n      dup2\n      0x44\n      dup2\n      0x00\n        /* \"contracts/fountain.sol\":759:801  0xA0b86991c6218b36c1d19D4a2e9Eb0cE3606eB48 */\n      dup8\n        /* \"contracts/fountain.sol\":6705:6768  IERC20(USDC).transfer(charities[charities_[i]], transferAmount) */\n      gas\n      call\n      swap4\n      pop\n      dup4\n      tag_313\n      jumpi\n      tag_313\n      tag_232\n      jump\t// in\n    tag_313:\n      0x00\n      swap3\n      pop\n      dup4\n      iszero\n      tag_314\n      jumpi\n      tag_315\n      returndatasize\n      dup3\n      tag_68\n      jump\t// in\n    tag_315:\n      tag_316\n      returndatasize\n      dup3\n      add\n      dup3\n      tag_106\n      jump\t// in\n    tag_316:\n      swap3\n      pop\n    tag_314:\n      pop\n        /* \"contracts/fountain.sol\":6782:6842  require(transferSuccess, \"USDC transfer to charity failed.\") */\n      tag_317\n      dup3\n      tag_318\n      jump\t// in\n    tag_317:\n        /* \"contracts/fountain.sol\":6884:6897  charities_[i] */\n      tag_319\n      dup5\n      dup13\n      tag_206\n      jump\t// in\n    tag_319:\n      mload\n      swap3\n      pop\n        /* \"contracts/fountain.sol\":6899:6923  charities[charities_[i]] */\n      tag_320\n        /* \"contracts/fountain.sol\":531:7213  contract Serenity is Ownable, Pausable, ReentrancyGuard {... */\n      tag_283\n        /* \"contracts/fountain.sol\":6909:6922  charities_[i] */\n      tag_284\n      dup7\n      dup15\n      tag_206\n      jump\t// in\n        /* \"contracts/fountain.sol\":6899:6923  charities[charities_[i]] */\n    tag_320:\n      swap4\n      pop\n        /* \"contracts/fountain.sol\":6861:6940  FountainDonation(user, charities_[i], charities[charities_[i]], transferAmount) */\n      tag_323\n      dup4\n      tag_324\n      jump\t// in\n    tag_323:\n        /* \"contracts/fountain.sol\":531:7213  contract Serenity is Ownable, Pausable, ReentrancyGuard {... */\n      swap1\n      mload\n      dup6\n      dup2\n      mstore\n      swap1\n      swap3\n      pop\n      swap1\n      pop\n        /* \"contracts/fountain.sol\":6861:6940  FountainDonation(user, charities_[i], charities[charities_[i]], transferAmount) */\n      dup3\n        /* \"contracts/fountain.sol\":531:7213  contract Serenity is Ownable, Pausable, ReentrancyGuard {... */\n      dup3\n        /* \"contracts/fountain.sol\":6861:6940  FountainDonation(user, charities_[i], charities[charities_[i]], transferAmount) */\n      dup11\n      0xb0657052acbf78260696b569dbe3a1f1f39287b5a3c378f5bca0c20fbf062dec\n        /* \"contracts/fountain.sol\":531:7213  contract Serenity is Ownable, Pausable, ReentrancyGuard {... */\n      0x20\n      dup6\n        /* \"contracts/fountain.sol\":6861:6940  FountainDonation(user, charities_[i], charities[charities_[i]], transferAmount) */\n      log4\n      pop\n      pop\n      pop\n        /* \"contracts/fountain.sol\":6955:6985  totalDonated += transferAmount */\n      tag_326\n      dup2\n      dup5\n      tag_141\n      jump\t// in\n    tag_326:\n      swap3\n      pop\n      pop\n        /* \"contracts/fountain.sol\":5978:5981  i++ */\n      tag_327\n      dup2\n      tag_200\n      jump\t// in\n    tag_327:\n      swap1\n      pop\n        /* \"contracts/fountain.sol\":5937:6996  for (uint8 i = 0; i < charities_.length; i++) { ... */\n      jump(tag_292)\n    tag_294:\n      pop\n        /* \"contracts/fountain.sol\":7006:7075  require(totalDonated == balances[user], \"Must donate entire balance\") */\n      tag_328\n        /* \"contracts/fountain.sol\":7030:7044  balances[user] */\n      tag_329\n      dup6\n      sub(exp(0x02, 0xa0), 0x01)\n        /* \"contracts/fountain.sol\":531:7213  contract Serenity is Ownable, Pausable, ReentrancyGuard {... */\n      and\n      0x00\n      swap1\n      dup2\n      mstore\n        /* \"contracts/fountain.sol\":4778:4786  balances */\n      0x03\n        /* \"contracts/fountain.sol\":531:7213  contract Serenity is Ownable, Pausable, ReentrancyGuard {... */\n      0x20\n      mstore\n      0x40\n      swap1\n      keccak256\n      swap1\n      jump\n        /* \"contracts/fountain.sol\":7030:7044  balances[user] */\n    tag_329:\n        /* \"contracts/fountain.sol\":531:7213  contract Serenity is Ownable, Pausable, ReentrancyGuard {... */\n      sload\n        /* \"contracts/fountain.sol\":7014:7044  totalDonated == balances[user] */\n      dup3\n      eq\n        /* \"contracts/fountain.sol\":7006:7075  require(totalDonated == balances[user], \"Must donate entire balance\") */\n      tag_330\n      jump\t// in\n    tag_328:\n      pop\n      pop\n      pop\n        /* \"@openzeppelin/contracts/security/ReentrancyGuard.sol\":2628:2650  _status = _NOT_ENTERED */\n      tag_331\n        /* \"@openzeppelin/contracts/security/ReentrancyGuard.sol\":2325:2332  _status */\n      0x01\n      dup1\n        /* \"contracts/fountain.sol\":531:7213  contract Serenity is Ownable, Pausable, ReentrancyGuard {... */\n      sstore\n      jump\n        /* \"@openzeppelin/contracts/security/ReentrancyGuard.sol\":2628:2650  _status = _NOT_ENTERED */\n    tag_331:\n        /* \"@openzeppelin/contracts/security/Pausable.sol\":1204:1276  modifier whenNotPaused() {... */\n      pop\n      pop\n      pop\n      jump\t// out\n        /* \"contracts/fountain.sol\":531:7213  contract Serenity is Ownable, Pausable, ReentrancyGuard {... */\n    tag_324:\n      0x00\n      mload(0x40)\n      dup1\n      tag_333\n      dup3\n      dup6\n      tag_113\n      jump\t// in\n    tag_333:\n      sub\n      swap1\n      keccak256\n      swap3\n      swap2\n      pop\n      pop\n      jump\t// out\n    tag_285:\n      0x00\n      mload(0x40)\n      tag_335\n      dup2\n      dup5\n      tag_113\n      jump\t// in\n    tag_335:\n        /* \"contracts/fountain.sol\":5705:5714  charities */\n      0x04\n        /* \"contracts/fountain.sol\":531:7213  contract Serenity is Ownable, Pausable, ReentrancyGuard {... */\n      dup2\n      mstore\n      dup2\n      swap1\n      sub\n      0x20\n      add\n      swap1\n      keccak256\n      swap3\n      swap2\n      pop\n      pop\n      jump\t// out\n    tag_145:\n      mstore(0x00, mul(0x4e487b71, exp(0x02, 0xe0)))\n      mstore(0x04, 0x11)\n      revert(0x00, 0x24)\n    tag_134:\n      mstore(0x00, mul(0x4e487b71, exp(0x02, 0xe0)))\n      mstore(0x04, 0x41)\n      revert(0x00, 0x24)\n    tag_318:\n      dup1\n      tag_74\n      jumpi\n      mload(0x40)\n      mul(0x461bcd, exp(0x02, 0xe5))\n      dup2\n      mstore\n      0x20\n      0x04\n      dup3\n      add\n      mstore\n      0x20\n      0x24\n      dup3\n      add\n      mstore\n      0x55534443207472616e7366657220746f2063686172697479206661696c65642e\n      0x44\n      dup3\n      add\n      mstore\n      0x64\n      dup2\n      revert\n    tag_287:\n      dup1\n      tag_74\n      jumpi\n      mload(0x40)\n      mul(0x461bcd, exp(0x02, 0xe5))\n      dup2\n      mstore\n      0x20\n      0x04\n      dup3\n      add\n      mstore\n      0x25\n      0x24\n      dup3\n      add\n      mstore\n      0x417474656d707420746f20646f6e61746520746f20756e6b6e6f776e20636861\n      0x44\n      dup3\n      add\n      mstore\n      0x726974792e000000000000000000000000000000000000000000000000000000\n      0x64\n      dup3\n      add\n      mstore\n      0x84\n      dup2\n      revert\n    tag_291:\n      dup1\n      tag_74\n      jumpi\n      mload(0x40)\n      mul(0x461bcd, exp(0x02, 0xe5))\n      dup2\n      mstore\n      0x20\n      0x04\n      dup3\n      add\n      mstore\n      0x22\n      0x24\n      dup3\n      add\n      mstore\n      0x546f74616c2066696e616c697a6174696f6e20616d6f756e7420746f6f206869\n      0x44\n      dup3\n      add\n      mstore\n      0x6768000000000000000000000000000000000000000000000000000000000000\n      0x64\n      dup3\n      add\n      mstore\n      0x84\n      dup2\n      revert\n    tag_245:\n      dup1\n      tag_74\n      jumpi\n      mload(0x40)\n      mul(0x461bcd, exp(0x02, 0xe5))\n      dup2\n      mstore\n      0x20\n      0x04\n      dup3\n      add\n      mstore\n      0x27\n      0x24\n      dup3\n      add\n      mstore\n      0x4661696c656420746f2073656e642067617320746f20657068656d6572616c20\n      0x44\n      dup3\n      add\n      mstore\n      0x77616c6c65742e00000000000000000000000000000000000000000000000000\n      0x64\n      dup3\n      add\n      mstore\n      0x84\n      dup2\n      revert\n    tag_273:\n      dup1\n      tag_74\n      jumpi\n      mload(0x40)\n      mul(0x461bcd, exp(0x02, 0xe5))\n      dup2\n      mstore\n      0x20\n      0x04\n      dup3\n      add\n      mstore\n      0x31\n      0x24\n      dup3\n      add\n      mstore\n      0x43686172697469657320616e6420616d6f756e747320617272617973206f6620\n      0x44\n      dup3\n      add\n      mstore\n      0x646966666572656e74206c656e6774682e000000000000000000000000000000\n      0x64\n      dup3\n      add\n      mstore\n      0x84\n      dup2\n      revert\n    tag_271:\n      dup1\n      tag_74\n      jumpi\n      mload(0x40)\n      mul(0x461bcd, exp(0x02, 0xe5))\n      dup2\n      mstore\n      0x20\n      0x04\n      dup3\n      add\n      mstore\n      0x1d\n      0x24\n      dup3\n      add\n      mstore\n      0x556e617574686f72697a6174696f6e2066696e616c697a6174696f6e2e000000\n      0x44\n      dup3\n      add\n      mstore\n      0x64\n      dup2\n      revert\n    tag_330:\n      dup1\n      tag_74\n      jumpi\n      mload(0x40)\n      mul(0x461bcd, exp(0x02, 0xe5))\n      dup2\n      mstore\n      0x20\n      0x04\n      dup3\n      add\n      mstore\n      0x1a\n      0x24\n      dup3\n      add\n      mstore\n      0x4d75737420646f6e61746520656e746972652062616c616e6365000000000000\n      0x44\n      dup3\n      add\n      mstore\n      0x64\n      dup2\n      revert\n    tag_217:\n      dup1\n      tag_74\n      jumpi\n      mload(0x40)\n      mul(0x461bcd, exp(0x02, 0xe5))\n      dup2\n      mstore\n      0x20\n      0x04\n      dup3\n      add\n      mstore\n      0x1f\n      0x24\n      dup3\n      add\n      mstore\n      0x5265656e7472616e637947756172643a207265656e7472616e742063616c6c00\n      0x44\n      dup3\n      add\n      mstore\n      0x64\n      dup2\n      revert\n    tag_232:\n      mload(0x40)\n      returndatasize\n      0x00\n      dup3\n      returndatacopy\n      returndatasize\n      dup2\n      revert\n\n    auxdata: 0xa3646970667358221220b9ac47d45f755ccd14737c048ef2e90a130b9b3add01713b59dc9837f433305f6c6578706572696d656e74616cf564736f6c63430008070041\n}\n",
				"bytecode": {
					"linkReferences": {},
					"object": "60a0604052341561000f57600080fd5b611721803803601f19601f82011660a00160a0811067ffffffffffffffff82111715610064577f4e487b7100000000000000000000000000000000000000000000000000000000600052604160045260246000fd5b604052808260a039604081121561007a57600080fd5b505060a051600160a060020a038116811461009457600080fd5b6100a060c051826100c1565b506040516115f18061013083396080518281816102030152610c0701528082f35b6000805433600160a060020a031982168117835560405191929091600160a060020a038416917f8be0079c531659141344cd1fd0a4f28419497f9722a3daafe3b4186f6b6457e091a3600160a860020a0319163360a060020a60ff021916176000556001805560805260025556fe6040608081526004361061028b5760007c010000000000000000000000000000000000000000000000000000000081350463480a6fdc81146100a357634aa4a4fc81146100d357635c975abb81146101085763715018a6811461014a5763745284ce811461016a576389a30271811461019057638da5cb5b81146101c15763c31c9c0781146101ec5763f2fde38b81146102325763f8b2cb4f811461024d57610288565b34156100ad578182fd5b6100b63661037c565b6100c681838587898b8d8f610bd4565b5050505050505050818351f35b34156100dd578182fd5b6100e636610321565b825173c02aaa39b223fe8d0a0e5c4f27ead9083c756cc28152602081f35b0381f35b3415610112578182fd5b61011b36610321565b60ff74010000000000000000000000000000000000000000835404168351806101048383901515815260200190565b3415610154578182fd5b61015d36610321565b610165610abb565b818351f35b3415610174578182fd5b61017d36610417565b610188818385610f0c565b505050818351f35b341561019a578182fd5b6101a336610321565b825173a0b86991c6218b36c1d19d4a2e9eb0ce3606eb488152602081f35b34156101cb578182fd5b6101d436610321565b81548351600160a060020a0390911680825290602081f35b34156101f6578182fd5b6101ff36610321565b82517f0000000000000000000000000000000000000000000000000000000000000000600160a060020a03168152602081f35b341561023c578182fd5b6101656102483661034a565b610b0a565b3415610257578182fd5b61027e6102633661034a565b600160a060020a031660009081526003602052604090205490565b8351818152602081f35b50505b50600080fd5b600435600160a060020a03811681146102a957600080fd5b90565b600082601f8301126102bd57600080fd5b81356102c881610668565b6040516102d582826107a5565b82815260208082019250858101818502870182018810156102f557600080fd5b60005b85811015610314578135855293820193908201906001016102f8565b5091979650505050505050565b60006003198201121561033357600080fd5b50565b6000818303121561034657600080fd5b5050565b600060206003198301121561035e57600080fd5b600435600160a060020a038116811461037657600080fd5b92915050565b6000808080808080806101006003198a01121561039857600080fd5b600435600160a060020a0380821682146103b157600080fd5b9098506024359080821682146103c657600080fd5b50965060443595506064359450608435935060a43562ffffff80821682146103ed57600080fd5b90935060c43590808216821461040257600080fd5b508092505060e4359050919395975091939597565b6000808060606003198501121561042d57600080fd5b610435610291565b925060243567ffffffffffffffff8082111561045057600080fd5b85602383011261045f57600080fd5b816004013561046d81610668565b60405161047a82826107a5565b828152602080820192506024868101908286028801018b101561049c57600080fd5b60005b85811015610521578135878111156104b657600080fd5b8801604381018d136104c757600080fd5b60248101356104d58161068c565b6040516104e282826107a5565b828152604491508f828486010111156104fa57600080fd5b8282850188830137600092810187019290925250865250938201939082019060010161049f565b509197505060443594505050508082111561053b57600080fd5b5061054985826004016102ac565b93959294505050565b60006020828403121561056457600080fd5b8151801515811461057457600080fd5b9392505050565b60006020828403121561058d57600080fd5b5051919050565b6000815160005b818110156105b5576020818501810151868301520161059b565b818111156105c4576000828601525b509290920192915050565b600061010082019050600160a060020a0380845116835280602085015116602084015262ffffff60408501511660408401528060608501511660608401526080840151608084015260a084015160a084015260c084015160c08401528060e08501511660e08401525092915050565b604051610100810167ffffffffffffffff8111828210171561066257610662611288565b60405290565b600067ffffffffffffffff82111561068257610682611288565b5060209081020190565b600067ffffffffffffffff8211156106a6576106a6611288565b50601f01601f191660200190565b600082198211156106c7576106c761126f565b500190565b6000826106ec5760e060020a634e487b7102600052601260045260246000fd5b500490565b600081600019048311821515161561070b5761070b61126f565b500290565b600060018210156107235761072361126f565b506000190190565b60008282101561073d5761073d61126f565b500390565b60003d8015610777573d6107558161068c565b60405161076282826107a5565b8281528094503d6000602083013e5050505090565b606091505090565b60a0810181811067ffffffffffffffff8211171561079f5761079f611288565b60405250565b601f8201601f1916810167ffffffffffffffff811182821017156107cb576107cb611288565b6040525050565b600160a060020a03600054163381146103335760405160e560020a62461bcd02815260206004820152602060248201527f4f776e61626c653a2063616c6c6572206973206e6f7420746865206f776e65726044820152606481fd5b60ff740100000000000000000000000000000000000000006000540416156108975760405160e560020a62461bcd02815260206004820152601060248201527f5061757361626c653a20706175736564000000000000000000000000000000006044820152606481fd5b565b6040517f095ea7b30000000000000000000000000000000000000000000000000000000060208201908152600160a060020a03841660248301526044808301869052825260646108e981846107a5565b506000808351836000875af1915050610900610742565b8182156109295781518015806109255761092260208386010160208601610552565b90505b9150505b8061097857604051925060e560020a62461bcd02835260206004840152600260248401527f53410000000000000000000000000000000000000000000000000000000000006044840152606483fd5b505050505050565b604051602081017f23b872dd000000000000000000000000000000000000000000000000000000008152600160a060020a038085166024840152808616604484015250856064830152606482526109d68261077f565b6000808351836000875af19150506109ec610742565b818215610a15578151801580610a1157610a0e60208386010160208601610552565b90505b9150505b80610a6457604051925060e560020a62461bcd02835260206004840152600360248401527f53544600000000000000000000000000000000000000000000000000000000006044840152606483fd5b50505050505050565b600060ff821660ff811415610a8457610a8461126f565b60010192915050565b600081518310610ab05760e060020a634e487b7102600052603260045260246000fd5b506020918202010190565b610ac36107d2565b600054600160a060020a031981166000556000600160a060020a0382167f8be0079c531659141344cd1fd0a4f28419497f9722a3daafe3b4186f6b6457e06000604051a350565b610b126107d2565b600160a060020a0380821680610b905760405160e560020a62461bcd02815260206004820152602660248201527f4f776e61626c653a206e6577206f776e657220697320746865207a65726f206160448201527f64647265737300000000000000000000000000000000000000000000000000006064820152608481fd5b60005481600160a060020a0319821617600055838382167f8be0079c531659141344cd1fd0a4f28419497f9722a3daafe3b4186f6b6457e06000604051a350505050565b610bdc61082d565b6002610bec816001541415611554565b80600155610bfc84303386610980565b600160a060020a03807f000000000000000000000000000000000000000000000000000000000000000016610c32868287610899565b8254610c3c61063e565b600160a060020a038716815273c02aaa39b223fe8d0a0e5c4f27ead9083c756cc2602082015262ffffff8b166040828101919091523060608301528960808301528260a08301528a60c0830152600092508260e0830152833b610c9d578283fd5b80517fdb3e219800000000000000000000000000000000000000000000000000000000815260208182610cd386600486016105cf565b038387895af1925082610ce857610ce86115a1565b838315610d0857610cf93d836107a5565b610d053d83018361057b565b90505b8754935073c02aaa39b223fe8d0a0e5c4f27ead9083c756cc29150813b610d2d578485fd5b82517f2e1a7d4d00000000000000000000000000000000000000000000000000000000815260048101859052858160248183875af1945084610d7157610d716115a1565b8415610d8d57610d813d826107a5565b610d8d3d820182610336565b50875493508485868551878b8e165af19650610da7610742565b50610db1876113d4565b610dbb818c61072b565b96505050610dc761063e565b600160a060020a0389168152915073a0b86991c6218b36c1d19d4a2e9eb0ce3606eb48602083015262ffffff8d16828201523060608301528960808301528460a08301528d60c08301528260e0830152833b610e21578283fd5b805194507f414bf38900000000000000000000000000000000000000000000000000000000855260208586610e598560048a016105cf565b038786885af1935083610e6e57610e6e6115a1565b8315610e8d57610e7e3d866107a5565b610e8a3d86018661057b565b92505b600160a060020a03871660009081526003602052604090209450610eb28386546106b4565b9094555092549151868152602081018390526040810184905291928585337f0860654ad3d0539dbac86150676768b53a47900bb45c5eb8d8d000ffbc4f67e6606087a450505050610f0260018055565b5050505050505050565b610f1461082d565b6001610f24600282541415611554565b60028155600160a060020a03808316331480610f5357610f4e8260005416600160a060020a031690565b331490505b610f5c816114ba565b50508251610f6c85518214611447565b506000805b8215610fef57845160ff8216818110610f8b575050610fef565b610f9f610f98828a610a8d565b51856106b4565b9350610fdd610fd6610fca610fbd610fb7858c610a8d565b5161124e565b54600160a060020a031690565b600160a060020a031690565b15156112ee565b5050610fe881610a6d565b9050610f71565b5061101a61101184600160a060020a0316600090815260036020526040902090565b54821115611361565b6000805b83156111fa57855160ff82168181106110385750506111fa565b611042818a610a8d565b51915061106d8561106789600160a060020a0316600090815260036020526040902090565b5461072b565b61109361108d61108788611081868f610a8d565b516106cc565b836106f1565b846106b4565b9250506110a08851610710565b8114156110cc576110c98461106789600160a060020a0316600090815260036020526040902090565b91505b6110dc610fbd610fb7838b610a8d565b73a0b86991c6218b36c1d19d4a2e9eb0ce3606eb48803b6110fc57600080fd5b604080517fa9059cbb000000000000000000000000000000000000000000000000000000008152600160a060020a0384166004820152602481018690526020816044816000875af1935083611153576111536115a1565b600092508315611176576111673d826107a5565b6111733d820182610552565b92505b50611180826112a1565b61118a848c610a8d565b51925061119d610fbd610fb7868e610a8d565b93506111a883611235565b9051858152909250905082828a7fb0657052acbf78260696b569dbe3a1f1f39287b5a3c378f5bca0c20fbf062dec602085a45050506111e781846106b4565b9250506111f381610a6d565b905061101e565b5061122461121c85600160a060020a0316600090815260036020526040902090565b548214611507565b50505061123060018055565b505050565b6000604051806112458285610594565b03902092915050565b600060405161125d8184610594565b60048152819003602001902092915050565b60e060020a634e487b7102600052601160045260246000fd5b60e060020a634e487b7102600052604160045260246000fd5b806103335760405160e560020a62461bcd02815260206004820152602060248201527f55534443207472616e7366657220746f2063686172697479206661696c65642e6044820152606481fd5b806103335760405160e560020a62461bcd02815260206004820152602560248201527f417474656d707420746f20646f6e61746520746f20756e6b6e6f776e2063686160448201527f726974792e0000000000000000000000000000000000000000000000000000006064820152608481fd5b806103335760405160e560020a62461bcd02815260206004820152602260248201527f546f74616c2066696e616c697a6174696f6e20616d6f756e7420746f6f20686960448201527f67680000000000000000000000000000000000000000000000000000000000006064820152608481fd5b806103335760405160e560020a62461bcd02815260206004820152602760248201527f4661696c656420746f2073656e642067617320746f20657068656d6572616c2060448201527f77616c6c65742e000000000000000000000000000000000000000000000000006064820152608481fd5b806103335760405160e560020a62461bcd02815260206004820152603160248201527f43686172697469657320616e6420616d6f756e747320617272617973206f662060448201527f646966666572656e74206c656e6774682e0000000000000000000000000000006064820152608481fd5b806103335760405160e560020a62461bcd02815260206004820152601d60248201527f556e617574686f72697a6174696f6e2066696e616c697a6174696f6e2e0000006044820152606481fd5b806103335760405160e560020a62461bcd02815260206004820152601a60248201527f4d75737420646f6e61746520656e746972652062616c616e63650000000000006044820152606481fd5b806103335760405160e560020a62461bcd02815260206004820152601f60248201527f5265656e7472616e637947756172643a207265656e7472616e742063616c6c006044820152606481fd5b6040513d6000823e3d81fdfea3646970667358221220b9ac47d45f755ccd14737c048ef2e90a130b9b3add01713b59dc9837f433305f6c6578706572696d656e74616cf564736f6c63430008070041",
					"opcodes": "PUSH1 0xA0 PUSH1 0x40 MSTORE CALLVALUE ISZERO PUSH2 0xF JUMPI PUSH1 0x0 DUP1 REVERT JUMPDEST PUSH2 0x1721 DUP1 CODESIZE SUB PUSH1 0x1F NOT PUSH1 0x1F DUP3 ADD AND PUSH1 0xA0 ADD PUSH1 0xA0 DUP2 LT PUSH8 0xFFFFFFFFFFFFFFFF DUP3 GT OR ISZERO PUSH2 0x64 JUMPI PUSH32 0x4E487B7100000000000000000000000000000000000000000000000000000000 PUSH1 0x0 MSTORE PUSH1 0x41 PUSH1 0x4 MSTORE PUSH1 0x24 PUSH1 0x0 REVERT JUMPDEST PUSH1 0x40 MSTORE DUP1 DUP3 PUSH1 0xA0 CODECOPY PUSH1 0x40 DUP2 SLT ISZERO PUSH2 0x7A JUMPI PUSH1 0x0 DUP1 REVERT JUMPDEST POP POP PUSH1 0xA0 MLOAD PUSH1 0x1 PUSH1 0xA0 PUSH1 0x2 EXP SUB DUP2 AND DUP2 EQ PUSH2 0x94 JUMPI PUSH1 0x0 DUP1 REVERT JUMPDEST PUSH2 0xA0 PUSH1 0xC0 MLOAD DUP3 PUSH2 0xC1 JUMP JUMPDEST POP PUSH1 0x40 MLOAD PUSH2 0x15F1 DUP1 PUSH2 0x130 DUP4 CODECOPY PUSH1 0x80 MLOAD DUP3 DUP2 DUP2 PUSH2 0x203 ADD MSTORE PUSH2 0xC07 ADD MSTORE DUP1 DUP3 RETURN JUMPDEST PUSH1 0x0 DUP1 SLOAD CALLER PUSH1 0x1 PUSH1 0xA0 PUSH1 0x2 EXP SUB NOT DUP3 AND DUP2 OR DUP4 SSTORE PUSH1 0x40 MLOAD SWAP2 SWAP3 SWAP1 SWAP2 PUSH1 0x1 PUSH1 0xA0 PUSH1 0x2 EXP SUB DUP5 AND SWAP2 PUSH32 0x8BE0079C531659141344CD1FD0A4F28419497F9722A3DAAFE3B4186F6B6457E0 SWAP2 LOG3 PUSH1 0x1 PUSH1 0xA8 PUSH1 0x2 EXP SUB NOT AND CALLER PUSH1 0xA0 PUSH1 0x2 EXP PUSH1 0xFF MUL NOT AND OR PUSH1 0x0 SSTORE PUSH1 0x1 DUP1 SSTORE PUSH1 0x80 MSTORE PUSH1 0x2 SSTORE JUMP INVALID PUSH1 0x40 PUSH1 0x80 DUP2 MSTORE PUSH1 0x4 CALLDATASIZE LT PUSH2 0x28B JUMPI PUSH1 0x0 PUSH29 0x100000000000000000000000000000000000000000000000000000000 DUP2 CALLDATALOAD DIV PUSH4 0x480A6FDC DUP2 EQ PUSH2 0xA3 JUMPI PUSH4 0x4AA4A4FC DUP2 EQ PUSH2 0xD3 JUMPI PUSH4 0x5C975ABB DUP2 EQ PUSH2 0x108 JUMPI PUSH4 0x715018A6 DUP2 EQ PUSH2 0x14A JUMPI PUSH4 0x745284CE DUP2 EQ PUSH2 0x16A JUMPI PUSH4 0x89A30271 DUP2 EQ PUSH2 0x190 JUMPI PUSH4 0x8DA5CB5B DUP2 EQ PUSH2 0x1C1 JUMPI PUSH4 0xC31C9C07 DUP2 EQ PUSH2 0x1EC JUMPI PUSH4 0xF2FDE38B DUP2 EQ PUSH2 0x232 JUMPI PUSH4 0xF8B2CB4F DUP2 EQ PUSH2 0x24D JUMPI PUSH2 0x288 JUMP JUMPDEST CALLVALUE ISZERO PUSH2 0xAD JUMPI DUP2 DUP3 REVERT JUMPDEST PUSH2 0xB6 CALLDATASIZE PUSH2 0x37C JUMP JUMPDEST PUSH2 0xC6 DUP2 DUP4 DUP6 DUP8 DUP10 DUP12 DUP14 DUP16 PUSH2 0xBD4 JUMP JUMPDEST POP POP POP POP POP POP POP POP DUP2 DUP4 MLOAD RETURN JUMPDEST CALLVALUE ISZERO PUSH2 0xDD JUMPI DUP2 DUP3 REVERT JUMPDEST PUSH2 0xE6 CALLDATASIZE PUSH2 0x321 JUMP JUMPDEST DUP3 MLOAD PUSH20 0xC02AAA39B223FE8D0A0E5C4F27EAD9083C756CC2 DUP2 MSTORE PUSH1 0x20 DUP2 RETURN JUMPDEST SUB DUP2 RETURN JUMPDEST CALLVALUE ISZERO PUSH2 0x112 JUMPI DUP2 DUP3 REVERT JUMPDEST PUSH2 0x11B CALLDATASIZE PUSH2 0x321 JUMP JUMPDEST PUSH1 0xFF PUSH21 0x10000000000000000000000000000000000000000 DUP4 SLOAD DIV AND DUP4 MLOAD DUP1 PUSH2 0x104 DUP4 DUP4 SWAP1 ISZERO ISZERO DUP2 MSTORE PUSH1 0x20 ADD SWAP1 JUMP JUMPDEST CALLVALUE ISZERO PUSH2 0x154 JUMPI DUP2 DUP3 REVERT JUMPDEST PUSH2 0x15D CALLDATASIZE PUSH2 0x321 JUMP JUMPDEST PUSH2 0x165 PUSH2 0xABB JUMP JUMPDEST DUP2 DUP4 MLOAD RETURN JUMPDEST CALLVALUE ISZERO PUSH2 0x174 JUMPI DUP2 DUP3 REVERT JUMPDEST PUSH2 0x17D CALLDATASIZE PUSH2 0x417 JUMP JUMPDEST PUSH2 0x188 DUP2 DUP4 DUP6 PUSH2 0xF0C JUMP JUMPDEST POP POP POP DUP2 DUP4 MLOAD RETURN JUMPDEST CALLVALUE ISZERO PUSH2 0x19A JUMPI DUP2 DUP3 REVERT JUMPDEST PUSH2 0x1A3 CALLDATASIZE PUSH2 0x321 JUMP JUMPDEST DUP3 MLOAD PUSH20 0xA0B86991C6218B36C1D19D4A2E9EB0CE3606EB48 DUP2 MSTORE PUSH1 0x20 DUP2 RETURN JUMPDEST CALLVALUE ISZERO PUSH2 0x1CB JUMPI DUP2 DUP3 REVERT JUMPDEST PUSH2 0x1D4 CALLDATASIZE PUSH2 0x321 JUMP JUMPDEST DUP2 SLOAD DUP4 MLOAD PUSH1 0x1 PUSH1 0xA0 PUSH1 0x2 EXP SUB SWAP1 SWAP2 AND DUP1 DUP3 MSTORE SWAP1 PUSH1 0x20 DUP2 RETURN JUMPDEST CALLVALUE ISZERO PUSH2 0x1F6 JUMPI DUP2 DUP3 REVERT JUMPDEST PUSH2 0x1FF CALLDATASIZE PUSH2 0x321 JUMP JUMPDEST DUP3 MLOAD PUSH32 0x0 PUSH1 0x1 PUSH1 0xA0 PUSH1 0x2 EXP SUB AND DUP2 MSTORE PUSH1 0x20 DUP2 RETURN JUMPDEST CALLVALUE ISZERO PUSH2 0x23C JUMPI DUP2 DUP3 REVERT JUMPDEST PUSH2 0x165 PUSH2 0x248 CALLDATASIZE PUSH2 0x34A JUMP JUMPDEST PUSH2 0xB0A JUMP JUMPDEST CALLVALUE ISZERO PUSH2 0x257 JUMPI DUP2 DUP3 REVERT JUMPDEST PUSH2 0x27E PUSH2 0x263 CALLDATASIZE PUSH2 0x34A JUMP JUMPDEST PUSH1 0x1 PUSH1 0xA0 PUSH1 0x2 EXP SUB AND PUSH1 0x0 SWAP1 DUP2 MSTORE PUSH1 0x3 PUSH1 0x20 MSTORE PUSH1 0x40 SWAP1 KECCAK256 SLOAD SWAP1 JUMP JUMPDEST DUP4 MLOAD DUP2 DUP2 MSTORE PUSH1 0x20 DUP2 RETURN JUMPDEST POP POP JUMPDEST POP PUSH1 0x0 DUP1 REVERT JUMPDEST PUSH1 0x4 CALLDATALOAD PUSH1 0x1 PUSH1 0xA0 PUSH1 0x2 EXP SUB DUP2 AND DUP2 EQ PUSH2 0x2A9 JUMPI PUSH1 0x0 DUP1 REVERT JUMPDEST SWAP1 JUMP JUMPDEST PUSH1 0x0 DUP3 PUSH1 0x1F DUP4 ADD SLT PUSH2 0x2BD JUMPI PUSH1 0x0 DUP1 REVERT JUMPDEST DUP2 CALLDATALOAD PUSH2 0x2C8 DUP2 PUSH2 0x668 JUMP JUMPDEST PUSH1 0x40 MLOAD PUSH2 0x2D5 DUP3 DUP3 PUSH2 0x7A5 JUMP JUMPDEST DUP3 DUP2 MSTORE PUSH1 0x20 DUP1 DUP3 ADD SWAP3 POP DUP6 DUP2 ADD DUP2 DUP6 MUL DUP8 ADD DUP3 ADD DUP9 LT ISZERO PUSH2 0x2F5 JUMPI PUSH1 0x0 DUP1 REVERT JUMPDEST PUSH1 0x0 JUMPDEST DUP6 DUP2 LT ISZERO PUSH2 0x314 JUMPI DUP2 CALLDATALOAD DUP6 MSTORE SWAP4 DUP3 ADD SWAP4 SWAP1 DUP3 ADD SWAP1 PUSH1 0x1 ADD PUSH2 0x2F8 JUMP JUMPDEST POP SWAP2 SWAP8 SWAP7 POP POP POP POP POP POP POP JUMP JUMPDEST PUSH1 0x0 PUSH1 0x3 NOT DUP3 ADD SLT ISZERO PUSH2 0x333 JUMPI PUSH1 0x0 DUP1 REVERT JUMPDEST POP JUMP JUMPDEST PUSH1 0x0 DUP2 DUP4 SUB SLT ISZERO PUSH2 0x346 JUMPI PUSH1 0x0 DUP1 REVERT JUMPDEST POP POP JUMP JUMPDEST PUSH1 0x0 PUSH1 0x20 PUSH1 0x3 NOT DUP4 ADD SLT ISZERO PUSH2 0x35E JUMPI PUSH1 0x0 DUP1 REVERT JUMPDEST PUSH1 0x4 CALLDATALOAD PUSH1 0x1 PUSH1 0xA0 PUSH1 0x2 EXP SUB DUP2 AND DUP2 EQ PUSH2 0x376 JUMPI PUSH1 0x0 DUP1 REVERT JUMPDEST SWAP3 SWAP2 POP POP JUMP JUMPDEST PUSH1 0x0 DUP1 DUP1 DUP1 DUP1 DUP1 DUP1 DUP1 PUSH2 0x100 PUSH1 0x3 NOT DUP11 ADD SLT ISZERO PUSH2 0x398 JUMPI PUSH1 0x0 DUP1 REVERT JUMPDEST PUSH1 0x4 CALLDATALOAD PUSH1 0x1 PUSH1 0xA0 PUSH1 0x2 EXP SUB DUP1 DUP3 AND DUP3 EQ PUSH2 0x3B1 JUMPI PUSH1 0x0 DUP1 REVERT JUMPDEST SWAP1 SWAP9 POP PUSH1 0x24 CALLDATALOAD SWAP1 DUP1 DUP3 AND DUP3 EQ PUSH2 0x3C6 JUMPI PUSH1 0x0 DUP1 REVERT JUMPDEST POP SWAP7 POP PUSH1 0x44 CALLDATALOAD SWAP6 POP PUSH1 0x64 CALLDATALOAD SWAP5 POP PUSH1 0x84 CALLDATALOAD SWAP4 POP PUSH1 0xA4 CALLDATALOAD PUSH3 0xFFFFFF DUP1 DUP3 AND DUP3 EQ PUSH2 0x3ED JUMPI PUSH1 0x0 DUP1 REVERT JUMPDEST SWAP1 SWAP4 POP PUSH1 0xC4 CALLDATALOAD SWAP1 DUP1 DUP3 AND DUP3 EQ PUSH2 0x402 JUMPI PUSH1 0x0 DUP1 REVERT JUMPDEST POP DUP1 SWAP3 POP POP PUSH1 0xE4 CALLDATALOAD SWAP1 POP SWAP2 SWAP4 SWAP6 SWAP8 POP SWAP2 SWAP4 SWAP6 SWAP8 JUMP JUMPDEST PUSH1 0x0 DUP1 DUP1 PUSH1 0x60 PUSH1 0x3 NOT DUP6 ADD SLT ISZERO PUSH2 0x42D JUMPI PUSH1 0x0 DUP1 REVERT JUMPDEST PUSH2 0x435 PUSH2 0x291 JUMP JUMPDEST SWAP3 POP PUSH1 0x24 CALLDATALOAD PUSH8 0xFFFFFFFFFFFFFFFF DUP1 DUP3 GT ISZERO PUSH2 0x450 JUMPI PUSH1 0x0 DUP1 REVERT JUMPDEST DUP6 PUSH1 0x23 DUP4 ADD SLT PUSH2 0x45F JUMPI PUSH1 0x0 DUP1 REVERT JUMPDEST DUP2 PUSH1 0x4 ADD CALLDATALOAD PUSH2 0x46D DUP2 PUSH2 0x668 JUMP JUMPDEST PUSH1 0x40 MLOAD PUSH2 0x47A DUP3 DUP3 PUSH2 0x7A5 JUMP JUMPDEST DUP3 DUP2 MSTORE PUSH1 0x20 DUP1 DUP3 ADD SWAP3 POP PUSH1 0x24 DUP7 DUP2 ADD SWAP1 DUP3 DUP7 MUL DUP9 ADD ADD DUP12 LT ISZERO PUSH2 0x49C JUMPI PUSH1 0x0 DUP1 REVERT JUMPDEST PUSH1 0x0 JUMPDEST DUP6 DUP2 LT ISZERO PUSH2 0x521 JUMPI DUP2 CALLDATALOAD DUP8 DUP2 GT ISZERO PUSH2 0x4B6 JUMPI PUSH1 0x0 DUP1 REVERT JUMPDEST DUP9 ADD PUSH1 0x43 DUP2 ADD DUP14 SGT PUSH2 0x4C7 JUMPI PUSH1 0x0 DUP1 REVERT JUMPDEST PUSH1 0x24 DUP2 ADD CALLDATALOAD PUSH2 0x4D5 DUP2 PUSH2 0x68C JUMP JUMPDEST PUSH1 0x40 MLOAD PUSH2 0x4E2 DUP3 DUP3 PUSH2 0x7A5 JUMP JUMPDEST DUP3 DUP2 MSTORE PUSH1 0x44 SWAP2 POP DUP16 DUP3 DUP5 DUP7 ADD ADD GT ISZERO PUSH2 0x4FA JUMPI PUSH1 0x0 DUP1 REVERT JUMPDEST DUP3 DUP3 DUP6 ADD DUP9 DUP4 ADD CALLDATACOPY PUSH1 0x0 SWAP3 DUP2 ADD DUP8 ADD SWAP3 SWAP1 SWAP3 MSTORE POP DUP7 MSTORE POP SWAP4 DUP3 ADD SWAP4 SWAP1 DUP3 ADD SWAP1 PUSH1 0x1 ADD PUSH2 0x49F JUMP JUMPDEST POP SWAP2 SWAP8 POP POP PUSH1 0x44 CALLDATALOAD SWAP5 POP POP POP POP DUP1 DUP3 GT ISZERO PUSH2 0x53B JUMPI PUSH1 0x0 DUP1 REVERT JUMPDEST POP PUSH2 0x549 DUP6 DUP3 PUSH1 0x4 ADD PUSH2 0x2AC JUMP JUMPDEST SWAP4 SWAP6 SWAP3 SWAP5 POP POP POP JUMP JUMPDEST PUSH1 0x0 PUSH1 0x20 DUP3 DUP5 SUB SLT ISZERO PUSH2 0x564 JUMPI PUSH1 0x0 DUP1 REVERT JUMPDEST DUP2 MLOAD DUP1 ISZERO ISZERO DUP2 EQ PUSH2 0x574 JUMPI PUSH1 0x0 DUP1 REVERT JUMPDEST SWAP4 SWAP3 POP POP POP JUMP JUMPDEST PUSH1 0x0 PUSH1 0x20 DUP3 DUP5 SUB SLT ISZERO PUSH2 0x58D JUMPI PUSH1 0x0 DUP1 REVERT JUMPDEST POP MLOAD SWAP2 SWAP1 POP JUMP JUMPDEST PUSH1 0x0 DUP2 MLOAD PUSH1 0x0 JUMPDEST DUP2 DUP2 LT ISZERO PUSH2 0x5B5 JUMPI PUSH1 0x20 DUP2 DUP6 ADD DUP2 ADD MLOAD DUP7 DUP4 ADD MSTORE ADD PUSH2 0x59B JUMP JUMPDEST DUP2 DUP2 GT ISZERO PUSH2 0x5C4 JUMPI PUSH1 0x0 DUP3 DUP7 ADD MSTORE JUMPDEST POP SWAP3 SWAP1 SWAP3 ADD SWAP3 SWAP2 POP POP JUMP JUMPDEST PUSH1 0x0 PUSH2 0x100 DUP3 ADD SWAP1 POP PUSH1 0x1 PUSH1 0xA0 PUSH1 0x2 EXP SUB DUP1 DUP5 MLOAD AND DUP4 MSTORE DUP1 PUSH1 0x20 DUP6 ADD MLOAD AND PUSH1 0x20 DUP5 ADD MSTORE PUSH3 0xFFFFFF PUSH1 0x40 DUP6 ADD MLOAD AND PUSH1 0x40 DUP5 ADD MSTORE DUP1 PUSH1 0x60 DUP6 ADD MLOAD AND PUSH1 0x60 DUP5 ADD MSTORE PUSH1 0x80 DUP5 ADD MLOAD PUSH1 0x80 DUP5 ADD MSTORE PUSH1 0xA0 DUP5 ADD MLOAD PUSH1 0xA0 DUP5 ADD MSTORE PUSH1 0xC0 DUP5 ADD MLOAD PUSH1 0xC0 DUP5 ADD MSTORE DUP1 PUSH1 0xE0 DUP6 ADD MLOAD AND PUSH1 0xE0 DUP5 ADD MSTORE POP SWAP3 SWAP2 POP POP JUMP JUMPDEST PUSH1 0x40 MLOAD PUSH2 0x100 DUP2 ADD PUSH8 0xFFFFFFFFFFFFFFFF DUP2 GT DUP3 DUP3 LT OR ISZERO PUSH2 0x662 JUMPI PUSH2 0x662 PUSH2 0x1288 JUMP JUMPDEST PUSH1 0x40 MSTORE SWAP1 JUMP JUMPDEST PUSH1 0x0 PUSH8 0xFFFFFFFFFFFFFFFF DUP3 GT ISZERO PUSH2 0x682 JUMPI PUSH2 0x682 PUSH2 0x1288 JUMP JUMPDEST POP PUSH1 0x20 SWAP1 DUP2 MUL ADD SWAP1 JUMP JUMPDEST PUSH1 0x0 PUSH8 0xFFFFFFFFFFFFFFFF DUP3 GT ISZERO PUSH2 0x6A6 JUMPI PUSH2 0x6A6 PUSH2 0x1288 JUMP JUMPDEST POP PUSH1 0x1F ADD PUSH1 0x1F NOT AND PUSH1 0x20 ADD SWAP1 JUMP JUMPDEST PUSH1 0x0 DUP3 NOT DUP3 GT ISZERO PUSH2 0x6C7 JUMPI PUSH2 0x6C7 PUSH2 0x126F JUMP JUMPDEST POP ADD SWAP1 JUMP JUMPDEST PUSH1 0x0 DUP3 PUSH2 0x6EC JUMPI PUSH1 0xE0 PUSH1 0x2 EXP PUSH4 0x4E487B71 MUL PUSH1 0x0 MSTORE PUSH1 0x12 PUSH1 0x4 MSTORE PUSH1 0x24 PUSH1 0x0 REVERT JUMPDEST POP DIV SWAP1 JUMP JUMPDEST PUSH1 0x0 DUP2 PUSH1 0x0 NOT DIV DUP4 GT DUP3 ISZERO ISZERO AND ISZERO PUSH2 0x70B JUMPI PUSH2 0x70B PUSH2 0x126F JUMP JUMPDEST POP MUL SWAP1 JUMP JUMPDEST PUSH1 0x0 PUSH1 0x1 DUP3 LT ISZERO PUSH2 0x723 JUMPI PUSH2 0x723 PUSH2 0x126F JUMP JUMPDEST POP PUSH1 0x0 NOT ADD SWAP1 JUMP JUMPDEST PUSH1 0x0 DUP3 DUP3 LT ISZERO PUSH2 0x73D JUMPI PUSH2 0x73D PUSH2 0x126F JUMP JUMPDEST POP SUB SWAP1 JUMP JUMPDEST PUSH1 0x0 RETURNDATASIZE DUP1 ISZERO PUSH2 0x777 JUMPI RETURNDATASIZE PUSH2 0x755 DUP2 PUSH2 0x68C JUMP JUMPDEST PUSH1 0x40 MLOAD PUSH2 0x762 DUP3 DUP3 PUSH2 0x7A5 JUMP JUMPDEST DUP3 DUP2 MSTORE DUP1 SWAP5 POP RETURNDATASIZE PUSH1 0x0 PUSH1 0x20 DUP4 ADD RETURNDATACOPY POP POP POP POP SWAP1 JUMP JUMPDEST PUSH1 0x60 SWAP2 POP POP SWAP1 JUMP JUMPDEST PUSH1 0xA0 DUP2 ADD DUP2 DUP2 LT PUSH8 0xFFFFFFFFFFFFFFFF DUP3 GT OR ISZERO PUSH2 0x79F JUMPI PUSH2 0x79F PUSH2 0x1288 JUMP JUMPDEST PUSH1 0x40 MSTORE POP JUMP JUMPDEST PUSH1 0x1F DUP3 ADD PUSH1 0x1F NOT AND DUP2 ADD PUSH8 0xFFFFFFFFFFFFFFFF DUP2 GT DUP3 DUP3 LT OR ISZERO PUSH2 0x7CB JUMPI PUSH2 0x7CB PUSH2 0x1288 JUMP JUMPDEST PUSH1 0x40 MSTORE POP POP JUMP JUMPDEST PUSH1 0x1 PUSH1 0xA0 PUSH1 0x2 EXP SUB PUSH1 0x0 SLOAD AND CALLER DUP2 EQ PUSH2 0x333 JUMPI PUSH1 0x40 MLOAD PUSH1 0xE5 PUSH1 0x2 EXP PUSH3 0x461BCD MUL DUP2 MSTORE PUSH1 0x20 PUSH1 0x4 DUP3 ADD MSTORE PUSH1 0x20 PUSH1 0x24 DUP3 ADD MSTORE PUSH32 0x4F776E61626C653A2063616C6C6572206973206E6F7420746865206F776E6572 PUSH1 0x44 DUP3 ADD MSTORE PUSH1 0x64 DUP2 REVERT JUMPDEST PUSH1 0xFF PUSH21 0x10000000000000000000000000000000000000000 PUSH1 0x0 SLOAD DIV AND ISZERO PUSH2 0x897 JUMPI PUSH1 0x40 MLOAD PUSH1 0xE5 PUSH1 0x2 EXP PUSH3 0x461BCD MUL DUP2 MSTORE PUSH1 0x20 PUSH1 0x4 DUP3 ADD MSTORE PUSH1 0x10 PUSH1 0x24 DUP3 ADD MSTORE PUSH32 0x5061757361626C653A2070617573656400000000000000000000000000000000 PUSH1 0x44 DUP3 ADD MSTORE PUSH1 0x64 DUP2 REVERT JUMPDEST JUMP JUMPDEST PUSH1 0x40 MLOAD PUSH32 0x95EA7B300000000000000000000000000000000000000000000000000000000 PUSH1 0x20 DUP3 ADD SWAP1 DUP2 MSTORE PUSH1 0x1 PUSH1 0xA0 PUSH1 0x2 EXP SUB DUP5 AND PUSH1 0x24 DUP4 ADD MSTORE PUSH1 0x44 DUP1 DUP4 ADD DUP7 SWAP1 MSTORE DUP3 MSTORE PUSH1 0x64 PUSH2 0x8E9 DUP2 DUP5 PUSH2 0x7A5 JUMP JUMPDEST POP PUSH1 0x0 DUP1 DUP4 MLOAD DUP4 PUSH1 0x0 DUP8 GAS CALL SWAP2 POP POP PUSH2 0x900 PUSH2 0x742 JUMP JUMPDEST DUP2 DUP3 ISZERO PUSH2 0x929 JUMPI DUP2 MLOAD DUP1 ISZERO DUP1 PUSH2 0x925 JUMPI PUSH2 0x922 PUSH1 0x20 DUP4 DUP7 ADD ADD PUSH1 0x20 DUP7 ADD PUSH2 0x552 JUMP JUMPDEST SWAP1 POP JUMPDEST SWAP2 POP POP JUMPDEST DUP1 PUSH2 0x978 JUMPI PUSH1 0x40 MLOAD SWAP3 POP PUSH1 0xE5 PUSH1 0x2 EXP PUSH3 0x461BCD MUL DUP4 MSTORE PUSH1 0x20 PUSH1 0x4 DUP5 ADD MSTORE PUSH1 0x2 PUSH1 0x24 DUP5 ADD MSTORE PUSH32 0x5341000000000000000000000000000000000000000000000000000000000000 PUSH1 0x44 DUP5 ADD MSTORE PUSH1 0x64 DUP4 REVERT JUMPDEST POP POP POP POP POP POP JUMP JUMPDEST PUSH1 0x40 MLOAD PUSH1 0x20 DUP2 ADD PUSH32 0x23B872DD00000000000000000000000000000000000000000000000000000000 DUP2 MSTORE PUSH1 0x1 PUSH1 0xA0 PUSH1 0x2 EXP SUB DUP1 DUP6 AND PUSH1 0x24 DUP5 ADD MSTORE DUP1 DUP7 AND PUSH1 0x44 DUP5 ADD MSTORE POP DUP6 PUSH1 0x64 DUP4 ADD MSTORE PUSH1 0x64 DUP3 MSTORE PUSH2 0x9D6 DUP3 PUSH2 0x77F JUMP JUMPDEST PUSH1 0x0 DUP1 DUP4 MLOAD DUP4 PUSH1 0x0 DUP8 GAS CALL SWAP2 POP POP PUSH2 0x9EC PUSH2 0x742 JUMP JUMPDEST DUP2 DUP3 ISZERO PUSH2 0xA15 JUMPI DUP2 MLOAD DUP1 ISZERO DUP1 PUSH2 0xA11 JUMPI PUSH2 0xA0E PUSH1 0x20 DUP4 DUP7 ADD ADD PUSH1 0x20 DUP7 ADD PUSH2 0x552 JUMP JUMPDEST SWAP1 POP JUMPDEST SWAP2 POP POP JUMPDEST DUP1 PUSH2 0xA64 JUMPI PUSH1 0x40 MLOAD SWAP3 POP PUSH1 0xE5 PUSH1 0x2 EXP PUSH3 0x461BCD MUL DUP4 MSTORE PUSH1 0x20 PUSH1 0x4 DUP5 ADD MSTORE PUSH1 0x3 PUSH1 0x24 DUP5 ADD MSTORE PUSH32 0x5354460000000000000000000000000000000000000000000000000000000000 PUSH1 0x44 DUP5 ADD MSTORE PUSH1 0x64 DUP4 REVERT JUMPDEST POP POP POP POP POP POP POP JUMP JUMPDEST PUSH1 0x0 PUSH1 0xFF DUP3 AND PUSH1 0xFF DUP2 EQ ISZERO PUSH2 0xA84 JUMPI PUSH2 0xA84 PUSH2 0x126F JUMP JUMPDEST PUSH1 0x1 ADD SWAP3 SWAP2 POP POP JUMP JUMPDEST PUSH1 0x0 DUP2 MLOAD DUP4 LT PUSH2 0xAB0 JUMPI PUSH1 0xE0 PUSH1 0x2 EXP PUSH4 0x4E487B71 MUL PUSH1 0x0 MSTORE PUSH1 0x32 PUSH1 0x4 MSTORE PUSH1 0x24 PUSH1 0x0 REVERT JUMPDEST POP PUSH1 0x20 SWAP2 DUP3 MUL ADD ADD SWAP1 JUMP JUMPDEST PUSH2 0xAC3 PUSH2 0x7D2 JUMP JUMPDEST PUSH1 0x0 SLOAD PUSH1 0x1 PUSH1 0xA0 PUSH1 0x2 EXP SUB NOT DUP2 AND PUSH1 0x0 SSTORE PUSH1 0x0 PUSH1 0x1 PUSH1 0xA0 PUSH1 0x2 EXP SUB DUP3 AND PUSH32 0x8BE0079C531659141344CD1FD0A4F28419497F9722A3DAAFE3B4186F6B6457E0 PUSH1 0x0 PUSH1 0x40 MLOAD LOG3 POP JUMP JUMPDEST PUSH2 0xB12 PUSH2 0x7D2 JUMP JUMPDEST PUSH1 0x1 PUSH1 0xA0 PUSH1 0x2 EXP SUB DUP1 DUP3 AND DUP1 PUSH2 0xB90 JUMPI PUSH1 0x40 MLOAD PUSH1 0xE5 PUSH1 0x2 EXP PUSH3 0x461BCD MUL DUP2 MSTORE PUSH1 0x20 PUSH1 0x4 DUP3 ADD MSTORE PUSH1 0x26 PUSH1 0x24 DUP3 ADD MSTORE PUSH32 0x4F776E61626C653A206E6577206F776E657220697320746865207A65726F2061 PUSH1 0x44 DUP3 ADD MSTORE PUSH32 0x6464726573730000000000000000000000000000000000000000000000000000 PUSH1 0x64 DUP3 ADD MSTORE PUSH1 0x84 DUP2 REVERT JUMPDEST PUSH1 0x0 SLOAD DUP2 PUSH1 0x1 PUSH1 0xA0 PUSH1 0x2 EXP SUB NOT DUP3 AND OR PUSH1 0x0 SSTORE DUP4 DUP4 DUP3 AND PUSH32 0x8BE0079C531659141344CD1FD0A4F28419497F9722A3DAAFE3B4186F6B6457E0 PUSH1 0x0 PUSH1 0x40 MLOAD LOG3 POP POP POP POP JUMP JUMPDEST PUSH2 0xBDC PUSH2 0x82D JUMP JUMPDEST PUSH1 0x2 PUSH2 0xBEC DUP2 PUSH1 0x1 SLOAD EQ ISZERO PUSH2 0x1554 JUMP JUMPDEST DUP1 PUSH1 0x1 SSTORE PUSH2 0xBFC DUP5 ADDRESS CALLER DUP7 PUSH2 0x980 JUMP JUMPDEST PUSH1 0x1 PUSH1 0xA0 PUSH1 0x2 EXP SUB DUP1 PUSH32 0x0 AND PUSH2 0xC32 DUP7 DUP3 DUP8 PUSH2 0x899 JUMP JUMPDEST DUP3 SLOAD PUSH2 0xC3C PUSH2 0x63E JUMP JUMPDEST PUSH1 0x1 PUSH1 0xA0 PUSH1 0x2 EXP SUB DUP8 AND DUP2 MSTORE PUSH20 0xC02AAA39B223FE8D0A0E5C4F27EAD9083C756CC2 PUSH1 0x20 DUP3 ADD MSTORE PUSH3 0xFFFFFF DUP12 AND PUSH1 0x40 DUP3 DUP2 ADD SWAP2 SWAP1 SWAP2 MSTORE ADDRESS PUSH1 0x60 DUP4 ADD MSTORE DUP10 PUSH1 0x80 DUP4 ADD MSTORE DUP3 PUSH1 0xA0 DUP4 ADD MSTORE DUP11 PUSH1 0xC0 DUP4 ADD MSTORE PUSH1 0x0 SWAP3 POP DUP3 PUSH1 0xE0 DUP4 ADD MSTORE DUP4 EXTCODESIZE PUSH2 0xC9D JUMPI DUP3 DUP4 REVERT JUMPDEST DUP1 MLOAD PUSH32 0xDB3E219800000000000000000000000000000000000000000000000000000000 DUP2 MSTORE PUSH1 0x20 DUP2 DUP3 PUSH2 0xCD3 DUP7 PUSH1 0x4 DUP7 ADD PUSH2 0x5CF JUMP JUMPDEST SUB DUP4 DUP8 DUP10 GAS CALL SWAP3 POP DUP3 PUSH2 0xCE8 JUMPI PUSH2 0xCE8 PUSH2 0x15A1 JUMP JUMPDEST DUP4 DUP4 ISZERO PUSH2 0xD08 JUMPI PUSH2 0xCF9 RETURNDATASIZE DUP4 PUSH2 0x7A5 JUMP JUMPDEST PUSH2 0xD05 RETURNDATASIZE DUP4 ADD DUP4 PUSH2 0x57B JUMP JUMPDEST SWAP1 POP JUMPDEST DUP8 SLOAD SWAP4 POP PUSH20 0xC02AAA39B223FE8D0A0E5C4F27EAD9083C756CC2 SWAP2 POP DUP2 EXTCODESIZE PUSH2 0xD2D JUMPI DUP5 DUP6 REVERT JUMPDEST DUP3 MLOAD PUSH32 0x2E1A7D4D00000000000000000000000000000000000000000000000000000000 DUP2 MSTORE PUSH1 0x4 DUP2 ADD DUP6 SWAP1 MSTORE DUP6 DUP2 PUSH1 0x24 DUP2 DUP4 DUP8 GAS CALL SWAP5 POP DUP5 PUSH2 0xD71 JUMPI PUSH2 0xD71 PUSH2 0x15A1 JUMP JUMPDEST DUP5 ISZERO PUSH2 0xD8D JUMPI PUSH2 0xD81 RETURNDATASIZE DUP3 PUSH2 0x7A5 JUMP JUMPDEST PUSH2 0xD8D RETURNDATASIZE DUP3 ADD DUP3 PUSH2 0x336 JUMP JUMPDEST POP DUP8 SLOAD SWAP4 POP DUP5 DUP6 DUP7 DUP6 MLOAD DUP8 DUP12 DUP15 AND GAS CALL SWAP7 POP PUSH2 0xDA7 PUSH2 0x742 JUMP JUMPDEST POP PUSH2 0xDB1 DUP8 PUSH2 0x13D4 JUMP JUMPDEST PUSH2 0xDBB DUP2 DUP13 PUSH2 0x72B JUMP JUMPDEST SWAP7 POP POP POP PUSH2 0xDC7 PUSH2 0x63E JUMP JUMPDEST PUSH1 0x1 PUSH1 0xA0 PUSH1 0x2 EXP SUB DUP10 AND DUP2 MSTORE SWAP2 POP PUSH20 0xA0B86991C6218B36C1D19D4A2E9EB0CE3606EB48 PUSH1 0x20 DUP4 ADD MSTORE PUSH3 0xFFFFFF DUP14 AND DUP3 DUP3 ADD MSTORE ADDRESS PUSH1 0x60 DUP4 ADD MSTORE DUP10 PUSH1 0x80 DUP4 ADD MSTORE DUP5 PUSH1 0xA0 DUP4 ADD MSTORE DUP14 PUSH1 0xC0 DUP4 ADD MSTORE DUP3 PUSH1 0xE0 DUP4 ADD MSTORE DUP4 EXTCODESIZE PUSH2 0xE21 JUMPI DUP3 DUP4 REVERT JUMPDEST DUP1 MLOAD SWAP5 POP PUSH32 0x414BF38900000000000000000000000000000000000000000000000000000000 DUP6 MSTORE PUSH1 0x20 DUP6 DUP7 PUSH2 0xE59 DUP6 PUSH1 0x4 DUP11 ADD PUSH2 0x5CF JUMP JUMPDEST SUB DUP8 DUP7 DUP9 GAS CALL SWAP4 POP DUP4 PUSH2 0xE6E JUMPI PUSH2 0xE6E PUSH2 0x15A1 JUMP JUMPDEST DUP4 ISZERO PUSH2 0xE8D JUMPI PUSH2 0xE7E RETURNDATASIZE DUP7 PUSH2 0x7A5 JUMP JUMPDEST PUSH2 0xE8A RETURNDATASIZE DUP7 ADD DUP7 PUSH2 0x57B JUMP JUMPDEST SWAP3 POP JUMPDEST PUSH1 0x1 PUSH1 0xA0 PUSH1 0x2 EXP SUB DUP8 AND PUSH1 0x0 SWAP1 DUP2 MSTORE PUSH1 0x3 PUSH1 0x20 MSTORE PUSH1 0x40 SWAP1 KECCAK256 SWAP5 POP PUSH2 0xEB2 DUP4 DUP7 SLOAD PUSH2 0x6B4 JUMP JUMPDEST SWAP1 SWAP5 SSTORE POP SWAP3 SLOAD SWAP2 MLOAD DUP7 DUP2 MSTORE PUSH1 0x20 DUP2 ADD DUP4 SWAP1 MSTORE PUSH1 0x40 DUP2 ADD DUP5 SWAP1 MSTORE SWAP2 SWAP3 DUP6 DUP6 CALLER PUSH32 0x860654AD3D0539DBAC86150676768B53A47900BB45C5EB8D8D000FFBC4F67E6 PUSH1 0x60 DUP8 LOG4 POP POP POP POP PUSH2 0xF02 PUSH1 0x1 DUP1 SSTORE JUMP JUMPDEST POP POP POP POP POP POP POP POP JUMP JUMPDEST PUSH2 0xF14 PUSH2 0x82D JUMP JUMPDEST PUSH1 0x1 PUSH2 0xF24 PUSH1 0x2 DUP3 SLOAD EQ ISZERO PUSH2 0x1554 JUMP JUMPDEST PUSH1 0x2 DUP2 SSTORE PUSH1 0x1 PUSH1 0xA0 PUSH1 0x2 EXP SUB DUP1 DUP4 AND CALLER EQ DUP1 PUSH2 0xF53 JUMPI PUSH2 0xF4E DUP3 PUSH1 0x0 SLOAD AND PUSH1 0x1 PUSH1 0xA0 PUSH1 0x2 EXP SUB AND SWAP1 JUMP JUMPDEST CALLER EQ SWAP1 POP JUMPDEST PUSH2 0xF5C DUP2 PUSH2 0x14BA JUMP JUMPDEST POP POP DUP3 MLOAD PUSH2 0xF6C DUP6 MLOAD DUP3 EQ PUSH2 0x1447 JUMP JUMPDEST POP PUSH1 0x0 DUP1 JUMPDEST DUP3 ISZERO PUSH2 0xFEF JUMPI DUP5 MLOAD PUSH1 0xFF DUP3 AND DUP2 DUP2 LT PUSH2 0xF8B JUMPI POP POP PUSH2 0xFEF JUMP JUMPDEST PUSH2 0xF9F PUSH2 0xF98 DUP3 DUP11 PUSH2 0xA8D JUMP JUMPDEST MLOAD DUP6 PUSH2 0x6B4 JUMP JUMPDEST SWAP4 POP PUSH2 0xFDD PUSH2 0xFD6 PUSH2 0xFCA PUSH2 0xFBD PUSH2 0xFB7 DUP6 DUP13 PUSH2 0xA8D JUMP JUMPDEST MLOAD PUSH2 0x124E JUMP JUMPDEST SLOAD PUSH1 0x1 PUSH1 0xA0 PUSH1 0x2 EXP SUB AND SWAP1 JUMP JUMPDEST PUSH1 0x1 PUSH1 0xA0 PUSH1 0x2 EXP SUB AND SWAP1 JUMP JUMPDEST ISZERO ISZERO PUSH2 0x12EE JUMP JUMPDEST POP POP PUSH2 0xFE8 DUP2 PUSH2 0xA6D JUMP JUMPDEST SWAP1 POP PUSH2 0xF71 JUMP JUMPDEST POP PUSH2 0x101A PUSH2 0x1011 DUP5 PUSH1 0x1 PUSH1 0xA0 PUSH1 0x2 EXP SUB AND PUSH1 0x0 SWAP1 DUP2 MSTORE PUSH1 0x3 PUSH1 0x20 MSTORE PUSH1 0x40 SWAP1 KECCAK256 SWAP1 JUMP JUMPDEST SLOAD DUP3 GT ISZERO PUSH2 0x1361 JUMP JUMPDEST PUSH1 0x0 DUP1 JUMPDEST DUP4 ISZERO PUSH2 0x11FA JUMPI DUP6 MLOAD PUSH1 0xFF DUP3 AND DUP2 DUP2 LT PUSH2 0x1038 JUMPI POP POP PUSH2 0x11FA JUMP JUMPDEST PUSH2 0x1042 DUP2 DUP11 PUSH2 0xA8D JUMP JUMPDEST MLOAD SWAP2 POP PUSH2 0x106D DUP6 PUSH2 0x1067 DUP10 PUSH1 0x1 PUSH1 0xA0 PUSH1 0x2 EXP SUB AND PUSH1 0x0 SWAP1 DUP2 MSTORE PUSH1 0x3 PUSH1 0x20 MSTORE PUSH1 0x40 SWAP1 KECCAK256 SWAP1 JUMP JUMPDEST SLOAD PUSH2 0x72B JUMP JUMPDEST PUSH2 0x1093 PUSH2 0x108D PUSH2 0x1087 DUP9 PUSH2 0x1081 DUP7 DUP16 PUSH2 0xA8D JUMP JUMPDEST MLOAD PUSH2 0x6CC JUMP JUMPDEST DUP4 PUSH2 0x6F1 JUMP JUMPDEST DUP5 PUSH2 0x6B4 JUMP JUMPDEST SWAP3 POP POP PUSH2 0x10A0 DUP9 MLOAD PUSH2 0x710 JUMP JUMPDEST DUP2 EQ ISZERO PUSH2 0x10CC JUMPI PUSH2 0x10C9 DUP5 PUSH2 0x1067 DUP10 PUSH1 0x1 PUSH1 0xA0 PUSH1 0x2 EXP SUB AND PUSH1 0x0 SWAP1 DUP2 MSTORE PUSH1 0x3 PUSH1 0x20 MSTORE PUSH1 0x40 SWAP1 KECCAK256 SWAP1 JUMP JUMPDEST SWAP2 POP JUMPDEST PUSH2 0x10DC PUSH2 0xFBD PUSH2 0xFB7 DUP4 DUP12 PUSH2 0xA8D JUMP JUMPDEST PUSH20 0xA0B86991C6218B36C1D19D4A2E9EB0CE3606EB48 DUP1 EXTCODESIZE PUSH2 0x10FC JUMPI PUSH1 0x0 DUP1 REVERT JUMPDEST PUSH1 0x40 DUP1 MLOAD PUSH32 0xA9059CBB00000000000000000000000000000000000000000000000000000000 DUP2 MSTORE PUSH1 0x1 PUSH1 0xA0 PUSH1 0x2 EXP SUB DUP5 AND PUSH1 0x4 DUP3 ADD MSTORE PUSH1 0x24 DUP2 ADD DUP7 SWAP1 MSTORE PUSH1 0x20 DUP2 PUSH1 0x44 DUP2 PUSH1 0x0 DUP8 GAS CALL SWAP4 POP DUP4 PUSH2 0x1153 JUMPI PUSH2 0x1153 PUSH2 0x15A1 JUMP JUMPDEST PUSH1 0x0 SWAP3 POP DUP4 ISZERO PUSH2 0x1176 JUMPI PUSH2 0x1167 RETURNDATASIZE DUP3 PUSH2 0x7A5 JUMP JUMPDEST PUSH2 0x1173 RETURNDATASIZE DUP3 ADD DUP3 PUSH2 0x552 JUMP JUMPDEST SWAP3 POP JUMPDEST POP PUSH2 0x1180 DUP3 PUSH2 0x12A1 JUMP JUMPDEST PUSH2 0x118A DUP5 DUP13 PUSH2 0xA8D JUMP JUMPDEST MLOAD SWAP3 POP PUSH2 0x119D PUSH2 0xFBD PUSH2 0xFB7 DUP7 DUP15 PUSH2 0xA8D JUMP JUMPDEST SWAP4 POP PUSH2 0x11A8 DUP4 PUSH2 0x1235 JUMP JUMPDEST SWAP1 MLOAD DUP6 DUP2 MSTORE SWAP1 SWAP3 POP SWAP1 POP DUP3 DUP3 DUP11 PUSH32 0xB0657052ACBF78260696B569DBE3A1F1F39287B5A3C378F5BCA0C20FBF062DEC PUSH1 0x20 DUP6 LOG4 POP POP POP PUSH2 0x11E7 DUP2 DUP5 PUSH2 0x6B4 JUMP JUMPDEST SWAP3 POP POP PUSH2 0x11F3 DUP2 PUSH2 0xA6D JUMP JUMPDEST SWAP1 POP PUSH2 0x101E JUMP JUMPDEST POP PUSH2 0x1224 PUSH2 0x121C DUP6 PUSH1 0x1 PUSH1 0xA0 PUSH1 0x2 EXP SUB AND PUSH1 0x0 SWAP1 DUP2 MSTORE PUSH1 0x3 PUSH1 0x20 MSTORE PUSH1 0x40 SWAP1 KECCAK256 SWAP1 JUMP JUMPDEST SLOAD DUP3 EQ PUSH2 0x1507 JUMP JUMPDEST POP POP POP PUSH2 0x1230 PUSH1 0x1 DUP1 SSTORE JUMP JUMPDEST POP POP POP JUMP JUMPDEST PUSH1 0x0 PUSH1 0x40 MLOAD DUP1 PUSH2 0x1245 DUP3 DUP6 PUSH2 0x594 JUMP JUMPDEST SUB SWAP1 KECCAK256 SWAP3 SWAP2 POP POP JUMP JUMPDEST PUSH1 0x0 PUSH1 0x40 MLOAD PUSH2 0x125D DUP2 DUP5 PUSH2 0x594 JUMP JUMPDEST PUSH1 0x4 DUP2 MSTORE DUP2 SWAP1 SUB PUSH1 0x20 ADD SWAP1 KECCAK256 SWAP3 SWAP2 POP POP JUMP JUMPDEST PUSH1 0xE0 PUSH1 0x2 EXP PUSH4 0x4E487B71 MUL PUSH1 0x0 MSTORE PUSH1 0x11 PUSH1 0x4 MSTORE PUSH1 0x24 PUSH1 0x0 REVERT JUMPDEST PUSH1 0xE0 PUSH1 0x2 EXP PUSH4 0x4E487B71 MUL PUSH1 0x0 MSTORE PUSH1 0x41 PUSH1 0x4 MSTORE PUSH1 0x24 PUSH1 0x0 REVERT JUMPDEST DUP1 PUSH2 0x333 JUMPI PUSH1 0x40 MLOAD PUSH1 0xE5 PUSH1 0x2 EXP PUSH3 0x461BCD MUL DUP2 MSTORE PUSH1 0x20 PUSH1 0x4 DUP3 ADD MSTORE PUSH1 0x20 PUSH1 0x24 DUP3 ADD MSTORE PUSH32 0x55534443207472616E7366657220746F2063686172697479206661696C65642E PUSH1 0x44 DUP3 ADD MSTORE PUSH1 0x64 DUP2 REVERT JUMPDEST DUP1 PUSH2 0x333 JUMPI PUSH1 0x40 MLOAD PUSH1 0xE5 PUSH1 0x2 EXP PUSH3 0x461BCD MUL DUP2 MSTORE PUSH1 0x20 PUSH1 0x4 DUP3 ADD MSTORE PUSH1 0x25 PUSH1 0x24 DUP3 ADD MSTORE PUSH32 0x417474656D707420746F20646F6E61746520746F20756E6B6E6F776E20636861 PUSH1 0x44 DUP3 ADD MSTORE PUSH32 0x726974792E000000000000000000000000000000000000000000000000000000 PUSH1 0x64 DUP3 ADD MSTORE PUSH1 0x84 DUP2 REVERT JUMPDEST DUP1 PUSH2 0x333 JUMPI PUSH1 0x40 MLOAD PUSH1 0xE5 PUSH1 0x2 EXP PUSH3 0x461BCD MUL DUP2 MSTORE PUSH1 0x20 PUSH1 0x4 DUP3 ADD MSTORE PUSH1 0x22 PUSH1 0x24 DUP3 ADD MSTORE PUSH32 0x546F74616C2066696E616C697A6174696F6E20616D6F756E7420746F6F206869 PUSH1 0x44 DUP3 ADD MSTORE PUSH32 0x6768000000000000000000000000000000000000000000000000000000000000 PUSH1 0x64 DUP3 ADD MSTORE PUSH1 0x84 DUP2 REVERT JUMPDEST DUP1 PUSH2 0x333 JUMPI PUSH1 0x40 MLOAD PUSH1 0xE5 PUSH1 0x2 EXP PUSH3 0x461BCD MUL DUP2 MSTORE PUSH1 0x20 PUSH1 0x4 DUP3 ADD MSTORE PUSH1 0x27 PUSH1 0x24 DUP3 ADD MSTORE PUSH32 0x4661696C656420746F2073656E642067617320746F20657068656D6572616C20 PUSH1 0x44 DUP3 ADD MSTORE PUSH32 0x77616C6C65742E00000000000000000000000000000000000000000000000000 PUSH1 0x64 DUP3 ADD MSTORE PUSH1 0x84 DUP2 REVERT JUMPDEST DUP1 PUSH2 0x333 JUMPI PUSH1 0x40 MLOAD PUSH1 0xE5 PUSH1 0x2 EXP PUSH3 0x461BCD MUL DUP2 MSTORE PUSH1 0x20 PUSH1 0x4 DUP3 ADD MSTORE PUSH1 0x31 PUSH1 0x24 DUP3 ADD MSTORE PUSH32 0x43686172697469657320616E6420616D6F756E747320617272617973206F6620 PUSH1 0x44 DUP3 ADD MSTORE PUSH32 0x646966666572656E74206C656E6774682E000000000000000000000000000000 PUSH1 0x64 DUP3 ADD MSTORE PUSH1 0x84 DUP2 REVERT JUMPDEST DUP1 PUSH2 0x333 JUMPI PUSH1 0x40 MLOAD PUSH1 0xE5 PUSH1 0x2 EXP PUSH3 0x461BCD MUL DUP2 MSTORE PUSH1 0x20 PUSH1 0x4 DUP3 ADD MSTORE PUSH1 0x1D PUSH1 0x24 DUP3 ADD MSTORE PUSH32 0x556E617574686F72697A6174696F6E2066696E616C697A6174696F6E2E000000 PUSH1 0x44 DUP3 ADD MSTORE PUSH1 0x64 DUP2 REVERT JUMPDEST DUP1 PUSH2 0x333 JUMPI PUSH1 0x40 MLOAD PUSH1 0xE5 PUSH1 0x2 EXP PUSH3 0x461BCD MUL DUP2 MSTORE PUSH1 0x20 PUSH1 0x4 DUP3 ADD MSTORE PUSH1 0x1A PUSH1 0x24 DUP3 ADD MSTORE PUSH32 0x4D75737420646F6E61746520656E746972652062616C616E6365000000000000 PUSH1 0x44 DUP3 ADD MSTORE PUSH1 0x64 DUP2 REVERT JUMPDEST DUP1 PUSH2 0x333 JUMPI PUSH1 0x40 MLOAD PUSH1 0xE5 PUSH1 0x2 EXP PUSH3 0x461BCD MUL DUP2 MSTORE PUSH1 0x20 PUSH1 0x4 DUP3 ADD MSTORE PUSH1 0x1F PUSH1 0x24 DUP3 ADD MSTORE PUSH32 0x5265656E7472616E637947756172643A207265656E7472616E742063616C6C00 PUSH1 0x44 DUP3 ADD MSTORE PUSH1 0x64 DUP2 REVERT JUMPDEST PUSH1 0x40 MLOAD RETURNDATASIZE PUSH1 0x0 DUP3 RETURNDATACOPY RETURNDATASIZE DUP2 REVERT INVALID LOG3 PUSH5 0x6970667358 0x22 SLT KECCAK256 0xB9 0xAC SELFBALANCE 0xD4 0x5F PUSH22 0x5CCD14737C048EF2E90A130B9B3ADD01713B59DC9837 DELEGATECALL CALLER ADDRESS 0x5F PUSH13 0x6578706572696D656E74616CF5 PUSH5 0x736F6C6343 STOP ADDMOD SMOD STOP COINBASE "
				},
				"gasEstimates": {
					"creation": {
						"codeDepositCost": "1123400",
						"executionCost": "infinite",
						"totalCost": "infinite"
					},
					"external": {
						"USDC()": "301",
						"WETH9()": "213",
						"deposit(address,address,uint256,uint256,uint256,uint24,uint24,uint256)": "infinite",
						"finalize(address,string[],uint256[])": "infinite",
						"getBalance(address)": "863",
						"owner()": "610",
						"paused()": "488",
						"renounceOwnership()": "infinite",
						"swapRouter()": "infinite",
						"transferOwnership(address)": "22737"
					}
				},
				"methodIdentifiers": {
					"USDC()": "89a30271",
					"WETH9()": "4aa4a4fc",
					"deposit(address,address,uint256,uint256,uint256,uint24,uint24,uint256)": "480a6fdc",
					"finalize(address,string[],uint256[])": "745284ce",
					"getBalance(address)": "f8b2cb4f",
					"owner()": "8da5cb5b",
					"paused()": "5c975abb",
					"renounceOwnership()": "715018a6",
					"swapRouter()": "c31c9c07",
					"transferOwnership(address)": "f2fde38b"
				}
			},
			"storageLayout": {
				"storage": [
					{
						"astId": 7,
						"contract": "contracts/fountain.sol:Serenity",
						"label": "_owner",
						"offset": 0,
						"slot": "0",
						"type": "t_address"
					},
					{
						"astId": 130,
						"contract": "contracts/fountain.sol:Serenity",
						"label": "_paused",
						"offset": 20,
						"slot": "0",
						"type": "t_bool"
					},
					{
						"astId": 231,
						"contract": "contracts/fountain.sol:Serenity",
						"label": "_status",
						"offset": 0,
						"slot": "1",
						"type": "t_uint256"
					},
					{
						"astId": 1275,
						"contract": "contracts/fountain.sol:Serenity",
						"label": "ephemeralGasMoneyAmount",
						"offset": 0,
						"slot": "2",
						"type": "t_uint256"
					},
					{
						"astId": 1279,
						"contract": "contracts/fountain.sol:Serenity",
						"label": "balances",
						"offset": 0,
						"slot": "3",
						"type": "t_mapping(t_address,t_uint256)"
					},
					{
						"astId": 1283,
						"contract": "contracts/fountain.sol:Serenity",
						"label": "charities",
						"offset": 0,
						"slot": "4",
						"type": "t_mapping(t_string_memory_ptr,t_address)"
					}
				],
				"types": {
					"t_address": {
						"encoding": "inplace",
						"label": "address",
						"numberOfBytes": "20"
					},
					"t_bool": {
						"encoding": "inplace",
						"label": "bool",
						"numberOfBytes": "1"
					},
					"t_mapping(t_address,t_uint256)": {
						"encoding": "mapping",
						"key": "t_address",
						"label": "mapping(address => uint256)",
						"numberOfBytes": "32",
						"value": "t_uint256"
					},
					"t_mapping(t_string_memory_ptr,t_address)": {
						"encoding": "mapping",
						"key": "t_string_memory_ptr",
						"label": "mapping(string => address)",
						"numberOfBytes": "32",
						"value": "t_address"
					},
					"t_string_memory_ptr": {
						"encoding": "bytes",
						"label": "string",
						"numberOfBytes": "32"
					},
					"t_uint256": {
						"encoding": "inplace",
						"label": "uint256",
						"numberOfBytes": "32"
					}
				}
			},
			"userdoc": {
				"kind": "user",
				"methods": {},
				"version": 1
			}
		}
	}
}