{
	"contracts/fountain.sol": {
		"Serenity": {
			"abi": [
				{
					"inputs": [
						{
							"internalType": "contract ISwapRouter",
							"name": "_swapRouter",
							"type": "address"
						},
						{
							"internalType": "uint256",
							"name": "_ephemeralGasMoneyAmount",
							"type": "uint256"
						},
						{
							"internalType": "contract IWETH",
							"name": "_weth9",
							"type": "address"
						},
						{
							"internalType": "contract IERC20",
							"name": "_usdc",
							"type": "address"
						}
					],
					"stateMutability": "nonpayable",
					"type": "constructor"
				},
				{
					"anonymous": false,
					"inputs": [
						{
							"indexed": true,
							"internalType": "address",
							"name": "donor",
							"type": "address"
						},
						{
							"indexed": true,
							"internalType": "address",
							"name": "ephemeralWallet",
							"type": "address"
						},
						{
							"indexed": true,
							"internalType": "address",
							"name": "tokenIn",
							"type": "address"
						},
						{
							"indexed": false,
							"internalType": "uint256",
							"name": "tokenAmountIn",
							"type": "uint256"
						},
						{
							"indexed": false,
							"internalType": "uint256",
							"name": "gasOut",
							"type": "uint256"
						},
						{
							"indexed": false,
							"internalType": "uint256",
							"name": "usdcOut",
							"type": "uint256"
						}
					],
					"name": "FountainDeposit",
					"type": "event"
				},
				{
					"anonymous": false,
					"inputs": [
						{
							"indexed": true,
							"internalType": "address",
							"name": "donor",
							"type": "address"
						},
						{
							"indexed": true,
							"internalType": "string",
							"name": "charity",
							"type": "string"
						},
						{
							"indexed": true,
							"internalType": "address",
							"name": "charityAddress",
							"type": "address"
						},
						{
							"indexed": false,
							"internalType": "uint256",
							"name": "usdcAmount",
							"type": "uint256"
						}
					],
					"name": "FountainDonation",
					"type": "event"
				},
				{
					"anonymous": false,
					"inputs": [
						{
							"indexed": true,
							"internalType": "address",
							"name": "donor",
							"type": "address"
						},
						{
							"indexed": false,
							"internalType": "uint256",
							"name": "usdcAmount",
							"type": "uint256"
						}
					],
					"name": "FountainFinalization",
					"type": "event"
				},
				{
					"anonymous": false,
					"inputs": [
						{
							"indexed": true,
							"internalType": "address",
							"name": "previousOwner",
							"type": "address"
						},
						{
							"indexed": true,
							"internalType": "address",
							"name": "newOwner",
							"type": "address"
						}
					],
					"name": "OwnershipTransferred",
					"type": "event"
				},
				{
					"anonymous": false,
					"inputs": [
						{
							"indexed": false,
							"internalType": "address",
							"name": "account",
							"type": "address"
						}
					],
					"name": "Paused",
					"type": "event"
				},
				{
					"anonymous": false,
					"inputs": [
						{
							"indexed": false,
							"internalType": "address",
							"name": "account",
							"type": "address"
						}
					],
					"name": "Unpaused",
					"type": "event"
				},
				{
					"inputs": [],
					"name": "USDC",
					"outputs": [
						{
							"internalType": "contract IERC20",
							"name": "",
							"type": "address"
						}
					],
					"stateMutability": "view",
					"type": "function"
				},
				{
					"inputs": [],
					"name": "WETH9",
					"outputs": [
						{
							"internalType": "contract IWETH",
							"name": "",
							"type": "address"
						}
					],
					"stateMutability": "view",
					"type": "function"
				},
				{
					"inputs": [
						{
							"internalType": "address",
							"name": "ephemeralWalletAddress",
							"type": "address"
						},
						{
							"internalType": "address",
							"name": "tokenIn",
							"type": "address"
						},
						{
							"internalType": "uint256",
							"name": "totalAmountIn",
							"type": "uint256"
						},
						{
							"internalType": "uint256",
							"name": "deadline",
							"type": "uint256"
						},
						{
							"internalType": "uint256",
							"name": "ethSwapAmountInMax",
							"type": "uint256"
						},
						{
							"internalType": "uint24",
							"name": "ethSwapPoolFee",
							"type": "uint24"
						},
						{
							"internalType": "uint24",
							"name": "usdcSwapPoolFee",
							"type": "uint24"
						},
						{
							"internalType": "uint256",
							"name": "usdcSwapAmountOutMinimum",
							"type": "uint256"
						}
					],
					"name": "deposit",
					"outputs": [],
					"stateMutability": "nonpayable",
					"type": "function"
				},
				{
					"inputs": [
						{
							"internalType": "address",
							"name": "user",
							"type": "address"
						},
						{
							"internalType": "string[]",
							"name": "charities_",
							"type": "string[]"
						},
						{
							"internalType": "uint256[]",
							"name": "amounts_",
							"type": "uint256[]"
						}
					],
					"name": "finalize",
					"outputs": [],
					"stateMutability": "nonpayable",
					"type": "function"
				},
				{
					"inputs": [
						{
							"internalType": "address",
							"name": "user",
							"type": "address"
						}
					],
					"name": "getBalance",
					"outputs": [
						{
							"internalType": "uint256",
							"name": "userBalance_",
							"type": "uint256"
						}
					],
					"stateMutability": "view",
					"type": "function"
				},
				{
					"inputs": [],
					"name": "owner",
					"outputs": [
						{
							"internalType": "address",
							"name": "",
							"type": "address"
						}
					],
					"stateMutability": "view",
					"type": "function"
				},
				{
					"inputs": [],
					"name": "paused",
					"outputs": [
						{
							"internalType": "bool",
							"name": "",
							"type": "bool"
						}
					],
					"stateMutability": "view",
					"type": "function"
				},
				{
					"inputs": [
						{
							"internalType": "string",
							"name": "charityName",
							"type": "string"
						},
						{
							"internalType": "address",
							"name": "charityAddress",
							"type": "address"
						}
					],
					"name": "registerCharity",
					"outputs": [],
					"stateMutability": "nonpayable",
					"type": "function"
				},
				{
					"inputs": [],
					"name": "renounceOwnership",
					"outputs": [],
					"stateMutability": "nonpayable",
					"type": "function"
				},
				{
					"inputs": [],
					"name": "swapRouter",
					"outputs": [
						{
							"internalType": "contract ISwapRouter",
							"name": "",
							"type": "address"
						}
					],
					"stateMutability": "view",
					"type": "function"
				},
				{
					"inputs": [
						{
							"internalType": "address",
							"name": "newOwner",
							"type": "address"
						}
					],
					"name": "transferOwnership",
					"outputs": [],
					"stateMutability": "nonpayable",
					"type": "function"
				}
			],
			"devdoc": {
				"kind": "dev",
				"methods": {
					"owner()": {
						"details": "Returns the address of the current owner."
					},
					"paused()": {
						"details": "Returns true if the contract is paused, and false otherwise."
					},
					"renounceOwnership()": {
						"details": "Leaves the contract without owner. It will not be possible to call `onlyOwner` functions anymore. Can only be called by the current owner. NOTE: Renouncing ownership will leave the contract without an owner, thereby removing any functionality that is only available to the owner."
					},
					"transferOwnership(address)": {
						"details": "Transfers ownership of the contract to a new account (`newOwner`). Can only be called by the current owner."
					}
				},
				"version": 1
			},
			"evm": {
				"assembly": "    /* \"contracts/fountain.sol\":531:8142  contract Serenity is Ownable, Pausable, ReentrancyGuard {... */\n  mstore(0x40, 0xe0)\n  jumpi(tag_1, iszero(callvalue))\n  0x00\n  dup1\n  revert\ntag_1:\n  bytecodeSize\n  dup1\n  codesize\n  sub\n  not(0x1f)\n  0x1f\n  dup3\n  add\n  and\n  0xe0\n  add\n  0xe0\n  dup2\n  lt\n  0xffffffffffffffff\n  dup3\n  gt\n  or\n  iszero\n  tag_2\n  jumpi\n  mstore(0x00, 0x4e487b7100000000000000000000000000000000000000000000000000000000)\n  mstore(0x04, 0x41)\n  revert(0x00, 0x24)\ntag_2:\n  0x40\n  mstore\n  dup1\n  dup3\n  0xe0\n  codecopy\n  0x80\n  dup2\n  slt\n  iszero\n  tag_3\n  jumpi\n  0x00\n  dup1\n  revert\ntag_3:\n  pop\n  pop\n  mload(0xe0)\n  tag_4\n  dup2\n  tag_5\n  jump\t// in\ntag_4:\n  mload(0x0100)\n  mload(0x0120)\n  tag_6\n  dup2\n  tag_5\n  jump\t// in\ntag_6:\n  mload(0x0140)\n  tag_7\n  dup2\n  tag_5\n  jump\t// in\ntag_7:\n  tag_8\n  dup2\n  dup4\n  dup6\n  dup8\n  tag_9\n  jump\t// in\ntag_8:\n  pop\n  pop\n  pop\n  pop\n  mload(0x40)\n  dataSize(sub_0)\n  dup1\n  dataOffset(sub_0)\n  dup4\n  codecopy\n  mload(0x80)\n  dup3\n  assignImmutable(\"0x34098433846a9bd0a86140a033abb24fa6dec3400ab42534fa886dfeed6a6087\")\n  mload(0xa0)\n  dup3\n  assignImmutable(\"0x3e53e6caa3d9267e13a0317305a21727fdeb46c2d5adc9160409eaa6e5fb3b60\")\n  mload(0xc0)\n  dup3\n  assignImmutable(\"0xa89dab98646eeeb3665d545d51c6146ef2fb7643427936d0df6806075707fbb6\")\n  dup1\n  dup3\n  return\n    /* \"contracts/fountain.sol\":1942:2188  constructor(ISwapRouter _swapRouter, uint256 _ephemeralGasMoneyAmount, IWETH _weth9, IERC20 _usdc) {... */\ntag_9:\n    /* \"@openzeppelin/contracts/access/Ownable.sol\":2525:2531  _owner */\n  0x00\n    /* \"contracts/fountain.sol\":531:8142  contract Serenity is Ownable, Pausable, ReentrancyGuard {... */\n  dup1\n  sload\n    /* \"@openzeppelin/contracts/utils/Context.sol\":719:729  msg.sender */\n  caller\n  not(sub(exp(0x02, 0xa0), 0x01))\n    /* \"contracts/fountain.sol\":531:8142  contract Serenity is Ownable, Pausable, ReentrancyGuard {... */\n  dup3\n  and\n  dup2\n  or\n  dup4\n  sstore\n  mload(0x40)\n  swap2\n  swap3\n    /* \"@openzeppelin/contracts/utils/Context.sol\":719:729  msg.sender */\n  swap1\n  swap2\n  sub(exp(0x02, 0xa0), 0x01)\n    /* \"contracts/fountain.sol\":531:8142  contract Serenity is Ownable, Pausable, ReentrancyGuard {... */\n  dup5\n  and\n  swap2\n    /* \"@openzeppelin/contracts/access/Ownable.sol\":2573:2613  OwnershipTransferred(oldOwner, newOwner) */\n  0x8be0079c531659141344cd1fd0a4f28419497f9722a3daafe3b4186f6b6457e0\n  swap2\n  log3\n  not(sub(exp(0x02, 0xa8), 0x01))\n    /* \"contracts/fountain.sol\":531:8142  contract Serenity is Ownable, Pausable, ReentrancyGuard {... */\n  and\n    /* \"@openzeppelin/contracts/utils/Context.sol\":719:729  msg.sender */\n  caller\n  not(mul(0xff, exp(0x02, 0xa0)))\n    /* \"contracts/fountain.sol\":531:8142  contract Serenity is Ownable, Pausable, ReentrancyGuard {... */\n  and\n  or\n    /* \"@openzeppelin/contracts/access/Ownable.sol\":2525:2531  _owner */\n  0x00\n    /* \"contracts/fountain.sol\":531:8142  contract Serenity is Ownable, Pausable, ReentrancyGuard {... */\n  sstore\n  0x01\n  dup1\n  sstore\n    /* \"contracts/fountain.sol\":2051:2075  swapRouter = _swapRouter */\n  0xc0\n  mstore\n    /* \"contracts/fountain.sol\":531:8142  contract Serenity is Ownable, Pausable, ReentrancyGuard {... */\n  0x02\n  sstore\n    /* \"contracts/fountain.sol\":2145:2159  WETH9 = _weth9 */\n  0x80\n  mstore\n    /* \"contracts/fountain.sol\":531:8142  contract Serenity is Ownable, Pausable, ReentrancyGuard {... */\n  0xa0\n    /* \"contracts/fountain.sol\":2169:2181  USDC = _usdc */\n  mstore\n    /* \"contracts/fountain.sol\":1942:2188  constructor(ISwapRouter _swapRouter, uint256 _ephemeralGasMoneyAmount, IWETH _weth9, IERC20 _usdc) {... */\n  jump\t// out\n    /* \"contracts/fountain.sol\":531:8142  contract Serenity is Ownable, Pausable, ReentrancyGuard {... */\ntag_5:\n  sub(exp(0x02, 0xa0), 0x01)\n  dup2\n  and\n  dup2\n  eq\n  tag_13\n  jumpi\n  0x00\n  dup1\n  revert\ntag_13:\n  pop\n  jump\t// out\nstop\n\nsub_0: assembly {\n        /* \"contracts/fountain.sol\":531:8142  contract Serenity is Ownable, Pausable, ReentrancyGuard {... */\n      0x40\n      0x80\n      dup2\n      mstore\n      jumpi(tag_1, lt(calldatasize, 0x04))\n      0x00\n      0x0100000000000000000000000000000000000000000000000000000000\n      dup2\n      calldataload\n      div\n      0x480a6fdc\n      dup2\n      eq\n      tag_3\n      jumpi\n      0x4aa4a4fc\n      dup2\n      eq\n      tag_4\n      jumpi\n      0x5c975abb\n      dup2\n      eq\n      tag_5\n      jumpi\n      0x715018a6\n      dup2\n      eq\n      tag_6\n      jumpi\n      0x745284ce\n      dup2\n      eq\n      tag_7\n      jumpi\n      0x7aed7746\n      dup2\n      eq\n      tag_8\n      jumpi\n      0x89a30271\n      dup2\n      eq\n      tag_9\n      jumpi\n      0x8da5cb5b\n      dup2\n      eq\n      tag_10\n      jumpi\n      0xc31c9c07\n      dup2\n      eq\n      tag_11\n      jumpi\n      0xf2fde38b\n      dup2\n      eq\n      tag_12\n      jumpi\n      0xf8b2cb4f\n      dup2\n      eq\n      tag_13\n      jumpi\n      jump(tag_2)\n    tag_3:\n      jumpi(tag_14, iszero(callvalue))\n      dup2\n      dup3\n      revert\n    tag_14:\n      tag_15\n      calldatasize\n      tag_16\n      jump\t// in\n    tag_15:\n        /* \"contracts/fountain.sol\":2194:5505  function deposit(... */\n      tag_17\n      dup2\n      dup4\n      dup6\n      dup8\n      dup10\n      dup12\n      dup14\n      dup16\n      tag_18\n      jump\t// in\n    tag_17:\n      pop\n      pop\n      pop\n      pop\n      pop\n      pop\n      pop\n      pop\n        /* \"contracts/fountain.sol\":531:8142  contract Serenity is Ownable, Pausable, ReentrancyGuard {... */\n      dup2\n      dup4\n      mload\n      return\n    tag_4:\n      jumpi(tag_19, iszero(callvalue))\n      dup2\n      dup3\n      revert\n    tag_19:\n      tag_20\n      calldatasize\n      tag_21\n      jump\t// in\n    tag_20:\n      dup3\n      mload\n        /* \"contracts/fountain.sol\":768:796  IWETH public immutable WETH9 */\n      immutable(\"0x34098433846a9bd0a86140a033abb24fa6dec3400ab42534fa886dfeed6a6087\")\n      sub(exp(0x02, 0xa0), 0x01)\n        /* \"contracts/fountain.sol\":531:8142  contract Serenity is Ownable, Pausable, ReentrancyGuard {... */\n      and\n      dup2\n      mstore\n      0x20\n      dup2\n      return\n    tag_22:\n      sub\n      dup2\n      return\n    tag_5:\n      jumpi(tag_24, iszero(callvalue))\n      dup2\n      dup3\n      revert\n    tag_24:\n      tag_25\n      calldatasize\n      tag_21\n      jump\t// in\n    tag_25:\n      0xff\n      0x010000000000000000000000000000000000000000\n      dup4\n      sload\n      div\n      and\n      dup4\n      mload\n      dup1\n      tag_22\n      dup4\n      dup4\n      swap1\n      iszero\n      iszero\n      dup2\n      mstore\n      0x20\n      add\n      swap1\n      jump\n    tag_6:\n      jumpi(tag_28, iszero(callvalue))\n      dup2\n      dup3\n      revert\n    tag_28:\n      tag_29\n      calldatasize\n      tag_21\n      jump\t// in\n    tag_29:\n        /* \"@openzeppelin/contracts/access/Ownable.sol\":1831:1932  function renounceOwnership() public virtual onlyOwner {... */\n      tag_30\n      tag_31\n      jump\t// in\n    tag_30:\n        /* \"contracts/fountain.sol\":531:8142  contract Serenity is Ownable, Pausable, ReentrancyGuard {... */\n      dup2\n      dup4\n      mload\n      return\n    tag_7:\n      jumpi(tag_32, iszero(callvalue))\n      dup2\n      dup3\n      revert\n    tag_32:\n      tag_33\n      calldatasize\n      tag_34\n      jump\t// in\n    tag_33:\n        /* \"contracts/fountain.sol\":5717:7616  function finalize(... */\n      tag_35\n      dup2\n      dup4\n      dup6\n      tag_36\n      jump\t// in\n    tag_35:\n      pop\n      pop\n      pop\n        /* \"contracts/fountain.sol\":531:8142  contract Serenity is Ownable, Pausable, ReentrancyGuard {... */\n      dup2\n      dup4\n      mload\n      return\n    tag_8:\n      jumpi(tag_37, iszero(callvalue))\n      dup2\n      dup3\n      revert\n    tag_37:\n      tag_38\n      calldatasize\n      tag_39\n      jump\t// in\n    tag_38:\n      tag_40\n      dup2\n      dup4\n      tag_41\n      jump\t// in\n    tag_40:\n      pop\n      pop\n      dup2\n      dup4\n      mload\n      return\n    tag_9:\n      jumpi(tag_42, iszero(callvalue))\n      dup2\n      dup3\n      revert\n    tag_42:\n      tag_43\n      calldatasize\n      tag_21\n      jump\t// in\n    tag_43:\n      dup3\n      mload\n        /* \"contracts/fountain.sol\":923:951  IERC20 public immutable USDC */\n      immutable(\"0x3e53e6caa3d9267e13a0317305a21727fdeb46c2d5adc9160409eaa6e5fb3b60\")\n      sub(exp(0x02, 0xa0), 0x01)\n        /* \"contracts/fountain.sol\":531:8142  contract Serenity is Ownable, Pausable, ReentrancyGuard {... */\n      and\n      dup2\n      mstore\n      0x20\n      dup2\n      return\n    tag_10:\n      jumpi(tag_45, iszero(callvalue))\n      dup2\n      dup3\n      revert\n    tag_45:\n      tag_46\n      calldatasize\n      tag_21\n      jump\t// in\n    tag_46:\n      dup2\n      sload\n      dup4\n      mload\n      sub(exp(0x02, 0xa0), 0x01)\n      swap1\n      swap2\n      and\n      dup1\n      dup3\n      mstore\n      swap1\n      0x20\n      dup2\n      return\n    tag_11:\n      jumpi(tag_48, iszero(callvalue))\n      dup2\n      dup3\n      revert\n    tag_48:\n      tag_49\n      calldatasize\n      tag_21\n      jump\t// in\n    tag_49:\n      dup3\n      mload\n        /* \"contracts/fountain.sol\":1148:1187  ISwapRouter public immutable swapRouter */\n      immutable(\"0xa89dab98646eeeb3665d545d51c6146ef2fb7643427936d0df6806075707fbb6\")\n      sub(exp(0x02, 0xa0), 0x01)\n        /* \"contracts/fountain.sol\":531:8142  contract Serenity is Ownable, Pausable, ReentrancyGuard {... */\n      and\n      dup2\n      mstore\n      0x20\n      dup2\n      return\n    tag_12:\n      jumpi(tag_51, iszero(callvalue))\n      dup2\n      dup3\n      revert\n    tag_51:\n        /* \"@openzeppelin/contracts/access/Ownable.sol\":2081:2279  function transferOwnership(address newOwner) public virtual onlyOwner {... */\n      tag_30\n        /* \"contracts/fountain.sol\":531:8142  contract Serenity is Ownable, Pausable, ReentrancyGuard {... */\n      tag_53\n      calldatasize\n      tag_54\n      jump\t// in\n    tag_53:\n        /* \"@openzeppelin/contracts/access/Ownable.sol\":2081:2279  function transferOwnership(address newOwner) public virtual onlyOwner {... */\n      tag_55\n      jump\t// in\n        /* \"contracts/fountain.sol\":531:8142  contract Serenity is Ownable, Pausable, ReentrancyGuard {... */\n    tag_13:\n      jumpi(tag_56, iszero(callvalue))\n      dup2\n      dup3\n      revert\n    tag_56:\n      tag_57\n      tag_58\n      calldatasize\n      tag_54\n      jump\t// in\n    tag_58:\n      sub(exp(0x02, 0xa0), 0x01)\n      and\n      0x00\n      swap1\n      dup2\n      mstore\n        /* \"contracts/fountain.sol\":8119:8127  balances */\n      0x03\n        /* \"contracts/fountain.sol\":531:8142  contract Serenity is Ownable, Pausable, ReentrancyGuard {... */\n      0x20\n      mstore\n      0x40\n      swap1\n      keccak256\n      sload\n      swap1\n        /* \"contracts/fountain.sol\":8017:8140  function getBalance(address user) public view returns (uint256 userBalance_) {... */\n      jump\n        /* \"contracts/fountain.sol\":531:8142  contract Serenity is Ownable, Pausable, ReentrancyGuard {... */\n    tag_57:\n      dup4\n      mload\n      dup2\n      dup2\n      mstore\n      0x20\n      dup2\n      return\n    tag_2:\n      pop\n      pop\n    tag_1:\n      pop\n      0x00\n      dup1\n      revert\n    tag_63:\n      calldataload(0x04)\n      sub(exp(0x02, 0xa0), 0x01)\n      dup2\n      and\n      dup2\n      eq\n      tag_65\n      jumpi\n      0x00\n      dup1\n      revert\n    tag_65:\n      swap1\n      jump\t// out\n    tag_66:\n      0x00\n      dup3\n      0x1f\n      dup4\n      add\n      slt\n      tag_68\n      jumpi\n      0x00\n      dup1\n      revert\n    tag_68:\n      dup2\n      calldataload\n      tag_69\n      dup2\n      tag_70\n      jump\t// in\n    tag_69:\n      mload(0x40)\n      tag_71\n      dup3\n      dup3\n      tag_72\n      jump\t// in\n    tag_71:\n      dup3\n      dup2\n      mstore\n      0x20\n      dup1\n      dup3\n      add\n      swap3\n      pop\n      dup6\n      dup2\n      add\n      dup2\n      dup6\n      mul\n      dup8\n      add\n      dup3\n      add\n      dup9\n      lt\n      iszero\n      tag_73\n      jumpi\n      0x00\n      dup1\n      revert\n    tag_73:\n      0x00\n    tag_74:\n      dup6\n      dup2\n      lt\n      iszero\n      tag_76\n      jumpi\n      dup2\n      calldataload\n      dup6\n      mstore\n      swap4\n      dup3\n      add\n      swap4\n      swap1\n      dup3\n      add\n      swap1\n      0x01\n      add\n      jump(tag_74)\n    tag_76:\n      pop\n      swap2\n      swap8\n      swap7\n      pop\n      pop\n      pop\n      pop\n      pop\n      pop\n      pop\n      jump\t// out\n    tag_77:\n      0x00\n      dup3\n      0x1f\n      dup4\n      add\n      slt\n      tag_79\n      jumpi\n      0x00\n      dup1\n      revert\n    tag_79:\n      dup2\n      calldataload\n      tag_80\n      dup2\n      tag_81\n      jump\t// in\n    tag_80:\n      mload(0x40)\n      tag_82\n      dup3\n      dup3\n      tag_72\n      jump\t// in\n    tag_82:\n      dup3\n      dup2\n      mstore\n      dup6\n      0x20\n      dup5\n      dup8\n      add\n      add\n      gt\n      iszero\n      tag_83\n      jumpi\n      0x00\n      dup1\n      revert\n    tag_83:\n        /* \"@openzeppelin/contracts/security/ReentrancyGuard.sol\":1701:1702  1 */\n      dup3\n        /* \"contracts/fountain.sol\":531:8142  contract Serenity is Ownable, Pausable, ReentrancyGuard {... */\n      0x20\n      dup7\n      add\n      0x20\n      dup4\n      add\n        /* \"@openzeppelin/contracts/security/ReentrancyGuard.sol\":1701:1702  1 */\n      calldatacopy\n      0x00\n      swap3\n      dup2\n      add\n        /* \"contracts/fountain.sol\":531:8142  contract Serenity is Ownable, Pausable, ReentrancyGuard {... */\n      0x20\n        /* \"@openzeppelin/contracts/security/ReentrancyGuard.sol\":1701:1702  1 */\n      add\n      swap3\n      swap1\n      swap3\n      mstore\n      pop\n        /* \"contracts/fountain.sol\":531:8142  contract Serenity is Ownable, Pausable, ReentrancyGuard {... */\n      swap4\n      swap3\n      pop\n      pop\n      pop\n      jump\t// out\n    tag_21:\n      0x00\n      not(0x03)\n      dup3\n      add\n      slt\n      iszero\n      tag_85\n      jumpi\n      0x00\n      dup1\n      revert\n    tag_85:\n      pop\n      jump\t// out\n    tag_86:\n      0x00\n      dup2\n      dup4\n      sub\n      slt\n      iszero\n      tag_88\n      jumpi\n      0x00\n      dup1\n      revert\n    tag_88:\n      pop\n      pop\n      jump\t// out\n    tag_54:\n      0x00\n      0x20\n      not(0x03)\n      dup4\n      add\n      slt\n      iszero\n      tag_90\n      jumpi\n      0x00\n      dup1\n      revert\n    tag_90:\n      calldataload(0x04)\n      sub(exp(0x02, 0xa0), 0x01)\n      dup2\n      and\n      dup2\n      eq\n      tag_91\n      jumpi\n      0x00\n      dup1\n      revert\n    tag_91:\n      swap3\n      swap2\n      pop\n      pop\n      jump\t// out\n    tag_16:\n      0x00\n      dup1\n      dup1\n      dup1\n      dup1\n      dup1\n      dup1\n      dup1\n      0x0100\n      not(0x03)\n      dup11\n      add\n      slt\n      iszero\n      tag_93\n      jumpi\n      0x00\n      dup1\n      revert\n    tag_93:\n      calldataload(0x04)\n      sub(exp(0x02, 0xa0), 0x01)\n      dup1\n      dup3\n      and\n      dup3\n      eq\n      tag_94\n      jumpi\n      0x00\n      dup1\n      revert\n    tag_94:\n      swap1\n      swap9\n      pop\n      calldataload(0x24)\n      swap1\n      dup1\n      dup3\n      and\n      dup3\n      eq\n      tag_95\n      jumpi\n      0x00\n      dup1\n      revert\n    tag_95:\n      pop\n      swap7\n      pop\n      calldataload(0x44)\n      swap6\n      pop\n      calldataload(0x64)\n      swap5\n      pop\n      calldataload(0x84)\n      swap4\n      pop\n      calldataload(0xa4)\n      0xffffff\n      dup1\n      dup3\n      and\n      dup3\n      eq\n      tag_96\n      jumpi\n      0x00\n      dup1\n      revert\n    tag_96:\n      swap1\n      swap4\n      pop\n      calldataload(0xc4)\n      swap1\n      dup1\n      dup3\n      and\n      dup3\n      eq\n      tag_97\n      jumpi\n      0x00\n      dup1\n      revert\n    tag_97:\n      pop\n      dup1\n      swap3\n      pop\n      pop\n      calldataload(0xe4)\n      swap1\n      pop\n      swap2\n      swap4\n      swap6\n      swap8\n      pop\n      swap2\n      swap4\n      swap6\n      swap8\n      jump\t// out\n    tag_34:\n      0x00\n      dup1\n      dup1\n      0x60\n      not(0x03)\n      dup6\n      add\n      slt\n      iszero\n      tag_99\n      jumpi\n      0x00\n      dup1\n      revert\n    tag_99:\n      tag_100\n      tag_63\n      jump\t// in\n    tag_100:\n      swap3\n      pop\n      0x24\n      dup1\n      calldataload\n      0xffffffffffffffff\n      dup1\n      dup3\n      gt\n      iszero\n      tag_101\n      jumpi\n      0x00\n      dup1\n      revert\n    tag_101:\n      dup7\n      0x23\n      dup4\n      add\n      slt\n      tag_102\n      jumpi\n      0x00\n      dup1\n      revert\n    tag_102:\n      dup2\n      0x04\n      add\n      calldataload\n      tag_103\n      dup2\n      tag_70\n      jump\t// in\n    tag_103:\n      mload(0x40)\n      tag_104\n      dup3\n      dup3\n      tag_72\n      jump\t// in\n    tag_104:\n      dup3\n      dup2\n      mstore\n      0x20\n      dup1\n      dup3\n      add\n      swap3\n      pop\n      dup6\n      dup8\n      add\n      dup2\n      dup6\n      mul\n      dup8\n      add\n      dup9\n      add\n      dup13\n      lt\n      iszero\n      tag_105\n      jumpi\n      0x00\n      dup1\n      revert\n    tag_105:\n      0x00\n    tag_106:\n      dup6\n      dup2\n      lt\n      iszero\n      tag_108\n      jumpi\n      dup2\n      calldataload\n      dup8\n      dup2\n      gt\n      iszero\n      tag_109\n      jumpi\n      0x00\n      dup1\n      revert\n    tag_109:\n      tag_110\n      dup15\n      dup12\n      dup4\n      dup13\n      add\n      add\n      tag_77\n      jump\t// in\n    tag_110:\n      dup7\n      mstore\n      pop\n      swap4\n      dup3\n      add\n      swap4\n      swap1\n      dup3\n      add\n      swap1\n      0x01\n      add\n      jump(tag_106)\n    tag_108:\n      pop\n      swap2\n      swap9\n      pop\n      pop\n      calldataload(0x44)\n      swap6\n      pop\n      pop\n      pop\n      pop\n      dup1\n      dup4\n      gt\n      iszero\n      tag_111\n      jumpi\n      0x00\n      dup1\n      revert\n    tag_111:\n      pop\n      pop\n      tag_112\n      dup6\n      dup3\n      0x04\n      add\n      tag_66\n      jump\t// in\n    tag_112:\n      swap4\n      swap6\n      swap3\n      swap5\n      pop\n      pop\n      pop\n      jump\t// out\n    tag_113:\n      0x00\n      0x20\n      dup3\n      dup5\n      sub\n      slt\n      iszero\n      tag_115\n      jumpi\n      0x00\n      dup1\n      revert\n    tag_115:\n      dup2\n      mload\n      dup1\n      iszero\n      iszero\n      dup2\n      eq\n      tag_116\n      jumpi\n      0x00\n      dup1\n      revert\n    tag_116:\n      swap4\n      swap3\n      pop\n      pop\n      pop\n      jump\t// out\n    tag_39:\n      0x00\n      dup1\n      0x40\n      not(0x03)\n      dup5\n      add\n      slt\n      iszero\n      tag_118\n      jumpi\n      0x00\n      dup1\n      revert\n    tag_118:\n      calldataload(0x04)\n      0xffffffffffffffff\n      dup2\n      gt\n      iszero\n      tag_119\n      jumpi\n      0x00\n      dup1\n      revert\n    tag_119:\n      tag_120\n      dup5\n      dup3\n      0x04\n      add\n      tag_77\n      jump\t// in\n    tag_120:\n      swap3\n      pop\n      pop\n      calldataload(0x24)\n      sub(exp(0x02, 0xa0), 0x01)\n      dup2\n      and\n      dup2\n      eq\n      tag_121\n      jumpi\n      0x00\n      dup1\n      revert\n    tag_121:\n      swap2\n      swap4\n      swap2\n      swap3\n      pop\n      pop\n      jump\t// out\n    tag_122:\n      0x00\n      0x20\n      dup3\n      dup5\n      sub\n      slt\n      iszero\n      tag_124\n      jumpi\n      0x00\n      dup1\n      revert\n    tag_124:\n      pop\n      mload\n      swap2\n      swap1\n      pop\n      jump\t// out\n    tag_125:\n      0x00\n      dup2\n      mload\n        /* \"@openzeppelin/contracts/security/ReentrancyGuard.sol\":1701:1702  1 */\n      0x00\n    tag_127:\n      dup2\n      dup2\n      lt\n      iszero\n      tag_129\n      jumpi\n        /* \"contracts/fountain.sol\":531:8142  contract Serenity is Ownable, Pausable, ReentrancyGuard {... */\n      0x20\n        /* \"@openzeppelin/contracts/security/ReentrancyGuard.sol\":1701:1702  1 */\n      dup2\n      dup6\n      add\n      dup2\n      add\n      mload\n      dup7\n      dup4\n      add\n      mstore\n      add\n      jump(tag_127)\n    tag_129:\n      dup2\n      dup2\n      gt\n      iszero\n      tag_130\n      jumpi\n      0x00\n      dup3\n      dup7\n      add\n      mstore\n    tag_130:\n      pop\n        /* \"contracts/fountain.sol\":531:8142  contract Serenity is Ownable, Pausable, ReentrancyGuard {... */\n      swap3\n      swap1\n      swap3\n      add\n      swap3\n      swap2\n      pop\n      pop\n      jump\t// out\n    tag_135:\n      0x00\n      0x0100\n      dup3\n      add\n      swap1\n      pop\n      sub(exp(0x02, 0xa0), 0x01)\n      dup1\n      dup5\n      mload\n      and\n      dup4\n      mstore\n      dup1\n      0x20\n      dup6\n      add\n      mload\n      and\n      0x20\n      dup5\n      add\n      mstore\n      0xffffff\n      0x40\n      dup6\n      add\n      mload\n      and\n      0x40\n      dup5\n      add\n      mstore\n      dup1\n      0x60\n      dup6\n      add\n      mload\n      and\n      0x60\n      dup5\n      add\n      mstore\n      0x80\n      dup5\n      add\n      mload\n      0x80\n      dup5\n      add\n      mstore\n      0xa0\n      dup5\n      add\n      mload\n      0xa0\n      dup5\n      add\n      mstore\n      0xc0\n      dup5\n      add\n      mload\n      0xc0\n      dup5\n      add\n      mstore\n      dup1\n      0xe0\n      dup6\n      add\n      mload\n      and\n      0xe0\n      dup5\n      add\n      mstore\n      pop\n      swap3\n      swap2\n      pop\n      pop\n      jump\t// out\n    tag_140:\n      mload(0x40)\n      0x0100\n        /* \"@openzeppelin/contracts/security/ReentrancyGuard.sol\":1701:1702  1 */\n      dup2\n      add\n      0xffffffffffffffff\n      dup2\n      gt\n      dup3\n      dup3\n      lt\n      or\n      iszero\n      tag_143\n      jumpi\n      tag_143\n      tag_144\n      jump\t// in\n    tag_143:\n        /* \"contracts/fountain.sol\":531:8142  contract Serenity is Ownable, Pausable, ReentrancyGuard {... */\n      0x40\n        /* \"@openzeppelin/contracts/security/ReentrancyGuard.sol\":1701:1702  1 */\n      mstore\n        /* \"contracts/fountain.sol\":531:8142  contract Serenity is Ownable, Pausable, ReentrancyGuard {... */\n      swap1\n      jump\t// out\n    tag_70:\n      0x00\n      0xffffffffffffffff\n      dup3\n      gt\n      iszero\n      tag_147\n      jumpi\n      tag_147\n      tag_144\n      jump\t// in\n    tag_147:\n      pop\n      0x20\n      swap1\n      dup2\n      mul\n      add\n      swap1\n      jump\t// out\n    tag_81:\n      0x00\n      0xffffffffffffffff\n      dup3\n      gt\n      iszero\n      tag_150\n      jumpi\n      tag_150\n      tag_144\n      jump\t// in\n    tag_150:\n      pop\n      0x1f\n      add\n      not(0x1f)\n      and\n      0x20\n      add\n      swap1\n      jump\t// out\n    tag_151:\n      0x00\n      dup3\n      not\n      dup3\n      gt\n      iszero\n      tag_154\n      jumpi\n      tag_154\n      tag_155\n      jump\t// in\n    tag_154:\n      pop\n      add\n      swap1\n      jump\t// out\n    tag_156:\n      0x00\n      dup3\n      tag_158\n      jumpi\n      mstore(0x00, mul(0x4e487b71, exp(0x02, 0xe0)))\n      mstore(0x04, 0x12)\n      revert(0x00, 0x24)\n    tag_158:\n      pop\n      div\n      swap1\n      jump\t// out\n    tag_159:\n      0x00\n      dup2\n      not(0x00)\n      div\n      dup4\n      gt\n      dup3\n      iszero\n      iszero\n      and\n      iszero\n      tag_162\n      jumpi\n      tag_162\n      tag_155\n      jump\t// in\n    tag_162:\n      pop\n      mul\n      swap1\n      jump\t// out\n    tag_163:\n      0x00\n        /* \"@openzeppelin/contracts/security/ReentrancyGuard.sol\":2325:2332  _status */\n      0x01\n        /* \"contracts/fountain.sol\":531:8142  contract Serenity is Ownable, Pausable, ReentrancyGuard {... */\n      dup3\n      lt\n      iszero\n      tag_166\n      jumpi\n      tag_166\n      tag_155\n      jump\t// in\n    tag_166:\n      pop\n      not(0x00)\n      add\n      swap1\n      jump\t// out\n    tag_167:\n      0x00\n      dup3\n      dup3\n      lt\n      iszero\n      tag_170\n      jumpi\n      tag_170\n      tag_155\n      jump\t// in\n    tag_170:\n      pop\n      sub\n      swap1\n      jump\t// out\n        /* \"@openzeppelin/contracts/security/ReentrancyGuard.sol\":1701:1702  1 */\n    tag_173:\n      0x00\n      returndatasize\n      dup1\n      iszero\n      tag_176\n      jumpi\n      returndatasize\n        /* \"contracts/fountain.sol\":531:8142  contract Serenity is Ownable, Pausable, ReentrancyGuard {... */\n      tag_177\n      dup2\n      tag_81\n      jump\t// in\n    tag_177:\n      mload(0x40)\n      tag_178\n      dup3\n      dup3\n      tag_72\n      jump\t// in\n    tag_178:\n      dup3\n      dup2\n      mstore\n        /* \"@openzeppelin/contracts/security/ReentrancyGuard.sol\":1701:1702  1 */\n      dup1\n      swap5\n      pop\n      returndatasize\n      0x00\n      0x20\n      dup4\n      add\n      returndatacopy\n      pop\n      pop\n      pop\n      pop\n      swap1\n      jump\t// out\n    tag_176:\n        /* \"contracts/fountain.sol\":531:8142  contract Serenity is Ownable, Pausable, ReentrancyGuard {... */\n      0x60\n        /* \"@openzeppelin/contracts/security/ReentrancyGuard.sol\":1701:1702  1 */\n      swap2\n      pop\n      pop\n      swap1\n      jump\t// out\n    tag_179:\n        /* \"contracts/fountain.sol\":531:8142  contract Serenity is Ownable, Pausable, ReentrancyGuard {... */\n      0xa0\n        /* \"@openzeppelin/contracts/security/ReentrancyGuard.sol\":1701:1702  1 */\n      dup2\n      add\n      dup2\n      dup2\n      lt\n      0xffffffffffffffff\n      dup3\n      gt\n      or\n      iszero\n      tag_182\n      jumpi\n      tag_182\n      tag_144\n      jump\t// in\n    tag_182:\n      0x40\n      mstore\n      pop\n      jump\t// out\n    tag_72:\n        /* \"contracts/fountain.sol\":531:8142  contract Serenity is Ownable, Pausable, ReentrancyGuard {... */\n      0x1f\n      dup3\n      add\n      not(0x1f)\n      and\n        /* \"@openzeppelin/contracts/security/ReentrancyGuard.sol\":1701:1702  1 */\n      dup2\n      add\n      0xffffffffffffffff\n      dup2\n      gt\n      dup3\n      dup3\n      lt\n      or\n      iszero\n      tag_185\n      jumpi\n      tag_185\n      tag_144\n      jump\t// in\n    tag_185:\n      0x40\n      mstore\n      pop\n      pop\n      jump\t// out\n        /* \"@openzeppelin/contracts/utils/structs/EnumerableSet.sol\":2113:2517  function _add(Set storage set, bytes32 value) private returns (bool) {... */\n    tag_186:\n      0x00\n      dup1\n        /* \"contracts/fountain.sol\":531:8142  contract Serenity is Ownable, Pausable, ReentrancyGuard {... */\n      dup3\n      dup2\n      mstore\n        /* \"@openzeppelin/contracts/utils/structs/EnumerableSet.sol\":4250:4262  set._indexes */\n      0x07\n        /* \"contracts/fountain.sol\":531:8142  contract Serenity is Ownable, Pausable, ReentrancyGuard {... */\n      0x20\n      mstore\n      0x40\n      dup2\n      keccak256\n      sload\n        /* \"@openzeppelin/contracts/utils/structs/EnumerableSet.sol\":4250:4274  set._indexes[value] != 0 */\n      iszero\n        /* \"@openzeppelin/contracts/utils/structs/EnumerableSet.sol\":2192:2511  if (!_contains(set, value)) {... */\n      0x00\n        /* \"contracts/fountain.sol\":531:8142  contract Serenity is Ownable, Pausable, ReentrancyGuard {... */\n      dup2\n      eq\n      tag_189\n      jumpi\n        /* \"contracts/fountain.sol\":7966:7982  charityAddresses */\n      0x06\n        /* \"contracts/fountain.sol\":531:8142  contract Serenity is Ownable, Pausable, ReentrancyGuard {... */\n      sload\n      0x010000000000000000\n      dup2\n      lt\n      tag_191\n      jumpi\n      tag_191\n      tag_144\n      jump\t// in\n    tag_191:\n        /* \"@openzeppelin/contracts/utils/structs/EnumerableSet.sol\":4250:4262  set._indexes */\n      0x01\n        /* \"contracts/fountain.sol\":531:8142  contract Serenity is Ownable, Pausable, ReentrancyGuard {... */\n      dup2\n      add\n      dup1\n        /* \"contracts/fountain.sol\":7966:7982  charityAddresses */\n      0x06\n        /* \"contracts/fountain.sol\":531:8142  contract Serenity is Ownable, Pausable, ReentrancyGuard {... */\n      sstore\n      dup1\n      dup3\n      lt\n      tag_193\n      jumpi\n      tag_193\n      tag_194\n      jump\t// in\n    tag_193:\n      pop\n      0xf652222313e28459528d920b65115c16c04f3efc82aaedc97be59f3f377c0d3f\n      add\n      dup5\n      swap1\n      sstore\n      pop\n        /* \"contracts/fountain.sol\":7966:7982  charityAddresses */\n      0x06\n        /* \"contracts/fountain.sol\":531:8142  contract Serenity is Ownable, Pausable, ReentrancyGuard {... */\n      sload\n      swap3\n      dup2\n      mstore\n        /* \"@openzeppelin/contracts/utils/structs/EnumerableSet.sol\":4250:4262  set._indexes */\n      0x07\n        /* \"contracts/fountain.sol\":531:8142  contract Serenity is Ownable, Pausable, ReentrancyGuard {... */\n      0x20\n      mstore\n      0x40\n      swap1\n      keccak256\n      swap2\n      swap1\n      swap2\n      sstore\n      pop\n        /* \"@openzeppelin/contracts/utils/structs/EnumerableSet.sol\":4250:4262  set._indexes */\n      0x01\n      swap1\n        /* \"@openzeppelin/contracts/utils/structs/EnumerableSet.sol\":2113:2517  function _add(Set storage set, bytes32 value) private returns (bool) {... */\n      jump\t// out\n        /* \"contracts/fountain.sol\":531:8142  contract Serenity is Ownable, Pausable, ReentrancyGuard {... */\n    tag_189:\n      pop\n      swap3\n        /* \"@openzeppelin/contracts/utils/structs/EnumerableSet.sol\":2113:2517  function _add(Set storage set, bytes32 value) private returns (bool) {... */\n      swap2\n      pop\n      pop\n      jump\t// out\n        /* \"@openzeppelin/contracts/access/Ownable.sol\":1359:1489  function _checkOwner() internal view virtual {... */\n    tag_195:\n      sub(exp(0x02, 0xa0), 0x01)\n        /* \"@openzeppelin/contracts/access/Ownable.sol\":1273:1279  _owner */\n      0x00\n        /* \"contracts/fountain.sol\":531:8142  contract Serenity is Ownable, Pausable, ReentrancyGuard {... */\n      sload\n      and\n        /* \"@openzeppelin/contracts/utils/Context.sol\":719:729  msg.sender */\n      caller\n        /* \"contracts/fountain.sol\":531:8142  contract Serenity is Ownable, Pausable, ReentrancyGuard {... */\n      dup2\n        /* \"@openzeppelin/contracts/access/Ownable.sol\":1422:1445  owner() == _msgSender() */\n      eq\n        /* \"contracts/fountain.sol\":531:8142  contract Serenity is Ownable, Pausable, ReentrancyGuard {... */\n      tag_85\n      jumpi\n      mload(0x40)\n      mul(0x461bcd, exp(0x02, 0xe5))\n      dup2\n      mstore\n      0x20\n      0x04\n      dup3\n      add\n      mstore\n      0x20\n      0x24\n      dup3\n      add\n      mstore\n      0x4f776e61626c653a2063616c6c6572206973206e6f7420746865206f776e6572\n      0x44\n      dup3\n      add\n      mstore\n      0x64\n      dup2\n      revert\n        /* \"@openzeppelin/contracts/security/Pausable.sol\":1767:1873  function _requireNotPaused() internal view virtual {... */\n    tag_198:\n        /* \"contracts/fountain.sol\":531:8142  contract Serenity is Ownable, Pausable, ReentrancyGuard {... */\n      0xff\n      0x010000000000000000000000000000000000000000\n        /* \"@openzeppelin/contracts/security/Pausable.sol\":1685:1692  _paused */\n      0x00\n        /* \"contracts/fountain.sol\":531:8142  contract Serenity is Ownable, Pausable, ReentrancyGuard {... */\n      sload\n      div\n      and\n        /* \"@openzeppelin/contracts/security/Pausable.sol\":1836:1845  !paused() */\n      iszero\n        /* \"contracts/fountain.sol\":531:8142  contract Serenity is Ownable, Pausable, ReentrancyGuard {... */\n      tag_200\n      jumpi\n      mload(0x40)\n      mul(0x461bcd, exp(0x02, 0xe5))\n      dup2\n      mstore\n      0x20\n      0x04\n      dup3\n      add\n      mstore\n      0x10\n      0x24\n      dup3\n      add\n      mstore\n      0x5061757361626c653a2070617573656400000000000000000000000000000000\n      0x44\n      dup3\n      add\n      mstore\n      0x64\n      dup2\n      revert\n    tag_200:\n        /* \"@openzeppelin/contracts/security/Pausable.sol\":1767:1873  function _requireNotPaused() internal view virtual {... */\n      jump\t// out\n        /* \"contracts/fountain.sol\":7622:8009  function registerCharity(string memory charityName, address charityAddress) public {... */\n    tag_41:\n        /* \"contracts/fountain.sol\":531:8142  contract Serenity is Ownable, Pausable, ReentrancyGuard {... */\n      mload(0x40)\n      tag_203\n      dup2\n      dup4\n      tag_125\n      jump\t// in\n    tag_203:\n        /* \"contracts/fountain.sol\":7723:7732  charities */\n      0x04\n        /* \"contracts/fountain.sol\":531:8142  contract Serenity is Ownable, Pausable, ReentrancyGuard {... */\n      dup2\n      mstore\n      sub(exp(0x02, 0xa0), 0x01)\n      dup1\n      0x20\n      dup5\n      dup5\n      sub\n      add\n      dup5\n      keccak256\n      sload\n      and\n        /* \"contracts/fountain.sol\":7723:7761  charities[charityName] == address(0x0) */\n      iszero\n        /* \"contracts/fountain.sol\":531:8142  contract Serenity is Ownable, Pausable, ReentrancyGuard {... */\n      tag_204\n      jumpi\n      mload(0x40)\n      mul(0x461bcd, exp(0x02, 0xe5))\n      dup2\n      mstore\n      0x20\n        /* \"contracts/fountain.sol\":7723:7732  charities */\n      0x04\n        /* \"contracts/fountain.sol\":531:8142  contract Serenity is Ownable, Pausable, ReentrancyGuard {... */\n      dup3\n      add\n      mstore\n      0x20\n      0x24\n      dup3\n      add\n      mstore\n      0x43686172697479206e616d6520616c726561647920726567697374657265642e\n      0x44\n      dup3\n      add\n      mstore\n      0x64\n      dup2\n      revert\n    tag_204:\n      dup5\n      and\n      0x00\n      dup2\n      dup2\n      mstore\n        /* \"contracts/fountain.sol\":7822:7838  charitiesReverse */\n      0x05\n        /* \"contracts/fountain.sol\":531:8142  contract Serenity is Ownable, Pausable, ReentrancyGuard {... */\n      0x20\n      mstore\n      0x40\n      swap1\n      keccak256\n      sload\n      swap1\n      swap3\n      pop\n        /* \"@openzeppelin/contracts/security/ReentrancyGuard.sol\":1701:1702  1 */\n      0x01\n      dup2\n      and\n      swap2\n      pop\n      0x02\n      swap1\n      div\n      dup2\n      tag_205\n      jumpi\n      0x7f\n      and\n    tag_205:\n        /* \"contracts/fountain.sol\":531:8142  contract Serenity is Ownable, Pausable, ReentrancyGuard {... */\n      0x20\n        /* \"@openzeppelin/contracts/security/ReentrancyGuard.sol\":1701:1702  1 */\n      dup2\n      lt\n      dup3\n      eq\n      iszero\n      tag_206\n      jumpi\n      mul(0x4e487b71, exp(0x02, 0xe0))\n      0x00\n        /* \"contracts/fountain.sol\":531:8142  contract Serenity is Ownable, Pausable, ReentrancyGuard {... */\n      mstore\n      0x22\n        /* \"contracts/fountain.sol\":7723:7732  charities */\n      0x04\n        /* \"contracts/fountain.sol\":531:8142  contract Serenity is Ownable, Pausable, ReentrancyGuard {... */\n      mstore\n      revert(0x00, 0x24)\n        /* \"@openzeppelin/contracts/security/ReentrancyGuard.sol\":1701:1702  1 */\n    tag_206:\n        /* \"contracts/fountain.sol\":7808:7907  require(bytes(charitiesReverse[charityAddress]).length == 0, \"Charity address already registered.\") */\n      tag_207\n        /* \"contracts/fountain.sol\":7816:7862  bytes(charitiesReverse[charityAddress]).length */\n      dup2\n        /* \"contracts/fountain.sol\":7816:7867  bytes(charitiesReverse[charityAddress]).length == 0 */\n      iszero\n        /* \"contracts/fountain.sol\":7808:7907  require(bytes(charitiesReverse[charityAddress]).length == 0, \"Charity address already registered.\") */\n      tag_208\n      jump\t// in\n    tag_207:\n      pop\n      pop\n        /* \"contracts/fountain.sol\":7917:7956  charities[charityName] = charityAddress */\n      tag_209\n      dup4\n        /* \"contracts/fountain.sol\":531:8142  contract Serenity is Ownable, Pausable, ReentrancyGuard {... */\n      tag_210\n        /* \"contracts/fountain.sol\":7917:7939  charities[charityName] */\n      dup5\n        /* \"contracts/fountain.sol\":531:8142  contract Serenity is Ownable, Pausable, ReentrancyGuard {... */\n      tag_211\n      jump\t// in\n    tag_210:\n      sub(exp(0x02, 0xa0), 0x01)\n      dup3\n      and\n      not(sub(exp(0x02, 0xa0), 0x01))\n      dup3\n      sload\n      and\n      or\n      dup2\n      sstore\n      pop\n      pop\n      jump\n        /* \"contracts/fountain.sol\":7917:7956  charities[charityName] = charityAddress */\n    tag_209:\n        /* \"@openzeppelin/contracts/utils/structs/EnumerableSet.sol\":8121:8171  _add(set._inner, bytes32(uint256(uint160(value)))) */\n      tag_213\n        /* \"contracts/fountain.sol\":531:8142  contract Serenity is Ownable, Pausable, ReentrancyGuard {... */\n      dup2\n        /* \"@openzeppelin/contracts/utils/structs/EnumerableSet.sol\":8121:8171  _add(set._inner, bytes32(uint256(uint160(value)))) */\n      tag_186\n      jump\t// in\n    tag_213:\n      pop\n      pop\n        /* \"contracts/fountain.sol\":7622:8009  function registerCharity(string memory charityName, address charityAddress) public {... */\n      pop\n      pop\n      jump\t// out\n        /* \"@uniswap/v3-periphery/contracts/libraries/TransferHelper.sol\":1873:2180  function safeApprove(... */\n    tag_214:\n        /* \"contracts/fountain.sol\":531:8142  contract Serenity is Ownable, Pausable, ReentrancyGuard {... */\n      mload(0x40)\n        /* \"@uniswap/v3-periphery/contracts/libraries/TransferHelper.sol\":2055:2078  IERC20.approve.selector */\n      0x095ea7b300000000000000000000000000000000000000000000000000000000\n        /* \"@uniswap/v3-periphery/contracts/libraries/TransferHelper.sol\":2032:2090  abi.encodeWithSelector(IERC20.approve.selector, to, value) */\n      0x20\n      dup3\n      add\n      swap1\n      dup2\n      mstore\n      sub(exp(0x02, 0xa0), 0x01)\n        /* \"contracts/fountain.sol\":531:8142  contract Serenity is Ownable, Pausable, ReentrancyGuard {... */\n      dup5\n      and\n        /* \"@uniswap/v3-periphery/contracts/libraries/TransferHelper.sol\":2032:2090  abi.encodeWithSelector(IERC20.approve.selector, to, value) */\n      0x24\n      dup4\n      add\n        /* \"contracts/fountain.sol\":531:8142  contract Serenity is Ownable, Pausable, ReentrancyGuard {... */\n      mstore\n      0x44\n      dup1\n      dup4\n      add\n      dup7\n      swap1\n      mstore\n        /* \"@uniswap/v3-periphery/contracts/libraries/TransferHelper.sol\":2032:2090  abi.encodeWithSelector(IERC20.approve.selector, to, value) */\n      dup3\n      mstore\n        /* \"contracts/fountain.sol\":531:8142  contract Serenity is Ownable, Pausable, ReentrancyGuard {... */\n      0x64\n        /* \"@uniswap/v3-periphery/contracts/libraries/TransferHelper.sol\":2032:2090  abi.encodeWithSelector(IERC20.approve.selector, to, value) */\n      tag_217\n        /* \"contracts/fountain.sol\":531:8142  contract Serenity is Ownable, Pausable, ReentrancyGuard {... */\n      dup2\n      dup5\n        /* \"@uniswap/v3-periphery/contracts/libraries/TransferHelper.sol\":2032:2090  abi.encodeWithSelector(IERC20.approve.selector, to, value) */\n      tag_72\n      jump\t// in\n    tag_217:\n      pop\n        /* \"@uniswap/v3-periphery/contracts/libraries/TransferHelper.sol\":2021:2091  token.call(abi.encodeWithSelector(IERC20.approve.selector, to, value)) */\n      0x00\n      dup1\n      dup4\n      mload\n      dup4\n      0x00\n      dup8\n      gas\n      call\n      swap2\n      pop\n      pop\n      tag_218\n      tag_173\n      jump\t// in\n    tag_218:\n        /* \"@uniswap/v3-periphery/contracts/libraries/TransferHelper.sol\":2109:2166  success && (data.length == 0 || abi.decode(data, (bool))) */\n      dup2\n      dup3\n      iszero\n      tag_219\n      jumpi\n        /* \"@uniswap/v3-periphery/contracts/libraries/TransferHelper.sol\":2121:2132  data.length */\n      dup2\n        /* \"contracts/fountain.sol\":531:8142  contract Serenity is Ownable, Pausable, ReentrancyGuard {... */\n      mload\n        /* \"@uniswap/v3-periphery/contracts/libraries/TransferHelper.sol\":2121:2137  data.length == 0 */\n      dup1\n      iszero\n        /* \"@uniswap/v3-periphery/contracts/libraries/TransferHelper.sol\":2121:2165  data.length == 0 || abi.decode(data, (bool)) */\n      dup1\n      tag_220\n      jumpi\n        /* \"@uniswap/v3-periphery/contracts/libraries/TransferHelper.sol\":2141:2165  abi.decode(data, (bool)) */\n      tag_221\n        /* \"@uniswap/v3-periphery/contracts/libraries/TransferHelper.sol\":2032:2090  abi.encodeWithSelector(IERC20.approve.selector, to, value) */\n      0x20\n        /* \"@uniswap/v3-periphery/contracts/libraries/TransferHelper.sol\":2141:2165  abi.decode(data, (bool)) */\n      dup4\n      dup7\n      add\n      add\n        /* \"@uniswap/v3-periphery/contracts/libraries/TransferHelper.sol\":2032:2090  abi.encodeWithSelector(IERC20.approve.selector, to, value) */\n      0x20\n        /* \"@uniswap/v3-periphery/contracts/libraries/TransferHelper.sol\":2141:2165  abi.decode(data, (bool)) */\n      dup7\n      add\n      tag_113\n      jump\t// in\n    tag_221:\n        /* \"@uniswap/v3-periphery/contracts/libraries/TransferHelper.sol\":2121:2165  data.length == 0 || abi.decode(data, (bool)) */\n      swap1\n      pop\n    tag_220:\n        /* \"@uniswap/v3-periphery/contracts/libraries/TransferHelper.sol\":2109:2166  success && (data.length == 0 || abi.decode(data, (bool))) */\n      swap2\n      pop\n      pop\n    tag_219:\n        /* \"contracts/fountain.sol\":531:8142  contract Serenity is Ownable, Pausable, ReentrancyGuard {... */\n      dup1\n      tag_222\n      jumpi\n      mload(0x40)\n      swap3\n      pop\n      mul(0x461bcd, exp(0x02, 0xe5))\n      dup4\n      mstore\n        /* \"@uniswap/v3-periphery/contracts/libraries/TransferHelper.sol\":2032:2090  abi.encodeWithSelector(IERC20.approve.selector, to, value) */\n      0x20\n        /* \"contracts/fountain.sol\":531:8142  contract Serenity is Ownable, Pausable, ReentrancyGuard {... */\n      0x04\n      dup5\n      add\n      mstore\n      0x02\n        /* \"@uniswap/v3-periphery/contracts/libraries/TransferHelper.sol\":2032:2090  abi.encodeWithSelector(IERC20.approve.selector, to, value) */\n      0x24\n        /* \"contracts/fountain.sol\":531:8142  contract Serenity is Ownable, Pausable, ReentrancyGuard {... */\n      dup5\n      add\n      mstore\n      0x5341000000000000000000000000000000000000000000000000000000000000\n      0x44\n      dup5\n      add\n      mstore\n      0x64\n      dup4\n      revert\n    tag_222:\n      pop\n      pop\n      pop\n        /* \"@uniswap/v3-periphery/contracts/libraries/TransferHelper.sol\":1873:2180  function safeApprove(... */\n      pop\n      pop\n      pop\n      jump\t// out\n        /* \"@uniswap/v3-periphery/contracts/libraries/TransferHelper.sol\":561:919  function safeTransferFrom(... */\n    tag_223:\n        /* \"contracts/fountain.sol\":531:8142  contract Serenity is Ownable, Pausable, ReentrancyGuard {... */\n      mload(0x40)\n        /* \"@uniswap/v3-periphery/contracts/libraries/TransferHelper.sol\":759:828  abi.encodeWithSelector(IERC20.transferFrom.selector, from, to, value) */\n      0x20\n      dup2\n      add\n        /* \"@uniswap/v3-periphery/contracts/libraries/TransferHelper.sol\":782:810  IERC20.transferFrom.selector */\n      0x23b872dd00000000000000000000000000000000000000000000000000000000\n        /* \"@uniswap/v3-periphery/contracts/libraries/TransferHelper.sol\":759:828  abi.encodeWithSelector(IERC20.transferFrom.selector, from, to, value) */\n      dup2\n      mstore\n      sub(exp(0x02, 0xa0), 0x01)\n        /* \"contracts/fountain.sol\":531:8142  contract Serenity is Ownable, Pausable, ReentrancyGuard {... */\n      dup1\n      dup6\n      and\n        /* \"@uniswap/v3-periphery/contracts/libraries/TransferHelper.sol\":759:828  abi.encodeWithSelector(IERC20.transferFrom.selector, from, to, value) */\n      0x24\n      dup5\n      add\n        /* \"contracts/fountain.sol\":531:8142  contract Serenity is Ownable, Pausable, ReentrancyGuard {... */\n      mstore\n      dup1\n      dup7\n      and\n      0x44\n        /* \"@uniswap/v3-periphery/contracts/libraries/TransferHelper.sol\":759:828  abi.encodeWithSelector(IERC20.transferFrom.selector, from, to, value) */\n      dup5\n        /* \"contracts/fountain.sol\":531:8142  contract Serenity is Ownable, Pausable, ReentrancyGuard {... */\n      add\n      mstore\n      pop\n      dup6\n      0x64\n        /* \"@uniswap/v3-periphery/contracts/libraries/TransferHelper.sol\":759:828  abi.encodeWithSelector(IERC20.transferFrom.selector, from, to, value) */\n      dup4\n        /* \"contracts/fountain.sol\":531:8142  contract Serenity is Ownable, Pausable, ReentrancyGuard {... */\n      add\n      mstore\n      0x64\n        /* \"@uniswap/v3-periphery/contracts/libraries/TransferHelper.sol\":759:828  abi.encodeWithSelector(IERC20.transferFrom.selector, from, to, value) */\n      dup3\n      mstore\n      tag_225\n      dup3\n      tag_179\n      jump\t// in\n    tag_225:\n      0x00\n      dup1\n        /* \"@uniswap/v3-periphery/contracts/libraries/TransferHelper.sol\":748:829  token.call(abi.encodeWithSelector(IERC20.transferFrom.selector, from, to, value)) */\n      dup4\n      mload\n      dup4\n      0x00\n      dup8\n      gas\n      call\n      swap2\n      pop\n      pop\n      tag_226\n      tag_173\n      jump\t// in\n    tag_226:\n        /* \"@uniswap/v3-periphery/contracts/libraries/TransferHelper.sol\":847:904  success && (data.length == 0 || abi.decode(data, (bool))) */\n      dup2\n      dup3\n      iszero\n      tag_227\n      jumpi\n        /* \"@uniswap/v3-periphery/contracts/libraries/TransferHelper.sol\":859:870  data.length */\n      dup2\n        /* \"contracts/fountain.sol\":531:8142  contract Serenity is Ownable, Pausable, ReentrancyGuard {... */\n      mload\n        /* \"@uniswap/v3-periphery/contracts/libraries/TransferHelper.sol\":859:875  data.length == 0 */\n      dup1\n      iszero\n        /* \"@uniswap/v3-periphery/contracts/libraries/TransferHelper.sol\":859:903  data.length == 0 || abi.decode(data, (bool)) */\n      dup1\n      tag_228\n      jumpi\n        /* \"@uniswap/v3-periphery/contracts/libraries/TransferHelper.sol\":879:903  abi.decode(data, (bool)) */\n      tag_229\n        /* \"@uniswap/v3-periphery/contracts/libraries/TransferHelper.sol\":759:828  abi.encodeWithSelector(IERC20.transferFrom.selector, from, to, value) */\n      0x20\n        /* \"@uniswap/v3-periphery/contracts/libraries/TransferHelper.sol\":879:903  abi.decode(data, (bool)) */\n      dup4\n      dup7\n      add\n      add\n        /* \"@uniswap/v3-periphery/contracts/libraries/TransferHelper.sol\":759:828  abi.encodeWithSelector(IERC20.transferFrom.selector, from, to, value) */\n      0x20\n        /* \"@uniswap/v3-periphery/contracts/libraries/TransferHelper.sol\":879:903  abi.decode(data, (bool)) */\n      dup7\n      add\n      tag_113\n      jump\t// in\n    tag_229:\n        /* \"@uniswap/v3-periphery/contracts/libraries/TransferHelper.sol\":859:903  data.length == 0 || abi.decode(data, (bool)) */\n      swap1\n      pop\n    tag_228:\n        /* \"@uniswap/v3-periphery/contracts/libraries/TransferHelper.sol\":847:904  success && (data.length == 0 || abi.decode(data, (bool))) */\n      swap2\n      pop\n      pop\n    tag_227:\n        /* \"contracts/fountain.sol\":531:8142  contract Serenity is Ownable, Pausable, ReentrancyGuard {... */\n      dup1\n      tag_230\n      jumpi\n      mload(0x40)\n      swap3\n      pop\n      mul(0x461bcd, exp(0x02, 0xe5))\n      dup4\n      mstore\n        /* \"@uniswap/v3-periphery/contracts/libraries/TransferHelper.sol\":759:828  abi.encodeWithSelector(IERC20.transferFrom.selector, from, to, value) */\n      0x20\n        /* \"contracts/fountain.sol\":531:8142  contract Serenity is Ownable, Pausable, ReentrancyGuard {... */\n      0x04\n      dup5\n      add\n      mstore\n      0x03\n        /* \"@uniswap/v3-periphery/contracts/libraries/TransferHelper.sol\":759:828  abi.encodeWithSelector(IERC20.transferFrom.selector, from, to, value) */\n      0x24\n        /* \"contracts/fountain.sol\":531:8142  contract Serenity is Ownable, Pausable, ReentrancyGuard {... */\n      dup5\n      add\n      mstore\n      0x5354460000000000000000000000000000000000000000000000000000000000\n      0x44\n      dup5\n      add\n      mstore\n      0x64\n      dup4\n      revert\n    tag_230:\n      pop\n      pop\n      pop\n        /* \"@uniswap/v3-periphery/contracts/libraries/TransferHelper.sol\":561:919  function safeTransferFrom(... */\n      pop\n      pop\n      pop\n      pop\n      jump\t// out\n        /* \"contracts/fountain.sol\":531:8142  contract Serenity is Ownable, Pausable, ReentrancyGuard {... */\n    tag_231:\n      0x00\n      0xff\n      dup3\n      and\n      0xff\n      dup2\n      eq\n      iszero\n      tag_234\n      jumpi\n      tag_234\n      tag_155\n      jump\t// in\n    tag_234:\n      0x01\n      add\n      swap3\n      swap2\n      pop\n      pop\n      jump\t// out\n    tag_237:\n      0x00\n      dup2\n      mload\n      dup4\n      lt\n      tag_240\n      jumpi\n      tag_240\n      tag_194\n      jump\t// in\n    tag_240:\n      pop\n      0x20\n      swap2\n      dup3\n      mul\n      add\n      add\n      swap1\n      jump\t// out\n        /* \"@openzeppelin/contracts/access/Ownable.sol\":1063:1125  modifier onlyOwner() {... */\n    tag_31:\n      tag_242\n      tag_195\n      jump\t// in\n    tag_242:\n        /* \"contracts/fountain.sol\":531:8142  contract Serenity is Ownable, Pausable, ReentrancyGuard {... */\n      sload(0x00)\n      not(sub(exp(0x02, 0xa0), 0x01))\n      dup2\n      and\n      0x00\n      sstore\n      0x00\n      sub(exp(0x02, 0xa0), 0x01)\n      dup3\n      and\n        /* \"@openzeppelin/contracts/access/Ownable.sol\":2573:2613  OwnershipTransferred(oldOwner, newOwner) */\n      0x8be0079c531659141344cd1fd0a4f28419497f9722a3daafe3b4186f6b6457e0\n        /* \"contracts/fountain.sol\":531:8142  contract Serenity is Ownable, Pausable, ReentrancyGuard {... */\n      0x00\n      mload(0x40)\n        /* \"@openzeppelin/contracts/access/Ownable.sol\":2573:2613  OwnershipTransferred(oldOwner, newOwner) */\n      log3\n      pop\n        /* \"@openzeppelin/contracts/access/Ownable.sol\":1063:1125  modifier onlyOwner() {... */\n      jump\t// out\n    tag_55:\n      tag_244\n      tag_195\n      jump\t// in\n    tag_244:\n      sub(exp(0x02, 0xa0), 0x01)\n        /* \"contracts/fountain.sol\":531:8142  contract Serenity is Ownable, Pausable, ReentrancyGuard {... */\n      dup1\n        /* \"@openzeppelin/contracts/access/Ownable.sol\":2169:2191  newOwner != address(0) */\n      dup3\n        /* \"contracts/fountain.sol\":531:8142  contract Serenity is Ownable, Pausable, ReentrancyGuard {... */\n      and\n      dup1\n      tag_245\n      jumpi\n      mload(0x40)\n      mul(0x461bcd, exp(0x02, 0xe5))\n      dup2\n      mstore\n      0x20\n      0x04\n      dup3\n      add\n      mstore\n      0x26\n      0x24\n      dup3\n      add\n      mstore\n      0x4f776e61626c653a206e6577206f776e657220697320746865207a65726f2061\n      0x44\n      dup3\n      add\n      mstore\n      0x6464726573730000000000000000000000000000000000000000000000000000\n      0x64\n      dup3\n      add\n      mstore\n      0x84\n      dup2\n      revert\n    tag_245:\n        /* \"@openzeppelin/contracts/access/Ownable.sol\":2525:2531  _owner */\n      0x00\n        /* \"contracts/fountain.sol\":531:8142  contract Serenity is Ownable, Pausable, ReentrancyGuard {... */\n      sload\n      dup2\n      not(sub(exp(0x02, 0xa0), 0x01))\n      dup3\n      and\n      or\n        /* \"@openzeppelin/contracts/access/Ownable.sol\":2525:2531  _owner */\n      0x00\n        /* \"contracts/fountain.sol\":531:8142  contract Serenity is Ownable, Pausable, ReentrancyGuard {... */\n      sstore\n        /* \"@openzeppelin/contracts/access/Ownable.sol\":2573:2613  OwnershipTransferred(oldOwner, newOwner) */\n      dup4\n        /* \"contracts/fountain.sol\":531:8142  contract Serenity is Ownable, Pausable, ReentrancyGuard {... */\n      dup4\n      dup3\n      and\n        /* \"@openzeppelin/contracts/access/Ownable.sol\":2573:2613  OwnershipTransferred(oldOwner, newOwner) */\n      0x8be0079c531659141344cd1fd0a4f28419497f9722a3daafe3b4186f6b6457e0\n        /* \"@openzeppelin/contracts/access/Ownable.sol\":2525:2531  _owner */\n      0x00\n        /* \"contracts/fountain.sol\":531:8142  contract Serenity is Ownable, Pausable, ReentrancyGuard {... */\n      mload(0x40)\n        /* \"@openzeppelin/contracts/access/Ownable.sol\":2573:2613  OwnershipTransferred(oldOwner, newOwner) */\n      log3\n      pop\n      pop\n      pop\n        /* \"@openzeppelin/contracts/access/Ownable.sol\":1063:1125  modifier onlyOwner() {... */\n      pop\n      jump\t// out\n        /* \"@openzeppelin/contracts/security/Pausable.sol\":1204:1276  modifier whenNotPaused() {... */\n    tag_18:\n      tag_247\n      tag_198\n      jump\t// in\n    tag_247:\n        /* \"@openzeppelin/contracts/security/ReentrancyGuard.sol\":1744:1745  2 */\n      0x02\n        /* \"@openzeppelin/contracts/security/ReentrancyGuard.sol\":2317:2380  require(_status != _ENTERED, \"ReentrancyGuard: reentrant call\") */\n      tag_248\n        /* \"@openzeppelin/contracts/security/ReentrancyGuard.sol\":1744:1745  2 */\n      dup2\n        /* \"@openzeppelin/contracts/security/ReentrancyGuard.sol\":2325:2332  _status */\n      0x01\n        /* \"contracts/fountain.sol\":531:8142  contract Serenity is Ownable, Pausable, ReentrancyGuard {... */\n      sload\n        /* \"@openzeppelin/contracts/security/ReentrancyGuard.sol\":2325:2344  _status != _ENTERED */\n      eq\n      iszero\n        /* \"@openzeppelin/contracts/security/ReentrancyGuard.sol\":2317:2380  require(_status != _ENTERED, \"ReentrancyGuard: reentrant call\") */\n      tag_249\n      jump\t// in\n    tag_248:\n        /* \"@openzeppelin/contracts/security/ReentrancyGuard.sol\":1744:1745  2 */\n      dup1\n        /* \"@openzeppelin/contracts/security/ReentrancyGuard.sol\":2325:2332  _status */\n      0x01\n        /* \"contracts/fountain.sol\":531:8142  contract Serenity is Ownable, Pausable, ReentrancyGuard {... */\n      sstore\n        /* \"contracts/fountain.sol\":2787:2800  totalAmountIn */\n      tag_250\n      dup5\n        /* \"contracts/fountain.sol\":2780:2784  this */\n      address\n        /* \"contracts/fountain.sol\":2760:2770  msg.sender */\n      caller\n        /* \"contracts/fountain.sol\":2787:2800  totalAmountIn */\n      dup7\n      tag_223\n      jump\t// in\n    tag_250:\n      sub(exp(0x02, 0xa0), 0x01)\n        /* \"contracts/fountain.sol\":531:8142  contract Serenity is Ownable, Pausable, ReentrancyGuard {... */\n      dup1\n        /* \"contracts/fountain.sol\":2932:2942  swapRouter */\n      immutable(\"0xa89dab98646eeeb3665d545d51c6146ef2fb7643427936d0df6806075707fbb6\")\n        /* \"contracts/fountain.sol\":531:8142  contract Serenity is Ownable, Pausable, ReentrancyGuard {... */\n      and\n        /* \"contracts/fountain.sol\":2945:2958  totalAmountIn */\n      tag_251\n      dup7\n      dup3\n      dup8\n      tag_214\n      jump\t// in\n    tag_251:\n        /* \"contracts/fountain.sol\":531:8142  contract Serenity is Ownable, Pausable, ReentrancyGuard {... */\n      dup2\n        /* \"contracts/fountain.sol\":3219:3224  WETH9 */\n      immutable(\"0x34098433846a9bd0a86140a033abb24fa6dec3400ab42534fa886dfeed6a6087\")\n        /* \"contracts/fountain.sol\":531:8142  contract Serenity is Ownable, Pausable, ReentrancyGuard {... */\n      and\n        /* \"@openzeppelin/contracts/security/ReentrancyGuard.sol\":1744:1745  2 */\n      dup4\n        /* \"contracts/fountain.sol\":531:8142  contract Serenity is Ownable, Pausable, ReentrancyGuard {... */\n      sload\n      tag_252\n      tag_140\n      jump\t// in\n    tag_252:\n      sub(exp(0x02, 0xa0), 0x01)\n      dup9\n      and\n      dup2\n      mstore\n      sub(exp(0x02, 0xa0), 0x01)\n      dup4\n      and\n        /* \"contracts/fountain.sol\":3113:3747  ISwapRouter.ExactOutputSingleParams({... */\n      0x20\n      dup3\n      add\n        /* \"contracts/fountain.sol\":531:8142  contract Serenity is Ownable, Pausable, ReentrancyGuard {... */\n      mstore\n      0xffffff\n      dup13\n      and\n        /* \"contracts/fountain.sol\":3113:3747  ISwapRouter.ExactOutputSingleParams({... */\n      0x40\n      dup3\n      dup2\n      add\n        /* \"contracts/fountain.sol\":531:8142  contract Serenity is Ownable, Pausable, ReentrancyGuard {... */\n      swap2\n      swap1\n      swap2\n      mstore\n        /* \"contracts/fountain.sol\":2780:2784  this */\n      address\n        /* \"contracts/fountain.sol\":3113:3747  ISwapRouter.ExactOutputSingleParams({... */\n      0x60\n      dup4\n      add\n        /* \"contracts/fountain.sol\":531:8142  contract Serenity is Ownable, Pausable, ReentrancyGuard {... */\n      mstore\n      dup11\n        /* \"contracts/fountain.sol\":3113:3747  ISwapRouter.ExactOutputSingleParams({... */\n      0x80\n      dup4\n      add\n        /* \"contracts/fountain.sol\":531:8142  contract Serenity is Ownable, Pausable, ReentrancyGuard {... */\n      mstore\n      dup3\n        /* \"contracts/fountain.sol\":3113:3747  ISwapRouter.ExactOutputSingleParams({... */\n      0xa0\n      dup4\n      add\n        /* \"contracts/fountain.sol\":531:8142  contract Serenity is Ownable, Pausable, ReentrancyGuard {... */\n      mstore\n      dup12\n        /* \"contracts/fountain.sol\":3113:3747  ISwapRouter.ExactOutputSingleParams({... */\n      0xc0\n      dup4\n      add\n        /* \"contracts/fountain.sol\":531:8142  contract Serenity is Ownable, Pausable, ReentrancyGuard {... */\n      mstore\n      0x00\n      swap3\n      pop\n      dup3\n        /* \"contracts/fountain.sol\":3113:3747  ISwapRouter.ExactOutputSingleParams({... */\n      0xe0\n      dup4\n      add\n        /* \"contracts/fountain.sol\":531:8142  contract Serenity is Ownable, Pausable, ReentrancyGuard {... */\n      mstore\n        /* \"contracts/fountain.sol\":3906:3949  swapRouter.exactOutputSingle(ethSwapParams) */\n      dup5\n      extcodesize\n      tag_259\n      jumpi\n        /* \"contracts/fountain.sol\":531:8142  contract Serenity is Ownable, Pausable, ReentrancyGuard {... */\n      dup3\n      dup4\n      revert\n        /* \"contracts/fountain.sol\":3906:3949  swapRouter.exactOutputSingle(ethSwapParams) */\n    tag_259:\n        /* \"contracts/fountain.sol\":3113:3747  ISwapRouter.ExactOutputSingleParams({... */\n      dup1\n        /* \"contracts/fountain.sol\":531:8142  contract Serenity is Ownable, Pausable, ReentrancyGuard {... */\n      mload\n      0xdb3e219800000000000000000000000000000000000000000000000000000000\n        /* \"contracts/fountain.sol\":3906:3949  swapRouter.exactOutputSingle(ethSwapParams) */\n      dup2\n      mstore\n        /* \"contracts/fountain.sol\":3113:3747  ISwapRouter.ExactOutputSingleParams({... */\n      0x20\n        /* \"contracts/fountain.sol\":3906:3949  swapRouter.exactOutputSingle(ethSwapParams) */\n      dup2\n      dup3\n      tag_260\n      dup7\n      0x04\n      dup7\n      add\n      tag_135\n      jump\t// in\n    tag_260:\n      sub\n      dup4\n        /* \"contracts/fountain.sol\":531:8142  contract Serenity is Ownable, Pausable, ReentrancyGuard {... */\n      dup8\n        /* \"contracts/fountain.sol\":3906:3949  swapRouter.exactOutputSingle(ethSwapParams) */\n      dup11\n      gas\n      call\n      swap3\n      pop\n      dup3\n      tag_262\n      jumpi\n      tag_262\n      tag_263\n      jump\t// in\n    tag_262:\n        /* \"contracts/fountain.sol\":531:8142  contract Serenity is Ownable, Pausable, ReentrancyGuard {... */\n      dup4\n        /* \"contracts/fountain.sol\":3906:3949  swapRouter.exactOutputSingle(ethSwapParams) */\n      dup4\n      iszero\n      tag_264\n      jumpi\n      tag_265\n      returndatasize\n      dup4\n      tag_72\n      jump\t// in\n    tag_265:\n      tag_266\n      returndatasize\n      dup4\n      add\n      dup4\n      tag_122\n      jump\t// in\n    tag_266:\n      swap1\n      pop\n    tag_264:\n        /* \"@openzeppelin/contracts/security/ReentrancyGuard.sol\":1744:1745  2 */\n      dup9\n        /* \"contracts/fountain.sol\":531:8142  contract Serenity is Ownable, Pausable, ReentrancyGuard {... */\n      sload\n      swap4\n      pop\n        /* \"contracts/fountain.sol\":3984:4023  WETH9.withdraw(ephemeralGasMoneyAmount) */\n      dup6\n      extcodesize\n      tag_267\n      jumpi\n        /* \"contracts/fountain.sol\":531:8142  contract Serenity is Ownable, Pausable, ReentrancyGuard {... */\n      dup5\n      dup6\n      revert\n        /* \"contracts/fountain.sol\":3984:4023  WETH9.withdraw(ephemeralGasMoneyAmount) */\n    tag_267:\n        /* \"contracts/fountain.sol\":531:8142  contract Serenity is Ownable, Pausable, ReentrancyGuard {... */\n      dup3\n      mload\n      0x2e1a7d4d00000000000000000000000000000000000000000000000000000000\n        /* \"contracts/fountain.sol\":3984:4023  WETH9.withdraw(ephemeralGasMoneyAmount) */\n      dup2\n      mstore\n        /* \"contracts/fountain.sol\":3906:3949  swapRouter.exactOutputSingle(ethSwapParams) */\n      0x04\n        /* \"contracts/fountain.sol\":3984:4023  WETH9.withdraw(ephemeralGasMoneyAmount) */\n      dup2\n      add\n        /* \"contracts/fountain.sol\":531:8142  contract Serenity is Ownable, Pausable, ReentrancyGuard {... */\n      dup6\n      swap1\n      mstore\n      swap2\n      pop\n      dup5\n      dup3\n      0x24\n      dup2\n      dup4\n        /* \"contracts/fountain.sol\":3984:4023  WETH9.withdraw(ephemeralGasMoneyAmount) */\n      dup11\n      gas\n      call\n      swap6\n      pop\n      dup6\n      tag_270\n      jumpi\n      tag_270\n      tag_263\n      jump\t// in\n    tag_270:\n      dup6\n      iszero\n      tag_273\n      jumpi\n      tag_272\n      returndatasize\n      dup4\n      tag_72\n      jump\t// in\n    tag_272:\n      tag_273\n      returndatasize\n      dup4\n      add\n      dup4\n      tag_86\n      jump\t// in\n    tag_273:\n        /* \"@openzeppelin/contracts/security/ReentrancyGuard.sol\":1744:1745  2 */\n      dup9\n        /* \"contracts/fountain.sol\":531:8142  contract Serenity is Ownable, Pausable, ReentrancyGuard {... */\n      sload\n      swap6\n      pop\n      dup5\n      dup6\n      dup7\n        /* \"contracts/fountain.sol\":3113:3747  ISwapRouter.ExactOutputSingleParams({... */\n      dup6\n        /* \"contracts/fountain.sol\":531:8142  contract Serenity is Ownable, Pausable, ReentrancyGuard {... */\n      mload\n        /* \"contracts/fountain.sol\":4125:4197  payable(ephemeralWalletAddress).call{value: ephemeralGasMoneyAmount}(\"\") */\n      dup10\n        /* \"contracts/fountain.sol\":531:8142  contract Serenity is Ownable, Pausable, ReentrancyGuard {... */\n      dup13\n        /* \"contracts/fountain.sol\":4125:4156  payable(ephemeralWalletAddress) */\n      dup16\n        /* \"contracts/fountain.sol\":531:8142  contract Serenity is Ownable, Pausable, ReentrancyGuard {... */\n      and\n        /* \"contracts/fountain.sol\":4125:4197  payable(ephemeralWalletAddress).call{value: ephemeralGasMoneyAmount}(\"\") */\n      gas\n      call\n      swap6\n      pop\n      tag_274\n      tag_173\n      jump\t// in\n    tag_274:\n      pop\n        /* \"contracts/fountain.sol\":4207:4275  require(ephemeralGasSent, \"Failed to send gas to ephemeral wallet.\") */\n      tag_275\n      dup7\n      tag_276\n      jump\t// in\n    tag_275:\n        /* \"contracts/fountain.sol\":4378:4419  totalAmountIn - tokenAmountSpentOnEthSwap */\n      tag_277\n      dup2\n      dup14\n      tag_167\n      jump\t// in\n    tag_277:\n      swap6\n      pop\n      pop\n      pop\n        /* \"contracts/fountain.sol\":531:8142  contract Serenity is Ownable, Pausable, ReentrancyGuard {... */\n      tag_278\n      tag_140\n      jump\t// in\n    tag_278:\n      sub(exp(0x02, 0xa0), 0x01)\n      dup11\n      and\n      dup2\n      mstore\n        /* \"contracts/fountain.sol\":4566:5200  ISwapRouter.ExactInputSingleParams({... */\n      swap2\n      pop\n      sub(exp(0x02, 0xa0), 0x01)\n        /* \"contracts/fountain.sol\":4671:4675  USDC */\n      immutable(\"0x3e53e6caa3d9267e13a0317305a21727fdeb46c2d5adc9160409eaa6e5fb3b60\")\n        /* \"contracts/fountain.sol\":531:8142  contract Serenity is Ownable, Pausable, ReentrancyGuard {... */\n      dup8\n      and\n      and\n        /* \"contracts/fountain.sol\":3113:3747  ISwapRouter.ExactOutputSingleParams({... */\n      0x20\n        /* \"contracts/fountain.sol\":4566:5200  ISwapRouter.ExactInputSingleParams({... */\n      dup4\n      add\n        /* \"contracts/fountain.sol\":531:8142  contract Serenity is Ownable, Pausable, ReentrancyGuard {... */\n      mstore\n      0xffffff\n      dup15\n      and\n        /* \"contracts/fountain.sol\":4566:5200  ISwapRouter.ExactInputSingleParams({... */\n      dup3\n      dup3\n      add\n        /* \"contracts/fountain.sol\":531:8142  contract Serenity is Ownable, Pausable, ReentrancyGuard {... */\n      mstore\n        /* \"contracts/fountain.sol\":2780:2784  this */\n      address\n        /* \"contracts/fountain.sol\":3113:3747  ISwapRouter.ExactOutputSingleParams({... */\n      0x60\n        /* \"contracts/fountain.sol\":4566:5200  ISwapRouter.ExactInputSingleParams({... */\n      dup4\n      add\n        /* \"contracts/fountain.sol\":531:8142  contract Serenity is Ownable, Pausable, ReentrancyGuard {... */\n      mstore\n      dup11\n        /* \"contracts/fountain.sol\":3113:3747  ISwapRouter.ExactOutputSingleParams({... */\n      0x80\n        /* \"contracts/fountain.sol\":4566:5200  ISwapRouter.ExactInputSingleParams({... */\n      dup4\n      add\n        /* \"contracts/fountain.sol\":531:8142  contract Serenity is Ownable, Pausable, ReentrancyGuard {... */\n      mstore\n      dup4\n        /* \"contracts/fountain.sol\":3113:3747  ISwapRouter.ExactOutputSingleParams({... */\n      0xa0\n        /* \"contracts/fountain.sol\":4566:5200  ISwapRouter.ExactInputSingleParams({... */\n      dup4\n      add\n        /* \"contracts/fountain.sol\":531:8142  contract Serenity is Ownable, Pausable, ReentrancyGuard {... */\n      mstore\n      dup15\n        /* \"contracts/fountain.sol\":3113:3747  ISwapRouter.ExactOutputSingleParams({... */\n      0xc0\n        /* \"contracts/fountain.sol\":4566:5200  ISwapRouter.ExactInputSingleParams({... */\n      dup4\n      add\n        /* \"contracts/fountain.sol\":531:8142  contract Serenity is Ownable, Pausable, ReentrancyGuard {... */\n      mstore\n      dup3\n        /* \"contracts/fountain.sol\":3113:3747  ISwapRouter.ExactOutputSingleParams({... */\n      0xe0\n        /* \"contracts/fountain.sol\":4566:5200  ISwapRouter.ExactInputSingleParams({... */\n      dup4\n      add\n        /* \"contracts/fountain.sol\":531:8142  contract Serenity is Ownable, Pausable, ReentrancyGuard {... */\n      mstore\n        /* \"contracts/fountain.sol\":5263:5298  swapRouter.exactInputSingle(params) */\n      dup5\n      extcodesize\n      tag_283\n      jumpi\n        /* \"contracts/fountain.sol\":531:8142  contract Serenity is Ownable, Pausable, ReentrancyGuard {... */\n      dup3\n      dup4\n      revert\n        /* \"contracts/fountain.sol\":5263:5298  swapRouter.exactInputSingle(params) */\n    tag_283:\n        /* \"contracts/fountain.sol\":3113:3747  ISwapRouter.ExactOutputSingleParams({... */\n      dup1\n        /* \"contracts/fountain.sol\":531:8142  contract Serenity is Ownable, Pausable, ReentrancyGuard {... */\n      mload\n        /* \"contracts/fountain.sol\":5263:5298  swapRouter.exactInputSingle(params) */\n      swap6\n      pop\n        /* \"contracts/fountain.sol\":531:8142  contract Serenity is Ownable, Pausable, ReentrancyGuard {... */\n      0x414bf38900000000000000000000000000000000000000000000000000000000\n        /* \"contracts/fountain.sol\":5263:5298  swapRouter.exactInputSingle(params) */\n      dup7\n      mstore\n        /* \"contracts/fountain.sol\":3113:3747  ISwapRouter.ExactOutputSingleParams({... */\n      0x20\n        /* \"contracts/fountain.sol\":5263:5298  swapRouter.exactInputSingle(params) */\n      dup7\n      dup8\n      tag_284\n      dup6\n        /* \"contracts/fountain.sol\":3906:3949  swapRouter.exactOutputSingle(ethSwapParams) */\n      0x04\n        /* \"contracts/fountain.sol\":5263:5298  swapRouter.exactInputSingle(params) */\n      dup12\n      add\n      tag_135\n      jump\t// in\n    tag_284:\n      sub\n      dup9\n        /* \"contracts/fountain.sol\":531:8142  contract Serenity is Ownable, Pausable, ReentrancyGuard {... */\n      dup7\n        /* \"contracts/fountain.sol\":5263:5298  swapRouter.exactInputSingle(params) */\n      dup10\n      gas\n      call\n      swap5\n      pop\n      dup5\n      tag_286\n      jumpi\n      tag_286\n      tag_263\n      jump\t// in\n    tag_286:\n        /* \"contracts/fountain.sol\":531:8142  contract Serenity is Ownable, Pausable, ReentrancyGuard {... */\n      dup3\n        /* \"contracts/fountain.sol\":5263:5298  swapRouter.exactInputSingle(params) */\n      swap4\n      pop\n      dup5\n      iszero\n      tag_287\n      jumpi\n      tag_288\n      returndatasize\n      dup8\n      tag_72\n      jump\t// in\n    tag_288:\n      tag_289\n      returndatasize\n      dup8\n      add\n      dup8\n      tag_122\n      jump\t// in\n    tag_289:\n      swap4\n      pop\n    tag_287:\n      sub(exp(0x02, 0xa0), 0x01)\n        /* \"contracts/fountain.sol\":531:8142  contract Serenity is Ownable, Pausable, ReentrancyGuard {... */\n      dup9\n      and\n      0x00\n      swap1\n      dup2\n      mstore\n        /* \"contracts/fountain.sol\":5318:5326  balances */\n      0x03\n        /* \"contracts/fountain.sol\":531:8142  contract Serenity is Ownable, Pausable, ReentrancyGuard {... */\n      0x20\n      mstore\n      0x40\n      swap1\n      keccak256\n        /* \"contracts/fountain.sol\":5318:5350  balances[ephemeralWalletAddress] */\n      swap6\n      pop\n        /* \"contracts/fountain.sol\":5318:5363  balances[ephemeralWalletAddress] += amountOut */\n      tag_291\n      dup5\n      dup8\n        /* \"contracts/fountain.sol\":531:8142  contract Serenity is Ownable, Pausable, ReentrancyGuard {... */\n      sload\n        /* \"contracts/fountain.sol\":5318:5363  balances[ephemeralWalletAddress] += amountOut */\n      tag_151\n      jump\t// in\n    tag_291:\n        /* \"contracts/fountain.sol\":531:8142  contract Serenity is Ownable, Pausable, ReentrancyGuard {... */\n      swap1\n      swap6\n      sstore\n      pop\n      pop\n      swap3\n      sload\n      swap2\n      mload\n      dup7\n      dup2\n      mstore\n      0x20\n      dup2\n      add\n      dup4\n      swap1\n      mstore\n      0x40\n      dup2\n      add\n      dup5\n      swap1\n      mstore\n      swap2\n      swap3\n        /* \"contracts/fountain.sol\":5387:5498  FountainDeposit(msg.sender, ephemeralWalletAddress, tokenIn, totalAmountIn, ephemeralGasMoneyAmount, amountOut) */\n      dup6\n      dup6\n        /* \"contracts/fountain.sol\":2760:2770  msg.sender */\n      caller\n        /* \"contracts/fountain.sol\":5387:5498  FountainDeposit(msg.sender, ephemeralWalletAddress, tokenIn, totalAmountIn, ephemeralGasMoneyAmount, amountOut) */\n      0x0860654ad3d0539dbac86150676768b53a47900bb45c5eb8d8d000ffbc4f67e6\n        /* \"contracts/fountain.sol\":531:8142  contract Serenity is Ownable, Pausable, ReentrancyGuard {... */\n      0x60\n      dup8\n        /* \"contracts/fountain.sol\":5387:5498  FountainDeposit(msg.sender, ephemeralWalletAddress, tokenIn, totalAmountIn, ephemeralGasMoneyAmount, amountOut) */\n      log4\n      pop\n      pop\n      pop\n      pop\n        /* \"@openzeppelin/contracts/security/ReentrancyGuard.sol\":2628:2650  _status = _NOT_ENTERED */\n      tag_293\n        /* \"@openzeppelin/contracts/security/ReentrancyGuard.sol\":2325:2332  _status */\n      0x01\n      dup1\n        /* \"contracts/fountain.sol\":531:8142  contract Serenity is Ownable, Pausable, ReentrancyGuard {... */\n      sstore\n      jump\n        /* \"@openzeppelin/contracts/security/ReentrancyGuard.sol\":2628:2650  _status = _NOT_ENTERED */\n    tag_293:\n        /* \"@openzeppelin/contracts/security/Pausable.sol\":1204:1276  modifier whenNotPaused() {... */\n      pop\n      pop\n      pop\n      pop\n      pop\n      pop\n      pop\n      pop\n      jump\t// out\n    tag_36:\n      tag_296\n      tag_198\n      jump\t// in\n    tag_296:\n        /* \"@openzeppelin/contracts/security/ReentrancyGuard.sol\":2317:2380  require(_status != _ENTERED, \"ReentrancyGuard: reentrant call\") */\n      tag_297\n        /* \"@openzeppelin/contracts/security/ReentrancyGuard.sol\":1744:1745  2 */\n      0x02\n        /* \"@openzeppelin/contracts/security/ReentrancyGuard.sol\":2325:2332  _status */\n      0x01\n        /* \"contracts/fountain.sol\":531:8142  contract Serenity is Ownable, Pausable, ReentrancyGuard {... */\n      sload\n        /* \"@openzeppelin/contracts/security/ReentrancyGuard.sol\":2325:2344  _status != _ENTERED */\n      eq\n      iszero\n        /* \"@openzeppelin/contracts/security/ReentrancyGuard.sol\":2317:2380  require(_status != _ENTERED, \"ReentrancyGuard: reentrant call\") */\n      tag_249\n      jump\t// in\n    tag_297:\n        /* \"@openzeppelin/contracts/security/ReentrancyGuard.sol\":1744:1745  2 */\n      0x02\n        /* \"@openzeppelin/contracts/security/ReentrancyGuard.sol\":2325:2332  _status */\n      0x01\n        /* \"contracts/fountain.sol\":531:8142  contract Serenity is Ownable, Pausable, ReentrancyGuard {... */\n      sstore\n      sub(exp(0x02, 0xa0), 0x01)\n      dup1\n        /* \"contracts/fountain.sol\":5892:5910  msg.sender == user */\n      dup3\n        /* \"contracts/fountain.sol\":531:8142  contract Serenity is Ownable, Pausable, ReentrancyGuard {... */\n      and\n        /* \"contracts/fountain.sol\":5892:5902  msg.sender */\n      caller\n        /* \"contracts/fountain.sol\":5892:5910  msg.sender == user */\n      eq\n        /* \"contracts/fountain.sol\":5892:5935  msg.sender == user || msg.sender == owner() */\n      dup1\n      tag_298\n      jumpi\n        /* \"contracts/fountain.sol\":5914:5935  msg.sender == owner() */\n      tag_299\n        /* \"contracts/fountain.sol\":531:8142  contract Serenity is Ownable, Pausable, ReentrancyGuard {... */\n      dup3\n        /* \"@openzeppelin/contracts/access/Ownable.sol\":1273:1279  _owner */\n      0x00\n        /* \"contracts/fountain.sol\":531:8142  contract Serenity is Ownable, Pausable, ReentrancyGuard {... */\n      sload\n      and\n      sub(exp(0x02, 0xa0), 0x01)\n      and\n      swap1\n      jump\n        /* \"contracts/fountain.sol\":5914:5935  msg.sender == owner() */\n    tag_299:\n        /* \"contracts/fountain.sol\":5892:5902  msg.sender */\n      caller\n        /* \"contracts/fountain.sol\":5914:5935  msg.sender == owner() */\n      eq\n        /* \"contracts/fountain.sol\":5892:5935  msg.sender == user || msg.sender == owner() */\n      swap1\n      pop\n    tag_298:\n        /* \"contracts/fountain.sol\":5884:5969  require(msg.sender == user || msg.sender == owner(), \"Unauthorization finalization.\") */\n      tag_300\n      dup2\n      tag_301\n      jump\t// in\n    tag_300:\n      pop\n        /* \"contracts/fountain.sol\":5987:6004  charities_.length */\n      dup3\n        /* \"contracts/fountain.sol\":531:8142  contract Serenity is Ownable, Pausable, ReentrancyGuard {... */\n      mload\n        /* \"contracts/fountain.sol\":5979:6077  require(charities_.length == amounts_.length, \"Charities and amounts arrays of different length.\") */\n      tag_302\n        /* \"contracts/fountain.sol\":6008:6023  amounts_.length */\n      dup6\n        /* \"contracts/fountain.sol\":531:8142  contract Serenity is Ownable, Pausable, ReentrancyGuard {... */\n      mload\n        /* \"contracts/fountain.sol\":5987:6023  charities_.length == amounts_.length */\n      dup3\n      eq\n        /* \"contracts/fountain.sol\":5979:6077  require(charities_.length == amounts_.length, \"Charities and amounts arrays of different length.\") */\n      tag_303\n      jump\t// in\n    tag_302:\n      pop\n      0x00\n      dup1\n        /* \"contracts/fountain.sol\":6129:6338  for (uint8 i = 0; i < charities_.length; i++) {... */\n    tag_304:\n        /* \"contracts/fountain.sol\":6151:6168  charities_.length */\n      dup5\n        /* \"contracts/fountain.sol\":531:8142  contract Serenity is Ownable, Pausable, ReentrancyGuard {... */\n      mload\n      0xff\n        /* \"contracts/fountain.sol\":6147:6168  i < charities_.length */\n      dup3\n        /* \"contracts/fountain.sol\":531:8142  contract Serenity is Ownable, Pausable, ReentrancyGuard {... */\n      and\n        /* \"contracts/fountain.sol\":6147:6168  i < charities_.length */\n      dup2\n      dup2\n      lt\n      tag_307\n      jumpi\n      pop\n      pop\n      jump(tag_306)\n    tag_307:\n        /* \"contracts/fountain.sol\":6189:6223  totalUserAllocation += amounts_[i] */\n      tag_308\n        /* \"contracts/fountain.sol\":6212:6223  amounts_[i] */\n      tag_309\n      dup3\n      dup11\n      tag_237\n      jump\t// in\n    tag_309:\n        /* \"contracts/fountain.sol\":531:8142  contract Serenity is Ownable, Pausable, ReentrancyGuard {... */\n      mload\n        /* \"contracts/fountain.sol\":6189:6223  totalUserAllocation += amounts_[i] */\n      dup6\n      tag_151\n      jump\t// in\n    tag_308:\n      swap4\n      pop\n        /* \"contracts/fountain.sol\":6237:6327  require(charities[charities_[i]] != address(0x0), \"Attempt to donate to unknown charity.\") */\n      tag_310\n        /* \"contracts/fountain.sol\":6245:6285  charities[charities_[i]] != address(0x0) */\n      tag_311\n        /* \"contracts/fountain.sol\":6245:6269  charities[charities_[i]] */\n      tag_312\n        /* \"contracts/fountain.sol\":531:8142  contract Serenity is Ownable, Pausable, ReentrancyGuard {... */\n      tag_313\n        /* \"contracts/fountain.sol\":6255:6268  charities_[i] */\n      tag_314\n      dup6\n      dup13\n      tag_237\n      jump\t// in\n    tag_314:\n      mload\n        /* \"contracts/fountain.sol\":531:8142  contract Serenity is Ownable, Pausable, ReentrancyGuard {... */\n      tag_211\n      jump\t// in\n    tag_313:\n      sload\n      sub(exp(0x02, 0xa0), 0x01)\n      and\n      swap1\n      jump\n        /* \"contracts/fountain.sol\":6245:6269  charities[charities_[i]] */\n    tag_312:\n      sub(exp(0x02, 0xa0), 0x01)\n        /* \"contracts/fountain.sol\":531:8142  contract Serenity is Ownable, Pausable, ReentrancyGuard {... */\n      and\n      swap1\n      jump\n        /* \"contracts/fountain.sol\":6245:6285  charities[charities_[i]] != address(0x0) */\n    tag_311:\n      iszero\n      iszero\n        /* \"contracts/fountain.sol\":6237:6327  require(charities[charities_[i]] != address(0x0), \"Attempt to donate to unknown charity.\") */\n      tag_316\n      jump\t// in\n    tag_310:\n      pop\n      pop\n        /* \"contracts/fountain.sol\":6170:6173  i++ */\n      tag_317\n      dup2\n      tag_231\n      jump\t// in\n    tag_317:\n      swap1\n      pop\n        /* \"contracts/fountain.sol\":6129:6338  for (uint8 i = 0; i < charities_.length; i++) {... */\n      jump(tag_304)\n    tag_306:\n      pop\n        /* \"contracts/fountain.sol\":6348:6432  require(totalUserAllocation <= balances[user], \"Total finalization amount too high\") */\n      tag_318\n        /* \"contracts/fountain.sol\":6379:6393  balances[user] */\n      tag_319\n      dup5\n      sub(exp(0x02, 0xa0), 0x01)\n        /* \"contracts/fountain.sol\":531:8142  contract Serenity is Ownable, Pausable, ReentrancyGuard {... */\n      and\n      0x00\n      swap1\n      dup2\n      mstore\n        /* \"contracts/fountain.sol\":5318:5326  balances */\n      0x03\n        /* \"contracts/fountain.sol\":531:8142  contract Serenity is Ownable, Pausable, ReentrancyGuard {... */\n      0x20\n      mstore\n      0x40\n      swap1\n      keccak256\n      swap1\n      jump\n        /* \"contracts/fountain.sol\":6379:6393  balances[user] */\n    tag_319:\n        /* \"contracts/fountain.sol\":531:8142  contract Serenity is Ownable, Pausable, ReentrancyGuard {... */\n      sload\n        /* \"contracts/fountain.sol\":6356:6393  totalUserAllocation <= balances[user] */\n      dup3\n      gt\n      iszero\n        /* \"contracts/fountain.sol\":6348:6432  require(totalUserAllocation <= balances[user], \"Total finalization amount too high\") */\n      tag_320\n      jump\t// in\n    tag_318:\n      0x00\n      dup1\n        /* \"contracts/fountain.sol\":531:8142  contract Serenity is Ownable, Pausable, ReentrancyGuard {... */\n      dup4\n        /* \"contracts/fountain.sol\":7245:7249  USDC */\n      immutable(\"0x3e53e6caa3d9267e13a0317305a21727fdeb46c2d5adc9160409eaa6e5fb3b60\")\n        /* \"contracts/fountain.sol\":531:8142  contract Serenity is Ownable, Pausable, ReentrancyGuard {... */\n      and\n        /* \"contracts/fountain.sol\":7245:7258  USDC.transfer */\n      swap4\n      pop\n        /* \"contracts/fountain.sol\":6477:7528  for (uint8 i = 0; i < charities_.length; i++) { ... */\n    tag_321:\n        /* \"contracts/fountain.sol\":6499:6516  charities_.length */\n      dup6\n        /* \"contracts/fountain.sol\":531:8142  contract Serenity is Ownable, Pausable, ReentrancyGuard {... */\n      mload\n      0xff\n        /* \"contracts/fountain.sol\":6495:6516  i < charities_.length */\n      dup3\n        /* \"contracts/fountain.sol\":531:8142  contract Serenity is Ownable, Pausable, ReentrancyGuard {... */\n      and\n        /* \"contracts/fountain.sol\":6495:6516  i < charities_.length */\n      dup2\n      dup2\n      lt\n      tag_324\n      jumpi\n      pop\n      pop\n      jump(tag_323)\n    tag_324:\n        /* \"contracts/fountain.sol\":6880:6891  amounts_[i] */\n      tag_325\n      dup2\n      dup11\n      tag_237\n      jump\t// in\n    tag_325:\n        /* \"contracts/fountain.sol\":531:8142  contract Serenity is Ownable, Pausable, ReentrancyGuard {... */\n      mload\n      swap2\n      pop\n        /* \"contracts/fountain.sol\":6895:6931  balances[user] - totalUserAllocation */\n      tag_326\n      dup6\n        /* \"contracts/fountain.sol\":6895:6909  balances[user] */\n      tag_327\n      dup10\n      sub(exp(0x02, 0xa0), 0x01)\n        /* \"contracts/fountain.sol\":531:8142  contract Serenity is Ownable, Pausable, ReentrancyGuard {... */\n      and\n      0x00\n      swap1\n      dup2\n      mstore\n        /* \"contracts/fountain.sol\":5318:5326  balances */\n      0x03\n        /* \"contracts/fountain.sol\":531:8142  contract Serenity is Ownable, Pausable, ReentrancyGuard {... */\n      0x20\n      mstore\n      0x40\n      swap1\n      keccak256\n      swap1\n      jump\n        /* \"contracts/fountain.sol\":6895:6909  balances[user] */\n    tag_327:\n        /* \"contracts/fountain.sol\":531:8142  contract Serenity is Ownable, Pausable, ReentrancyGuard {... */\n      sload\n        /* \"contracts/fountain.sol\":6895:6931  balances[user] - totalUserAllocation */\n      tag_167\n      jump\t// in\n    tag_326:\n        /* \"contracts/fountain.sol\":6880:6970  amounts_[i] + (balances[user] - totalUserAllocation) * (amounts_[i] / totalUserAllocation) */\n      tag_328\n        /* \"contracts/fountain.sol\":6894:6970  (balances[user] - totalUserAllocation) * (amounts_[i] / totalUserAllocation) */\n      tag_329\n        /* \"contracts/fountain.sol\":6936:6969  amounts_[i] / totalUserAllocation */\n      tag_330\n      dup9\n        /* \"contracts/fountain.sol\":6936:6947  amounts_[i] */\n      tag_331\n      dup7\n      dup16\n      tag_237\n      jump\t// in\n    tag_331:\n        /* \"contracts/fountain.sol\":531:8142  contract Serenity is Ownable, Pausable, ReentrancyGuard {... */\n      mload\n        /* \"contracts/fountain.sol\":6936:6969  amounts_[i] / totalUserAllocation */\n      tag_156\n      jump\t// in\n    tag_330:\n        /* \"contracts/fountain.sol\":6894:6970  (balances[user] - totalUserAllocation) * (amounts_[i] / totalUserAllocation) */\n      dup4\n      tag_159\n      jump\t// in\n    tag_329:\n        /* \"contracts/fountain.sol\":6880:6970  amounts_[i] + (balances[user] - totalUserAllocation) * (amounts_[i] / totalUserAllocation) */\n      dup5\n      tag_151\n      jump\t// in\n    tag_328:\n        /* \"contracts/fountain.sol\":6855:6970  uint256 transferAmount = amounts_[i] + (balances[user] - totalUserAllocation) * (amounts_[i] / totalUserAllocation) */\n      swap3\n      pop\n      pop\n        /* \"contracts/fountain.sol\":7094:7115  charities_.length - 1 */\n      tag_332\n        /* \"contracts/fountain.sol\":7094:7111  charities_.length */\n      dup9\n        /* \"contracts/fountain.sol\":531:8142  contract Serenity is Ownable, Pausable, ReentrancyGuard {... */\n      mload\n        /* \"contracts/fountain.sol\":7094:7115  charities_.length - 1 */\n      tag_163\n      jump\t// in\n    tag_332:\n        /* \"contracts/fountain.sol\":7089:7115  i == charities_.length - 1 */\n      dup2\n      eq\n        /* \"contracts/fountain.sol\":7085:7196  if (i == charities_.length - 1) {... */\n      iszero\n      tag_333\n      jumpi\n        /* \"contracts/fountain.sol\":7152:7181  balances[user] - totalDonated */\n      tag_334\n      dup5\n        /* \"contracts/fountain.sol\":7152:7166  balances[user] */\n      tag_327\n      dup10\n      sub(exp(0x02, 0xa0), 0x01)\n        /* \"contracts/fountain.sol\":531:8142  contract Serenity is Ownable, Pausable, ReentrancyGuard {... */\n      and\n      0x00\n      swap1\n      dup2\n      mstore\n        /* \"contracts/fountain.sol\":5318:5326  balances */\n      0x03\n        /* \"contracts/fountain.sol\":531:8142  contract Serenity is Ownable, Pausable, ReentrancyGuard {... */\n      0x20\n      mstore\n      0x40\n      swap1\n      keccak256\n      swap1\n      jump\n        /* \"contracts/fountain.sol\":7152:7181  balances[user] - totalDonated */\n    tag_334:\n        /* \"contracts/fountain.sol\":7135:7181  transferAmount = balances[user] - totalDonated */\n      swap2\n      pop\n        /* \"contracts/fountain.sol\":7085:7196  if (i == charities_.length - 1) {... */\n    tag_333:\n        /* \"contracts/fountain.sol\":7259:7283  charities[charities_[i]] */\n      tag_336\n        /* \"contracts/fountain.sol\":531:8142  contract Serenity is Ownable, Pausable, ReentrancyGuard {... */\n      tag_313\n        /* \"contracts/fountain.sol\":7269:7282  charities_[i] */\n      tag_314\n      dup4\n      dup12\n      tag_237\n      jump\t// in\n        /* \"contracts/fountain.sol\":7259:7283  charities[charities_[i]] */\n    tag_336:\n        /* \"contracts/fountain.sol\":7245:7300  USDC.transfer(charities[charities_[i]], transferAmount) */\n      dup7\n      extcodesize\n      tag_339\n      jumpi\n      0x00\n      dup1\n        /* \"contracts/fountain.sol\":531:8142  contract Serenity is Ownable, Pausable, ReentrancyGuard {... */\n      revert\n        /* \"contracts/fountain.sol\":7245:7300  USDC.transfer(charities[charities_[i]], transferAmount) */\n    tag_339:\n        /* \"contracts/fountain.sol\":531:8142  contract Serenity is Ownable, Pausable, ReentrancyGuard {... */\n      mload(0x40)\n      0xa9059cbb00000000000000000000000000000000000000000000000000000000\n        /* \"contracts/fountain.sol\":7245:7300  USDC.transfer(charities[charities_[i]], transferAmount) */\n      dup2\n      mstore\n      sub(exp(0x02, 0xa0), 0x01)\n        /* \"contracts/fountain.sol\":531:8142  contract Serenity is Ownable, Pausable, ReentrancyGuard {... */\n      dup3\n      and\n        /* \"contracts/fountain.sol\":6245:6254  charities */\n      0x04\n        /* \"contracts/fountain.sol\":7245:7300  USDC.transfer(charities[charities_[i]], transferAmount) */\n      dup3\n      add\n        /* \"contracts/fountain.sol\":531:8142  contract Serenity is Ownable, Pausable, ReentrancyGuard {... */\n      mstore\n      0x24\n      dup2\n      add\n      dup5\n      swap1\n      mstore\n        /* \"contracts/fountain.sol\":7245:7300  USDC.transfer(charities[charities_[i]], transferAmount) */\n      0x20\n        /* \"contracts/fountain.sol\":531:8142  contract Serenity is Ownable, Pausable, ReentrancyGuard {... */\n      dup2\n      0x44\n      dup2\n      0x00\n        /* \"contracts/fountain.sol\":7245:7300  USDC.transfer(charities[charities_[i]], transferAmount) */\n      dup13\n      gas\n      call\n      swap2\n      pop\n      dup2\n      tag_342\n      jumpi\n      tag_342\n      tag_263\n      jump\t// in\n    tag_342:\n      0x00\n      dup3\n      iszero\n      tag_343\n      jumpi\n      tag_344\n      returndatasize\n      dup4\n      tag_72\n      jump\t// in\n    tag_344:\n      tag_345\n      returndatasize\n      dup4\n      add\n      dup4\n      tag_113\n      jump\t// in\n    tag_345:\n      swap1\n      pop\n    tag_343:\n        /* \"contracts/fountain.sol\":7314:7374  require(transferSuccess, \"USDC transfer to charity failed.\") */\n      tag_346\n      dup2\n      tag_347\n      jump\t// in\n    tag_346:\n      pop\n      pop\n      pop\n        /* \"contracts/fountain.sol\":7416:7429  charities_[i] */\n      tag_348\n      dup2\n      dup10\n      tag_237\n      jump\t// in\n    tag_348:\n      mload\n        /* \"contracts/fountain.sol\":7431:7455  charities[charities_[i]] */\n      tag_349\n        /* \"contracts/fountain.sol\":531:8142  contract Serenity is Ownable, Pausable, ReentrancyGuard {... */\n      tag_313\n        /* \"contracts/fountain.sol\":7441:7454  charities_[i] */\n      tag_314\n      dup5\n      dup13\n      tag_237\n      jump\t// in\n        /* \"contracts/fountain.sol\":7431:7455  charities[charities_[i]] */\n    tag_349:\n      swap2\n      pop\n        /* \"contracts/fountain.sol\":7393:7472  FountainDonation(user, charities_[i], charities[charities_[i]], transferAmount) */\n      tag_352\n      dup2\n      tag_353\n      jump\t// in\n    tag_352:\n        /* \"contracts/fountain.sol\":531:8142  contract Serenity is Ownable, Pausable, ReentrancyGuard {... */\n      mload(0x40)\n      dup5\n      dup2\n      mstore\n        /* \"contracts/fountain.sol\":7393:7472  FountainDonation(user, charities_[i], charities[charities_[i]], transferAmount) */\n      swap1\n      swap2\n      pop\n      dup3\n      dup3\n      dup11\n      0xb0657052acbf78260696b569dbe3a1f1f39287b5a3c378f5bca0c20fbf062dec\n        /* \"contracts/fountain.sol\":531:8142  contract Serenity is Ownable, Pausable, ReentrancyGuard {... */\n      0x20\n      dup6\n        /* \"contracts/fountain.sol\":7393:7472  FountainDonation(user, charities_[i], charities[charities_[i]], transferAmount) */\n      log4\n      pop\n      pop\n      pop\n        /* \"contracts/fountain.sol\":7487:7517  totalDonated += transferAmount */\n      tag_355\n      dup2\n      dup5\n      tag_151\n      jump\t// in\n    tag_355:\n      swap3\n      pop\n      pop\n        /* \"contracts/fountain.sol\":6518:6521  i++ */\n      tag_356\n      dup2\n      tag_231\n      jump\t// in\n    tag_356:\n      swap1\n      pop\n        /* \"contracts/fountain.sol\":6477:7528  for (uint8 i = 0; i < charities_.length; i++) { ... */\n      jump(tag_321)\n    tag_323:\n      pop\n        /* \"contracts/fountain.sol\":7538:7609  require(totalDonated == balances[user], \"Must finalize entire balance\") */\n      tag_357\n        /* \"contracts/fountain.sol\":7562:7576  balances[user] */\n      tag_358\n      dup6\n      sub(exp(0x02, 0xa0), 0x01)\n        /* \"contracts/fountain.sol\":531:8142  contract Serenity is Ownable, Pausable, ReentrancyGuard {... */\n      and\n      0x00\n      swap1\n      dup2\n      mstore\n        /* \"contracts/fountain.sol\":5318:5326  balances */\n      0x03\n        /* \"contracts/fountain.sol\":531:8142  contract Serenity is Ownable, Pausable, ReentrancyGuard {... */\n      0x20\n      mstore\n      0x40\n      swap1\n      keccak256\n      swap1\n      jump\n        /* \"contracts/fountain.sol\":7562:7576  balances[user] */\n    tag_358:\n        /* \"contracts/fountain.sol\":531:8142  contract Serenity is Ownable, Pausable, ReentrancyGuard {... */\n      sload\n        /* \"contracts/fountain.sol\":7546:7576  totalDonated == balances[user] */\n      dup3\n      eq\n        /* \"contracts/fountain.sol\":7538:7609  require(totalDonated == balances[user], \"Must finalize entire balance\") */\n      tag_359\n      jump\t// in\n    tag_357:\n      pop\n      pop\n      pop\n        /* \"@openzeppelin/contracts/security/ReentrancyGuard.sol\":2628:2650  _status = _NOT_ENTERED */\n      tag_360\n        /* \"@openzeppelin/contracts/security/ReentrancyGuard.sol\":2325:2332  _status */\n      0x01\n      dup1\n        /* \"contracts/fountain.sol\":531:8142  contract Serenity is Ownable, Pausable, ReentrancyGuard {... */\n      sstore\n      jump\n        /* \"@openzeppelin/contracts/security/ReentrancyGuard.sol\":2628:2650  _status = _NOT_ENTERED */\n    tag_360:\n        /* \"@openzeppelin/contracts/security/Pausable.sol\":1204:1276  modifier whenNotPaused() {... */\n      pop\n      pop\n      pop\n      jump\t// out\n        /* \"contracts/fountain.sol\":531:8142  contract Serenity is Ownable, Pausable, ReentrancyGuard {... */\n    tag_353:\n      0x00\n      mload(0x40)\n      dup1\n      tag_362\n      dup3\n      dup6\n      tag_125\n      jump\t// in\n    tag_362:\n      sub\n      swap1\n      keccak256\n      swap3\n      swap2\n      pop\n      pop\n      jump\t// out\n    tag_211:\n      0x00\n      mload(0x40)\n      tag_364\n      dup2\n      dup5\n      tag_125\n      jump\t// in\n    tag_364:\n        /* \"contracts/fountain.sol\":7723:7732  charities */\n      0x04\n        /* \"contracts/fountain.sol\":531:8142  contract Serenity is Ownable, Pausable, ReentrancyGuard {... */\n      dup2\n      mstore\n      dup2\n      swap1\n      sub\n      0x20\n      add\n      swap1\n      keccak256\n      swap3\n      swap2\n      pop\n      pop\n      jump\t// out\n    tag_155:\n      mstore(0x00, mul(0x4e487b71, exp(0x02, 0xe0)))\n      mstore(0x04, 0x11)\n      revert(0x00, 0x24)\n    tag_194:\n      mstore(0x00, mul(0x4e487b71, exp(0x02, 0xe0)))\n      mstore(0x04, 0x32)\n      revert(0x00, 0x24)\n    tag_144:\n      mstore(0x00, mul(0x4e487b71, exp(0x02, 0xe0)))\n      mstore(0x04, 0x41)\n      revert(0x00, 0x24)\n    tag_347:\n      dup1\n      tag_85\n      jumpi\n      mload(0x40)\n      mul(0x461bcd, exp(0x02, 0xe5))\n      dup2\n      mstore\n      0x20\n      0x04\n      dup3\n      add\n      mstore\n      0x20\n      0x24\n      dup3\n      add\n      mstore\n      0x55534443207472616e7366657220746f2063686172697479206661696c65642e\n      0x44\n      dup3\n      add\n      mstore\n      0x64\n      dup2\n      revert\n    tag_316:\n      dup1\n      tag_85\n      jumpi\n      mload(0x40)\n      mul(0x461bcd, exp(0x02, 0xe5))\n      dup2\n      mstore\n      0x20\n      0x04\n      dup3\n      add\n      mstore\n      0x25\n      0x24\n      dup3\n      add\n      mstore\n      0x417474656d707420746f20646f6e61746520746f20756e6b6e6f776e20636861\n      0x44\n      dup3\n      add\n      mstore\n      0x726974792e000000000000000000000000000000000000000000000000000000\n      0x64\n      dup3\n      add\n      mstore\n      0x84\n      dup2\n      revert\n    tag_359:\n      dup1\n      tag_85\n      jumpi\n      mload(0x40)\n      mul(0x461bcd, exp(0x02, 0xe5))\n      dup2\n      mstore\n      0x20\n      0x04\n      dup3\n      add\n      mstore\n      0x1c\n      0x24\n      dup3\n      add\n      mstore\n      0x4d7573742066696e616c697a6520656e746972652062616c616e636500000000\n      0x44\n      dup3\n      add\n      mstore\n      0x64\n      dup2\n      revert\n    tag_320:\n      dup1\n      tag_85\n      jumpi\n      mload(0x40)\n      mul(0x461bcd, exp(0x02, 0xe5))\n      dup2\n      mstore\n      0x20\n      0x04\n      dup3\n      add\n      mstore\n      0x22\n      0x24\n      dup3\n      add\n      mstore\n      0x546f74616c2066696e616c697a6174696f6e20616d6f756e7420746f6f206869\n      0x44\n      dup3\n      add\n      mstore\n      0x6768000000000000000000000000000000000000000000000000000000000000\n      0x64\n      dup3\n      add\n      mstore\n      0x84\n      dup2\n      revert\n    tag_276:\n      dup1\n      tag_85\n      jumpi\n      mload(0x40)\n      mul(0x461bcd, exp(0x02, 0xe5))\n      dup2\n      mstore\n      0x20\n      0x04\n      dup3\n      add\n      mstore\n      0x27\n      0x24\n      dup3\n      add\n      mstore\n      0x4661696c656420746f2073656e642067617320746f20657068656d6572616c20\n      0x44\n      dup3\n      add\n      mstore\n      0x77616c6c65742e00000000000000000000000000000000000000000000000000\n      0x64\n      dup3\n      add\n      mstore\n      0x84\n      dup2\n      revert\n    tag_303:\n      dup1\n      tag_85\n      jumpi\n      mload(0x40)\n      mul(0x461bcd, exp(0x02, 0xe5))\n      dup2\n      mstore\n      0x20\n      0x04\n      dup3\n      add\n      mstore\n      0x31\n      0x24\n      dup3\n      add\n      mstore\n      0x43686172697469657320616e6420616d6f756e747320617272617973206f6620\n      0x44\n      dup3\n      add\n      mstore\n      0x646966666572656e74206c656e6774682e000000000000000000000000000000\n      0x64\n      dup3\n      add\n      mstore\n      0x84\n      dup2\n      revert\n    tag_301:\n      dup1\n      tag_85\n      jumpi\n      mload(0x40)\n      mul(0x461bcd, exp(0x02, 0xe5))\n      dup2\n      mstore\n      0x20\n      0x04\n      dup3\n      add\n      mstore\n      0x1d\n      0x24\n      dup3\n      add\n      mstore\n      0x556e617574686f72697a6174696f6e2066696e616c697a6174696f6e2e000000\n      0x44\n      dup3\n      add\n      mstore\n      0x64\n      dup2\n      revert\n    tag_208:\n      dup1\n      tag_85\n      jumpi\n      mload(0x40)\n      mul(0x461bcd, exp(0x02, 0xe5))\n      dup2\n      mstore\n      0x20\n      0x04\n      dup3\n      add\n      mstore\n      0x23\n      0x24\n      dup3\n      add\n      mstore\n      0x43686172697479206164647265737320616c7265616479207265676973746572\n      0x44\n      dup3\n      add\n      mstore\n      0x65642e0000000000000000000000000000000000000000000000000000000000\n      0x64\n      dup3\n      add\n      mstore\n      0x84\n      dup2\n      revert\n    tag_249:\n      dup1\n      tag_85\n      jumpi\n      mload(0x40)\n      mul(0x461bcd, exp(0x02, 0xe5))\n      dup2\n      mstore\n      0x20\n      0x04\n      dup3\n      add\n      mstore\n      0x1f\n      0x24\n      dup3\n      add\n      mstore\n      0x5265656e7472616e637947756172643a207265656e7472616e742063616c6c00\n      0x44\n      dup3\n      add\n      mstore\n      0x64\n      dup2\n      revert\n    tag_263:\n      mload(0x40)\n      returndatasize\n      0x00\n      dup3\n      returndatacopy\n      returndatasize\n      dup2\n      revert\n\n    auxdata: 0xa36469706673582212204207b2f49da0e02bc912fe2a58cef7fdcb3fa0b023f1bc011691da8686f295206c6578706572696d656e74616cf564736f6c63430008070041\n}\n",
				"bytecode": {
					"linkReferences": {},
					"object": "60e060405234156200001057600080fd5b62001a7a803803601f19601f82011660e00160e0811067ffffffffffffffff8211171562000067577f4e487b7100000000000000000000000000000000000000000000000000000000600052604160045260246000fd5b604052808260e03960808112156200007e57600080fd5b505060e0516200008e816200017d565b6101005161012051620000a1816200017d565b61014051620000b0816200017d565b620000be8183858762000109565b505050506040516118e38062000197833960805182818160f50152610e7f015260a0518281816101eb0152818161102b0152611280015260c05182818161025c0152610e5101528082f35b6000805433600160a060020a031982168117835560405191929091600160a060020a038416917f8be0079c531659141344cd1fd0a4f28419497f9722a3daafe3b4186f6b6457e091a3600160a860020a0319163360a060020a60ff021916176000556001805560c05260025560805260a052565b600160a060020a03811681146200019357600080fd5b5056fe604060808152600436106102e45760007c010000000000000000000000000000000000000000000000000000000081350463480a6fdc81146100ae57634aa4a4fc81146100de57635c975abb81146101285763715018a6811461016a5763745284ce811461018a57637aed774681146101b0576389a3027181146101d457638da5cb5b811461021a5763c31c9c0781146102455763f2fde38b811461028b5763f8b2cb4f81146102a6576102e1565b34156100b8578182fd5b6100c136610431565b6100d181838587898b8d8f610e1e565b5050505050505050818351f35b34156100e8578182fd5b6100f1366103d6565b82517f0000000000000000000000000000000000000000000000000000000000000000600160a060020a03168152602081f35b0381f35b3415610132578182fd5b61013b366103d6565b60ff74010000000000000000000000000000000000000000835404168351806101248383901515815260200190565b3415610174578182fd5b61017d366103d6565b610185610d05565b818351f35b3415610194578182fd5b61019d366104cc565b6101a8818385611173565b505050818351f35b34156101ba578182fd5b6101c3366105e6565b6101cd81836109f3565b5050818351f35b34156101de578182fd5b6101e7366103d6565b82517f0000000000000000000000000000000000000000000000000000000000000000600160a060020a03168152602081f35b3415610224578182fd5b61022d366103d6565b81548351600160a060020a0390911680825290602081f35b341561024f578182fd5b610258366103d6565b82517f0000000000000000000000000000000000000000000000000000000000000000600160a060020a03168152602081f35b3415610295578182fd5b6101856102a1366103ff565b610d54565b34156102b0578182fd5b6102d76102bc366103ff565b600160a060020a031660009081526003602052604090205490565b8351818152602081f35b50505b50600080fd5b600435600160a060020a038116811461030257600080fd5b90565b600082601f83011261031657600080fd5b813561032181610730565b60405161032e828261086d565b828152602080820192508581018185028701820188101561034e57600080fd5b60005b8581101561036d57813585529382019390820190600101610351565b5091979650505050505050565b600082601f83011261038b57600080fd5b813561039681610754565b6040516103a3828261086d565b8281528560208487010111156103b857600080fd5b82602086016020830137600092810160200192909252509392505050565b6000600319820112156103e857600080fd5b50565b600081830312156103fb57600080fd5b5050565b600060206003198301121561041357600080fd5b600435600160a060020a038116811461042b57600080fd5b92915050565b6000808080808080806101006003198a01121561044d57600080fd5b600435600160a060020a03808216821461046657600080fd5b90985060243590808216821461047b57600080fd5b50965060443595506064359450608435935060a43562ffffff80821682146104a257600080fd5b90935060c4359080821682146104b757600080fd5b508092505060e4359050919395975091939597565b600080806060600319850112156104e257600080fd5b6104ea6102ea565b92506024803567ffffffffffffffff8082111561050657600080fd5b86602383011261051557600080fd5b816004013561052381610730565b604051610530828261086d565b82815260208082019250858701818502870188018c101561055057600080fd5b60005b8581101561058b5781358781111561056a57600080fd5b6105788e8b838c010161037a565b8652509382019390820190600101610553565b50919850506044359550505050808311156105a557600080fd5b50506105b48582600401610305565b93959294505050565b6000602082840312156105cf57600080fd5b815180151581146105df57600080fd5b9392505050565b6000806040600319840112156105fb57600080fd5b60043567ffffffffffffffff81111561061357600080fd5b610620848260040161037a565b925050602435600160a060020a038116811461063b57600080fd5b919391925050565b60006020828403121561065557600080fd5b5051919050565b6000815160005b8181101561067d5760208185018101518683015201610663565b8181111561068c576000828601525b509290920192915050565b600061010082019050600160a060020a0380845116835280602085015116602084015262ffffff60408501511660408401528060608501511660608401526080840151608084015260a084015160a084015260c084015160c08401528060e08501511660e08401525092915050565b604051610100810167ffffffffffffffff8111828210171561072a5761072a611507565b60405290565b600067ffffffffffffffff82111561074a5761074a611507565b5060209081020190565b600067ffffffffffffffff82111561076e5761076e611507565b50601f01601f191660200190565b6000821982111561078f5761078f6114d5565b500190565b6000826107b45760e060020a634e487b7102600052601260045260246000fd5b500490565b60008160001904831182151516156107d3576107d36114d5565b500290565b600060018210156107eb576107eb6114d5565b506000190190565b600082821015610805576108056114d5565b500390565b60003d801561083f573d61081d81610754565b60405161082a828261086d565b8281528094503d6000602083013e5050505090565b606091505090565b60a0810181811067ffffffffffffffff8211171561086757610867611507565b60405250565b601f8201601f1916810167ffffffffffffffff8111828210171561089357610893611507565b6040525050565b600080828152600760205260408120541560008114610925576006546801000000000000000081106108ce576108ce611507565b60018101806006558082106108e5576108e56114ee565b507ff652222313e28459528d920b65115c16c04f3efc82aaedc97be59f3f377c0d3f01849055506006549281526007602052604090209190915550600190565b5092915050565b600160a060020a03600054163381146103e85760405160e560020a62461bcd02815260206004820152602060248201527f4f776e61626c653a2063616c6c6572206973206e6f7420746865206f776e65726044820152606481fd5b60ff740100000000000000000000000000000000000000006000540416156109f15760405160e560020a62461bcd02815260206004820152601060248201527f5061757361626c653a20706175736564000000000000000000000000000000006044820152606481fd5b565b604051610a00818361065c565b60048152600160a060020a03806020848403018420541615610a645760405160e560020a62461bcd02815260206004820152602060248201527f43686172697479206e616d6520616c726561647920726567697374657265642e6044820152606481fd5b84166000818152600560205260409020549092506001811691506002900481610a8b57607f165b60208110821415610aaf5760e060020a634e487b7102600052602260045260246000fd5b610ab981156117d3565b5050610ae583610ac8846114b4565b600160a060020a038216600160a060020a03198254161781555050565b610aee8161089a565b50505050565b6040517f095ea7b30000000000000000000000000000000000000000000000000000000060208201908152600160a060020a0384166024830152604480830186905282526064610b44818461086d565b506000808351836000875af1915050610b5b61080a565b818215610b84578151801580610b8057610b7d602083860101602086016105bd565b90505b9150505b80610bd357604051925060e560020a62461bcd02835260206004840152600260248401527f53410000000000000000000000000000000000000000000000000000000000006044840152606483fd5b505050505050565b604051602081017f23b872dd000000000000000000000000000000000000000000000000000000008152600160a060020a03808516602484015280861660448401525085606483015260648252610c3182610847565b6000808351836000875af1915050610c4761080a565b818215610c70578151801580610c6c57610c69602083860101602086016105bd565b90505b9150505b80610cbf57604051925060e560020a62461bcd02835260206004840152600360248401527f53544600000000000000000000000000000000000000000000000000000000006044840152606483fd5b50505050505050565b600060ff821660ff811415610cdf57610cdf6114d5565b60010192915050565b600081518310610cfa57610cfa6114ee565b506020918202010190565b610d0d61092c565b600054600160a060020a031981166000556000600160a060020a0382167f8be0079c531659141344cd1fd0a4f28419497f9722a3daafe3b4186f6b6457e06000604051a350565b610d5c61092c565b600160a060020a0380821680610dda5760405160e560020a62461bcd02815260206004820152602660248201527f4f776e61626c653a206e6577206f776e657220697320746865207a65726f206160448201527f64647265737300000000000000000000000000000000000000000000000000006064820152608481fd5b60005481600160a060020a0319821617600055838382167f8be0079c531659141344cd1fd0a4f28419497f9722a3daafe3b4186f6b6457e06000604051a350505050565b610e26610987565b6002610e36816001541415611846565b80600155610e4684303386610bdb565b600160a060020a03807f000000000000000000000000000000000000000000000000000000000000000016610e7c868287610af4565b817f0000000000000000000000000000000000000000000000000000000000000000168354610ea9610706565b600160a060020a0388168152600160a060020a038316602082015262ffffff8c166040828101919091523060608301528a60808301528260a08301528b60c0830152600092508260e0830152843b610eff578283fd5b80517fdb3e219800000000000000000000000000000000000000000000000000000000815260208182610f358660048601610697565b0383878a5af1925082610f4a57610f4a611893565b838315610f6a57610f5b3d8361086d565b610f673d830183610643565b90505b88549350853b610f78578485fd5b82517f2e1a7d4d0000000000000000000000000000000000000000000000000000000081526004810185905291508482602481838a5af1955085610fbe57610fbe611893565b8515610fda57610fce3d8361086d565b610fda3d8301836103eb565b885495508485868551898c8f165af19550610ff361080a565b50610ffd866116a0565b611007818d6107f3565b95505050611013610706565b600160a060020a038a1681529150600160a060020a037f0000000000000000000000000000000000000000000000000000000000000000871616602083015262ffffff8e16828201523060608301528a60808301528360a08301528e60c08301528260e0830152843b611084578283fd5b805195507f414bf389000000000000000000000000000000000000000000000000000000008652602086876110bc8560048b01610697565b038886895af19450846110d1576110d1611893565b82935084156110f3576110e43d8761086d565b6110f03d870187610643565b93505b600160a060020a0388166000908152600360205260409020955061111884875461077c565b909555505092549151868152602081018390526040810184905291928585337f0860654ad3d0539dbac86150676768b53a47900bb45c5eb8d8d000ffbc4f67e6606087a45050505061116960018055565b5050505050505050565b61117b610987565b61118a60026001541415611846565b6002600155600160a060020a038082163314806111ba576111b58260005416600160a060020a031690565b331490505b6111c381611786565b5082516111d285518214611713565b506000805b845160ff82168181106111eb57505061124f565b6111ff6111f8828a610ce8565b518561077c565b935061123d61123661122a61121d611217858c610ce8565b516114b4565b54600160a060020a031690565b600160a060020a031690565b151561156d565b505061124881610cc8565b90506111d7565b5061127a61127184600160a060020a0316600090815260036020526040902090565b5482111561162d565b600080837f00000000000000000000000000000000000000000000000000000000000000001693505b855160ff82168181106112b7575050611460565b6112c1818a610ce8565b5191506112ec856112e689600160a060020a0316600090815260036020526040902090565b546107f3565b61131261130c61130688611300868f610ce8565b51610794565b836107b9565b8461077c565b92505061131f88516107d8565b81141561134b57611348846112e689600160a060020a0316600090815260036020526040902090565b91505b61135b61121d611217838b610ce8565b863b61136657600080fd5b6040517fa9059cbb000000000000000000000000000000000000000000000000000000008152600160a060020a03821660048201526024810184905260208160448160008c5af19150816113bc576113bc611893565b600082156113dd576113ce3d8361086d565b6113da3d8301836105bd565b90505b6113e681611520565b5050506113f38189610ce8565b5161140461121d611217848c610ce8565b915061140f8161149b565b60405184815290915082828a7fb0657052acbf78260696b569dbe3a1f1f39287b5a3c378f5bca0c20fbf062dec602085a450505061144d818461077c565b92505061145981610cc8565b90506112a3565b5061148a61148285600160a060020a0316600090815260036020526040902090565b5482146115e0565b50505061149660018055565b505050565b6000604051806114ab828561065c565b03902092915050565b60006040516114c3818461065c565b60048152819003602001902092915050565b60e060020a634e487b7102600052601160045260246000fd5b60e060020a634e487b7102600052603260045260246000fd5b60e060020a634e487b7102600052604160045260246000fd5b806103e85760405160e560020a62461bcd02815260206004820152602060248201527f55534443207472616e7366657220746f2063686172697479206661696c65642e6044820152606481fd5b806103e85760405160e560020a62461bcd02815260206004820152602560248201527f417474656d707420746f20646f6e61746520746f20756e6b6e6f776e2063686160448201527f726974792e0000000000000000000000000000000000000000000000000000006064820152608481fd5b806103e85760405160e560020a62461bcd02815260206004820152601c60248201527f4d7573742066696e616c697a6520656e746972652062616c616e6365000000006044820152606481fd5b806103e85760405160e560020a62461bcd02815260206004820152602260248201527f546f74616c2066696e616c697a6174696f6e20616d6f756e7420746f6f20686960448201527f67680000000000000000000000000000000000000000000000000000000000006064820152608481fd5b806103e85760405160e560020a62461bcd02815260206004820152602760248201527f4661696c656420746f2073656e642067617320746f20657068656d6572616c2060448201527f77616c6c65742e000000000000000000000000000000000000000000000000006064820152608481fd5b806103e85760405160e560020a62461bcd02815260206004820152603160248201527f43686172697469657320616e6420616d6f756e747320617272617973206f662060448201527f646966666572656e74206c656e6774682e0000000000000000000000000000006064820152608481fd5b806103e85760405160e560020a62461bcd02815260206004820152601d60248201527f556e617574686f72697a6174696f6e2066696e616c697a6174696f6e2e0000006044820152606481fd5b806103e85760405160e560020a62461bcd02815260206004820152602360248201527f43686172697479206164647265737320616c726561647920726567697374657260448201527f65642e00000000000000000000000000000000000000000000000000000000006064820152608481fd5b806103e85760405160e560020a62461bcd02815260206004820152601f60248201527f5265656e7472616e637947756172643a207265656e7472616e742063616c6c006044820152606481fd5b6040513d6000823e3d81fdfea36469706673582212204207b2f49da0e02bc912fe2a58cef7fdcb3fa0b023f1bc011691da8686f295206c6578706572696d656e74616cf564736f6c63430008070041",
					"opcodes": "PUSH1 0xE0 PUSH1 0x40 MSTORE CALLVALUE ISZERO PUSH3 0x10 JUMPI PUSH1 0x0 DUP1 REVERT JUMPDEST PUSH3 0x1A7A DUP1 CODESIZE SUB PUSH1 0x1F NOT PUSH1 0x1F DUP3 ADD AND PUSH1 0xE0 ADD PUSH1 0xE0 DUP2 LT PUSH8 0xFFFFFFFFFFFFFFFF DUP3 GT OR ISZERO PUSH3 0x67 JUMPI PUSH32 0x4E487B7100000000000000000000000000000000000000000000000000000000 PUSH1 0x0 MSTORE PUSH1 0x41 PUSH1 0x4 MSTORE PUSH1 0x24 PUSH1 0x0 REVERT JUMPDEST PUSH1 0x40 MSTORE DUP1 DUP3 PUSH1 0xE0 CODECOPY PUSH1 0x80 DUP2 SLT ISZERO PUSH3 0x7E JUMPI PUSH1 0x0 DUP1 REVERT JUMPDEST POP POP PUSH1 0xE0 MLOAD PUSH3 0x8E DUP2 PUSH3 0x17D JUMP JUMPDEST PUSH2 0x100 MLOAD PUSH2 0x120 MLOAD PUSH3 0xA1 DUP2 PUSH3 0x17D JUMP JUMPDEST PUSH2 0x140 MLOAD PUSH3 0xB0 DUP2 PUSH3 0x17D JUMP JUMPDEST PUSH3 0xBE DUP2 DUP4 DUP6 DUP8 PUSH3 0x109 JUMP JUMPDEST POP POP POP POP PUSH1 0x40 MLOAD PUSH2 0x18E3 DUP1 PUSH3 0x197 DUP4 CODECOPY PUSH1 0x80 MLOAD DUP3 DUP2 DUP2 PUSH1 0xF5 ADD MSTORE PUSH2 0xE7F ADD MSTORE PUSH1 0xA0 MLOAD DUP3 DUP2 DUP2 PUSH2 0x1EB ADD MSTORE DUP2 DUP2 PUSH2 0x102B ADD MSTORE PUSH2 0x1280 ADD MSTORE PUSH1 0xC0 MLOAD DUP3 DUP2 DUP2 PUSH2 0x25C ADD MSTORE PUSH2 0xE51 ADD MSTORE DUP1 DUP3 RETURN JUMPDEST PUSH1 0x0 DUP1 SLOAD CALLER PUSH1 0x1 PUSH1 0xA0 PUSH1 0x2 EXP SUB NOT DUP3 AND DUP2 OR DUP4 SSTORE PUSH1 0x40 MLOAD SWAP2 SWAP3 SWAP1 SWAP2 PUSH1 0x1 PUSH1 0xA0 PUSH1 0x2 EXP SUB DUP5 AND SWAP2 PUSH32 0x8BE0079C531659141344CD1FD0A4F28419497F9722A3DAAFE3B4186F6B6457E0 SWAP2 LOG3 PUSH1 0x1 PUSH1 0xA8 PUSH1 0x2 EXP SUB NOT AND CALLER PUSH1 0xA0 PUSH1 0x2 EXP PUSH1 0xFF MUL NOT AND OR PUSH1 0x0 SSTORE PUSH1 0x1 DUP1 SSTORE PUSH1 0xC0 MSTORE PUSH1 0x2 SSTORE PUSH1 0x80 MSTORE PUSH1 0xA0 MSTORE JUMP JUMPDEST PUSH1 0x1 PUSH1 0xA0 PUSH1 0x2 EXP SUB DUP2 AND DUP2 EQ PUSH3 0x193 JUMPI PUSH1 0x0 DUP1 REVERT JUMPDEST POP JUMP INVALID PUSH1 0x40 PUSH1 0x80 DUP2 MSTORE PUSH1 0x4 CALLDATASIZE LT PUSH2 0x2E4 JUMPI PUSH1 0x0 PUSH29 0x100000000000000000000000000000000000000000000000000000000 DUP2 CALLDATALOAD DIV PUSH4 0x480A6FDC DUP2 EQ PUSH2 0xAE JUMPI PUSH4 0x4AA4A4FC DUP2 EQ PUSH2 0xDE JUMPI PUSH4 0x5C975ABB DUP2 EQ PUSH2 0x128 JUMPI PUSH4 0x715018A6 DUP2 EQ PUSH2 0x16A JUMPI PUSH4 0x745284CE DUP2 EQ PUSH2 0x18A JUMPI PUSH4 0x7AED7746 DUP2 EQ PUSH2 0x1B0 JUMPI PUSH4 0x89A30271 DUP2 EQ PUSH2 0x1D4 JUMPI PUSH4 0x8DA5CB5B DUP2 EQ PUSH2 0x21A JUMPI PUSH4 0xC31C9C07 DUP2 EQ PUSH2 0x245 JUMPI PUSH4 0xF2FDE38B DUP2 EQ PUSH2 0x28B JUMPI PUSH4 0xF8B2CB4F DUP2 EQ PUSH2 0x2A6 JUMPI PUSH2 0x2E1 JUMP JUMPDEST CALLVALUE ISZERO PUSH2 0xB8 JUMPI DUP2 DUP3 REVERT JUMPDEST PUSH2 0xC1 CALLDATASIZE PUSH2 0x431 JUMP JUMPDEST PUSH2 0xD1 DUP2 DUP4 DUP6 DUP8 DUP10 DUP12 DUP14 DUP16 PUSH2 0xE1E JUMP JUMPDEST POP POP POP POP POP POP POP POP DUP2 DUP4 MLOAD RETURN JUMPDEST CALLVALUE ISZERO PUSH2 0xE8 JUMPI DUP2 DUP3 REVERT JUMPDEST PUSH2 0xF1 CALLDATASIZE PUSH2 0x3D6 JUMP JUMPDEST DUP3 MLOAD PUSH32 0x0 PUSH1 0x1 PUSH1 0xA0 PUSH1 0x2 EXP SUB AND DUP2 MSTORE PUSH1 0x20 DUP2 RETURN JUMPDEST SUB DUP2 RETURN JUMPDEST CALLVALUE ISZERO PUSH2 0x132 JUMPI DUP2 DUP3 REVERT JUMPDEST PUSH2 0x13B CALLDATASIZE PUSH2 0x3D6 JUMP JUMPDEST PUSH1 0xFF PUSH21 0x10000000000000000000000000000000000000000 DUP4 SLOAD DIV AND DUP4 MLOAD DUP1 PUSH2 0x124 DUP4 DUP4 SWAP1 ISZERO ISZERO DUP2 MSTORE PUSH1 0x20 ADD SWAP1 JUMP JUMPDEST CALLVALUE ISZERO PUSH2 0x174 JUMPI DUP2 DUP3 REVERT JUMPDEST PUSH2 0x17D CALLDATASIZE PUSH2 0x3D6 JUMP JUMPDEST PUSH2 0x185 PUSH2 0xD05 JUMP JUMPDEST DUP2 DUP4 MLOAD RETURN JUMPDEST CALLVALUE ISZERO PUSH2 0x194 JUMPI DUP2 DUP3 REVERT JUMPDEST PUSH2 0x19D CALLDATASIZE PUSH2 0x4CC JUMP JUMPDEST PUSH2 0x1A8 DUP2 DUP4 DUP6 PUSH2 0x1173 JUMP JUMPDEST POP POP POP DUP2 DUP4 MLOAD RETURN JUMPDEST CALLVALUE ISZERO PUSH2 0x1BA JUMPI DUP2 DUP3 REVERT JUMPDEST PUSH2 0x1C3 CALLDATASIZE PUSH2 0x5E6 JUMP JUMPDEST PUSH2 0x1CD DUP2 DUP4 PUSH2 0x9F3 JUMP JUMPDEST POP POP DUP2 DUP4 MLOAD RETURN JUMPDEST CALLVALUE ISZERO PUSH2 0x1DE JUMPI DUP2 DUP3 REVERT JUMPDEST PUSH2 0x1E7 CALLDATASIZE PUSH2 0x3D6 JUMP JUMPDEST DUP3 MLOAD PUSH32 0x0 PUSH1 0x1 PUSH1 0xA0 PUSH1 0x2 EXP SUB AND DUP2 MSTORE PUSH1 0x20 DUP2 RETURN JUMPDEST CALLVALUE ISZERO PUSH2 0x224 JUMPI DUP2 DUP3 REVERT JUMPDEST PUSH2 0x22D CALLDATASIZE PUSH2 0x3D6 JUMP JUMPDEST DUP2 SLOAD DUP4 MLOAD PUSH1 0x1 PUSH1 0xA0 PUSH1 0x2 EXP SUB SWAP1 SWAP2 AND DUP1 DUP3 MSTORE SWAP1 PUSH1 0x20 DUP2 RETURN JUMPDEST CALLVALUE ISZERO PUSH2 0x24F JUMPI DUP2 DUP3 REVERT JUMPDEST PUSH2 0x258 CALLDATASIZE PUSH2 0x3D6 JUMP JUMPDEST DUP3 MLOAD PUSH32 0x0 PUSH1 0x1 PUSH1 0xA0 PUSH1 0x2 EXP SUB AND DUP2 MSTORE PUSH1 0x20 DUP2 RETURN JUMPDEST CALLVALUE ISZERO PUSH2 0x295 JUMPI DUP2 DUP3 REVERT JUMPDEST PUSH2 0x185 PUSH2 0x2A1 CALLDATASIZE PUSH2 0x3FF JUMP JUMPDEST PUSH2 0xD54 JUMP JUMPDEST CALLVALUE ISZERO PUSH2 0x2B0 JUMPI DUP2 DUP3 REVERT JUMPDEST PUSH2 0x2D7 PUSH2 0x2BC CALLDATASIZE PUSH2 0x3FF JUMP JUMPDEST PUSH1 0x1 PUSH1 0xA0 PUSH1 0x2 EXP SUB AND PUSH1 0x0 SWAP1 DUP2 MSTORE PUSH1 0x3 PUSH1 0x20 MSTORE PUSH1 0x40 SWAP1 KECCAK256 SLOAD SWAP1 JUMP JUMPDEST DUP4 MLOAD DUP2 DUP2 MSTORE PUSH1 0x20 DUP2 RETURN JUMPDEST POP POP JUMPDEST POP PUSH1 0x0 DUP1 REVERT JUMPDEST PUSH1 0x4 CALLDATALOAD PUSH1 0x1 PUSH1 0xA0 PUSH1 0x2 EXP SUB DUP2 AND DUP2 EQ PUSH2 0x302 JUMPI PUSH1 0x0 DUP1 REVERT JUMPDEST SWAP1 JUMP JUMPDEST PUSH1 0x0 DUP3 PUSH1 0x1F DUP4 ADD SLT PUSH2 0x316 JUMPI PUSH1 0x0 DUP1 REVERT JUMPDEST DUP2 CALLDATALOAD PUSH2 0x321 DUP2 PUSH2 0x730 JUMP JUMPDEST PUSH1 0x40 MLOAD PUSH2 0x32E DUP3 DUP3 PUSH2 0x86D JUMP JUMPDEST DUP3 DUP2 MSTORE PUSH1 0x20 DUP1 DUP3 ADD SWAP3 POP DUP6 DUP2 ADD DUP2 DUP6 MUL DUP8 ADD DUP3 ADD DUP9 LT ISZERO PUSH2 0x34E JUMPI PUSH1 0x0 DUP1 REVERT JUMPDEST PUSH1 0x0 JUMPDEST DUP6 DUP2 LT ISZERO PUSH2 0x36D JUMPI DUP2 CALLDATALOAD DUP6 MSTORE SWAP4 DUP3 ADD SWAP4 SWAP1 DUP3 ADD SWAP1 PUSH1 0x1 ADD PUSH2 0x351 JUMP JUMPDEST POP SWAP2 SWAP8 SWAP7 POP POP POP POP POP POP POP JUMP JUMPDEST PUSH1 0x0 DUP3 PUSH1 0x1F DUP4 ADD SLT PUSH2 0x38B JUMPI PUSH1 0x0 DUP1 REVERT JUMPDEST DUP2 CALLDATALOAD PUSH2 0x396 DUP2 PUSH2 0x754 JUMP JUMPDEST PUSH1 0x40 MLOAD PUSH2 0x3A3 DUP3 DUP3 PUSH2 0x86D JUMP JUMPDEST DUP3 DUP2 MSTORE DUP6 PUSH1 0x20 DUP5 DUP8 ADD ADD GT ISZERO PUSH2 0x3B8 JUMPI PUSH1 0x0 DUP1 REVERT JUMPDEST DUP3 PUSH1 0x20 DUP7 ADD PUSH1 0x20 DUP4 ADD CALLDATACOPY PUSH1 0x0 SWAP3 DUP2 ADD PUSH1 0x20 ADD SWAP3 SWAP1 SWAP3 MSTORE POP SWAP4 SWAP3 POP POP POP JUMP JUMPDEST PUSH1 0x0 PUSH1 0x3 NOT DUP3 ADD SLT ISZERO PUSH2 0x3E8 JUMPI PUSH1 0x0 DUP1 REVERT JUMPDEST POP JUMP JUMPDEST PUSH1 0x0 DUP2 DUP4 SUB SLT ISZERO PUSH2 0x3FB JUMPI PUSH1 0x0 DUP1 REVERT JUMPDEST POP POP JUMP JUMPDEST PUSH1 0x0 PUSH1 0x20 PUSH1 0x3 NOT DUP4 ADD SLT ISZERO PUSH2 0x413 JUMPI PUSH1 0x0 DUP1 REVERT JUMPDEST PUSH1 0x4 CALLDATALOAD PUSH1 0x1 PUSH1 0xA0 PUSH1 0x2 EXP SUB DUP2 AND DUP2 EQ PUSH2 0x42B JUMPI PUSH1 0x0 DUP1 REVERT JUMPDEST SWAP3 SWAP2 POP POP JUMP JUMPDEST PUSH1 0x0 DUP1 DUP1 DUP1 DUP1 DUP1 DUP1 DUP1 PUSH2 0x100 PUSH1 0x3 NOT DUP11 ADD SLT ISZERO PUSH2 0x44D JUMPI PUSH1 0x0 DUP1 REVERT JUMPDEST PUSH1 0x4 CALLDATALOAD PUSH1 0x1 PUSH1 0xA0 PUSH1 0x2 EXP SUB DUP1 DUP3 AND DUP3 EQ PUSH2 0x466 JUMPI PUSH1 0x0 DUP1 REVERT JUMPDEST SWAP1 SWAP9 POP PUSH1 0x24 CALLDATALOAD SWAP1 DUP1 DUP3 AND DUP3 EQ PUSH2 0x47B JUMPI PUSH1 0x0 DUP1 REVERT JUMPDEST POP SWAP7 POP PUSH1 0x44 CALLDATALOAD SWAP6 POP PUSH1 0x64 CALLDATALOAD SWAP5 POP PUSH1 0x84 CALLDATALOAD SWAP4 POP PUSH1 0xA4 CALLDATALOAD PUSH3 0xFFFFFF DUP1 DUP3 AND DUP3 EQ PUSH2 0x4A2 JUMPI PUSH1 0x0 DUP1 REVERT JUMPDEST SWAP1 SWAP4 POP PUSH1 0xC4 CALLDATALOAD SWAP1 DUP1 DUP3 AND DUP3 EQ PUSH2 0x4B7 JUMPI PUSH1 0x0 DUP1 REVERT JUMPDEST POP DUP1 SWAP3 POP POP PUSH1 0xE4 CALLDATALOAD SWAP1 POP SWAP2 SWAP4 SWAP6 SWAP8 POP SWAP2 SWAP4 SWAP6 SWAP8 JUMP JUMPDEST PUSH1 0x0 DUP1 DUP1 PUSH1 0x60 PUSH1 0x3 NOT DUP6 ADD SLT ISZERO PUSH2 0x4E2 JUMPI PUSH1 0x0 DUP1 REVERT JUMPDEST PUSH2 0x4EA PUSH2 0x2EA JUMP JUMPDEST SWAP3 POP PUSH1 0x24 DUP1 CALLDATALOAD PUSH8 0xFFFFFFFFFFFFFFFF DUP1 DUP3 GT ISZERO PUSH2 0x506 JUMPI PUSH1 0x0 DUP1 REVERT JUMPDEST DUP7 PUSH1 0x23 DUP4 ADD SLT PUSH2 0x515 JUMPI PUSH1 0x0 DUP1 REVERT JUMPDEST DUP2 PUSH1 0x4 ADD CALLDATALOAD PUSH2 0x523 DUP2 PUSH2 0x730 JUMP JUMPDEST PUSH1 0x40 MLOAD PUSH2 0x530 DUP3 DUP3 PUSH2 0x86D JUMP JUMPDEST DUP3 DUP2 MSTORE PUSH1 0x20 DUP1 DUP3 ADD SWAP3 POP DUP6 DUP8 ADD DUP2 DUP6 MUL DUP8 ADD DUP9 ADD DUP13 LT ISZERO PUSH2 0x550 JUMPI PUSH1 0x0 DUP1 REVERT JUMPDEST PUSH1 0x0 JUMPDEST DUP6 DUP2 LT ISZERO PUSH2 0x58B JUMPI DUP2 CALLDATALOAD DUP8 DUP2 GT ISZERO PUSH2 0x56A JUMPI PUSH1 0x0 DUP1 REVERT JUMPDEST PUSH2 0x578 DUP15 DUP12 DUP4 DUP13 ADD ADD PUSH2 0x37A JUMP JUMPDEST DUP7 MSTORE POP SWAP4 DUP3 ADD SWAP4 SWAP1 DUP3 ADD SWAP1 PUSH1 0x1 ADD PUSH2 0x553 JUMP JUMPDEST POP SWAP2 SWAP9 POP POP PUSH1 0x44 CALLDATALOAD SWAP6 POP POP POP POP DUP1 DUP4 GT ISZERO PUSH2 0x5A5 JUMPI PUSH1 0x0 DUP1 REVERT JUMPDEST POP POP PUSH2 0x5B4 DUP6 DUP3 PUSH1 0x4 ADD PUSH2 0x305 JUMP JUMPDEST SWAP4 SWAP6 SWAP3 SWAP5 POP POP POP JUMP JUMPDEST PUSH1 0x0 PUSH1 0x20 DUP3 DUP5 SUB SLT ISZERO PUSH2 0x5CF JUMPI PUSH1 0x0 DUP1 REVERT JUMPDEST DUP2 MLOAD DUP1 ISZERO ISZERO DUP2 EQ PUSH2 0x5DF JUMPI PUSH1 0x0 DUP1 REVERT JUMPDEST SWAP4 SWAP3 POP POP POP JUMP JUMPDEST PUSH1 0x0 DUP1 PUSH1 0x40 PUSH1 0x3 NOT DUP5 ADD SLT ISZERO PUSH2 0x5FB JUMPI PUSH1 0x0 DUP1 REVERT JUMPDEST PUSH1 0x4 CALLDATALOAD PUSH8 0xFFFFFFFFFFFFFFFF DUP2 GT ISZERO PUSH2 0x613 JUMPI PUSH1 0x0 DUP1 REVERT JUMPDEST PUSH2 0x620 DUP5 DUP3 PUSH1 0x4 ADD PUSH2 0x37A JUMP JUMPDEST SWAP3 POP POP PUSH1 0x24 CALLDATALOAD PUSH1 0x1 PUSH1 0xA0 PUSH1 0x2 EXP SUB DUP2 AND DUP2 EQ PUSH2 0x63B JUMPI PUSH1 0x0 DUP1 REVERT JUMPDEST SWAP2 SWAP4 SWAP2 SWAP3 POP POP JUMP JUMPDEST PUSH1 0x0 PUSH1 0x20 DUP3 DUP5 SUB SLT ISZERO PUSH2 0x655 JUMPI PUSH1 0x0 DUP1 REVERT JUMPDEST POP MLOAD SWAP2 SWAP1 POP JUMP JUMPDEST PUSH1 0x0 DUP2 MLOAD PUSH1 0x0 JUMPDEST DUP2 DUP2 LT ISZERO PUSH2 0x67D JUMPI PUSH1 0x20 DUP2 DUP6 ADD DUP2 ADD MLOAD DUP7 DUP4 ADD MSTORE ADD PUSH2 0x663 JUMP JUMPDEST DUP2 DUP2 GT ISZERO PUSH2 0x68C JUMPI PUSH1 0x0 DUP3 DUP7 ADD MSTORE JUMPDEST POP SWAP3 SWAP1 SWAP3 ADD SWAP3 SWAP2 POP POP JUMP JUMPDEST PUSH1 0x0 PUSH2 0x100 DUP3 ADD SWAP1 POP PUSH1 0x1 PUSH1 0xA0 PUSH1 0x2 EXP SUB DUP1 DUP5 MLOAD AND DUP4 MSTORE DUP1 PUSH1 0x20 DUP6 ADD MLOAD AND PUSH1 0x20 DUP5 ADD MSTORE PUSH3 0xFFFFFF PUSH1 0x40 DUP6 ADD MLOAD AND PUSH1 0x40 DUP5 ADD MSTORE DUP1 PUSH1 0x60 DUP6 ADD MLOAD AND PUSH1 0x60 DUP5 ADD MSTORE PUSH1 0x80 DUP5 ADD MLOAD PUSH1 0x80 DUP5 ADD MSTORE PUSH1 0xA0 DUP5 ADD MLOAD PUSH1 0xA0 DUP5 ADD MSTORE PUSH1 0xC0 DUP5 ADD MLOAD PUSH1 0xC0 DUP5 ADD MSTORE DUP1 PUSH1 0xE0 DUP6 ADD MLOAD AND PUSH1 0xE0 DUP5 ADD MSTORE POP SWAP3 SWAP2 POP POP JUMP JUMPDEST PUSH1 0x40 MLOAD PUSH2 0x100 DUP2 ADD PUSH8 0xFFFFFFFFFFFFFFFF DUP2 GT DUP3 DUP3 LT OR ISZERO PUSH2 0x72A JUMPI PUSH2 0x72A PUSH2 0x1507 JUMP JUMPDEST PUSH1 0x40 MSTORE SWAP1 JUMP JUMPDEST PUSH1 0x0 PUSH8 0xFFFFFFFFFFFFFFFF DUP3 GT ISZERO PUSH2 0x74A JUMPI PUSH2 0x74A PUSH2 0x1507 JUMP JUMPDEST POP PUSH1 0x20 SWAP1 DUP2 MUL ADD SWAP1 JUMP JUMPDEST PUSH1 0x0 PUSH8 0xFFFFFFFFFFFFFFFF DUP3 GT ISZERO PUSH2 0x76E JUMPI PUSH2 0x76E PUSH2 0x1507 JUMP JUMPDEST POP PUSH1 0x1F ADD PUSH1 0x1F NOT AND PUSH1 0x20 ADD SWAP1 JUMP JUMPDEST PUSH1 0x0 DUP3 NOT DUP3 GT ISZERO PUSH2 0x78F JUMPI PUSH2 0x78F PUSH2 0x14D5 JUMP JUMPDEST POP ADD SWAP1 JUMP JUMPDEST PUSH1 0x0 DUP3 PUSH2 0x7B4 JUMPI PUSH1 0xE0 PUSH1 0x2 EXP PUSH4 0x4E487B71 MUL PUSH1 0x0 MSTORE PUSH1 0x12 PUSH1 0x4 MSTORE PUSH1 0x24 PUSH1 0x0 REVERT JUMPDEST POP DIV SWAP1 JUMP JUMPDEST PUSH1 0x0 DUP2 PUSH1 0x0 NOT DIV DUP4 GT DUP3 ISZERO ISZERO AND ISZERO PUSH2 0x7D3 JUMPI PUSH2 0x7D3 PUSH2 0x14D5 JUMP JUMPDEST POP MUL SWAP1 JUMP JUMPDEST PUSH1 0x0 PUSH1 0x1 DUP3 LT ISZERO PUSH2 0x7EB JUMPI PUSH2 0x7EB PUSH2 0x14D5 JUMP JUMPDEST POP PUSH1 0x0 NOT ADD SWAP1 JUMP JUMPDEST PUSH1 0x0 DUP3 DUP3 LT ISZERO PUSH2 0x805 JUMPI PUSH2 0x805 PUSH2 0x14D5 JUMP JUMPDEST POP SUB SWAP1 JUMP JUMPDEST PUSH1 0x0 RETURNDATASIZE DUP1 ISZERO PUSH2 0x83F JUMPI RETURNDATASIZE PUSH2 0x81D DUP2 PUSH2 0x754 JUMP JUMPDEST PUSH1 0x40 MLOAD PUSH2 0x82A DUP3 DUP3 PUSH2 0x86D JUMP JUMPDEST DUP3 DUP2 MSTORE DUP1 SWAP5 POP RETURNDATASIZE PUSH1 0x0 PUSH1 0x20 DUP4 ADD RETURNDATACOPY POP POP POP POP SWAP1 JUMP JUMPDEST PUSH1 0x60 SWAP2 POP POP SWAP1 JUMP JUMPDEST PUSH1 0xA0 DUP2 ADD DUP2 DUP2 LT PUSH8 0xFFFFFFFFFFFFFFFF DUP3 GT OR ISZERO PUSH2 0x867 JUMPI PUSH2 0x867 PUSH2 0x1507 JUMP JUMPDEST PUSH1 0x40 MSTORE POP JUMP JUMPDEST PUSH1 0x1F DUP3 ADD PUSH1 0x1F NOT AND DUP2 ADD PUSH8 0xFFFFFFFFFFFFFFFF DUP2 GT DUP3 DUP3 LT OR ISZERO PUSH2 0x893 JUMPI PUSH2 0x893 PUSH2 0x1507 JUMP JUMPDEST PUSH1 0x40 MSTORE POP POP JUMP JUMPDEST PUSH1 0x0 DUP1 DUP3 DUP2 MSTORE PUSH1 0x7 PUSH1 0x20 MSTORE PUSH1 0x40 DUP2 KECCAK256 SLOAD ISZERO PUSH1 0x0 DUP2 EQ PUSH2 0x925 JUMPI PUSH1 0x6 SLOAD PUSH9 0x10000000000000000 DUP2 LT PUSH2 0x8CE JUMPI PUSH2 0x8CE PUSH2 0x1507 JUMP JUMPDEST PUSH1 0x1 DUP2 ADD DUP1 PUSH1 0x6 SSTORE DUP1 DUP3 LT PUSH2 0x8E5 JUMPI PUSH2 0x8E5 PUSH2 0x14EE JUMP JUMPDEST POP PUSH32 0xF652222313E28459528D920B65115C16C04F3EFC82AAEDC97BE59F3F377C0D3F ADD DUP5 SWAP1 SSTORE POP PUSH1 0x6 SLOAD SWAP3 DUP2 MSTORE PUSH1 0x7 PUSH1 0x20 MSTORE PUSH1 0x40 SWAP1 KECCAK256 SWAP2 SWAP1 SWAP2 SSTORE POP PUSH1 0x1 SWAP1 JUMP JUMPDEST POP SWAP3 SWAP2 POP POP JUMP JUMPDEST PUSH1 0x1 PUSH1 0xA0 PUSH1 0x2 EXP SUB PUSH1 0x0 SLOAD AND CALLER DUP2 EQ PUSH2 0x3E8 JUMPI PUSH1 0x40 MLOAD PUSH1 0xE5 PUSH1 0x2 EXP PUSH3 0x461BCD MUL DUP2 MSTORE PUSH1 0x20 PUSH1 0x4 DUP3 ADD MSTORE PUSH1 0x20 PUSH1 0x24 DUP3 ADD MSTORE PUSH32 0x4F776E61626C653A2063616C6C6572206973206E6F7420746865206F776E6572 PUSH1 0x44 DUP3 ADD MSTORE PUSH1 0x64 DUP2 REVERT JUMPDEST PUSH1 0xFF PUSH21 0x10000000000000000000000000000000000000000 PUSH1 0x0 SLOAD DIV AND ISZERO PUSH2 0x9F1 JUMPI PUSH1 0x40 MLOAD PUSH1 0xE5 PUSH1 0x2 EXP PUSH3 0x461BCD MUL DUP2 MSTORE PUSH1 0x20 PUSH1 0x4 DUP3 ADD MSTORE PUSH1 0x10 PUSH1 0x24 DUP3 ADD MSTORE PUSH32 0x5061757361626C653A2070617573656400000000000000000000000000000000 PUSH1 0x44 DUP3 ADD MSTORE PUSH1 0x64 DUP2 REVERT JUMPDEST JUMP JUMPDEST PUSH1 0x40 MLOAD PUSH2 0xA00 DUP2 DUP4 PUSH2 0x65C JUMP JUMPDEST PUSH1 0x4 DUP2 MSTORE PUSH1 0x1 PUSH1 0xA0 PUSH1 0x2 EXP SUB DUP1 PUSH1 0x20 DUP5 DUP5 SUB ADD DUP5 KECCAK256 SLOAD AND ISZERO PUSH2 0xA64 JUMPI PUSH1 0x40 MLOAD PUSH1 0xE5 PUSH1 0x2 EXP PUSH3 0x461BCD MUL DUP2 MSTORE PUSH1 0x20 PUSH1 0x4 DUP3 ADD MSTORE PUSH1 0x20 PUSH1 0x24 DUP3 ADD MSTORE PUSH32 0x43686172697479206E616D6520616C726561647920726567697374657265642E PUSH1 0x44 DUP3 ADD MSTORE PUSH1 0x64 DUP2 REVERT JUMPDEST DUP5 AND PUSH1 0x0 DUP2 DUP2 MSTORE PUSH1 0x5 PUSH1 0x20 MSTORE PUSH1 0x40 SWAP1 KECCAK256 SLOAD SWAP1 SWAP3 POP PUSH1 0x1 DUP2 AND SWAP2 POP PUSH1 0x2 SWAP1 DIV DUP2 PUSH2 0xA8B JUMPI PUSH1 0x7F AND JUMPDEST PUSH1 0x20 DUP2 LT DUP3 EQ ISZERO PUSH2 0xAAF JUMPI PUSH1 0xE0 PUSH1 0x2 EXP PUSH4 0x4E487B71 MUL PUSH1 0x0 MSTORE PUSH1 0x22 PUSH1 0x4 MSTORE PUSH1 0x24 PUSH1 0x0 REVERT JUMPDEST PUSH2 0xAB9 DUP2 ISZERO PUSH2 0x17D3 JUMP JUMPDEST POP POP PUSH2 0xAE5 DUP4 PUSH2 0xAC8 DUP5 PUSH2 0x14B4 JUMP JUMPDEST PUSH1 0x1 PUSH1 0xA0 PUSH1 0x2 EXP SUB DUP3 AND PUSH1 0x1 PUSH1 0xA0 PUSH1 0x2 EXP SUB NOT DUP3 SLOAD AND OR DUP2 SSTORE POP POP JUMP JUMPDEST PUSH2 0xAEE DUP2 PUSH2 0x89A JUMP JUMPDEST POP POP POP POP JUMP JUMPDEST PUSH1 0x40 MLOAD PUSH32 0x95EA7B300000000000000000000000000000000000000000000000000000000 PUSH1 0x20 DUP3 ADD SWAP1 DUP2 MSTORE PUSH1 0x1 PUSH1 0xA0 PUSH1 0x2 EXP SUB DUP5 AND PUSH1 0x24 DUP4 ADD MSTORE PUSH1 0x44 DUP1 DUP4 ADD DUP7 SWAP1 MSTORE DUP3 MSTORE PUSH1 0x64 PUSH2 0xB44 DUP2 DUP5 PUSH2 0x86D JUMP JUMPDEST POP PUSH1 0x0 DUP1 DUP4 MLOAD DUP4 PUSH1 0x0 DUP8 GAS CALL SWAP2 POP POP PUSH2 0xB5B PUSH2 0x80A JUMP JUMPDEST DUP2 DUP3 ISZERO PUSH2 0xB84 JUMPI DUP2 MLOAD DUP1 ISZERO DUP1 PUSH2 0xB80 JUMPI PUSH2 0xB7D PUSH1 0x20 DUP4 DUP7 ADD ADD PUSH1 0x20 DUP7 ADD PUSH2 0x5BD JUMP JUMPDEST SWAP1 POP JUMPDEST SWAP2 POP POP JUMPDEST DUP1 PUSH2 0xBD3 JUMPI PUSH1 0x40 MLOAD SWAP3 POP PUSH1 0xE5 PUSH1 0x2 EXP PUSH3 0x461BCD MUL DUP4 MSTORE PUSH1 0x20 PUSH1 0x4 DUP5 ADD MSTORE PUSH1 0x2 PUSH1 0x24 DUP5 ADD MSTORE PUSH32 0x5341000000000000000000000000000000000000000000000000000000000000 PUSH1 0x44 DUP5 ADD MSTORE PUSH1 0x64 DUP4 REVERT JUMPDEST POP POP POP POP POP POP JUMP JUMPDEST PUSH1 0x40 MLOAD PUSH1 0x20 DUP2 ADD PUSH32 0x23B872DD00000000000000000000000000000000000000000000000000000000 DUP2 MSTORE PUSH1 0x1 PUSH1 0xA0 PUSH1 0x2 EXP SUB DUP1 DUP6 AND PUSH1 0x24 DUP5 ADD MSTORE DUP1 DUP7 AND PUSH1 0x44 DUP5 ADD MSTORE POP DUP6 PUSH1 0x64 DUP4 ADD MSTORE PUSH1 0x64 DUP3 MSTORE PUSH2 0xC31 DUP3 PUSH2 0x847 JUMP JUMPDEST PUSH1 0x0 DUP1 DUP4 MLOAD DUP4 PUSH1 0x0 DUP8 GAS CALL SWAP2 POP POP PUSH2 0xC47 PUSH2 0x80A JUMP JUMPDEST DUP2 DUP3 ISZERO PUSH2 0xC70 JUMPI DUP2 MLOAD DUP1 ISZERO DUP1 PUSH2 0xC6C JUMPI PUSH2 0xC69 PUSH1 0x20 DUP4 DUP7 ADD ADD PUSH1 0x20 DUP7 ADD PUSH2 0x5BD JUMP JUMPDEST SWAP1 POP JUMPDEST SWAP2 POP POP JUMPDEST DUP1 PUSH2 0xCBF JUMPI PUSH1 0x40 MLOAD SWAP3 POP PUSH1 0xE5 PUSH1 0x2 EXP PUSH3 0x461BCD MUL DUP4 MSTORE PUSH1 0x20 PUSH1 0x4 DUP5 ADD MSTORE PUSH1 0x3 PUSH1 0x24 DUP5 ADD MSTORE PUSH32 0x5354460000000000000000000000000000000000000000000000000000000000 PUSH1 0x44 DUP5 ADD MSTORE PUSH1 0x64 DUP4 REVERT JUMPDEST POP POP POP POP POP POP POP JUMP JUMPDEST PUSH1 0x0 PUSH1 0xFF DUP3 AND PUSH1 0xFF DUP2 EQ ISZERO PUSH2 0xCDF JUMPI PUSH2 0xCDF PUSH2 0x14D5 JUMP JUMPDEST PUSH1 0x1 ADD SWAP3 SWAP2 POP POP JUMP JUMPDEST PUSH1 0x0 DUP2 MLOAD DUP4 LT PUSH2 0xCFA JUMPI PUSH2 0xCFA PUSH2 0x14EE JUMP JUMPDEST POP PUSH1 0x20 SWAP2 DUP3 MUL ADD ADD SWAP1 JUMP JUMPDEST PUSH2 0xD0D PUSH2 0x92C JUMP JUMPDEST PUSH1 0x0 SLOAD PUSH1 0x1 PUSH1 0xA0 PUSH1 0x2 EXP SUB NOT DUP2 AND PUSH1 0x0 SSTORE PUSH1 0x0 PUSH1 0x1 PUSH1 0xA0 PUSH1 0x2 EXP SUB DUP3 AND PUSH32 0x8BE0079C531659141344CD1FD0A4F28419497F9722A3DAAFE3B4186F6B6457E0 PUSH1 0x0 PUSH1 0x40 MLOAD LOG3 POP JUMP JUMPDEST PUSH2 0xD5C PUSH2 0x92C JUMP JUMPDEST PUSH1 0x1 PUSH1 0xA0 PUSH1 0x2 EXP SUB DUP1 DUP3 AND DUP1 PUSH2 0xDDA JUMPI PUSH1 0x40 MLOAD PUSH1 0xE5 PUSH1 0x2 EXP PUSH3 0x461BCD MUL DUP2 MSTORE PUSH1 0x20 PUSH1 0x4 DUP3 ADD MSTORE PUSH1 0x26 PUSH1 0x24 DUP3 ADD MSTORE PUSH32 0x4F776E61626C653A206E6577206F776E657220697320746865207A65726F2061 PUSH1 0x44 DUP3 ADD MSTORE PUSH32 0x6464726573730000000000000000000000000000000000000000000000000000 PUSH1 0x64 DUP3 ADD MSTORE PUSH1 0x84 DUP2 REVERT JUMPDEST PUSH1 0x0 SLOAD DUP2 PUSH1 0x1 PUSH1 0xA0 PUSH1 0x2 EXP SUB NOT DUP3 AND OR PUSH1 0x0 SSTORE DUP4 DUP4 DUP3 AND PUSH32 0x8BE0079C531659141344CD1FD0A4F28419497F9722A3DAAFE3B4186F6B6457E0 PUSH1 0x0 PUSH1 0x40 MLOAD LOG3 POP POP POP POP JUMP JUMPDEST PUSH2 0xE26 PUSH2 0x987 JUMP JUMPDEST PUSH1 0x2 PUSH2 0xE36 DUP2 PUSH1 0x1 SLOAD EQ ISZERO PUSH2 0x1846 JUMP JUMPDEST DUP1 PUSH1 0x1 SSTORE PUSH2 0xE46 DUP5 ADDRESS CALLER DUP7 PUSH2 0xBDB JUMP JUMPDEST PUSH1 0x1 PUSH1 0xA0 PUSH1 0x2 EXP SUB DUP1 PUSH32 0x0 AND PUSH2 0xE7C DUP7 DUP3 DUP8 PUSH2 0xAF4 JUMP JUMPDEST DUP2 PUSH32 0x0 AND DUP4 SLOAD PUSH2 0xEA9 PUSH2 0x706 JUMP JUMPDEST PUSH1 0x1 PUSH1 0xA0 PUSH1 0x2 EXP SUB DUP9 AND DUP2 MSTORE PUSH1 0x1 PUSH1 0xA0 PUSH1 0x2 EXP SUB DUP4 AND PUSH1 0x20 DUP3 ADD MSTORE PUSH3 0xFFFFFF DUP13 AND PUSH1 0x40 DUP3 DUP2 ADD SWAP2 SWAP1 SWAP2 MSTORE ADDRESS PUSH1 0x60 DUP4 ADD MSTORE DUP11 PUSH1 0x80 DUP4 ADD MSTORE DUP3 PUSH1 0xA0 DUP4 ADD MSTORE DUP12 PUSH1 0xC0 DUP4 ADD MSTORE PUSH1 0x0 SWAP3 POP DUP3 PUSH1 0xE0 DUP4 ADD MSTORE DUP5 EXTCODESIZE PUSH2 0xEFF JUMPI DUP3 DUP4 REVERT JUMPDEST DUP1 MLOAD PUSH32 0xDB3E219800000000000000000000000000000000000000000000000000000000 DUP2 MSTORE PUSH1 0x20 DUP2 DUP3 PUSH2 0xF35 DUP7 PUSH1 0x4 DUP7 ADD PUSH2 0x697 JUMP JUMPDEST SUB DUP4 DUP8 DUP11 GAS CALL SWAP3 POP DUP3 PUSH2 0xF4A JUMPI PUSH2 0xF4A PUSH2 0x1893 JUMP JUMPDEST DUP4 DUP4 ISZERO PUSH2 0xF6A JUMPI PUSH2 0xF5B RETURNDATASIZE DUP4 PUSH2 0x86D JUMP JUMPDEST PUSH2 0xF67 RETURNDATASIZE DUP4 ADD DUP4 PUSH2 0x643 JUMP JUMPDEST SWAP1 POP JUMPDEST DUP9 SLOAD SWAP4 POP DUP6 EXTCODESIZE PUSH2 0xF78 JUMPI DUP5 DUP6 REVERT JUMPDEST DUP3 MLOAD PUSH32 0x2E1A7D4D00000000000000000000000000000000000000000000000000000000 DUP2 MSTORE PUSH1 0x4 DUP2 ADD DUP6 SWAP1 MSTORE SWAP2 POP DUP5 DUP3 PUSH1 0x24 DUP2 DUP4 DUP11 GAS CALL SWAP6 POP DUP6 PUSH2 0xFBE JUMPI PUSH2 0xFBE PUSH2 0x1893 JUMP JUMPDEST DUP6 ISZERO PUSH2 0xFDA JUMPI PUSH2 0xFCE RETURNDATASIZE DUP4 PUSH2 0x86D JUMP JUMPDEST PUSH2 0xFDA RETURNDATASIZE DUP4 ADD DUP4 PUSH2 0x3EB JUMP JUMPDEST DUP9 SLOAD SWAP6 POP DUP5 DUP6 DUP7 DUP6 MLOAD DUP10 DUP13 DUP16 AND GAS CALL SWAP6 POP PUSH2 0xFF3 PUSH2 0x80A JUMP JUMPDEST POP PUSH2 0xFFD DUP7 PUSH2 0x16A0 JUMP JUMPDEST PUSH2 0x1007 DUP2 DUP14 PUSH2 0x7F3 JUMP JUMPDEST SWAP6 POP POP POP PUSH2 0x1013 PUSH2 0x706 JUMP JUMPDEST PUSH1 0x1 PUSH1 0xA0 PUSH1 0x2 EXP SUB DUP11 AND DUP2 MSTORE SWAP2 POP PUSH1 0x1 PUSH1 0xA0 PUSH1 0x2 EXP SUB PUSH32 0x0 DUP8 AND AND PUSH1 0x20 DUP4 ADD MSTORE PUSH3 0xFFFFFF DUP15 AND DUP3 DUP3 ADD MSTORE ADDRESS PUSH1 0x60 DUP4 ADD MSTORE DUP11 PUSH1 0x80 DUP4 ADD MSTORE DUP4 PUSH1 0xA0 DUP4 ADD MSTORE DUP15 PUSH1 0xC0 DUP4 ADD MSTORE DUP3 PUSH1 0xE0 DUP4 ADD MSTORE DUP5 EXTCODESIZE PUSH2 0x1084 JUMPI DUP3 DUP4 REVERT JUMPDEST DUP1 MLOAD SWAP6 POP PUSH32 0x414BF38900000000000000000000000000000000000000000000000000000000 DUP7 MSTORE PUSH1 0x20 DUP7 DUP8 PUSH2 0x10BC DUP6 PUSH1 0x4 DUP12 ADD PUSH2 0x697 JUMP JUMPDEST SUB DUP9 DUP7 DUP10 GAS CALL SWAP5 POP DUP5 PUSH2 0x10D1 JUMPI PUSH2 0x10D1 PUSH2 0x1893 JUMP JUMPDEST DUP3 SWAP4 POP DUP5 ISZERO PUSH2 0x10F3 JUMPI PUSH2 0x10E4 RETURNDATASIZE DUP8 PUSH2 0x86D JUMP JUMPDEST PUSH2 0x10F0 RETURNDATASIZE DUP8 ADD DUP8 PUSH2 0x643 JUMP JUMPDEST SWAP4 POP JUMPDEST PUSH1 0x1 PUSH1 0xA0 PUSH1 0x2 EXP SUB DUP9 AND PUSH1 0x0 SWAP1 DUP2 MSTORE PUSH1 0x3 PUSH1 0x20 MSTORE PUSH1 0x40 SWAP1 KECCAK256 SWAP6 POP PUSH2 0x1118 DUP5 DUP8 SLOAD PUSH2 0x77C JUMP JUMPDEST SWAP1 SWAP6 SSTORE POP POP SWAP3 SLOAD SWAP2 MLOAD DUP7 DUP2 MSTORE PUSH1 0x20 DUP2 ADD DUP4 SWAP1 MSTORE PUSH1 0x40 DUP2 ADD DUP5 SWAP1 MSTORE SWAP2 SWAP3 DUP6 DUP6 CALLER PUSH32 0x860654AD3D0539DBAC86150676768B53A47900BB45C5EB8D8D000FFBC4F67E6 PUSH1 0x60 DUP8 LOG4 POP POP POP POP PUSH2 0x1169 PUSH1 0x1 DUP1 SSTORE JUMP JUMPDEST POP POP POP POP POP POP POP POP JUMP JUMPDEST PUSH2 0x117B PUSH2 0x987 JUMP JUMPDEST PUSH2 0x118A PUSH1 0x2 PUSH1 0x1 SLOAD EQ ISZERO PUSH2 0x1846 JUMP JUMPDEST PUSH1 0x2 PUSH1 0x1 SSTORE PUSH1 0x1 PUSH1 0xA0 PUSH1 0x2 EXP SUB DUP1 DUP3 AND CALLER EQ DUP1 PUSH2 0x11BA JUMPI PUSH2 0x11B5 DUP3 PUSH1 0x0 SLOAD AND PUSH1 0x1 PUSH1 0xA0 PUSH1 0x2 EXP SUB AND SWAP1 JUMP JUMPDEST CALLER EQ SWAP1 POP JUMPDEST PUSH2 0x11C3 DUP2 PUSH2 0x1786 JUMP JUMPDEST POP DUP3 MLOAD PUSH2 0x11D2 DUP6 MLOAD DUP3 EQ PUSH2 0x1713 JUMP JUMPDEST POP PUSH1 0x0 DUP1 JUMPDEST DUP5 MLOAD PUSH1 0xFF DUP3 AND DUP2 DUP2 LT PUSH2 0x11EB JUMPI POP POP PUSH2 0x124F JUMP JUMPDEST PUSH2 0x11FF PUSH2 0x11F8 DUP3 DUP11 PUSH2 0xCE8 JUMP JUMPDEST MLOAD DUP6 PUSH2 0x77C JUMP JUMPDEST SWAP4 POP PUSH2 0x123D PUSH2 0x1236 PUSH2 0x122A PUSH2 0x121D PUSH2 0x1217 DUP6 DUP13 PUSH2 0xCE8 JUMP JUMPDEST MLOAD PUSH2 0x14B4 JUMP JUMPDEST SLOAD PUSH1 0x1 PUSH1 0xA0 PUSH1 0x2 EXP SUB AND SWAP1 JUMP JUMPDEST PUSH1 0x1 PUSH1 0xA0 PUSH1 0x2 EXP SUB AND SWAP1 JUMP JUMPDEST ISZERO ISZERO PUSH2 0x156D JUMP JUMPDEST POP POP PUSH2 0x1248 DUP2 PUSH2 0xCC8 JUMP JUMPDEST SWAP1 POP PUSH2 0x11D7 JUMP JUMPDEST POP PUSH2 0x127A PUSH2 0x1271 DUP5 PUSH1 0x1 PUSH1 0xA0 PUSH1 0x2 EXP SUB AND PUSH1 0x0 SWAP1 DUP2 MSTORE PUSH1 0x3 PUSH1 0x20 MSTORE PUSH1 0x40 SWAP1 KECCAK256 SWAP1 JUMP JUMPDEST SLOAD DUP3 GT ISZERO PUSH2 0x162D JUMP JUMPDEST PUSH1 0x0 DUP1 DUP4 PUSH32 0x0 AND SWAP4 POP JUMPDEST DUP6 MLOAD PUSH1 0xFF DUP3 AND DUP2 DUP2 LT PUSH2 0x12B7 JUMPI POP POP PUSH2 0x1460 JUMP JUMPDEST PUSH2 0x12C1 DUP2 DUP11 PUSH2 0xCE8 JUMP JUMPDEST MLOAD SWAP2 POP PUSH2 0x12EC DUP6 PUSH2 0x12E6 DUP10 PUSH1 0x1 PUSH1 0xA0 PUSH1 0x2 EXP SUB AND PUSH1 0x0 SWAP1 DUP2 MSTORE PUSH1 0x3 PUSH1 0x20 MSTORE PUSH1 0x40 SWAP1 KECCAK256 SWAP1 JUMP JUMPDEST SLOAD PUSH2 0x7F3 JUMP JUMPDEST PUSH2 0x1312 PUSH2 0x130C PUSH2 0x1306 DUP9 PUSH2 0x1300 DUP7 DUP16 PUSH2 0xCE8 JUMP JUMPDEST MLOAD PUSH2 0x794 JUMP JUMPDEST DUP4 PUSH2 0x7B9 JUMP JUMPDEST DUP5 PUSH2 0x77C JUMP JUMPDEST SWAP3 POP POP PUSH2 0x131F DUP9 MLOAD PUSH2 0x7D8 JUMP JUMPDEST DUP2 EQ ISZERO PUSH2 0x134B JUMPI PUSH2 0x1348 DUP5 PUSH2 0x12E6 DUP10 PUSH1 0x1 PUSH1 0xA0 PUSH1 0x2 EXP SUB AND PUSH1 0x0 SWAP1 DUP2 MSTORE PUSH1 0x3 PUSH1 0x20 MSTORE PUSH1 0x40 SWAP1 KECCAK256 SWAP1 JUMP JUMPDEST SWAP2 POP JUMPDEST PUSH2 0x135B PUSH2 0x121D PUSH2 0x1217 DUP4 DUP12 PUSH2 0xCE8 JUMP JUMPDEST DUP7 EXTCODESIZE PUSH2 0x1366 JUMPI PUSH1 0x0 DUP1 REVERT JUMPDEST PUSH1 0x40 MLOAD PUSH32 0xA9059CBB00000000000000000000000000000000000000000000000000000000 DUP2 MSTORE PUSH1 0x1 PUSH1 0xA0 PUSH1 0x2 EXP SUB DUP3 AND PUSH1 0x4 DUP3 ADD MSTORE PUSH1 0x24 DUP2 ADD DUP5 SWAP1 MSTORE PUSH1 0x20 DUP2 PUSH1 0x44 DUP2 PUSH1 0x0 DUP13 GAS CALL SWAP2 POP DUP2 PUSH2 0x13BC JUMPI PUSH2 0x13BC PUSH2 0x1893 JUMP JUMPDEST PUSH1 0x0 DUP3 ISZERO PUSH2 0x13DD JUMPI PUSH2 0x13CE RETURNDATASIZE DUP4 PUSH2 0x86D JUMP JUMPDEST PUSH2 0x13DA RETURNDATASIZE DUP4 ADD DUP4 PUSH2 0x5BD JUMP JUMPDEST SWAP1 POP JUMPDEST PUSH2 0x13E6 DUP2 PUSH2 0x1520 JUMP JUMPDEST POP POP POP PUSH2 0x13F3 DUP2 DUP10 PUSH2 0xCE8 JUMP JUMPDEST MLOAD PUSH2 0x1404 PUSH2 0x121D PUSH2 0x1217 DUP5 DUP13 PUSH2 0xCE8 JUMP JUMPDEST SWAP2 POP PUSH2 0x140F DUP2 PUSH2 0x149B JUMP JUMPDEST PUSH1 0x40 MLOAD DUP5 DUP2 MSTORE SWAP1 SWAP2 POP DUP3 DUP3 DUP11 PUSH32 0xB0657052ACBF78260696B569DBE3A1F1F39287B5A3C378F5BCA0C20FBF062DEC PUSH1 0x20 DUP6 LOG4 POP POP POP PUSH2 0x144D DUP2 DUP5 PUSH2 0x77C JUMP JUMPDEST SWAP3 POP POP PUSH2 0x1459 DUP2 PUSH2 0xCC8 JUMP JUMPDEST SWAP1 POP PUSH2 0x12A3 JUMP JUMPDEST POP PUSH2 0x148A PUSH2 0x1482 DUP6 PUSH1 0x1 PUSH1 0xA0 PUSH1 0x2 EXP SUB AND PUSH1 0x0 SWAP1 DUP2 MSTORE PUSH1 0x3 PUSH1 0x20 MSTORE PUSH1 0x40 SWAP1 KECCAK256 SWAP1 JUMP JUMPDEST SLOAD DUP3 EQ PUSH2 0x15E0 JUMP JUMPDEST POP POP POP PUSH2 0x1496 PUSH1 0x1 DUP1 SSTORE JUMP JUMPDEST POP POP POP JUMP JUMPDEST PUSH1 0x0 PUSH1 0x40 MLOAD DUP1 PUSH2 0x14AB DUP3 DUP6 PUSH2 0x65C JUMP JUMPDEST SUB SWAP1 KECCAK256 SWAP3 SWAP2 POP POP JUMP JUMPDEST PUSH1 0x0 PUSH1 0x40 MLOAD PUSH2 0x14C3 DUP2 DUP5 PUSH2 0x65C JUMP JUMPDEST PUSH1 0x4 DUP2 MSTORE DUP2 SWAP1 SUB PUSH1 0x20 ADD SWAP1 KECCAK256 SWAP3 SWAP2 POP POP JUMP JUMPDEST PUSH1 0xE0 PUSH1 0x2 EXP PUSH4 0x4E487B71 MUL PUSH1 0x0 MSTORE PUSH1 0x11 PUSH1 0x4 MSTORE PUSH1 0x24 PUSH1 0x0 REVERT JUMPDEST PUSH1 0xE0 PUSH1 0x2 EXP PUSH4 0x4E487B71 MUL PUSH1 0x0 MSTORE PUSH1 0x32 PUSH1 0x4 MSTORE PUSH1 0x24 PUSH1 0x0 REVERT JUMPDEST PUSH1 0xE0 PUSH1 0x2 EXP PUSH4 0x4E487B71 MUL PUSH1 0x0 MSTORE PUSH1 0x41 PUSH1 0x4 MSTORE PUSH1 0x24 PUSH1 0x0 REVERT JUMPDEST DUP1 PUSH2 0x3E8 JUMPI PUSH1 0x40 MLOAD PUSH1 0xE5 PUSH1 0x2 EXP PUSH3 0x461BCD MUL DUP2 MSTORE PUSH1 0x20 PUSH1 0x4 DUP3 ADD MSTORE PUSH1 0x20 PUSH1 0x24 DUP3 ADD MSTORE PUSH32 0x55534443207472616E7366657220746F2063686172697479206661696C65642E PUSH1 0x44 DUP3 ADD MSTORE PUSH1 0x64 DUP2 REVERT JUMPDEST DUP1 PUSH2 0x3E8 JUMPI PUSH1 0x40 MLOAD PUSH1 0xE5 PUSH1 0x2 EXP PUSH3 0x461BCD MUL DUP2 MSTORE PUSH1 0x20 PUSH1 0x4 DUP3 ADD MSTORE PUSH1 0x25 PUSH1 0x24 DUP3 ADD MSTORE PUSH32 0x417474656D707420746F20646F6E61746520746F20756E6B6E6F776E20636861 PUSH1 0x44 DUP3 ADD MSTORE PUSH32 0x726974792E000000000000000000000000000000000000000000000000000000 PUSH1 0x64 DUP3 ADD MSTORE PUSH1 0x84 DUP2 REVERT JUMPDEST DUP1 PUSH2 0x3E8 JUMPI PUSH1 0x40 MLOAD PUSH1 0xE5 PUSH1 0x2 EXP PUSH3 0x461BCD MUL DUP2 MSTORE PUSH1 0x20 PUSH1 0x4 DUP3 ADD MSTORE PUSH1 0x1C PUSH1 0x24 DUP3 ADD MSTORE PUSH32 0x4D7573742066696E616C697A6520656E746972652062616C616E636500000000 PUSH1 0x44 DUP3 ADD MSTORE PUSH1 0x64 DUP2 REVERT JUMPDEST DUP1 PUSH2 0x3E8 JUMPI PUSH1 0x40 MLOAD PUSH1 0xE5 PUSH1 0x2 EXP PUSH3 0x461BCD MUL DUP2 MSTORE PUSH1 0x20 PUSH1 0x4 DUP3 ADD MSTORE PUSH1 0x22 PUSH1 0x24 DUP3 ADD MSTORE PUSH32 0x546F74616C2066696E616C697A6174696F6E20616D6F756E7420746F6F206869 PUSH1 0x44 DUP3 ADD MSTORE PUSH32 0x6768000000000000000000000000000000000000000000000000000000000000 PUSH1 0x64 DUP3 ADD MSTORE PUSH1 0x84 DUP2 REVERT JUMPDEST DUP1 PUSH2 0x3E8 JUMPI PUSH1 0x40 MLOAD PUSH1 0xE5 PUSH1 0x2 EXP PUSH3 0x461BCD MUL DUP2 MSTORE PUSH1 0x20 PUSH1 0x4 DUP3 ADD MSTORE PUSH1 0x27 PUSH1 0x24 DUP3 ADD MSTORE PUSH32 0x4661696C656420746F2073656E642067617320746F20657068656D6572616C20 PUSH1 0x44 DUP3 ADD MSTORE PUSH32 0x77616C6C65742E00000000000000000000000000000000000000000000000000 PUSH1 0x64 DUP3 ADD MSTORE PUSH1 0x84 DUP2 REVERT JUMPDEST DUP1 PUSH2 0x3E8 JUMPI PUSH1 0x40 MLOAD PUSH1 0xE5 PUSH1 0x2 EXP PUSH3 0x461BCD MUL DUP2 MSTORE PUSH1 0x20 PUSH1 0x4 DUP3 ADD MSTORE PUSH1 0x31 PUSH1 0x24 DUP3 ADD MSTORE PUSH32 0x43686172697469657320616E6420616D6F756E747320617272617973206F6620 PUSH1 0x44 DUP3 ADD MSTORE PUSH32 0x646966666572656E74206C656E6774682E000000000000000000000000000000 PUSH1 0x64 DUP3 ADD MSTORE PUSH1 0x84 DUP2 REVERT JUMPDEST DUP1 PUSH2 0x3E8 JUMPI PUSH1 0x40 MLOAD PUSH1 0xE5 PUSH1 0x2 EXP PUSH3 0x461BCD MUL DUP2 MSTORE PUSH1 0x20 PUSH1 0x4 DUP3 ADD MSTORE PUSH1 0x1D PUSH1 0x24 DUP3 ADD MSTORE PUSH32 0x556E617574686F72697A6174696F6E2066696E616C697A6174696F6E2E000000 PUSH1 0x44 DUP3 ADD MSTORE PUSH1 0x64 DUP2 REVERT JUMPDEST DUP1 PUSH2 0x3E8 JUMPI PUSH1 0x40 MLOAD PUSH1 0xE5 PUSH1 0x2 EXP PUSH3 0x461BCD MUL DUP2 MSTORE PUSH1 0x20 PUSH1 0x4 DUP3 ADD MSTORE PUSH1 0x23 PUSH1 0x24 DUP3 ADD MSTORE PUSH32 0x43686172697479206164647265737320616C7265616479207265676973746572 PUSH1 0x44 DUP3 ADD MSTORE PUSH32 0x65642E0000000000000000000000000000000000000000000000000000000000 PUSH1 0x64 DUP3 ADD MSTORE PUSH1 0x84 DUP2 REVERT JUMPDEST DUP1 PUSH2 0x3E8 JUMPI PUSH1 0x40 MLOAD PUSH1 0xE5 PUSH1 0x2 EXP PUSH3 0x461BCD MUL DUP2 MSTORE PUSH1 0x20 PUSH1 0x4 DUP3 ADD MSTORE PUSH1 0x1F PUSH1 0x24 DUP3 ADD MSTORE PUSH32 0x5265656E7472616E637947756172643A207265656E7472616E742063616C6C00 PUSH1 0x44 DUP3 ADD MSTORE PUSH1 0x64 DUP2 REVERT JUMPDEST PUSH1 0x40 MLOAD RETURNDATASIZE PUSH1 0x0 DUP3 RETURNDATACOPY RETURNDATASIZE DUP2 REVERT INVALID LOG3 PUSH5 0x6970667358 0x22 SLT KECCAK256 TIMESTAMP SMOD 0xB2 DELEGATECALL SWAP14 LOG0 0xE0 0x2B 0xC9 SLT INVALID 0x2A PC 0xCE 0xF7 REVERT 0xCB EXTCODEHASH LOG0 0xB0 0x23 CALL 0xBC ADD AND SWAP2 0xDA DUP7 DUP7 CALLCODE SWAP6 KECCAK256 PUSH13 0x6578706572696D656E74616CF5 PUSH5 0x736F6C6343 STOP ADDMOD SMOD STOP COINBASE "
				},
				"gasEstimates": {
					"creation": {
						"codeDepositCost": "1274200",
						"executionCost": "infinite",
						"totalCost": "infinite"
					},
					"external": {
						"USDC()": "infinite",
						"WETH9()": "infinite",
						"deposit(address,address,uint256,uint256,uint256,uint24,uint24,uint256)": "infinite",
						"finalize(address,string[],uint256[])": "infinite",
						"getBalance(address)": "885",
						"owner()": "632",
						"paused()": "488",
						"registerCharity(string,address)": "infinite",
						"renounceOwnership()": "infinite",
						"swapRouter()": "infinite",
						"transferOwnership(address)": "22759"
					}
				},
				"methodIdentifiers": {
					"USDC()": "89a30271",
					"WETH9()": "4aa4a4fc",
					"deposit(address,address,uint256,uint256,uint256,uint24,uint24,uint256)": "480a6fdc",
					"finalize(address,string[],uint256[])": "745284ce",
					"getBalance(address)": "f8b2cb4f",
					"owner()": "8da5cb5b",
					"paused()": "5c975abb",
					"registerCharity(string,address)": "7aed7746",
					"renounceOwnership()": "715018a6",
					"swapRouter()": "c31c9c07",
					"transferOwnership(address)": "f2fde38b"
				}
			},
			"storageLayout": {
				"storage": [
					{
						"astId": 7,
						"contract": "contracts/fountain.sol:Serenity",
						"label": "_owner",
						"offset": 0,
						"slot": "0",
						"type": "t_address"
					},
					{
						"astId": 130,
						"contract": "contracts/fountain.sol:Serenity",
						"label": "_paused",
						"offset": 20,
						"slot": "0",
						"type": "t_bool"
					},
					{
						"astId": 231,
						"contract": "contracts/fountain.sol:Serenity",
						"label": "_status",
						"offset": 0,
						"slot": "1",
						"type": "t_uint256"
					},
					{
						"astId": 1275,
						"contract": "contracts/fountain.sol:Serenity",
						"label": "ephemeralGasMoneyAmount",
						"offset": 0,
						"slot": "2",
						"type": "t_uint256"
					},
					{
						"astId": 1279,
						"contract": "contracts/fountain.sol:Serenity",
						"label": "balances",
						"offset": 0,
						"slot": "3",
						"type": "t_mapping(t_address,t_uint256)"
					},
					{
						"astId": 1283,
						"contract": "contracts/fountain.sol:Serenity",
						"label": "charities",
						"offset": 0,
						"slot": "4",
						"type": "t_mapping(t_string_memory_ptr,t_address)"
					},
					{
						"astId": 1287,
						"contract": "contracts/fountain.sol:Serenity",
						"label": "charitiesReverse",
						"offset": 0,
						"slot": "5",
						"type": "t_mapping(t_address,t_string_storage)"
					},
					{
						"astId": 1290,
						"contract": "contracts/fountain.sol:Serenity",
						"label": "charityAddresses",
						"offset": 0,
						"slot": "6",
						"type": "t_struct(AddressSet)672_storage"
					}
				],
				"types": {
					"t_address": {
						"encoding": "inplace",
						"label": "address",
						"numberOfBytes": "20"
					},
					"t_array(t_bytes32)dyn_storage": {
						"base": "t_bytes32",
						"encoding": "dynamic_array",
						"label": "bytes32[]",
						"numberOfBytes": "32"
					},
					"t_bool": {
						"encoding": "inplace",
						"label": "bool",
						"numberOfBytes": "1"
					},
					"t_bytes32": {
						"encoding": "inplace",
						"label": "bytes32",
						"numberOfBytes": "32"
					},
					"t_mapping(t_address,t_string_storage)": {
						"encoding": "mapping",
						"key": "t_address",
						"label": "mapping(address => string)",
						"numberOfBytes": "32",
						"value": "t_string_storage"
					},
					"t_mapping(t_address,t_uint256)": {
						"encoding": "mapping",
						"key": "t_address",
						"label": "mapping(address => uint256)",
						"numberOfBytes": "32",
						"value": "t_uint256"
					},
					"t_mapping(t_bytes32,t_uint256)": {
						"encoding": "mapping",
						"key": "t_bytes32",
						"label": "mapping(bytes32 => uint256)",
						"numberOfBytes": "32",
						"value": "t_uint256"
					},
					"t_mapping(t_string_memory_ptr,t_address)": {
						"encoding": "mapping",
						"key": "t_string_memory_ptr",
						"label": "mapping(string => address)",
						"numberOfBytes": "32",
						"value": "t_address"
					},
					"t_string_memory_ptr": {
						"encoding": "bytes",
						"label": "string",
						"numberOfBytes": "32"
					},
					"t_string_storage": {
						"encoding": "bytes",
						"label": "string",
						"numberOfBytes": "32"
					},
					"t_struct(AddressSet)672_storage": {
						"encoding": "inplace",
						"label": "struct EnumerableSet.AddressSet",
						"members": [
							{
								"astId": 671,
								"contract": "contracts/fountain.sol:Serenity",
								"label": "_inner",
								"offset": 0,
								"slot": "0",
								"type": "t_struct(Set)371_storage"
							}
						],
						"numberOfBytes": "64"
					},
					"t_struct(Set)371_storage": {
						"encoding": "inplace",
						"label": "struct EnumerableSet.Set",
						"members": [
							{
								"astId": 366,
								"contract": "contracts/fountain.sol:Serenity",
								"label": "_values",
								"offset": 0,
								"slot": "0",
								"type": "t_array(t_bytes32)dyn_storage"
							},
							{
								"astId": 370,
								"contract": "contracts/fountain.sol:Serenity",
								"label": "_indexes",
								"offset": 0,
								"slot": "1",
								"type": "t_mapping(t_bytes32,t_uint256)"
							}
						],
						"numberOfBytes": "64"
					},
					"t_uint256": {
						"encoding": "inplace",
						"label": "uint256",
						"numberOfBytes": "32"
					}
				}
			},
			"userdoc": {
				"kind": "user",
				"methods": {},
				"version": 1
			}
		}
	}
}