{
	"contracts/fountain.sol": {
		"Serenity": {
			"abi": [
				{
					"inputs": [
						{
							"internalType": "contract ISwapRouter",
							"name": "_swapRouter",
							"type": "address"
						},
						{
							"internalType": "uint256",
							"name": "_ephemeralGasMoneyAmount",
							"type": "uint256"
						}
					],
					"stateMutability": "nonpayable",
					"type": "constructor"
				},
				{
					"anonymous": false,
					"inputs": [
						{
							"indexed": true,
							"internalType": "address",
							"name": "previousOwner",
							"type": "address"
						},
						{
							"indexed": true,
							"internalType": "address",
							"name": "newOwner",
							"type": "address"
						}
					],
					"name": "OwnershipTransferred",
					"type": "event"
				},
				{
					"anonymous": false,
					"inputs": [
						{
							"indexed": false,
							"internalType": "address",
							"name": "account",
							"type": "address"
						}
					],
					"name": "Paused",
					"type": "event"
				},
				{
					"anonymous": false,
					"inputs": [
						{
							"indexed": false,
							"internalType": "address",
							"name": "account",
							"type": "address"
						}
					],
					"name": "Unpaused",
					"type": "event"
				},
				{
					"inputs": [],
					"name": "USDC",
					"outputs": [
						{
							"internalType": "address",
							"name": "",
							"type": "address"
						}
					],
					"stateMutability": "view",
					"type": "function"
				},
				{
					"inputs": [],
					"name": "WETH9",
					"outputs": [
						{
							"internalType": "address",
							"name": "",
							"type": "address"
						}
					],
					"stateMutability": "view",
					"type": "function"
				},
				{
					"inputs": [
						{
							"internalType": "address",
							"name": "ephemeralWalletAddress",
							"type": "address"
						},
						{
							"internalType": "address",
							"name": "tokenIn",
							"type": "address"
						},
						{
							"internalType": "uint256",
							"name": "totalAmountIn",
							"type": "uint256"
						},
						{
							"internalType": "uint256",
							"name": "deadline",
							"type": "uint256"
						},
						{
							"internalType": "uint256",
							"name": "ethSwapAmountInMax",
							"type": "uint256"
						},
						{
							"internalType": "uint24",
							"name": "ethSwapPoolFee",
							"type": "uint24"
						},
						{
							"internalType": "uint24",
							"name": "usdcSwapPoolFee",
							"type": "uint24"
						},
						{
							"internalType": "uint256",
							"name": "usdcSwapAmountOutMinimum",
							"type": "uint256"
						}
					],
					"name": "deposit",
					"outputs": [],
					"stateMutability": "nonpayable",
					"type": "function"
				},
				{
					"inputs": [
						{
							"internalType": "address",
							"name": "user",
							"type": "address"
						},
						{
							"internalType": "uint8[]",
							"name": "charities_",
							"type": "uint8[]"
						},
						{
							"internalType": "uint256[]",
							"name": "amounts_",
							"type": "uint256[]"
						},
						{
							"internalType": "bool",
							"name": "autoAllocateRemainder",
							"type": "bool"
						}
					],
					"name": "finalize",
					"outputs": [],
					"stateMutability": "nonpayable",
					"type": "function"
				},
				{
					"inputs": [
						{
							"internalType": "address",
							"name": "user",
							"type": "address"
						}
					],
					"name": "getBalance",
					"outputs": [
						{
							"internalType": "uint256",
							"name": "userBalance_",
							"type": "uint256"
						}
					],
					"stateMutability": "view",
					"type": "function"
				},
				{
					"inputs": [],
					"name": "owner",
					"outputs": [
						{
							"internalType": "address",
							"name": "",
							"type": "address"
						}
					],
					"stateMutability": "view",
					"type": "function"
				},
				{
					"inputs": [],
					"name": "paused",
					"outputs": [
						{
							"internalType": "bool",
							"name": "",
							"type": "bool"
						}
					],
					"stateMutability": "view",
					"type": "function"
				},
				{
					"inputs": [],
					"name": "renounceOwnership",
					"outputs": [],
					"stateMutability": "nonpayable",
					"type": "function"
				},
				{
					"inputs": [],
					"name": "swapRouter",
					"outputs": [
						{
							"internalType": "contract ISwapRouter",
							"name": "",
							"type": "address"
						}
					],
					"stateMutability": "view",
					"type": "function"
				},
				{
					"inputs": [
						{
							"internalType": "address",
							"name": "newOwner",
							"type": "address"
						}
					],
					"name": "transferOwnership",
					"outputs": [],
					"stateMutability": "nonpayable",
					"type": "function"
				}
			],
			"devdoc": {
				"kind": "dev",
				"methods": {
					"owner()": {
						"details": "Returns the address of the current owner."
					},
					"paused()": {
						"details": "Returns true if the contract is paused, and false otherwise."
					},
					"renounceOwnership()": {
						"details": "Leaves the contract without owner. It will not be possible to call `onlyOwner` functions anymore. Can only be called by the current owner. NOTE: Renouncing ownership will leave the contract without an owner, thereby removing any functionality that is only available to the owner."
					},
					"transferOwnership(address)": {
						"details": "Transfers ownership of the contract to a new account (`newOwner`). Can only be called by the current owner."
					}
				},
				"version": 1
			},
			"evm": {
				"assembly": "    /* \"contracts/fountain.sol\":531:6252  contract Serenity is Ownable, Pausable, ReentrancyGuard {... */\n  mstore(0x40, 0xa0)\n  jumpi(tag_1, iszero(callvalue))\n  0x00\n  dup1\n  revert\ntag_1:\n  bytecodeSize\n  dup1\n  codesize\n  sub\n  not(0x1f)\n  0x1f\n  dup3\n  add\n  and\n  0xa0\n  add\n  0xa0\n  dup2\n  lt\n  0xffffffffffffffff\n  dup3\n  gt\n  or\n  iszero\n  tag_2\n  jumpi\n  mstore(0x00, 0x4e487b7100000000000000000000000000000000000000000000000000000000)\n  mstore(0x04, 0x41)\n  revert(0x00, 0x24)\ntag_2:\n  0x40\n  mstore\n  dup1\n  dup3\n  0xa0\n  codecopy\n  0x40\n  dup2\n  slt\n  iszero\n  tag_3\n  jumpi\n  0x00\n  dup1\n  revert\ntag_3:\n  pop\n  pop\n  mload(0xa0)\n  sub(exp(0x02, 0xa0), 0x01)\n  dup2\n  and\n  dup2\n  eq\n  tag_4\n  jumpi\n  0x00\n  dup1\n  revert\ntag_4:\n  tag_5\n  mload(0xc0)\n  dup3\n  tag_6\n  jump\t// in\ntag_5:\n  pop\n  mload(0x40)\n  dataSize(sub_0)\n  dup1\n  dataOffset(sub_0)\n  dup4\n  codecopy\n  mload(0x80)\n  dup3\n  assignImmutable(\"0xa89dab98646eeeb3665d545d51c6146ef2fb7643427936d0df6806075707fbb6\")\n  dup1\n  dup3\n  return\n    /* \"contracts/fountain.sol\":1033:1205  constructor(ISwapRouter _swapRouter, uint256 _ephemeralGasMoneyAmount) {... */\ntag_6:\n    /* \"@openzeppelin/contracts/access/Ownable.sol\":2525:2531  _owner */\n  0x00\n    /* \"contracts/fountain.sol\":531:6252  contract Serenity is Ownable, Pausable, ReentrancyGuard {... */\n  dup1\n  sload\n    /* \"@openzeppelin/contracts/utils/Context.sol\":719:729  msg.sender */\n  caller\n  not(sub(exp(0x02, 0xa0), 0x01))\n    /* \"contracts/fountain.sol\":531:6252  contract Serenity is Ownable, Pausable, ReentrancyGuard {... */\n  dup3\n  and\n  dup2\n  or\n  dup4\n  sstore\n  mload(0x40)\n  swap2\n  swap3\n    /* \"@openzeppelin/contracts/utils/Context.sol\":719:729  msg.sender */\n  swap1\n  swap2\n  sub(exp(0x02, 0xa0), 0x01)\n    /* \"contracts/fountain.sol\":531:6252  contract Serenity is Ownable, Pausable, ReentrancyGuard {... */\n  dup5\n  and\n  swap2\n    /* \"@openzeppelin/contracts/access/Ownable.sol\":2573:2613  OwnershipTransferred(oldOwner, newOwner) */\n  0x8be0079c531659141344cd1fd0a4f28419497f9722a3daafe3b4186f6b6457e0\n  swap2\n  log3\n  not(sub(exp(0x02, 0xa8), 0x01))\n    /* \"contracts/fountain.sol\":531:6252  contract Serenity is Ownable, Pausable, ReentrancyGuard {... */\n  and\n    /* \"@openzeppelin/contracts/utils/Context.sol\":719:729  msg.sender */\n  caller\n  not(mul(0xff, exp(0x02, 0xa0)))\n    /* \"contracts/fountain.sol\":531:6252  contract Serenity is Ownable, Pausable, ReentrancyGuard {... */\n  and\n  or\n    /* \"@openzeppelin/contracts/access/Ownable.sol\":2525:2531  _owner */\n  0x00\n    /* \"contracts/fountain.sol\":531:6252  contract Serenity is Ownable, Pausable, ReentrancyGuard {... */\n  sstore\n  0x01\n  dup1\n  sstore\n    /* \"contracts/fountain.sol\":1025:1026  0 */\n  0x05\n    /* \"contracts/fountain.sol\":531:6252  contract Serenity is Ownable, Pausable, ReentrancyGuard {... */\n  dup1\n  sload\n  not(0xff)\n  and\n  swap1\n  sstore\n    /* \"contracts/fountain.sol\":1114:1138  swapRouter = _swapRouter */\n  0x80\n  mstore\n    /* \"contracts/fountain.sol\":531:6252  contract Serenity is Ownable, Pausable, ReentrancyGuard {... */\n  0x02\n  sstore\n    /* \"contracts/fountain.sol\":1033:1205  constructor(ISwapRouter _swapRouter, uint256 _ephemeralGasMoneyAmount) {... */\n  jump\t// out\nstop\n\nsub_0: assembly {\n        /* \"contracts/fountain.sol\":531:6252  contract Serenity is Ownable, Pausable, ReentrancyGuard {... */\n      0x40\n      0x80\n      dup2\n      mstore\n      jumpi(tag_1, lt(calldatasize, 0x04))\n      0x00\n      0x0100000000000000000000000000000000000000000000000000000000\n      dup2\n      calldataload\n      div\n      0x480a6fdc\n      dup2\n      eq\n      tag_3\n      jumpi\n      0x4aa4a4fc\n      dup2\n      eq\n      tag_4\n      jumpi\n      0x5c975abb\n      dup2\n      eq\n      tag_5\n      jumpi\n      0x715018a6\n      dup2\n      eq\n      tag_6\n      jumpi\n      0x89a30271\n      dup2\n      eq\n      tag_7\n      jumpi\n      0x8da5cb5b\n      dup2\n      eq\n      tag_8\n      jumpi\n      0x8de9c372\n      dup2\n      eq\n      tag_9\n      jumpi\n      0xc31c9c07\n      dup2\n      eq\n      tag_10\n      jumpi\n      0xf2fde38b\n      dup2\n      eq\n      tag_11\n      jumpi\n      0xf8b2cb4f\n      dup2\n      eq\n      tag_12\n      jumpi\n      jump(tag_2)\n    tag_3:\n      jumpi(tag_13, iszero(callvalue))\n      dup2\n      dup3\n      revert\n    tag_13:\n      tag_14\n      calldatasize\n      tag_15\n      jump\t// in\n    tag_14:\n        /* \"contracts/fountain.sol\":1211:4376  function deposit(... */\n      tag_16\n      dup2\n      dup4\n      dup6\n      dup8\n      dup10\n      dup12\n      dup14\n      dup16\n      tag_17\n      jump\t// in\n    tag_16:\n      pop\n      pop\n      pop\n      pop\n      pop\n      pop\n      pop\n      pop\n        /* \"contracts/fountain.sol\":531:6252  contract Serenity is Ownable, Pausable, ReentrancyGuard {... */\n      dup2\n      dup4\n      mload\n      return\n    tag_4:\n      jumpi(tag_18, iszero(callvalue))\n      dup2\n      dup3\n      revert\n    tag_18:\n      tag_19\n      calldatasize\n      tag_20\n      jump\t// in\n    tag_19:\n      dup3\n      mload\n        /* \"contracts/fountain.sol\":680:722  0xC02aaA39b223FE8D0A0e5C4F27eAD9083C756Cc2 */\n      0xc02aaa39b223fe8d0a0e5c4f27ead9083c756cc2\n        /* \"contracts/fountain.sol\":531:6252  contract Serenity is Ownable, Pausable, ReentrancyGuard {... */\n      dup2\n      mstore\n      0x20\n      dup2\n      return\n    tag_21:\n      sub\n      dup2\n      return\n    tag_5:\n      jumpi(tag_23, iszero(callvalue))\n      dup2\n      dup3\n      revert\n    tag_23:\n      tag_24\n      calldatasize\n      tag_20\n      jump\t// in\n    tag_24:\n      0xff\n      0x010000000000000000000000000000000000000000\n      dup4\n      sload\n      div\n      and\n      dup4\n      mload\n      dup1\n      tag_21\n      dup4\n      dup4\n      swap1\n      iszero\n      iszero\n      dup2\n      mstore\n      0x20\n      add\n      swap1\n      jump\n    tag_6:\n      jumpi(tag_27, iszero(callvalue))\n      dup2\n      dup3\n      revert\n    tag_27:\n      tag_28\n      calldatasize\n      tag_20\n      jump\t// in\n    tag_28:\n        /* \"@openzeppelin/contracts/access/Ownable.sol\":1831:1932  function renounceOwnership() public virtual onlyOwner {... */\n      tag_29\n      tag_30\n      jump\t// in\n    tag_29:\n        /* \"contracts/fountain.sol\":531:6252  contract Serenity is Ownable, Pausable, ReentrancyGuard {... */\n      dup2\n      dup4\n      mload\n      return\n    tag_7:\n      jumpi(tag_31, iszero(callvalue))\n      dup2\n      dup3\n      revert\n    tag_31:\n      tag_32\n      calldatasize\n      tag_20\n      jump\t// in\n    tag_32:\n      dup3\n      mload\n        /* \"contracts/fountain.sol\":759:801  0xA0b86991c6218b36c1d19D4a2e9Eb0cE3606eB48 */\n      0xa0b86991c6218b36c1d19d4a2e9eb0ce3606eb48\n        /* \"contracts/fountain.sol\":531:6252  contract Serenity is Ownable, Pausable, ReentrancyGuard {... */\n      dup2\n      mstore\n      0x20\n      dup2\n      return\n    tag_8:\n      jumpi(tag_35, iszero(callvalue))\n      dup2\n      dup3\n      revert\n    tag_35:\n      tag_36\n      calldatasize\n      tag_20\n      jump\t// in\n    tag_36:\n      dup2\n      sload\n      dup4\n      mload\n      sub(exp(0x02, 0xa0), 0x01)\n      swap1\n      swap2\n      and\n      dup1\n      dup3\n      mstore\n      swap1\n      0x20\n      dup2\n      return\n    tag_9:\n      jumpi(tag_39, iszero(callvalue))\n      dup2\n      dup3\n      revert\n    tag_39:\n      tag_40\n      calldatasize\n      tag_41\n      jump\t// in\n    tag_40:\n        /* \"contracts/fountain.sol\":4588:6121  function finalize(... */\n      tag_42\n      dup2\n      dup4\n      dup6\n      dup8\n      tag_43\n      jump\t// in\n    tag_42:\n      pop\n      pop\n      pop\n      pop\n        /* \"contracts/fountain.sol\":531:6252  contract Serenity is Ownable, Pausable, ReentrancyGuard {... */\n      dup2\n      dup4\n      mload\n      return\n    tag_10:\n      jumpi(tag_44, iszero(callvalue))\n      dup2\n      dup3\n      revert\n    tag_44:\n      tag_45\n      calldatasize\n      tag_20\n      jump\t// in\n    tag_45:\n      dup3\n      mload\n        /* \"contracts/fountain.sol\":808:847  ISwapRouter public immutable swapRouter */\n      immutable(\"0xa89dab98646eeeb3665d545d51c6146ef2fb7643427936d0df6806075707fbb6\")\n      sub(exp(0x02, 0xa0), 0x01)\n        /* \"contracts/fountain.sol\":531:6252  contract Serenity is Ownable, Pausable, ReentrancyGuard {... */\n      and\n      dup2\n      mstore\n      0x20\n      dup2\n      return\n    tag_11:\n      jumpi(tag_47, iszero(callvalue))\n      dup2\n      dup3\n      revert\n    tag_47:\n        /* \"@openzeppelin/contracts/access/Ownable.sol\":2081:2279  function transferOwnership(address newOwner) public virtual onlyOwner {... */\n      tag_29\n        /* \"contracts/fountain.sol\":531:6252  contract Serenity is Ownable, Pausable, ReentrancyGuard {... */\n      tag_49\n      calldatasize\n      tag_50\n      jump\t// in\n    tag_49:\n        /* \"@openzeppelin/contracts/access/Ownable.sol\":2081:2279  function transferOwnership(address newOwner) public virtual onlyOwner {... */\n      tag_51\n      jump\t// in\n        /* \"contracts/fountain.sol\":531:6252  contract Serenity is Ownable, Pausable, ReentrancyGuard {... */\n    tag_12:\n      jumpi(tag_52, iszero(callvalue))\n      dup2\n      dup3\n      revert\n    tag_52:\n      tag_53\n      tag_54\n      calldatasize\n      tag_50\n      jump\t// in\n    tag_54:\n      sub(exp(0x02, 0xa0), 0x01)\n      and\n      0x00\n      swap1\n      dup2\n      mstore\n        /* \"contracts/fountain.sol\":6229:6237  balances */\n      0x03\n        /* \"contracts/fountain.sol\":531:6252  contract Serenity is Ownable, Pausable, ReentrancyGuard {... */\n      0x20\n      mstore\n      0x40\n      swap1\n      keccak256\n      sload\n      swap1\n        /* \"contracts/fountain.sol\":6127:6250  function getBalance(address user) public view returns (uint256 userBalance_) {... */\n      jump\n        /* \"contracts/fountain.sol\":531:6252  contract Serenity is Ownable, Pausable, ReentrancyGuard {... */\n    tag_53:\n      dup4\n      mload\n      dup2\n      dup2\n      mstore\n      0x20\n      dup2\n      return\n    tag_2:\n      pop\n      pop\n    tag_1:\n      pop\n      0x00\n      dup1\n      revert\n    tag_59:\n      calldataload(0x04)\n      sub(exp(0x02, 0xa0), 0x01)\n      dup2\n      and\n      dup2\n      eq\n      tag_61\n      jumpi\n      0x00\n      dup1\n      revert\n    tag_61:\n      swap1\n      jump\t// out\n    tag_62:\n      0x00\n      dup3\n      0x1f\n      dup4\n      add\n      slt\n      tag_64\n      jumpi\n      0x00\n      dup1\n      revert\n    tag_64:\n      dup2\n      calldataload\n      tag_65\n      dup2\n      tag_66\n      jump\t// in\n    tag_65:\n      mload(0x40)\n      tag_67\n      dup3\n      dup3\n      tag_68\n      jump\t// in\n    tag_67:\n      dup3\n      dup2\n      mstore\n      0x20\n      dup1\n      dup3\n      add\n      swap3\n      pop\n      dup6\n      dup2\n      add\n      dup2\n      dup6\n      mul\n      dup8\n      add\n      dup3\n      add\n      dup9\n      lt\n      iszero\n      tag_69\n      jumpi\n      0x00\n      dup1\n      revert\n    tag_69:\n      0x00\n    tag_70:\n      dup6\n      dup2\n      lt\n      iszero\n      tag_72\n      jumpi\n      dup2\n      calldataload\n      dup6\n      mstore\n      swap4\n      dup3\n      add\n      swap4\n      swap1\n      dup3\n      add\n      swap1\n      0x01\n      add\n      jump(tag_70)\n    tag_72:\n      pop\n      swap2\n      swap8\n      swap7\n      pop\n      pop\n      pop\n      pop\n      pop\n      pop\n      pop\n      jump\t// out\n    tag_73:\n      calldataload(0x64)\n      tag_61\n      dup2\n      tag_76\n      jump\t// in\n    tag_20:\n      0x00\n      not(0x03)\n      dup3\n      add\n      slt\n      iszero\n      tag_78\n      jumpi\n      0x00\n      dup1\n      revert\n    tag_78:\n      pop\n      jump\t// out\n    tag_79:\n      0x00\n      dup2\n      dup4\n      sub\n      slt\n      iszero\n      tag_81\n      jumpi\n      0x00\n      dup1\n      revert\n    tag_81:\n      pop\n      pop\n      jump\t// out\n    tag_50:\n      0x00\n      0x20\n      not(0x03)\n      dup4\n      add\n      slt\n      iszero\n      tag_83\n      jumpi\n      0x00\n      dup1\n      revert\n    tag_83:\n      calldataload(0x04)\n      sub(exp(0x02, 0xa0), 0x01)\n      dup2\n      and\n      dup2\n      eq\n      tag_84\n      jumpi\n      0x00\n      dup1\n      revert\n    tag_84:\n      swap3\n      swap2\n      pop\n      pop\n      jump\t// out\n    tag_15:\n      0x00\n      dup1\n      dup1\n      dup1\n      dup1\n      dup1\n      dup1\n      dup1\n      0x0100\n      not(0x03)\n      dup11\n      add\n      slt\n      iszero\n      tag_86\n      jumpi\n      0x00\n      dup1\n      revert\n    tag_86:\n      calldataload(0x04)\n      sub(exp(0x02, 0xa0), 0x01)\n      dup1\n      dup3\n      and\n      dup3\n      eq\n      tag_87\n      jumpi\n      0x00\n      dup1\n      revert\n    tag_87:\n      swap1\n      swap9\n      pop\n      calldataload(0x24)\n      swap1\n      dup1\n      dup3\n      and\n      dup3\n      eq\n      tag_88\n      jumpi\n      0x00\n      dup1\n      revert\n    tag_88:\n      pop\n      swap7\n      pop\n      calldataload(0x44)\n      swap6\n      pop\n      calldataload(0x64)\n      swap5\n      pop\n      calldataload(0x84)\n      swap4\n      pop\n      calldataload(0xa4)\n      0xffffff\n      dup1\n      dup3\n      and\n      dup3\n      eq\n      tag_89\n      jumpi\n      0x00\n      dup1\n      revert\n    tag_89:\n      swap1\n      swap4\n      pop\n      calldataload(0xc4)\n      swap1\n      dup1\n      dup3\n      and\n      dup3\n      eq\n      tag_90\n      jumpi\n      0x00\n      dup1\n      revert\n    tag_90:\n      pop\n      dup1\n      swap3\n      pop\n      pop\n      calldataload(0xe4)\n      swap1\n      pop\n      swap2\n      swap4\n      swap6\n      swap8\n      pop\n      swap2\n      swap4\n      swap6\n      swap8\n      jump\t// out\n    tag_41:\n      0x00\n      dup1\n      dup1\n      dup1\n      0x80\n      not(0x03)\n      dup7\n      add\n      slt\n      iszero\n      tag_92\n      jumpi\n      0x00\n      dup1\n      revert\n    tag_92:\n      tag_93\n      tag_59\n      jump\t// in\n    tag_93:\n      swap4\n      pop\n      calldataload(0x24)\n      0xffffffffffffffff\n      dup1\n      dup3\n      gt\n      iszero\n      tag_94\n      jumpi\n      0x00\n      dup1\n      revert\n    tag_94:\n      dup7\n      0x23\n      dup4\n      add\n      slt\n      tag_95\n      jumpi\n      0x00\n      dup1\n      revert\n    tag_95:\n      dup2\n      0x04\n      add\n      calldataload\n      tag_96\n      dup2\n      tag_66\n      jump\t// in\n    tag_96:\n      mload(0x40)\n      tag_97\n      dup3\n      dup3\n      tag_68\n      jump\t// in\n    tag_97:\n      dup3\n      dup2\n      mstore\n      0x20\n      dup1\n      dup3\n      add\n      swap3\n      pop\n      0x24\n      dup7\n      dup2\n      add\n      swap1\n      dup3\n      dup7\n      mul\n      dup9\n      add\n      add\n      dup13\n      lt\n      iszero\n      tag_98\n      jumpi\n      0x00\n      dup1\n      revert\n    tag_98:\n      0x00\n      swap7\n      pop\n    tag_99:\n      dup5\n      dup8\n      lt\n      iszero\n      tag_101\n      jumpi\n      dup1\n      calldataload\n      0xff\n      dup2\n      and\n      dup2\n      eq\n      tag_102\n      jumpi\n      0x00\n      dup1\n      revert\n    tag_102:\n      dup5\n      mstore\n      0x01\n      swap7\n      swap1\n      swap7\n      add\n      swap6\n      swap3\n      dup2\n      add\n      swap3\n      dup2\n      add\n      jump(tag_99)\n    tag_101:\n      pop\n      swap1\n      swap8\n      pop\n      pop\n      calldataload(0x44)\n      swap4\n      pop\n      pop\n      pop\n      dup1\n      dup3\n      gt\n      iszero\n      tag_103\n      jumpi\n      0x00\n      dup1\n      revert\n    tag_103:\n      pop\n      tag_104\n      dup7\n      dup3\n      0x04\n      add\n      tag_62\n      jump\t// in\n    tag_104:\n      swap3\n      pop\n      pop\n      tag_105\n      tag_73\n      jump\t// in\n    tag_105:\n      swap1\n      pop\n      swap2\n      swap4\n      pop\n      swap2\n      swap4\n      jump\t// out\n    tag_106:\n      0x00\n      0x20\n      dup3\n      dup5\n      sub\n      slt\n      iszero\n      tag_108\n      jumpi\n      0x00\n      dup1\n      revert\n    tag_108:\n      dup2\n      mload\n      tag_109\n      dup2\n      tag_76\n      jump\t// in\n    tag_109:\n      swap4\n      swap3\n      pop\n      pop\n      pop\n      jump\t// out\n    tag_110:\n      0x00\n      0x20\n      dup3\n      dup5\n      sub\n      slt\n      iszero\n      tag_112\n      jumpi\n      0x00\n      dup1\n      revert\n    tag_112:\n      pop\n      mload\n      swap2\n      swap1\n      pop\n      jump\t// out\n    tag_119:\n      0x00\n      0x0100\n      dup3\n      add\n      swap1\n      pop\n      sub(exp(0x02, 0xa0), 0x01)\n      dup1\n      dup5\n      mload\n      and\n      dup4\n      mstore\n      dup1\n      0x20\n      dup6\n      add\n      mload\n      and\n      0x20\n      dup5\n      add\n      mstore\n      0xffffff\n      0x40\n      dup6\n      add\n      mload\n      and\n      0x40\n      dup5\n      add\n      mstore\n      dup1\n      0x60\n      dup6\n      add\n      mload\n      and\n      0x60\n      dup5\n      add\n      mstore\n      0x80\n      dup5\n      add\n      mload\n      0x80\n      dup5\n      add\n      mstore\n      0xa0\n      dup5\n      add\n      mload\n      0xa0\n      dup5\n      add\n      mstore\n      0xc0\n      dup5\n      add\n      mload\n      0xc0\n      dup5\n      add\n      mstore\n      dup1\n      0xe0\n      dup6\n      add\n      mload\n      and\n      0xe0\n      dup5\n      add\n      mstore\n      pop\n      swap3\n      swap2\n      pop\n      pop\n      jump\t// out\n    tag_122:\n      mload(0x40)\n      0x0100\n        /* \"@openzeppelin/contracts/security/ReentrancyGuard.sol\":1701:1702  1 */\n      dup2\n      add\n      0xffffffffffffffff\n      dup2\n      gt\n      dup3\n      dup3\n      lt\n      or\n      iszero\n      tag_125\n      jumpi\n      tag_125\n      tag_126\n      jump\t// in\n    tag_125:\n        /* \"contracts/fountain.sol\":531:6252  contract Serenity is Ownable, Pausable, ReentrancyGuard {... */\n      0x40\n        /* \"@openzeppelin/contracts/security/ReentrancyGuard.sol\":1701:1702  1 */\n      mstore\n        /* \"contracts/fountain.sol\":531:6252  contract Serenity is Ownable, Pausable, ReentrancyGuard {... */\n      swap1\n      jump\t// out\n    tag_66:\n      0x00\n      0xffffffffffffffff\n      dup3\n      gt\n      iszero\n      tag_129\n      jumpi\n      tag_129\n      tag_126\n      jump\t// in\n    tag_129:\n      pop\n      0x20\n      swap1\n      dup2\n      mul\n      add\n      swap1\n      jump\t// out\n    tag_130:\n      0x00\n      dup3\n      not\n      dup3\n      gt\n      iszero\n      tag_133\n      jumpi\n      tag_133\n      tag_134\n      jump\t// in\n    tag_133:\n      pop\n      add\n      swap1\n      jump\t// out\n    tag_135:\n      0x00\n      dup3\n      tag_137\n      jumpi\n      mstore(0x00, mul(0x4e487b71, exp(0x02, 0xe0)))\n      mstore(0x04, 0x12)\n      revert(0x00, 0x24)\n    tag_137:\n      pop\n      div\n      swap1\n      jump\t// out\n    tag_138:\n      0x00\n      dup3\n      dup3\n      lt\n      iszero\n      tag_141\n      jumpi\n      tag_141\n      tag_134\n      jump\t// in\n    tag_141:\n      pop\n      sub\n      swap1\n      jump\t// out\n    tag_142:\n      0x00\n      0xff\n      dup3\n      and\n      0x01\n      dup2\n      lt\n      iszero\n      tag_145\n      jumpi\n      tag_145\n      tag_134\n      jump\t// in\n    tag_145:\n      not(0x00)\n      add\n      swap3\n      swap2\n      pop\n      pop\n      jump\t// out\n        /* \"@openzeppelin/contracts/security/ReentrancyGuard.sol\":1701:1702  1 */\n    tag_150:\n      0x00\n      returndatasize\n      dup1\n      iszero\n      tag_153\n      jumpi\n      returndatasize\n        /* \"contracts/fountain.sol\":531:6252  contract Serenity is Ownable, Pausable, ReentrancyGuard {... */\n      0xffffffffffffffff\n      dup2\n      gt\n      iszero\n      tag_155\n      jumpi\n      tag_155\n      tag_126\n      jump\t// in\n    tag_155:\n      mload(0x40)\n      tag_156\n      0x1f\n      dup4\n      add\n      not(0x1f)\n      and\n      0x20\n      add\n      dup3\n      tag_68\n      jump\t// in\n    tag_156:\n      dup2\n      dup2\n      mstore\n        /* \"@openzeppelin/contracts/security/ReentrancyGuard.sol\":1701:1702  1 */\n      dup1\n      swap4\n      pop\n      returndatasize\n      0x00\n        /* \"contracts/fountain.sol\":531:6252  contract Serenity is Ownable, Pausable, ReentrancyGuard {... */\n      0x20\n        /* \"@openzeppelin/contracts/security/ReentrancyGuard.sol\":1701:1702  1 */\n      dup4\n      add\n      returndatacopy\n      pop\n      pop\n      pop\n      swap1\n      jump\t// out\n    tag_153:\n        /* \"contracts/fountain.sol\":531:6252  contract Serenity is Ownable, Pausable, ReentrancyGuard {... */\n      0x60\n        /* \"@openzeppelin/contracts/security/ReentrancyGuard.sol\":1701:1702  1 */\n      swap2\n      pop\n      pop\n      swap1\n      jump\t// out\n    tag_157:\n        /* \"contracts/fountain.sol\":531:6252  contract Serenity is Ownable, Pausable, ReentrancyGuard {... */\n      0xa0\n        /* \"@openzeppelin/contracts/security/ReentrancyGuard.sol\":1701:1702  1 */\n      dup2\n      add\n      dup2\n      dup2\n      lt\n      0xffffffffffffffff\n      dup3\n      gt\n      or\n      iszero\n      tag_160\n      jumpi\n      tag_160\n      tag_126\n      jump\t// in\n    tag_160:\n      0x40\n      mstore\n      pop\n      jump\t// out\n    tag_68:\n        /* \"contracts/fountain.sol\":531:6252  contract Serenity is Ownable, Pausable, ReentrancyGuard {... */\n      0x1f\n      dup3\n      add\n      not(0x1f)\n      and\n        /* \"@openzeppelin/contracts/security/ReentrancyGuard.sol\":1701:1702  1 */\n      dup2\n      add\n      0xffffffffffffffff\n      dup2\n      gt\n      dup3\n      dup3\n      lt\n      or\n      iszero\n      tag_163\n      jumpi\n      tag_163\n      tag_126\n      jump\t// in\n    tag_163:\n      0x40\n      mstore\n      pop\n      pop\n      jump\t// out\n        /* \"@openzeppelin/contracts/access/Ownable.sol\":1359:1489  function _checkOwner() internal view virtual {... */\n    tag_164:\n      sub(exp(0x02, 0xa0), 0x01)\n        /* \"@openzeppelin/contracts/access/Ownable.sol\":1273:1279  _owner */\n      0x00\n        /* \"contracts/fountain.sol\":531:6252  contract Serenity is Ownable, Pausable, ReentrancyGuard {... */\n      sload\n      and\n        /* \"@openzeppelin/contracts/utils/Context.sol\":719:729  msg.sender */\n      caller\n        /* \"contracts/fountain.sol\":531:6252  contract Serenity is Ownable, Pausable, ReentrancyGuard {... */\n      dup2\n        /* \"@openzeppelin/contracts/access/Ownable.sol\":1422:1445  owner() == _msgSender() */\n      eq\n        /* \"contracts/fountain.sol\":531:6252  contract Serenity is Ownable, Pausable, ReentrancyGuard {... */\n      tag_78\n      jumpi\n      mload(0x40)\n      mul(0x461bcd, exp(0x02, 0xe5))\n      dup2\n      mstore\n      0x20\n      0x04\n      dup3\n      add\n      mstore\n      0x20\n      0x24\n      dup3\n      add\n      mstore\n      0x4f776e61626c653a2063616c6c6572206973206e6f7420746865206f776e6572\n      0x44\n      dup3\n      add\n      mstore\n      0x64\n      dup2\n      revert\n        /* \"@openzeppelin/contracts/security/Pausable.sol\":1767:1873  function _requireNotPaused() internal view virtual {... */\n    tag_167:\n        /* \"contracts/fountain.sol\":531:6252  contract Serenity is Ownable, Pausable, ReentrancyGuard {... */\n      0xff\n      0x010000000000000000000000000000000000000000\n        /* \"@openzeppelin/contracts/security/Pausable.sol\":1685:1692  _paused */\n      0x00\n        /* \"contracts/fountain.sol\":531:6252  contract Serenity is Ownable, Pausable, ReentrancyGuard {... */\n      sload\n      div\n      and\n        /* \"@openzeppelin/contracts/security/Pausable.sol\":1836:1845  !paused() */\n      iszero\n        /* \"contracts/fountain.sol\":531:6252  contract Serenity is Ownable, Pausable, ReentrancyGuard {... */\n      tag_169\n      jumpi\n      mload(0x40)\n      mul(0x461bcd, exp(0x02, 0xe5))\n      dup2\n      mstore\n      0x20\n      0x04\n      dup3\n      add\n      mstore\n      0x10\n      0x24\n      dup3\n      add\n      mstore\n      0x5061757361626c653a2070617573656400000000000000000000000000000000\n      0x44\n      dup3\n      add\n      mstore\n      0x64\n      dup2\n      revert\n    tag_169:\n        /* \"@openzeppelin/contracts/security/Pausable.sol\":1767:1873  function _requireNotPaused() internal view virtual {... */\n      jump\t// out\n        /* \"@uniswap/v3-periphery/contracts/libraries/TransferHelper.sol\":1873:2180  function safeApprove(... */\n    tag_171:\n        /* \"contracts/fountain.sol\":531:6252  contract Serenity is Ownable, Pausable, ReentrancyGuard {... */\n      mload(0x40)\n        /* \"@uniswap/v3-periphery/contracts/libraries/TransferHelper.sol\":2055:2078  IERC20.approve.selector */\n      0x095ea7b300000000000000000000000000000000000000000000000000000000\n        /* \"@uniswap/v3-periphery/contracts/libraries/TransferHelper.sol\":2032:2090  abi.encodeWithSelector(IERC20.approve.selector, to, value) */\n      0x20\n      dup3\n      add\n      swap1\n      dup2\n      mstore\n      sub(exp(0x02, 0xa0), 0x01)\n        /* \"contracts/fountain.sol\":531:6252  contract Serenity is Ownable, Pausable, ReentrancyGuard {... */\n      dup5\n      and\n        /* \"@uniswap/v3-periphery/contracts/libraries/TransferHelper.sol\":2032:2090  abi.encodeWithSelector(IERC20.approve.selector, to, value) */\n      0x24\n      dup4\n      add\n        /* \"contracts/fountain.sol\":531:6252  contract Serenity is Ownable, Pausable, ReentrancyGuard {... */\n      mstore\n      0x44\n      dup1\n      dup4\n      add\n      dup7\n      swap1\n      mstore\n        /* \"@uniswap/v3-periphery/contracts/libraries/TransferHelper.sol\":2032:2090  abi.encodeWithSelector(IERC20.approve.selector, to, value) */\n      dup3\n      mstore\n        /* \"contracts/fountain.sol\":531:6252  contract Serenity is Ownable, Pausable, ReentrancyGuard {... */\n      0x64\n        /* \"@uniswap/v3-periphery/contracts/libraries/TransferHelper.sol\":2032:2090  abi.encodeWithSelector(IERC20.approve.selector, to, value) */\n      tag_174\n        /* \"contracts/fountain.sol\":531:6252  contract Serenity is Ownable, Pausable, ReentrancyGuard {... */\n      dup2\n      dup5\n        /* \"@uniswap/v3-periphery/contracts/libraries/TransferHelper.sol\":2032:2090  abi.encodeWithSelector(IERC20.approve.selector, to, value) */\n      tag_68\n      jump\t// in\n    tag_174:\n      pop\n        /* \"@uniswap/v3-periphery/contracts/libraries/TransferHelper.sol\":2021:2091  token.call(abi.encodeWithSelector(IERC20.approve.selector, to, value)) */\n      0x00\n      dup1\n      dup4\n      mload\n      dup4\n      0x00\n      dup8\n      gas\n      call\n      swap2\n      pop\n      pop\n      tag_175\n      tag_150\n      jump\t// in\n    tag_175:\n        /* \"@uniswap/v3-periphery/contracts/libraries/TransferHelper.sol\":2109:2166  success && (data.length == 0 || abi.decode(data, (bool))) */\n      dup2\n      dup3\n      iszero\n      tag_176\n      jumpi\n        /* \"@uniswap/v3-periphery/contracts/libraries/TransferHelper.sol\":2121:2132  data.length */\n      dup2\n        /* \"contracts/fountain.sol\":531:6252  contract Serenity is Ownable, Pausable, ReentrancyGuard {... */\n      mload\n        /* \"@uniswap/v3-periphery/contracts/libraries/TransferHelper.sol\":2121:2137  data.length == 0 */\n      dup1\n      iszero\n        /* \"@uniswap/v3-periphery/contracts/libraries/TransferHelper.sol\":2121:2165  data.length == 0 || abi.decode(data, (bool)) */\n      dup1\n      tag_177\n      jumpi\n        /* \"@uniswap/v3-periphery/contracts/libraries/TransferHelper.sol\":2141:2165  abi.decode(data, (bool)) */\n      tag_178\n        /* \"@uniswap/v3-periphery/contracts/libraries/TransferHelper.sol\":2032:2090  abi.encodeWithSelector(IERC20.approve.selector, to, value) */\n      0x20\n        /* \"@uniswap/v3-periphery/contracts/libraries/TransferHelper.sol\":2141:2165  abi.decode(data, (bool)) */\n      dup4\n      dup7\n      add\n      add\n        /* \"@uniswap/v3-periphery/contracts/libraries/TransferHelper.sol\":2032:2090  abi.encodeWithSelector(IERC20.approve.selector, to, value) */\n      0x20\n        /* \"@uniswap/v3-periphery/contracts/libraries/TransferHelper.sol\":2141:2165  abi.decode(data, (bool)) */\n      dup7\n      add\n      tag_106\n      jump\t// in\n    tag_178:\n        /* \"@uniswap/v3-periphery/contracts/libraries/TransferHelper.sol\":2121:2165  data.length == 0 || abi.decode(data, (bool)) */\n      swap1\n      pop\n    tag_177:\n        /* \"@uniswap/v3-periphery/contracts/libraries/TransferHelper.sol\":2109:2166  success && (data.length == 0 || abi.decode(data, (bool))) */\n      swap2\n      pop\n      pop\n    tag_176:\n        /* \"contracts/fountain.sol\":531:6252  contract Serenity is Ownable, Pausable, ReentrancyGuard {... */\n      dup1\n      tag_179\n      jumpi\n      mload(0x40)\n      swap3\n      pop\n      mul(0x461bcd, exp(0x02, 0xe5))\n      dup4\n      mstore\n        /* \"@uniswap/v3-periphery/contracts/libraries/TransferHelper.sol\":2032:2090  abi.encodeWithSelector(IERC20.approve.selector, to, value) */\n      0x20\n        /* \"contracts/fountain.sol\":531:6252  contract Serenity is Ownable, Pausable, ReentrancyGuard {... */\n      0x04\n      dup5\n      add\n      mstore\n      0x02\n        /* \"@uniswap/v3-periphery/contracts/libraries/TransferHelper.sol\":2032:2090  abi.encodeWithSelector(IERC20.approve.selector, to, value) */\n      0x24\n        /* \"contracts/fountain.sol\":531:6252  contract Serenity is Ownable, Pausable, ReentrancyGuard {... */\n      dup5\n      add\n      mstore\n      0x5341000000000000000000000000000000000000000000000000000000000000\n      0x44\n      dup5\n      add\n      mstore\n      0x64\n      dup4\n      revert\n    tag_179:\n      pop\n      pop\n      pop\n        /* \"@uniswap/v3-periphery/contracts/libraries/TransferHelper.sol\":1873:2180  function safeApprove(... */\n      pop\n      pop\n      pop\n      jump\t// out\n        /* \"@uniswap/v3-periphery/contracts/libraries/TransferHelper.sol\":561:919  function safeTransferFrom(... */\n    tag_180:\n        /* \"contracts/fountain.sol\":531:6252  contract Serenity is Ownable, Pausable, ReentrancyGuard {... */\n      mload(0x40)\n        /* \"@uniswap/v3-periphery/contracts/libraries/TransferHelper.sol\":759:828  abi.encodeWithSelector(IERC20.transferFrom.selector, from, to, value) */\n      0x20\n      dup2\n      add\n        /* \"@uniswap/v3-periphery/contracts/libraries/TransferHelper.sol\":782:810  IERC20.transferFrom.selector */\n      0x23b872dd00000000000000000000000000000000000000000000000000000000\n        /* \"@uniswap/v3-periphery/contracts/libraries/TransferHelper.sol\":759:828  abi.encodeWithSelector(IERC20.transferFrom.selector, from, to, value) */\n      dup2\n      mstore\n      sub(exp(0x02, 0xa0), 0x01)\n        /* \"contracts/fountain.sol\":531:6252  contract Serenity is Ownable, Pausable, ReentrancyGuard {... */\n      dup1\n      dup6\n      and\n        /* \"@uniswap/v3-periphery/contracts/libraries/TransferHelper.sol\":759:828  abi.encodeWithSelector(IERC20.transferFrom.selector, from, to, value) */\n      0x24\n      dup5\n      add\n        /* \"contracts/fountain.sol\":531:6252  contract Serenity is Ownable, Pausable, ReentrancyGuard {... */\n      mstore\n      dup1\n      dup7\n      and\n      0x44\n        /* \"@uniswap/v3-periphery/contracts/libraries/TransferHelper.sol\":759:828  abi.encodeWithSelector(IERC20.transferFrom.selector, from, to, value) */\n      dup5\n        /* \"contracts/fountain.sol\":531:6252  contract Serenity is Ownable, Pausable, ReentrancyGuard {... */\n      add\n      mstore\n      pop\n      dup6\n      0x64\n        /* \"@uniswap/v3-periphery/contracts/libraries/TransferHelper.sol\":759:828  abi.encodeWithSelector(IERC20.transferFrom.selector, from, to, value) */\n      dup4\n        /* \"contracts/fountain.sol\":531:6252  contract Serenity is Ownable, Pausable, ReentrancyGuard {... */\n      add\n      mstore\n      0x64\n        /* \"@uniswap/v3-periphery/contracts/libraries/TransferHelper.sol\":759:828  abi.encodeWithSelector(IERC20.transferFrom.selector, from, to, value) */\n      dup3\n      mstore\n      tag_182\n      dup3\n      tag_157\n      jump\t// in\n    tag_182:\n      0x00\n      dup1\n        /* \"@uniswap/v3-periphery/contracts/libraries/TransferHelper.sol\":748:829  token.call(abi.encodeWithSelector(IERC20.transferFrom.selector, from, to, value)) */\n      dup4\n      mload\n      dup4\n      0x00\n      dup8\n      gas\n      call\n      swap2\n      pop\n      pop\n      tag_183\n      tag_150\n      jump\t// in\n    tag_183:\n        /* \"@uniswap/v3-periphery/contracts/libraries/TransferHelper.sol\":847:904  success && (data.length == 0 || abi.decode(data, (bool))) */\n      dup2\n      dup3\n      iszero\n      tag_184\n      jumpi\n        /* \"@uniswap/v3-periphery/contracts/libraries/TransferHelper.sol\":859:870  data.length */\n      dup2\n        /* \"contracts/fountain.sol\":531:6252  contract Serenity is Ownable, Pausable, ReentrancyGuard {... */\n      mload\n        /* \"@uniswap/v3-periphery/contracts/libraries/TransferHelper.sol\":859:875  data.length == 0 */\n      dup1\n      iszero\n        /* \"@uniswap/v3-periphery/contracts/libraries/TransferHelper.sol\":859:903  data.length == 0 || abi.decode(data, (bool)) */\n      dup1\n      tag_185\n      jumpi\n        /* \"@uniswap/v3-periphery/contracts/libraries/TransferHelper.sol\":879:903  abi.decode(data, (bool)) */\n      tag_186\n        /* \"@uniswap/v3-periphery/contracts/libraries/TransferHelper.sol\":759:828  abi.encodeWithSelector(IERC20.transferFrom.selector, from, to, value) */\n      0x20\n        /* \"@uniswap/v3-periphery/contracts/libraries/TransferHelper.sol\":879:903  abi.decode(data, (bool)) */\n      dup4\n      dup7\n      add\n      add\n        /* \"@uniswap/v3-periphery/contracts/libraries/TransferHelper.sol\":759:828  abi.encodeWithSelector(IERC20.transferFrom.selector, from, to, value) */\n      0x20\n        /* \"@uniswap/v3-periphery/contracts/libraries/TransferHelper.sol\":879:903  abi.decode(data, (bool)) */\n      dup7\n      add\n      tag_106\n      jump\t// in\n    tag_186:\n        /* \"@uniswap/v3-periphery/contracts/libraries/TransferHelper.sol\":859:903  data.length == 0 || abi.decode(data, (bool)) */\n      swap1\n      pop\n    tag_185:\n        /* \"@uniswap/v3-periphery/contracts/libraries/TransferHelper.sol\":847:904  success && (data.length == 0 || abi.decode(data, (bool))) */\n      swap2\n      pop\n      pop\n    tag_184:\n        /* \"contracts/fountain.sol\":531:6252  contract Serenity is Ownable, Pausable, ReentrancyGuard {... */\n      dup1\n      tag_187\n      jumpi\n      mload(0x40)\n      swap3\n      pop\n      mul(0x461bcd, exp(0x02, 0xe5))\n      dup4\n      mstore\n        /* \"@uniswap/v3-periphery/contracts/libraries/TransferHelper.sol\":759:828  abi.encodeWithSelector(IERC20.transferFrom.selector, from, to, value) */\n      0x20\n        /* \"contracts/fountain.sol\":531:6252  contract Serenity is Ownable, Pausable, ReentrancyGuard {... */\n      0x04\n      dup5\n      add\n      mstore\n      0x03\n        /* \"@uniswap/v3-periphery/contracts/libraries/TransferHelper.sol\":759:828  abi.encodeWithSelector(IERC20.transferFrom.selector, from, to, value) */\n      0x24\n        /* \"contracts/fountain.sol\":531:6252  contract Serenity is Ownable, Pausable, ReentrancyGuard {... */\n      dup5\n      add\n      mstore\n      0x5354460000000000000000000000000000000000000000000000000000000000\n      0x44\n      dup5\n      add\n      mstore\n      0x64\n      dup4\n      revert\n    tag_187:\n      pop\n      pop\n      pop\n        /* \"@uniswap/v3-periphery/contracts/libraries/TransferHelper.sol\":561:919  function safeTransferFrom(... */\n      pop\n      pop\n      pop\n      pop\n      jump\t// out\n        /* \"contracts/fountain.sol\":531:6252  contract Serenity is Ownable, Pausable, ReentrancyGuard {... */\n    tag_188:\n      0x00\n      0xff\n      dup3\n      and\n      0xff\n      dup2\n      eq\n      iszero\n      tag_191\n      jumpi\n      tag_191\n      tag_134\n      jump\t// in\n    tag_191:\n      0x01\n      add\n      swap3\n      swap2\n      pop\n      pop\n      jump\t// out\n    tag_196:\n      0x00\n      dup2\n      mload\n      dup4\n      lt\n      tag_198\n      jumpi\n      mstore(0x00, mul(0x4e487b71, exp(0x02, 0xe0)))\n      mstore(0x04, 0x32)\n      revert(0x00, 0x24)\n    tag_198:\n      pop\n      0x20\n      swap2\n      dup3\n      mul\n      add\n      add\n      swap1\n      jump\t// out\n        /* \"@openzeppelin/contracts/access/Ownable.sol\":1063:1125  modifier onlyOwner() {... */\n    tag_30:\n      tag_200\n      tag_164\n      jump\t// in\n    tag_200:\n        /* \"contracts/fountain.sol\":531:6252  contract Serenity is Ownable, Pausable, ReentrancyGuard {... */\n      sload(0x00)\n      not(sub(exp(0x02, 0xa0), 0x01))\n      dup2\n      and\n      0x00\n      sstore\n      0x00\n      sub(exp(0x02, 0xa0), 0x01)\n      dup3\n      and\n        /* \"@openzeppelin/contracts/access/Ownable.sol\":2573:2613  OwnershipTransferred(oldOwner, newOwner) */\n      0x8be0079c531659141344cd1fd0a4f28419497f9722a3daafe3b4186f6b6457e0\n        /* \"contracts/fountain.sol\":531:6252  contract Serenity is Ownable, Pausable, ReentrancyGuard {... */\n      0x00\n      mload(0x40)\n        /* \"@openzeppelin/contracts/access/Ownable.sol\":2573:2613  OwnershipTransferred(oldOwner, newOwner) */\n      log3\n      pop\n        /* \"@openzeppelin/contracts/access/Ownable.sol\":1063:1125  modifier onlyOwner() {... */\n      jump\t// out\n    tag_51:\n      tag_202\n      tag_164\n      jump\t// in\n    tag_202:\n      sub(exp(0x02, 0xa0), 0x01)\n        /* \"contracts/fountain.sol\":531:6252  contract Serenity is Ownable, Pausable, ReentrancyGuard {... */\n      dup1\n        /* \"@openzeppelin/contracts/access/Ownable.sol\":2169:2191  newOwner != address(0) */\n      dup3\n        /* \"contracts/fountain.sol\":531:6252  contract Serenity is Ownable, Pausable, ReentrancyGuard {... */\n      and\n      dup1\n      tag_203\n      jumpi\n      mload(0x40)\n      mul(0x461bcd, exp(0x02, 0xe5))\n      dup2\n      mstore\n      0x20\n      0x04\n      dup3\n      add\n      mstore\n      0x26\n      0x24\n      dup3\n      add\n      mstore\n      0x4f776e61626c653a206e6577206f776e657220697320746865207a65726f2061\n      0x44\n      dup3\n      add\n      mstore\n      0x6464726573730000000000000000000000000000000000000000000000000000\n      0x64\n      dup3\n      add\n      mstore\n      0x84\n      dup2\n      revert\n    tag_203:\n        /* \"@openzeppelin/contracts/access/Ownable.sol\":2525:2531  _owner */\n      0x00\n        /* \"contracts/fountain.sol\":531:6252  contract Serenity is Ownable, Pausable, ReentrancyGuard {... */\n      sload\n      dup2\n      not(sub(exp(0x02, 0xa0), 0x01))\n      dup3\n      and\n      or\n        /* \"@openzeppelin/contracts/access/Ownable.sol\":2525:2531  _owner */\n      0x00\n        /* \"contracts/fountain.sol\":531:6252  contract Serenity is Ownable, Pausable, ReentrancyGuard {... */\n      sstore\n        /* \"@openzeppelin/contracts/access/Ownable.sol\":2573:2613  OwnershipTransferred(oldOwner, newOwner) */\n      dup4\n        /* \"contracts/fountain.sol\":531:6252  contract Serenity is Ownable, Pausable, ReentrancyGuard {... */\n      dup4\n      dup3\n      and\n        /* \"@openzeppelin/contracts/access/Ownable.sol\":2573:2613  OwnershipTransferred(oldOwner, newOwner) */\n      0x8be0079c531659141344cd1fd0a4f28419497f9722a3daafe3b4186f6b6457e0\n        /* \"@openzeppelin/contracts/access/Ownable.sol\":2525:2531  _owner */\n      0x00\n        /* \"contracts/fountain.sol\":531:6252  contract Serenity is Ownable, Pausable, ReentrancyGuard {... */\n      mload(0x40)\n        /* \"@openzeppelin/contracts/access/Ownable.sol\":2573:2613  OwnershipTransferred(oldOwner, newOwner) */\n      log3\n      pop\n      pop\n      pop\n        /* \"@openzeppelin/contracts/access/Ownable.sol\":1063:1125  modifier onlyOwner() {... */\n      pop\n      jump\t// out\n        /* \"@openzeppelin/contracts/security/Pausable.sol\":1204:1276  modifier whenNotPaused() {... */\n    tag_17:\n      tag_205\n      tag_167\n      jump\t// in\n    tag_205:\n        /* \"@openzeppelin/contracts/security/ReentrancyGuard.sol\":2317:2380  require(_status != _ENTERED, \"ReentrancyGuard: reentrant call\") */\n      tag_206\n        /* \"@openzeppelin/contracts/security/ReentrancyGuard.sol\":1744:1745  2 */\n      0x02\n        /* \"@openzeppelin/contracts/security/ReentrancyGuard.sol\":2325:2332  _status */\n      0x01\n        /* \"contracts/fountain.sol\":531:6252  contract Serenity is Ownable, Pausable, ReentrancyGuard {... */\n      sload\n        /* \"@openzeppelin/contracts/security/ReentrancyGuard.sol\":2325:2344  _status != _ENTERED */\n      eq\n      iszero\n        /* \"@openzeppelin/contracts/security/ReentrancyGuard.sol\":2317:2380  require(_status != _ENTERED, \"ReentrancyGuard: reentrant call\") */\n      tag_207\n      jump\t// in\n    tag_206:\n        /* \"@openzeppelin/contracts/security/ReentrancyGuard.sol\":1744:1745  2 */\n      0x02\n        /* \"@openzeppelin/contracts/security/ReentrancyGuard.sol\":2325:2332  _status */\n      0x01\n        /* \"contracts/fountain.sol\":531:6252  contract Serenity is Ownable, Pausable, ReentrancyGuard {... */\n      sstore\n        /* \"contracts/fountain.sol\":1804:1817  totalAmountIn */\n      tag_208\n      dup4\n        /* \"contracts/fountain.sol\":1797:1801  this */\n      address\n        /* \"contracts/fountain.sol\":1777:1787  msg.sender */\n      caller\n        /* \"contracts/fountain.sol\":1804:1817  totalAmountIn */\n      dup6\n      tag_180\n      jump\t// in\n    tag_208:\n      sub(exp(0x02, 0xa0), 0x01)\n        /* \"contracts/fountain.sol\":531:6252  contract Serenity is Ownable, Pausable, ReentrancyGuard {... */\n      dup1\n        /* \"contracts/fountain.sol\":1949:1959  swapRouter */\n      immutable(\"0xa89dab98646eeeb3665d545d51c6146ef2fb7643427936d0df6806075707fbb6\")\n        /* \"contracts/fountain.sol\":531:6252  contract Serenity is Ownable, Pausable, ReentrancyGuard {... */\n      and\n        /* \"contracts/fountain.sol\":1962:1975  totalAmountIn */\n      tag_209\n      dup6\n      dup3\n      dup7\n      tag_171\n      jump\t// in\n    tag_209:\n        /* \"@openzeppelin/contracts/security/ReentrancyGuard.sol\":1744:1745  2 */\n      0x02\n        /* \"contracts/fountain.sol\":531:6252  contract Serenity is Ownable, Pausable, ReentrancyGuard {... */\n      sload\n      tag_210\n      tag_122\n      jump\t// in\n    tag_210:\n      sub(exp(0x02, 0xa0), 0x01)\n      dup7\n      and\n      dup2\n      mstore\n        /* \"contracts/fountain.sol\":680:722  0xC02aaA39b223FE8D0A0e5C4F27eAD9083C756Cc2 */\n      0xc02aaa39b223fe8d0a0e5c4f27ead9083c756cc2\n        /* \"contracts/fountain.sol\":2130:2755  ISwapRouter.ExactOutputSingleParams({... */\n      0x20\n      dup3\n      add\n        /* \"contracts/fountain.sol\":531:6252  contract Serenity is Ownable, Pausable, ReentrancyGuard {... */\n      mstore\n      0xffffff\n      dup11\n      and\n        /* \"contracts/fountain.sol\":2130:2755  ISwapRouter.ExactOutputSingleParams({... */\n      0x40\n      dup3\n      dup2\n      add\n        /* \"contracts/fountain.sol\":531:6252  contract Serenity is Ownable, Pausable, ReentrancyGuard {... */\n      swap2\n      swap1\n      swap2\n      mstore\n        /* \"contracts/fountain.sol\":1797:1801  this */\n      address\n        /* \"contracts/fountain.sol\":2130:2755  ISwapRouter.ExactOutputSingleParams({... */\n      0x60\n      dup4\n      add\n        /* \"contracts/fountain.sol\":531:6252  contract Serenity is Ownable, Pausable, ReentrancyGuard {... */\n      mstore\n      dup9\n        /* \"contracts/fountain.sol\":2130:2755  ISwapRouter.ExactOutputSingleParams({... */\n      0x80\n      dup4\n      add\n        /* \"contracts/fountain.sol\":531:6252  contract Serenity is Ownable, Pausable, ReentrancyGuard {... */\n      mstore\n      dup3\n        /* \"contracts/fountain.sol\":2130:2755  ISwapRouter.ExactOutputSingleParams({... */\n      0xa0\n      dup4\n      add\n        /* \"contracts/fountain.sol\":531:6252  contract Serenity is Ownable, Pausable, ReentrancyGuard {... */\n      mstore\n      dup10\n        /* \"contracts/fountain.sol\":2130:2755  ISwapRouter.ExactOutputSingleParams({... */\n      0xc0\n      dup4\n      add\n        /* \"contracts/fountain.sol\":531:6252  contract Serenity is Ownable, Pausable, ReentrancyGuard {... */\n      mstore\n      0x00\n      swap3\n      pop\n      dup3\n        /* \"contracts/fountain.sol\":2130:2755  ISwapRouter.ExactOutputSingleParams({... */\n      0xe0\n      dup4\n      add\n        /* \"contracts/fountain.sol\":531:6252  contract Serenity is Ownable, Pausable, ReentrancyGuard {... */\n      mstore\n        /* \"contracts/fountain.sol\":2914:2957  swapRouter.exactOutputSingle(ethSwapParams) */\n      dup4\n      extcodesize\n      tag_218\n      jumpi\n        /* \"contracts/fountain.sol\":531:6252  contract Serenity is Ownable, Pausable, ReentrancyGuard {... */\n      dup3\n      dup4\n      revert\n        /* \"contracts/fountain.sol\":2914:2957  swapRouter.exactOutputSingle(ethSwapParams) */\n    tag_218:\n        /* \"contracts/fountain.sol\":2130:2755  ISwapRouter.ExactOutputSingleParams({... */\n      dup1\n        /* \"contracts/fountain.sol\":531:6252  contract Serenity is Ownable, Pausable, ReentrancyGuard {... */\n      mload\n      0xdb3e219800000000000000000000000000000000000000000000000000000000\n        /* \"contracts/fountain.sol\":2914:2957  swapRouter.exactOutputSingle(ethSwapParams) */\n      dup2\n      mstore\n        /* \"contracts/fountain.sol\":2130:2755  ISwapRouter.ExactOutputSingleParams({... */\n      0x20\n        /* \"contracts/fountain.sol\":2914:2957  swapRouter.exactOutputSingle(ethSwapParams) */\n      dup2\n      dup3\n      tag_219\n      dup7\n      0x04\n      dup7\n      add\n      tag_119\n      jump\t// in\n    tag_219:\n      sub\n      dup4\n        /* \"contracts/fountain.sol\":531:6252  contract Serenity is Ownable, Pausable, ReentrancyGuard {... */\n      dup8\n        /* \"contracts/fountain.sol\":2914:2957  swapRouter.exactOutputSingle(ethSwapParams) */\n      dup10\n      gas\n      call\n      swap3\n      pop\n      dup3\n      tag_221\n      jumpi\n      tag_221\n      tag_222\n      jump\t// in\n    tag_221:\n        /* \"contracts/fountain.sol\":531:6252  contract Serenity is Ownable, Pausable, ReentrancyGuard {... */\n      dup4\n        /* \"contracts/fountain.sol\":2914:2957  swapRouter.exactOutputSingle(ethSwapParams) */\n      dup4\n      iszero\n      tag_223\n      jumpi\n      tag_224\n      returndatasize\n      dup4\n      tag_68\n      jump\t// in\n    tag_224:\n      tag_225\n      returndatasize\n      dup4\n      add\n      dup4\n      tag_110\n      jump\t// in\n    tag_225:\n      swap1\n      pop\n    tag_223:\n        /* \"@openzeppelin/contracts/security/ReentrancyGuard.sol\":1744:1745  2 */\n      0x02\n        /* \"contracts/fountain.sol\":531:6252  contract Serenity is Ownable, Pausable, ReentrancyGuard {... */\n      sload\n      swap4\n      pop\n        /* \"contracts/fountain.sol\":680:722  0xC02aaA39b223FE8D0A0e5C4F27eAD9083C756Cc2 */\n      0xc02aaa39b223fe8d0a0e5c4f27ead9083c756cc2\n      swap2\n      pop\n      dup2\n        /* \"contracts/fountain.sol\":2992:3038  IWETH(WETH9).withdraw(ephemeralGasMoneyAmount) */\n      extcodesize\n      tag_226\n      jumpi\n        /* \"contracts/fountain.sol\":531:6252  contract Serenity is Ownable, Pausable, ReentrancyGuard {... */\n      dup5\n      dup6\n      revert\n        /* \"contracts/fountain.sol\":2992:3038  IWETH(WETH9).withdraw(ephemeralGasMoneyAmount) */\n    tag_226:\n        /* \"contracts/fountain.sol\":531:6252  contract Serenity is Ownable, Pausable, ReentrancyGuard {... */\n      dup3\n      mload\n      0x2e1a7d4d00000000000000000000000000000000000000000000000000000000\n        /* \"contracts/fountain.sol\":2992:3038  IWETH(WETH9).withdraw(ephemeralGasMoneyAmount) */\n      dup2\n      mstore\n        /* \"contracts/fountain.sol\":2914:2957  swapRouter.exactOutputSingle(ethSwapParams) */\n      0x04\n        /* \"contracts/fountain.sol\":2992:3038  IWETH(WETH9).withdraw(ephemeralGasMoneyAmount) */\n      dup2\n      add\n        /* \"contracts/fountain.sol\":531:6252  contract Serenity is Ownable, Pausable, ReentrancyGuard {... */\n      dup6\n      swap1\n      mstore\n      dup6\n      dup2\n      0x24\n      dup2\n      dup4\n        /* \"contracts/fountain.sol\":680:722  0xC02aaA39b223FE8D0A0e5C4F27eAD9083C756Cc2 */\n      dup8\n        /* \"contracts/fountain.sol\":2992:3038  IWETH(WETH9).withdraw(ephemeralGasMoneyAmount) */\n      gas\n      call\n      swap5\n      pop\n      dup5\n      tag_229\n      jumpi\n      tag_229\n      tag_222\n      jump\t// in\n    tag_229:\n      dup5\n      iszero\n      tag_232\n      jumpi\n      tag_231\n      returndatasize\n      dup3\n      tag_68\n      jump\t// in\n    tag_231:\n      tag_232\n      returndatasize\n      dup3\n      add\n      dup3\n      tag_79\n      jump\t// in\n    tag_232:\n      pop\n        /* \"@openzeppelin/contracts/security/ReentrancyGuard.sol\":1744:1745  2 */\n      0x02\n        /* \"contracts/fountain.sol\":531:6252  contract Serenity is Ownable, Pausable, ReentrancyGuard {... */\n      sload\n      swap4\n      pop\n      dup5\n      dup6\n      dup7\n        /* \"contracts/fountain.sol\":2130:2755  ISwapRouter.ExactOutputSingleParams({... */\n      dup6\n        /* \"contracts/fountain.sol\":531:6252  contract Serenity is Ownable, Pausable, ReentrancyGuard {... */\n      mload\n        /* \"contracts/fountain.sol\":3140:3212  payable(ephemeralWalletAddress).call{value: ephemeralGasMoneyAmount}(\"\") */\n      dup8\n        /* \"contracts/fountain.sol\":531:6252  contract Serenity is Ownable, Pausable, ReentrancyGuard {... */\n      dup12\n        /* \"contracts/fountain.sol\":3140:3171  payable(ephemeralWalletAddress) */\n      dup14\n        /* \"contracts/fountain.sol\":531:6252  contract Serenity is Ownable, Pausable, ReentrancyGuard {... */\n      and\n        /* \"contracts/fountain.sol\":3140:3212  payable(ephemeralWalletAddress).call{value: ephemeralGasMoneyAmount}(\"\") */\n      gas\n      call\n      swap7\n      pop\n      tag_233\n      tag_150\n      jump\t// in\n    tag_233:\n      pop\n        /* \"contracts/fountain.sol\":3222:3290  require(ephemeralGasSent, \"Failed to send gas to ephemeral wallet.\") */\n      tag_234\n      dup8\n      tag_235\n      jump\t// in\n    tag_234:\n        /* \"contracts/fountain.sol\":3393:3434  totalAmountIn - tokenAmountSpentOnEthSwap */\n      tag_236\n      dup2\n      dup12\n      tag_138\n      jump\t// in\n    tag_236:\n      swap7\n      pop\n      pop\n      pop\n        /* \"contracts/fountain.sol\":531:6252  contract Serenity is Ownable, Pausable, ReentrancyGuard {... */\n      tag_237\n      tag_122\n      jump\t// in\n    tag_237:\n      sub(exp(0x02, 0xa0), 0x01)\n      dup9\n      and\n      dup2\n      mstore\n        /* \"contracts/fountain.sol\":3581:4206  ISwapRouter.ExactInputSingleParams({... */\n      swap2\n      pop\n        /* \"contracts/fountain.sol\":759:801  0xA0b86991c6218b36c1d19D4a2e9Eb0cE3606eB48 */\n      0xa0b86991c6218b36c1d19d4a2e9eb0ce3606eb48\n        /* \"contracts/fountain.sol\":2130:2755  ISwapRouter.ExactOutputSingleParams({... */\n      0x20\n        /* \"contracts/fountain.sol\":3581:4206  ISwapRouter.ExactInputSingleParams({... */\n      dup4\n      add\n        /* \"contracts/fountain.sol\":531:6252  contract Serenity is Ownable, Pausable, ReentrancyGuard {... */\n      mstore\n      0xffffff\n      dup13\n      and\n        /* \"contracts/fountain.sol\":3581:4206  ISwapRouter.ExactInputSingleParams({... */\n      dup3\n      dup3\n      add\n        /* \"contracts/fountain.sol\":531:6252  contract Serenity is Ownable, Pausable, ReentrancyGuard {... */\n      mstore\n        /* \"contracts/fountain.sol\":1797:1801  this */\n      address\n        /* \"contracts/fountain.sol\":2130:2755  ISwapRouter.ExactOutputSingleParams({... */\n      0x60\n        /* \"contracts/fountain.sol\":3581:4206  ISwapRouter.ExactInputSingleParams({... */\n      dup4\n      add\n        /* \"contracts/fountain.sol\":531:6252  contract Serenity is Ownable, Pausable, ReentrancyGuard {... */\n      mstore\n      dup9\n        /* \"contracts/fountain.sol\":2130:2755  ISwapRouter.ExactOutputSingleParams({... */\n      0x80\n        /* \"contracts/fountain.sol\":3581:4206  ISwapRouter.ExactInputSingleParams({... */\n      dup4\n      add\n        /* \"contracts/fountain.sol\":531:6252  contract Serenity is Ownable, Pausable, ReentrancyGuard {... */\n      mstore\n      dup5\n        /* \"contracts/fountain.sol\":2130:2755  ISwapRouter.ExactOutputSingleParams({... */\n      0xa0\n        /* \"contracts/fountain.sol\":3581:4206  ISwapRouter.ExactInputSingleParams({... */\n      dup4\n      add\n        /* \"contracts/fountain.sol\":531:6252  contract Serenity is Ownable, Pausable, ReentrancyGuard {... */\n      mstore\n      dup13\n        /* \"contracts/fountain.sol\":2130:2755  ISwapRouter.ExactOutputSingleParams({... */\n      0xc0\n        /* \"contracts/fountain.sol\":3581:4206  ISwapRouter.ExactInputSingleParams({... */\n      dup4\n      add\n        /* \"contracts/fountain.sol\":531:6252  contract Serenity is Ownable, Pausable, ReentrancyGuard {... */\n      mstore\n      dup3\n        /* \"contracts/fountain.sol\":2130:2755  ISwapRouter.ExactOutputSingleParams({... */\n      0xe0\n        /* \"contracts/fountain.sol\":3581:4206  ISwapRouter.ExactInputSingleParams({... */\n      dup4\n      add\n        /* \"contracts/fountain.sol\":531:6252  contract Serenity is Ownable, Pausable, ReentrancyGuard {... */\n      mstore\n        /* \"contracts/fountain.sol\":4269:4304  swapRouter.exactInputSingle(params) */\n      dup4\n      extcodesize\n      tag_243\n      jumpi\n        /* \"contracts/fountain.sol\":531:6252  contract Serenity is Ownable, Pausable, ReentrancyGuard {... */\n      dup3\n      dup4\n      revert\n        /* \"contracts/fountain.sol\":4269:4304  swapRouter.exactInputSingle(params) */\n    tag_243:\n        /* \"contracts/fountain.sol\":531:6252  contract Serenity is Ownable, Pausable, ReentrancyGuard {... */\n      mload\n      0x414bf38900000000000000000000000000000000000000000000000000000000\n        /* \"contracts/fountain.sol\":4269:4304  swapRouter.exactInputSingle(params) */\n      dup2\n      mstore\n        /* \"contracts/fountain.sol\":531:6252  contract Serenity is Ownable, Pausable, ReentrancyGuard {... */\n      swap4\n      pop\n        /* \"contracts/fountain.sol\":2130:2755  ISwapRouter.ExactOutputSingleParams({... */\n      0x20\n        /* \"contracts/fountain.sol\":531:6252  contract Serenity is Ownable, Pausable, ReentrancyGuard {... */\n      dup5\n      dup1\n        /* \"contracts/fountain.sol\":4269:4304  swapRouter.exactInputSingle(params) */\n      tag_244\n      dup5\n        /* \"contracts/fountain.sol\":2914:2957  swapRouter.exactOutputSingle(ethSwapParams) */\n      0x04\n        /* \"contracts/fountain.sol\":4269:4304  swapRouter.exactInputSingle(params) */\n      dup4\n      add\n      tag_119\n      jump\t// in\n    tag_244:\n      sub\n      dup7\n        /* \"contracts/fountain.sol\":531:6252  contract Serenity is Ownable, Pausable, ReentrancyGuard {... */\n      dup6\n        /* \"contracts/fountain.sol\":4269:4304  swapRouter.exactInputSingle(params) */\n      dup8\n      gas\n      call\n      swap3\n      pop\n      pop\n      dup2\n      tag_246\n      jumpi\n      tag_246\n      tag_222\n      jump\t// in\n    tag_246:\n      dup2\n      iszero\n      tag_247\n      jumpi\n      tag_248\n      returndatasize\n      dup5\n      tag_68\n      jump\t// in\n    tag_248:\n      tag_249\n      returndatasize\n      dup5\n      add\n      dup5\n      tag_110\n      jump\t// in\n    tag_249:\n      swap1\n      pop\n    tag_247:\n      sub(exp(0x02, 0xa0), 0x01)\n        /* \"contracts/fountain.sol\":531:6252  contract Serenity is Ownable, Pausable, ReentrancyGuard {... */\n      dup5\n      and\n      0x00\n      swap1\n      dup2\n      mstore\n        /* \"contracts/fountain.sol\":4324:4332  balances */\n      0x03\n        /* \"contracts/fountain.sol\":531:6252  contract Serenity is Ownable, Pausable, ReentrancyGuard {... */\n      0x20\n      mstore\n      0x40\n      swap1\n      keccak256\n        /* \"contracts/fountain.sol\":4324:4356  balances[ephemeralWalletAddress] */\n      swap3\n      pop\n        /* \"contracts/fountain.sol\":4324:4369  balances[ephemeralWalletAddress] += amountOut */\n      tag_251\n      dup2\n      dup5\n        /* \"contracts/fountain.sol\":531:6252  contract Serenity is Ownable, Pausable, ReentrancyGuard {... */\n      sload\n        /* \"contracts/fountain.sol\":4324:4369  balances[ephemeralWalletAddress] += amountOut */\n      tag_130\n      jump\t// in\n    tag_251:\n        /* \"contracts/fountain.sol\":531:6252  contract Serenity is Ownable, Pausable, ReentrancyGuard {... */\n      dup4\n      sstore\n      pop\n      pop\n      pop\n        /* \"@openzeppelin/contracts/security/ReentrancyGuard.sol\":2628:2650  _status = _NOT_ENTERED */\n      tag_252\n        /* \"@openzeppelin/contracts/security/ReentrancyGuard.sol\":2325:2332  _status */\n      0x01\n      dup1\n        /* \"contracts/fountain.sol\":531:6252  contract Serenity is Ownable, Pausable, ReentrancyGuard {... */\n      sstore\n      jump\n        /* \"@openzeppelin/contracts/security/ReentrancyGuard.sol\":2628:2650  _status = _NOT_ENTERED */\n    tag_252:\n        /* \"@openzeppelin/contracts/security/Pausable.sol\":1204:1276  modifier whenNotPaused() {... */\n      pop\n      pop\n      pop\n      pop\n      pop\n      pop\n      pop\n      pop\n      jump\t// out\n    tag_43:\n      tag_255\n      tag_167\n      jump\t// in\n    tag_255:\n        /* \"@openzeppelin/contracts/security/ReentrancyGuard.sol\":2325:2332  _status */\n      0x01\n        /* \"@openzeppelin/contracts/security/ReentrancyGuard.sol\":2317:2380  require(_status != _ENTERED, \"ReentrancyGuard: reentrant call\") */\n      tag_256\n        /* \"@openzeppelin/contracts/security/ReentrancyGuard.sol\":1744:1745  2 */\n      0x02\n        /* \"@openzeppelin/contracts/security/ReentrancyGuard.sol\":2325:2332  _status */\n      dup3\n        /* \"contracts/fountain.sol\":531:6252  contract Serenity is Ownable, Pausable, ReentrancyGuard {... */\n      sload\n        /* \"@openzeppelin/contracts/security/ReentrancyGuard.sol\":2325:2344  _status != _ENTERED */\n      eq\n      iszero\n        /* \"@openzeppelin/contracts/security/ReentrancyGuard.sol\":2317:2380  require(_status != _ENTERED, \"ReentrancyGuard: reentrant call\") */\n      tag_207\n      jump\t// in\n    tag_256:\n        /* \"@openzeppelin/contracts/security/ReentrancyGuard.sol\":1744:1745  2 */\n      0x02\n        /* \"@openzeppelin/contracts/security/ReentrancyGuard.sol\":2325:2332  _status */\n      dup2\n        /* \"contracts/fountain.sol\":531:6252  contract Serenity is Ownable, Pausable, ReentrancyGuard {... */\n      sstore\n      sub(exp(0x02, 0xa0), 0x01)\n      dup1\n        /* \"contracts/fountain.sol\":4799:4817  msg.sender == user */\n      dup4\n        /* \"contracts/fountain.sol\":531:6252  contract Serenity is Ownable, Pausable, ReentrancyGuard {... */\n      and\n        /* \"contracts/fountain.sol\":4799:4809  msg.sender */\n      caller\n        /* \"contracts/fountain.sol\":4799:4817  msg.sender == user */\n      eq\n        /* \"contracts/fountain.sol\":4799:4842  msg.sender == user || msg.sender == owner() */\n      dup1\n      tag_257\n      jumpi\n        /* \"contracts/fountain.sol\":4821:4842  msg.sender == owner() */\n      tag_258\n        /* \"contracts/fountain.sol\":531:6252  contract Serenity is Ownable, Pausable, ReentrancyGuard {... */\n      dup3\n        /* \"@openzeppelin/contracts/access/Ownable.sol\":1273:1279  _owner */\n      0x00\n        /* \"contracts/fountain.sol\":531:6252  contract Serenity is Ownable, Pausable, ReentrancyGuard {... */\n      sload\n      and\n      sub(exp(0x02, 0xa0), 0x01)\n      and\n      swap1\n      jump\n        /* \"contracts/fountain.sol\":4821:4842  msg.sender == owner() */\n    tag_258:\n        /* \"contracts/fountain.sol\":4799:4809  msg.sender */\n      caller\n        /* \"contracts/fountain.sol\":4821:4842  msg.sender == owner() */\n      eq\n        /* \"contracts/fountain.sol\":4799:4842  msg.sender == user || msg.sender == owner() */\n      swap1\n      pop\n    tag_257:\n        /* \"contracts/fountain.sol\":4791:4876  require(msg.sender == user || msg.sender == owner(), \"Unauthorization finalization.\") */\n      tag_259\n      dup2\n      tag_260\n      jump\t// in\n    tag_259:\n      pop\n      pop\n        /* \"contracts/fountain.sol\":4894:4911  charities_.length */\n      dup3\n        /* \"contracts/fountain.sol\":531:6252  contract Serenity is Ownable, Pausable, ReentrancyGuard {... */\n      mload\n        /* \"contracts/fountain.sol\":4886:4984  require(charities_.length == amounts_.length, \"Charities and amounts arrays of different length.\") */\n      tag_261\n        /* \"contracts/fountain.sol\":4915:4930  amounts_.length */\n      dup6\n        /* \"contracts/fountain.sol\":531:6252  contract Serenity is Ownable, Pausable, ReentrancyGuard {... */\n      mload\n        /* \"contracts/fountain.sol\":4894:4930  charities_.length == amounts_.length */\n      dup3\n      eq\n        /* \"contracts/fountain.sol\":4886:4984  require(charities_.length == amounts_.length, \"Charities and amounts arrays of different length.\") */\n      tag_262\n      jump\t// in\n    tag_261:\n      pop\n        /* \"contracts/fountain.sol\":5002:5019  charities_.length */\n      dup3\n        /* \"contracts/fountain.sol\":531:6252  contract Serenity is Ownable, Pausable, ReentrancyGuard {... */\n      mload\n        /* \"contracts/fountain.sol\":4994:5058  require(charities_.length <= numCharities, \"Too many charities\") */\n      tag_263\n        /* \"contracts/fountain.sol\":5002:5035  charities_.length <= numCharities */\n      tag_264\n        /* \"contracts/fountain.sol\":531:6252  contract Serenity is Ownable, Pausable, ReentrancyGuard {... */\n      tag_265\n        /* \"contracts/fountain.sol\":5023:5035  numCharities */\n      0x05\n        /* \"contracts/fountain.sol\":531:6252  contract Serenity is Ownable, Pausable, ReentrancyGuard {... */\n      sload\n      0xff\n      and\n      swap1\n      jump\n    tag_265:\n      0xff\n      and\n      swap1\n      jump\n        /* \"contracts/fountain.sol\":5002:5035  charities_.length <= numCharities */\n    tag_264:\n      dup3\n      gt\n      iszero\n        /* \"contracts/fountain.sol\":4994:5058  require(charities_.length <= numCharities, \"Too many charities\") */\n      tag_266\n      jump\t// in\n    tag_263:\n      pop\n      0x00\n      dup1\n        /* \"contracts/fountain.sol\":5178:5276  for (uint8 i = 0; i < amounts_.length; i++) {... */\n    tag_267:\n        /* \"@openzeppelin/contracts/security/ReentrancyGuard.sol\":2325:2332  _status */\n      dup3\n        /* \"contracts/fountain.sol\":5178:5276  for (uint8 i = 0; i < amounts_.length; i++) {... */\n      iszero\n      tag_269\n      jumpi\n        /* \"contracts/fountain.sol\":5200:5215  amounts_.length */\n      dup6\n        /* \"contracts/fountain.sol\":531:6252  contract Serenity is Ownable, Pausable, ReentrancyGuard {... */\n      mload\n      0xff\n        /* \"contracts/fountain.sol\":5196:5215  i < amounts_.length */\n      dup3\n        /* \"contracts/fountain.sol\":531:6252  contract Serenity is Ownable, Pausable, ReentrancyGuard {... */\n      and\n        /* \"contracts/fountain.sol\":5196:5215  i < amounts_.length */\n      dup2\n      dup2\n      lt\n      tag_270\n      jumpi\n      pop\n      pop\n      jump(tag_269)\n    tag_270:\n        /* \"contracts/fountain.sol\":5236:5265  amountToDonate += amounts_[i] */\n      tag_271\n        /* \"contracts/fountain.sol\":5254:5265  amounts_[i] */\n      tag_272\n      dup3\n      dup11\n      tag_196\n      jump\t// in\n    tag_272:\n        /* \"contracts/fountain.sol\":531:6252  contract Serenity is Ownable, Pausable, ReentrancyGuard {... */\n      mload\n        /* \"contracts/fountain.sol\":5236:5265  amountToDonate += amounts_[i] */\n      dup6\n      tag_130\n      jump\t// in\n    tag_271:\n      swap4\n      pop\n      pop\n      pop\n        /* \"contracts/fountain.sol\":5217:5220  i++ */\n      tag_273\n      dup2\n      tag_188\n      jump\t// in\n    tag_273:\n      swap1\n      pop\n        /* \"contracts/fountain.sol\":5178:5276  for (uint8 i = 0; i < amounts_.length; i++) {... */\n      jump(tag_267)\n    tag_269:\n      pop\n        /* \"contracts/fountain.sol\":5286:5365  require(amountToDonate <= balances[user], \"Total finalization amount too high\") */\n      tag_274\n        /* \"contracts/fountain.sol\":5312:5326  balances[user] */\n      tag_275\n      dup5\n      sub(exp(0x02, 0xa0), 0x01)\n        /* \"contracts/fountain.sol\":531:6252  contract Serenity is Ownable, Pausable, ReentrancyGuard {... */\n      and\n      0x00\n      swap1\n      dup2\n      mstore\n        /* \"contracts/fountain.sol\":4324:4332  balances */\n      0x03\n        /* \"contracts/fountain.sol\":531:6252  contract Serenity is Ownable, Pausable, ReentrancyGuard {... */\n      0x20\n      mstore\n      0x40\n      swap1\n      keccak256\n      swap1\n      jump\n        /* \"contracts/fountain.sol\":5312:5326  balances[user] */\n    tag_275:\n        /* \"contracts/fountain.sol\":531:6252  contract Serenity is Ownable, Pausable, ReentrancyGuard {... */\n      sload\n        /* \"contracts/fountain.sol\":5294:5326  amountToDonate <= balances[user] */\n      dup3\n      gt\n      iszero\n        /* \"contracts/fountain.sol\":5286:5365  require(amountToDonate <= balances[user], \"Total finalization amount too high\") */\n      tag_276\n      jump\t// in\n    tag_274:\n        /* \"contracts/fountain.sol\":5383:5440  autoAllocateRemainder || amountToDonate == balances[user] */\n      dup6\n      dup7\n      tag_277\n      jumpi\n      pop\n      sub(exp(0x02, 0xa0), 0x01)\n        /* \"contracts/fountain.sol\":531:6252  contract Serenity is Ownable, Pausable, ReentrancyGuard {... */\n      dup4\n      and\n      0x00\n      swap1\n      dup2\n      mstore\n        /* \"contracts/fountain.sol\":4324:4332  balances */\n      0x03\n        /* \"contracts/fountain.sol\":531:6252  contract Serenity is Ownable, Pausable, ReentrancyGuard {... */\n      0x20\n      mstore\n      0x40\n      swap1\n      keccak256\n      sload\n        /* \"contracts/fountain.sol\":5408:5440  amountToDonate == balances[user] */\n      dup2\n      eq\n        /* \"contracts/fountain.sol\":5383:5440  autoAllocateRemainder || amountToDonate == balances[user] */\n    tag_277:\n        /* \"contracts/fountain.sol\":5375:5479  require(autoAllocateRemainder || amountToDonate == balances[user], \"Total finalization amount too low.\") */\n      tag_279\n      dup2\n      tag_280\n      jump\t// in\n    tag_279:\n      pop\n        /* \"contracts/fountain.sol\":5502:5558  autoAllocateRemainder && amountToDonate < balances[user] */\n      dup6\n      iszero\n      tag_281\n      jumpi\n      sub(exp(0x02, 0xa0), 0x01)\n        /* \"contracts/fountain.sol\":531:6252  contract Serenity is Ownable, Pausable, ReentrancyGuard {... */\n      dup4\n      and\n      0x00\n      mstore\n        /* \"contracts/fountain.sol\":4324:4332  balances */\n      0x03\n        /* \"contracts/fountain.sol\":531:6252  contract Serenity is Ownable, Pausable, ReentrancyGuard {... */\n      0x20\n      mstore\n        /* \"contracts/fountain.sol\":5502:5558  autoAllocateRemainder && amountToDonate < balances[user] */\n    tag_281:\n      0x00\n        /* \"contracts/fountain.sol\":5582:5854  for (uint8 i = 0; i < charities_.length; i++) { ... */\n    tag_283:\n        /* \"@openzeppelin/contracts/security/ReentrancyGuard.sol\":2325:2332  _status */\n      dup3\n        /* \"contracts/fountain.sol\":5582:5854  for (uint8 i = 0; i < charities_.length; i++) { ... */\n      iszero\n      tag_285\n      jumpi\n        /* \"contracts/fountain.sol\":5604:5621  charities_.length */\n      dup5\n        /* \"contracts/fountain.sol\":531:6252  contract Serenity is Ownable, Pausable, ReentrancyGuard {... */\n      mload\n      0xff\n        /* \"contracts/fountain.sol\":5600:5621  i < charities_.length */\n      dup3\n        /* \"contracts/fountain.sol\":531:6252  contract Serenity is Ownable, Pausable, ReentrancyGuard {... */\n      and\n        /* \"contracts/fountain.sol\":5600:5621  i < charities_.length */\n      dup2\n      dup2\n      lt\n      tag_286\n      jumpi\n      pop\n      pop\n      jump(tag_285)\n    tag_286:\n        /* \"contracts/fountain.sol\":5688:5712  charities[charities_[i]] */\n      tag_287\n      tag_288\n        /* \"contracts/fountain.sol\":5698:5711  charities_[i] */\n      tag_289\n      tag_290\n      dup5\n      dup12\n      tag_196\n      jump\t// in\n    tag_290:\n        /* \"contracts/fountain.sol\":531:6252  contract Serenity is Ownable, Pausable, ReentrancyGuard {... */\n      mload\n      0xff\n      and\n      swap1\n      jump\n        /* \"contracts/fountain.sol\":5698:5711  charities_[i] */\n    tag_289:\n        /* \"contracts/fountain.sol\":531:6252  contract Serenity is Ownable, Pausable, ReentrancyGuard {... */\n      0xff\n      and\n      0x00\n      swap1\n      dup2\n      mstore\n        /* \"contracts/fountain.sol\":5688:5697  charities */\n      0x04\n        /* \"contracts/fountain.sol\":531:6252  contract Serenity is Ownable, Pausable, ReentrancyGuard {... */\n      0x20\n      mstore\n      0x40\n      swap1\n      keccak256\n      swap1\n      jump\n        /* \"contracts/fountain.sol\":5688:5712  charities[charities_[i]] */\n    tag_288:\n        /* \"contracts/fountain.sol\":531:6252  contract Serenity is Ownable, Pausable, ReentrancyGuard {... */\n      sload\n      sub(exp(0x02, 0xa0), 0x01)\n      and\n      swap1\n      jump\n        /* \"contracts/fountain.sol\":5688:5712  charities[charities_[i]] */\n    tag_287:\n      swap2\n      pop\n        /* \"contracts/fountain.sol\":5714:5725  amounts_[i] */\n      tag_293\n      dup2\n      dup10\n      tag_196\n      jump\t// in\n    tag_293:\n        /* \"contracts/fountain.sol\":531:6252  contract Serenity is Ownable, Pausable, ReentrancyGuard {... */\n      mload\n        /* \"contracts/fountain.sol\":759:801  0xA0b86991c6218b36c1d19D4a2e9Eb0cE3606eB48 */\n      0xa0b86991c6218b36c1d19d4a2e9eb0ce3606eb48\n      dup1\n        /* \"contracts/fountain.sol\":5666:5726  IERC20(USDC).transfer(charities[charities_[i]], amounts_[i]) */\n      extcodesize\n      tag_294\n      jumpi\n      0x00\n      dup1\n        /* \"contracts/fountain.sol\":531:6252  contract Serenity is Ownable, Pausable, ReentrancyGuard {... */\n      revert\n        /* \"contracts/fountain.sol\":5666:5726  IERC20(USDC).transfer(charities[charities_[i]], amounts_[i]) */\n    tag_294:\n        /* \"contracts/fountain.sol\":531:6252  contract Serenity is Ownable, Pausable, ReentrancyGuard {... */\n      mload(0x40)\n      0xa9059cbb00000000000000000000000000000000000000000000000000000000\n        /* \"contracts/fountain.sol\":5666:5726  IERC20(USDC).transfer(charities[charities_[i]], amounts_[i]) */\n      dup2\n      mstore\n      sub(exp(0x02, 0xa0), 0x01)\n        /* \"contracts/fountain.sol\":531:6252  contract Serenity is Ownable, Pausable, ReentrancyGuard {... */\n      dup6\n      and\n        /* \"contracts/fountain.sol\":5688:5697  charities */\n      0x04\n        /* \"contracts/fountain.sol\":5666:5726  IERC20(USDC).transfer(charities[charities_[i]], amounts_[i]) */\n      dup3\n      add\n        /* \"contracts/fountain.sol\":531:6252  contract Serenity is Ownable, Pausable, ReentrancyGuard {... */\n      mstore\n      0x24\n      dup2\n      add\n      dup4\n      swap1\n      mstore\n        /* \"contracts/fountain.sol\":5666:5726  IERC20(USDC).transfer(charities[charities_[i]], amounts_[i]) */\n      0x20\n        /* \"contracts/fountain.sol\":531:6252  contract Serenity is Ownable, Pausable, ReentrancyGuard {... */\n      dup2\n      0x44\n      dup2\n      0x00\n        /* \"contracts/fountain.sol\":759:801  0xA0b86991c6218b36c1d19D4a2e9Eb0cE3606eB48 */\n      dup7\n        /* \"contracts/fountain.sol\":5666:5726  IERC20(USDC).transfer(charities[charities_[i]], amounts_[i]) */\n      gas\n      call\n      swap5\n      pop\n      dup5\n      tag_297\n      jumpi\n      tag_297\n      tag_222\n      jump\t// in\n    tag_297:\n      0x00\n      swap3\n      pop\n      dup5\n      iszero\n      tag_298\n      jumpi\n      tag_299\n      returndatasize\n      dup3\n      tag_68\n      jump\t// in\n    tag_299:\n      tag_300\n      returndatasize\n      dup3\n      add\n      dup3\n      tag_106\n      jump\t// in\n    tag_300:\n      swap3\n      pop\n    tag_298:\n      pop\n      pop\n        /* \"contracts/fountain.sol\":5740:5800  require(transferSuccess, \"USDC transfer to charity failed.\") */\n      tag_301\n      dup2\n      tag_302\n      jump\t// in\n    tag_301:\n      pop\n        /* \"contracts/fountain.sol\":5814:5843  amountToDonate -= amounts_[i] */\n      tag_303\n        /* \"contracts/fountain.sol\":5832:5843  amounts_[i] */\n      tag_304\n      dup3\n      dup11\n      tag_196\n      jump\t// in\n    tag_304:\n        /* \"contracts/fountain.sol\":531:6252  contract Serenity is Ownable, Pausable, ReentrancyGuard {... */\n      mload\n        /* \"contracts/fountain.sol\":5814:5843  amountToDonate -= amounts_[i] */\n      dup6\n      tag_138\n      jump\t// in\n    tag_303:\n      swap4\n      pop\n      pop\n      pop\n        /* \"contracts/fountain.sol\":5623:5626  i++ */\n      tag_305\n      dup2\n      tag_188\n      jump\t// in\n    tag_305:\n      swap1\n      pop\n        /* \"contracts/fountain.sol\":5582:5854  for (uint8 i = 0; i < charities_.length; i++) { ... */\n      jump(tag_283)\n    tag_285:\n      pop\n        /* \"contracts/fountain.sol\":5865:6070  if (autoAllocateRemainder) {... */\n      dup6\n      iszero\n      tag_306\n      jumpi\n        /* \"contracts/fountain.sol\":5023:5035  numCharities */\n      0x05\n        /* \"contracts/fountain.sol\":531:6252  contract Serenity is Ownable, Pausable, ReentrancyGuard {... */\n      sload\n      0xff\n      and\n      0xff\n        /* \"contracts/fountain.sol\":5940:5969  amountToDonate / numCharities */\n      tag_308\n        /* \"contracts/fountain.sol\":531:6252  contract Serenity is Ownable, Pausable, ReentrancyGuard {... */\n      dup2\n      dup4\n      and\n        /* \"contracts/fountain.sol\":5940:5969  amountToDonate / numCharities */\n      dup5\n      tag_135\n      jump\t// in\n    tag_308:\n      pop\n      0x00\n        /* \"contracts/fountain.sol\":5983:6060  for (uint8 i = 0; i < numCharities - 1; i++) {... */\n    tag_309:\n        /* \"@openzeppelin/contracts/security/ReentrancyGuard.sol\":2325:2332  _status */\n      dup5\n        /* \"contracts/fountain.sol\":5983:6060  for (uint8 i = 0; i < numCharities - 1; i++) {... */\n      iszero\n      tag_311\n      jumpi\n        /* \"contracts/fountain.sol\":6001:6021  i < numCharities - 1 */\n      tag_312\n        /* \"contracts/fountain.sol\":6005:6021  numCharities - 1 */\n      tag_265\n      dup5\n      tag_142\n      jump\t// in\n        /* \"contracts/fountain.sol\":6001:6021  i < numCharities - 1 */\n    tag_312:\n        /* \"contracts/fountain.sol\":531:6252  contract Serenity is Ownable, Pausable, ReentrancyGuard {... */\n      dup3\n        /* \"contracts/fountain.sol\":6001:6021  i < numCharities - 1 */\n      dup3\n        /* \"contracts/fountain.sol\":531:6252  contract Serenity is Ownable, Pausable, ReentrancyGuard {... */\n      and\n        /* \"contracts/fountain.sol\":6001:6021  i < numCharities - 1 */\n      lt\n      tag_314\n      jumpi\n      jump(tag_311)\n    tag_314:\n        /* \"contracts/fountain.sol\":6023:6026  i++ */\n      tag_315\n      dup2\n      tag_188\n      jump\t// in\n    tag_315:\n      swap1\n      pop\n        /* \"contracts/fountain.sol\":5983:6060  for (uint8 i = 0; i < numCharities - 1; i++) {... */\n      jump(tag_309)\n    tag_311:\n      pop\n      pop\n      pop\n        /* \"contracts/fountain.sol\":5865:6070  if (autoAllocateRemainder) {... */\n    tag_306:\n      pop\n      pop\n        /* \"@openzeppelin/contracts/security/ReentrancyGuard.sol\":2628:2650  _status = _NOT_ENTERED */\n      tag_316\n        /* \"@openzeppelin/contracts/security/ReentrancyGuard.sol\":2325:2332  _status */\n      0x01\n      dup1\n        /* \"contracts/fountain.sol\":531:6252  contract Serenity is Ownable, Pausable, ReentrancyGuard {... */\n      sstore\n      jump\n        /* \"@openzeppelin/contracts/security/ReentrancyGuard.sol\":2628:2650  _status = _NOT_ENTERED */\n    tag_316:\n        /* \"@openzeppelin/contracts/security/Pausable.sol\":1204:1276  modifier whenNotPaused() {... */\n      pop\n      pop\n      pop\n      pop\n      jump\t// out\n        /* \"contracts/fountain.sol\":531:6252  contract Serenity is Ownable, Pausable, ReentrancyGuard {... */\n    tag_134:\n      mstore(0x00, mul(0x4e487b71, exp(0x02, 0xe0)))\n      mstore(0x04, 0x11)\n      revert(0x00, 0x24)\n    tag_126:\n      mstore(0x00, mul(0x4e487b71, exp(0x02, 0xe0)))\n      mstore(0x04, 0x41)\n      revert(0x00, 0x24)\n    tag_302:\n      dup1\n      tag_78\n      jumpi\n      mload(0x40)\n      mul(0x461bcd, exp(0x02, 0xe5))\n      dup2\n      mstore\n      0x20\n      0x04\n      dup3\n      add\n      mstore\n      0x20\n      0x24\n      dup3\n      add\n      mstore\n      0x55534443207472616e7366657220746f2063686172697479206661696c65642e\n      0x44\n      dup3\n      add\n      mstore\n      0x64\n      dup2\n      revert\n    tag_276:\n      dup1\n      tag_78\n      jumpi\n      mload(0x40)\n      mul(0x461bcd, exp(0x02, 0xe5))\n      dup2\n      mstore\n      0x20\n      0x04\n      dup3\n      add\n      mstore\n      0x22\n      0x24\n      dup3\n      add\n      mstore\n      0x546f74616c2066696e616c697a6174696f6e20616d6f756e7420746f6f206869\n      0x44\n      dup3\n      add\n      mstore\n      0x6768000000000000000000000000000000000000000000000000000000000000\n      0x64\n      dup3\n      add\n      mstore\n      0x84\n      dup2\n      revert\n    tag_235:\n      dup1\n      tag_78\n      jumpi\n      mload(0x40)\n      mul(0x461bcd, exp(0x02, 0xe5))\n      dup2\n      mstore\n      0x20\n      0x04\n      dup3\n      add\n      mstore\n      0x27\n      0x24\n      dup3\n      add\n      mstore\n      0x4661696c656420746f2073656e642067617320746f20657068656d6572616c20\n      0x44\n      dup3\n      add\n      mstore\n      0x77616c6c65742e00000000000000000000000000000000000000000000000000\n      0x64\n      dup3\n      add\n      mstore\n      0x84\n      dup2\n      revert\n    tag_262:\n      dup1\n      tag_78\n      jumpi\n      mload(0x40)\n      mul(0x461bcd, exp(0x02, 0xe5))\n      dup2\n      mstore\n      0x20\n      0x04\n      dup3\n      add\n      mstore\n      0x31\n      0x24\n      dup3\n      add\n      mstore\n      0x43686172697469657320616e6420616d6f756e747320617272617973206f6620\n      0x44\n      dup3\n      add\n      mstore\n      0x646966666572656e74206c656e6774682e000000000000000000000000000000\n      0x64\n      dup3\n      add\n      mstore\n      0x84\n      dup2\n      revert\n    tag_280:\n      dup1\n      tag_78\n      jumpi\n      mload(0x40)\n      mul(0x461bcd, exp(0x02, 0xe5))\n      dup2\n      mstore\n      0x20\n      0x04\n      dup3\n      add\n      mstore\n      0x22\n      0x24\n      dup3\n      add\n      mstore\n      0x546f74616c2066696e616c697a6174696f6e20616d6f756e7420746f6f206c6f\n      0x44\n      dup3\n      add\n      mstore\n      0x772e000000000000000000000000000000000000000000000000000000000000\n      0x64\n      dup3\n      add\n      mstore\n      0x84\n      dup2\n      revert\n    tag_260:\n      dup1\n      tag_78\n      jumpi\n      mload(0x40)\n      mul(0x461bcd, exp(0x02, 0xe5))\n      dup2\n      mstore\n      0x20\n      0x04\n      dup3\n      add\n      mstore\n      0x1d\n      0x24\n      dup3\n      add\n      mstore\n      0x556e617574686f72697a6174696f6e2066696e616c697a6174696f6e2e000000\n      0x44\n      dup3\n      add\n      mstore\n      0x64\n      dup2\n      revert\n    tag_266:\n      dup1\n      tag_78\n      jumpi\n      mload(0x40)\n      mul(0x461bcd, exp(0x02, 0xe5))\n      dup2\n      mstore\n      0x20\n      0x04\n      dup3\n      add\n      mstore\n      0x12\n      0x24\n      dup3\n      add\n      mstore\n      0x546f6f206d616e79206368617269746965730000000000000000000000000000\n      0x44\n      dup3\n      add\n      mstore\n      0x64\n      dup2\n      revert\n    tag_207:\n      dup1\n      tag_78\n      jumpi\n      mload(0x40)\n      mul(0x461bcd, exp(0x02, 0xe5))\n      dup2\n      mstore\n      0x20\n      0x04\n      dup3\n      add\n      mstore\n      0x1f\n      0x24\n      dup3\n      add\n      mstore\n      0x5265656e7472616e637947756172643a207265656e7472616e742063616c6c00\n      0x44\n      dup3\n      add\n      mstore\n      0x64\n      dup2\n      revert\n    tag_222:\n      mload(0x40)\n      returndatasize\n      0x00\n      dup3\n      returndatacopy\n      returndatasize\n      dup2\n      revert\n    tag_76:\n      dup1\n      iszero\n      iszero\n      dup2\n      eq\n      tag_78\n      jumpi\n      0x00\n      dup1\n      revert\n\n    auxdata: 0xa3646970667358221220ad8a45d4b28300f0218b5e823e0f57017cc0ee4d744119769edb23b4543a48b66c6578706572696d656e74616cf564736f6c63430008070041\n}\n",
				"bytecode": {
					"linkReferences": {},
					"object": "60a0604052341561000f57600080fd5b6115c4803803601f19601f82011660a00160a0811067ffffffffffffffff82111715610064577f4e487b7100000000000000000000000000000000000000000000000000000000600052604160045260246000fd5b604052808260a039604081121561007a57600080fd5b505060a051600160a060020a038116811461009457600080fd5b6100a060c051826100c1565b5060405161148a8061013a83396080518281816102050152610b6401528082f35b6000805433600160a060020a031982168117835560405191929091600160a060020a038416917f8be0079c531659141344cd1fd0a4f28419497f9722a3daafe3b4186f6b6457e091a3600160a860020a0319163360a060020a60ff02191617600055600180556005805460ff1916905560805260025556fe6040608081526004361061028d5760007c010000000000000000000000000000000000000000000000000000000081350463480a6fdc81146100a357634aa4a4fc81146100d357635c975abb81146101085763715018a6811461014a576389a30271811461016a57638da5cb5b811461019b57638de9c37281146101c65763c31c9c0781146101ee5763f2fde38b81146102345763f8b2cb4f811461024f5761028a565b34156100ad578182fd5b6100b63661038a565b6100c681838587898b8d8f610b31565b5050505050505050818351f35b34156100dd578182fd5b6100e63661032f565b825173c02aaa39b223fe8d0a0e5c4f27ead9083c756cc28152602081f35b0381f35b3415610112578182fd5b61011b3661032f565b60ff74010000000000000000000000000000000000000000835404168351806101048383901515815260200190565b3415610154578182fd5b61015d3661032f565b610165610a18565b818351f35b3415610174578182fd5b61017d3661032f565b825173a0b86991c6218b36c1d19d4a2e9eb0ce3606eb488152602081f35b34156101a5578182fd5b6101ae3661032f565b81548351600160a060020a0390911680825290602081f35b34156101d0578182fd5b6101d936610425565b6101e581838587610e2a565b50505050818351f35b34156101f8578182fd5b6102013661032f565b82517f0000000000000000000000000000000000000000000000000000000000000000600160a060020a03168152602081f35b341561023e578182fd5b61016561024a36610358565b610a67565b3415610259578182fd5b61028061026536610358565b600160a060020a031660009081526003602052604090205490565b8351818152602081f35b50505b50600080fd5b600435600160a060020a03811681146102ab57600080fd5b90565b600082601f8301126102bf57600080fd5b81356102ca816105ee565b6040516102d78282610702565b82815260208082019250858101818502870182018810156102f757600080fd5b60005b85811015610316578135855293820193908201906001016102fa565b5091979650505050505050565b6064356102ab81611438565b60006003198201121561034157600080fd5b50565b6000818303121561035457600080fd5b5050565b600060206003198301121561036c57600080fd5b600435600160a060020a038116811461038457600080fd5b92915050565b6000808080808080806101006003198a0112156103a657600080fd5b600435600160a060020a0380821682146103bf57600080fd5b9098506024359080821682146103d457600080fd5b50965060443595506064359450608435935060a43562ffffff80821682146103fb57600080fd5b90935060c43590808216821461041057600080fd5b508092505060e4359050919395975091939597565b600080808060806003198601121561043c57600080fd5b610444610293565b935060243567ffffffffffffffff8082111561045f57600080fd5b86602383011261046e57600080fd5b816004013561047c816105ee565b6040516104898282610702565b828152602080820192506024868101908286028801018c10156104ab57600080fd5b600096505b848710156104dd57803560ff811681146104c957600080fd5b8452600196909601959281019281016104b0565b509097505060443593505050808211156104f657600080fd5b5061050486826004016102ae565b92505061050f610323565b90509193509193565b60006020828403121561052a57600080fd5b815161053581611438565b9392505050565b60006020828403121561054e57600080fd5b5051919050565b600061010082019050600160a060020a0380845116835280602085015116602084015262ffffff60408501511660408401528060608501511660608401526080840151608084015260a084015160a084015260c084015160c08401528060e08501511660e08401525092915050565b604051610100810167ffffffffffffffff811182821017156105e8576105e8611113565b60405290565b600067ffffffffffffffff82111561060857610608611113565b5060209081020190565b60008219821115610625576106256110fa565b500190565b60008261064a5760e060020a634e487b7102600052601260045260246000fd5b500490565b600082821015610661576106616110fa565b500390565b600060ff8216600181101561067d5761067d6110fa565b6000190192915050565b60003d80156106d4573d67ffffffffffffffff8111156106a9576106a9611113565b6040516106c0601f8301601f191660200182610702565b8181528093503d6000602083013e50505090565b606091505090565b60a0810181811067ffffffffffffffff821117156106fc576106fc611113565b60405250565b601f8201601f1916810167ffffffffffffffff8111828210171561072857610728611113565b6040525050565b600160a060020a03600054163381146103415760405160e560020a62461bcd02815260206004820152602060248201527f4f776e61626c653a2063616c6c6572206973206e6f7420746865206f776e65726044820152606481fd5b60ff740100000000000000000000000000000000000000006000540416156107f45760405160e560020a62461bcd02815260206004820152601060248201527f5061757361626c653a20706175736564000000000000000000000000000000006044820152606481fd5b565b6040517f095ea7b30000000000000000000000000000000000000000000000000000000060208201908152600160a060020a03841660248301526044808301869052825260646108468184610702565b506000808351836000875af191505061085d610687565b8182156108865781518015806108825761087f60208386010160208601610518565b90505b9150505b806108d557604051925060e560020a62461bcd02835260206004840152600260248401527f53410000000000000000000000000000000000000000000000000000000000006044840152606483fd5b505050505050565b604051602081017f23b872dd000000000000000000000000000000000000000000000000000000008152600160a060020a03808516602484015280861660448401525085606483015260648252610933826106dc565b6000808351836000875af1915050610949610687565b81821561097257815180158061096e5761096b60208386010160208601610518565b90505b9150505b806109c157604051925060e560020a62461bcd02835260206004840152600360248401527f53544600000000000000000000000000000000000000000000000000000000006044840152606483fd5b50505050505050565b600060ff821660ff8114156109e1576109e16110fa565b60010192915050565b600081518310610a0d5760e060020a634e487b7102600052603260045260246000fd5b506020918202010190565b610a2061072f565b600054600160a060020a031981166000556000600160a060020a0382167f8be0079c531659141344cd1fd0a4f28419497f9722a3daafe3b4186f6b6457e06000604051a350565b610a6f61072f565b600160a060020a0380821680610aed5760405160e560020a62461bcd02815260206004820152602660248201527f4f776e61626c653a206e6577206f776e657220697320746865207a65726f206160448201527f64647265737300000000000000000000000000000000000000000000000000006064820152608481fd5b60005481600160a060020a0319821617600055838382167f8be0079c531659141344cd1fd0a4f28419497f9722a3daafe3b4186f6b6457e06000604051a350505050565b610b3961078a565b610b48600260015414156113df565b6002600155610b59833033856108dd565b600160a060020a03807f000000000000000000000000000000000000000000000000000000000000000016610b8f8582866107f6565b600254610b9a6105c4565b600160a060020a038616815273c02aaa39b223fe8d0a0e5c4f27ead9083c756cc2602082015262ffffff8a166040828101919091523060608301528860808301528260a08301528960c0830152600092508260e0830152833b610bfb578283fd5b80517fdb3e219800000000000000000000000000000000000000000000000000000000815260208182610c318660048601610555565b038387895af1925082610c4657610c4661142c565b838315610c6657610c573d83610702565b610c633d83018361053c565b90505b600254935073c02aaa39b223fe8d0a0e5c4f27ead9083c756cc29150813b610c8c578485fd5b82517f2e1a7d4d00000000000000000000000000000000000000000000000000000000815260048101859052858160248183875af1945084610cd057610cd061142c565b8415610cec57610ce03d82610702565b610cec3d820182610344565b5060025493508485868551878b8d165af19650610d07610687565b50610d11876111ec565b610d1b818b61064f565b96505050610d276105c4565b600160a060020a0388168152915073a0b86991c6218b36c1d19d4a2e9eb0ce3606eb48602083015262ffffff8c16828201523060608301528860808301528460a08301528c60c08301528260e0830152833b610d81578283fd5b517f414bf389000000000000000000000000000000000000000000000000000000008152935060208480610db88460048301610555565b038685875af192505081610dce57610dce61142c565b8115610ded57610dde3d84610702565b610dea3d84018461053c565b90505b600160a060020a03841660009081526003602052604090209250610e12818454610612565b8355505050610e2060018055565b5050505050505050565b610e3261078a565b6001610e426002825414156113df565b60028155600160a060020a03808316331480610e7157610e6c8260005416600160a060020a031690565b331490505b610e7a81611345565b50508251610e8a8551821461125f565b508251610ead610ea5610e9f60055460ff1690565b60ff1690565b821115611392565b506000805b8215610ef457855160ff8216818110610ecc575050610ef4565b610ee0610ed9828a6109ea565b5185610612565b93505050610eed816109ca565b9050610eb2565b50610f1f610f1684600160a060020a0316600090815260036020526040902090565b54821115611179565b8586610f425750600160a060020a03831660009081526003602052604090205481145b610f4b816112d2565b508515610f6557600160a060020a03831660005260036020525b60005b821561109757845160ff8216818110610f82575050611097565b610fbd610fb0610f9c610f95848b6109ea565b5160ff1690565b60ff16600090815260046020526040902090565b54600160a060020a031690565b9150610fc981896109ea565b5173a0b86991c6218b36c1d19d4a2e9eb0ce3606eb48803b610fea57600080fd5b6040517fa9059cbb000000000000000000000000000000000000000000000000000000008152600160a060020a0385166004820152602481018390526020816044816000865af19450846110405761104061142c565b600092508415611063576110543d82610702565b6110603d820182610518565b92505b505061106e8161112c565b5061108361107c828a6109ea565b518561064f565b93505050611090816109ca565b9050610f68565b5085156110e95760055460ff1660ff6110b28183168461062a565b5060005b84156110e5576110c8610e9f84610666565b828216106110d5576110e5565b6110de816109ca565b90506110b6565b5050505b50506110f460018055565b50505050565b60e060020a634e487b7102600052601160045260246000fd5b60e060020a634e487b7102600052604160045260246000fd5b806103415760405160e560020a62461bcd02815260206004820152602060248201527f55534443207472616e7366657220746f2063686172697479206661696c65642e6044820152606481fd5b806103415760405160e560020a62461bcd02815260206004820152602260248201527f546f74616c2066696e616c697a6174696f6e20616d6f756e7420746f6f20686960448201527f67680000000000000000000000000000000000000000000000000000000000006064820152608481fd5b806103415760405160e560020a62461bcd02815260206004820152602760248201527f4661696c656420746f2073656e642067617320746f20657068656d6572616c2060448201527f77616c6c65742e000000000000000000000000000000000000000000000000006064820152608481fd5b806103415760405160e560020a62461bcd02815260206004820152603160248201527f43686172697469657320616e6420616d6f756e747320617272617973206f662060448201527f646966666572656e74206c656e6774682e0000000000000000000000000000006064820152608481fd5b806103415760405160e560020a62461bcd02815260206004820152602260248201527f546f74616c2066696e616c697a6174696f6e20616d6f756e7420746f6f206c6f60448201527f772e0000000000000000000000000000000000000000000000000000000000006064820152608481fd5b806103415760405160e560020a62461bcd02815260206004820152601d60248201527f556e617574686f72697a6174696f6e2066696e616c697a6174696f6e2e0000006044820152606481fd5b806103415760405160e560020a62461bcd02815260206004820152601260248201527f546f6f206d616e792063686172697469657300000000000000000000000000006044820152606481fd5b806103415760405160e560020a62461bcd02815260206004820152601f60248201527f5265656e7472616e637947756172643a207265656e7472616e742063616c6c006044820152606481fd5b6040513d6000823e3d81fd5b801515811461034157600080fdfea3646970667358221220ad8a45d4b28300f0218b5e823e0f57017cc0ee4d744119769edb23b4543a48b66c6578706572696d656e74616cf564736f6c63430008070041",
					"opcodes": "PUSH1 0xA0 PUSH1 0x40 MSTORE CALLVALUE ISZERO PUSH2 0xF JUMPI PUSH1 0x0 DUP1 REVERT JUMPDEST PUSH2 0x15C4 DUP1 CODESIZE SUB PUSH1 0x1F NOT PUSH1 0x1F DUP3 ADD AND PUSH1 0xA0 ADD PUSH1 0xA0 DUP2 LT PUSH8 0xFFFFFFFFFFFFFFFF DUP3 GT OR ISZERO PUSH2 0x64 JUMPI PUSH32 0x4E487B7100000000000000000000000000000000000000000000000000000000 PUSH1 0x0 MSTORE PUSH1 0x41 PUSH1 0x4 MSTORE PUSH1 0x24 PUSH1 0x0 REVERT JUMPDEST PUSH1 0x40 MSTORE DUP1 DUP3 PUSH1 0xA0 CODECOPY PUSH1 0x40 DUP2 SLT ISZERO PUSH2 0x7A JUMPI PUSH1 0x0 DUP1 REVERT JUMPDEST POP POP PUSH1 0xA0 MLOAD PUSH1 0x1 PUSH1 0xA0 PUSH1 0x2 EXP SUB DUP2 AND DUP2 EQ PUSH2 0x94 JUMPI PUSH1 0x0 DUP1 REVERT JUMPDEST PUSH2 0xA0 PUSH1 0xC0 MLOAD DUP3 PUSH2 0xC1 JUMP JUMPDEST POP PUSH1 0x40 MLOAD PUSH2 0x148A DUP1 PUSH2 0x13A DUP4 CODECOPY PUSH1 0x80 MLOAD DUP3 DUP2 DUP2 PUSH2 0x205 ADD MSTORE PUSH2 0xB64 ADD MSTORE DUP1 DUP3 RETURN JUMPDEST PUSH1 0x0 DUP1 SLOAD CALLER PUSH1 0x1 PUSH1 0xA0 PUSH1 0x2 EXP SUB NOT DUP3 AND DUP2 OR DUP4 SSTORE PUSH1 0x40 MLOAD SWAP2 SWAP3 SWAP1 SWAP2 PUSH1 0x1 PUSH1 0xA0 PUSH1 0x2 EXP SUB DUP5 AND SWAP2 PUSH32 0x8BE0079C531659141344CD1FD0A4F28419497F9722A3DAAFE3B4186F6B6457E0 SWAP2 LOG3 PUSH1 0x1 PUSH1 0xA8 PUSH1 0x2 EXP SUB NOT AND CALLER PUSH1 0xA0 PUSH1 0x2 EXP PUSH1 0xFF MUL NOT AND OR PUSH1 0x0 SSTORE PUSH1 0x1 DUP1 SSTORE PUSH1 0x5 DUP1 SLOAD PUSH1 0xFF NOT AND SWAP1 SSTORE PUSH1 0x80 MSTORE PUSH1 0x2 SSTORE JUMP INVALID PUSH1 0x40 PUSH1 0x80 DUP2 MSTORE PUSH1 0x4 CALLDATASIZE LT PUSH2 0x28D JUMPI PUSH1 0x0 PUSH29 0x100000000000000000000000000000000000000000000000000000000 DUP2 CALLDATALOAD DIV PUSH4 0x480A6FDC DUP2 EQ PUSH2 0xA3 JUMPI PUSH4 0x4AA4A4FC DUP2 EQ PUSH2 0xD3 JUMPI PUSH4 0x5C975ABB DUP2 EQ PUSH2 0x108 JUMPI PUSH4 0x715018A6 DUP2 EQ PUSH2 0x14A JUMPI PUSH4 0x89A30271 DUP2 EQ PUSH2 0x16A JUMPI PUSH4 0x8DA5CB5B DUP2 EQ PUSH2 0x19B JUMPI PUSH4 0x8DE9C372 DUP2 EQ PUSH2 0x1C6 JUMPI PUSH4 0xC31C9C07 DUP2 EQ PUSH2 0x1EE JUMPI PUSH4 0xF2FDE38B DUP2 EQ PUSH2 0x234 JUMPI PUSH4 0xF8B2CB4F DUP2 EQ PUSH2 0x24F JUMPI PUSH2 0x28A JUMP JUMPDEST CALLVALUE ISZERO PUSH2 0xAD JUMPI DUP2 DUP3 REVERT JUMPDEST PUSH2 0xB6 CALLDATASIZE PUSH2 0x38A JUMP JUMPDEST PUSH2 0xC6 DUP2 DUP4 DUP6 DUP8 DUP10 DUP12 DUP14 DUP16 PUSH2 0xB31 JUMP JUMPDEST POP POP POP POP POP POP POP POP DUP2 DUP4 MLOAD RETURN JUMPDEST CALLVALUE ISZERO PUSH2 0xDD JUMPI DUP2 DUP3 REVERT JUMPDEST PUSH2 0xE6 CALLDATASIZE PUSH2 0x32F JUMP JUMPDEST DUP3 MLOAD PUSH20 0xC02AAA39B223FE8D0A0E5C4F27EAD9083C756CC2 DUP2 MSTORE PUSH1 0x20 DUP2 RETURN JUMPDEST SUB DUP2 RETURN JUMPDEST CALLVALUE ISZERO PUSH2 0x112 JUMPI DUP2 DUP3 REVERT JUMPDEST PUSH2 0x11B CALLDATASIZE PUSH2 0x32F JUMP JUMPDEST PUSH1 0xFF PUSH21 0x10000000000000000000000000000000000000000 DUP4 SLOAD DIV AND DUP4 MLOAD DUP1 PUSH2 0x104 DUP4 DUP4 SWAP1 ISZERO ISZERO DUP2 MSTORE PUSH1 0x20 ADD SWAP1 JUMP JUMPDEST CALLVALUE ISZERO PUSH2 0x154 JUMPI DUP2 DUP3 REVERT JUMPDEST PUSH2 0x15D CALLDATASIZE PUSH2 0x32F JUMP JUMPDEST PUSH2 0x165 PUSH2 0xA18 JUMP JUMPDEST DUP2 DUP4 MLOAD RETURN JUMPDEST CALLVALUE ISZERO PUSH2 0x174 JUMPI DUP2 DUP3 REVERT JUMPDEST PUSH2 0x17D CALLDATASIZE PUSH2 0x32F JUMP JUMPDEST DUP3 MLOAD PUSH20 0xA0B86991C6218B36C1D19D4A2E9EB0CE3606EB48 DUP2 MSTORE PUSH1 0x20 DUP2 RETURN JUMPDEST CALLVALUE ISZERO PUSH2 0x1A5 JUMPI DUP2 DUP3 REVERT JUMPDEST PUSH2 0x1AE CALLDATASIZE PUSH2 0x32F JUMP JUMPDEST DUP2 SLOAD DUP4 MLOAD PUSH1 0x1 PUSH1 0xA0 PUSH1 0x2 EXP SUB SWAP1 SWAP2 AND DUP1 DUP3 MSTORE SWAP1 PUSH1 0x20 DUP2 RETURN JUMPDEST CALLVALUE ISZERO PUSH2 0x1D0 JUMPI DUP2 DUP3 REVERT JUMPDEST PUSH2 0x1D9 CALLDATASIZE PUSH2 0x425 JUMP JUMPDEST PUSH2 0x1E5 DUP2 DUP4 DUP6 DUP8 PUSH2 0xE2A JUMP JUMPDEST POP POP POP POP DUP2 DUP4 MLOAD RETURN JUMPDEST CALLVALUE ISZERO PUSH2 0x1F8 JUMPI DUP2 DUP3 REVERT JUMPDEST PUSH2 0x201 CALLDATASIZE PUSH2 0x32F JUMP JUMPDEST DUP3 MLOAD PUSH32 0x0 PUSH1 0x1 PUSH1 0xA0 PUSH1 0x2 EXP SUB AND DUP2 MSTORE PUSH1 0x20 DUP2 RETURN JUMPDEST CALLVALUE ISZERO PUSH2 0x23E JUMPI DUP2 DUP3 REVERT JUMPDEST PUSH2 0x165 PUSH2 0x24A CALLDATASIZE PUSH2 0x358 JUMP JUMPDEST PUSH2 0xA67 JUMP JUMPDEST CALLVALUE ISZERO PUSH2 0x259 JUMPI DUP2 DUP3 REVERT JUMPDEST PUSH2 0x280 PUSH2 0x265 CALLDATASIZE PUSH2 0x358 JUMP JUMPDEST PUSH1 0x1 PUSH1 0xA0 PUSH1 0x2 EXP SUB AND PUSH1 0x0 SWAP1 DUP2 MSTORE PUSH1 0x3 PUSH1 0x20 MSTORE PUSH1 0x40 SWAP1 KECCAK256 SLOAD SWAP1 JUMP JUMPDEST DUP4 MLOAD DUP2 DUP2 MSTORE PUSH1 0x20 DUP2 RETURN JUMPDEST POP POP JUMPDEST POP PUSH1 0x0 DUP1 REVERT JUMPDEST PUSH1 0x4 CALLDATALOAD PUSH1 0x1 PUSH1 0xA0 PUSH1 0x2 EXP SUB DUP2 AND DUP2 EQ PUSH2 0x2AB JUMPI PUSH1 0x0 DUP1 REVERT JUMPDEST SWAP1 JUMP JUMPDEST PUSH1 0x0 DUP3 PUSH1 0x1F DUP4 ADD SLT PUSH2 0x2BF JUMPI PUSH1 0x0 DUP1 REVERT JUMPDEST DUP2 CALLDATALOAD PUSH2 0x2CA DUP2 PUSH2 0x5EE JUMP JUMPDEST PUSH1 0x40 MLOAD PUSH2 0x2D7 DUP3 DUP3 PUSH2 0x702 JUMP JUMPDEST DUP3 DUP2 MSTORE PUSH1 0x20 DUP1 DUP3 ADD SWAP3 POP DUP6 DUP2 ADD DUP2 DUP6 MUL DUP8 ADD DUP3 ADD DUP9 LT ISZERO PUSH2 0x2F7 JUMPI PUSH1 0x0 DUP1 REVERT JUMPDEST PUSH1 0x0 JUMPDEST DUP6 DUP2 LT ISZERO PUSH2 0x316 JUMPI DUP2 CALLDATALOAD DUP6 MSTORE SWAP4 DUP3 ADD SWAP4 SWAP1 DUP3 ADD SWAP1 PUSH1 0x1 ADD PUSH2 0x2FA JUMP JUMPDEST POP SWAP2 SWAP8 SWAP7 POP POP POP POP POP POP POP JUMP JUMPDEST PUSH1 0x64 CALLDATALOAD PUSH2 0x2AB DUP2 PUSH2 0x1438 JUMP JUMPDEST PUSH1 0x0 PUSH1 0x3 NOT DUP3 ADD SLT ISZERO PUSH2 0x341 JUMPI PUSH1 0x0 DUP1 REVERT JUMPDEST POP JUMP JUMPDEST PUSH1 0x0 DUP2 DUP4 SUB SLT ISZERO PUSH2 0x354 JUMPI PUSH1 0x0 DUP1 REVERT JUMPDEST POP POP JUMP JUMPDEST PUSH1 0x0 PUSH1 0x20 PUSH1 0x3 NOT DUP4 ADD SLT ISZERO PUSH2 0x36C JUMPI PUSH1 0x0 DUP1 REVERT JUMPDEST PUSH1 0x4 CALLDATALOAD PUSH1 0x1 PUSH1 0xA0 PUSH1 0x2 EXP SUB DUP2 AND DUP2 EQ PUSH2 0x384 JUMPI PUSH1 0x0 DUP1 REVERT JUMPDEST SWAP3 SWAP2 POP POP JUMP JUMPDEST PUSH1 0x0 DUP1 DUP1 DUP1 DUP1 DUP1 DUP1 DUP1 PUSH2 0x100 PUSH1 0x3 NOT DUP11 ADD SLT ISZERO PUSH2 0x3A6 JUMPI PUSH1 0x0 DUP1 REVERT JUMPDEST PUSH1 0x4 CALLDATALOAD PUSH1 0x1 PUSH1 0xA0 PUSH1 0x2 EXP SUB DUP1 DUP3 AND DUP3 EQ PUSH2 0x3BF JUMPI PUSH1 0x0 DUP1 REVERT JUMPDEST SWAP1 SWAP9 POP PUSH1 0x24 CALLDATALOAD SWAP1 DUP1 DUP3 AND DUP3 EQ PUSH2 0x3D4 JUMPI PUSH1 0x0 DUP1 REVERT JUMPDEST POP SWAP7 POP PUSH1 0x44 CALLDATALOAD SWAP6 POP PUSH1 0x64 CALLDATALOAD SWAP5 POP PUSH1 0x84 CALLDATALOAD SWAP4 POP PUSH1 0xA4 CALLDATALOAD PUSH3 0xFFFFFF DUP1 DUP3 AND DUP3 EQ PUSH2 0x3FB JUMPI PUSH1 0x0 DUP1 REVERT JUMPDEST SWAP1 SWAP4 POP PUSH1 0xC4 CALLDATALOAD SWAP1 DUP1 DUP3 AND DUP3 EQ PUSH2 0x410 JUMPI PUSH1 0x0 DUP1 REVERT JUMPDEST POP DUP1 SWAP3 POP POP PUSH1 0xE4 CALLDATALOAD SWAP1 POP SWAP2 SWAP4 SWAP6 SWAP8 POP SWAP2 SWAP4 SWAP6 SWAP8 JUMP JUMPDEST PUSH1 0x0 DUP1 DUP1 DUP1 PUSH1 0x80 PUSH1 0x3 NOT DUP7 ADD SLT ISZERO PUSH2 0x43C JUMPI PUSH1 0x0 DUP1 REVERT JUMPDEST PUSH2 0x444 PUSH2 0x293 JUMP JUMPDEST SWAP4 POP PUSH1 0x24 CALLDATALOAD PUSH8 0xFFFFFFFFFFFFFFFF DUP1 DUP3 GT ISZERO PUSH2 0x45F JUMPI PUSH1 0x0 DUP1 REVERT JUMPDEST DUP7 PUSH1 0x23 DUP4 ADD SLT PUSH2 0x46E JUMPI PUSH1 0x0 DUP1 REVERT JUMPDEST DUP2 PUSH1 0x4 ADD CALLDATALOAD PUSH2 0x47C DUP2 PUSH2 0x5EE JUMP JUMPDEST PUSH1 0x40 MLOAD PUSH2 0x489 DUP3 DUP3 PUSH2 0x702 JUMP JUMPDEST DUP3 DUP2 MSTORE PUSH1 0x20 DUP1 DUP3 ADD SWAP3 POP PUSH1 0x24 DUP7 DUP2 ADD SWAP1 DUP3 DUP7 MUL DUP9 ADD ADD DUP13 LT ISZERO PUSH2 0x4AB JUMPI PUSH1 0x0 DUP1 REVERT JUMPDEST PUSH1 0x0 SWAP7 POP JUMPDEST DUP5 DUP8 LT ISZERO PUSH2 0x4DD JUMPI DUP1 CALLDATALOAD PUSH1 0xFF DUP2 AND DUP2 EQ PUSH2 0x4C9 JUMPI PUSH1 0x0 DUP1 REVERT JUMPDEST DUP5 MSTORE PUSH1 0x1 SWAP7 SWAP1 SWAP7 ADD SWAP6 SWAP3 DUP2 ADD SWAP3 DUP2 ADD PUSH2 0x4B0 JUMP JUMPDEST POP SWAP1 SWAP8 POP POP PUSH1 0x44 CALLDATALOAD SWAP4 POP POP POP DUP1 DUP3 GT ISZERO PUSH2 0x4F6 JUMPI PUSH1 0x0 DUP1 REVERT JUMPDEST POP PUSH2 0x504 DUP7 DUP3 PUSH1 0x4 ADD PUSH2 0x2AE JUMP JUMPDEST SWAP3 POP POP PUSH2 0x50F PUSH2 0x323 JUMP JUMPDEST SWAP1 POP SWAP2 SWAP4 POP SWAP2 SWAP4 JUMP JUMPDEST PUSH1 0x0 PUSH1 0x20 DUP3 DUP5 SUB SLT ISZERO PUSH2 0x52A JUMPI PUSH1 0x0 DUP1 REVERT JUMPDEST DUP2 MLOAD PUSH2 0x535 DUP2 PUSH2 0x1438 JUMP JUMPDEST SWAP4 SWAP3 POP POP POP JUMP JUMPDEST PUSH1 0x0 PUSH1 0x20 DUP3 DUP5 SUB SLT ISZERO PUSH2 0x54E JUMPI PUSH1 0x0 DUP1 REVERT JUMPDEST POP MLOAD SWAP2 SWAP1 POP JUMP JUMPDEST PUSH1 0x0 PUSH2 0x100 DUP3 ADD SWAP1 POP PUSH1 0x1 PUSH1 0xA0 PUSH1 0x2 EXP SUB DUP1 DUP5 MLOAD AND DUP4 MSTORE DUP1 PUSH1 0x20 DUP6 ADD MLOAD AND PUSH1 0x20 DUP5 ADD MSTORE PUSH3 0xFFFFFF PUSH1 0x40 DUP6 ADD MLOAD AND PUSH1 0x40 DUP5 ADD MSTORE DUP1 PUSH1 0x60 DUP6 ADD MLOAD AND PUSH1 0x60 DUP5 ADD MSTORE PUSH1 0x80 DUP5 ADD MLOAD PUSH1 0x80 DUP5 ADD MSTORE PUSH1 0xA0 DUP5 ADD MLOAD PUSH1 0xA0 DUP5 ADD MSTORE PUSH1 0xC0 DUP5 ADD MLOAD PUSH1 0xC0 DUP5 ADD MSTORE DUP1 PUSH1 0xE0 DUP6 ADD MLOAD AND PUSH1 0xE0 DUP5 ADD MSTORE POP SWAP3 SWAP2 POP POP JUMP JUMPDEST PUSH1 0x40 MLOAD PUSH2 0x100 DUP2 ADD PUSH8 0xFFFFFFFFFFFFFFFF DUP2 GT DUP3 DUP3 LT OR ISZERO PUSH2 0x5E8 JUMPI PUSH2 0x5E8 PUSH2 0x1113 JUMP JUMPDEST PUSH1 0x40 MSTORE SWAP1 JUMP JUMPDEST PUSH1 0x0 PUSH8 0xFFFFFFFFFFFFFFFF DUP3 GT ISZERO PUSH2 0x608 JUMPI PUSH2 0x608 PUSH2 0x1113 JUMP JUMPDEST POP PUSH1 0x20 SWAP1 DUP2 MUL ADD SWAP1 JUMP JUMPDEST PUSH1 0x0 DUP3 NOT DUP3 GT ISZERO PUSH2 0x625 JUMPI PUSH2 0x625 PUSH2 0x10FA JUMP JUMPDEST POP ADD SWAP1 JUMP JUMPDEST PUSH1 0x0 DUP3 PUSH2 0x64A JUMPI PUSH1 0xE0 PUSH1 0x2 EXP PUSH4 0x4E487B71 MUL PUSH1 0x0 MSTORE PUSH1 0x12 PUSH1 0x4 MSTORE PUSH1 0x24 PUSH1 0x0 REVERT JUMPDEST POP DIV SWAP1 JUMP JUMPDEST PUSH1 0x0 DUP3 DUP3 LT ISZERO PUSH2 0x661 JUMPI PUSH2 0x661 PUSH2 0x10FA JUMP JUMPDEST POP SUB SWAP1 JUMP JUMPDEST PUSH1 0x0 PUSH1 0xFF DUP3 AND PUSH1 0x1 DUP2 LT ISZERO PUSH2 0x67D JUMPI PUSH2 0x67D PUSH2 0x10FA JUMP JUMPDEST PUSH1 0x0 NOT ADD SWAP3 SWAP2 POP POP JUMP JUMPDEST PUSH1 0x0 RETURNDATASIZE DUP1 ISZERO PUSH2 0x6D4 JUMPI RETURNDATASIZE PUSH8 0xFFFFFFFFFFFFFFFF DUP2 GT ISZERO PUSH2 0x6A9 JUMPI PUSH2 0x6A9 PUSH2 0x1113 JUMP JUMPDEST PUSH1 0x40 MLOAD PUSH2 0x6C0 PUSH1 0x1F DUP4 ADD PUSH1 0x1F NOT AND PUSH1 0x20 ADD DUP3 PUSH2 0x702 JUMP JUMPDEST DUP2 DUP2 MSTORE DUP1 SWAP4 POP RETURNDATASIZE PUSH1 0x0 PUSH1 0x20 DUP4 ADD RETURNDATACOPY POP POP POP SWAP1 JUMP JUMPDEST PUSH1 0x60 SWAP2 POP POP SWAP1 JUMP JUMPDEST PUSH1 0xA0 DUP2 ADD DUP2 DUP2 LT PUSH8 0xFFFFFFFFFFFFFFFF DUP3 GT OR ISZERO PUSH2 0x6FC JUMPI PUSH2 0x6FC PUSH2 0x1113 JUMP JUMPDEST PUSH1 0x40 MSTORE POP JUMP JUMPDEST PUSH1 0x1F DUP3 ADD PUSH1 0x1F NOT AND DUP2 ADD PUSH8 0xFFFFFFFFFFFFFFFF DUP2 GT DUP3 DUP3 LT OR ISZERO PUSH2 0x728 JUMPI PUSH2 0x728 PUSH2 0x1113 JUMP JUMPDEST PUSH1 0x40 MSTORE POP POP JUMP JUMPDEST PUSH1 0x1 PUSH1 0xA0 PUSH1 0x2 EXP SUB PUSH1 0x0 SLOAD AND CALLER DUP2 EQ PUSH2 0x341 JUMPI PUSH1 0x40 MLOAD PUSH1 0xE5 PUSH1 0x2 EXP PUSH3 0x461BCD MUL DUP2 MSTORE PUSH1 0x20 PUSH1 0x4 DUP3 ADD MSTORE PUSH1 0x20 PUSH1 0x24 DUP3 ADD MSTORE PUSH32 0x4F776E61626C653A2063616C6C6572206973206E6F7420746865206F776E6572 PUSH1 0x44 DUP3 ADD MSTORE PUSH1 0x64 DUP2 REVERT JUMPDEST PUSH1 0xFF PUSH21 0x10000000000000000000000000000000000000000 PUSH1 0x0 SLOAD DIV AND ISZERO PUSH2 0x7F4 JUMPI PUSH1 0x40 MLOAD PUSH1 0xE5 PUSH1 0x2 EXP PUSH3 0x461BCD MUL DUP2 MSTORE PUSH1 0x20 PUSH1 0x4 DUP3 ADD MSTORE PUSH1 0x10 PUSH1 0x24 DUP3 ADD MSTORE PUSH32 0x5061757361626C653A2070617573656400000000000000000000000000000000 PUSH1 0x44 DUP3 ADD MSTORE PUSH1 0x64 DUP2 REVERT JUMPDEST JUMP JUMPDEST PUSH1 0x40 MLOAD PUSH32 0x95EA7B300000000000000000000000000000000000000000000000000000000 PUSH1 0x20 DUP3 ADD SWAP1 DUP2 MSTORE PUSH1 0x1 PUSH1 0xA0 PUSH1 0x2 EXP SUB DUP5 AND PUSH1 0x24 DUP4 ADD MSTORE PUSH1 0x44 DUP1 DUP4 ADD DUP7 SWAP1 MSTORE DUP3 MSTORE PUSH1 0x64 PUSH2 0x846 DUP2 DUP5 PUSH2 0x702 JUMP JUMPDEST POP PUSH1 0x0 DUP1 DUP4 MLOAD DUP4 PUSH1 0x0 DUP8 GAS CALL SWAP2 POP POP PUSH2 0x85D PUSH2 0x687 JUMP JUMPDEST DUP2 DUP3 ISZERO PUSH2 0x886 JUMPI DUP2 MLOAD DUP1 ISZERO DUP1 PUSH2 0x882 JUMPI PUSH2 0x87F PUSH1 0x20 DUP4 DUP7 ADD ADD PUSH1 0x20 DUP7 ADD PUSH2 0x518 JUMP JUMPDEST SWAP1 POP JUMPDEST SWAP2 POP POP JUMPDEST DUP1 PUSH2 0x8D5 JUMPI PUSH1 0x40 MLOAD SWAP3 POP PUSH1 0xE5 PUSH1 0x2 EXP PUSH3 0x461BCD MUL DUP4 MSTORE PUSH1 0x20 PUSH1 0x4 DUP5 ADD MSTORE PUSH1 0x2 PUSH1 0x24 DUP5 ADD MSTORE PUSH32 0x5341000000000000000000000000000000000000000000000000000000000000 PUSH1 0x44 DUP5 ADD MSTORE PUSH1 0x64 DUP4 REVERT JUMPDEST POP POP POP POP POP POP JUMP JUMPDEST PUSH1 0x40 MLOAD PUSH1 0x20 DUP2 ADD PUSH32 0x23B872DD00000000000000000000000000000000000000000000000000000000 DUP2 MSTORE PUSH1 0x1 PUSH1 0xA0 PUSH1 0x2 EXP SUB DUP1 DUP6 AND PUSH1 0x24 DUP5 ADD MSTORE DUP1 DUP7 AND PUSH1 0x44 DUP5 ADD MSTORE POP DUP6 PUSH1 0x64 DUP4 ADD MSTORE PUSH1 0x64 DUP3 MSTORE PUSH2 0x933 DUP3 PUSH2 0x6DC JUMP JUMPDEST PUSH1 0x0 DUP1 DUP4 MLOAD DUP4 PUSH1 0x0 DUP8 GAS CALL SWAP2 POP POP PUSH2 0x949 PUSH2 0x687 JUMP JUMPDEST DUP2 DUP3 ISZERO PUSH2 0x972 JUMPI DUP2 MLOAD DUP1 ISZERO DUP1 PUSH2 0x96E JUMPI PUSH2 0x96B PUSH1 0x20 DUP4 DUP7 ADD ADD PUSH1 0x20 DUP7 ADD PUSH2 0x518 JUMP JUMPDEST SWAP1 POP JUMPDEST SWAP2 POP POP JUMPDEST DUP1 PUSH2 0x9C1 JUMPI PUSH1 0x40 MLOAD SWAP3 POP PUSH1 0xE5 PUSH1 0x2 EXP PUSH3 0x461BCD MUL DUP4 MSTORE PUSH1 0x20 PUSH1 0x4 DUP5 ADD MSTORE PUSH1 0x3 PUSH1 0x24 DUP5 ADD MSTORE PUSH32 0x5354460000000000000000000000000000000000000000000000000000000000 PUSH1 0x44 DUP5 ADD MSTORE PUSH1 0x64 DUP4 REVERT JUMPDEST POP POP POP POP POP POP POP JUMP JUMPDEST PUSH1 0x0 PUSH1 0xFF DUP3 AND PUSH1 0xFF DUP2 EQ ISZERO PUSH2 0x9E1 JUMPI PUSH2 0x9E1 PUSH2 0x10FA JUMP JUMPDEST PUSH1 0x1 ADD SWAP3 SWAP2 POP POP JUMP JUMPDEST PUSH1 0x0 DUP2 MLOAD DUP4 LT PUSH2 0xA0D JUMPI PUSH1 0xE0 PUSH1 0x2 EXP PUSH4 0x4E487B71 MUL PUSH1 0x0 MSTORE PUSH1 0x32 PUSH1 0x4 MSTORE PUSH1 0x24 PUSH1 0x0 REVERT JUMPDEST POP PUSH1 0x20 SWAP2 DUP3 MUL ADD ADD SWAP1 JUMP JUMPDEST PUSH2 0xA20 PUSH2 0x72F JUMP JUMPDEST PUSH1 0x0 SLOAD PUSH1 0x1 PUSH1 0xA0 PUSH1 0x2 EXP SUB NOT DUP2 AND PUSH1 0x0 SSTORE PUSH1 0x0 PUSH1 0x1 PUSH1 0xA0 PUSH1 0x2 EXP SUB DUP3 AND PUSH32 0x8BE0079C531659141344CD1FD0A4F28419497F9722A3DAAFE3B4186F6B6457E0 PUSH1 0x0 PUSH1 0x40 MLOAD LOG3 POP JUMP JUMPDEST PUSH2 0xA6F PUSH2 0x72F JUMP JUMPDEST PUSH1 0x1 PUSH1 0xA0 PUSH1 0x2 EXP SUB DUP1 DUP3 AND DUP1 PUSH2 0xAED JUMPI PUSH1 0x40 MLOAD PUSH1 0xE5 PUSH1 0x2 EXP PUSH3 0x461BCD MUL DUP2 MSTORE PUSH1 0x20 PUSH1 0x4 DUP3 ADD MSTORE PUSH1 0x26 PUSH1 0x24 DUP3 ADD MSTORE PUSH32 0x4F776E61626C653A206E6577206F776E657220697320746865207A65726F2061 PUSH1 0x44 DUP3 ADD MSTORE PUSH32 0x6464726573730000000000000000000000000000000000000000000000000000 PUSH1 0x64 DUP3 ADD MSTORE PUSH1 0x84 DUP2 REVERT JUMPDEST PUSH1 0x0 SLOAD DUP2 PUSH1 0x1 PUSH1 0xA0 PUSH1 0x2 EXP SUB NOT DUP3 AND OR PUSH1 0x0 SSTORE DUP4 DUP4 DUP3 AND PUSH32 0x8BE0079C531659141344CD1FD0A4F28419497F9722A3DAAFE3B4186F6B6457E0 PUSH1 0x0 PUSH1 0x40 MLOAD LOG3 POP POP POP POP JUMP JUMPDEST PUSH2 0xB39 PUSH2 0x78A JUMP JUMPDEST PUSH2 0xB48 PUSH1 0x2 PUSH1 0x1 SLOAD EQ ISZERO PUSH2 0x13DF JUMP JUMPDEST PUSH1 0x2 PUSH1 0x1 SSTORE PUSH2 0xB59 DUP4 ADDRESS CALLER DUP6 PUSH2 0x8DD JUMP JUMPDEST PUSH1 0x1 PUSH1 0xA0 PUSH1 0x2 EXP SUB DUP1 PUSH32 0x0 AND PUSH2 0xB8F DUP6 DUP3 DUP7 PUSH2 0x7F6 JUMP JUMPDEST PUSH1 0x2 SLOAD PUSH2 0xB9A PUSH2 0x5C4 JUMP JUMPDEST PUSH1 0x1 PUSH1 0xA0 PUSH1 0x2 EXP SUB DUP7 AND DUP2 MSTORE PUSH20 0xC02AAA39B223FE8D0A0E5C4F27EAD9083C756CC2 PUSH1 0x20 DUP3 ADD MSTORE PUSH3 0xFFFFFF DUP11 AND PUSH1 0x40 DUP3 DUP2 ADD SWAP2 SWAP1 SWAP2 MSTORE ADDRESS PUSH1 0x60 DUP4 ADD MSTORE DUP9 PUSH1 0x80 DUP4 ADD MSTORE DUP3 PUSH1 0xA0 DUP4 ADD MSTORE DUP10 PUSH1 0xC0 DUP4 ADD MSTORE PUSH1 0x0 SWAP3 POP DUP3 PUSH1 0xE0 DUP4 ADD MSTORE DUP4 EXTCODESIZE PUSH2 0xBFB JUMPI DUP3 DUP4 REVERT JUMPDEST DUP1 MLOAD PUSH32 0xDB3E219800000000000000000000000000000000000000000000000000000000 DUP2 MSTORE PUSH1 0x20 DUP2 DUP3 PUSH2 0xC31 DUP7 PUSH1 0x4 DUP7 ADD PUSH2 0x555 JUMP JUMPDEST SUB DUP4 DUP8 DUP10 GAS CALL SWAP3 POP DUP3 PUSH2 0xC46 JUMPI PUSH2 0xC46 PUSH2 0x142C JUMP JUMPDEST DUP4 DUP4 ISZERO PUSH2 0xC66 JUMPI PUSH2 0xC57 RETURNDATASIZE DUP4 PUSH2 0x702 JUMP JUMPDEST PUSH2 0xC63 RETURNDATASIZE DUP4 ADD DUP4 PUSH2 0x53C JUMP JUMPDEST SWAP1 POP JUMPDEST PUSH1 0x2 SLOAD SWAP4 POP PUSH20 0xC02AAA39B223FE8D0A0E5C4F27EAD9083C756CC2 SWAP2 POP DUP2 EXTCODESIZE PUSH2 0xC8C JUMPI DUP5 DUP6 REVERT JUMPDEST DUP3 MLOAD PUSH32 0x2E1A7D4D00000000000000000000000000000000000000000000000000000000 DUP2 MSTORE PUSH1 0x4 DUP2 ADD DUP6 SWAP1 MSTORE DUP6 DUP2 PUSH1 0x24 DUP2 DUP4 DUP8 GAS CALL SWAP5 POP DUP5 PUSH2 0xCD0 JUMPI PUSH2 0xCD0 PUSH2 0x142C JUMP JUMPDEST DUP5 ISZERO PUSH2 0xCEC JUMPI PUSH2 0xCE0 RETURNDATASIZE DUP3 PUSH2 0x702 JUMP JUMPDEST PUSH2 0xCEC RETURNDATASIZE DUP3 ADD DUP3 PUSH2 0x344 JUMP JUMPDEST POP PUSH1 0x2 SLOAD SWAP4 POP DUP5 DUP6 DUP7 DUP6 MLOAD DUP8 DUP12 DUP14 AND GAS CALL SWAP7 POP PUSH2 0xD07 PUSH2 0x687 JUMP JUMPDEST POP PUSH2 0xD11 DUP8 PUSH2 0x11EC JUMP JUMPDEST PUSH2 0xD1B DUP2 DUP12 PUSH2 0x64F JUMP JUMPDEST SWAP7 POP POP POP PUSH2 0xD27 PUSH2 0x5C4 JUMP JUMPDEST PUSH1 0x1 PUSH1 0xA0 PUSH1 0x2 EXP SUB DUP9 AND DUP2 MSTORE SWAP2 POP PUSH20 0xA0B86991C6218B36C1D19D4A2E9EB0CE3606EB48 PUSH1 0x20 DUP4 ADD MSTORE PUSH3 0xFFFFFF DUP13 AND DUP3 DUP3 ADD MSTORE ADDRESS PUSH1 0x60 DUP4 ADD MSTORE DUP9 PUSH1 0x80 DUP4 ADD MSTORE DUP5 PUSH1 0xA0 DUP4 ADD MSTORE DUP13 PUSH1 0xC0 DUP4 ADD MSTORE DUP3 PUSH1 0xE0 DUP4 ADD MSTORE DUP4 EXTCODESIZE PUSH2 0xD81 JUMPI DUP3 DUP4 REVERT JUMPDEST MLOAD PUSH32 0x414BF38900000000000000000000000000000000000000000000000000000000 DUP2 MSTORE SWAP4 POP PUSH1 0x20 DUP5 DUP1 PUSH2 0xDB8 DUP5 PUSH1 0x4 DUP4 ADD PUSH2 0x555 JUMP JUMPDEST SUB DUP7 DUP6 DUP8 GAS CALL SWAP3 POP POP DUP2 PUSH2 0xDCE JUMPI PUSH2 0xDCE PUSH2 0x142C JUMP JUMPDEST DUP2 ISZERO PUSH2 0xDED JUMPI PUSH2 0xDDE RETURNDATASIZE DUP5 PUSH2 0x702 JUMP JUMPDEST PUSH2 0xDEA RETURNDATASIZE DUP5 ADD DUP5 PUSH2 0x53C JUMP JUMPDEST SWAP1 POP JUMPDEST PUSH1 0x1 PUSH1 0xA0 PUSH1 0x2 EXP SUB DUP5 AND PUSH1 0x0 SWAP1 DUP2 MSTORE PUSH1 0x3 PUSH1 0x20 MSTORE PUSH1 0x40 SWAP1 KECCAK256 SWAP3 POP PUSH2 0xE12 DUP2 DUP5 SLOAD PUSH2 0x612 JUMP JUMPDEST DUP4 SSTORE POP POP POP PUSH2 0xE20 PUSH1 0x1 DUP1 SSTORE JUMP JUMPDEST POP POP POP POP POP POP POP POP JUMP JUMPDEST PUSH2 0xE32 PUSH2 0x78A JUMP JUMPDEST PUSH1 0x1 PUSH2 0xE42 PUSH1 0x2 DUP3 SLOAD EQ ISZERO PUSH2 0x13DF JUMP JUMPDEST PUSH1 0x2 DUP2 SSTORE PUSH1 0x1 PUSH1 0xA0 PUSH1 0x2 EXP SUB DUP1 DUP4 AND CALLER EQ DUP1 PUSH2 0xE71 JUMPI PUSH2 0xE6C DUP3 PUSH1 0x0 SLOAD AND PUSH1 0x1 PUSH1 0xA0 PUSH1 0x2 EXP SUB AND SWAP1 JUMP JUMPDEST CALLER EQ SWAP1 POP JUMPDEST PUSH2 0xE7A DUP2 PUSH2 0x1345 JUMP JUMPDEST POP POP DUP3 MLOAD PUSH2 0xE8A DUP6 MLOAD DUP3 EQ PUSH2 0x125F JUMP JUMPDEST POP DUP3 MLOAD PUSH2 0xEAD PUSH2 0xEA5 PUSH2 0xE9F PUSH1 0x5 SLOAD PUSH1 0xFF AND SWAP1 JUMP JUMPDEST PUSH1 0xFF AND SWAP1 JUMP JUMPDEST DUP3 GT ISZERO PUSH2 0x1392 JUMP JUMPDEST POP PUSH1 0x0 DUP1 JUMPDEST DUP3 ISZERO PUSH2 0xEF4 JUMPI DUP6 MLOAD PUSH1 0xFF DUP3 AND DUP2 DUP2 LT PUSH2 0xECC JUMPI POP POP PUSH2 0xEF4 JUMP JUMPDEST PUSH2 0xEE0 PUSH2 0xED9 DUP3 DUP11 PUSH2 0x9EA JUMP JUMPDEST MLOAD DUP6 PUSH2 0x612 JUMP JUMPDEST SWAP4 POP POP POP PUSH2 0xEED DUP2 PUSH2 0x9CA JUMP JUMPDEST SWAP1 POP PUSH2 0xEB2 JUMP JUMPDEST POP PUSH2 0xF1F PUSH2 0xF16 DUP5 PUSH1 0x1 PUSH1 0xA0 PUSH1 0x2 EXP SUB AND PUSH1 0x0 SWAP1 DUP2 MSTORE PUSH1 0x3 PUSH1 0x20 MSTORE PUSH1 0x40 SWAP1 KECCAK256 SWAP1 JUMP JUMPDEST SLOAD DUP3 GT ISZERO PUSH2 0x1179 JUMP JUMPDEST DUP6 DUP7 PUSH2 0xF42 JUMPI POP PUSH1 0x1 PUSH1 0xA0 PUSH1 0x2 EXP SUB DUP4 AND PUSH1 0x0 SWAP1 DUP2 MSTORE PUSH1 0x3 PUSH1 0x20 MSTORE PUSH1 0x40 SWAP1 KECCAK256 SLOAD DUP2 EQ JUMPDEST PUSH2 0xF4B DUP2 PUSH2 0x12D2 JUMP JUMPDEST POP DUP6 ISZERO PUSH2 0xF65 JUMPI PUSH1 0x1 PUSH1 0xA0 PUSH1 0x2 EXP SUB DUP4 AND PUSH1 0x0 MSTORE PUSH1 0x3 PUSH1 0x20 MSTORE JUMPDEST PUSH1 0x0 JUMPDEST DUP3 ISZERO PUSH2 0x1097 JUMPI DUP5 MLOAD PUSH1 0xFF DUP3 AND DUP2 DUP2 LT PUSH2 0xF82 JUMPI POP POP PUSH2 0x1097 JUMP JUMPDEST PUSH2 0xFBD PUSH2 0xFB0 PUSH2 0xF9C PUSH2 0xF95 DUP5 DUP12 PUSH2 0x9EA JUMP JUMPDEST MLOAD PUSH1 0xFF AND SWAP1 JUMP JUMPDEST PUSH1 0xFF AND PUSH1 0x0 SWAP1 DUP2 MSTORE PUSH1 0x4 PUSH1 0x20 MSTORE PUSH1 0x40 SWAP1 KECCAK256 SWAP1 JUMP JUMPDEST SLOAD PUSH1 0x1 PUSH1 0xA0 PUSH1 0x2 EXP SUB AND SWAP1 JUMP JUMPDEST SWAP2 POP PUSH2 0xFC9 DUP2 DUP10 PUSH2 0x9EA JUMP JUMPDEST MLOAD PUSH20 0xA0B86991C6218B36C1D19D4A2E9EB0CE3606EB48 DUP1 EXTCODESIZE PUSH2 0xFEA JUMPI PUSH1 0x0 DUP1 REVERT JUMPDEST PUSH1 0x40 MLOAD PUSH32 0xA9059CBB00000000000000000000000000000000000000000000000000000000 DUP2 MSTORE PUSH1 0x1 PUSH1 0xA0 PUSH1 0x2 EXP SUB DUP6 AND PUSH1 0x4 DUP3 ADD MSTORE PUSH1 0x24 DUP2 ADD DUP4 SWAP1 MSTORE PUSH1 0x20 DUP2 PUSH1 0x44 DUP2 PUSH1 0x0 DUP7 GAS CALL SWAP5 POP DUP5 PUSH2 0x1040 JUMPI PUSH2 0x1040 PUSH2 0x142C JUMP JUMPDEST PUSH1 0x0 SWAP3 POP DUP5 ISZERO PUSH2 0x1063 JUMPI PUSH2 0x1054 RETURNDATASIZE DUP3 PUSH2 0x702 JUMP JUMPDEST PUSH2 0x1060 RETURNDATASIZE DUP3 ADD DUP3 PUSH2 0x518 JUMP JUMPDEST SWAP3 POP JUMPDEST POP POP PUSH2 0x106E DUP2 PUSH2 0x112C JUMP JUMPDEST POP PUSH2 0x1083 PUSH2 0x107C DUP3 DUP11 PUSH2 0x9EA JUMP JUMPDEST MLOAD DUP6 PUSH2 0x64F JUMP JUMPDEST SWAP4 POP POP POP PUSH2 0x1090 DUP2 PUSH2 0x9CA JUMP JUMPDEST SWAP1 POP PUSH2 0xF68 JUMP JUMPDEST POP DUP6 ISZERO PUSH2 0x10E9 JUMPI PUSH1 0x5 SLOAD PUSH1 0xFF AND PUSH1 0xFF PUSH2 0x10B2 DUP2 DUP4 AND DUP5 PUSH2 0x62A JUMP JUMPDEST POP PUSH1 0x0 JUMPDEST DUP5 ISZERO PUSH2 0x10E5 JUMPI PUSH2 0x10C8 PUSH2 0xE9F DUP5 PUSH2 0x666 JUMP JUMPDEST DUP3 DUP3 AND LT PUSH2 0x10D5 JUMPI PUSH2 0x10E5 JUMP JUMPDEST PUSH2 0x10DE DUP2 PUSH2 0x9CA JUMP JUMPDEST SWAP1 POP PUSH2 0x10B6 JUMP JUMPDEST POP POP POP JUMPDEST POP POP PUSH2 0x10F4 PUSH1 0x1 DUP1 SSTORE JUMP JUMPDEST POP POP POP POP JUMP JUMPDEST PUSH1 0xE0 PUSH1 0x2 EXP PUSH4 0x4E487B71 MUL PUSH1 0x0 MSTORE PUSH1 0x11 PUSH1 0x4 MSTORE PUSH1 0x24 PUSH1 0x0 REVERT JUMPDEST PUSH1 0xE0 PUSH1 0x2 EXP PUSH4 0x4E487B71 MUL PUSH1 0x0 MSTORE PUSH1 0x41 PUSH1 0x4 MSTORE PUSH1 0x24 PUSH1 0x0 REVERT JUMPDEST DUP1 PUSH2 0x341 JUMPI PUSH1 0x40 MLOAD PUSH1 0xE5 PUSH1 0x2 EXP PUSH3 0x461BCD MUL DUP2 MSTORE PUSH1 0x20 PUSH1 0x4 DUP3 ADD MSTORE PUSH1 0x20 PUSH1 0x24 DUP3 ADD MSTORE PUSH32 0x55534443207472616E7366657220746F2063686172697479206661696C65642E PUSH1 0x44 DUP3 ADD MSTORE PUSH1 0x64 DUP2 REVERT JUMPDEST DUP1 PUSH2 0x341 JUMPI PUSH1 0x40 MLOAD PUSH1 0xE5 PUSH1 0x2 EXP PUSH3 0x461BCD MUL DUP2 MSTORE PUSH1 0x20 PUSH1 0x4 DUP3 ADD MSTORE PUSH1 0x22 PUSH1 0x24 DUP3 ADD MSTORE PUSH32 0x546F74616C2066696E616C697A6174696F6E20616D6F756E7420746F6F206869 PUSH1 0x44 DUP3 ADD MSTORE PUSH32 0x6768000000000000000000000000000000000000000000000000000000000000 PUSH1 0x64 DUP3 ADD MSTORE PUSH1 0x84 DUP2 REVERT JUMPDEST DUP1 PUSH2 0x341 JUMPI PUSH1 0x40 MLOAD PUSH1 0xE5 PUSH1 0x2 EXP PUSH3 0x461BCD MUL DUP2 MSTORE PUSH1 0x20 PUSH1 0x4 DUP3 ADD MSTORE PUSH1 0x27 PUSH1 0x24 DUP3 ADD MSTORE PUSH32 0x4661696C656420746F2073656E642067617320746F20657068656D6572616C20 PUSH1 0x44 DUP3 ADD MSTORE PUSH32 0x77616C6C65742E00000000000000000000000000000000000000000000000000 PUSH1 0x64 DUP3 ADD MSTORE PUSH1 0x84 DUP2 REVERT JUMPDEST DUP1 PUSH2 0x341 JUMPI PUSH1 0x40 MLOAD PUSH1 0xE5 PUSH1 0x2 EXP PUSH3 0x461BCD MUL DUP2 MSTORE PUSH1 0x20 PUSH1 0x4 DUP3 ADD MSTORE PUSH1 0x31 PUSH1 0x24 DUP3 ADD MSTORE PUSH32 0x43686172697469657320616E6420616D6F756E747320617272617973206F6620 PUSH1 0x44 DUP3 ADD MSTORE PUSH32 0x646966666572656E74206C656E6774682E000000000000000000000000000000 PUSH1 0x64 DUP3 ADD MSTORE PUSH1 0x84 DUP2 REVERT JUMPDEST DUP1 PUSH2 0x341 JUMPI PUSH1 0x40 MLOAD PUSH1 0xE5 PUSH1 0x2 EXP PUSH3 0x461BCD MUL DUP2 MSTORE PUSH1 0x20 PUSH1 0x4 DUP3 ADD MSTORE PUSH1 0x22 PUSH1 0x24 DUP3 ADD MSTORE PUSH32 0x546F74616C2066696E616C697A6174696F6E20616D6F756E7420746F6F206C6F PUSH1 0x44 DUP3 ADD MSTORE PUSH32 0x772E000000000000000000000000000000000000000000000000000000000000 PUSH1 0x64 DUP3 ADD MSTORE PUSH1 0x84 DUP2 REVERT JUMPDEST DUP1 PUSH2 0x341 JUMPI PUSH1 0x40 MLOAD PUSH1 0xE5 PUSH1 0x2 EXP PUSH3 0x461BCD MUL DUP2 MSTORE PUSH1 0x20 PUSH1 0x4 DUP3 ADD MSTORE PUSH1 0x1D PUSH1 0x24 DUP3 ADD MSTORE PUSH32 0x556E617574686F72697A6174696F6E2066696E616C697A6174696F6E2E000000 PUSH1 0x44 DUP3 ADD MSTORE PUSH1 0x64 DUP2 REVERT JUMPDEST DUP1 PUSH2 0x341 JUMPI PUSH1 0x40 MLOAD PUSH1 0xE5 PUSH1 0x2 EXP PUSH3 0x461BCD MUL DUP2 MSTORE PUSH1 0x20 PUSH1 0x4 DUP3 ADD MSTORE PUSH1 0x12 PUSH1 0x24 DUP3 ADD MSTORE PUSH32 0x546F6F206D616E79206368617269746965730000000000000000000000000000 PUSH1 0x44 DUP3 ADD MSTORE PUSH1 0x64 DUP2 REVERT JUMPDEST DUP1 PUSH2 0x341 JUMPI PUSH1 0x40 MLOAD PUSH1 0xE5 PUSH1 0x2 EXP PUSH3 0x461BCD MUL DUP2 MSTORE PUSH1 0x20 PUSH1 0x4 DUP3 ADD MSTORE PUSH1 0x1F PUSH1 0x24 DUP3 ADD MSTORE PUSH32 0x5265656E7472616E637947756172643A207265656E7472616E742063616C6C00 PUSH1 0x44 DUP3 ADD MSTORE PUSH1 0x64 DUP2 REVERT JUMPDEST PUSH1 0x40 MLOAD RETURNDATASIZE PUSH1 0x0 DUP3 RETURNDATACOPY RETURNDATASIZE DUP2 REVERT JUMPDEST DUP1 ISZERO ISZERO DUP2 EQ PUSH2 0x341 JUMPI PUSH1 0x0 DUP1 REVERT INVALID LOG3 PUSH5 0x6970667358 0x22 SLT KECCAK256 0xAD DUP11 GASLIMIT 0xD4 0xB2 DUP4 STOP CREATE 0x21 DUP12 0x5E DUP3 RETURNDATACOPY 0xF JUMPI ADD PUSH29 0xC0EE4D744119769EDB23B4543A48B66C6578706572696D656E74616CF5 PUSH5 0x736F6C6343 STOP ADDMOD SMOD STOP COINBASE "
				},
				"gasEstimates": {
					"creation": {
						"codeDepositCost": "1051600",
						"executionCost": "infinite",
						"totalCost": "infinite"
					},
					"external": {
						"USDC()": "279",
						"WETH9()": "213",
						"deposit(address,address,uint256,uint256,uint256,uint24,uint24,uint256)": "infinite",
						"finalize(address,uint8[],uint256[],bool)": "infinite",
						"getBalance(address)": "863",
						"owner()": "588",
						"paused()": "488",
						"renounceOwnership()": "infinite",
						"swapRouter()": "infinite",
						"transferOwnership(address)": "22737"
					}
				},
				"methodIdentifiers": {
					"USDC()": "89a30271",
					"WETH9()": "4aa4a4fc",
					"deposit(address,address,uint256,uint256,uint256,uint24,uint24,uint256)": "480a6fdc",
					"finalize(address,uint8[],uint256[],bool)": "8de9c372",
					"getBalance(address)": "f8b2cb4f",
					"owner()": "8da5cb5b",
					"paused()": "5c975abb",
					"renounceOwnership()": "715018a6",
					"swapRouter()": "c31c9c07",
					"transferOwnership(address)": "f2fde38b"
				}
			},
			"storageLayout": {
				"storage": [
					{
						"astId": 7,
						"contract": "contracts/fountain.sol:Serenity",
						"label": "_owner",
						"offset": 0,
						"slot": "0",
						"type": "t_address"
					},
					{
						"astId": 130,
						"contract": "contracts/fountain.sol:Serenity",
						"label": "_paused",
						"offset": 20,
						"slot": "0",
						"type": "t_bool"
					},
					{
						"astId": 231,
						"contract": "contracts/fountain.sol:Serenity",
						"label": "_status",
						"offset": 0,
						"slot": "1",
						"type": "t_uint256"
					},
					{
						"astId": 1275,
						"contract": "contracts/fountain.sol:Serenity",
						"label": "ephemeralGasMoneyAmount",
						"offset": 0,
						"slot": "2",
						"type": "t_uint256"
					},
					{
						"astId": 1279,
						"contract": "contracts/fountain.sol:Serenity",
						"label": "balances",
						"offset": 0,
						"slot": "3",
						"type": "t_mapping(t_address,t_uint256)"
					},
					{
						"astId": 1283,
						"contract": "contracts/fountain.sol:Serenity",
						"label": "charities",
						"offset": 0,
						"slot": "4",
						"type": "t_mapping(t_uint8,t_address)"
					},
					{
						"astId": 1286,
						"contract": "contracts/fountain.sol:Serenity",
						"label": "numCharities",
						"offset": 0,
						"slot": "5",
						"type": "t_uint8"
					}
				],
				"types": {
					"t_address": {
						"encoding": "inplace",
						"label": "address",
						"numberOfBytes": "20"
					},
					"t_bool": {
						"encoding": "inplace",
						"label": "bool",
						"numberOfBytes": "1"
					},
					"t_mapping(t_address,t_uint256)": {
						"encoding": "mapping",
						"key": "t_address",
						"label": "mapping(address => uint256)",
						"numberOfBytes": "32",
						"value": "t_uint256"
					},
					"t_mapping(t_uint8,t_address)": {
						"encoding": "mapping",
						"key": "t_uint8",
						"label": "mapping(uint8 => address)",
						"numberOfBytes": "32",
						"value": "t_address"
					},
					"t_uint256": {
						"encoding": "inplace",
						"label": "uint256",
						"numberOfBytes": "32"
					},
					"t_uint8": {
						"encoding": "inplace",
						"label": "uint8",
						"numberOfBytes": "1"
					}
				}
			},
			"userdoc": {
				"kind": "user",
				"methods": {},
				"version": 1
			}
		}
	}
}