{
	"data": {
		"bytecode": {
			"linkReferences": {},
			"object": "60a0346100d35761119580380390601f19601f83011683019183831067ffffffffffffffff8411176100d85780849260409485528339810103126100d3578051600160a060020a039182821682036100d357602001519060005460405193339082167f8be0079c531659141344cd1fd0a4f28419497f9722a3daafe3b4186f6b6457e0600080a3600160a860020a0319163360a060020a60ff021916176000556001805560805260025561108d908161010882396080518181816101de0152818161089e015281816109920152610afb0152f35b600080fd5b7f4e487b7100000000000000000000000000000000000000000000000000000000600052604160045260246000fdfe6080604052600436101561001257600080fd5b60007c01000000000000000000000000000000000000000000000000000000008135048063480a6fdc146107825780634aa4a4fc146107535780635c975abb1461071a578063715018a6146106b357806389a30271146106845780638da5cb5b1461065e5780638de9c37214610202578063c31c9c07146101be578063f2fde38b146100e15763f8b2cb4f146100a757600080fd5b346100de5760203660031901126100de576040602091600160a060020a036100cd610da5565b168152600383522054604051908152f35b80fd5b50346100de5760203660031901126100de576100fb610da5565b610103610e2b565b600160a060020a038091169081156101515760005482600160a060020a0319821617600055167f8be0079c531659141344cd1fd0a4f28419497f9722a3daafe3b4186f6b6457e0600080a380f35b608460405160e560020a62461bcd02815260206004820152602660248201527f4f776e61626c653a206e6577206f776e657220697320746865207a65726f206160448201527f64647265737300000000000000000000000000000000000000000000000000006064820152fd5b50346100de57806003193601126100de576020604051600160a060020a037f0000000000000000000000000000000000000000000000000000000000000000168152f35b50346100de5760803660031901126100de5761021c610da5565b9060249182359267ffffffffffffffff9081851161065a573660238601121561065a57846004013561024d81610e13565b9561025b6040519788610df1565b8187526020918383808a01920283010191368311610656578401905b82821061063d5750505060449081359384116106395736602385011215610639578360040135936102a785610e13565b946102b56040519687610df1565b80865284838088019202830101913683116106255785849101915b8383106106295750505050606493843595861580158803610625576102f3610f9a565b60019761030460028a541415610e86565b600289558a518451036105bb578990818a805b610583575b5050600160a060020a0380941690818c526003875260408c205483116105195792610504575b50501561049a57869888995b61035a575b8888805580f35b80518a10156104955760ff61036f8b8361102b565b51168952600484526103d4848360408c20541661038c8d8761102b565b516040517fa9059cbb000000000000000000000000000000000000000000000000000000008152600160a060020a039092166004830152602482015291829081906044820190565b03818d73a0b86991c6218b36c1d19d4a2e9eb0ce3606eb485af190811561048a578a9161045d575b50156104195761041088999a98979861101c565b9998979661034e565b505050907f55534443207472616e7366657220746f2063686172697479206661696c65642e916040519360e560020a62461bcd028552816004860152840152820152fd5b61047d9150853d8711610483575b6104758183610df1565b810190611004565b386103fc565b503d61046b565b6040513d8c823e3d90fd5b610353565b6084837f772e000000000000000000000000000000000000000000000000000000000000887f546f74616c2066696e616c697a6174696f6e20616d6f756e7420746f6f206c6f8860228b6040519660e560020a62461bcd0288526004880152860152840152820152fd5b8a526003855260408a20541490503880610342565b6084877f67680000000000000000000000000000000000000000000000000000000000008c7f546f74616c2066696e616c697a6174696f6e20616d6f756e7420746f6f2068698c60228f6040519660e560020a62461bcd0288526004880152860152840152820152fd5b909286518410156105b3576105a66105ac9161059f868a61102b565b5190610f74565b9361101c565b9080610317565b92508061031c565b6084857f646966666572656e74206c656e6774682e0000000000000000000000000000008a7f43686172697469657320616e6420616d6f756e747320617272617973206f66208a60318d6040519660e560020a62461bcd0288526004880152860152840152820152fd5b8880fd5b82358152918101918491016102d0565b8580fd5b813560ff81168103610625578152908301908301610277565b8780fd5b8380fd5b50346100de57806003193601126100de57600160a060020a036020915416604051908152f35b50346100de57806003193601126100de57602060405173a0b86991c6218b36c1d19d4a2e9eb0ce3606eb488152f35b50346100de57806003193601126100de576106cc610e2b565b6000805473ffffffffffffffffffffffffffffffffffffffff1981168255600160a060020a03167f8be0079c531659141344cd1fd0a4f28419497f9722a3daafe3b4186f6b6457e08280a380f35b50346100de57806003193601126100de5760ff740100000000000000000000000000000000000000006020925404166040519015158152f35b50346100de57806003193601126100de57602060405173c02aaa39b223fe8d0a0e5c4f27ead9083c756cc28152f35b50346100de576101003660031901126100de5761079d610da5565b60243590600160a060020a0382169182810361065a5760a43562ffffff908181168091036106395760c435928284168403610c61576107da610f9a565b6107e960026001541415610e86565b600260015560405160208101907f23b872dd00000000000000000000000000000000000000000000000000000000825233602482015230604482015260443560648201526064815260a0810181811067ffffffffffffffff821117610d8e5760405251889182919082855af161085d610f34565b81610d5f575b5015610d18576040517f095ea7b30000000000000000000000000000000000000000000000000000000060208201908152600160a060020a037f0000000000000000000000000000000000000000000000000000000000000000166024830152604480358184015282528892839290919083906108e1606482610df1565b51925af16108ed610f34565b81610ce9575b5015610ca2576002546040519161090983610dbb565b86835273c02aaa39b223fe8d0a0e5c4f27ead9083c756cc260208401526040830152306060830152606435608083015260a082015260843560c08201528560e0820152610980604051917fdb3e21980000000000000000000000000000000000000000000000000000000083526004830190610ed4565b6020816101048189600160a060020a037f0000000000000000000000000000000000000000000000000000000000000000165af1908115610c97578691610c65575b5060025473c02aaa39b223fe8d0a0e5c4f27ead9083c756cc23b15610c6157604051907f2e1a7d4d000000000000000000000000000000000000000000000000000000008252600482015286816024818373c02aaa39b223fe8d0a0e5c4f27ead9083c756cc25af18015610c5657610c23575b5085808080600254600160a060020a0389165af1610a51610f34565b5015610bb65760443503916044358311610b9f5760405194610a7286610dbb565b855273a0b86991c6218b36c1d19d4a2e9eb0ce3606eb486020860152166040840152306060840152606435608084015260a083015260e43560c08301528260e0830152610ae9604051927f414bf3890000000000000000000000000000000000000000000000000000000084526004840190610ed4565b6020826101048186600160a060020a037f0000000000000000000000000000000000000000000000000000000000000000165af1918215610b94578392610b54575b50600160a060020a031682526003602052610b4b60408320918254610f74565b90556001805580f35b9091506020813d602011610b8c575b81610b7060209383610df1565b81010312610b87575190600160a060020a03610b2b565b600080fd5b3d9150610b63565b6040513d85823e3d90fd5b60248660e060020a634e487b710281526011600452fd5b608460405160e560020a62461bcd02815260206004820152602760248201527f4661696c656420746f2073656e642067617320746f20657068656d6572616c2060448201527f77616c6c65742e000000000000000000000000000000000000000000000000006064820152fd5b67ffffffffffffffff8197929711610c3f576040529438610a35565b60248260e060020a634e487b710281526041600452fd5b6040513d89823e3d90fd5b8680fd5b90506020813d602011610c8f575b81610c8060209383610df1565b810103126106395751386109c2565b3d9150610c73565b6040513d88823e3d90fd5b606460405160e560020a62461bcd02815260206004820152600260248201527f53410000000000000000000000000000000000000000000000000000000000006044820152fd5b8051801592508215610cfe575b5050386108f3565b610d119250602080918301019101611004565b3880610cf6565b606460405160e560020a62461bcd02815260206004820152600360248201527f53544600000000000000000000000000000000000000000000000000000000006044820152fd5b8051801592508215610d74575b505038610863565b610d879250602080918301019101611004565b3880610d6c565b60248a60e060020a634e487b710281526041600452fd5b60043590600160a060020a0382168203610b8757565b610100810190811067ffffffffffffffff821117610dd857604052565b60e060020a634e487b7102600052604160045260246000fd5b90601f8019910116810190811067ffffffffffffffff821117610dd857604052565b67ffffffffffffffff8111610dd85760208091020190565b600160a060020a03600054163303610e3f57565b606460405160e560020a62461bcd02815260206004820152602060248201527f4f776e61626c653a2063616c6c6572206973206e6f7420746865206f776e65726044820152fd5b15610e8d57565b606460405160e560020a62461bcd02815260206004820152601f60248201527f5265656e7472616e637947756172643a207265656e7472616e742063616c6c006044820152fd5b60e09081600160a060020a039182815116855282602082015116602086015262ffffff60408201511660408601528260608201511660608601526080810151608086015260a081015160a086015260c081015160c0860152015116910152565b3d15610f6f573d9067ffffffffffffffff8211610dd85760405191610f63601f8201601f191660200184610df1565b82523d6000602084013e565b606090565b91908201809211610f8157565b60e060020a634e487b7102600052601160045260246000fd5b60ff740100000000000000000000000000000000000000006000540416610fbd57565b606460405160e560020a62461bcd02815260206004820152601060248201527f5061757361626c653a20706175736564000000000000000000000000000000006044820152fd5b90816020910312610b8757518015158103610b875790565b6000198114610f815760010190565b805182101561103e576020809202010190565b60e060020a634e487b7102600052603260045260246000fdfea26469706673582212208e80f092e5501e24a68dc4e3a86f1fbde35032c5a3489e23406a89ab44730dce64736f6c63430008110033",
			"opcodes": "PUSH1 0xA0 CALLVALUE PUSH2 0xD3 JUMPI PUSH2 0x1195 DUP1 CODESIZE SUB SWAP1 PUSH1 0x1F NOT PUSH1 0x1F DUP4 ADD AND DUP4 ADD SWAP2 DUP4 DUP4 LT PUSH8 0xFFFFFFFFFFFFFFFF DUP5 GT OR PUSH2 0xD8 JUMPI DUP1 DUP5 SWAP3 PUSH1 0x40 SWAP5 DUP6 MSTORE DUP4 CODECOPY DUP2 ADD SUB SLT PUSH2 0xD3 JUMPI DUP1 MLOAD PUSH1 0x1 PUSH1 0xA0 PUSH1 0x2 EXP SUB SWAP2 DUP3 DUP3 AND DUP3 SUB PUSH2 0xD3 JUMPI PUSH1 0x20 ADD MLOAD SWAP1 PUSH1 0x0 SLOAD PUSH1 0x40 MLOAD SWAP4 CALLER SWAP1 DUP3 AND PUSH32 0x8BE0079C531659141344CD1FD0A4F28419497F9722A3DAAFE3B4186F6B6457E0 PUSH1 0x0 DUP1 LOG3 PUSH1 0x1 PUSH1 0xA8 PUSH1 0x2 EXP SUB NOT AND CALLER PUSH1 0xA0 PUSH1 0x2 EXP PUSH1 0xFF MUL NOT AND OR PUSH1 0x0 SSTORE PUSH1 0x1 DUP1 SSTORE PUSH1 0x80 MSTORE PUSH1 0x2 SSTORE PUSH2 0x108D SWAP1 DUP2 PUSH2 0x108 DUP3 CODECOPY PUSH1 0x80 MLOAD DUP2 DUP2 DUP2 PUSH2 0x1DE ADD MSTORE DUP2 DUP2 PUSH2 0x89E ADD MSTORE DUP2 DUP2 PUSH2 0x992 ADD MSTORE PUSH2 0xAFB ADD MSTORE RETURN JUMPDEST PUSH1 0x0 DUP1 REVERT JUMPDEST PUSH32 0x4E487B7100000000000000000000000000000000000000000000000000000000 PUSH1 0x0 MSTORE PUSH1 0x41 PUSH1 0x4 MSTORE PUSH1 0x24 PUSH1 0x0 REVERT INVALID PUSH1 0x80 PUSH1 0x40 MSTORE PUSH1 0x4 CALLDATASIZE LT ISZERO PUSH2 0x12 JUMPI PUSH1 0x0 DUP1 REVERT JUMPDEST PUSH1 0x0 PUSH29 0x100000000000000000000000000000000000000000000000000000000 DUP2 CALLDATALOAD DIV DUP1 PUSH4 0x480A6FDC EQ PUSH2 0x782 JUMPI DUP1 PUSH4 0x4AA4A4FC EQ PUSH2 0x753 JUMPI DUP1 PUSH4 0x5C975ABB EQ PUSH2 0x71A JUMPI DUP1 PUSH4 0x715018A6 EQ PUSH2 0x6B3 JUMPI DUP1 PUSH4 0x89A30271 EQ PUSH2 0x684 JUMPI DUP1 PUSH4 0x8DA5CB5B EQ PUSH2 0x65E JUMPI DUP1 PUSH4 0x8DE9C372 EQ PUSH2 0x202 JUMPI DUP1 PUSH4 0xC31C9C07 EQ PUSH2 0x1BE JUMPI DUP1 PUSH4 0xF2FDE38B EQ PUSH2 0xE1 JUMPI PUSH4 0xF8B2CB4F EQ PUSH2 0xA7 JUMPI PUSH1 0x0 DUP1 REVERT JUMPDEST CALLVALUE PUSH2 0xDE JUMPI PUSH1 0x20 CALLDATASIZE PUSH1 0x3 NOT ADD SLT PUSH2 0xDE JUMPI PUSH1 0x40 PUSH1 0x20 SWAP2 PUSH1 0x1 PUSH1 0xA0 PUSH1 0x2 EXP SUB PUSH2 0xCD PUSH2 0xDA5 JUMP JUMPDEST AND DUP2 MSTORE PUSH1 0x3 DUP4 MSTORE KECCAK256 SLOAD PUSH1 0x40 MLOAD SWAP1 DUP2 MSTORE RETURN JUMPDEST DUP1 REVERT JUMPDEST POP CALLVALUE PUSH2 0xDE JUMPI PUSH1 0x20 CALLDATASIZE PUSH1 0x3 NOT ADD SLT PUSH2 0xDE JUMPI PUSH2 0xFB PUSH2 0xDA5 JUMP JUMPDEST PUSH2 0x103 PUSH2 0xE2B JUMP JUMPDEST PUSH1 0x1 PUSH1 0xA0 PUSH1 0x2 EXP SUB DUP1 SWAP2 AND SWAP1 DUP2 ISZERO PUSH2 0x151 JUMPI PUSH1 0x0 SLOAD DUP3 PUSH1 0x1 PUSH1 0xA0 PUSH1 0x2 EXP SUB NOT DUP3 AND OR PUSH1 0x0 SSTORE AND PUSH32 0x8BE0079C531659141344CD1FD0A4F28419497F9722A3DAAFE3B4186F6B6457E0 PUSH1 0x0 DUP1 LOG3 DUP1 RETURN JUMPDEST PUSH1 0x84 PUSH1 0x40 MLOAD PUSH1 0xE5 PUSH1 0x2 EXP PUSH3 0x461BCD MUL DUP2 MSTORE PUSH1 0x20 PUSH1 0x4 DUP3 ADD MSTORE PUSH1 0x26 PUSH1 0x24 DUP3 ADD MSTORE PUSH32 0x4F776E61626C653A206E6577206F776E657220697320746865207A65726F2061 PUSH1 0x44 DUP3 ADD MSTORE PUSH32 0x6464726573730000000000000000000000000000000000000000000000000000 PUSH1 0x64 DUP3 ADD MSTORE REVERT JUMPDEST POP CALLVALUE PUSH2 0xDE JUMPI DUP1 PUSH1 0x3 NOT CALLDATASIZE ADD SLT PUSH2 0xDE JUMPI PUSH1 0x20 PUSH1 0x40 MLOAD PUSH1 0x1 PUSH1 0xA0 PUSH1 0x2 EXP SUB PUSH32 0x0 AND DUP2 MSTORE RETURN JUMPDEST POP CALLVALUE PUSH2 0xDE JUMPI PUSH1 0x80 CALLDATASIZE PUSH1 0x3 NOT ADD SLT PUSH2 0xDE JUMPI PUSH2 0x21C PUSH2 0xDA5 JUMP JUMPDEST SWAP1 PUSH1 0x24 SWAP2 DUP3 CALLDATALOAD SWAP3 PUSH8 0xFFFFFFFFFFFFFFFF SWAP1 DUP2 DUP6 GT PUSH2 0x65A JUMPI CALLDATASIZE PUSH1 0x23 DUP7 ADD SLT ISZERO PUSH2 0x65A JUMPI DUP5 PUSH1 0x4 ADD CALLDATALOAD PUSH2 0x24D DUP2 PUSH2 0xE13 JUMP JUMPDEST SWAP6 PUSH2 0x25B PUSH1 0x40 MLOAD SWAP8 DUP9 PUSH2 0xDF1 JUMP JUMPDEST DUP2 DUP8 MSTORE PUSH1 0x20 SWAP2 DUP4 DUP4 DUP1 DUP11 ADD SWAP3 MUL DUP4 ADD ADD SWAP2 CALLDATASIZE DUP4 GT PUSH2 0x656 JUMPI DUP5 ADD SWAP1 JUMPDEST DUP3 DUP3 LT PUSH2 0x63D JUMPI POP POP POP PUSH1 0x44 SWAP1 DUP2 CALLDATALOAD SWAP4 DUP5 GT PUSH2 0x639 JUMPI CALLDATASIZE PUSH1 0x23 DUP6 ADD SLT ISZERO PUSH2 0x639 JUMPI DUP4 PUSH1 0x4 ADD CALLDATALOAD SWAP4 PUSH2 0x2A7 DUP6 PUSH2 0xE13 JUMP JUMPDEST SWAP5 PUSH2 0x2B5 PUSH1 0x40 MLOAD SWAP7 DUP8 PUSH2 0xDF1 JUMP JUMPDEST DUP1 DUP7 MSTORE DUP5 DUP4 DUP1 DUP9 ADD SWAP3 MUL DUP4 ADD ADD SWAP2 CALLDATASIZE DUP4 GT PUSH2 0x625 JUMPI DUP6 DUP5 SWAP2 ADD SWAP2 JUMPDEST DUP4 DUP4 LT PUSH2 0x629 JUMPI POP POP POP POP PUSH1 0x64 SWAP4 DUP5 CALLDATALOAD SWAP6 DUP7 ISZERO DUP1 ISZERO DUP9 SUB PUSH2 0x625 JUMPI PUSH2 0x2F3 PUSH2 0xF9A JUMP JUMPDEST PUSH1 0x1 SWAP8 PUSH2 0x304 PUSH1 0x2 DUP11 SLOAD EQ ISZERO PUSH2 0xE86 JUMP JUMPDEST PUSH1 0x2 DUP10 SSTORE DUP11 MLOAD DUP5 MLOAD SUB PUSH2 0x5BB JUMPI DUP10 SWAP1 DUP2 DUP11 DUP1 JUMPDEST PUSH2 0x583 JUMPI JUMPDEST POP POP PUSH1 0x1 PUSH1 0xA0 PUSH1 0x2 EXP SUB DUP1 SWAP5 AND SWAP1 DUP2 DUP13 MSTORE PUSH1 0x3 DUP8 MSTORE PUSH1 0x40 DUP13 KECCAK256 SLOAD DUP4 GT PUSH2 0x519 JUMPI SWAP3 PUSH2 0x504 JUMPI JUMPDEST POP POP ISZERO PUSH2 0x49A JUMPI DUP7 SWAP9 DUP9 SWAP10 JUMPDEST PUSH2 0x35A JUMPI JUMPDEST DUP9 DUP9 DUP1 SSTORE DUP1 RETURN JUMPDEST DUP1 MLOAD DUP11 LT ISZERO PUSH2 0x495 JUMPI PUSH1 0xFF PUSH2 0x36F DUP12 DUP4 PUSH2 0x102B JUMP JUMPDEST MLOAD AND DUP10 MSTORE PUSH1 0x4 DUP5 MSTORE PUSH2 0x3D4 DUP5 DUP4 PUSH1 0x40 DUP13 KECCAK256 SLOAD AND PUSH2 0x38C DUP14 DUP8 PUSH2 0x102B JUMP JUMPDEST MLOAD PUSH1 0x40 MLOAD PUSH32 0xA9059CBB00000000000000000000000000000000000000000000000000000000 DUP2 MSTORE PUSH1 0x1 PUSH1 0xA0 PUSH1 0x2 EXP SUB SWAP1 SWAP3 AND PUSH1 0x4 DUP4 ADD MSTORE PUSH1 0x24 DUP3 ADD MSTORE SWAP2 DUP3 SWAP1 DUP2 SWAP1 PUSH1 0x44 DUP3 ADD SWAP1 JUMP JUMPDEST SUB DUP2 DUP14 PUSH20 0xA0B86991C6218B36C1D19D4A2E9EB0CE3606EB48 GAS CALL SWAP1 DUP2 ISZERO PUSH2 0x48A JUMPI DUP11 SWAP2 PUSH2 0x45D JUMPI JUMPDEST POP ISZERO PUSH2 0x419 JUMPI PUSH2 0x410 DUP9 SWAP10 SWAP11 SWAP9 SWAP8 SWAP9 PUSH2 0x101C JUMP JUMPDEST SWAP10 SWAP9 SWAP8 SWAP7 PUSH2 0x34E JUMP JUMPDEST POP POP POP SWAP1 PUSH32 0x55534443207472616E7366657220746F2063686172697479206661696C65642E SWAP2 PUSH1 0x40 MLOAD SWAP4 PUSH1 0xE5 PUSH1 0x2 EXP PUSH3 0x461BCD MUL DUP6 MSTORE DUP2 PUSH1 0x4 DUP7 ADD MSTORE DUP5 ADD MSTORE DUP3 ADD MSTORE REVERT JUMPDEST PUSH2 0x47D SWAP2 POP DUP6 RETURNDATASIZE DUP8 GT PUSH2 0x483 JUMPI JUMPDEST PUSH2 0x475 DUP2 DUP4 PUSH2 0xDF1 JUMP JUMPDEST DUP2 ADD SWAP1 PUSH2 0x1004 JUMP JUMPDEST CODESIZE PUSH2 0x3FC JUMP JUMPDEST POP RETURNDATASIZE PUSH2 0x46B JUMP JUMPDEST PUSH1 0x40 MLOAD RETURNDATASIZE DUP13 DUP3 RETURNDATACOPY RETURNDATASIZE SWAP1 REVERT JUMPDEST PUSH2 0x353 JUMP JUMPDEST PUSH1 0x84 DUP4 PUSH32 0x772E000000000000000000000000000000000000000000000000000000000000 DUP9 PUSH32 0x546F74616C2066696E616C697A6174696F6E20616D6F756E7420746F6F206C6F DUP9 PUSH1 0x22 DUP12 PUSH1 0x40 MLOAD SWAP7 PUSH1 0xE5 PUSH1 0x2 EXP PUSH3 0x461BCD MUL DUP9 MSTORE PUSH1 0x4 DUP9 ADD MSTORE DUP7 ADD MSTORE DUP5 ADD MSTORE DUP3 ADD MSTORE REVERT JUMPDEST DUP11 MSTORE PUSH1 0x3 DUP6 MSTORE PUSH1 0x40 DUP11 KECCAK256 SLOAD EQ SWAP1 POP CODESIZE DUP1 PUSH2 0x342 JUMP JUMPDEST PUSH1 0x84 DUP8 PUSH32 0x6768000000000000000000000000000000000000000000000000000000000000 DUP13 PUSH32 0x546F74616C2066696E616C697A6174696F6E20616D6F756E7420746F6F206869 DUP13 PUSH1 0x22 DUP16 PUSH1 0x40 MLOAD SWAP7 PUSH1 0xE5 PUSH1 0x2 EXP PUSH3 0x461BCD MUL DUP9 MSTORE PUSH1 0x4 DUP9 ADD MSTORE DUP7 ADD MSTORE DUP5 ADD MSTORE DUP3 ADD MSTORE REVERT JUMPDEST SWAP1 SWAP3 DUP7 MLOAD DUP5 LT ISZERO PUSH2 0x5B3 JUMPI PUSH2 0x5A6 PUSH2 0x5AC SWAP2 PUSH2 0x59F DUP7 DUP11 PUSH2 0x102B JUMP JUMPDEST MLOAD SWAP1 PUSH2 0xF74 JUMP JUMPDEST SWAP4 PUSH2 0x101C JUMP JUMPDEST SWAP1 DUP1 PUSH2 0x317 JUMP JUMPDEST SWAP3 POP DUP1 PUSH2 0x31C JUMP JUMPDEST PUSH1 0x84 DUP6 PUSH32 0x646966666572656E74206C656E6774682E000000000000000000000000000000 DUP11 PUSH32 0x43686172697469657320616E6420616D6F756E747320617272617973206F6620 DUP11 PUSH1 0x31 DUP14 PUSH1 0x40 MLOAD SWAP7 PUSH1 0xE5 PUSH1 0x2 EXP PUSH3 0x461BCD MUL DUP9 MSTORE PUSH1 0x4 DUP9 ADD MSTORE DUP7 ADD MSTORE DUP5 ADD MSTORE DUP3 ADD MSTORE REVERT JUMPDEST DUP9 DUP1 REVERT JUMPDEST DUP3 CALLDATALOAD DUP2 MSTORE SWAP2 DUP2 ADD SWAP2 DUP5 SWAP2 ADD PUSH2 0x2D0 JUMP JUMPDEST DUP6 DUP1 REVERT JUMPDEST DUP2 CALLDATALOAD PUSH1 0xFF DUP2 AND DUP2 SUB PUSH2 0x625 JUMPI DUP2 MSTORE SWAP1 DUP4 ADD SWAP1 DUP4 ADD PUSH2 0x277 JUMP JUMPDEST DUP8 DUP1 REVERT JUMPDEST DUP4 DUP1 REVERT JUMPDEST POP CALLVALUE PUSH2 0xDE JUMPI DUP1 PUSH1 0x3 NOT CALLDATASIZE ADD SLT PUSH2 0xDE JUMPI PUSH1 0x1 PUSH1 0xA0 PUSH1 0x2 EXP SUB PUSH1 0x20 SWAP2 SLOAD AND PUSH1 0x40 MLOAD SWAP1 DUP2 MSTORE RETURN JUMPDEST POP CALLVALUE PUSH2 0xDE JUMPI DUP1 PUSH1 0x3 NOT CALLDATASIZE ADD SLT PUSH2 0xDE JUMPI PUSH1 0x20 PUSH1 0x40 MLOAD PUSH20 0xA0B86991C6218B36C1D19D4A2E9EB0CE3606EB48 DUP2 MSTORE RETURN JUMPDEST POP CALLVALUE PUSH2 0xDE JUMPI DUP1 PUSH1 0x3 NOT CALLDATASIZE ADD SLT PUSH2 0xDE JUMPI PUSH2 0x6CC PUSH2 0xE2B JUMP JUMPDEST PUSH1 0x0 DUP1 SLOAD PUSH20 0xFFFFFFFFFFFFFFFFFFFFFFFFFFFFFFFFFFFFFFFF NOT DUP2 AND DUP3 SSTORE PUSH1 0x1 PUSH1 0xA0 PUSH1 0x2 EXP SUB AND PUSH32 0x8BE0079C531659141344CD1FD0A4F28419497F9722A3DAAFE3B4186F6B6457E0 DUP3 DUP1 LOG3 DUP1 RETURN JUMPDEST POP CALLVALUE PUSH2 0xDE JUMPI DUP1 PUSH1 0x3 NOT CALLDATASIZE ADD SLT PUSH2 0xDE JUMPI PUSH1 0xFF PUSH21 0x10000000000000000000000000000000000000000 PUSH1 0x20 SWAP3 SLOAD DIV AND PUSH1 0x40 MLOAD SWAP1 ISZERO ISZERO DUP2 MSTORE RETURN JUMPDEST POP CALLVALUE PUSH2 0xDE JUMPI DUP1 PUSH1 0x3 NOT CALLDATASIZE ADD SLT PUSH2 0xDE JUMPI PUSH1 0x20 PUSH1 0x40 MLOAD PUSH20 0xC02AAA39B223FE8D0A0E5C4F27EAD9083C756CC2 DUP2 MSTORE RETURN JUMPDEST POP CALLVALUE PUSH2 0xDE JUMPI PUSH2 0x100 CALLDATASIZE PUSH1 0x3 NOT ADD SLT PUSH2 0xDE JUMPI PUSH2 0x79D PUSH2 0xDA5 JUMP JUMPDEST PUSH1 0x24 CALLDATALOAD SWAP1 PUSH1 0x1 PUSH1 0xA0 PUSH1 0x2 EXP SUB DUP3 AND SWAP2 DUP3 DUP2 SUB PUSH2 0x65A JUMPI PUSH1 0xA4 CALLDATALOAD PUSH3 0xFFFFFF SWAP1 DUP2 DUP2 AND DUP1 SWAP2 SUB PUSH2 0x639 JUMPI PUSH1 0xC4 CALLDATALOAD SWAP3 DUP3 DUP5 AND DUP5 SUB PUSH2 0xC61 JUMPI PUSH2 0x7DA PUSH2 0xF9A JUMP JUMPDEST PUSH2 0x7E9 PUSH1 0x2 PUSH1 0x1 SLOAD EQ ISZERO PUSH2 0xE86 JUMP JUMPDEST PUSH1 0x2 PUSH1 0x1 SSTORE PUSH1 0x40 MLOAD PUSH1 0x20 DUP2 ADD SWAP1 PUSH32 0x23B872DD00000000000000000000000000000000000000000000000000000000 DUP3 MSTORE CALLER PUSH1 0x24 DUP3 ADD MSTORE ADDRESS PUSH1 0x44 DUP3 ADD MSTORE PUSH1 0x44 CALLDATALOAD PUSH1 0x64 DUP3 ADD MSTORE PUSH1 0x64 DUP2 MSTORE PUSH1 0xA0 DUP2 ADD DUP2 DUP2 LT PUSH8 0xFFFFFFFFFFFFFFFF DUP3 GT OR PUSH2 0xD8E JUMPI PUSH1 0x40 MSTORE MLOAD DUP9 SWAP2 DUP3 SWAP2 SWAP1 DUP3 DUP6 GAS CALL PUSH2 0x85D PUSH2 0xF34 JUMP JUMPDEST DUP2 PUSH2 0xD5F JUMPI JUMPDEST POP ISZERO PUSH2 0xD18 JUMPI PUSH1 0x40 MLOAD PUSH32 0x95EA7B300000000000000000000000000000000000000000000000000000000 PUSH1 0x20 DUP3 ADD SWAP1 DUP2 MSTORE PUSH1 0x1 PUSH1 0xA0 PUSH1 0x2 EXP SUB PUSH32 0x0 AND PUSH1 0x24 DUP4 ADD MSTORE PUSH1 0x44 DUP1 CALLDATALOAD DUP2 DUP5 ADD MSTORE DUP3 MSTORE DUP9 SWAP3 DUP4 SWAP3 SWAP1 SWAP2 SWAP1 DUP4 SWAP1 PUSH2 0x8E1 PUSH1 0x64 DUP3 PUSH2 0xDF1 JUMP JUMPDEST MLOAD SWAP3 GAS CALL PUSH2 0x8ED PUSH2 0xF34 JUMP JUMPDEST DUP2 PUSH2 0xCE9 JUMPI JUMPDEST POP ISZERO PUSH2 0xCA2 JUMPI PUSH1 0x2 SLOAD PUSH1 0x40 MLOAD SWAP2 PUSH2 0x909 DUP4 PUSH2 0xDBB JUMP JUMPDEST DUP7 DUP4 MSTORE PUSH20 0xC02AAA39B223FE8D0A0E5C4F27EAD9083C756CC2 PUSH1 0x20 DUP5 ADD MSTORE PUSH1 0x40 DUP4 ADD MSTORE ADDRESS PUSH1 0x60 DUP4 ADD MSTORE PUSH1 0x64 CALLDATALOAD PUSH1 0x80 DUP4 ADD MSTORE PUSH1 0xA0 DUP3 ADD MSTORE PUSH1 0x84 CALLDATALOAD PUSH1 0xC0 DUP3 ADD MSTORE DUP6 PUSH1 0xE0 DUP3 ADD MSTORE PUSH2 0x980 PUSH1 0x40 MLOAD SWAP2 PUSH32 0xDB3E219800000000000000000000000000000000000000000000000000000000 DUP4 MSTORE PUSH1 0x4 DUP4 ADD SWAP1 PUSH2 0xED4 JUMP JUMPDEST PUSH1 0x20 DUP2 PUSH2 0x104 DUP2 DUP10 PUSH1 0x1 PUSH1 0xA0 PUSH1 0x2 EXP SUB PUSH32 0x0 AND GAS CALL SWAP1 DUP2 ISZERO PUSH2 0xC97 JUMPI DUP7 SWAP2 PUSH2 0xC65 JUMPI JUMPDEST POP PUSH1 0x2 SLOAD PUSH20 0xC02AAA39B223FE8D0A0E5C4F27EAD9083C756CC2 EXTCODESIZE ISZERO PUSH2 0xC61 JUMPI PUSH1 0x40 MLOAD SWAP1 PUSH32 0x2E1A7D4D00000000000000000000000000000000000000000000000000000000 DUP3 MSTORE PUSH1 0x4 DUP3 ADD MSTORE DUP7 DUP2 PUSH1 0x24 DUP2 DUP4 PUSH20 0xC02AAA39B223FE8D0A0E5C4F27EAD9083C756CC2 GAS CALL DUP1 ISZERO PUSH2 0xC56 JUMPI PUSH2 0xC23 JUMPI JUMPDEST POP DUP6 DUP1 DUP1 DUP1 PUSH1 0x2 SLOAD PUSH1 0x1 PUSH1 0xA0 PUSH1 0x2 EXP SUB DUP10 AND GAS CALL PUSH2 0xA51 PUSH2 0xF34 JUMP JUMPDEST POP ISZERO PUSH2 0xBB6 JUMPI PUSH1 0x44 CALLDATALOAD SUB SWAP2 PUSH1 0x44 CALLDATALOAD DUP4 GT PUSH2 0xB9F JUMPI PUSH1 0x40 MLOAD SWAP5 PUSH2 0xA72 DUP7 PUSH2 0xDBB JUMP JUMPDEST DUP6 MSTORE PUSH20 0xA0B86991C6218B36C1D19D4A2E9EB0CE3606EB48 PUSH1 0x20 DUP7 ADD MSTORE AND PUSH1 0x40 DUP5 ADD MSTORE ADDRESS PUSH1 0x60 DUP5 ADD MSTORE PUSH1 0x64 CALLDATALOAD PUSH1 0x80 DUP5 ADD MSTORE PUSH1 0xA0 DUP4 ADD MSTORE PUSH1 0xE4 CALLDATALOAD PUSH1 0xC0 DUP4 ADD MSTORE DUP3 PUSH1 0xE0 DUP4 ADD MSTORE PUSH2 0xAE9 PUSH1 0x40 MLOAD SWAP3 PUSH32 0x414BF38900000000000000000000000000000000000000000000000000000000 DUP5 MSTORE PUSH1 0x4 DUP5 ADD SWAP1 PUSH2 0xED4 JUMP JUMPDEST PUSH1 0x20 DUP3 PUSH2 0x104 DUP2 DUP7 PUSH1 0x1 PUSH1 0xA0 PUSH1 0x2 EXP SUB PUSH32 0x0 AND GAS CALL SWAP2 DUP3 ISZERO PUSH2 0xB94 JUMPI DUP4 SWAP3 PUSH2 0xB54 JUMPI JUMPDEST POP PUSH1 0x1 PUSH1 0xA0 PUSH1 0x2 EXP SUB AND DUP3 MSTORE PUSH1 0x3 PUSH1 0x20 MSTORE PUSH2 0xB4B PUSH1 0x40 DUP4 KECCAK256 SWAP2 DUP3 SLOAD PUSH2 0xF74 JUMP JUMPDEST SWAP1 SSTORE PUSH1 0x1 DUP1 SSTORE DUP1 RETURN JUMPDEST SWAP1 SWAP2 POP PUSH1 0x20 DUP2 RETURNDATASIZE PUSH1 0x20 GT PUSH2 0xB8C JUMPI JUMPDEST DUP2 PUSH2 0xB70 PUSH1 0x20 SWAP4 DUP4 PUSH2 0xDF1 JUMP JUMPDEST DUP2 ADD SUB SLT PUSH2 0xB87 JUMPI MLOAD SWAP1 PUSH1 0x1 PUSH1 0xA0 PUSH1 0x2 EXP SUB PUSH2 0xB2B JUMP JUMPDEST PUSH1 0x0 DUP1 REVERT JUMPDEST RETURNDATASIZE SWAP2 POP PUSH2 0xB63 JUMP JUMPDEST PUSH1 0x40 MLOAD RETURNDATASIZE DUP6 DUP3 RETURNDATACOPY RETURNDATASIZE SWAP1 REVERT JUMPDEST PUSH1 0x24 DUP7 PUSH1 0xE0 PUSH1 0x2 EXP PUSH4 0x4E487B71 MUL DUP2 MSTORE PUSH1 0x11 PUSH1 0x4 MSTORE REVERT JUMPDEST PUSH1 0x84 PUSH1 0x40 MLOAD PUSH1 0xE5 PUSH1 0x2 EXP PUSH3 0x461BCD MUL DUP2 MSTORE PUSH1 0x20 PUSH1 0x4 DUP3 ADD MSTORE PUSH1 0x27 PUSH1 0x24 DUP3 ADD MSTORE PUSH32 0x4661696C656420746F2073656E642067617320746F20657068656D6572616C20 PUSH1 0x44 DUP3 ADD MSTORE PUSH32 0x77616C6C65742E00000000000000000000000000000000000000000000000000 PUSH1 0x64 DUP3 ADD MSTORE REVERT JUMPDEST PUSH8 0xFFFFFFFFFFFFFFFF DUP2 SWAP8 SWAP3 SWAP8 GT PUSH2 0xC3F JUMPI PUSH1 0x40 MSTORE SWAP5 CODESIZE PUSH2 0xA35 JUMP JUMPDEST PUSH1 0x24 DUP3 PUSH1 0xE0 PUSH1 0x2 EXP PUSH4 0x4E487B71 MUL DUP2 MSTORE PUSH1 0x41 PUSH1 0x4 MSTORE REVERT JUMPDEST PUSH1 0x40 MLOAD RETURNDATASIZE DUP10 DUP3 RETURNDATACOPY RETURNDATASIZE SWAP1 REVERT JUMPDEST DUP7 DUP1 REVERT JUMPDEST SWAP1 POP PUSH1 0x20 DUP2 RETURNDATASIZE PUSH1 0x20 GT PUSH2 0xC8F JUMPI JUMPDEST DUP2 PUSH2 0xC80 PUSH1 0x20 SWAP4 DUP4 PUSH2 0xDF1 JUMP JUMPDEST DUP2 ADD SUB SLT PUSH2 0x639 JUMPI MLOAD CODESIZE PUSH2 0x9C2 JUMP JUMPDEST RETURNDATASIZE SWAP2 POP PUSH2 0xC73 JUMP JUMPDEST PUSH1 0x40 MLOAD RETURNDATASIZE DUP9 DUP3 RETURNDATACOPY RETURNDATASIZE SWAP1 REVERT JUMPDEST PUSH1 0x64 PUSH1 0x40 MLOAD PUSH1 0xE5 PUSH1 0x2 EXP PUSH3 0x461BCD MUL DUP2 MSTORE PUSH1 0x20 PUSH1 0x4 DUP3 ADD MSTORE PUSH1 0x2 PUSH1 0x24 DUP3 ADD MSTORE PUSH32 0x5341000000000000000000000000000000000000000000000000000000000000 PUSH1 0x44 DUP3 ADD MSTORE REVERT JUMPDEST DUP1 MLOAD DUP1 ISZERO SWAP3 POP DUP3 ISZERO PUSH2 0xCFE JUMPI JUMPDEST POP POP CODESIZE PUSH2 0x8F3 JUMP JUMPDEST PUSH2 0xD11 SWAP3 POP PUSH1 0x20 DUP1 SWAP2 DUP4 ADD ADD SWAP2 ADD PUSH2 0x1004 JUMP JUMPDEST CODESIZE DUP1 PUSH2 0xCF6 JUMP JUMPDEST PUSH1 0x64 PUSH1 0x40 MLOAD PUSH1 0xE5 PUSH1 0x2 EXP PUSH3 0x461BCD MUL DUP2 MSTORE PUSH1 0x20 PUSH1 0x4 DUP3 ADD MSTORE PUSH1 0x3 PUSH1 0x24 DUP3 ADD MSTORE PUSH32 0x5354460000000000000000000000000000000000000000000000000000000000 PUSH1 0x44 DUP3 ADD MSTORE REVERT JUMPDEST DUP1 MLOAD DUP1 ISZERO SWAP3 POP DUP3 ISZERO PUSH2 0xD74 JUMPI JUMPDEST POP POP CODESIZE PUSH2 0x863 JUMP JUMPDEST PUSH2 0xD87 SWAP3 POP PUSH1 0x20 DUP1 SWAP2 DUP4 ADD ADD SWAP2 ADD PUSH2 0x1004 JUMP JUMPDEST CODESIZE DUP1 PUSH2 0xD6C JUMP JUMPDEST PUSH1 0x24 DUP11 PUSH1 0xE0 PUSH1 0x2 EXP PUSH4 0x4E487B71 MUL DUP2 MSTORE PUSH1 0x41 PUSH1 0x4 MSTORE REVERT JUMPDEST PUSH1 0x4 CALLDATALOAD SWAP1 PUSH1 0x1 PUSH1 0xA0 PUSH1 0x2 EXP SUB DUP3 AND DUP3 SUB PUSH2 0xB87 JUMPI JUMP JUMPDEST PUSH2 0x100 DUP2 ADD SWAP1 DUP2 LT PUSH8 0xFFFFFFFFFFFFFFFF DUP3 GT OR PUSH2 0xDD8 JUMPI PUSH1 0x40 MSTORE JUMP JUMPDEST PUSH1 0xE0 PUSH1 0x2 EXP PUSH4 0x4E487B71 MUL PUSH1 0x0 MSTORE PUSH1 0x41 PUSH1 0x4 MSTORE PUSH1 0x24 PUSH1 0x0 REVERT JUMPDEST SWAP1 PUSH1 0x1F DUP1 NOT SWAP2 ADD AND DUP2 ADD SWAP1 DUP2 LT PUSH8 0xFFFFFFFFFFFFFFFF DUP3 GT OR PUSH2 0xDD8 JUMPI PUSH1 0x40 MSTORE JUMP JUMPDEST PUSH8 0xFFFFFFFFFFFFFFFF DUP2 GT PUSH2 0xDD8 JUMPI PUSH1 0x20 DUP1 SWAP2 MUL ADD SWAP1 JUMP JUMPDEST PUSH1 0x1 PUSH1 0xA0 PUSH1 0x2 EXP SUB PUSH1 0x0 SLOAD AND CALLER SUB PUSH2 0xE3F JUMPI JUMP JUMPDEST PUSH1 0x64 PUSH1 0x40 MLOAD PUSH1 0xE5 PUSH1 0x2 EXP PUSH3 0x461BCD MUL DUP2 MSTORE PUSH1 0x20 PUSH1 0x4 DUP3 ADD MSTORE PUSH1 0x20 PUSH1 0x24 DUP3 ADD MSTORE PUSH32 0x4F776E61626C653A2063616C6C6572206973206E6F7420746865206F776E6572 PUSH1 0x44 DUP3 ADD MSTORE REVERT JUMPDEST ISZERO PUSH2 0xE8D JUMPI JUMP JUMPDEST PUSH1 0x64 PUSH1 0x40 MLOAD PUSH1 0xE5 PUSH1 0x2 EXP PUSH3 0x461BCD MUL DUP2 MSTORE PUSH1 0x20 PUSH1 0x4 DUP3 ADD MSTORE PUSH1 0x1F PUSH1 0x24 DUP3 ADD MSTORE PUSH32 0x5265656E7472616E637947756172643A207265656E7472616E742063616C6C00 PUSH1 0x44 DUP3 ADD MSTORE REVERT JUMPDEST PUSH1 0xE0 SWAP1 DUP2 PUSH1 0x1 PUSH1 0xA0 PUSH1 0x2 EXP SUB SWAP2 DUP3 DUP2 MLOAD AND DUP6 MSTORE DUP3 PUSH1 0x20 DUP3 ADD MLOAD AND PUSH1 0x20 DUP7 ADD MSTORE PUSH3 0xFFFFFF PUSH1 0x40 DUP3 ADD MLOAD AND PUSH1 0x40 DUP7 ADD MSTORE DUP3 PUSH1 0x60 DUP3 ADD MLOAD AND PUSH1 0x60 DUP7 ADD MSTORE PUSH1 0x80 DUP2 ADD MLOAD PUSH1 0x80 DUP7 ADD MSTORE PUSH1 0xA0 DUP2 ADD MLOAD PUSH1 0xA0 DUP7 ADD MSTORE PUSH1 0xC0 DUP2 ADD MLOAD PUSH1 0xC0 DUP7 ADD MSTORE ADD MLOAD AND SWAP2 ADD MSTORE JUMP JUMPDEST RETURNDATASIZE ISZERO PUSH2 0xF6F JUMPI RETURNDATASIZE SWAP1 PUSH8 0xFFFFFFFFFFFFFFFF DUP3 GT PUSH2 0xDD8 JUMPI PUSH1 0x40 MLOAD SWAP2 PUSH2 0xF63 PUSH1 0x1F DUP3 ADD PUSH1 0x1F NOT AND PUSH1 0x20 ADD DUP5 PUSH2 0xDF1 JUMP JUMPDEST DUP3 MSTORE RETURNDATASIZE PUSH1 0x0 PUSH1 0x20 DUP5 ADD RETURNDATACOPY JUMP JUMPDEST PUSH1 0x60 SWAP1 JUMP JUMPDEST SWAP2 SWAP1 DUP3 ADD DUP1 SWAP3 GT PUSH2 0xF81 JUMPI JUMP JUMPDEST PUSH1 0xE0 PUSH1 0x2 EXP PUSH4 0x4E487B71 MUL PUSH1 0x0 MSTORE PUSH1 0x11 PUSH1 0x4 MSTORE PUSH1 0x24 PUSH1 0x0 REVERT JUMPDEST PUSH1 0xFF PUSH21 0x10000000000000000000000000000000000000000 PUSH1 0x0 SLOAD DIV AND PUSH2 0xFBD JUMPI JUMP JUMPDEST PUSH1 0x64 PUSH1 0x40 MLOAD PUSH1 0xE5 PUSH1 0x2 EXP PUSH3 0x461BCD MUL DUP2 MSTORE PUSH1 0x20 PUSH1 0x4 DUP3 ADD MSTORE PUSH1 0x10 PUSH1 0x24 DUP3 ADD MSTORE PUSH32 0x5061757361626C653A2070617573656400000000000000000000000000000000 PUSH1 0x44 DUP3 ADD MSTORE REVERT JUMPDEST SWAP1 DUP2 PUSH1 0x20 SWAP2 SUB SLT PUSH2 0xB87 JUMPI MLOAD DUP1 ISZERO ISZERO DUP2 SUB PUSH2 0xB87 JUMPI SWAP1 JUMP JUMPDEST PUSH1 0x0 NOT DUP2 EQ PUSH2 0xF81 JUMPI PUSH1 0x1 ADD SWAP1 JUMP JUMPDEST DUP1 MLOAD DUP3 LT ISZERO PUSH2 0x103E JUMPI PUSH1 0x20 DUP1 SWAP3 MUL ADD ADD SWAP1 JUMP JUMPDEST PUSH1 0xE0 PUSH1 0x2 EXP PUSH4 0x4E487B71 MUL PUSH1 0x0 MSTORE PUSH1 0x32 PUSH1 0x4 MSTORE PUSH1 0x24 PUSH1 0x0 REVERT INVALID LOG2 PUSH5 0x6970667358 0x22 SLT KECCAK256 DUP15 DUP1 CREATE SWAP3 0xE5 POP 0x1E 0x24 0xA6 DUP14 0xC4 0xE3 0xA8 PUSH16 0x1FBDE35032C5A3489E23406A89AB4473 0xD 0xCE PUSH5 0x736F6C6343 STOP ADDMOD GT STOP CALLER "
		},
		"gasEstimates": {
			"creation": {
				"codeDepositCost": "847400",
				"executionCost": "infinite",
				"totalCost": "infinite"
			},
			"external": {
				"USDC()": "242",
				"WETH9()": "176",
				"deposit(address,address,uint256,uint256,uint256,uint24,uint24,uint256)": "infinite",
				"finalize(address,uint8[],uint256[],bool)": "infinite",
				"getBalance(address)": "815",
				"owner()": "542",
				"paused()": "421",
				"renounceOwnership()": "22324",
				"swapRouter()": "infinite",
				"transferOwnership(address)": "22667"
			}
		},
		"methodIdentifiers": {
			"USDC()": "89a30271",
			"WETH9()": "4aa4a4fc",
			"deposit(address,address,uint256,uint256,uint256,uint24,uint24,uint256)": "480a6fdc",
			"finalize(address,uint8[],uint256[],bool)": "8de9c372",
			"getBalance(address)": "f8b2cb4f",
			"owner()": "8da5cb5b",
			"paused()": "5c975abb",
			"renounceOwnership()": "715018a6",
			"swapRouter()": "c31c9c07",
			"transferOwnership(address)": "f2fde38b"
		}
	},
	"abi": [
		{
			"inputs": [
				{
					"internalType": "contract ISwapRouter",
					"name": "_swapRouter",
					"type": "address"
				},
				{
					"internalType": "uint256",
					"name": "_ephemeralGasMoneyAmount",
					"type": "uint256"
				}
			],
			"stateMutability": "nonpayable",
			"type": "constructor"
		},
		{
			"anonymous": false,
			"inputs": [
				{
					"indexed": true,
					"internalType": "address",
					"name": "previousOwner",
					"type": "address"
				},
				{
					"indexed": true,
					"internalType": "address",
					"name": "newOwner",
					"type": "address"
				}
			],
			"name": "OwnershipTransferred",
			"type": "event"
		},
		{
			"anonymous": false,
			"inputs": [
				{
					"indexed": false,
					"internalType": "address",
					"name": "account",
					"type": "address"
				}
			],
			"name": "Paused",
			"type": "event"
		},
		{
			"anonymous": false,
			"inputs": [
				{
					"indexed": false,
					"internalType": "address",
					"name": "account",
					"type": "address"
				}
			],
			"name": "Unpaused",
			"type": "event"
		},
		{
			"inputs": [],
			"name": "USDC",
			"outputs": [
				{
					"internalType": "address",
					"name": "",
					"type": "address"
				}
			],
			"stateMutability": "view",
			"type": "function"
		},
		{
			"inputs": [],
			"name": "WETH9",
			"outputs": [
				{
					"internalType": "address",
					"name": "",
					"type": "address"
				}
			],
			"stateMutability": "view",
			"type": "function"
		},
		{
			"inputs": [
				{
					"internalType": "address",
					"name": "ephemeralWalletAddress",
					"type": "address"
				},
				{
					"internalType": "address",
					"name": "tokenIn",
					"type": "address"
				},
				{
					"internalType": "uint256",
					"name": "totalAmountIn",
					"type": "uint256"
				},
				{
					"internalType": "uint256",
					"name": "deadline",
					"type": "uint256"
				},
				{
					"internalType": "uint256",
					"name": "ethSwapAmountInMax",
					"type": "uint256"
				},
				{
					"internalType": "uint24",
					"name": "ethSwapPoolFee",
					"type": "uint24"
				},
				{
					"internalType": "uint24",
					"name": "usdcSwapPoolFee",
					"type": "uint24"
				},
				{
					"internalType": "uint256",
					"name": "usdcSwapAmountOutMinimum",
					"type": "uint256"
				}
			],
			"name": "deposit",
			"outputs": [],
			"stateMutability": "nonpayable",
			"type": "function"
		},
		{
			"inputs": [
				{
					"internalType": "address",
					"name": "user",
					"type": "address"
				},
				{
					"internalType": "uint8[]",
					"name": "charities_",
					"type": "uint8[]"
				},
				{
					"internalType": "uint256[]",
					"name": "amounts_",
					"type": "uint256[]"
				},
				{
					"internalType": "bool",
					"name": "autoAllocateRemainder",
					"type": "bool"
				}
			],
			"name": "finalize",
			"outputs": [],
			"stateMutability": "nonpayable",
			"type": "function"
		},
		{
			"inputs": [
				{
					"internalType": "address",
					"name": "user",
					"type": "address"
				}
			],
			"name": "getBalance",
			"outputs": [
				{
					"internalType": "uint256",
					"name": "userBalance_",
					"type": "uint256"
				}
			],
			"stateMutability": "view",
			"type": "function"
		},
		{
			"inputs": [],
			"name": "owner",
			"outputs": [
				{
					"internalType": "address",
					"name": "",
					"type": "address"
				}
			],
			"stateMutability": "view",
			"type": "function"
		},
		{
			"inputs": [],
			"name": "paused",
			"outputs": [
				{
					"internalType": "bool",
					"name": "",
					"type": "bool"
				}
			],
			"stateMutability": "view",
			"type": "function"
		},
		{
			"inputs": [],
			"name": "renounceOwnership",
			"outputs": [],
			"stateMutability": "nonpayable",
			"type": "function"
		},
		{
			"inputs": [],
			"name": "swapRouter",
			"outputs": [
				{
					"internalType": "contract ISwapRouter",
					"name": "",
					"type": "address"
				}
			],
			"stateMutability": "view",
			"type": "function"
		},
		{
			"inputs": [
				{
					"internalType": "address",
					"name": "newOwner",
					"type": "address"
				}
			],
			"name": "transferOwnership",
			"outputs": [],
			"stateMutability": "nonpayable",
			"type": "function"
		}
	]
}